{"abi":[{"type":"constructor","inputs":[{"name":"_deployer","type":"address","internalType":"address"},{"name":"args","type":"bytes","internalType":"bytes"}],"stateMutability":"nonpayable"},{"type":"function","name":"addRoleProvider","inputs":[{"name":"providerAddress","type":"address","internalType":"address"},{"name":"timeToLive","type":"uint32","internalType":"uint32"}],"outputs":[],"stateMutability":"nonpayable"},{"type":"function","name":"blockFromDeposits","inputs":[{"name":"account","type":"address","internalType":"address"}],"outputs":[],"stateMutability":"nonpayable"},{"type":"function","name":"borrower","inputs":[],"outputs":[{"name":"","type":"address","internalType":"address"}],"stateMutability":"view"},{"type":"function","name":"config","inputs":[],"outputs":[{"name":"","type":"uint256","internalType":"HooksDeploymentConfig"}],"stateMutability":"view"},{"type":"function","name":"createRoleProvider","inputs":[{"name":"providerFactory","type":"address","internalType":"address"},{"name":"timeToLive","type":"uint32","internalType":"uint32"},{"name":"data","type":"bytes","internalType":"bytes"}],"outputs":[],"stateMutability":"nonpayable"},{"type":"function","name":"disableForceBuyBacks","inputs":[{"name":"market","type":"address","internalType":"address"}],"outputs":[],"stateMutability":"nonpayable"},{"type":"function","name":"factory","inputs":[],"outputs":[{"name":"","type":"address","internalType":"address"}],"stateMutability":"view"},{"type":"function","name":"getHookedMarket","inputs":[{"name":"marketAddress","type":"address","internalType":"address"}],"outputs":[{"name":"","type":"tuple","internalType":"struct HookedMarket","components":[{"name":"isHooked","type":"bool","internalType":"bool"},{"name":"transferRequiresAccess","type":"bool","internalType":"bool"},{"name":"depositRequiresAccess","type":"bool","internalType":"bool"},{"name":"minimumDeposit","type":"uint128","internalType":"uint128"},{"name":"transfersDisabled","type":"bool","internalType":"bool"},{"name":"allowForceBuyBacks","type":"bool","internalType":"bool"}]}],"stateMutability":"view"},{"type":"function","name":"getHookedMarkets","inputs":[{"name":"marketAddresses","type":"address[]","internalType":"address[]"}],"outputs":[{"name":"hookedMarkets","type":"tuple[]","internalType":"struct HookedMarket[]","components":[{"name":"isHooked","type":"bool","internalType":"bool"},{"name":"transferRequiresAccess","type":"bool","internalType":"bool"},{"name":"depositRequiresAccess","type":"bool","internalType":"bool"},{"name":"minimumDeposit","type":"uint128","internalType":"uint128"},{"name":"transfersDisabled","type":"bool","internalType":"bool"},{"name":"allowForceBuyBacks","type":"bool","internalType":"bool"}]}],"stateMutability":"view"},{"type":"function","name":"getLenderStatus","inputs":[{"name":"accountAddress","type":"address","internalType":"address"}],"outputs":[{"name":"status","type":"tuple","internalType":"struct LenderStatus","components":[{"name":"isBlockedFromDeposits","type":"bool","internalType":"bool"},{"name":"lastProvider","type":"address","internalType":"address"},{"name":"canRefresh","type":"bool","internalType":"bool"},{"name":"lastApprovalTimestamp","type":"uint32","internalType":"uint32"}]}],"stateMutability":"view"},{"type":"function","name":"getParameterConstraints","inputs":[],"outputs":[{"name":"constraints","type":"tuple","internalType":"struct MarketParameterConstraints","components":[{"name":"minimumDelinquencyGracePeriod","type":"uint32","internalType":"uint32"},{"name":"maximumDelinquencyGracePeriod","type":"uint32","internalType":"uint32"},{"name":"minimumReserveRatioBips","type":"uint16","internalType":"uint16"},{"name":"maximumReserveRatioBips","type":"uint16","internalType":"uint16"},{"name":"minimumDelinquencyFeeBips","type":"uint16","internalType":"uint16"},{"name":"maximumDelinquencyFeeBips","type":"uint16","internalType":"uint16"},{"name":"minimumWithdrawalBatchDuration","type":"uint32","internalType":"uint32"},{"name":"maximumWithdrawalBatchDuration","type":"uint32","internalType":"uint32"},{"name":"minimumAnnualInterestBips","type":"uint16","internalType":"uint16"},{"name":"maximumAnnualInterestBips","type":"uint16","internalType":"uint16"}]}],"stateMutability":"pure"},{"type":"function","name":"getPreviousLenderStatus","inputs":[{"name":"accountAddress","type":"address","internalType":"address"}],"outputs":[{"name":"status","type":"tuple","internalType":"struct LenderStatus","components":[{"name":"isBlockedFromDeposits","type":"bool","internalType":"bool"},{"name":"lastProvider","type":"address","internalType":"address"},{"name":"canRefresh","type":"bool","internalType":"bool"},{"name":"lastApprovalTimestamp","type":"uint32","internalType":"uint32"}]}],"stateMutability":"view"},{"type":"function","name":"getPullProviders","inputs":[],"outputs":[{"name":"","type":"uint256[]","internalType":"RoleProvider[]"}],"stateMutability":"view"},{"type":"function","name":"getPushProviders","inputs":[],"outputs":[{"name":"","type":"uint256[]","internalType":"RoleProvider[]"}],"stateMutability":"view"},{"type":"function","name":"getRoleProvider","inputs":[{"name":"providerAddress","type":"address","internalType":"address"}],"outputs":[{"name":"","type":"uint256","internalType":"RoleProvider"}],"stateMutability":"view"},{"type":"function","name":"grantRole","inputs":[{"name":"account","type":"address","internalType":"address"},{"name":"roleGrantedTimestamp","type":"uint32","internalType":"uint32"}],"outputs":[],"stateMutability":"nonpayable"},{"type":"function","name":"grantRoles","inputs":[{"name":"accounts","type":"address[]","internalType":"address[]"},{"name":"roleGrantedTimestamps","type":"uint32[]","internalType":"uint32[]"}],"outputs":[],"stateMutability":"nonpayable"},{"type":"function","name":"isKnownLenderOnMarket","inputs":[{"name":"lender","type":"address","internalType":"address"},{"name":"market","type":"address","internalType":"address"}],"outputs":[{"name":"","type":"bool","internalType":"bool"}],"stateMutability":"view"},{"type":"function","name":"name","inputs":[],"outputs":[{"name":"","type":"string","internalType":"string"}],"stateMutability":"view"},{"type":"function","name":"onBorrow","inputs":[{"name":"","type":"uint256","internalType":"uint256"},{"name":"","type":"tuple","internalType":"struct MarketState","components":[{"name":"isClosed","type":"bool","internalType":"bool"},{"name":"maxTotalSupply","type":"uint128","internalType":"uint128"},{"name":"accruedProtocolFees","type":"uint128","internalType":"uint128"},{"name":"normalizedUnclaimedWithdrawals","type":"uint128","internalType":"uint128"},{"name":"scaledTotalSupply","type":"uint104","internalType":"uint104"},{"name":"scaledPendingWithdrawals","type":"uint104","internalType":"uint104"},{"name":"pendingWithdrawalExpiry","type":"uint32","internalType":"uint32"},{"name":"isDelinquent","type":"bool","internalType":"bool"},{"name":"timeDelinquent","type":"uint32","internalType":"uint32"},{"name":"protocolFeeBips","type":"uint16","internalType":"uint16"},{"name":"annualInterestBips","type":"uint16","internalType":"uint16"},{"name":"reserveRatioBips","type":"uint16","internalType":"uint16"},{"name":"scaleFactor","type":"uint112","internalType":"uint112"},{"name":"lastInterestAccruedTimestamp","type":"uint32","internalType":"uint32"}]},{"name":"","type":"bytes","internalType":"bytes"}],"outputs":[],"stateMutability":"nonpayable"},{"type":"function","name":"onCloseMarket","inputs":[{"name":"","type":"tuple","internalType":"struct MarketState","components":[{"name":"isClosed","type":"bool","internalType":"bool"},{"name":"maxTotalSupply","type":"uint128","internalType":"uint128"},{"name":"accruedProtocolFees","type":"uint128","internalType":"uint128"},{"name":"normalizedUnclaimedWithdrawals","type":"uint128","internalType":"uint128"},{"name":"scaledTotalSupply","type":"uint104","internalType":"uint104"},{"name":"scaledPendingWithdrawals","type":"uint104","internalType":"uint104"},{"name":"pendingWithdrawalExpiry","type":"uint32","internalType":"uint32"},{"name":"isDelinquent","type":"bool","internalType":"bool"},{"name":"timeDelinquent","type":"uint32","internalType":"uint32"},{"name":"protocolFeeBips","type":"uint16","internalType":"uint16"},{"name":"annualInterestBips","type":"uint16","internalType":"uint16"},{"name":"reserveRatioBips","type":"uint16","internalType":"uint16"},{"name":"scaleFactor","type":"uint112","internalType":"uint112"},{"name":"lastInterestAccruedTimestamp","type":"uint32","internalType":"uint32"}]},{"name":"","type":"bytes","internalType":"bytes"}],"outputs":[],"stateMutability":"nonpayable"},{"type":"function","name":"onCreateMarket","inputs":[{"name":"deployer","type":"address","internalType":"address"},{"name":"marketAddress","type":"address","internalType":"address"},{"name":"parameters","type":"tuple","internalType":"struct DeployMarketInputs","components":[{"name":"asset","type":"address","internalType":"address"},{"name":"namePrefix","type":"string","internalType":"string"},{"name":"symbolPrefix","type":"string","internalType":"string"},{"name":"maxTotalSupply","type":"uint128","internalType":"uint128"},{"name":"annualInterestBips","type":"uint16","internalType":"uint16"},{"name":"delinquencyFeeBips","type":"uint16","internalType":"uint16"},{"name":"withdrawalBatchDuration","type":"uint32","internalType":"uint32"},{"name":"reserveRatioBips","type":"uint16","internalType":"uint16"},{"name":"delinquencyGracePeriod","type":"uint32","internalType":"uint32"},{"name":"hooks","type":"uint256","internalType":"HooksConfig"}]},{"name":"extraData","type":"bytes","internalType":"bytes"}],"outputs":[{"name":"","type":"uint256","internalType":"HooksConfig"}],"stateMutability":"nonpayable"},{"type":"function","name":"onDeposit","inputs":[{"name":"lender","type":"address","internalType":"address"},{"name":"scaledAmount","type":"uint256","internalType":"uint256"},{"name":"state","type":"tuple","internalType":"struct MarketState","components":[{"name":"isClosed","type":"bool","internalType":"bool"},{"name":"maxTotalSupply","type":"uint128","internalType":"uint128"},{"name":"accruedProtocolFees","type":"uint128","internalType":"uint128"},{"name":"normalizedUnclaimedWithdrawals","type":"uint128","internalType":"uint128"},{"name":"scaledTotalSupply","type":"uint104","internalType":"uint104"},{"name":"scaledPendingWithdrawals","type":"uint104","internalType":"uint104"},{"name":"pendingWithdrawalExpiry","type":"uint32","internalType":"uint32"},{"name":"isDelinquent","type":"bool","internalType":"bool"},{"name":"timeDelinquent","type":"uint32","internalType":"uint32"},{"name":"protocolFeeBips","type":"uint16","internalType":"uint16"},{"name":"annualInterestBips","type":"uint16","internalType":"uint16"},{"name":"reserveRatioBips","type":"uint16","internalType":"uint16"},{"name":"scaleFactor","type":"uint112","internalType":"uint112"},{"name":"lastInterestAccruedTimestamp","type":"uint32","internalType":"uint32"}]},{"name":"hooksData","type":"bytes","internalType":"bytes"}],"outputs":[],"stateMutability":"nonpayable"},{"type":"function","name":"onExecuteWithdrawal","inputs":[{"name":"lender","type":"address","internalType":"address"},{"name":"","type":"uint128","internalType":"uint128"},{"name":"","type":"tuple","internalType":"struct MarketState","components":[{"name":"isClosed","type":"bool","internalType":"bool"},{"name":"maxTotalSupply","type":"uint128","internalType":"uint128"},{"name":"accruedProtocolFees","type":"uint128","internalType":"uint128"},{"name":"normalizedUnclaimedWithdrawals","type":"uint128","internalType":"uint128"},{"name":"scaledTotalSupply","type":"uint104","internalType":"uint104"},{"name":"scaledPendingWithdrawals","type":"uint104","internalType":"uint104"},{"name":"pendingWithdrawalExpiry","type":"uint32","internalType":"uint32"},{"name":"isDelinquent","type":"bool","internalType":"bool"},{"name":"timeDelinquent","type":"uint32","internalType":"uint32"},{"name":"protocolFeeBips","type":"uint16","internalType":"uint16"},{"name":"annualInterestBips","type":"uint16","internalType":"uint16"},{"name":"reserveRatioBips","type":"uint16","internalType":"uint16"},{"name":"scaleFactor","type":"uint112","internalType":"uint112"},{"name":"lastInterestAccruedTimestamp","type":"uint32","internalType":"uint32"}]},{"name":"hooksData","type":"bytes","internalType":"bytes"}],"outputs":[],"stateMutability":"nonpayable"},{"type":"function","name":"onForceBuyBack","inputs":[{"name":"","type":"address","internalType":"address"},{"name":"","type":"uint256","internalType":"uint256"},{"name":"","type":"tuple","internalType":"struct MarketState","components":[{"name":"isClosed","type":"bool","internalType":"bool"},{"name":"maxTotalSupply","type":"uint128","internalType":"uint128"},{"name":"accruedProtocolFees","type":"uint128","internalType":"uint128"},{"name":"normalizedUnclaimedWithdrawals","type":"uint128","internalType":"uint128"},{"name":"scaledTotalSupply","type":"uint104","internalType":"uint104"},{"name":"scaledPendingWithdrawals","type":"uint104","internalType":"uint104"},{"name":"pendingWithdrawalExpiry","type":"uint32","internalType":"uint32"},{"name":"isDelinquent","type":"bool","internalType":"bool"},{"name":"timeDelinquent","type":"uint32","internalType":"uint32"},{"name":"protocolFeeBips","type":"uint16","internalType":"uint16"},{"name":"annualInterestBips","type":"uint16","internalType":"uint16"},{"name":"reserveRatioBips","type":"uint16","internalType":"uint16"},{"name":"scaleFactor","type":"uint112","internalType":"uint112"},{"name":"lastInterestAccruedTimestamp","type":"uint32","internalType":"uint32"}]},{"name":"","type":"bytes","internalType":"bytes"}],"outputs":[],"stateMutability":"nonpayable"},{"type":"function","name":"onNukeFromOrbit","inputs":[{"name":"","type":"address","internalType":"address"},{"name":"","type":"tuple","internalType":"struct MarketState","components":[{"name":"isClosed","type":"bool","internalType":"bool"},{"name":"maxTotalSupply","type":"uint128","internalType":"uint128"},{"name":"accruedProtocolFees","type":"uint128","internalType":"uint128"},{"name":"normalizedUnclaimedWithdrawals","type":"uint128","internalType":"uint128"},{"name":"scaledTotalSupply","type":"uint104","internalType":"uint104"},{"name":"scaledPendingWithdrawals","type":"uint104","internalType":"uint104"},{"name":"pendingWithdrawalExpiry","type":"uint32","internalType":"uint32"},{"name":"isDelinquent","type":"bool","internalType":"bool"},{"name":"timeDelinquent","type":"uint32","internalType":"uint32"},{"name":"protocolFeeBips","type":"uint16","internalType":"uint16"},{"name":"annualInterestBips","type":"uint16","internalType":"uint16"},{"name":"reserveRatioBips","type":"uint16","internalType":"uint16"},{"name":"scaleFactor","type":"uint112","internalType":"uint112"},{"name":"lastInterestAccruedTimestamp","type":"uint32","internalType":"uint32"}]},{"name":"","type":"bytes","internalType":"bytes"}],"outputs":[],"stateMutability":"nonpayable"},{"type":"function","name":"onQueueWithdrawal","inputs":[{"name":"lender","type":"address","internalType":"address"},{"name":"","type":"uint32","internalType":"uint32"},{"name":"","type":"uint256","internalType":"uint256"},{"name":"","type":"tuple","internalType":"struct MarketState","components":[{"name":"isClosed","type":"bool","internalType":"bool"},{"name":"maxTotalSupply","type":"uint128","internalType":"uint128"},{"name":"accruedProtocolFees","type":"uint128","internalType":"uint128"},{"name":"normalizedUnclaimedWithdrawals","type":"uint128","internalType":"uint128"},{"name":"scaledTotalSupply","type":"uint104","internalType":"uint104"},{"name":"scaledPendingWithdrawals","type":"uint104","internalType":"uint104"},{"name":"pendingWithdrawalExpiry","type":"uint32","internalType":"uint32"},{"name":"isDelinquent","type":"bool","internalType":"bool"},{"name":"timeDelinquent","type":"uint32","internalType":"uint32"},{"name":"protocolFeeBips","type":"uint16","internalType":"uint16"},{"name":"annualInterestBips","type":"uint16","internalType":"uint16"},{"name":"reserveRatioBips","type":"uint16","internalType":"uint16"},{"name":"scaleFactor","type":"uint112","internalType":"uint112"},{"name":"lastInterestAccruedTimestamp","type":"uint32","internalType":"uint32"}]},{"name":"hooksData","type":"bytes","internalType":"bytes"}],"outputs":[],"stateMutability":"nonpayable"},{"type":"function","name":"onRepay","inputs":[{"name":"normalizedAmount","type":"uint256","internalType":"uint256"},{"name":"state","type":"tuple","internalType":"struct MarketState","components":[{"name":"isClosed","type":"bool","internalType":"bool"},{"name":"maxTotalSupply","type":"uint128","internalType":"uint128"},{"name":"accruedProtocolFees","type":"uint128","internalType":"uint128"},{"name":"normalizedUnclaimedWithdrawals","type":"uint128","internalType":"uint128"},{"name":"scaledTotalSupply","type":"uint104","internalType":"uint104"},{"name":"scaledPendingWithdrawals","type":"uint104","internalType":"uint104"},{"name":"pendingWithdrawalExpiry","type":"uint32","internalType":"uint32"},{"name":"isDelinquent","type":"bool","internalType":"bool"},{"name":"timeDelinquent","type":"uint32","internalType":"uint32"},{"name":"protocolFeeBips","type":"uint16","internalType":"uint16"},{"name":"annualInterestBips","type":"uint16","internalType":"uint16"},{"name":"reserveRatioBips","type":"uint16","internalType":"uint16"},{"name":"scaleFactor","type":"uint112","internalType":"uint112"},{"name":"lastInterestAccruedTimestamp","type":"uint32","internalType":"uint32"}]},{"name":"hooksData","type":"bytes","internalType":"bytes"}],"outputs":[],"stateMutability":"nonpayable"},{"type":"function","name":"onSetAnnualInterestAndReserveRatioBips","inputs":[{"name":"annualInterestBips","type":"uint16","internalType":"uint16"},{"name":"reserveRatioBips","type":"uint16","internalType":"uint16"},{"name":"intermediateState","type":"tuple","internalType":"struct MarketState","components":[{"name":"isClosed","type":"bool","internalType":"bool"},{"name":"maxTotalSupply","type":"uint128","internalType":"uint128"},{"name":"accruedProtocolFees","type":"uint128","internalType":"uint128"},{"name":"normalizedUnclaimedWithdrawals","type":"uint128","internalType":"uint128"},{"name":"scaledTotalSupply","type":"uint104","internalType":"uint104"},{"name":"scaledPendingWithdrawals","type":"uint104","internalType":"uint104"},{"name":"pendingWithdrawalExpiry","type":"uint32","internalType":"uint32"},{"name":"isDelinquent","type":"bool","internalType":"bool"},{"name":"timeDelinquent","type":"uint32","internalType":"uint32"},{"name":"protocolFeeBips","type":"uint16","internalType":"uint16"},{"name":"annualInterestBips","type":"uint16","internalType":"uint16"},{"name":"reserveRatioBips","type":"uint16","internalType":"uint16"},{"name":"scaleFactor","type":"uint112","internalType":"uint112"},{"name":"lastInterestAccruedTimestamp","type":"uint32","internalType":"uint32"}]},{"name":"hooksData","type":"bytes","internalType":"bytes"}],"outputs":[{"name":"updatedAnnualInterestBips","type":"uint16","internalType":"uint16"},{"name":"updatedReserveRatioBips","type":"uint16","internalType":"uint16"}],"stateMutability":"nonpayable"},{"type":"function","name":"onSetMaxTotalSupply","inputs":[{"name":"","type":"uint256","internalType":"uint256"},{"name":"","type":"tuple","internalType":"struct MarketState","components":[{"name":"isClosed","type":"bool","internalType":"bool"},{"name":"maxTotalSupply","type":"uint128","internalType":"uint128"},{"name":"accruedProtocolFees","type":"uint128","internalType":"uint128"},{"name":"normalizedUnclaimedWithdrawals","type":"uint128","internalType":"uint128"},{"name":"scaledTotalSupply","type":"uint104","internalType":"uint104"},{"name":"scaledPendingWithdrawals","type":"uint104","internalType":"uint104"},{"name":"pendingWithdrawalExpiry","type":"uint32","internalType":"uint32"},{"name":"isDelinquent","type":"bool","internalType":"bool"},{"name":"timeDelinquent","type":"uint32","internalType":"uint32"},{"name":"protocolFeeBips","type":"uint16","internalType":"uint16"},{"name":"annualInterestBips","type":"uint16","internalType":"uint16"},{"name":"reserveRatioBips","type":"uint16","internalType":"uint16"},{"name":"scaleFactor","type":"uint112","internalType":"uint112"},{"name":"lastInterestAccruedTimestamp","type":"uint32","internalType":"uint32"}]},{"name":"","type":"bytes","internalType":"bytes"}],"outputs":[],"stateMutability":"nonpayable"},{"type":"function","name":"onSetProtocolFeeBips","inputs":[{"name":"","type":"uint16","internalType":"uint16"},{"name":"","type":"tuple","internalType":"struct MarketState","components":[{"name":"isClosed","type":"bool","internalType":"bool"},{"name":"maxTotalSupply","type":"uint128","internalType":"uint128"},{"name":"accruedProtocolFees","type":"uint128","internalType":"uint128"},{"name":"normalizedUnclaimedWithdrawals","type":"uint128","internalType":"uint128"},{"name":"scaledTotalSupply","type":"uint104","internalType":"uint104"},{"name":"scaledPendingWithdrawals","type":"uint104","internalType":"uint104"},{"name":"pendingWithdrawalExpiry","type":"uint32","internalType":"uint32"},{"name":"isDelinquent","type":"bool","internalType":"bool"},{"name":"timeDelinquent","type":"uint32","internalType":"uint32"},{"name":"protocolFeeBips","type":"uint16","internalType":"uint16"},{"name":"annualInterestBips","type":"uint16","internalType":"uint16"},{"name":"reserveRatioBips","type":"uint16","internalType":"uint16"},{"name":"scaleFactor","type":"uint112","internalType":"uint112"},{"name":"lastInterestAccruedTimestamp","type":"uint32","internalType":"uint32"}]},{"name":"","type":"bytes","internalType":"bytes"}],"outputs":[],"stateMutability":"nonpayable"},{"type":"function","name":"onTransfer","inputs":[{"name":"","type":"address","internalType":"address"},{"name":"","type":"address","internalType":"address"},{"name":"to","type":"address","internalType":"address"},{"name":"","type":"uint256","internalType":"uint256"},{"name":"","type":"tuple","internalType":"struct MarketState","components":[{"name":"isClosed","type":"bool","internalType":"bool"},{"name":"maxTotalSupply","type":"uint128","internalType":"uint128"},{"name":"accruedProtocolFees","type":"uint128","internalType":"uint128"},{"name":"normalizedUnclaimedWithdrawals","type":"uint128","internalType":"uint128"},{"name":"scaledTotalSupply","type":"uint104","internalType":"uint104"},{"name":"scaledPendingWithdrawals","type":"uint104","internalType":"uint104"},{"name":"pendingWithdrawalExpiry","type":"uint32","internalType":"uint32"},{"name":"isDelinquent","type":"bool","internalType":"bool"},{"name":"timeDelinquent","type":"uint32","internalType":"uint32"},{"name":"protocolFeeBips","type":"uint16","internalType":"uint16"},{"name":"annualInterestBips","type":"uint16","internalType":"uint16"},{"name":"reserveRatioBips","type":"uint16","internalType":"uint16"},{"name":"scaleFactor","type":"uint112","internalType":"uint112"},{"name":"lastInterestAccruedTimestamp","type":"uint32","internalType":"uint32"}]},{"name":"extraData","type":"bytes","internalType":"bytes"}],"outputs":[],"stateMutability":"nonpayable"},{"type":"function","name":"removeRoleProvider","inputs":[{"name":"providerAddress","type":"address","internalType":"address"}],"outputs":[],"stateMutability":"nonpayable"},{"type":"function","name":"revokeRole","inputs":[{"name":"account","type":"address","internalType":"address"}],"outputs":[],"stateMutability":"nonpayable"},{"type":"function","name":"setMinimumDeposit","inputs":[{"name":"market","type":"address","internalType":"address"},{"name":"newMinimumDeposit","type":"uint128","internalType":"uint128"}],"outputs":[],"stateMutability":"nonpayable"},{"type":"function","name":"setName","inputs":[{"name":"_name","type":"string","internalType":"string"}],"outputs":[],"stateMutability":"nonpayable"},{"type":"function","name":"temporaryExcessReserveRatio","inputs":[{"name":"","type":"address","internalType":"address"}],"outputs":[{"name":"originalAnnualInterestBips","type":"uint16","internalType":"uint16"},{"name":"originalReserveRatioBips","type":"uint16","internalType":"uint16"},{"name":"expiry","type":"uint32","internalType":"uint32"}],"stateMutability":"view"},{"type":"function","name":"unblockFromDeposits","inputs":[{"name":"account","type":"address","internalType":"address"}],"outputs":[],"stateMutability":"nonpayable"},{"type":"function","name":"version","inputs":[],"outputs":[{"name":"","type":"string","internalType":"string"}],"stateMutability":"pure"},{"type":"event","name":"AccountAccessGranted","inputs":[{"name":"providerAddress","type":"address","indexed":true,"internalType":"address"},{"name":"accountAddress","type":"address","indexed":true,"internalType":"address"},{"name":"credentialTimestamp","type":"uint32","indexed":false,"internalType":"uint32"}],"anonymous":false},{"type":"event","name":"AccountAccessRevoked","inputs":[{"name":"accountAddress","type":"address","indexed":true,"internalType":"address"}],"anonymous":false},{"type":"event","name":"AccountBlockedFromDeposits","inputs":[{"name":"accountAddress","type":"address","indexed":true,"internalType":"address"}],"anonymous":false},{"type":"event","name":"AccountMadeFirstDeposit","inputs":[{"name":"market","type":"address","indexed":true,"internalType":"address"},{"name":"accountAddress","type":"address","indexed":true,"internalType":"address"}],"anonymous":false},{"type":"event","name":"AccountUnblockedFromDeposits","inputs":[{"name":"accountAddress","type":"address","indexed":true,"internalType":"address"}],"anonymous":false},{"type":"event","name":"DisabledForceBuyBacks","inputs":[{"name":"market","type":"address","indexed":false,"internalType":"address"}],"anonymous":false},{"type":"event","name":"MinimumDepositUpdated","inputs":[{"name":"market","type":"address","indexed":false,"internalType":"address"},{"name":"newMinimumDeposit","type":"uint128","indexed":false,"internalType":"uint128"}],"anonymous":false},{"type":"event","name":"NameUpdated","inputs":[{"name":"name","type":"string","indexed":false,"internalType":"string"}],"anonymous":false},{"type":"event","name":"RoleProviderAdded","inputs":[{"name":"providerAddress","type":"address","indexed":true,"internalType":"address"},{"name":"timeToLive","type":"uint32","indexed":false,"internalType":"uint32"},{"name":"pullProviderIndex","type":"uint24","indexed":false,"internalType":"uint24"},{"name":"pushProviderIndex","type":"uint24","indexed":false,"internalType":"uint24"}],"anonymous":false},{"type":"event","name":"RoleProviderRemoved","inputs":[{"name":"providerAddress","type":"address","indexed":true,"internalType":"address"},{"name":"pullProviderIndex","type":"uint24","indexed":false,"internalType":"uint24"},{"name":"pushProviderIndex","type":"uint24","indexed":false,"internalType":"uint24"}],"anonymous":false},{"type":"event","name":"RoleProviderUpdated","inputs":[{"name":"providerAddress","type":"address","indexed":true,"internalType":"address"},{"name":"timeToLive","type":"uint32","indexed":false,"internalType":"uint32"},{"name":"pullProviderIndex","type":"uint24","indexed":false,"internalType":"uint24"},{"name":"pushProviderIndex","type":"uint24","indexed":false,"internalType":"uint24"}],"anonymous":false},{"type":"event","name":"TemporaryExcessReserveRatioActivated","inputs":[{"name":"market","type":"address","indexed":true,"internalType":"address"},{"name":"originalReserveRatioBips","type":"uint256","indexed":false,"internalType":"uint256"},{"name":"temporaryReserveRatioBips","type":"uint256","indexed":false,"internalType":"uint256"},{"name":"temporaryReserveRatioExpiry","type":"uint256","indexed":false,"internalType":"uint256"}],"anonymous":false},{"type":"event","name":"TemporaryExcessReserveRatioCanceled","inputs":[{"name":"market","type":"address","indexed":true,"internalType":"address"}],"anonymous":false},{"type":"event","name":"TemporaryExcessReserveRatioExpired","inputs":[{"name":"market","type":"address","indexed":true,"internalType":"address"}],"anonymous":false},{"type":"event","name":"TemporaryExcessReserveRatioUpdated","inputs":[{"name":"market","type":"address","indexed":true,"internalType":"address"},{"name":"originalReserveRatioBips","type":"uint256","indexed":false,"internalType":"uint256"},{"name":"temporaryReserveRatioBips","type":"uint256","indexed":false,"internalType":"uint256"},{"name":"temporaryReserveRatioExpiry","type":"uint256","indexed":false,"internalType":"uint256"}],"anonymous":false},{"type":"error","name":"AnnualInterestBipsOutOfBounds","inputs":[]},{"type":"error","name":"CallerNotBorrower","inputs":[]},{"type":"error","name":"CallerNotFactory","inputs":[]},{"type":"error","name":"CreateRoleProviderFailed","inputs":[]},{"type":"error","name":"DelinquencyFeeBipsOutOfBounds","inputs":[]},{"type":"error","name":"DelinquencyGracePeriodOutOfBounds","inputs":[]},{"type":"error","name":"DepositBelowMinimum","inputs":[]},{"type":"error","name":"ForceBuyBacksDisabled","inputs":[]},{"type":"error","name":"GrantedCredentialExpired","inputs":[]},{"type":"error","name":"InvalidArrayLength","inputs":[]},{"type":"error","name":"InvalidCredentialReturned","inputs":[]},{"type":"error","name":"NotApprovedLender","inputs":[]},{"type":"error","name":"NotHookedMarket","inputs":[]},{"type":"error","name":"ProviderCanNotReplaceCredential","inputs":[]},{"type":"error","name":"ProviderCanNotRevokeCredential","inputs":[]},{"type":"error","name":"ProviderNotFound","inputs":[]},{"type":"error","name":"ReserveRatioBipsOutOfBounds","inputs":[]},{"type":"error","name":"TransfersDisabled","inputs":[]},{"type":"error","name":"WithdrawalBatchDurationOutOfBounds","inputs":[]}],"bytecode":{"object":"0x60e0604090808252346103bb576150c1803803809161001e82856105d2565b833981019082818303126103bb57610035816105f5565b6020828101516001600160401b0394919391908581116103bb57610059920161064e565b918160805261008f67ffffff0000000001600160e01b031983871b1760018060a01b038094165f526005835280875f2055610693565b3360a0526240d00060c05282518061011f575b8551614755908161092c823960805181818161069501528181610a620152818161105d0152818161144901528181611586015281816117d001528181611e3c01528181611fd4015281816122420152818161258601526128e1015260a0518181816121c201526128ae015260c05181818161153701526129dc0152f35b83018181019382818303126103bb5782810151908682116103bb5701936080858303126103bb57865160808101818110888211176104ff578852838601518781116103bb57860182603f820112156103bb5782818a876101829401519101610609565b815261018f8887016105f5565b9184820192835260609660608101518981116103bb57810182603f820112156103bb57868101516101bf8161066b565b996101cc8d519b8c6105d2565b818b528c898c019260051b840101928584116103bb578c8e8201935b858510610554575050505050508983019788526080810151908982116103bb570181603f820112156103bb5785810151906102228261066b565b9561022f8c5197886105d2565b8287528b8888019360061b8301019384116103bb5791908b01915b8383106105135750505050606081019283525180519687116104ff575f54926001978885811c951680156104f5575b868610146104e1578892601f95601f8111610492575b508690601f831160011461042c575f919083610421575b50505f19600383901b1c191690831b175f55859291905b5f825b6103d6575b505050511692836102d7575b506100a2565b5f969594855b6102eb575b508596506102d1565b805180518910156103d05788610300916106f3565b51978463ffffffff8a51169901518851906314f22bb960e11b8252868260049282848301528181518060248301528085604494018484015e5f8382840101528a601f1991011681010301815f8c5af19182156103c6575f9261038b575b508482161561037d57509061037588999a8993610707565b0197966102dd565b895163228e729160e01b8152fd5b9091508681813d83116103bf575b6103a381836105d2565b810103126103bb576103b4906105f5565b905f61035d565b5f80fd5b503d610399565b8a513d5f823e3d90fd5b506102e2565b9080929394505187815183101561041857509061040c6103f78286946106f3565b5163ffffffff898b8351169201511690610707565b019082918794936102c0565b949392506102c5565b015190505f806102a6565b90601f198316915f8052885f20925f5b8a82821061047c5750509084879594939210610464575b505050811b015f55908592916102bd565b01515f1960f88460031b161c191690555f8080610453565b8385015186558e9890950194938401930161043c565b90919293505f8052865f20601f840160051c8101918885106104d7575b90601f8c96959493920160051c01905b8181106104cc575061028f565b5f81558b95016104bf565b90915081906104af565b634e487b7160e01b5f52602260045260245ffd5b94607f1694610279565b634e487b7160e01b5f52604160045260245ffd5b8b8884830301126103bb578b888193825161052d816105b7565b610536876105f5565b8152610543838801610682565b83820152815201930192915061024a565b84519182116103bb578f91830191601f19838d0301126103bb578f908f82519061057d826105b7565b610588848601610682565b8252868501519081116103bb578a8f95946105a6928796010161064e565b838201528152019301928d906101e8565b604081019081106001600160401b038211176104ff57604052565b601f909101601f19168101906001600160401b038211908210176104ff57604052565b51906001600160a01b03821682036103bb57565b9192916001600160401b0382116104ff5760405191610632601f8201601f1916602001846105d2565b8294818452818301116103bb578281602093845f96015e010152565b9080601f830112156103bb57815161066892602001610609565b90565b6001600160401b0381116104ff5760051b60200190565b519063ffffffff821682036103bb57565b600454680100000000000000008110156104ff5760018101806004558110156106df5760045f527f8a35acfbc15ff81a39ae7d344fd709f28e8600b4aa8c65c6b64bfe7fe36bd19b0155565b634e487b7160e01b5f52603260045260245ffd5b80518210156106df5760209160051b010190565b9060018060a01b03821690815f52602060058152604092835f205480155f1461086e5750835163256909f160e01b8152948286600481855afa958615610864575f9661082c575b50851561081c5760035462ffffff908116915b8160101b8360281b1790871b8660e01b1717965f146107f75760035491680100000000000000008310156104ff5760018301806003558310156106df576005956107eb5f80516020615081833981519152938a879660035f52895f2001555b89519384938491604091949363ffffffff606085019616845262ffffff809216602085015216910152565b0390a25b5f52525f2055565b82916005956107eb5f80516020615081833981519152936108178b610693565b6107c0565b62ffffff90816004541690610761565b9095508281813d831161085d575b61084481836105d2565b810103126103bb575180151581036103bb57945f61074e565b503d61083a565b85513d5f823e3d90fd5b6001600160e01b031660e084901b179450602885901c62ffffff9081169390601087901c81169085146108fa576003548510156106df5760059483926108f25f805160206150a18339815191529360035f528a84895f20015589519384938491604091949363ffffffff606085019616845262ffffff809216602085015216910152565b0390a26107ef565b6004548110156106df5760059483926108f25f805160206150a18339815191529360045f528a81895f2001556107c056fe60806040526004361015610011575f80fd5b5f3560e01c806303473d8d1461027a578063064ed53b1461027557806306fdde03146102705780631c4b36941461026b57806322a4a19f1461026657806328fd0307146102615780632970403d1461025c5780632ccf4667146102575780633521cccc1461025257806336c892141461024d57806354fd4d50146102485780635aeb713f146102435780636b2b369b1461023e578063726303ef1461023957806379502c55146102345780637df1f1b91461022f57806380e52e3f1461022a57806383d9e1eb146101e9578063849da129146101e957806387927767146102255780638adfe0f8146102205780638b3ce9b31461021b5780638f8ef419146102165780639d2a76fe146102115780639ecc64e61461020c578063a018f90e14610207578063a11ef06714610202578063a7fee654146101fd578063a9ff2dbf146101f8578063aa948689146101f3578063b037096d146101ee578063b1cfda0d146101e9578063bfd269be146101e4578063c45a0155146101df578063c47f0027146101da578063c888fb15146101d5578063cc452642146101d0578063ea5b13bd146101cb5763feb368e2146101c6575f80fd5b6125b5565b612561565b6124ed565b612487565b6121e6565b612196565b61214d565b61167e565b6120fb565b611f9e565b611f1e565b611e07565b611d91565b611ae1565b611aa5565b6119f8565b6118fe565b611895565b61179b565b611717565b6115aa565b61155a565b611520565b6113ef565b61139a565b61122d565b61114c565b610fea565b610e76565b610db1565b610d01565b610be9565b610b70565b610a25565b61092a565b61065f565b610515565b61ffff81160361028b57565b5f80fd5b610144359061029d8261027f565b565b610164359061029d8261027f565b610184359061029d8261027f565b7f4e487b71000000000000000000000000000000000000000000000000000000005f52604160045260245ffd5b60c0810190811067ffffffffffffffff82111761030457604052565b6102bb565b610140810190811067ffffffffffffffff82111761030457604052565b6080810190811067ffffffffffffffff82111761030457604052565b90601f7fffffffffffffffffffffffffffffffffffffffffffffffffffffffffffffffe0910116810190811067ffffffffffffffff82111761030457604052565b604051906101c0820182811067ffffffffffffffff82111761030457604052565b6040519061029d826102e8565b8015150361028b57565b6024359061029d826103b1565b610104359061029d826103b1565b604435906fffffffffffffffffffffffffffffffff8216820361028b57565b606435906fffffffffffffffffffffffffffffffff8216820361028b57565b608435906fffffffffffffffffffffffffffffffff8216820361028b57565b602435906fffffffffffffffffffffffffffffffff8216820361028b57565b60a435906cffffffffffffffffffffffffff8216820361028b57565b60c435906cffffffffffffffffffffffffff8216820361028b57565b63ffffffff81160361028b57565b60e4359061029d8261048a565b610124359061029d8261048a565b6101c4359061029d8261048a565b6dffffffffffffffffffffffffffff81160361028b57565b6101a4359061029d826104c1565b9181601f8401121561028b5782359167ffffffffffffffff831161028b576020838186019501011161028b57565b3461028b5761020060031936011261028b5761053260043561027f565b6101c07fffffffffffffffffffffffffffffffffffffffffffffffffffffffffffffffdc36011261028b57610565610383565b61056d6103bb565b81526105776103d6565b60208201526105846103f5565b6040820152610591610414565b606082015261059e610452565b60808201526105ab61046e565b60a08201526105b8610498565b60c08201526105c56103c8565b60e08201526105d26104a5565b6101008201526105e061028f565b6101208201526105ee61029f565b6101408201526105fc6102ad565b61016082015261060a6104d9565b6101808201526101a061061b6104b3565b9101526101e43567ffffffffffffffff811161028b5761063f9036906004016104e7565b005b73ffffffffffffffffffffffffffffffffffffffff81160361028b57565b3461028b57602060031936011261028b5760043561067c81610641565b73ffffffffffffffffffffffffffffffffffffffff90817f00000000000000000000000000000000000000000000000000000000000000001633036108585716805f5260016020526107f06106d360405f20612628565b6107a66060820163ffffffff815116610816575b60018352845f52600160205260405f209261073081511515859060ff7fffffffffffffffffffffffffffffffffffffffffffffffffffffffffffffff0083541691151516179055565b6020810151907fffffffffffffffffffff000000000000000000000000000000000000000000ff74ffffffffffffffffffffffffffffffffffffffff0075ff00000000000000000000000000000000000000000060408854940151151560a81b169360081b169116171783555163ffffffff1690565b7fffffffffffff00000000ffffffffffffffffffffffffffffffffffffffffffff79ffffffff0000000000000000000000000000000000000000000083549260b01b169116179055565b7f25b0d1830e0d487402e2c828de3ccbc9d16bd911aaec75fbba1bffd32657fad45f80a2005b61082e8360205f918260408201528260608201520152565b847f47695aa96e09db0d106b9bd402979d6aff7e51ada06ec6fe014e5eeadd8c1dc05f80a26106e7565b60046040517f3c698d79000000000000000000000000000000000000000000000000000000008152fd5b90600182811c921680156108c9575b602083101461089c57565b7f4e487b71000000000000000000000000000000000000000000000000000000005f52602260045260245ffd5b91607f1691610891565b907fffffffffffffffffffffffffffffffffffffffffffffffffffffffffffffffe0601f602080948051918291828752018686015e5f8582860101520116010190565b9060206109279281815201906108d3565b90565b3461028b575f60031936011261028b576040515f805461094981610882565b808452906020906001908181169081156109dd5750600114610986575b6109828561097681870382610342565b60405191829182610916565b0390f35b5f80805293507f290decd9548b62a8d60345a988386fc84ba6bc95484008f6362f93160ef3e5635b8385106109ca5750505050810160200161097682610982610966565b80548686018401529382019381016109ae565b869550610982969350602092506109769491507fffffffffffffffffffffffffffffffffffffffffffffffffffffffffffffff001682840152151560051b8201019293610966565b3461028b57604060031936011261028b57600435610a4281610641565b610a4a610433565b73ffffffffffffffffffffffffffffffffffffffff807f00000000000000000000000000000000000000000000000000000000000000001633036108585782165f52600760205260405f209160ff83541615610b465782547fffffffffffffffffffffffffff00000000000000000000000000000000ffffff16601883901b72ffffffffffffffffffffffffffffffff00000016179092557f4e39f53293455dca8fe1725b2dfcbe6abd2f44d777b7f2a7279526e17d7ebede916040805173ffffffffffffffffffffffffffffffffffffffff90921682526fffffffffffffffffffffffffffffffff909216602082015290819081015b0390a1005b60046040517fb217907b000000000000000000000000000000000000000000000000000000008152fd5b3461028b57602060031936011261028b57610982610b98600435610b9381610641565b61277f565b60405191829182919091606063ffffffff81608084019580511515855273ffffffffffffffffffffffffffffffffffffffff6020820151166020860152604081015115156040860152015116910152565b3461028b5760031960808136011261028b5760043590610c0882610641565b60243591610c1583610641565b6044359067ffffffffffffffff9283831161028b5761014090833603011261028b5760643592831161028b5761098293610c56610c619436906004016104e7565b509260040191612893565b6040519081529081906020820190565b7fffffffffffffffffffffffffffffffffffffffffffffffffffffffffffffffbc6101c091011261028b57604490565b7fffffffffffffffffffffffffffffffffffffffffffffffffffffffffffffff9c6101c091011261028b57606490565b7fffffffffffffffffffffffffffffffffffffffffffffffffffffffffffffff7c6101c091011261028b57608490565b3461028b5761022060031936011261028b57610d1e600435610641565b610d26610433565b50610d3036610c71565b506102043567ffffffffffffffff811161028b5761063f9036906004016104e7565b61029d9092919260c081019360a080918051151584526020810151151560208501526040810151151560408501526fffffffffffffffffffffffffffffffff606082015116606085015260808101511515608085015201511515910152565b3461028b57602060031936011261028b5773ffffffffffffffffffffffffffffffffffffffff600435610de381610641565b610deb612b3d565b50165f52600760205261098260405f20610e6a60ff60405192610e0d846102e8565b5481811615158452600881901c821615156020850152601081901c821615156040850152601881901c6fffffffffffffffffffffffffffffffff166060850152609881901c82161515608085015260a01c1660a083019015159052565b60405191829182610d52565b3461028b5761024060031936011261028b57600435610e9481610641565b610e9f60243561048a565b610ea836610ca1565b506102243567ffffffffffffffff811161028b57610eca9036906004016104e7565b73ffffffffffffffffffffffffffffffffffffffff8392931692835f526001602052610ef860405f20612628565b935f52600260205260ff610f2c60405f203373ffffffffffffffffffffffffffffffffffffffff165f5260205260405f2090565b5416159283610f6b575b5050509050610f4157005b60046040517fe50a45ce000000000000000000000000000000000000000000000000000000008152fd5b610f799350610f7d946131e0565b1590565b805f8080610f36565b92919267ffffffffffffffff82116103045760405191610fce60207fffffffffffffffffffffffffffffffffffffffffffffffffffffffffffffffe0601f8401160184610342565b82948184528183011161028b578281602093845f960137010152565b3461028b57606060031936011261028b5760043561100781610641565b6024356110138161048a565b60443567ffffffffffffffff811161028b573660238201121561028b57611044903690602481600401359101610f86565b73ffffffffffffffffffffffffffffffffffffffff92837f0000000000000000000000000000000000000000000000000000000000000000163303610858576110c860209185935f6040519788809581947f29e4577200000000000000000000000000000000000000000000000000000000835288600484015260248301906108d3565b0393165af1928315611147575f93611116575b508216156110ec5761063f9161410f565b60046040517f228e7291000000000000000000000000000000000000000000000000000000008152fd5b61113991935060203d602011611140575b6111318183610342565b810190613321565b915f6110db565b503d611127565b613336565b3461028b575f60031936011261028b57604051604081019080821067ffffffffffffffff8311176103045761098291604052600d81527f4f70656e5465726d486f6f6b730000000000000000000000000000000000000060208201526040519182916020835260208301906108d3565b9061022060031983011261028b576004356111d681610641565b91602435916101c07fffffffffffffffffffffffffffffffffffffffffffffffffffffffffffffffbc83011261028b57604491610204359067ffffffffffffffff821161028b57611229916004016104e7565b9091565b3461028b5761123b366111bc565b61126f61126a959294953373ffffffffffffffffffffffffffffffffffffffff165f52600760205260405f2090565b612b6d565b9261127d610f798551151590565b610b46576112b16112ac8473ffffffffffffffffffffffffffffffffffffffff165f52600160205260405f2090565b612628565b956112bc8751151590565b610f41576112e66112d36101806112ec9401612bd4565b6dffffffffffffffffffffffffffff1690565b90613341565b6fffffffffffffffffffffffffffffffff61131a60608601516fffffffffffffffffffffffffffffffff1690565b161161134b5761133161133b9160409584886133a2565b9490930151151590565b821516610f415761063f936134e6565b60046040517fc24b1b61000000000000000000000000000000000000000000000000000000008152fd5b600319604091011261028b5760043561138d81610641565b906024356109278161048a565b3461028b576113a836611375565b335f52600560205260405f20549182156113c55761063f9261366f565b60046040517fb1cd0903000000000000000000000000000000000000000000000000000000008152fd5b3461028b576113fd366111bc565b505050505061142d61126a3373ffffffffffffffffffffffffffffffffffffffff165f52600760205260405f2090565b61143a610f798251151590565b610b465760a00151156114f6577f00000000000000000000000000000000000000000000000000000000000000006114908173ffffffffffffffffffffffffffffffffffffffff165f52600160205260405f2090565b6114ae610f7961149f83612628565b6060015163ffffffff16151590565b6114b457005b816114e061063f9373ffffffffffffffffffffffffffffffffffffffff165f52600560205260405f2090565b546114f163ffffffff421693612628565b613822565b60046040517f1f79558d000000000000000000000000000000000000000000000000000000008152fd5b3461028b575f60031936011261028b5760206040517f00000000000000000000000000000000000000000000000000000000000000008152f35b3461028b575f60031936011261028b57602060405173ffffffffffffffffffffffffffffffffffffffff7f0000000000000000000000000000000000000000000000000000000000000000168152f35b3461028b57602060031936011261028b576004356115c781610641565b73ffffffffffffffffffffffffffffffffffffffff80911690815f5260016020526115f460405f20612628565b906020820151163303611654578061161d61162e9260205f918260408201528260608201520152565b825f52600160205260405f2061267d565b7f47695aa96e09db0d106b9bd402979d6aff7e51ada06ec6fe014e5eeadd8c1dc05f80a2005b60046040517f3a364f3d000000000000000000000000000000000000000000000000000000008152fd5b3461028b5761020060031936011261028b576101c07fffffffffffffffffffffffffffffffffffffffffffffffffffffffffffffffdc36011261028b576101e43567ffffffffffffffff811161028b5761063f9036906004016104e7565b60209060206040818301928281528551809452019301915f5b828110611703575050505090565b8351855293810193928101926001016116f5565b3461028b575f60031936011261028b57604051806004549182815260208091019260045f527f8a35acfbc15ff81a39ae7d344fd709f28e8600b4aa8c65c6b64bfe7fe36bd19b915f905b828210611784576109828561177881890382610342565b604051918291826116dc565b835486529485019460019384019390910190611761565b3461028b57602060031936011261028b576004356117b881610641565b73ffffffffffffffffffffffffffffffffffffffff807f0000000000000000000000000000000000000000000000000000000000000000163303610858578116805f52600560205260405f20549182156113c55773ffffffffffffffffffffffffffffffffffffffff165f90815260056020908152604080832092909255815162ffffff602886901c811680835260109690961c8116928201839052919391927fd40af841b3d79ec50752ce038e1ee39d243ed894aacf7c3b8f9a87b09ec8fc9791a2821461188b575061063f90613ba2565b61063f9150613a22565b3461028b5761020060031936011261028b576118b2600435610641565b6101c07fffffffffffffffffffffffffffffffffffffffffffffffffffffffffffffffdc36011261028b576101e43567ffffffffffffffff811161028b5761063f9036906004016104e7565b3461028b575f60031936011261028b57604051806003549182815260208091019260035f527fc2575a0e9e593c00f959f8c92f12db2869c3395a3b0502d05e2516446f71f85b915f905b82821061195f576109828561177881890382610342565b835486529485019460019384019390910190611948565b67ffffffffffffffff81116103045760051b60200190565b9080601f8301121561028b5760209082356119a881611976565b936119b66040519586610342565b81855260208086019260051b82010192831161028b57602001905b8282106119df575050505090565b83809183356119ed8161048a565b8152019101906119d1565b3461028b57604060031936011261028b5767ffffffffffffffff60043581811161028b573660238201121561028b578060040135611a3581611976565b91611a436040519384610342565b8183526020916024602085019160051b8301019136831161028b57602401905b828210611a8c576024358587821161028b57611a8661063f92369060040161198e565b90612c24565b8380918335611a9a81610641565b815201910190611a63565b3461028b5760031936016101e0811261028b576101c01361028b576101c43567ffffffffffffffff811161028b5761063f9036906004016104e7565b3461028b5761026060031936011261028b576004611aff8135610641565b611b0a602435610641565b604435611b1681610641565b611b1f36610cd1565b506102443567ffffffffffffffff811161028b57611b4090369084016104e7565b9091611b6d61126a3373ffffffffffffffffffffffffffffffffffffffff165f52600760205260405f2090565b91611b7b610f798451151590565b611ccb576080830151611ca257611be4610f79611bdd33611bba8673ffffffffffffffffffffffffffffffffffffffff165f52600260205260405f2090565b9073ffffffffffffffffffffffffffffffffffffffff165f5260205260405f2090565b5460ff1690565b611bea57005b611c156112ac8373ffffffffffffffffffffffffffffffffffffffff165f52600160205260405f2090565b90611c208251151590565b611c7957611c35611c3f9160209685856133a2565b9590940151151590565b831516611c505761063f94506134e6565b846040517fe50a45ce000000000000000000000000000000000000000000000000000000008152fd5b856040517fe50a45ce000000000000000000000000000000000000000000000000000000008152fd5b846040517f8574adcf000000000000000000000000000000000000000000000000000000008152fd5b846040517fb217907b000000000000000000000000000000000000000000000000000000008152fd5b815163ffffffff1681526101408101929161029d919060208181015163ffffffff169083015260408181015161ffff169083015260608181015161ffff169083015260808181015161ffff169083015260a08181015161ffff169083015260c08181015163ffffffff169083015260e08181015163ffffffff16908301526101008181015161ffff16908301526101209081015161ffff16910152565b3461028b575f60031936011261028b57604051611dad81610309565b5f60408281018290526080830182905260c0830182905261010083018290529082526276a70060208301526127106060830181905260a083018190526301e1338060e0840152610120830152519081906109829082611cf4565b3461028b57602060031936011261028b57600435611e2481610641565b73ffffffffffffffffffffffffffffffffffffffff807f00000000000000000000000000000000000000000000000000000000000000001633036108585781165f52600760205260405f209081549060ff821615610b465760ff8260a01c16611e8957005b7fffffffffffffffffffffff00ffffffffffffffffffffffffffffffffffffffff9190911690915560405173ffffffffffffffffffffffffffffffffffffffff90911681527faf6366a6c595fb57058be86bf9fe0ec5ffee196de2ca5b2b55036617606d10ac908060208101610b41565b73ffffffffffffffffffffffffffffffffffffffff165f52600560205260405f2090565b3461028b57604060031936011261028b57602060ff611f92600435611f4281610641565b73ffffffffffffffffffffffffffffffffffffffff60243591611f6483610641565b165f526002845260405f209073ffffffffffffffffffffffffffffffffffffffff165f5260205260405f2090565b54166040519015158152f35b3461028b57602060031936011261028b57600435611fbb81610641565b73ffffffffffffffffffffffffffffffffffffffff90817f00000000000000000000000000000000000000000000000000000000000000001633036108585716805f5260016020526120d561201260405f20612628565b5f8152825f5260016020526107a6606060405f209261205f81511515859060ff7fffffffffffffffffffffffffffffffffffffffffffffffffffffffffffffff0083541691151516179055565b602081015184547fffffffffffffffffffff000000000000000000000000000000000000000000ff74ffffffffffffffffffffffffffffffffffffffff0075ff0000000000000000000000000000000000000000006040860151151560a81b169360081b16911617178455015163ffffffff1690565b7f7201a4017f7e2ac3b7164275daef1150d8fc64543b3f7196293722db50bc7fa05f80a2005b3461028b57602060031936011261028b5773ffffffffffffffffffffffffffffffffffffffff60043561212d81610641565b61213561275b565b50165f526001602052610982610b9860405f20612628565b3461028b57602060031936011261028b5773ffffffffffffffffffffffffffffffffffffffff60043561217f81610641565b165f526005602052602060405f2054604051908152f35b3461028b575f60031936011261028b57602060405173ffffffffffffffffffffffffffffffffffffffff7f0000000000000000000000000000000000000000000000000000000000000000168152f35b3461028b5760208060031936011261028b5767ffffffffffffffff60043581811161028b573660238201121561028b5761222a903690602481600401359101610f86565b9173ffffffffffffffffffffffffffffffffffffffff7f0000000000000000000000000000000000000000000000000000000000000000163303610858578251918211610304576122848261227f5f54610882565b612ce0565b602090601f831160011461230f5750916122f682610b41937f9f7688a97f1ac51fe03bac18af18d6810f9f11f0db08c59b1938a9ac825ef744955f91612304575b507fffffffffffffffffffffffffffffffffffffffffffffffffffffffffffffffff8260011b9260031b1c19161790565b5f5560405191829182610916565b90508301515f6122c5565b5f8052907fffffffffffffffffffffffffffffffffffffffffffffffffffffffffffffffe083167f290decd9548b62a8d60345a988386fc84ba6bc95484008f6362f93160ef3e563925f905b8282106123d9575050927f9f7688a97f1ac51fe03bac18af18d6810f9f11f0db08c59b1938a9ac825ef744949260019282610b4196106123a2575b5050811b015f55610976565b8401517fffffffffffffffffffffffffffffffffffffffffffffffffffffffffffffffff60f88460031b161c191690555f80612396565b80600185968294968a0151815501950193019061235b565b60209060206040818301928281528551809452019301915f5b828110612418575050505090565b909192938260c08261247b600194895160a080918051151584526020810151151560208501526040810151151560408501526fffffffffffffffffffffffffffffffff606082015116606085015260808101511515608085015201511515910152565b0195019392910161240a565b3461028b57602060031936011261028b5767ffffffffffffffff60043581811161028b573660238201121561028b57806004013591821161028b573660248360051b8301011161028b576109829160246124e19201612d56565b604051918291826123f1565b3461028b5761022060031936011261028b5760043561250b8161027f565b61251660243561027f565b61251f36610c71565b610204359067ffffffffffffffff821161028b5760409261254761254e9336906004016104e7565b5050613d40565b825161ffff928316815291166020820152f35b3461028b5761256f36611375565b73ffffffffffffffffffffffffffffffffffffffff7f00000000000000000000000000000000000000000000000000000000000000001633036108585761063f9161410f565b3461028b57602060031936011261028b5773ffffffffffffffffffffffffffffffffffffffff6004356125e781610641565b165f526006602052606060405f205463ffffffff61ffff916040519280821684528160101c16602084015260201c166040820152f35b9063ffffffff169052565b9060405161263581610326565b606063ffffffff82945460ff81161515845273ffffffffffffffffffffffffffffffffffffffff8160081c16602085015260ff8160a81c161515604085015260b01c16910152565b63ffffffff606061029d936126c081511515859060ff7fffffffffffffffffffffffffffffffffffffffffffffffffffffffffffffff0083541691151516179055565b60208101518454604083015193909201517fffffffffffff00000000000000000000000000000000000000000000000000ff90921660089190911b74ffffffffffffffffffffffffffffffffffffffff00161791151560a81b75ff0000000000000000000000000000000000000000001691909117911660b01b79ffffffff0000000000000000000000000000000000000000000016179055565b6040519061276882610326565b5f6060838281528260208201528260408201520152565b9061278861275b565b506127b46112ac8373ffffffffffffffffffffffffffffffffffffffff165f52600160205260405f2090565b917fffffffffffffffffffffffffffffffffffffffffffffffffffffffffffffffff63ffffffff6127ec606086015163ffffffff1690565b16612802575b6127fc9184612fdd565b61029d57565b612826611efa602086015173ffffffffffffffffffffffffffffffffffffffff1690565b5480612851575b506127fc9161284a8560205f918260408201528260608201520152565b91506127f2565b61285b8186612e26565b61288e5760408501511561282d579050612876828286612e71565b61288a5760281c62ffffff166127fc61282d565b5050565b505050565b92909273ffffffffffffffffffffffffffffffffffffffff807f0000000000000000000000000000000000000000000000000000000000000000163303612b13576128dd846143a9565b50807f00000000000000000000000000000000000000000000000000000000000000001691160361085857612a64612a3f61012061092794013592612921816144ab565b936129a961292d6103a4565b6001815295605c83901c60011615156020880152605f83901c600116151560408801526fffffffffffffffffffffffffffffffff16606087019081526129936001604060808a019661298783602083013516899015159052565b013516151560a0890152565b516fffffffffffffffffffffffffffffffff1690565b916fffffffffffffffffffffffffffffffff8316612a8f575b5190915015155b612a7c575b600181605e1c16612a69575b7f00000000000000000000000000000000000000000000000000000000000000006bffff000000000000000000007fffffffffffffffffffffffffffffffffffffffff000000000000000000000000918060101c908460501c161760501b1691161790565b9373ffffffffffffffffffffffffffffffffffffffff165f52600760205260405f2090565b613052565b6b900000000000000000000000176129da565b6b100000000000000000000000176129ce565b7f4e39f53293455dca8fe1725b2dfcbe6abd2f44d777b7f2a7279526e17d7ebede612b086b8000000000000000000000006129c99417946040519182918c839092916fffffffffffffffffffffffffffffffff60209173ffffffffffffffffffffffffffffffffffffffff604085019616845216910152565b0390a18291506129c2565b60046040517fa84178ab000000000000000000000000000000000000000000000000000000008152fd5b60405190612b4a826102e8565b5f60a0838281528260208201528260408201528260608201528260808201520152565b90604051612b7a816102e8565b60a060ff82945481811615158452818160081c1615156020850152818160101c16151560408501526fffffffffffffffffffffffffffffffff8160181c166060850152818160981c1615156080850152821c161515910152565b35610927816104c1565b7f4e487b71000000000000000000000000000000000000000000000000000000005f52603260045260245ffd5b8051821015612c1f5760209160051b010190565b612bde565b9190612c4e3373ffffffffffffffffffffffffffffffffffffffff165f52600560205260405f2090565b549283156113c5578051825103612cb6575f5b8151811015612caf5780612ca973ffffffffffffffffffffffffffffffffffffffff612c8f60019486612c0b565b511663ffffffff612ca08488612c0b565b5116908861366f565b01612c61565b5050509050565b60046040517f9d89020a000000000000000000000000000000000000000000000000000000008152fd5b601f8111612cec575050565b5f80527f290decd9548b62a8d60345a988386fc84ba6bc95484008f6362f93160ef3e563906020601f840160051c83019310612d42575b601f0160051c01905b818110612d37575050565b5f8155600101612d2c565b9091508190612d23565b3561092781610641565b9190612d6181611976565b612d6e6040519182610342565b8181527fffffffffffffffffffffffffffffffffffffffffffffffffffffffffffffffe0612d9b83611976565b015f5b818110612e0f57505080935f5b838110612db85750505050565b80612df361126a612dcf60019460051b8601612d4c565b73ffffffffffffffffffffffffffffffffffffffff165f52600760205260405f2090565b612dfd8286612c0b565b52612e088185612c0b565b5001612dab565b602090612e1a612b3d565b82828601015201612d9e565b9063ffffffff6060612e6b930151169060e01c0163ffffffff90817fffffffffffffffffffffffffffffffffffffffffffffffffffffffff0000000182019110020190565b42111590565b909291925f935f9063ccdad14b5f5260205260205f6024601c73ffffffffffffffffffffffffffffffffffffffff8660401c165afa601f3d1116612f65575b63ffffffff169182158015612f5c575b612f5457612efe838360e01c0163ffffffff90817fffffffffffffffffffffffffffffffffffffffffffffffffffffffff0000000182019110020190565b421115612f0a57505050565b612f4f939450919063ffffffff60409216606084015273ffffffffffffffffffffffffffffffffffffffff81831c16602084015262ffffff809160281c161415910152565b600190565b505f93505050565b50428311612ec0565b505f5163ffffffff16612eb0565b600454811015612c1f5760045f527f8a35acfbc15ff81a39ae7d344fd709f28e8600b4aa8c65c6b64bfe7fe36bd19b01905f90565b600354811015612c1f5760035f527fc2575a0e9e593c00f959f8c92f12db2869c3395a3b0502d05e2516446f71f85b01905f90565b9291905f9360038054935f5b858110612ff857505050505050565b81811461304a57825f5261303085827fc2575a0e9e593c00f959f8c92f12db2869c3395a3b0502d05e2516446f71f85b015486612e71565b61303e576001905b01612fe9565b50600196505050505050565b600190613038565b61319a60a061029d9361309381511515859060ff7fffffffffffffffffffffffffffffffffffffffffffffffffffffffffffffff0083541691151516179055565b6020810151845460408301517fffffffffffffffffffffffffffffffffffffffffffffffffffffffffff0000ff90911691151560081b61ff00169190911790151560101b62ff000016178455606081015161313e906fffffffffffffffffffffffffffffffff1685547fffffffffffffffffffffffffff00000000000000000000000000000000ffffff1660189190911b72ffffffffffffffffffffffffffffffff00000016178555565b61319361314e6080830151151590565b85547fffffffffffffffffffffffff00ffffffffffffffffffffffffffffffffffffff1690151560981b73ff0000000000000000000000000000000000000016178555565b0151151590565b81547fffffffffffffffffffffff00ffffffffffffffffffffffffffffffffffffffff1690151560a01b74ff000000000000000000000000000000000000000016179055565b93926131ee919283866133a2565b8181959295613280575b506132476132248473ffffffffffffffffffffffffffffffffffffffff165f52600260205260405f2090565b3373ffffffffffffffffffffffffffffffffffffffff165f5260205260405f2090565b50613250575050565b61327b61029d9273ffffffffffffffffffffffffffffffffffffffff165f52600160205260405f2090565b61267d565b156132e15773ffffffffffffffffffffffffffffffffffffffff806020840151167fa04eb478c9c6a13a6de14b7eb31b1b629511e804c3cfef31bd549accd4b15524602063ffffffff60608701511693604051948552871693a35b5f6131f8565b73ffffffffffffffffffffffffffffffffffffffff83167f47695aa96e09db0d106b9bd402979d6aff7e51ada06ec6fe014e5eeadd8c1dc05f80a26132db565b9081602091031261028b575161092781610641565b6040513d5f823e3d90fd5b817ffffffffffffffffffffffffffffffffffffffffffe6268e1b017bfe18bffffff0481111582151715613390576b033b2e3c9fd0803ce800000091026b019d971e4fe8401e74000000010490565b634e487b715f5260116020526024601cfd5b90929391935f945f94606084019163ffffffff938484511615155f146134df576133e6611efa602088015173ffffffffffffffffffffffffffffffffffffffff1690565b54905b8115159283806134cf575b6134be57906134049185896144c9565b6134af577fffffffffffffffffffffffffffffffffffffffffffffffffffffffffffffffff91806134a2575b613473575b506134409185612fdd565b61346757511661344d5750565b612f4f91925060205f918260408201528260608201520152565b50600194508493505050565b9050613480828287612e71565b6134945760281c62ffffff16613440613435565b506001965086955050505050565b5060408601511515613430565b50600197508796505050505050565b50600199505f985050505050505050565b506134da8389612e26565b6133f4565b5f906133e9565b916001908492946135cd575b613523610f79611bdd6132248873ffffffffffffffffffffffffffffffffffffffff165f52600260205260405f2090565b1616613532575b613250575050565b61358c61356133611bba8673ffffffffffffffffffffffffffffffffffffffff165f52600260205260405f2090565b60017fffffffffffffffffffffffffffffffffffffffffffffffffffffffffffffff00825416179055565b73ffffffffffffffffffffffffffffffffffffffff8316337f19c0c79c8d3a2c3300023a426c471dbf37ef4602c3c143fe049cc9e9f989165d5f80a361352a565b801561362f57602084810151606086015160405163ffffffff909116815273ffffffffffffffffffffffffffffffffffffffff888116939216917fa04eb478c9c6a13a6de14b7eb31b1b629511e804c3cfef31bd549accd4b1552491a36134f2565b73ffffffffffffffffffffffffffffffffffffffff85167f47695aa96e09db0d106b9bd402979d6aff7e51ada06ec6fe014e5eeadd8c1dc05f80a26134f2565b919061369c6112ac8273ffffffffffffffffffffffffffffffffffffffff165f52600160205260405f2090565b9263ffffffff6136de8185168360e01c0163ffffffff90817fffffffffffffffffffffffffffffffffffffffffffffffffffffffff0000000182019110020190565b904282106137f85760608601908151166136fe575b505061029d93613822565b6020860190613724611efa835173ffffffffffffffffffffffffffffffffffffffff1690565b549081613733575b50506136f3565b6137a59161375461374b61378a935163ffffffff1690565b63ffffffff1690565b9060e01c0163ffffffff90817fffffffffffffffffffffffffffffffffffffffffffffffffffffffff0000000182019110020190565b915173ffffffffffffffffffffffffffffffffffffffff1690565b73ffffffffffffffffffffffffffffffffffffffff163314911117156137ce575f80808061372c565b60046040517fc03faa56000000000000000000000000000000000000000000000000000000008152fd5b60046040517f5a922a2f000000000000000000000000000000000000000000000000000000008152fd5b63ffffffff84166060820152604082811c73ffffffffffffffffffffffffffffffffffffffff166020830152602883901c62ffffff90811614159082015292917fa04eb478c9c6a13a6de14b7eb31b1b629511e804c3cfef31bd549accd4b15524916138ea73ffffffffffffffffffffffffffffffffffffffff80931695865f5260016020526107a6606060405f209261205f81511515859060ff7fffffffffffffffffffffffffffffffffffffffffffffffffffffffffffffff0083541691151516179055565b6040805163ffffffff9590951685521c1691602090a3565b7f4e487b71000000000000000000000000000000000000000000000000000000005f52601160045260245ffd5b6004548015613992577fffffffffffffffffffffffffffffffffffffffffffffffffffffffffffffffff81019080821015612c1f577f8a35acfbc15ff81a39ae7d344fd709f28e8600b4aa8c65c6b64bfe7fe36bd19a5f91600483520155600455565b7f4e487b71000000000000000000000000000000000000000000000000000000005f52603160045260245ffd5b6003548015613992577fffffffffffffffffffffffffffffffffffffffffffffffffffffffffffffffff81019080821015612c1f577fc2575a0e9e593c00f959f8c92f12db2869c3395a3b0502d05e2516446f71f85a5f91600383520155600355565b6004547fffffffffffffffffffffffffffffffffffffffffffffffffffffffffffffffff8101818111613b9d578062ffffff841614613b92576004541115612c1f577f8a35acfbc15ff81a39ae7d344fd709f28e8600b4aa8c65c6b64bfe7fe36bd19a7f77f7914b3d5f909ba079a3cfd67cdff25863760515f339affe0f2313d35638629160045f5201547fffffffffffffffffffffffffffffffffffffffffffffffffffffff000000ffff8360101b91161791613b1983613ae383612f73565b9091907fffffffffffffffffffffffffffffffffffffffffffffffffffffffffffffffff83549160031b92831b921b1916179055565b613b2161392f565b73ffffffffffffffffffffffffffffffffffffffff8360401c169280613b658573ffffffffffffffffffffffffffffffffffffffff165f52600560205260405f2090565b556040805160e09290921c825262ffffff602083018190529092169181019190915280606081015b0390a2565b50505061029d61392f565b613902565b6003547fffffffffffffffffffffffffffffffffffffffffffffffffffffffffffffffff8101818111613b9d578062ffffff841614613cd8576003541115612c1f577fc2575a0e9e593c00f959f8c92f12db2869c3395a3b0502d05e2516446f71f85a7f77f7914b3d5f909ba079a3cfd67cdff25863760515f339affe0f2313d35638629160035f5201547fffffffffffffffffffffffffffffffffffffffffffffffff000000ffffffffff8360281b91161791613c6383613ae383612fa8565b613c6b6139bf565b73ffffffffffffffffffffffffffffffffffffffff8360401c169280613caf8573ffffffffffffffffffffffffffffffffffffffff165f52600560205260405f2090565b556040805160e09290921c825262ffffff92831660208301528101919091528060608101613b8d565b50505061029d6139bf565b356109278161027f565b906040516060810181811067ffffffffffffffff82111761030457604052604063ffffffff82945461ffff80821685528160101c16602085015260201c16910152565b90621275008201809211613b9d57565b91610160820190613d5082613ce3565b918461ffff9485821692613d6384614535565b613d93613d8e3373ffffffffffffffffffffffffffffffffffffffff165f52600660205260405f2090565b613ced565b92604084019163ffffffff9182613dae855163ffffffff1690565b1680613fb0575b5050613dc861374b845163ffffffff1690565b613f9a57613de2613ddc6101408601613ce3565b91613ce3565b915b898216998a8810613dfd575b5050505050505050909150565b613ea296979950613f0f989a613e16918516908b6145a4565b98613e2361374b42613d30565b95613e32865163ffffffff1690565b928316613f1d5750506040805161ffff85811682528b16602082015263ffffffff87169181019190915261261d9392613e9792509033907f16f9a191ecd86fd97f0ddc3dbed8fdc4d1e0d0644b93db99f8a577f52b0dec4390606090a261ffff168752565b61ffff166020860152565b335f90815260066020908152604091829020835181548584015195909401517fffffffffffffffffffffffffffffffffffffffffffffffff000000000000000090941661ffff919091161760109490941b63ffff0000169390931791901b67ffffffff0000000016179055565b815f80808080808080613df0565b613f3891929350610140613f319101613ce3565b61ffff1690565b1115613f92575b506040805161ffff9283168152918816602083015263ffffffff84169082015233907ff813e17e21ecee3918b028c4e02f15f1fdd045f9f63183b6ab4f42c23c97b32190606090a29063ffffffff169052565b92505f613f3f565b50835161ffff16602085015161ffff1691613de4565b613fc0613f316101408801613ce3565b8810159042101516613fd7613f31885161ffff1690565b881015811715613db557959650995050505050602092945061092793505f1461403857337f145c143a918203cecb36063a1d70980ebb42b5b00490c5510d79c9d7717b77bb5f80a25b335f90815260066020526040812055015161ffff1690565b337f2045c970b5c1a8f9b69dd33e70a1f9d07b9021e408716d5b8daeb83a776ea05f5f80a2614020565b9081602091031261028b5751610927816103b1565b60045468010000000000000000811015610304576001810180600455811015612c1f5760045f527f8a35acfbc15ff81a39ae7d344fd709f28e8600b4aa8c65c6b64bfe7fe36bd19b0155565b60035468010000000000000000811015610304576001810180600355811015612c1f5760035f527fc2575a0e9e593c00f959f8c92f12db2869c3395a3b0502d05e2516446f71f85b0155565b6141378173ffffffffffffffffffffffffffffffffffffffff165f52600560205260405f2090565b54806142c457506040517f256909f10000000000000000000000000000000000000000000000000000000081529073ffffffffffffffffffffffffffffffffffffffff8116602083600481845afa928315611147575f9361426f575b507f3c4db27692774915639231cf12808d8ee5f42ca0bd208df85fdcd82e5f2ebe056142489394855f146142595760035462ffffff169061422162ffffff5b8060101b8460281b178760401b8460e01b1717985f1461424b576141f5896140c3565b6040519384938491604091949363ffffffff606085019616845262ffffff809216602085015216910152565b0390a273ffffffffffffffffffffffffffffffffffffffff165f52600560205260405f2090565b55565b61425489614077565b6141f5565b60045462ffffff169061422162ffffff926141d2565b61424893506142b67f3c4db27692774915639231cf12808d8ee5f42ca0bd208df85fdcd82e5f2ebe059160203d6020116142bd575b6142ae8183610342565b810190614062565b9350614193565b503d6142a4565b90614248917bffffffffffffffffffffffffffffffffffffffffffffffffffffffff8460e01b911617927f77f7914b3d5f909ba079a3cfd67cdff25863760515f339affe0f2313d356386262ffffff808660281c16818760101c16918114155f146143975761433687613ae383612fa8565b6040805163ffffffff95909516855262ffffff918216602086015291169083015273ffffffffffffffffffffffffffffffffffffffff831691606090a273ffffffffffffffffffffffffffffffffffffffff165f52600560205260405f2090565b6143a487613ae384612f73565b614336565b905f916080810135906143bb8261027f565b60a08101356143c98161027f565b60c0820135916143d88361048a565b61010060e0820135916143ea8361027f565b0135916143f68361048a565b612710908161ffff809716116144835785161161445b576301e1338063ffffffff809416116144335761029d9361442d911661453f565b16614571565b7f772de361000000000000000000000000000000000000000000000000000000005f5260045ffd5b7fcfd2223a000000000000000000000000000000000000000000000000000000005f5260045ffd5b7f74e6ce76000000000000000000000000000000000000000000000000000000005f5260045ffd5b356fffffffffffffffffffffffffffffffff81168091036133905790565b5f9493919290916014810361451957503560601c5f52600560205260405f20549081151580614507575b6144fc57505050565b610927939450612e71565b5062ffffff808360281c1614156144f3565b9290916014841161452a5750505050565b610927949550614650565b6127101061448357565b6127101061454957565b7fc7f3bbb9000000000000000000000000000000000000000000000000000000005f5260045ffd5b6276a7001061457c57565b7f21366737000000000000000000000000000000000000000000000000000000005f5260045ffd5b81039190808311613b9d5761271092807fffffffffffffffffffffffffffffffffffffffffffffffffffffffffffffffff04841181021582021561464357830204916109c483116145f9575061ffff91501690565b908260011b927f7fffffffffffffffffffffffffffffffffffffffffffffffffffffffffffffff811603613b9d5782828161092795613f3195039110020190818103908210020190565b63ad251c275f526004601cfd5b823560601c5f8181526005602052604081209096959391905493841561473d57915f9182601c6050602096839a604051966354560cb288528988015260408088015260147fffffffffffffffffffffffffffffffffffffffffffffffffffffffffffffffec8301918260608a0152016080880137019301915af1614715575b82158015612f5c57612f5457612efe838360e01c0163ffffffff90817fffffffffffffffffffffffffffffffffffffffffffffffffffffffff0000000182019110020190565b915060203d106001146147305763ffffffff5f5116916146cf565b63c177c7005f526004601cfd5b505f9650505050505056fea164736f6c6343000819000a3c4db27692774915639231cf12808d8ee5f42ca0bd208df85fdcd82e5f2ebe0577f7914b3d5f909ba079a3cfd67cdff25863760515f339affe0f2313d3563862","linkReferences":{}},"methodIdentifiers":{"addRoleProvider(address,uint32)":"ea5b13bd","blockFromDeposits(address)":"064ed53b","borrower()":"7df1f1b9","config()":"79502c55","createRoleProvider(address,uint32,bytes)":"36c89214","disableForceBuyBacks(address)":"a7fee654","factory()":"c45a0155","getHookedMarket(address)":"2ccf4667","getHookedMarkets(address[])":"c888fb15","getLenderStatus(address)":"22a4a19f","getParameterConstraints()":"a11ef067","getPreviousLenderStatus(address)":"b037096d","getPullProviders()":"8f8ef419","getPushProviders()":"87927767","getRoleProvider(address)":"bfd269be","grantRole(address,uint32)":"6b2b369b","grantRoles(address[],uint32[])":"9d2a76fe","isKnownLenderOnMarket(address,address)":"a9ff2dbf","name()":"06fdde03","onBorrow(uint256,(bool,uint128,uint128,uint128,uint104,uint104,uint32,bool,uint32,uint16,uint16,uint16,uint112,uint32),bytes)":"b1cfda0d","onCloseMarket((bool,uint128,uint128,uint128,uint104,uint104,uint32,bool,uint32,uint16,uint16,uint16,uint112,uint32),bytes)":"9ecc64e6","onCreateMarket(address,address,(address,string,string,uint128,uint16,uint16,uint32,uint16,uint32,uint256),bytes)":"28fd0307","onDeposit(address,uint256,(bool,uint128,uint128,uint128,uint104,uint104,uint32,bool,uint32,uint16,uint16,uint16,uint112,uint32),bytes)":"5aeb713f","onExecuteWithdrawal(address,uint128,(bool,uint128,uint128,uint128,uint104,uint104,uint32,bool,uint32,uint16,uint16,uint16,uint112,uint32),bytes)":"2970403d","onForceBuyBack(address,uint256,(bool,uint128,uint128,uint128,uint104,uint104,uint32,bool,uint32,uint16,uint16,uint16,uint112,uint32),bytes)":"726303ef","onNukeFromOrbit(address,(bool,uint128,uint128,uint128,uint104,uint104,uint32,bool,uint32,uint16,uint16,uint16,uint112,uint32),bytes)":"8b3ce9b3","onQueueWithdrawal(address,uint32,uint256,(bool,uint128,uint128,uint128,uint104,uint104,uint32,bool,uint32,uint16,uint16,uint16,uint112,uint32),bytes)":"3521cccc","onRepay(uint256,(bool,uint128,uint128,uint128,uint104,uint104,uint32,bool,uint32,uint16,uint16,uint16,uint112,uint32),bytes)":"83d9e1eb","onSetAnnualInterestAndReserveRatioBips(uint16,uint16,(bool,uint128,uint128,uint128,uint104,uint104,uint32,bool,uint32,uint16,uint16,uint16,uint112,uint32),bytes)":"cc452642","onSetMaxTotalSupply(uint256,(bool,uint128,uint128,uint128,uint104,uint104,uint32,bool,uint32,uint16,uint16,uint16,uint112,uint32),bytes)":"849da129","onSetProtocolFeeBips(uint16,(bool,uint128,uint128,uint128,uint104,uint104,uint32,bool,uint32,uint16,uint16,uint16,uint112,uint32),bytes)":"03473d8d","onTransfer(address,address,address,uint256,(bool,uint128,uint128,uint128,uint104,uint104,uint32,bool,uint32,uint16,uint16,uint16,uint112,uint32),bytes)":"a018f90e","removeRoleProvider(address)":"8adfe0f8","revokeRole(address)":"80e52e3f","setMinimumDeposit(address,uint128)":"1c4b3694","setName(string)":"c47f0027","temporaryExcessReserveRatio(address)":"feb368e2","unblockFromDeposits(address)":"aa948689","version()":"54fd4d50"},"id":44}