{"abi":[{"type":"constructor","inputs":[{"name":"_deployer","type":"address","internalType":"address"},{"name":"args","type":"bytes","internalType":"bytes"}],"stateMutability":"nonpayable"},{"type":"function","name":"MaximumLoanTerm","inputs":[],"outputs":[{"name":"","type":"uint32","internalType":"uint32"}],"stateMutability":"view"},{"type":"function","name":"addRoleProvider","inputs":[{"name":"providerAddress","type":"address","internalType":"address"},{"name":"timeToLive","type":"uint32","internalType":"uint32"}],"outputs":[],"stateMutability":"nonpayable"},{"type":"function","name":"blockFromDeposits","inputs":[{"name":"account","type":"address","internalType":"address"}],"outputs":[],"stateMutability":"nonpayable"},{"type":"function","name":"blockFromDeposits","inputs":[{"name":"accounts","type":"address[]","internalType":"address[]"}],"outputs":[],"stateMutability":"nonpayable"},{"type":"function","name":"borrower","inputs":[],"outputs":[{"name":"","type":"address","internalType":"address"}],"stateMutability":"view"},{"type":"function","name":"config","inputs":[],"outputs":[{"name":"","type":"uint256","internalType":"HooksDeploymentConfig"}],"stateMutability":"view"},{"type":"function","name":"createRoleProvider","inputs":[{"name":"providerFactory","type":"address","internalType":"address"},{"name":"timeToLive","type":"uint32","internalType":"uint32"},{"name":"data","type":"bytes","internalType":"bytes"}],"outputs":[],"stateMutability":"nonpayable"},{"type":"function","name":"factory","inputs":[],"outputs":[{"name":"","type":"address","internalType":"address"}],"stateMutability":"view"},{"type":"function","name":"getHookedMarket","inputs":[{"name":"marketAddress","type":"address","internalType":"address"}],"outputs":[{"name":"","type":"tuple","internalType":"struct HookedMarket","components":[{"name":"isHooked","type":"bool","internalType":"bool"},{"name":"transferRequiresAccess","type":"bool","internalType":"bool"},{"name":"depositRequiresAccess","type":"bool","internalType":"bool"},{"name":"withdrawalRequiresAccess","type":"bool","internalType":"bool"},{"name":"minimumDeposit","type":"uint128","internalType":"uint128"},{"name":"fixedTermEndTime","type":"uint32","internalType":"uint32"},{"name":"transfersDisabled","type":"bool","internalType":"bool"},{"name":"allowClosureBeforeTerm","type":"bool","internalType":"bool"},{"name":"allowTermReduction","type":"bool","internalType":"bool"}]}],"stateMutability":"view"},{"type":"function","name":"getHookedMarkets","inputs":[{"name":"marketAddresses","type":"address[]","internalType":"address[]"}],"outputs":[{"name":"hookedMarkets","type":"tuple[]","internalType":"struct HookedMarket[]","components":[{"name":"isHooked","type":"bool","internalType":"bool"},{"name":"transferRequiresAccess","type":"bool","internalType":"bool"},{"name":"depositRequiresAccess","type":"bool","internalType":"bool"},{"name":"withdrawalRequiresAccess","type":"bool","internalType":"bool"},{"name":"minimumDeposit","type":"uint128","internalType":"uint128"},{"name":"fixedTermEndTime","type":"uint32","internalType":"uint32"},{"name":"transfersDisabled","type":"bool","internalType":"bool"},{"name":"allowClosureBeforeTerm","type":"bool","internalType":"bool"},{"name":"allowTermReduction","type":"bool","internalType":"bool"}]}],"stateMutability":"view"},{"type":"function","name":"getLenderStatus","inputs":[{"name":"accountAddress","type":"address","internalType":"address"}],"outputs":[{"name":"status","type":"tuple","internalType":"struct LenderStatus","components":[{"name":"isBlockedFromDeposits","type":"bool","internalType":"bool"},{"name":"lastProvider","type":"address","internalType":"address"},{"name":"canRefresh","type":"bool","internalType":"bool"},{"name":"lastApprovalTimestamp","type":"uint32","internalType":"uint32"}]}],"stateMutability":"view"},{"type":"function","name":"getParameterConstraints","inputs":[],"outputs":[{"name":"constraints","type":"tuple","internalType":"struct MarketParameterConstraints","components":[{"name":"minimumDelinquencyGracePeriod","type":"uint32","internalType":"uint32"},{"name":"maximumDelinquencyGracePeriod","type":"uint32","internalType":"uint32"},{"name":"minimumReserveRatioBips","type":"uint16","internalType":"uint16"},{"name":"maximumReserveRatioBips","type":"uint16","internalType":"uint16"},{"name":"minimumDelinquencyFeeBips","type":"uint16","internalType":"uint16"},{"name":"maximumDelinquencyFeeBips","type":"uint16","internalType":"uint16"},{"name":"minimumWithdrawalBatchDuration","type":"uint32","internalType":"uint32"},{"name":"maximumWithdrawalBatchDuration","type":"uint32","internalType":"uint32"},{"name":"minimumAnnualInterestBips","type":"uint16","internalType":"uint16"},{"name":"maximumAnnualInterestBips","type":"uint16","internalType":"uint16"}]}],"stateMutability":"pure"},{"type":"function","name":"getPreviousLenderStatus","inputs":[{"name":"accountAddress","type":"address","internalType":"address"}],"outputs":[{"name":"status","type":"tuple","internalType":"struct LenderStatus","components":[{"name":"isBlockedFromDeposits","type":"bool","internalType":"bool"},{"name":"lastProvider","type":"address","internalType":"address"},{"name":"canRefresh","type":"bool","internalType":"bool"},{"name":"lastApprovalTimestamp","type":"uint32","internalType":"uint32"}]}],"stateMutability":"view"},{"type":"function","name":"getPullProviders","inputs":[],"outputs":[{"name":"","type":"uint256[]","internalType":"RoleProvider[]"}],"stateMutability":"view"},{"type":"function","name":"getPushProviders","inputs":[],"outputs":[{"name":"","type":"uint256[]","internalType":"RoleProvider[]"}],"stateMutability":"view"},{"type":"function","name":"getRoleProvider","inputs":[{"name":"providerAddress","type":"address","internalType":"address"}],"outputs":[{"name":"","type":"uint256","internalType":"RoleProvider"}],"stateMutability":"view"},{"type":"function","name":"grantRole","inputs":[{"name":"account","type":"address","internalType":"address"},{"name":"roleGrantedTimestamp","type":"uint32","internalType":"uint32"}],"outputs":[],"stateMutability":"nonpayable"},{"type":"function","name":"grantRoles","inputs":[{"name":"accounts","type":"address[]","internalType":"address[]"},{"name":"roleGrantedTimestamps","type":"uint32[]","internalType":"uint32[]"}],"outputs":[],"stateMutability":"nonpayable"},{"type":"function","name":"isKnownLenderOnMarket","inputs":[{"name":"lender","type":"address","internalType":"address"},{"name":"market","type":"address","internalType":"address"}],"outputs":[{"name":"","type":"bool","internalType":"bool"}],"stateMutability":"view"},{"type":"function","name":"name","inputs":[],"outputs":[{"name":"","type":"string","internalType":"string"}],"stateMutability":"view"},{"type":"function","name":"onBorrow","inputs":[{"name":"","type":"uint256","internalType":"uint256"},{"name":"","type":"tuple","internalType":"struct MarketState","components":[{"name":"isClosed","type":"bool","internalType":"bool"},{"name":"maxTotalSupply","type":"uint128","internalType":"uint128"},{"name":"accruedProtocolFees","type":"uint128","internalType":"uint128"},{"name":"normalizedUnclaimedWithdrawals","type":"uint128","internalType":"uint128"},{"name":"scaledTotalSupply","type":"uint104","internalType":"uint104"},{"name":"scaledPendingWithdrawals","type":"uint104","internalType":"uint104"},{"name":"pendingWithdrawalExpiry","type":"uint32","internalType":"uint32"},{"name":"isDelinquent","type":"bool","internalType":"bool"},{"name":"timeDelinquent","type":"uint32","internalType":"uint32"},{"name":"protocolFeeBips","type":"uint16","internalType":"uint16"},{"name":"annualInterestBips","type":"uint16","internalType":"uint16"},{"name":"reserveRatioBips","type":"uint16","internalType":"uint16"},{"name":"scaleFactor","type":"uint112","internalType":"uint112"},{"name":"lastInterestAccruedTimestamp","type":"uint32","internalType":"uint32"}]},{"name":"","type":"bytes","internalType":"bytes"}],"outputs":[],"stateMutability":"nonpayable"},{"type":"function","name":"onCloseMarket","inputs":[{"name":"","type":"tuple","internalType":"struct MarketState","components":[{"name":"isClosed","type":"bool","internalType":"bool"},{"name":"maxTotalSupply","type":"uint128","internalType":"uint128"},{"name":"accruedProtocolFees","type":"uint128","internalType":"uint128"},{"name":"normalizedUnclaimedWithdrawals","type":"uint128","internalType":"uint128"},{"name":"scaledTotalSupply","type":"uint104","internalType":"uint104"},{"name":"scaledPendingWithdrawals","type":"uint104","internalType":"uint104"},{"name":"pendingWithdrawalExpiry","type":"uint32","internalType":"uint32"},{"name":"isDelinquent","type":"bool","internalType":"bool"},{"name":"timeDelinquent","type":"uint32","internalType":"uint32"},{"name":"protocolFeeBips","type":"uint16","internalType":"uint16"},{"name":"annualInterestBips","type":"uint16","internalType":"uint16"},{"name":"reserveRatioBips","type":"uint16","internalType":"uint16"},{"name":"scaleFactor","type":"uint112","internalType":"uint112"},{"name":"lastInterestAccruedTimestamp","type":"uint32","internalType":"uint32"}]},{"name":"","type":"bytes","internalType":"bytes"}],"outputs":[],"stateMutability":"nonpayable"},{"type":"function","name":"onCreateMarket","inputs":[{"name":"deployer","type":"address","internalType":"address"},{"name":"marketAddress","type":"address","internalType":"address"},{"name":"parameters","type":"tuple","internalType":"struct DeployMarketInputs","components":[{"name":"asset","type":"address","internalType":"address"},{"name":"namePrefix","type":"string","internalType":"string"},{"name":"symbolPrefix","type":"string","internalType":"string"},{"name":"maxTotalSupply","type":"uint128","internalType":"uint128"},{"name":"annualInterestBips","type":"uint16","internalType":"uint16"},{"name":"delinquencyFeeBips","type":"uint16","internalType":"uint16"},{"name":"withdrawalBatchDuration","type":"uint32","internalType":"uint32"},{"name":"reserveRatioBips","type":"uint16","internalType":"uint16"},{"name":"delinquencyGracePeriod","type":"uint32","internalType":"uint32"},{"name":"hooks","type":"uint256","internalType":"HooksConfig"}]},{"name":"extraData","type":"bytes","internalType":"bytes"}],"outputs":[{"name":"","type":"uint256","internalType":"HooksConfig"}],"stateMutability":"nonpayable"},{"type":"function","name":"onDeposit","inputs":[{"name":"lender","type":"address","internalType":"address"},{"name":"scaledAmount","type":"uint256","internalType":"uint256"},{"name":"state","type":"tuple","internalType":"struct MarketState","components":[{"name":"isClosed","type":"bool","internalType":"bool"},{"name":"maxTotalSupply","type":"uint128","internalType":"uint128"},{"name":"accruedProtocolFees","type":"uint128","internalType":"uint128"},{"name":"normalizedUnclaimedWithdrawals","type":"uint128","internalType":"uint128"},{"name":"scaledTotalSupply","type":"uint104","internalType":"uint104"},{"name":"scaledPendingWithdrawals","type":"uint104","internalType":"uint104"},{"name":"pendingWithdrawalExpiry","type":"uint32","internalType":"uint32"},{"name":"isDelinquent","type":"bool","internalType":"bool"},{"name":"timeDelinquent","type":"uint32","internalType":"uint32"},{"name":"protocolFeeBips","type":"uint16","internalType":"uint16"},{"name":"annualInterestBips","type":"uint16","internalType":"uint16"},{"name":"reserveRatioBips","type":"uint16","internalType":"uint16"},{"name":"scaleFactor","type":"uint112","internalType":"uint112"},{"name":"lastInterestAccruedTimestamp","type":"uint32","internalType":"uint32"}]},{"name":"hooksData","type":"bytes","internalType":"bytes"}],"outputs":[],"stateMutability":"nonpayable"},{"type":"function","name":"onExecuteWithdrawal","inputs":[{"name":"lender","type":"address","internalType":"address"},{"name":"","type":"uint128","internalType":"uint128"},{"name":"","type":"tuple","internalType":"struct MarketState","components":[{"name":"isClosed","type":"bool","internalType":"bool"},{"name":"maxTotalSupply","type":"uint128","internalType":"uint128"},{"name":"accruedProtocolFees","type":"uint128","internalType":"uint128"},{"name":"normalizedUnclaimedWithdrawals","type":"uint128","internalType":"uint128"},{"name":"scaledTotalSupply","type":"uint104","internalType":"uint104"},{"name":"scaledPendingWithdrawals","type":"uint104","internalType":"uint104"},{"name":"pendingWithdrawalExpiry","type":"uint32","internalType":"uint32"},{"name":"isDelinquent","type":"bool","internalType":"bool"},{"name":"timeDelinquent","type":"uint32","internalType":"uint32"},{"name":"protocolFeeBips","type":"uint16","internalType":"uint16"},{"name":"annualInterestBips","type":"uint16","internalType":"uint16"},{"name":"reserveRatioBips","type":"uint16","internalType":"uint16"},{"name":"scaleFactor","type":"uint112","internalType":"uint112"},{"name":"lastInterestAccruedTimestamp","type":"uint32","internalType":"uint32"}]},{"name":"hooksData","type":"bytes","internalType":"bytes"}],"outputs":[],"stateMutability":"nonpayable"},{"type":"function","name":"onNukeFromOrbit","inputs":[{"name":"","type":"address","internalType":"address"},{"name":"","type":"tuple","internalType":"struct MarketState","components":[{"name":"isClosed","type":"bool","internalType":"bool"},{"name":"maxTotalSupply","type":"uint128","internalType":"uint128"},{"name":"accruedProtocolFees","type":"uint128","internalType":"uint128"},{"name":"normalizedUnclaimedWithdrawals","type":"uint128","internalType":"uint128"},{"name":"scaledTotalSupply","type":"uint104","internalType":"uint104"},{"name":"scaledPendingWithdrawals","type":"uint104","internalType":"uint104"},{"name":"pendingWithdrawalExpiry","type":"uint32","internalType":"uint32"},{"name":"isDelinquent","type":"bool","internalType":"bool"},{"name":"timeDelinquent","type":"uint32","internalType":"uint32"},{"name":"protocolFeeBips","type":"uint16","internalType":"uint16"},{"name":"annualInterestBips","type":"uint16","internalType":"uint16"},{"name":"reserveRatioBips","type":"uint16","internalType":"uint16"},{"name":"scaleFactor","type":"uint112","internalType":"uint112"},{"name":"lastInterestAccruedTimestamp","type":"uint32","internalType":"uint32"}]},{"name":"","type":"bytes","internalType":"bytes"}],"outputs":[],"stateMutability":"nonpayable"},{"type":"function","name":"onQueueWithdrawal","inputs":[{"name":"lender","type":"address","internalType":"address"},{"name":"","type":"uint32","internalType":"uint32"},{"name":"","type":"uint256","internalType":"uint256"},{"name":"","type":"tuple","internalType":"struct MarketState","components":[{"name":"isClosed","type":"bool","internalType":"bool"},{"name":"maxTotalSupply","type":"uint128","internalType":"uint128"},{"name":"accruedProtocolFees","type":"uint128","internalType":"uint128"},{"name":"normalizedUnclaimedWithdrawals","type":"uint128","internalType":"uint128"},{"name":"scaledTotalSupply","type":"uint104","internalType":"uint104"},{"name":"scaledPendingWithdrawals","type":"uint104","internalType":"uint104"},{"name":"pendingWithdrawalExpiry","type":"uint32","internalType":"uint32"},{"name":"isDelinquent","type":"bool","internalType":"bool"},{"name":"timeDelinquent","type":"uint32","internalType":"uint32"},{"name":"protocolFeeBips","type":"uint16","internalType":"uint16"},{"name":"annualInterestBips","type":"uint16","internalType":"uint16"},{"name":"reserveRatioBips","type":"uint16","internalType":"uint16"},{"name":"scaleFactor","type":"uint112","internalType":"uint112"},{"name":"lastInterestAccruedTimestamp","type":"uint32","internalType":"uint32"}]},{"name":"hooksData","type":"bytes","internalType":"bytes"}],"outputs":[],"stateMutability":"nonpayable"},{"type":"function","name":"onRepay","inputs":[{"name":"normalizedAmount","type":"uint256","internalType":"uint256"},{"name":"state","type":"tuple","internalType":"struct MarketState","components":[{"name":"isClosed","type":"bool","internalType":"bool"},{"name":"maxTotalSupply","type":"uint128","internalType":"uint128"},{"name":"accruedProtocolFees","type":"uint128","internalType":"uint128"},{"name":"normalizedUnclaimedWithdrawals","type":"uint128","internalType":"uint128"},{"name":"scaledTotalSupply","type":"uint104","internalType":"uint104"},{"name":"scaledPendingWithdrawals","type":"uint104","internalType":"uint104"},{"name":"pendingWithdrawalExpiry","type":"uint32","internalType":"uint32"},{"name":"isDelinquent","type":"bool","internalType":"bool"},{"name":"timeDelinquent","type":"uint32","internalType":"uint32"},{"name":"protocolFeeBips","type":"uint16","internalType":"uint16"},{"name":"annualInterestBips","type":"uint16","internalType":"uint16"},{"name":"reserveRatioBips","type":"uint16","internalType":"uint16"},{"name":"scaleFactor","type":"uint112","internalType":"uint112"},{"name":"lastInterestAccruedTimestamp","type":"uint32","internalType":"uint32"}]},{"name":"hooksData","type":"bytes","internalType":"bytes"}],"outputs":[],"stateMutability":"nonpayable"},{"type":"function","name":"onSetAnnualInterestAndReserveRatioBips","inputs":[{"name":"annualInterestBips","type":"uint16","internalType":"uint16"},{"name":"reserveRatioBips","type":"uint16","internalType":"uint16"},{"name":"intermediateState","type":"tuple","internalType":"struct MarketState","components":[{"name":"isClosed","type":"bool","internalType":"bool"},{"name":"maxTotalSupply","type":"uint128","internalType":"uint128"},{"name":"accruedProtocolFees","type":"uint128","internalType":"uint128"},{"name":"normalizedUnclaimedWithdrawals","type":"uint128","internalType":"uint128"},{"name":"scaledTotalSupply","type":"uint104","internalType":"uint104"},{"name":"scaledPendingWithdrawals","type":"uint104","internalType":"uint104"},{"name":"pendingWithdrawalExpiry","type":"uint32","internalType":"uint32"},{"name":"isDelinquent","type":"bool","internalType":"bool"},{"name":"timeDelinquent","type":"uint32","internalType":"uint32"},{"name":"protocolFeeBips","type":"uint16","internalType":"uint16"},{"name":"annualInterestBips","type":"uint16","internalType":"uint16"},{"name":"reserveRatioBips","type":"uint16","internalType":"uint16"},{"name":"scaleFactor","type":"uint112","internalType":"uint112"},{"name":"lastInterestAccruedTimestamp","type":"uint32","internalType":"uint32"}]},{"name":"hooksData","type":"bytes","internalType":"bytes"}],"outputs":[{"name":"updatedAnnualInterestBips","type":"uint16","internalType":"uint16"},{"name":"updatedReserveRatioBips","type":"uint16","internalType":"uint16"}],"stateMutability":"nonpayable"},{"type":"function","name":"onSetMaxTotalSupply","inputs":[{"name":"","type":"uint256","internalType":"uint256"},{"name":"","type":"tuple","internalType":"struct MarketState","components":[{"name":"isClosed","type":"bool","internalType":"bool"},{"name":"maxTotalSupply","type":"uint128","internalType":"uint128"},{"name":"accruedProtocolFees","type":"uint128","internalType":"uint128"},{"name":"normalizedUnclaimedWithdrawals","type":"uint128","internalType":"uint128"},{"name":"scaledTotalSupply","type":"uint104","internalType":"uint104"},{"name":"scaledPendingWithdrawals","type":"uint104","internalType":"uint104"},{"name":"pendingWithdrawalExpiry","type":"uint32","internalType":"uint32"},{"name":"isDelinquent","type":"bool","internalType":"bool"},{"name":"timeDelinquent","type":"uint32","internalType":"uint32"},{"name":"protocolFeeBips","type":"uint16","internalType":"uint16"},{"name":"annualInterestBips","type":"uint16","internalType":"uint16"},{"name":"reserveRatioBips","type":"uint16","internalType":"uint16"},{"name":"scaleFactor","type":"uint112","internalType":"uint112"},{"name":"lastInterestAccruedTimestamp","type":"uint32","internalType":"uint32"}]},{"name":"","type":"bytes","internalType":"bytes"}],"outputs":[],"stateMutability":"nonpayable"},{"type":"function","name":"onSetProtocolFeeBips","inputs":[{"name":"","type":"uint16","internalType":"uint16"},{"name":"","type":"tuple","internalType":"struct MarketState","components":[{"name":"isClosed","type":"bool","internalType":"bool"},{"name":"maxTotalSupply","type":"uint128","internalType":"uint128"},{"name":"accruedProtocolFees","type":"uint128","internalType":"uint128"},{"name":"normalizedUnclaimedWithdrawals","type":"uint128","internalType":"uint128"},{"name":"scaledTotalSupply","type":"uint104","internalType":"uint104"},{"name":"scaledPendingWithdrawals","type":"uint104","internalType":"uint104"},{"name":"pendingWithdrawalExpiry","type":"uint32","internalType":"uint32"},{"name":"isDelinquent","type":"bool","internalType":"bool"},{"name":"timeDelinquent","type":"uint32","internalType":"uint32"},{"name":"protocolFeeBips","type":"uint16","internalType":"uint16"},{"name":"annualInterestBips","type":"uint16","internalType":"uint16"},{"name":"reserveRatioBips","type":"uint16","internalType":"uint16"},{"name":"scaleFactor","type":"uint112","internalType":"uint112"},{"name":"lastInterestAccruedTimestamp","type":"uint32","internalType":"uint32"}]},{"name":"","type":"bytes","internalType":"bytes"}],"outputs":[],"stateMutability":"nonpayable"},{"type":"function","name":"onTransfer","inputs":[{"name":"","type":"address","internalType":"address"},{"name":"","type":"address","internalType":"address"},{"name":"to","type":"address","internalType":"address"},{"name":"","type":"uint256","internalType":"uint256"},{"name":"","type":"tuple","internalType":"struct MarketState","components":[{"name":"isClosed","type":"bool","internalType":"bool"},{"name":"maxTotalSupply","type":"uint128","internalType":"uint128"},{"name":"accruedProtocolFees","type":"uint128","internalType":"uint128"},{"name":"normalizedUnclaimedWithdrawals","type":"uint128","internalType":"uint128"},{"name":"scaledTotalSupply","type":"uint104","internalType":"uint104"},{"name":"scaledPendingWithdrawals","type":"uint104","internalType":"uint104"},{"name":"pendingWithdrawalExpiry","type":"uint32","internalType":"uint32"},{"name":"isDelinquent","type":"bool","internalType":"bool"},{"name":"timeDelinquent","type":"uint32","internalType":"uint32"},{"name":"protocolFeeBips","type":"uint16","internalType":"uint16"},{"name":"annualInterestBips","type":"uint16","internalType":"uint16"},{"name":"reserveRatioBips","type":"uint16","internalType":"uint16"},{"name":"scaleFactor","type":"uint112","internalType":"uint112"},{"name":"lastInterestAccruedTimestamp","type":"uint32","internalType":"uint32"}]},{"name":"extraData","type":"bytes","internalType":"bytes"}],"outputs":[],"stateMutability":"nonpayable"},{"type":"function","name":"removeRoleProvider","inputs":[{"name":"providerAddress","type":"address","internalType":"address"}],"outputs":[],"stateMutability":"nonpayable"},{"type":"function","name":"revokeRole","inputs":[{"name":"account","type":"address","internalType":"address"}],"outputs":[],"stateMutability":"nonpayable"},{"type":"function","name":"revokeRoles","inputs":[{"name":"accounts","type":"address[]","internalType":"address[]"}],"outputs":[],"stateMutability":"nonpayable"},{"type":"function","name":"setFixedTermEndTime","inputs":[{"name":"market","type":"address","internalType":"address"},{"name":"newFixedTermEndTime","type":"uint32","internalType":"uint32"}],"outputs":[],"stateMutability":"nonpayable"},{"type":"function","name":"setMinimumDeposit","inputs":[{"name":"market","type":"address","internalType":"address"},{"name":"newMinimumDeposit","type":"uint128","internalType":"uint128"}],"outputs":[],"stateMutability":"nonpayable"},{"type":"function","name":"setName","inputs":[{"name":"_name","type":"string","internalType":"string"}],"outputs":[],"stateMutability":"nonpayable"},{"type":"function","name":"temporaryExcessReserveRatio","inputs":[{"name":"","type":"address","internalType":"address"}],"outputs":[{"name":"originalAnnualInterestBips","type":"uint16","internalType":"uint16"},{"name":"originalReserveRatioBips","type":"uint16","internalType":"uint16"},{"name":"expiry","type":"uint32","internalType":"uint32"}],"stateMutability":"view"},{"type":"function","name":"unblockFromDeposits","inputs":[{"name":"account","type":"address","internalType":"address"}],"outputs":[],"stateMutability":"nonpayable"},{"type":"function","name":"version","inputs":[],"outputs":[{"name":"","type":"string","internalType":"string"}],"stateMutability":"pure"},{"type":"event","name":"AccountAccessGranted","inputs":[{"name":"providerAddress","type":"address","indexed":true,"internalType":"address"},{"name":"accountAddress","type":"address","indexed":true,"internalType":"address"},{"name":"credentialTimestamp","type":"uint32","indexed":false,"internalType":"uint32"}],"anonymous":false},{"type":"event","name":"AccountAccessRevoked","inputs":[{"name":"accountAddress","type":"address","indexed":true,"internalType":"address"}],"anonymous":false},{"type":"event","name":"AccountBlockedFromDeposits","inputs":[{"name":"accountAddress","type":"address","indexed":true,"internalType":"address"}],"anonymous":false},{"type":"event","name":"AccountMadeFirstDeposit","inputs":[{"name":"market","type":"address","indexed":true,"internalType":"address"},{"name":"accountAddress","type":"address","indexed":true,"internalType":"address"}],"anonymous":false},{"type":"event","name":"AccountUnblockedFromDeposits","inputs":[{"name":"accountAddress","type":"address","indexed":true,"internalType":"address"}],"anonymous":false},{"type":"event","name":"FixedTermUpdated","inputs":[{"name":"market","type":"address","indexed":false,"internalType":"address"},{"name":"fixedTermEndTime","type":"uint32","indexed":false,"internalType":"uint32"}],"anonymous":false},{"type":"event","name":"MinimumDepositUpdated","inputs":[{"name":"market","type":"address","indexed":false,"internalType":"address"},{"name":"newMinimumDeposit","type":"uint128","indexed":false,"internalType":"uint128"}],"anonymous":false},{"type":"event","name":"NameUpdated","inputs":[{"name":"name","type":"string","indexed":false,"internalType":"string"}],"anonymous":false},{"type":"event","name":"RoleProviderAdded","inputs":[{"name":"providerAddress","type":"address","indexed":true,"internalType":"address"},{"name":"timeToLive","type":"uint32","indexed":false,"internalType":"uint32"},{"name":"pullProviderIndex","type":"uint24","indexed":false,"internalType":"uint24"},{"name":"pushProviderIndex","type":"uint24","indexed":false,"internalType":"uint24"}],"anonymous":false},{"type":"event","name":"RoleProviderRemoved","inputs":[{"name":"providerAddress","type":"address","indexed":true,"internalType":"address"},{"name":"pullProviderIndex","type":"uint24","indexed":false,"internalType":"uint24"},{"name":"pushProviderIndex","type":"uint24","indexed":false,"internalType":"uint24"}],"anonymous":false},{"type":"event","name":"RoleProviderUpdated","inputs":[{"name":"providerAddress","type":"address","indexed":true,"internalType":"address"},{"name":"timeToLive","type":"uint32","indexed":false,"internalType":"uint32"},{"name":"pullProviderIndex","type":"uint24","indexed":false,"internalType":"uint24"},{"name":"pushProviderIndex","type":"uint24","indexed":false,"internalType":"uint24"}],"anonymous":false},{"type":"event","name":"TemporaryExcessReserveRatioActivated","inputs":[{"name":"market","type":"address","indexed":true,"internalType":"address"},{"name":"originalReserveRatioBips","type":"uint256","indexed":false,"internalType":"uint256"},{"name":"temporaryReserveRatioBips","type":"uint256","indexed":false,"internalType":"uint256"},{"name":"temporaryReserveRatioExpiry","type":"uint256","indexed":false,"internalType":"uint256"}],"anonymous":false},{"type":"event","name":"TemporaryExcessReserveRatioCanceled","inputs":[{"name":"market","type":"address","indexed":true,"internalType":"address"}],"anonymous":false},{"type":"event","name":"TemporaryExcessReserveRatioExpired","inputs":[{"name":"market","type":"address","indexed":true,"internalType":"address"}],"anonymous":false},{"type":"event","name":"TemporaryExcessReserveRatioUpdated","inputs":[{"name":"market","type":"address","indexed":true,"internalType":"address"},{"name":"originalReserveRatioBips","type":"uint256","indexed":false,"internalType":"uint256"},{"name":"temporaryReserveRatioBips","type":"uint256","indexed":false,"internalType":"uint256"},{"name":"temporaryReserveRatioExpiry","type":"uint256","indexed":false,"internalType":"uint256"}],"anonymous":false},{"type":"error","name":"AnnualInterestBipsOutOfBounds","inputs":[]},{"type":"error","name":"CallerNotBorrower","inputs":[]},{"type":"error","name":"CallerNotFactory","inputs":[]},{"type":"error","name":"ClosureDisabledBeforeTerm","inputs":[]},{"type":"error","name":"CreateRoleProviderFailed","inputs":[]},{"type":"error","name":"DelinquencyFeeBipsOutOfBounds","inputs":[]},{"type":"error","name":"DelinquencyGracePeriodOutOfBounds","inputs":[]},{"type":"error","name":"DepositBelowMinimum","inputs":[]},{"type":"error","name":"FixedTermNotProvided","inputs":[]},{"type":"error","name":"GrantedCredentialExpired","inputs":[]},{"type":"error","name":"IncreaseFixedTerm","inputs":[]},{"type":"error","name":"InvalidArrayLength","inputs":[]},{"type":"error","name":"InvalidCredentialReturned","inputs":[]},{"type":"error","name":"InvalidFixedTerm","inputs":[]},{"type":"error","name":"NoReducingAprBeforeTermEnd","inputs":[]},{"type":"error","name":"NotApprovedLender","inputs":[]},{"type":"error","name":"NotHookedMarket","inputs":[]},{"type":"error","name":"ProviderCanNotReplaceCredential","inputs":[]},{"type":"error","name":"ProviderCanNotRevokeCredential","inputs":[]},{"type":"error","name":"ProviderNotFound","inputs":[]},{"type":"error","name":"ReserveRatioBipsOutOfBounds","inputs":[]},{"type":"error","name":"TermReductionDisabled","inputs":[]},{"type":"error","name":"TransfersDisabled","inputs":[]},{"type":"error","name":"WithdrawBeforeTermEnd","inputs":[]},{"type":"error","name":"WithdrawalBatchDurationOutOfBounds","inputs":[]}],"bytecode":{"object":"0x60e0604090808252346103bc57615694803803809161001e82856105d3565b833981019082818303126103bc57610035816105f6565b6020828101516001600160401b0394919391908581116103bc57610059920161064f565b918160805261008f67ffffff0000000001600160e01b031983871b1760018060a01b038094165f526005835280875f2055610694565b3360a052634240900060c052825180610120575b8551614d27908161092d8239608051818181610347015281816108dd01528181610ae9015281816111eb01528181611607015281816116c40152818161185f01528181612021015281816122b6015281816126d70152612972015260a051818181612236015261293f015260c0518181816116750152612b130152f35b83018181019382818303126103bc5782810151908682116103bc5701936080858303126103bc5786516080810181811088821117610500578852838601518781116103bc57860182603f820112156103bc5782818a87610183940151910161060a565b81526101908887016105f6565b9184820192835260609660608101518981116103bc57810182603f820112156103bc57868101516101c08161066c565b996101cd8d519b8c6105d3565b818b528c898c019260051b840101928584116103bc578c8e8201935b858510610555575050505050508983019788526080810151908982116103bc570181603f820112156103bc5785810151906102238261066c565b956102308c5197886105d3565b8287528b8888019360061b8301019384116103bc5791908b01915b838310610514575050505060608101928352518051968711610500575f54926001978885811c951680156104f6575b868610146104e2578892601f95601f8111610493575b508690601f831160011461042d575f919083610422575b50505f19600383901b1c191690831b175f55859291905b5f825b6103d7575b505050511692836102d8575b506100a3565b5f969594855b6102ec575b508596506102d2565b805180518910156103d15788610301916106f4565b51978463ffffffff8a51169901518851906314f22bb960e11b8252868260049282848301528181518060248301528085604494018484015e5f8382840101528a601f1991011681010301815f8c5af19182156103c7575f9261038c575b508482161561037e57509061037688999a8993610708565b0197966102de565b895163228e729160e01b8152fd5b9091508681813d83116103c0575b6103a481836105d3565b810103126103bc576103b5906105f6565b905f61035e565b5f80fd5b503d61039a565b8a513d5f823e3d90fd5b506102e3565b9080929394505187815183101561041957509061040d6103f88286946106f4565b5163ffffffff898b8351169201511690610708565b019082918794936102c1565b949392506102c6565b015190505f806102a7565b90601f198316915f8052885f20925f5b8a82821061047d5750509084879594939210610465575b505050811b015f55908592916102be565b01515f1960f88460031b161c191690555f8080610454565b8385015186558e9890950194938401930161043d565b90919293505f8052865f20601f840160051c8101918885106104d8575b90601f8c96959493920160051c01905b8181106104cd5750610290565b5f81558b95016104c0565b90915081906104b0565b634e487b7160e01b5f52602260045260245ffd5b94607f169461027a565b634e487b7160e01b5f52604160045260245ffd5b8b8884830301126103bc578b888193825161052e816105b8565b610537876105f6565b8152610544838801610683565b83820152815201930192915061024b565b84519182116103bc578f91830191601f19838d0301126103bc578f908f82519061057e826105b8565b610589848601610683565b8252868501519081116103bc578a8f95946105a7928796010161064f565b838201528152019301928d906101e9565b604081019081106001600160401b0382111761050057604052565b601f909101601f19168101906001600160401b0382119082101761050057604052565b51906001600160a01b03821682036103bc57565b9192916001600160401b0382116105005760405191610633601f8201601f1916602001846105d3565b8294818452818301116103bc578281602093845f96015e010152565b9080601f830112156103bc5781516106699260200161060a565b90565b6001600160401b0381116105005760051b60200190565b519063ffffffff821682036103bc57565b600454680100000000000000008110156105005760018101806004558110156106e05760045f527f8a35acfbc15ff81a39ae7d344fd709f28e8600b4aa8c65c6b64bfe7fe36bd19b0155565b634e487b7160e01b5f52603260045260245ffd5b80518210156106e05760209160051b010190565b9060018060a01b03821690815f52602060058152604092835f205480155f1461086f5750835163256909f160e01b8152948286600481855afa958615610865575f9661082d575b50851561081d5760035462ffffff908116915b8160101b8360281b1790871b8660e01b1717965f146107f85760035491680100000000000000008310156105005760018301806003558310156106e0576005956107ec5f80516020615654833981519152938a879660035f52895f2001555b89519384938491604091949363ffffffff606085019616845262ffffff809216602085015216910152565b0390a25b5f52525f2055565b82916005956107ec5f80516020615654833981519152936108188b610694565b6107c1565b62ffffff90816004541690610762565b9095508281813d831161085e575b61084581836105d3565b810103126103bc575180151581036103bc57945f61074f565b503d61083b565b85513d5f823e3d90fd5b6001600160e01b031660e084901b179450602885901c62ffffff9081169390601087901c81169085146108fb576003548510156106e05760059483926108f35f805160206156748339815191529360035f528a84895f20015589519384938491604091949363ffffffff606085019616845262ffffff809216602085015216910152565b0390a26107f0565b6004548110156106e05760059483926108f35f805160206156748339815191529360045f528a81895f2001556107c156fe60806040526004361015610011575f80fd5b5f3560e01c806302420e7f1461029a57806303473d8d14610295578063064ed53b1461029057806306fdde031461028b5780631c4b36941461028657806322a4a19f1461028157806328fd03071461027c5780632970403d146102775780632ccf4667146102725780633521cccc1461026d57806336c892141461026857806354fd4d50146102635780635aeb713f1461025e5780636b2b369b146102595780636d1587a61461025457806379502c551461024f5780637df1f1b91461024a57806380e52e3f1461024557806383d9e1eb14610209578063849da1291461020957806387927767146102405780638adfe0f81461023b5780638b3ce9b3146102365780638f8ef419146102315780639d2a76fe1461022c5780639ecc64e614610227578063a018f90e14610222578063a11ef0671461021d578063a9ff2dbf14610218578063aa94868914610213578063b037096d1461020e578063b1cfda0d14610209578063bfd269be14610204578063c45a0155146101ff578063c47f0027146101fa578063c888fb15146101f5578063cc452642146101f0578063e5ef8405146101eb578063ea5b13bd146101e6578063f040ed98146101e15763feb368e2146101dc575f80fd5b612724565b612706565b6126b2565b612677565b612597565b6124ae565b61225a565b61220a565b6121c1565b61170d565b6120e6565b611fec565b611f6c565b611ed2565b611c90565b611b34565b611a87565b61198d565b611924565b61182a565b6117a6565b6116e8565b611698565b61165e565b6115e1565b61153f565b61134a565b6112da565b611178565b610f48565b610e59565b610d6f565b610c46565b610bcd565b610aac565b6109b1565b6108a9565b61077d565b610322565b73ffffffffffffffffffffffffffffffffffffffff8116036102bd57565b5f80fd5b63ffffffff8116036102bd57565b60e435906102dc826102c1565b565b61012435906102dc826102c1565b6101c435906102dc826102c1565b60031960409101126102bd576004356103128161029f565b9060243561031f816102c1565b90565b346102bd57610330366102fa565b73ffffffffffffffffffffffffffffffffffffffff7f00000000000000000000000000000000000000000000000000000000000000001633036104f9576103958273ffffffffffffffffffffffffffffffffffffffff165f52600760205260405f2090565b91825460ff8116156104cf5760ff8160d01c1615806104b9575b61048f5763ffffffff809160a01c16908316116104655782547fffffffffffffffff00000000ffffffffffffffffffffffffffffffffffffffff1660a083901b77ffffffff000000000000000000000000000000000000000016179092557f8fcb9a8dc61c986e7488a736bc8edc39e7f8b2bea37fdf7aa56cf142c5fe04b7916040805173ffffffffffffffffffffffffffffffffffffffff909216825263ffffffff909216602082015290819081015b0390a1005b60046040517f9b25ac5a000000000000000000000000000000000000000000000000000000008152fd5b60046040517f04a1ee32000000000000000000000000000000000000000000000000000000008152fd5b5063ffffffff808260a01c1690841611156103af565b60046040517fb217907b000000000000000000000000000000000000000000000000000000008152fd5b60046040517f3c698d79000000000000000000000000000000000000000000000000000000008152fd5b61ffff8116036102bd57565b61014435906102dc82610523565b61016435906102dc82610523565b61018435906102dc82610523565b7f4e487b71000000000000000000000000000000000000000000000000000000005f52604160045260245ffd5b610120810190811067ffffffffffffffff8211176105a357604052565b610559565b610140810190811067ffffffffffffffff8211176105a357604052565b6080810190811067ffffffffffffffff8211176105a357604052565b90601f7fffffffffffffffffffffffffffffffffffffffffffffffffffffffffffffffe0910116810190811067ffffffffffffffff8211176105a357604052565b604051906101c0820182811067ffffffffffffffff8211176105a357604052565b604051906102dc82610586565b801515036102bd57565b602435906102dc82610650565b61010435906102dc82610650565b604435906fffffffffffffffffffffffffffffffff821682036102bd57565b606435906fffffffffffffffffffffffffffffffff821682036102bd57565b608435906fffffffffffffffffffffffffffffffff821682036102bd57565b602435906fffffffffffffffffffffffffffffffff821682036102bd57565b60a435906cffffffffffffffffffffffffff821682036102bd57565b60c435906cffffffffffffffffffffffffff821682036102bd57565b6dffffffffffffffffffffffffffff8116036102bd57565b6101a435906102dc82610729565b9181601f840112156102bd5782359167ffffffffffffffff83116102bd57602083818601950101116102bd57565b346102bd576102006003193601126102bd5761079a600435610523565b6101c07fffffffffffffffffffffffffffffffffffffffffffffffffffffffffffffffdc3601126102bd576107cd610622565b6107d561065a565b81526107df610675565b60208201526107ec610694565b60408201526107f96106b3565b60608201526108066106f1565b608082015261081361070d565b60a08201526108206102cf565b60c082015261082d610667565b60e082015261083a6102de565b61010082015261084861052f565b61012082015261085661053d565b61014082015261086461054b565b610160820152610872610741565b6101808201526101a06108836102ec565b9101526101e43567ffffffffffffffff81116102bd576108a790369060040161074f565b005b346102bd5760206003193601126102bd576004356108c68161029f565b73ffffffffffffffffffffffffffffffffffffffff7f00000000000000000000000000000000000000000000000000000000000000001633036104f9576108a790613035565b90600182811c92168015610953575b602083101461092657565b7f4e487b71000000000000000000000000000000000000000000000000000000005f52602260045260245ffd5b91607f169161091b565b907fffffffffffffffffffffffffffffffffffffffffffffffffffffffffffffffe0601f602080948051918291828752018686015e5f8582860101520116010190565b90602061031f92818152019061095d565b346102bd575f6003193601126102bd576040515f80546109d08161090c565b80845290602090600190818116908115610a645750600114610a0d575b610a09856109fd818703826105e1565b604051918291826109a0565b0390f35b5f80805293507f290decd9548b62a8d60345a988386fc84ba6bc95484008f6362f93160ef3e5635b838510610a51575050505081016020016109fd82610a096109ed565b8054868601840152938201938101610a35565b869550610a09969350602092506109fd9491507fffffffffffffffffffffffffffffffffffffffffffffffffffffffffffffff001682840152151560051b82010192936109ed565b346102bd5760406003193601126102bd57600435610ac98161029f565b610ad16106d2565b73ffffffffffffffffffffffffffffffffffffffff807f00000000000000000000000000000000000000000000000000000000000000001633036104f95782165f52600760205260405f209160ff835416156104cf5782547fffffffffffffffffffffffff00000000000000000000000000000000ffffffff16602083901b73ffffffffffffffffffffffffffffffff0000000016179092557f4e39f53293455dca8fe1725b2dfcbe6abd2f44d777b7f2a7279526e17d7ebede916040805173ffffffffffffffffffffffffffffffffffffffff90921682526fffffffffffffffffffffffffffffffff90921660208201529081908101610460565b346102bd5760206003193601126102bd57610a09610bf5600435610bf08161029f565b612810565b60405191829182919091606063ffffffff81608084019580511515855273ffffffffffffffffffffffffffffffffffffffff6020820151166020860152604081015115156040860152015116910152565b346102bd576003196080813601126102bd5760043590610c658261029f565b602435610c718161029f565b60443567ffffffffffffffff928382116102bd576101409082360301126102bd576064359283116102bd57610a0993610cb1610cbd94369060040161074f565b93909260040191612924565b6040519081529081906020820190565b7fffffffffffffffffffffffffffffffffffffffffffffffffffffffffffffffbc6101c09101126102bd57604490565b7fffffffffffffffffffffffffffffffffffffffffffffffffffffffffffffff9c6101c09101126102bd57606490565b6003196101c09101126102bd57600490565b7fffffffffffffffffffffffffffffffffffffffffffffffffffffffffffffff7c6101c09101126102bd57608490565b346102bd576102206003193601126102bd57610d8c60043561029f565b610d946106d2565b50610d9e36610ccd565b506102043567ffffffffffffffff81116102bd576108a790369060040161074f565b906102dc91805115158252602081015115156020830152610dea6040820151604084019015159052565b6060818101511515908301526080818101516fffffffffffffffffffffffffffffffff169083015260a08181015163ffffffff169083015260c08181015115159083015260e081810151151590830152610100908101511515910152565b610120810192916102dc9190610dc0565b346102bd5760206003193601126102bd5773ffffffffffffffffffffffffffffffffffffffff600435610e8b8161029f565b610e93612cd7565b50165f526007602052610a0960405f20610f3c60405191610eb383610586565b5460ff80821615158452600882901c81161515602085015290601081901c821615156040850152601881901c821615156060850152602081901c6fffffffffffffffffffffffffffffffff16608085015260a081811c63ffffffff169085015260c081811c831615159085015260c881901c8216151560e085015260d01c161515610100830152565b60405191829182610e48565b346102bd576102406003193601126102bd57600435610f668161029f565b610f716024356102c1565b610f7a36610cfd565b506102243567ffffffffffffffff81116102bd57610f9c90369060040161074f565b610fcf610fca9392933373ffffffffffffffffffffffffffffffffffffffff165f52600760205260405f2090565b612d1a565b92610fe1610fdd8551151590565b1590565b6104cf5760a08401514263ffffffff909116116110ea57611035606061102d6110288673ffffffffffffffffffffffffffffffffffffffff165f52600160205260405f2090565b6127bb565b950151151590565b61103b57005b611097610fdd6110903361106d8773ffffffffffffffffffffffffffffffffffffffff165f52600260205260405f2090565b9073ffffffffffffffffffffffffffffffffffffffff165f5260205260405f2090565b5460ff1690565b92836110d3575b50505090506110a957005b60046040517fe50a45ce000000000000000000000000000000000000000000000000000000008152fd5b610fdd93506110e19461363a565b805f808061109e565b60046040517ffb868501000000000000000000000000000000000000000000000000000000008152fd5b92919267ffffffffffffffff82116105a3576040519161115c60207fffffffffffffffffffffffffffffffffffffffffffffffffffffffffffffffe0601f84011601846105e1565b8294818452818301116102bd578281602093845f960137010152565b346102bd5760606003193601126102bd576004356111958161029f565b6024356111a1816102c1565b60443567ffffffffffffffff81116102bd57366023820112156102bd576111d2903690602481600401359101611114565b73ffffffffffffffffffffffffffffffffffffffff92837f00000000000000000000000000000000000000000000000000000000000000001633036104f95761125660209185935f6040519788809581947f29e45772000000000000000000000000000000000000000000000000000000008352886004840152602483019061095d565b0393165af19283156112d5575f936112a4575b5082161561127a576108a791614523565b60046040517f228e7291000000000000000000000000000000000000000000000000000000008152fd5b6112c791935060203d6020116112ce575b6112bf81836105e1565b810190613776565b915f611269565b503d6112b5565b61378b565b346102bd575f6003193601126102bd57604051604081019080821067ffffffffffffffff8311176105a357610a0991604052600e81527f46697865645465726d486f6f6b73000000000000000000000000000000000000602082015260405191829160208352602083019061095d565b346102bd576102206003193601126102bd57600480356113698161029f565b61137236610ccd565b906102043567ffffffffffffffff81116102bd57611393903690850161074f565b9190926113c1610fca3373ffffffffffffffffffffffffffffffffffffffff165f52600760205260405f2090565b926113cf610fdd8551151590565b611516576113fe6110288473ffffffffffffffffffffffffffffffffffffffff165f52600160205260405f2090565b916114098351151590565b6114ed5761143361142061018061143b9301612dbb565b6dffffffffffffffffffffffffffff1690565b602435613796565b6fffffffffffffffffffffffffffffffff61146960808701516fffffffffffffffffffffffffffffffff1690565b16116114c45761148061148a9160409685856137f7565b9590940151151590565b83151661149b576108a7945061393b565b846040517fe50a45ce000000000000000000000000000000000000000000000000000000008152fd5b856040517fc24b1b61000000000000000000000000000000000000000000000000000000008152fd5b866040517fe50a45ce000000000000000000000000000000000000000000000000000000008152fd5b856040517fb217907b000000000000000000000000000000000000000000000000000000008152fd5b346102bd5761154d366102fa565b335f52600560205260405f205491821561156a576108a792613ac4565b60046040517fb1cd0903000000000000000000000000000000000000000000000000000000008152fd5b9060206003198301126102bd5760043567ffffffffffffffff928382116102bd57806023830112156102bd5781600401359384116102bd5760248460051b830101116102bd576024019190565b346102bd576115ef36611594565b9073ffffffffffffffffffffffffffffffffffffffff7f00000000000000000000000000000000000000000000000000000000000000001633036104f9575f5b82811061163857005b806116586116496001938686612df2565b356116538161029f565b613035565b0161162f565b346102bd575f6003193601126102bd5760206040517f00000000000000000000000000000000000000000000000000000000000000008152f35b346102bd575f6003193601126102bd57602060405173ffffffffffffffffffffffffffffffffffffffff7f0000000000000000000000000000000000000000000000000000000000000000168152f35b346102bd5760206003193601126102bd576108a76004356117088161029f565b613c77565b346102bd576102006003193601126102bd576101c07fffffffffffffffffffffffffffffffffffffffffffffffffffffffffffffffdc3601126102bd576101e43567ffffffffffffffff81116102bd576108a790369060040161074f565b60209060206040818301928281528551809452019301915f5b828110611792575050505090565b835185529381019392810192600101611784565b346102bd575f6003193601126102bd57604051806004549182815260208091019260045f527f8a35acfbc15ff81a39ae7d344fd709f28e8600b4aa8c65c6b64bfe7fe36bd19b915f905b82821061181357610a0985611807818903826105e1565b6040519182918261176b565b8354865294850194600193840193909101906117f0565b346102bd5760206003193601126102bd576004356118478161029f565b73ffffffffffffffffffffffffffffffffffffffff807f00000000000000000000000000000000000000000000000000000000000000001633036104f9578116805f52600560205260405f205491821561156a5773ffffffffffffffffffffffffffffffffffffffff165f90815260056020908152604080832092909255815162ffffff602886901c811680835260109690961c8116928201839052919391927fd40af841b3d79ec50752ce038e1ee39d243ed894aacf7c3b8f9a87b09ec8fc9791a2821461191a57506108a790613fc0565b6108a79150613e45565b346102bd576102006003193601126102bd5761194160043561029f565b6101c07fffffffffffffffffffffffffffffffffffffffffffffffffffffffffffffffdc3601126102bd576101e43567ffffffffffffffff81116102bd576108a790369060040161074f565b346102bd575f6003193601126102bd57604051806003549182815260208091019260035f527fc2575a0e9e593c00f959f8c92f12db2869c3395a3b0502d05e2516446f71f85b915f905b8282106119ee57610a0985611807818903826105e1565b8354865294850194600193840193909101906119d7565b67ffffffffffffffff81116105a35760051b60200190565b9080601f830112156102bd576020908235611a3781611a05565b93611a4560405195866105e1565b81855260208086019260051b8201019283116102bd57602001905b828210611a6e575050505090565b8380918335611a7c816102c1565b815201910190611a60565b346102bd5760406003193601126102bd5767ffffffffffffffff6004358181116102bd57366023820112156102bd578060040135611ac481611a05565b91611ad260405193846105e1565b8183526020916024602085019160051b830101913683116102bd57602401905b828210611b1b57602435858782116102bd57611b156108a7923690600401611a1d565b90612e25565b8380918335611b298161029f565b815201910190611af2565b346102bd576101e06003193601126102bd57611b4f36610d2d565b506101c43567ffffffffffffffff81116102bd57611b7190369060040161074f565b5050335f90815260076020526040902080549060ff8216156104cf5763ffffffff91828160a01c164210611ba157005b60ff8160d01c16908115611c82575b5015611c5857611c3b61046091611c2e7f8fcb9a8dc61c986e7488a736bc8edc39e7f8b2bea37fdf7aa56cf142c5fe04b794421682907fffffffffffffffff00000000ffffffffffffffffffffffffffffffffffffffff77ffffffff000000000000000000000000000000000000000083549260a01b169116179055565b5460a01c63ffffffff1690565b6040805133815263ffffffff909216602083015290918291820190565b60046040517f9bc5c4d5000000000000000000000000000000000000000000000000000000008152fd5b60ff915060c81c165f611bb0565b346102bd576102606003193601126102bd576004611cae813561029f565b611cb960243561029f565b604435611cc58161029f565b611cce36610d3f565b506102443567ffffffffffffffff81116102bd57611cef903690840161074f565b9091611d1c610fca3373ffffffffffffffffffffffffffffffffffffffff165f52600760205260405f2090565b91611d2a610fdd8451151590565b611e0c5760c0830151611de357611d69610fdd6110903361106d8673ffffffffffffffffffffffffffffffffffffffff165f52600260205260405f2090565b611d6f57005b611d9a6110288373ffffffffffffffffffffffffffffffffffffffff165f52600160205260405f2090565b90611da58251151590565b611dba5761148061148a9160209685856137f7565b856040517fe50a45ce000000000000000000000000000000000000000000000000000000008152fd5b846040517f8574adcf000000000000000000000000000000000000000000000000000000008152fd5b846040517fb217907b000000000000000000000000000000000000000000000000000000008152fd5b815163ffffffff168152610140810192916102dc919060208181015163ffffffff169083015260408181015161ffff169083015260608181015161ffff169083015260808181015161ffff169083015260a08181015161ffff169083015260c08181015163ffffffff169083015260e08181015163ffffffff16908301526101008181015161ffff16908301526101209081015161ffff16910152565b346102bd575f6003193601126102bd57604051611eee816105a8565b5f60408281018290526080830182905260c0830182905261010083018290529082526276a70060208301526127106060830181905260a083018190526301e1338060e084015261012083015251908190610a099082611e35565b73ffffffffffffffffffffffffffffffffffffffff165f52600560205260405f2090565b346102bd5760406003193601126102bd57602060ff611fe0600435611f908161029f565b73ffffffffffffffffffffffffffffffffffffffff60243591611fb28361029f565b165f526002845260405f209073ffffffffffffffffffffffffffffffffffffffff165f5260205260405f2090565b54166040519015158152f35b346102bd5760206003193601126102bd576004356120098161029f565b73ffffffffffffffffffffffffffffffffffffffff807f00000000000000000000000000000000000000000000000000000000000000001633036104f957806120bb6120c092841693845f52600160205263ffffffff60405f209360405194612071866105c5565b54908160081c16602086015260ff8160a81c161515604086015260b01c1660608401525f835273ffffffffffffffffffffffffffffffffffffffff165f52600160205260405f2090565b612ee1565b7f7201a4017f7e2ac3b7164275daef1150d8fc64543b3f7196293722db50bc7fa05f80a2005b346102bd5760206003193601126102bd57610a096004356121068161029f565b61210e61278c565b5073ffffffffffffffffffffffffffffffffffffffff8091165f52600160205263ffffffff60405f209160405192612145846105c5565b549060ff8216151584528160081c16602084015260ff8160a81c161515604084015260b01c16606082015260405191829182919091606063ffffffff81608084019580511515855273ffffffffffffffffffffffffffffffffffffffff6020820151166020860152604081015115156040860152015116910152565b346102bd5760206003193601126102bd5773ffffffffffffffffffffffffffffffffffffffff6004356121f38161029f565b165f526005602052602060405f2054604051908152f35b346102bd575f6003193601126102bd57602060405173ffffffffffffffffffffffffffffffffffffffff7f0000000000000000000000000000000000000000000000000000000000000000168152f35b346102bd576020806003193601126102bd5767ffffffffffffffff6004358181116102bd57366023820112156102bd5761229e903690602481600401359101611114565b9173ffffffffffffffffffffffffffffffffffffffff7f00000000000000000000000000000000000000000000000000000000000000001633036104f95782519182116105a3576122f8826122f35f5461090c565b612fbf565b602090601f831160011461238357509161236a82610460937f9f7688a97f1ac51fe03bac18af18d6810f9f11f0db08c59b1938a9ac825ef744955f91612378575b507fffffffffffffffffffffffffffffffffffffffffffffffffffffffffffffffff8260011b9260031b1c19161790565b5f55604051918291826109a0565b90508301515f612339565b5f8052907fffffffffffffffffffffffffffffffffffffffffffffffffffffffffffffffe083167f290decd9548b62a8d60345a988386fc84ba6bc95484008f6362f93160ef3e563925f905b82821061244d575050927f9f7688a97f1ac51fe03bac18af18d6810f9f11f0db08c59b1938a9ac825ef7449492600192826104609610612416575b5050811b015f556109fd565b8401517fffffffffffffffffffffffffffffffffffffffffffffffffffffffffffffffff60f88460031b161c191690555f8061240a565b80600185968294968a015181550195019301906123cf565b60209060206040818301928281528551809452019301915f5b82811061248c575050505090565b9091929382610120826124a26001948951610dc0565b0195019392910161247e565b346102bd576124bc36611594565b906124c682611a05565b916124d460405193846105e1565b8083527fffffffffffffffffffffffffffffffffffffffffffffffffffffffffffffffe061250182611a05565b015f5b8181106125805750505f5b8181106125245760405180610a098682612465565b80612564610fca61254061253b6001958789612df2565b612e07565b73ffffffffffffffffffffffffffffffffffffffff165f52600760205260405f2090565b61256e8287612e11565b526125798186612e11565b500161250f565b60209061258b612cd7565b82828801015201612504565b346102bd576102206003193601126102bd576004356125b581610523565b6125c0602435610523565b6125c936610ccd565b6102043567ffffffffffffffff81116102bd576125ea90369060040161074f565b5050335f52600760205263ffffffff60405f205460a01c16421080612658575b61262e5761261791614154565b6040805161ffff9384168152919092166020820152f35b60046040517f63e25428000000000000000000000000000000000000000000000000000000008152fd5b5061014081013561266881610523565b61ffff8091169083161061260a565b346102bd5761268536611594565b905f5b82811061269157005b806126ac6126a26001938686612df2565b356117088161029f565b01612688565b346102bd576126c0366102fa565b73ffffffffffffffffffffffffffffffffffffffff7f00000000000000000000000000000000000000000000000000000000000000001633036104f9576108a791614523565b346102bd575f6003193601126102bd5760206040516301e133808152f35b346102bd5760206003193601126102bd5773ffffffffffffffffffffffffffffffffffffffff6004356127568161029f565b165f526006602052606060405f205463ffffffff61ffff916040519280821684528160101c16602084015260201c166040820152f35b60405190612799826105c5565b5f6060838281528260208201528260408201520152565b9063ffffffff169052565b906040516127c8816105c5565b606063ffffffff82945460ff81161515845273ffffffffffffffffffffffffffffffffffffffff8160081c16602085015260ff8160a81c161515604085015260b01c16910152565b9061281961278c565b506128456110288373ffffffffffffffffffffffffffffffffffffffff165f52600160205260405f2090565b917fffffffffffffffffffffffffffffffffffffffffffffffffffffffffffffffff63ffffffff61287d606086015163ffffffff1690565b16612893575b61288d91846132ec565b6102dc57565b6128b7611f48602086015173ffffffffffffffffffffffffffffffffffffffff1690565b54806128e2575b5061288d916128db8560205f918260408201528260608201520152565b9150612883565b6128ec8186613135565b61291f576040850151156128be579050612907828286613180565b61291b5760281c62ffffff1661288d6128be565b5050565b505050565b93909373ffffffffffffffffffffffffffffffffffffffff807f0000000000000000000000000000000000000000000000000000000000000000163303612cad5761296e846147bd565b50807f0000000000000000000000000000000000000000000000000000000000000000169116036104f957602011612c835761012001356129ae826148bf565b9063ffffffff8216428110908115612c6a575b50612c40576040805173ffffffffffffffffffffffffffffffffffffffff8616815263ffffffff8416602082015261031f94612b9b93612b769390927f8fcb9a8dc61c986e7488a736bc8edc39e7f8b2bea37fdf7aa56cf142c5fe04b79190a1600190612ae5612a30826148d2565b612a97612a3b610643565b6001815298605c87901c8616151560208b0152605f87901c8616151560408b0152605e87901c8616151560608b0152612a8a60808b019384906fffffffffffffffffffffffffffffffff169052565b63ffffffff1660a08a0152565b612acf84608060c08b0195612ab483604083013516889015159052565b60608101358316151560e08d015201351615156101008a0152565b516fffffffffffffffffffffffffffffffff1690565b6fffffffffffffffffffffffffffffffff8116612bc8575b505115155b612bb3575b81605e1c16612ba0575b7f00000000000000000000000000000000000000000000000000000000000000006bffff000000000000000000007fffffffffffffffffffffffffffffffffffffffff000000000000000000000000918060101c908460501c161760501b1691161790565b9373ffffffffffffffffffffffffffffffffffffffff165f52600760205260405f2090565b6133a0565b6b90000000000000000000000017612b11565b906b1000000000000000000000001790612b07565b6040805173ffffffffffffffffffffffffffffffffffffffff8b1681526fffffffffffffffffffffffffffffffff9290921660208301526b8000000000000000000000009490941793612b0292917f4e39f53293455dca8fe1725b2dfcbe6abd2f44d777b7f2a7279526e17d7ebede9190a190612afd565b60046040517f90b0b2c3000000000000000000000000000000000000000000000000000000008152fd5b6301e133809150612c7c90429061338e565b115f6129c1565b60046040517ff8fa12c0000000000000000000000000000000000000000000000000000000008152fd5b60046040517fa84178ab000000000000000000000000000000000000000000000000000000008152fd5b60405190612ce482610586565b5f610100838281528260208201528260408201528260608201528260808201528260a08201528260c08201528260e08201520152565b906102dc604051612d2a81610586565b61010081945460ff9081811615158452612d4e828260081c16602086019015159052565b601081901c821615156040850152601881901c821615156060850152602081901c6fffffffffffffffffffffffffffffffff16608085015260a081811c63ffffffff169085015260c081811c831615159085015260c881901c8216151560e085015260d01c161515910152565b3561031f81610729565b7f4e487b71000000000000000000000000000000000000000000000000000000005f52603260045260245ffd5b9190811015612e025760051b0190565b612dc5565b3561031f8161029f565b8051821015612e025760209160051b010190565b9190612e4f3373ffffffffffffffffffffffffffffffffffffffff165f52600560205260405f2090565b5492831561156a578051825103612eb7575f5b8151811015612eb05780612eaa73ffffffffffffffffffffffffffffffffffffffff612e9060019486612e11565b511663ffffffff612ea18488612e11565b51169088613ac4565b01612e62565b5050509050565b60046040517f9d89020a000000000000000000000000000000000000000000000000000000008152fd5b63ffffffff60606102dc93612f2481511515859060ff7fffffffffffffffffffffffffffffffffffffffffffffffffffffffffffffff0083541691151516179055565b60208101518454604083015193909201517fffffffffffff00000000000000000000000000000000000000000000000000ff90921660089190911b74ffffffffffffffffffffffffffffffffffffffff00161791151560a81b75ff0000000000000000000000000000000000000000001691909117911660b01b79ffffffff0000000000000000000000000000000000000000000016179055565b601f8111612fcb575050565b5f80527f290decd9548b62a8d60345a988386fc84ba6bc95484008f6362f93160ef3e563906020601f840160051c83019310613021575b601f0160051c01905b818110613016575050565b5f815560010161300b565b9091508190613002565b3561031f81610523565b6130cd73ffffffffffffffffffffffffffffffffffffffff6120bb81841693845f52600160205263ffffffff60405f209360405194613073866105c5565b549060ff8216151586528160081c16602086015260ff8160a81c161515604086015260b01c168060608501526130f3575b600183525b73ffffffffffffffffffffffffffffffffffffffff165f52600160205260405f2090565b7f25b0d1830e0d487402e2c828de3ccbc9d16bd911aaec75fbba1bffd32657fad45f80a2565b61310b8360205f918260408201528260608201520152565b847f47695aa96e09db0d106b9bd402979d6aff7e51ada06ec6fe014e5eeadd8c1dc05f80a26130a4565b9063ffffffff606061317a930151169060e01c0163ffffffff90817fffffffffffffffffffffffffffffffffffffffffffffffffffffffff0000000182019110020190565b42111590565b909291925f935f9063ccdad14b5f5260205260205f6024601c73ffffffffffffffffffffffffffffffffffffffff8660401c165afa601f3d1116613274575b63ffffffff16918215801561326b575b6132635761320d838360e01c0163ffffffff90817fffffffffffffffffffffffffffffffffffffffffffffffffffffffff0000000182019110020190565b42111561321957505050565b61325e939450919063ffffffff60409216606084015273ffffffffffffffffffffffffffffffffffffffff81831c16602084015262ffffff809160281c161415910152565b600190565b505f93505050565b504283116131cf565b505f5163ffffffff166131bf565b600454811015612e025760045f527f8a35acfbc15ff81a39ae7d344fd709f28e8600b4aa8c65c6b64bfe7fe36bd19b01905f90565b600354811015612e025760035f527fc2575a0e9e593c00f959f8c92f12db2869c3395a3b0502d05e2516446f71f85b01905f90565b9291905f9360038054935f5b85811061330757505050505050565b81811461335957825f5261333f85827fc2575a0e9e593c00f959f8c92f12db2869c3395a3b0502d05e2516446f71f85b015486613180565b61334d576001905b016132f8565b50600196505050505050565b600190613347565b7f4e487b71000000000000000000000000000000000000000000000000000000005f52601160045260245ffd5b9190820391821161339b57565b613361565b6135ee6101006102dc936133e281511515859060ff7fffffffffffffffffffffffffffffffffffffffffffffffffffffffffffffff0083541691151516179055565b60208101518454604083015191151560081b61ff00167fffffffffffffffffffffffffffffffffffffffffffffffffffffffffff0000ff9091161790151560101b62ff00001617845561347061343b6060830151151590565b85547fffffffffffffffffffffffffffffffffffffffffffffffffffffffff00ffffff1690151560181b63ff00000016178555565b6134d561349060808301516fffffffffffffffffffffffffffffffff1690565b85547fffffffffffffffffffffffff00000000000000000000000000000000ffffffff1660209190911b73ffffffffffffffffffffffffffffffff0000000016178555565b6135326134e960a083015163ffffffff1690565b85547fffffffffffffffff00000000ffffffffffffffffffffffffffffffffffffffff1660a09190911b77ffffffff000000000000000000000000000000000000000016178555565b61358c61354260c0830151151590565b85547fffffffffffffff00ffffffffffffffffffffffffffffffffffffffffffffffff1690151560c01b78ff00000000000000000000000000000000000000000000000016178555565b6135e761359c60e0830151151590565b85547fffffffffffff00ffffffffffffffffffffffffffffffffffffffffffffffffff1690151560c81b79ff0000000000000000000000000000000000000000000000000016178555565b0151151590565b81547fffffffffff00ffffffffffffffffffffffffffffffffffffffffffffffffffff1690151560d01b7aff000000000000000000000000000000000000000000000000000016179055565b9392613648919283866137f7565b81819592956136d5575b506136a161367e8473ffffffffffffffffffffffffffffffffffffffff165f52600260205260405f2090565b3373ffffffffffffffffffffffffffffffffffffffff165f5260205260405f2090565b506136aa575050565b6120bb6102dc9273ffffffffffffffffffffffffffffffffffffffff165f52600160205260405f2090565b156137365773ffffffffffffffffffffffffffffffffffffffff806020840151167fa04eb478c9c6a13a6de14b7eb31b1b629511e804c3cfef31bd549accd4b15524602063ffffffff60608701511693604051948552871693a35b5f613652565b73ffffffffffffffffffffffffffffffffffffffff83167f47695aa96e09db0d106b9bd402979d6aff7e51ada06ec6fe014e5eeadd8c1dc05f80a2613730565b908160209103126102bd575161031f8161029f565b6040513d5f823e3d90fd5b817ffffffffffffffffffffffffffffffffffffffffffe6268e1b017bfe18bffffff04811115821517156137e5576b033b2e3c9fd0803ce800000091026b019d971e4fe8401e74000000010490565b634e487b715f5260116020526024601cfd5b90929391935f945f94606084019163ffffffff938484511615155f146139345761383b611f48602088015173ffffffffffffffffffffffffffffffffffffffff1690565b54905b811515928380613924575b61391357906138599185896148f4565b613904577fffffffffffffffffffffffffffffffffffffffffffffffffffffffffffffffff91806138f7575b6138c8575b5061389591856132ec565b6138bc5751166138a25750565b61325e91925060205f918260408201528260608201520152565b50600194508493505050565b90506138d5828287613180565b6138e95760281c62ffffff1661389561388a565b506001965086955050505050565b5060408601511515613885565b50600197508796505050505050565b50600199505f985050505050505050565b5061392f8389613135565b613849565b5f9061383e565b91600190849294613a22575b613978610fdd61109061367e8873ffffffffffffffffffffffffffffffffffffffff165f52600260205260405f2090565b1616613987575b6136aa575050565b6139e16139b63361106d8673ffffffffffffffffffffffffffffffffffffffff165f52600260205260405f2090565b60017fffffffffffffffffffffffffffffffffffffffffffffffffffffffffffffff00825416179055565b73ffffffffffffffffffffffffffffffffffffffff8316337f19c0c79c8d3a2c3300023a426c471dbf37ef4602c3c143fe049cc9e9f989165d5f80a361397f565b8015613a8457602084810151606086015160405163ffffffff909116815273ffffffffffffffffffffffffffffffffffffffff888116939216917fa04eb478c9c6a13a6de14b7eb31b1b629511e804c3cfef31bd549accd4b1552491a3613947565b73ffffffffffffffffffffffffffffffffffffffff85167f47695aa96e09db0d106b9bd402979d6aff7e51ada06ec6fe014e5eeadd8c1dc05f80a2613947565b9190613af16110288273ffffffffffffffffffffffffffffffffffffffff165f52600160205260405f2090565b9263ffffffff613b338185168360e01c0163ffffffff90817fffffffffffffffffffffffffffffffffffffffffffffffffffffffff0000000182019110020190565b90428210613c4d576060860190815116613b53575b50506102dc93614960565b6020860190613b79611f48835173ffffffffffffffffffffffffffffffffffffffff1690565b549081613b88575b5050613b48565b613bfa91613ba9613ba0613bdf935163ffffffff1690565b63ffffffff1690565b9060e01c0163ffffffff90817fffffffffffffffffffffffffffffffffffffffffffffffffffffffff0000000182019110020190565b915173ffffffffffffffffffffffffffffffffffffffff1690565b73ffffffffffffffffffffffffffffffffffffffff16331491111715613c23575f808080613b81565b60046040517fc03faa56000000000000000000000000000000000000000000000000000000008152fd5b60046040517f5a922a2f000000000000000000000000000000000000000000000000000000008152fd5b73ffffffffffffffffffffffffffffffffffffffff9081811691825f52600160205260405f209063ffffffff60405192613cb0846105c5565b549160ff8316151584528260081c169182602085015260ff8160a81c161515604085015260b01c1660608301523303613d28576120bb613d02926130a98360205f918260408201528260608201520152565b7f47695aa96e09db0d106b9bd402979d6aff7e51ada06ec6fe014e5eeadd8c1dc05f80a2565b60046040517f3a364f3d000000000000000000000000000000000000000000000000000000008152fd5b6004548015613db5577fffffffffffffffffffffffffffffffffffffffffffffffffffffffffffffffff81019080821015612e02577f8a35acfbc15ff81a39ae7d344fd709f28e8600b4aa8c65c6b64bfe7fe36bd19a5f91600483520155600455565b7f4e487b71000000000000000000000000000000000000000000000000000000005f52603160045260245ffd5b6003548015613db5577fffffffffffffffffffffffffffffffffffffffffffffffffffffffffffffffff81019080821015612e02577fc2575a0e9e593c00f959f8c92f12db2869c3395a3b0502d05e2516446f71f85a5f91600383520155600355565b6004547fffffffffffffffffffffffffffffffffffffffffffffffffffffffffffffffff810181811161339b578062ffffff841614613fb5576004541115612e02577f8a35acfbc15ff81a39ae7d344fd709f28e8600b4aa8c65c6b64bfe7fe36bd19a7f77f7914b3d5f909ba079a3cfd67cdff25863760515f339affe0f2313d35638629160045f5201547fffffffffffffffffffffffffffffffffffffffffffffffffffffff000000ffff8360101b91161791613f3c83613f0683613282565b9091907fffffffffffffffffffffffffffffffffffffffffffffffffffffffffffffffff83549160031b92831b921b1916179055565b613f44613d52565b73ffffffffffffffffffffffffffffffffffffffff8360401c169280613f888573ffffffffffffffffffffffffffffffffffffffff165f52600560205260405f2090565b556040805160e09290921c825262ffffff602083018190529092169181019190915280606081015b0390a2565b5050506102dc613d52565b6003547fffffffffffffffffffffffffffffffffffffffffffffffffffffffffffffffff810181811161339b578062ffffff8416146140f6576003541115612e02577fc2575a0e9e593c00f959f8c92f12db2869c3395a3b0502d05e2516446f71f85a7f77f7914b3d5f909ba079a3cfd67cdff25863760515f339affe0f2313d35638629160035f5201547fffffffffffffffffffffffffffffffffffffffffffffffff000000ffffffffff8360281b9116179161408183613f06836132b7565b614089613de2565b73ffffffffffffffffffffffffffffffffffffffff8360401c1692806140cd8573ffffffffffffffffffffffffffffffffffffffff165f52600560205260405f2090565b556040805160e09290921c825262ffffff92831660208301528101919091528060608101613fb0565b5050506102dc613de2565b906040516060810181811067ffffffffffffffff8211176105a357604052604063ffffffff82945461ffff80821685528160101c16602085015260201c16910152565b9062127500820180921161339b57565b916101608201906141648261302b565b918461ffff948582169261417784614b00565b6141a76141a23373ffffffffffffffffffffffffffffffffffffffff165f52600660205260405f2090565b614101565b92604084019163ffffffff91826141c2855163ffffffff1690565b16806143c4575b50506141dc613ba0845163ffffffff1690565b6143ae576141f66141f0610140860161302b565b9161302b565b915b898216998a8810614211575b5050505050505050909150565b6142b696979950614323989a61422a918516908b614b6f565b98614237613ba042614144565b95614246865163ffffffff1690565b9283166143315750506040805161ffff85811682528b16602082015263ffffffff8716918101919091526127b093926142ab92509033907f16f9a191ecd86fd97f0ddc3dbed8fdc4d1e0d0644b93db99f8a577f52b0dec4390606090a261ffff168752565b61ffff166020860152565b335f90815260066020908152604091829020835181548584015195909401517fffffffffffffffffffffffffffffffffffffffffffffffff000000000000000090941661ffff919091161760109490941b63ffff0000169390931791901b67ffffffff0000000016179055565b815f80808080808080614204565b61434c91929350610140614345910161302b565b61ffff1690565b11156143a6575b506040805161ffff9283168152918816602083015263ffffffff84169082015233907ff813e17e21ecee3918b028c4e02f15f1fdd045f9f63183b6ab4f42c23c97b32190606090a29063ffffffff169052565b92505f614353565b50835161ffff16602085015161ffff16916141f8565b6143d4614345610140880161302b565b88101590421015166143eb614345885161ffff1690565b8810158117156141c957959650995050505050602092945061031f93505f1461444c57337f145c143a918203cecb36063a1d70980ebb42b5b00490c5510d79c9d7717b77bb5f80a25b335f90815260066020526040812055015161ffff1690565b337f2045c970b5c1a8f9b69dd33e70a1f9d07b9021e408716d5b8daeb83a776ea05f5f80a2614434565b908160209103126102bd575161031f81610650565b600454680100000000000000008110156105a3576001810180600455811015612e025760045f527f8a35acfbc15ff81a39ae7d344fd709f28e8600b4aa8c65c6b64bfe7fe36bd19b0155565b600354680100000000000000008110156105a3576001810180600355811015612e025760035f527fc2575a0e9e593c00f959f8c92f12db2869c3395a3b0502d05e2516446f71f85b0155565b61454b8173ffffffffffffffffffffffffffffffffffffffff165f52600560205260405f2090565b54806146d857506040517f256909f10000000000000000000000000000000000000000000000000000000081529073ffffffffffffffffffffffffffffffffffffffff8116602083600481845afa9283156112d5575f93614683575b507f3c4db27692774915639231cf12808d8ee5f42ca0bd208df85fdcd82e5f2ebe0561465c9394855f1461466d5760035462ffffff169061463562ffffff5b8060101b8460281b178760401b8460e01b1717985f1461465f57614609896144d7565b6040519384938491604091949363ffffffff606085019616845262ffffff809216602085015216910152565b0390a273ffffffffffffffffffffffffffffffffffffffff165f52600560205260405f2090565b55565b6146688961448b565b614609565b60045462ffffff169061463562ffffff926145e6565b61465c93506146ca7f3c4db27692774915639231cf12808d8ee5f42ca0bd208df85fdcd82e5f2ebe059160203d6020116146d1575b6146c281836105e1565b810190614476565b93506145a7565b503d6146b8565b9061465c917bffffffffffffffffffffffffffffffffffffffffffffffffffffffff8460e01b911617927f77f7914b3d5f909ba079a3cfd67cdff25863760515f339affe0f2313d356386262ffffff808660281c16818760101c16918114155f146147ab5761474a87613f06836132b7565b6040805163ffffffff95909516855262ffffff918216602086015291169083015273ffffffffffffffffffffffffffffffffffffffff831691606090a273ffffffffffffffffffffffffffffffffffffffff165f52600560205260405f2090565b6147b887613f0684613282565b61474a565b905f916080810135906147cf82610523565b60a08101356147dd81610523565b60c0820135916147ec836102c1565b61010060e0820135916147fe83610523565b01359161480a836102c1565b612710908161ffff809716116148975785161161486f576301e1338063ffffffff80941611614847576102dc936148419116614b0a565b16614b3c565b7f772de361000000000000000000000000000000000000000000000000000000005f5260045ffd5b7fcfd2223a000000000000000000000000000000000000000000000000000000005f5260045ffd5b7f74e6ce76000000000000000000000000000000000000000000000000000000005f5260045ffd5b3561031f63ffffffff8216809214614d13565b6020013561031f6fffffffffffffffffffffffffffffffff8216809214614d13565b5f9493919290916014810361494457503560601c5f52600560205260405f20549081151580614932575b61492757505050565b61031f939450613180565b5062ffffff808360281c16141561491e565b929091601484116149555750505050565b61031f949550614c1b565b63ffffffff84166060820152604082811c73ffffffffffffffffffffffffffffffffffffffff166020830152602883901c62ffffff90811614159082015292917fa04eb478c9c6a13a6de14b7eb31b1b629511e804c3cfef31bd549accd4b1552491614ae873ffffffffffffffffffffffffffffffffffffffff80931695865f526001602052614a9e606060405f2092614a2881511515859060ff7fffffffffffffffffffffffffffffffffffffffffffffffffffffffffffffff0083541691151516179055565b602081015184547fffffffffffffffffffff000000000000000000000000000000000000000000ff74ffffffffffffffffffffffffffffffffffffffff0075ff0000000000000000000000000000000000000000006040860151151560a81b169360081b16911617178455015163ffffffff1690565b7fffffffffffff00000000ffffffffffffffffffffffffffffffffffffffffffff79ffffffff0000000000000000000000000000000000000000000083549260b01b169116179055565b6040805163ffffffff9590951685521c1691602090a3565b6127101061489757565b61271010614b1457565b7fc7f3bbb9000000000000000000000000000000000000000000000000000000005f5260045ffd5b6276a70010614b4757565b7f21366737000000000000000000000000000000000000000000000000000000005f5260045ffd5b8103919080831161339b5761271092807fffffffffffffffffffffffffffffffffffffffffffffffffffffffffffffffff048411810215820215614c0e57830204916109c48311614bc4575061ffff91501690565b908260011b927f7fffffffffffffffffffffffffffffffffffffffffffffffffffffffffffffff81160361339b5782828161031f9561434595039110020190818103908210020190565b63ad251c275f526004601cfd5b823560601c5f81815260056020526040812090969593919054938415614d0857915f9182601c6050602096839a604051966354560cb288528988015260408088015260147fffffffffffffffffffffffffffffffffffffffffffffffffffffffffffffffec8301918260608a0152016080880137019301915af1614ce0575b8215801561326b576132635761320d838360e01c0163ffffffff90817fffffffffffffffffffffffffffffffffffffffffffffffffffffffff0000000182019110020190565b915060203d10600114614cfb5763ffffffff5f511691614c9a565b63c177c7005f526004601cfd5b505f96505050505050565b156137e55756fea164736f6c6343000819000a3c4db27692774915639231cf12808d8ee5f42ca0bd208df85fdcd82e5f2ebe0577f7914b3d5f909ba079a3cfd67cdff25863760515f339affe0f2313d3563862","linkReferences":{}},"methodIdentifiers":{"MaximumLoanTerm()":"f040ed98","addRoleProvider(address,uint32)":"ea5b13bd","blockFromDeposits(address)":"064ed53b","blockFromDeposits(address[])":"6d1587a6","borrower()":"7df1f1b9","config()":"79502c55","createRoleProvider(address,uint32,bytes)":"36c89214","factory()":"c45a0155","getHookedMarket(address)":"2ccf4667","getHookedMarkets(address[])":"c888fb15","getLenderStatus(address)":"22a4a19f","getParameterConstraints()":"a11ef067","getPreviousLenderStatus(address)":"b037096d","getPullProviders()":"8f8ef419","getPushProviders()":"87927767","getRoleProvider(address)":"bfd269be","grantRole(address,uint32)":"6b2b369b","grantRoles(address[],uint32[])":"9d2a76fe","isKnownLenderOnMarket(address,address)":"a9ff2dbf","name()":"06fdde03","onBorrow(uint256,(bool,uint128,uint128,uint128,uint104,uint104,uint32,bool,uint32,uint16,uint16,uint16,uint112,uint32),bytes)":"b1cfda0d","onCloseMarket((bool,uint128,uint128,uint128,uint104,uint104,uint32,bool,uint32,uint16,uint16,uint16,uint112,uint32),bytes)":"9ecc64e6","onCreateMarket(address,address,(address,string,string,uint128,uint16,uint16,uint32,uint16,uint32,uint256),bytes)":"28fd0307","onDeposit(address,uint256,(bool,uint128,uint128,uint128,uint104,uint104,uint32,bool,uint32,uint16,uint16,uint16,uint112,uint32),bytes)":"5aeb713f","onExecuteWithdrawal(address,uint128,(bool,uint128,uint128,uint128,uint104,uint104,uint32,bool,uint32,uint16,uint16,uint16,uint112,uint32),bytes)":"2970403d","onNukeFromOrbit(address,(bool,uint128,uint128,uint128,uint104,uint104,uint32,bool,uint32,uint16,uint16,uint16,uint112,uint32),bytes)":"8b3ce9b3","onQueueWithdrawal(address,uint32,uint256,(bool,uint128,uint128,uint128,uint104,uint104,uint32,bool,uint32,uint16,uint16,uint16,uint112,uint32),bytes)":"3521cccc","onRepay(uint256,(bool,uint128,uint128,uint128,uint104,uint104,uint32,bool,uint32,uint16,uint16,uint16,uint112,uint32),bytes)":"83d9e1eb","onSetAnnualInterestAndReserveRatioBips(uint16,uint16,(bool,uint128,uint128,uint128,uint104,uint104,uint32,bool,uint32,uint16,uint16,uint16,uint112,uint32),bytes)":"cc452642","onSetMaxTotalSupply(uint256,(bool,uint128,uint128,uint128,uint104,uint104,uint32,bool,uint32,uint16,uint16,uint16,uint112,uint32),bytes)":"849da129","onSetProtocolFeeBips(uint16,(bool,uint128,uint128,uint128,uint104,uint104,uint32,bool,uint32,uint16,uint16,uint16,uint112,uint32),bytes)":"03473d8d","onTransfer(address,address,address,uint256,(bool,uint128,uint128,uint128,uint104,uint104,uint32,bool,uint32,uint16,uint16,uint16,uint112,uint32),bytes)":"a018f90e","removeRoleProvider(address)":"8adfe0f8","revokeRole(address)":"80e52e3f","revokeRoles(address[])":"e5ef8405","setFixedTermEndTime(address,uint32)":"02420e7f","setMinimumDeposit(address,uint128)":"1c4b3694","setName(string)":"c47f0027","temporaryExcessReserveRatio(address)":"feb368e2","unblockFromDeposits(address)":"aa948689","version()":"54fd4d50"},"id":32}