{"abi":[{"type":"constructor","inputs":[{"name":"_archController","type":"address","internalType":"address"},{"name":"_chainalysisSanctionsList","type":"address","internalType":"address"}],"stateMutability":"nonpayable"},{"type":"function","name":"WildcatSanctionsEscrowInitcodeHash","inputs":[],"outputs":[{"name":"","type":"bytes32","internalType":"bytes32"}],"stateMutability":"view"},{"type":"function","name":"archController","inputs":[],"outputs":[{"name":"","type":"address","internalType":"address"}],"stateMutability":"view"},{"type":"function","name":"chainalysisSanctionsList","inputs":[],"outputs":[{"name":"","type":"address","internalType":"address"}],"stateMutability":"view"},{"type":"function","name":"createEscrow","inputs":[{"name":"borrower","type":"address","internalType":"address"},{"name":"account","type":"address","internalType":"address"},{"name":"asset","type":"address","internalType":"address"}],"outputs":[{"name":"escrowContract","type":"address","internalType":"address"}],"stateMutability":"nonpayable"},{"type":"function","name":"getEscrowAddress","inputs":[{"name":"borrower","type":"address","internalType":"address"},{"name":"account","type":"address","internalType":"address"},{"name":"asset","type":"address","internalType":"address"}],"outputs":[{"name":"escrowAddress","type":"address","internalType":"address"}],"stateMutability":"view"},{"type":"function","name":"isFlaggedByChainalysis","inputs":[{"name":"account","type":"address","internalType":"address"}],"outputs":[{"name":"","type":"bool","internalType":"bool"}],"stateMutability":"view"},{"type":"function","name":"isSanctioned","inputs":[{"name":"borrower","type":"address","internalType":"address"},{"name":"account","type":"address","internalType":"address"}],"outputs":[{"name":"","type":"bool","internalType":"bool"}],"stateMutability":"view"},{"type":"function","name":"overrideSanction","inputs":[{"name":"account","type":"address","internalType":"address"}],"outputs":[],"stateMutability":"nonpayable"},{"type":"function","name":"removeSanctionOverride","inputs":[{"name":"account","type":"address","internalType":"address"}],"outputs":[],"stateMutability":"nonpayable"},{"type":"function","name":"sanctionOverrides","inputs":[{"name":"borrower","type":"address","internalType":"address"},{"name":"account","type":"address","internalType":"address"}],"outputs":[{"name":"sanctionOverride","type":"bool","internalType":"bool"}],"stateMutability":"view"},{"type":"function","name":"tmpEscrowParams","inputs":[],"outputs":[{"name":"borrower","type":"address","internalType":"address"},{"name":"account","type":"address","internalType":"address"},{"name":"asset","type":"address","internalType":"address"}],"stateMutability":"view"},{"type":"event","name":"NewSanctionsEscrow","inputs":[{"name":"borrower","type":"address","indexed":true,"internalType":"address"},{"name":"account","type":"address","indexed":true,"internalType":"address"},{"name":"asset","type":"address","indexed":true,"internalType":"address"}],"anonymous":false},{"type":"event","name":"SanctionOverride","inputs":[{"name":"borrower","type":"address","indexed":true,"internalType":"address"},{"name":"account","type":"address","indexed":true,"internalType":"address"}],"anonymous":false},{"type":"event","name":"SanctionOverrideRemoved","inputs":[{"name":"borrower","type":"address","indexed":true,"internalType":"address"},{"name":"account","type":"address","indexed":true,"internalType":"address"}],"anonymous":false}],"bytecode":{"object":"0x60c0346100de57610e1b906001600160401b0390601f38849003908101601f1916820190838211838310176100ca57808391604096879485528339810103126100de576100576020610050836100e2565b92016100e2565b9060a05260805281516060810191818310908311176100ca57829182526001918183809352826020820152015260018060a01b031981815f5416175f558181815416178255600254161760025551610d2490816100f782396080518181816102b6015261053e015260a051816102fa0152f35b634e487b7160e01b5f52604160045260245ffd5b5f80fd5b51906001600160a01b03821682036100de5756fe60806040526004361015610011575f80fd5b5f3560e01c806306e74444146100c45780631cdf58b0146100bf578063380c3431146100ba578063490a8653146100b55780634973203d146100b057806354635570146100ab578063681909a0146100a657806395c09839146100a1578063a1054f6b1461009c578063b1d62668146100975763b8b4536114610092575f80fd5b6104a1565b6103e5565b6103cc565b61039f565b610329565b6102e5565b6102a1565b61022e565b6101d2565b6101a7565b6100f9565b600435906001600160a01b03821682036100df57565b5f80fd5b602435906001600160a01b03821682036100df57565b346100df5760403660031901126100df5760206101146100c9565b61011c6100e3565b6001600160a01b039182165f9081526003845260408082209383168252602093909352919091205460ff1615908161015a575b506040519015158152f35b6101649150610514565b5f61014f565b60609060031901126100df576001600160a01b0360043581811681036100df579160243582811681036100df579160443590811681036100df5790565b346100df5760206101c06101ba3661016a565b916104c3565b6040516001600160a01b039091168152f35b346100df5760403660031901126100df57602060ff6102226101f26100c9565b6101fa6100e3565b6001600160a01b039182165f9081526003865260408082209290931681526020919091522090565b54166040519015158152f35b346100df5760203660031901126100df576102476100c9565b335f9081526003602090815260408083206001600160a01b03851684529091529020805460ff191690556001600160a01b0316337f23bb3a3ab36fcdc5884abde2529508c7edd18ebea79d7213cd6632c71086216e5f80a3005b346100df575f3660031901126100df576040517f00000000000000000000000000000000000000000000000000000000000000006001600160a01b03168152602090f35b346100df575f3660031901126100df576040517f00000000000000000000000000000000000000000000000000000000000000006001600160a01b03168152602090f35b346100df5760203660031901126100df576103426100c9565b335f9081526003602090815260408083206001600160a01b03851684529091529020805460ff191660011790556001600160a01b0316337ff7314dc6493fd11dd1939dc062aeea73f1c783016ddb31776a402712098e5db55f80a3005b346100df5760203660031901126100df5760206103c26103bd6100c9565b610514565b6040519015158152f35b346100df5760206101c06103df3661016a565b916105ae565b346100df575f3660031901126100df57606060018060a01b03805f541690806001541690600254169060405192835260208301526040820152f35b634e487b7160e01b5f52604160045260245ffd5b90601f8019910116810190811067ffffffffffffffff82111761045657604052565b610420565b604051906060820182811067ffffffffffffffff82111761045657604052565b6105aa60405161048e6020830182610434565b818152602081019161076e833951902090565b346100df575f3660031901126100df5760206104bb61047b565b604051908152f35b604080515f928352602093909352928352606090209152906104e361047b565b604051923060ff60a01b175f5260205260405260018060a01b036055600b201691604052565b6040513d5f823e3d90fd5b60405163df592f7d60e01b81526001600160a01b03918216600482015290602090829060249082907f0000000000000000000000000000000000000000000000000000000000000000165afa9081156105a9575f91610571575090565b90506020813d6020116105a1575b8161058c60209383610434565b810103126100df575180151581036100df5790565b3d915061057f565b610509565b9291906105bc8282866104c3565b93843b61070e5761061f6105ce61045b565b6001600160a01b038381168083528582166020840181905291871660409093018390525f80546001600160a01b03199081169092179055600180548216909217909155600280549091169091179055565b604080515f83815260208590528583526060902091526040516105aa80820182811067ffffffffffffffff82111761045657829161076e833903905ff5156105a9576106d0856106bb6106dd9360018060a01b0395868080841699169116887f23e05aa548aba14c84d0a45e65bab80c7409d1a00129f53cfdf85bed0b5fbb255f80a46001600160a01b03165f90815260036020526040902090565b9060018060a01b03165f5260205260405f2090565b805460ff19166001179055565b8316907ff7314dc6493fd11dd1939dc062aeea73f1c783016ddb31776a402712098e5db55f80a361070c610713565b565b505050565b604051606081019080821067ffffffffffffffff831117610456576040918252600191818380935282602082015201526bffffffffffffffffffffffff60a01b81815f5416175f558181815416178255600254161760025556fe61010080604052346100ff573360805263163ac4cd60e31b8152606081600481335afa90811561011e575f915f915f9161009a575b5060e05260c05260a05260405161046c908161013e8239608051818181607a0152610362015260a0518181816101090152610308015260c0518181816101600152818161023b0152610330015260e0518181816101820152818161028701526103f50152f35b9250505060603d606011610117575b601f8101601f191682016001600160401b03811183821017610103576060918391604052810103126100ff576100de81610129565b6100f660406100ef60208501610129565b9301610129565b9091905f610034565b5f80fd5b634e487b7160e01b5f52604160045260245ffd5b503d6100a9565b6040513d5f823e3d90fd5b51906001600160a01b03821682036100ff5756fe6040608081526004361015610012575f80fd5b5f3560e01c80633d02b19c1461026a5780635dab242014610227578063757a5543146101385780637df1f1b9146100f5578063a4972b47146100d0578063b69ef8a8146100ad5763f58c251c14610067575f80fd5b346100a9575f3660031901126100a957517f00000000000000000000000000000000000000000000000000000000000000006001600160a01b03168152602090f35b5f80fd5b50346100a9575f3660031901126100a9576020906100c96103da565b9051908152f35b50346100a9575f3660031901126100a9576020906100ec6102f1565b90519015158152f35b50346100a9575f3660031901126100a957517f00000000000000000000000000000000000000000000000000000000000000006001600160a01b03168152602090f35b50346100a9575f3660031901126100a9576101516102f1565b156102185761015e6103da565b7f0000000000000000000000000000000000000000000000000000000000000000917f000000000000000000000000000000000000000000000000000000000000000090836014528260345263a9059cbb60601b5f5260205f6044601082865af13d1560015f511417161561020b575f603452519182526001600160a01b039081169216907fddb6c73499c01e62ac80461b3609b0aa26779cb2da76ed6eff1f3e11ebae234890602090a3005b6390b8ec185f526004601cfd5b516268221d60e41b8152600490fd5b50346100a9575f3660031901126100a957517f00000000000000000000000000000000000000000000000000000000000000006001600160a01b03168152602090f35b50346100a9575f3660031901126100a9576102836103da565b81517f00000000000000000000000000000000000000000000000000000000000000006001600160a01b031681526020810191909152f35b90601f8019910116810190811067ffffffffffffffff8211176102dd57604052565b634e487b7160e01b5f52604160045260245ffd5b6040516301b9d11160e21b81526001600160a01b037f0000000000000000000000000000000000000000000000000000000000000000811660048301527f000000000000000000000000000000000000000000000000000000000000000081166024830152602090829060449082907f0000000000000000000000000000000000000000000000000000000000000000165afa9081156103cf575f9161039657501590565b90506020813d6020116103c7575b816103b1602093836102bb565b810103126100a9575180151581036100a9571590565b3d91506103a4565b6040513d5f823e3d90fd5b6040516370a0823160e01b81523060048201526020816024817f00000000000000000000000000000000000000000000000000000000000000006001600160a01b03165afa9081156103cf575f91610430575090565b90506020813d602011610457575b8161044b602093836102bb565b810103126100a9575190565b3d915061043e56fea164736f6c6343000819000aa164736f6c6343000819000a","linkReferences":{}},"methodIdentifiers":{"WildcatSanctionsEscrowInitcodeHash()":"b8b45361","archController()":"54635570","chainalysisSanctionsList()":"4973203d","createEscrow(address,address,address)":"a1054f6b","getEscrowAddress(address,address,address)":"1cdf58b0","isFlaggedByChainalysis(address)":"95c09839","isSanctioned(address,address)":"06e74444","overrideSanction(address)":"681909a0","removeSanctionOverride(address)":"490a8653","sanctionOverrides(address,address)":"380c3431","tmpEscrowParams()":"b1d62668"},"id":52}