{"abi":[{"type":"constructor","inputs":[{"name":"archController_","type":"address","internalType":"address"},{"name":"_sanctionsSentinel","type":"address","internalType":"address"},{"name":"_marketInitCodeStorage","type":"address","internalType":"address"},{"name":"_marketInitCodeHash","type":"uint256","internalType":"uint256"}],"stateMutability":"nonpayable"},{"type":"function","name":"addHooksTemplate","inputs":[{"name":"hooksTemplate","type":"address","internalType":"address"},{"name":"name","type":"string","internalType":"string"},{"name":"feeRecipient","type":"address","internalType":"address"},{"name":"originationFeeAsset","type":"address","internalType":"address"},{"name":"originationFeeAmount","type":"uint80","internalType":"uint80"},{"name":"protocolFeeBips","type":"uint16","internalType":"uint16"}],"outputs":[],"stateMutability":"nonpayable"},{"type":"function","name":"archController","inputs":[],"outputs":[{"name":"","type":"address","internalType":"address"}],"stateMutability":"view"},{"type":"function","name":"changeSphereXEngine","inputs":[{"name":"newSphereXEngine","type":"address","internalType":"address"}],"outputs":[],"stateMutability":"nonpayable"},{"type":"function","name":"computeMarketAddress","inputs":[{"name":"salt","type":"bytes32","internalType":"bytes32"}],"outputs":[{"name":"","type":"address","internalType":"address"}],"stateMutability":"view"},{"type":"function","name":"deployHooksInstance","inputs":[{"name":"hooksTemplate","type":"address","internalType":"address"},{"name":"constructorArgs","type":"bytes","internalType":"bytes"}],"outputs":[{"name":"hooksInstance","type":"address","internalType":"address"}],"stateMutability":"nonpayable"},{"type":"function","name":"deployMarket","inputs":[{"name":"parameters","type":"tuple","internalType":"struct DeployMarketInputs","components":[{"name":"asset","type":"address","internalType":"address"},{"name":"namePrefix","type":"string","internalType":"string"},{"name":"symbolPrefix","type":"string","internalType":"string"},{"name":"maxTotalSupply","type":"uint128","internalType":"uint128"},{"name":"annualInterestBips","type":"uint16","internalType":"uint16"},{"name":"delinquencyFeeBips","type":"uint16","internalType":"uint16"},{"name":"withdrawalBatchDuration","type":"uint32","internalType":"uint32"},{"name":"reserveRatioBips","type":"uint16","internalType":"uint16"},{"name":"delinquencyGracePeriod","type":"uint32","internalType":"uint32"},{"name":"hooks","type":"uint256","internalType":"HooksConfig"}]},{"name":"hooksData","type":"bytes","internalType":"bytes"},{"name":"salt","type":"bytes32","internalType":"bytes32"},{"name":"originationFeeAsset","type":"address","internalType":"address"},{"name":"originationFeeAmount","type":"uint256","internalType":"uint256"}],"outputs":[{"name":"market","type":"address","internalType":"address"}],"stateMutability":"nonpayable"},{"type":"function","name":"deployMarketAndHooks","inputs":[{"name":"hooksTemplate","type":"address","internalType":"address"},{"name":"hooksTemplateArgs","type":"bytes","internalType":"bytes"},{"name":"parameters","type":"tuple","internalType":"struct DeployMarketInputs","components":[{"name":"asset","type":"address","internalType":"address"},{"name":"namePrefix","type":"string","internalType":"string"},{"name":"symbolPrefix","type":"string","internalType":"string"},{"name":"maxTotalSupply","type":"uint128","internalType":"uint128"},{"name":"annualInterestBips","type":"uint16","internalType":"uint16"},{"name":"delinquencyFeeBips","type":"uint16","internalType":"uint16"},{"name":"withdrawalBatchDuration","type":"uint32","internalType":"uint32"},{"name":"reserveRatioBips","type":"uint16","internalType":"uint16"},{"name":"delinquencyGracePeriod","type":"uint32","internalType":"uint32"},{"name":"hooks","type":"uint256","internalType":"HooksConfig"}]},{"name":"hooksData","type":"bytes","internalType":"bytes"},{"name":"salt","type":"bytes32","internalType":"bytes32"},{"name":"originationFeeAsset","type":"address","internalType":"address"},{"name":"originationFeeAmount","type":"uint256","internalType":"uint256"}],"outputs":[{"name":"market","type":"address","internalType":"address"},{"name":"hooksInstance","type":"address","internalType":"address"}],"stateMutability":"nonpayable"},{"type":"function","name":"disableHooksTemplate","inputs":[{"name":"hooksTemplate","type":"address","internalType":"address"}],"outputs":[],"stateMutability":"nonpayable"},{"type":"function","name":"getHooksInstancesCountForBorrower","inputs":[{"name":"borrower","type":"address","internalType":"address"}],"outputs":[{"name":"","type":"uint256","internalType":"uint256"}],"stateMutability":"view"},{"type":"function","name":"getHooksInstancesForBorrower","inputs":[{"name":"borrower","type":"address","internalType":"address"}],"outputs":[{"name":"","type":"address[]","internalType":"address[]"}],"stateMutability":"view"},{"type":"function","name":"getHooksTemplateDetails","inputs":[{"name":"hooksTemplate","type":"address","internalType":"address"}],"outputs":[{"name":"","type":"tuple","internalType":"struct HooksTemplate","components":[{"name":"originationFeeAsset","type":"address","internalType":"address"},{"name":"originationFeeAmount","type":"uint80","internalType":"uint80"},{"name":"protocolFeeBips","type":"uint16","internalType":"uint16"},{"name":"exists","type":"bool","internalType":"bool"},{"name":"enabled","type":"bool","internalType":"bool"},{"name":"index","type":"uint24","internalType":"uint24"},{"name":"feeRecipient","type":"address","internalType":"address"},{"name":"name","type":"string","internalType":"string"}]}],"stateMutability":"view"},{"type":"function","name":"getHooksTemplateForInstance","inputs":[{"name":"hooksInstance","type":"address","internalType":"address"}],"outputs":[{"name":"hooksTemplate","type":"address","internalType":"address"}],"stateMutability":"view"},{"type":"function","name":"getHooksTemplates","inputs":[],"outputs":[{"name":"","type":"address[]","internalType":"address[]"}],"stateMutability":"view"},{"type":"function","name":"getHooksTemplates","inputs":[{"name":"start","type":"uint256","internalType":"uint256"},{"name":"end","type":"uint256","internalType":"uint256"}],"outputs":[{"name":"arr","type":"address[]","internalType":"address[]"}],"stateMutability":"view"},{"type":"function","name":"getHooksTemplatesCount","inputs":[],"outputs":[{"name":"","type":"uint256","internalType":"uint256"}],"stateMutability":"view"},{"type":"function","name":"getMarketParameters","inputs":[],"outputs":[{"name":"parameters","type":"tuple","internalType":"struct MarketParameters","components":[{"name":"asset","type":"address","internalType":"address"},{"name":"decimals","type":"uint8","internalType":"uint8"},{"name":"packedNameWord0","type":"bytes32","internalType":"bytes32"},{"name":"packedNameWord1","type":"bytes32","internalType":"bytes32"},{"name":"packedSymbolWord0","type":"bytes32","internalType":"bytes32"},{"name":"packedSymbolWord1","type":"bytes32","internalType":"bytes32"},{"name":"borrower","type":"address","internalType":"address"},{"name":"feeRecipient","type":"address","internalType":"address"},{"name":"sentinel","type":"address","internalType":"address"},{"name":"maxTotalSupply","type":"uint128","internalType":"uint128"},{"name":"protocolFeeBips","type":"uint16","internalType":"uint16"},{"name":"annualInterestBips","type":"uint16","internalType":"uint16"},{"name":"delinquencyFeeBips","type":"uint16","internalType":"uint16"},{"name":"withdrawalBatchDuration","type":"uint32","internalType":"uint32"},{"name":"reserveRatioBips","type":"uint16","internalType":"uint16"},{"name":"delinquencyGracePeriod","type":"uint32","internalType":"uint32"},{"name":"archController","type":"address","internalType":"address"},{"name":"sphereXEngine","type":"address","internalType":"address"},{"name":"hooks","type":"uint256","internalType":"HooksConfig"}]}],"stateMutability":"view"},{"type":"function","name":"getMarketsForHooksInstance","inputs":[{"name":"hooksInstance","type":"address","internalType":"address"}],"outputs":[{"name":"","type":"address[]","internalType":"address[]"}],"stateMutability":"view"},{"type":"function","name":"getMarketsForHooksInstance","inputs":[{"name":"hooksInstance","type":"address","internalType":"address"},{"name":"start","type":"uint256","internalType":"uint256"},{"name":"end","type":"uint256","internalType":"uint256"}],"outputs":[{"name":"arr","type":"address[]","internalType":"address[]"}],"stateMutability":"view"},{"type":"function","name":"getMarketsForHooksInstanceCount","inputs":[{"name":"hooksInstance","type":"address","internalType":"address"}],"outputs":[{"name":"","type":"uint256","internalType":"uint256"}],"stateMutability":"view"},{"type":"function","name":"getMarketsForHooksTemplate","inputs":[{"name":"hooksTemplate","type":"address","internalType":"address"}],"outputs":[{"name":"","type":"address[]","internalType":"address[]"}],"stateMutability":"view"},{"type":"function","name":"getMarketsForHooksTemplate","inputs":[{"name":"hooksTemplate","type":"address","internalType":"address"},{"name":"start","type":"uint256","internalType":"uint256"},{"name":"end","type":"uint256","internalType":"uint256"}],"outputs":[{"name":"arr","type":"address[]","internalType":"address[]"}],"stateMutability":"view"},{"type":"function","name":"getMarketsForHooksTemplateCount","inputs":[{"name":"hooksTemplate","type":"address","internalType":"address"}],"outputs":[{"name":"","type":"uint256","internalType":"uint256"}],"stateMutability":"view"},{"type":"function","name":"isHooksInstance","inputs":[{"name":"hooksInstance","type":"address","internalType":"address"}],"outputs":[{"name":"","type":"bool","internalType":"bool"}],"stateMutability":"view"},{"type":"function","name":"isHooksTemplate","inputs":[{"name":"hooksTemplate","type":"address","internalType":"address"}],"outputs":[{"name":"","type":"bool","internalType":"bool"}],"stateMutability":"view"},{"type":"function","name":"marketInitCodeHash","inputs":[],"outputs":[{"name":"","type":"uint256","internalType":"uint256"}],"stateMutability":"view"},{"type":"function","name":"marketInitCodeStorage","inputs":[],"outputs":[{"name":"","type":"address","internalType":"address"}],"stateMutability":"view"},{"type":"function","name":"name","inputs":[],"outputs":[{"name":"","type":"string","internalType":"string"}],"stateMutability":"pure"},{"type":"function","name":"pushProtocolFeeBipsUpdates","inputs":[{"name":"hooksTemplate","type":"address","internalType":"address"}],"outputs":[],"stateMutability":"nonpayable"},{"type":"function","name":"pushProtocolFeeBipsUpdates","inputs":[{"name":"hooksTemplate","type":"address","internalType":"address"},{"name":"marketStartIndex","type":"uint256","internalType":"uint256"},{"name":"marketEndIndex","type":"uint256","internalType":"uint256"}],"outputs":[],"stateMutability":"nonpayable"},{"type":"function","name":"registerWithArchController","inputs":[],"outputs":[],"stateMutability":"nonpayable"},{"type":"function","name":"sanctionsSentinel","inputs":[],"outputs":[{"name":"","type":"address","internalType":"address"}],"stateMutability":"view"},{"type":"function","name":"sphereXEngine","inputs":[],"outputs":[{"name":"","type":"address","internalType":"address"}],"stateMutability":"view"},{"type":"function","name":"sphereXOperator","inputs":[],"outputs":[{"name":"","type":"address","internalType":"address"}],"stateMutability":"view"},{"type":"function","name":"updateHooksTemplateFees","inputs":[{"name":"hooksTemplate","type":"address","internalType":"address"},{"name":"feeRecipient","type":"address","internalType":"address"},{"name":"originationFeeAsset","type":"address","internalType":"address"},{"name":"originationFeeAmount","type":"uint80","internalType":"uint80"},{"name":"protocolFeeBips","type":"uint16","internalType":"uint16"}],"outputs":[],"stateMutability":"nonpayable"},{"type":"event","name":"ChangedSpherexEngineAddress","inputs":[{"name":"oldEngineAddress","type":"address","indexed":false,"internalType":"address"},{"name":"newEngineAddress","type":"address","indexed":false,"internalType":"address"}],"anonymous":false},{"type":"event","name":"ChangedSpherexOperator","inputs":[{"name":"oldSphereXAdmin","type":"address","indexed":false,"internalType":"address"},{"name":"newSphereXAdmin","type":"address","indexed":false,"internalType":"address"}],"anonymous":false},{"type":"event","name":"HooksInstanceDeployed","inputs":[{"name":"hooksInstance","type":"address","indexed":false,"internalType":"address"},{"name":"hooksTemplate","type":"address","indexed":false,"internalType":"address"}],"anonymous":false},{"type":"event","name":"HooksTemplateAdded","inputs":[{"name":"hooksTemplate","type":"address","indexed":false,"internalType":"address"},{"name":"name","type":"string","indexed":false,"internalType":"string"},{"name":"feeRecipient","type":"address","indexed":false,"internalType":"address"},{"name":"originationFeeAsset","type":"address","indexed":false,"internalType":"address"},{"name":"originationFeeAmount","type":"uint80","indexed":false,"internalType":"uint80"},{"name":"protocolFeeBips","type":"uint16","indexed":false,"internalType":"uint16"}],"anonymous":false},{"type":"event","name":"HooksTemplateDisabled","inputs":[{"name":"hooksTemplate","type":"address","indexed":false,"internalType":"address"}],"anonymous":false},{"type":"event","name":"HooksTemplateFeesUpdated","inputs":[{"name":"hooksTemplate","type":"address","indexed":false,"internalType":"address"},{"name":"feeRecipient","type":"address","indexed":false,"internalType":"address"},{"name":"originationFeeAsset","type":"address","indexed":false,"internalType":"address"},{"name":"originationFeeAmount","type":"uint80","indexed":false,"internalType":"uint80"},{"name":"protocolFeeBips","type":"uint16","indexed":false,"internalType":"uint16"}],"anonymous":false},{"type":"event","name":"MarketDeployed","inputs":[{"name":"hooksTemplate","type":"address","indexed":true,"internalType":"address"},{"name":"market","type":"address","indexed":true,"internalType":"address"},{"name":"name","type":"string","indexed":false,"internalType":"string"},{"name":"symbol","type":"string","indexed":false,"internalType":"string"},{"name":"asset","type":"address","indexed":false,"internalType":"address"},{"name":"maxTotalSupply","type":"uint256","indexed":false,"internalType":"uint256"},{"name":"annualInterestBips","type":"uint256","indexed":false,"internalType":"uint256"},{"name":"delinquencyFeeBips","type":"uint256","indexed":false,"internalType":"uint256"},{"name":"withdrawalBatchDuration","type":"uint256","indexed":false,"internalType":"uint256"},{"name":"reserveRatioBips","type":"uint256","indexed":false,"internalType":"uint256"},{"name":"delinquencyGracePeriod","type":"uint256","indexed":false,"internalType":"uint256"},{"name":"hooks","type":"uint256","indexed":false,"internalType":"HooksConfig"}],"anonymous":false},{"type":"error","name":"AssetBlacklisted","inputs":[]},{"type":"error","name":"CallerNotArchControllerOwner","inputs":[]},{"type":"error","name":"DeploymentFailed","inputs":[]},{"type":"error","name":"FeeMismatch","inputs":[]},{"type":"error","name":"HooksInstanceAlreadyExists","inputs":[]},{"type":"error","name":"HooksInstanceNotFound","inputs":[]},{"type":"error","name":"HooksTemplateAlreadyExists","inputs":[]},{"type":"error","name":"HooksTemplateNotAvailable","inputs":[]},{"type":"error","name":"HooksTemplateNotFound","inputs":[]},{"type":"error","name":"InvalidFeeConfiguration","inputs":[]},{"type":"error","name":"MarketAlreadyExists","inputs":[]},{"type":"error","name":"NameOrSymbolTooLong","inputs":[]},{"type":"error","name":"NoReentrantCalls","inputs":[]},{"type":"error","name":"NotApprovedBorrower","inputs":[]},{"type":"error","name":"SaltDoesNotContainSender","inputs":[]},{"type":"error","name":"SetProtocolFeeBipsFailed","inputs":[]},{"type":"error","name":"SphereXOperatorRequired","inputs":[]}],"bytecode":{"object":"0x61012080604052346101015760809061446c9081380391829161002183610105565b39126101015761004d61003261013e565b61003a610155565b61004261016c565b9061018051926101a2565b60405161419e90816102ce82396080518181816105b301528181610d8001528181610f3a015281816110bf01528181611170015281816113f1015281816114b2015281816119cb0152818161299f01528181612b0101528181613396015281816137a0015261382a015260a0518181816118de015261347a015260c051818181610e4b0152613764015260e0518181816118a40152818161190901526134580152610100518181816104cc0152610fdc0152f35b5f80fd5b601f01601f1916610120908101906001600160401b0382119082101761012a57604052565b634e487b7160e01b5f52604160045260245ffd5b61012051906001600160a01b038216820361010157565b61014051906001600160a01b038216820361010157565b61016051906001600160a01b038216820361010157565b9081602091031261010157516001600160a01b03811681036101015790565b9060049360209360ff60a01b301760a05260c05260e052816080526101005260405192838092631e1188b360e11b825260018060a01b03165afa801561023f575f906101f5575b6101f3915061024a565b565b506020903d602011610237575b601f8201601f19168101906001600160401b0382118183101761012a576101f39261023292604052810190610183565b6101e9565b3d9150610202565b6040513d5f823e3d90fd5b60018060a01b03608051165f80526020527f2ac55ae7ba47db34b5334622acafeb34a65daf143b47019273185d64c73a35a560405fa1807f1777adabd324f814e2b0e28f6edf876dce01d7d66358c9acfe87b1b5f38338d5556020527ff33499cccaa0611882086224cc48cd82ef54b66a4d2edf4ed67108dd516896d560405fa156fe60806040526004361015610011575f80fd5b5f3560e01c806304032dbb1461022f57806306fdde031461022a578063155733ef146102255780631caab59d146102205780632812d2de1461021b5780632b07f2801461021657806333ee81f2146102115780633476b76d1461020c578063356dd352146102075780633c231166146102025780633fd83e1e146101fd57806341f259b8146101f85780634272711d146101f35780634bd1acf3146101ee5780634c6c848f146101e9578063546355701461019957806362ef8119146101e45780636e50f960146101df5780637a749060146101da5780639c5cd31a146101d55780639f2f94b3146101d0578063ad78e45a146101cb578063aeefe08c146101c6578063c29a7677146101c1578063cd01e52a146101bc578063cdbb8374146101b7578063d14a5402146101b2578063d19bd571146101ad578063d1a0745c146101a8578063d9d58025146101a3578063e7ca86e31461019e578063e7e5db4f14610199578063eae6ff66146101945763fe604ec71461018f575f80fd5b611d64565b611cd7565b611144565b611c65565b611c49565b611c00565b611bb3565b611b6a565b611aab565b61194f565b6118c7565b61188d565b6117d9565b611451565b611362565b6112ab565b611220565b611194565b61108b565b611000565b610fb0565b610f12565b610ec1565b610e6f565b610e1f565b610cd0565b610b4b565b610add565b6109c4565b61087e565b6106de565b610674565b6103c9565b5f91031261023e57565b5f80fd5b815173ffffffffffffffffffffffffffffffffffffffff1681526102608101929160208181015160ff169083015260408101516040830152606081015160608301526080810151608083015260a081015160a08301526102bf60c082015160c084019073ffffffffffffffffffffffffffffffffffffffff169052565b60e08181015173ffffffffffffffffffffffffffffffffffffffff16908301526101008181015173ffffffffffffffffffffffffffffffffffffffff1690830152610120818101516fffffffffffffffffffffffffffffffff16908301526101408181015161ffff16908301526101608181015161ffff16908301526101808181015161ffff16908301526101a08181015163ffffffff16908301526101c08181015161ffff16908301526101e08181015163ffffffff16908301526102008181015173ffffffffffffffffffffffffffffffffffffffff16908301526102208181015173ffffffffffffffffffffffffffffffffffffffff169083015261024080910151910152565b3461023e575f60031936011261023e576103e1611dad565b6103e9612d5a565b602081015173ffffffffffffffffffffffffffffffffffffffff1682526101408082015160408401526101608083015160608501526101808084015160808601526101a08085015160a08701526101c0808601519093929060ff1660ff166020880152855173ffffffffffffffffffffffffffffffffffffffff1673ffffffffffffffffffffffffffffffffffffffff1660c0880152604086015173ffffffffffffffffffffffffffffffffffffffff1673ffffffffffffffffffffffffffffffffffffffff1660e088015273ffffffffffffffffffffffffffffffffffffffff7f000000000000000000000000000000000000000000000000000000000000000016610100888101919091529260808701516fffffffffffffffffffffffffffffffff166fffffffffffffffffffffffffffffffff166101208981019190915295606088015161ffff1661ffff169089015260a087015161ffff1661ffff169088015260c086015161ffff1661ffff169087015260e085015163ffffffff1663ffffffff169086015283015161ffff1661ffff169084015281015163ffffffff1663ffffffff166101e0838101919091529073ffffffffffffffffffffffffffffffffffffffff7f0000000000000000000000000000000000000000000000000000000000000000166102008401527f1777adabd324f814e2b0e28f6edf876dce01d7d66358c9acfe87b1b5f38338d55473ffffffffffffffffffffffffffffffffffffffff16610220840152015161024082015260405161062d819282610242565b0390f35b907fffffffffffffffffffffffffffffffffffffffffffffffffffffffffffffffe0601f602080948051918291828752018686015e5f8582860101520116010190565b3461023e575f60031936011261023e57731357696c64636174486f6f6b73466163746f72796053526020805260606020f35b73ffffffffffffffffffffffffffffffffffffffff81160361023e57565b60a435906106d1826106a6565b565b35906106d1826106a6565b3461023e57602060031936011261023e57600480356106fc816106a6565b610704612de0565b61073461072f8273ffffffffffffffffffffffffffffffffffffffff165f52600460205260405f2090565b611f42565b906107496107456060840151151590565b1590565b610803576107759073ffffffffffffffffffffffffffffffffffffffff165f52600260205260405f2090565b6107866040825493015161ffff1690565b90604051916040830160405263ae6ea19183526020830152601c8092015f5b8481106107b6576107b4612dfe565b005b5f80602484826107e96107c9878a612026565b905473ffffffffffffffffffffffffffffffffffffffff9160031b1c1690565b5af1156107f8576001016107a5565b8584634484a4a95f52fd5b60046040517f8cb2227e000000000000000000000000000000000000000000000000000000008152fd5b60209060206040818301928281528551809452019301915f5b828110610854575050505090565b835173ffffffffffffffffffffffffffffffffffffffff1685529381019392810192600101610846565b3461023e5760208060031936011261023e5760043561089c816106a6565b73ffffffffffffffffffffffffffffffffffffffff8091165f52600260205260405f20916040518092602085549283815201945f5260205f20925f915b8383106108fc5761062d866108f0818a0382611592565b6040519182918261082d565b84548116875295810195600194850194909201916108d9565b61012060e06109c1936020845273ffffffffffffffffffffffffffffffffffffffff815116602085015269ffffffffffffffffffff602082015116604085015261096a6040820151606086019061ffff169052565b6060810151151560808501526080810151151560a085015260a081015162ffffff1660c085015260c081015173ffffffffffffffffffffffffffffffffffffffff1684830152015191610100808201520190610631565b90565b3461023e57602060031936011261023e5761062d6004356109e4816106a6565b6040606060e082516109f58161153f565b5f81525f60208201525f848201525f838201525f60808201525f60a08201525f60c0820152015273ffffffffffffffffffffffffffffffffffffffff8092165f526004602052610ace6002825f20610ac8845195610a528761153f565b8254818116885269ffffffffffffffffffff60a082901c16602089015260f01c868801525b600183015460ff811615156060890152600881901c60ff1615156080890152601081901c62ffffff1660a089015260281c1660c087019073ffffffffffffffffffffffffffffffffffffffff169052565b01611e83565b60e08301525191829182610915565b3461023e57602060031936011261023e576020600435610afc816106a6565b73ffffffffffffffffffffffffffffffffffffffff8091165f526005825260405f205416604051908152f35b600319606091011261023e57600435610b40816106a6565b906024359060443590565b3461023e57610b5936610b28565b610b61612de0565b610b8c61072f8473ffffffffffffffffffffffffffffffffffffffff165f52600460205260405f2090565b92610b9d6107456060860151151590565b610803576040610be984610be4610bd5610bf39573ffffffffffffffffffffffffffffffffffffffff165f52600260205260405f2090565b95865490818082039110020190565b611fdf565b94015161ffff1690565b91604051926040840160405263ae6ea19184526020840152601c809301915f5b858110610c22576107b4612dfe565b5f8060248682610c3e6107c9610c38888b611fec565b89612026565b5af115610c4d57600101610c13565b600485634484a4a95f52fd5b9181601f8401121561023e5782359167ffffffffffffffff831161023e576020838186019501011161023e57565b6084359069ffffffffffffffffffff8216820361023e57565b6064359069ffffffffffffffffffff8216820361023e57565b61ffff81160361023e57565b35906106d182610cb9565b3461023e5760c060031936011261023e57600435610ced816106a6565b60243567ffffffffffffffff811161023e57610d0d903690600401610c59565b604435610d19816106a6565b60643590610d26826106a6565b610d2e610c87565b9260a43594610d3c86610cb9565b73ffffffffffffffffffffffffffffffffffffffff6040517f8da5cb5b000000000000000000000000000000000000000000000000000000008152602081600481857f0000000000000000000000000000000000000000000000000000000000000000165afa908115610e1a575f91610deb575b50163303610dc1576107b49661256c565b60046040517f44d783c6000000000000000000000000000000000000000000000000000000008152fd5b610e0d915060203d602011610e13575b610e058183611592565b810190612046565b5f610db0565b503d610dfb565b61205b565b3461023e575f60031936011261023e57602060405173ffffffffffffffffffffffffffffffffffffffff7f0000000000000000000000000000000000000000000000000000000000000000168152f35b3461023e575f60031936011261023e5760207f1777adabd324f814e2b0e28f6edf876dce01d7d66358c9acfe87b1b5f38338d55473ffffffffffffffffffffffffffffffffffffffff60405191168152f35b3461023e57602060031936011261023e5773ffffffffffffffffffffffffffffffffffffffff600435610ef3816106a6565b165f526004602052602060ff600160405f200154166040519015158152f35b3461023e575f8060031936011261023e5773ffffffffffffffffffffffffffffffffffffffff7f000000000000000000000000000000000000000000000000000000000000000016803b1561023e575f80916024604051809481937fd91ae8c20000000000000000000000000000000000000000000000000000000083523060048401525af18015610e1a57610fa6575080f35b6107b49150611561565b3461023e575f60031936011261023e57602060405173ffffffffffffffffffffffffffffffffffffffff7f0000000000000000000000000000000000000000000000000000000000000000168152f35b3461023e5760208060031936011261023e5760043561101e816106a6565b73ffffffffffffffffffffffffffffffffffffffff8091165f52600360205260405f20916040518092602085549283815201945f5260205f20925f915b8383106110725761062d866108f0818a0382611592565b845481168752958101956001948501949092019161105b565b3461023e57602060031936011261023e576004356110a8816106a6565b73ffffffffffffffffffffffffffffffffffffffff7f0000000000000000000000000000000000000000000000000000000000000000163303611137577f1777adabd324f814e2b0e28f6edf876dce01d7d66358c9acfe87b1b5f38338d581815491555f526020527ff33499cccaa0611882086224cc48cd82ef54b66a4d2edf4ed67108dd516896d560405fa1005b634ee0b8f85f526004601cfd5b3461023e575f60031936011261023e57602060405173ffffffffffffffffffffffffffffffffffffffff7f0000000000000000000000000000000000000000000000000000000000000000168152f35b3461023e5760208060031936011261023e576004356111b2816106a6565b73ffffffffffffffffffffffffffffffffffffffff8091165f52600191600160205260405f20926040518093602086549283815201955f5260205f20935f915b8383106112095761062d876108f0818b0382611592565b8554811688529681019694840194918401916111f2565b3461023e575f60031936011261023e576040515f8054808352818052602080840193927f290decd9548b62a8d60345a988386fc84ba6bc95484008f6362f93160ef3e56392915b82821061127e5761062d856108f081890382611592565b835473ffffffffffffffffffffffffffffffffffffffff1686529485019460019384019390910190611267565b3461023e5773ffffffffffffffffffffffffffffffffffffffff6112ce36610b28565b91929092165f52600360205260405f2090815490818082039110020182810390811161135d576112fd816126ff565b915f5b828110611315576040518061062d868261082d565b8085019081861161135d576113576113326107c960019486612026565b61133c838861274e565b9073ffffffffffffffffffffffffffffffffffffffff169052565b01611300565b611fb2565b3461023e5760a060031936011261023e5760043561137f816106a6565b60243561138b816106a6565b604435611397816106a6565b61139f610ca0565b90608435926113ad84610cb9565b73ffffffffffffffffffffffffffffffffffffffff6040517f8da5cb5b000000000000000000000000000000000000000000000000000000008152602081600481857f0000000000000000000000000000000000000000000000000000000000000000165afa908115610e1a575f91611432575b50163303610dc1576107b494612762565b61144b915060203d602011610e1357610e058183611592565b5f611421565b3461023e57602060031936011261023e5760043561146e816106a6565b73ffffffffffffffffffffffffffffffffffffffff6040517f8da5cb5b000000000000000000000000000000000000000000000000000000008152602081600481857f0000000000000000000000000000000000000000000000000000000000000000165afa908115610e1a575f916114f3575b50163303610dc1576107b4906128ca565b61150c915060203d602011610e1357610e058183611592565b5f6114e2565b7f4e487b71000000000000000000000000000000000000000000000000000000005f52604160045260245ffd5b610100810190811067ffffffffffffffff82111761155c57604052565b611512565b67ffffffffffffffff811161155c57604052565b610220810190811067ffffffffffffffff82111761155c57604052565b90601f7fffffffffffffffffffffffffffffffffffffffffffffffffffffffffffffffe0910116810190811067ffffffffffffffff82111761155c57604052565b60405190610140820182811067ffffffffffffffff82111761155c57604052565b60405190610260820182811067ffffffffffffffff82111761155c57604052565b604051906106d18261153f565b60405190610200820182811067ffffffffffffffff82111761155c57604052565b92919267ffffffffffffffff821161155c576040519161168b60207fffffffffffffffffffffffffffffffffffffffffffffffffffffffffffffffe0601f8401160184611592565b82948184528183011161023e578281602093845f960137010152565b9080601f8301121561023e578160206109c193359101611643565b6fffffffffffffffffffffffffffffffff81160361023e57565b35906106d1826116c2565b63ffffffff81160361023e57565b35906106d1826116e7565b9190916101408184031261023e576117166115d3565b92611720826106d3565b845267ffffffffffffffff90602083013582811161023e57816117449185016116a7565b6020860152604083013591821161023e576117609183016116a7565b6040840152611771606082016116dc565b606084015261178260808201610cc5565b608084015261179360a08201610cc5565b60a08401526117a460c082016116f5565b60c08401526117b560e08201610cc5565b60e08401526101006117c88183016116f5565b908401526101208091013590830152565b3461023e5760e060031936011261023e576004356117f6816106a6565b67ffffffffffffffff9060243582811161023e57611818903690600401610c59565b909160443584811161023e57611832903690600401611700565b60643594851161023e5761184d611864953690600401610c59565b916118566106c4565b9460c4359660843595612959565b6040805173ffffffffffffffffffffffffffffffffffffffff9384168152919092166020820152f35b3461023e575f60031936011261023e5760206040517f00000000000000000000000000000000000000000000000000000000000000008152f35b3461023e57602060031936011261023e57604080517f00000000000000000000000000000000000000000000000000000000000000005f5260043560209081527f000000000000000000000000000000000000000000000000000000000000000083526055600b209282905273ffffffffffffffffffffffffffffffffffffffff9092168152f35b3461023e57604060031936011261023e5760043561196c816106a6565b60243567ffffffffffffffff811161023e5761198c903690600401610c59565b611997929192612de0565b6040517f0787c1fe0000000000000000000000000000000000000000000000000000000081523360048201526020816024817f000000000000000000000000000000000000000000000000000000000000000073ffffffffffffffffffffffffffffffffffffffff165afa908115610e1a575f91611a7c575b5015611a525761062d92611a2392612edb565b611a2b612dfe565b60405173ffffffffffffffffffffffffffffffffffffffff90911681529081906020820190565b60046040517f02171e6a000000000000000000000000000000000000000000000000000000008152fd5b611a9e915060203d602011611aa4575b611a968183611592565b810190612a91565b5f611a10565b503d611a8c565b3461023e57604060031936011261023e575f54600435602435828110908390030282018181039190821161135d57611ae2826126ff565b925f5b838110611afa576040518061062d878261082d565b8083019081841161135d5782821015611b6557611b5f611b556001935f80527f290decd9548b62a8d60345a988386fc84ba6bc95484008f6362f93160ef3e563015473ffffffffffffffffffffffffffffffffffffffff1690565b61133c838961274e565b01611ae5565b611ff9565b3461023e57602060031936011261023e5773ffffffffffffffffffffffffffffffffffffffff600435611b9c816106a6565b165f526001602052602060405f2054604051908152f35b3461023e57602060031936011261023e576020600435611bd2816106a6565b73ffffffffffffffffffffffffffffffffffffffff8091165f526005825260405f2054161515604051908152f35b3461023e57602060031936011261023e5773ffffffffffffffffffffffffffffffffffffffff600435611c32816106a6565b165f526002602052602060405f2054604051908152f35b3461023e575f60031936011261023e5760205f54604051908152f35b3461023e5760031960a08136011261023e576004359067ffffffffffffffff9081831161023e5761014090833603011261023e5760243590811161023e5761062d91611cb8611a2b923690600401610c59565b909160643591611cc7836106a6565b6084359360443592600401612aa9565b3461023e5773ffffffffffffffffffffffffffffffffffffffff611cfa36610b28565b91929092165f52600260205260405f2090815490818082039110020182810390811161135d57611d29816126ff565b915f5b828110611d41576040518061062d868261082d565b8085019081861161135d57611d5e6113326107c960019486612026565b01611d2c565b3461023e57602060031936011261023e5773ffffffffffffffffffffffffffffffffffffffff600435611d96816106a6565b165f526003602052602060405f2054604051908152f35b611db56115f4565b905f82525f60208301525f60408301525f60608301525f60808301525f60a08301525f60c08301525f60e08301525f6101008301525f6101208301525f6101408301525f6101608301525f6101808301525f6101a08301525f6101c08301525f6101e08301525f6102008301525f6102208301525f610240830152565b90600182811c92168015611e79575b6020831014611e4c57565b7f4e487b71000000000000000000000000000000000000000000000000000000005f52602260045260245ffd5b91607f1691611e41565b9060405191825f8254611e9581611e32565b908184526020946001916001811690815f14611f015750600114611ec3575b5050506106d192500383611592565b5f90815285812095935091905b818310611ee95750506106d193508201015f8080611eb4565b85548884018501529485019487945091830191611ed0565b9150506106d19593507fffffffffffffffffffffffffffffffffffffffffffffffffffffffffffffff0091501682840152151560051b8201015f8080611eb4565b90604051611f4f8161153f565b60e0611fad60028395610ac88154610a7773ffffffffffffffffffffffffffffffffffffffff918281168952611fa369ffffffffffffffffffff8260a01c1660208b019069ffffffffffffffffffff169052565b60f01c6040890152565b910152565b7f4e487b71000000000000000000000000000000000000000000000000000000005f52601160045260245ffd5b9190820391821161135d57565b9190820180921161135d57565b7f4e487b71000000000000000000000000000000000000000000000000000000005f52603260045260245ffd5b8054821015611b65575f5260205f2001905f90565b51906106d1826106a6565b9081602091031261023e57516109c1816106a6565b6040513d5f823e3d90fd5b601f821161207357505050565b5f5260205f20906020601f840160051c830193106120ab575b601f0160051c01905b8181106120a0575050565b5f8155600101612095565b909150819061208c565b919091825167ffffffffffffffff811161155c576120dd816120d78454611e32565b84612066565b602080601f831160011461213c5750819061212d9394955f92612131575b50507fffffffffffffffffffffffffffffffffffffffffffffffffffffffffffffffff8260011b9260031b1c19161790565b9055565b015190505f806120fb565b907fffffffffffffffffffffffffffffffffffffffffffffffffffffffffffffffe083169561216e855f5260205f2090565b925f905b8882106121c857505083600195969710612191575b505050811b019055565b01517fffffffffffffffffffffffffffffffffffffffffffffffffffffffffffffffff60f88460031b161c191690555f8080612187565b80600185968294968601518155019501930190612172565b600260e06106d19361224473ffffffffffffffffffffffffffffffffffffffff825116859073ffffffffffffffffffffffffffffffffffffffff167fffffffffffffffffffffffff0000000000000000000000000000000000000000825416179055565b602081015184547fffff00000000000000000000ffffffffffffffffffffffffffffffffffffffff1660a09190911b7dffffffffffffffffffff000000000000000000000000000000000000000016178455604081015184547dffffffffffffffffffffffffffffffffffffffffffffffffffffffffffff1660f09190911b7fffff000000000000000000000000000000000000000000000000000000000000161784556123fc600185016060830151151560ff7fffffffffffffffffffffffffffffffffffffffffffffffffffffffffffffff0083541691161781556123646123316080850151151590565b82547fffffffffffffffffffffffffffffffffffffffffffffffffffffffffffff00ff1690151560081b61ff0016178255565b6123ad61237760a085015162ffffff1690565b82547fffffffffffffffffffffffffffffffffffffffffffffffffffffff000000ffff1660109190911b64ffffff000016178255565b60c083015181547fffffffffffffff0000000000000000000000000000000000000000ffffffffff1660289190911b78ffffffffffffffffffffffffffffffffffffffff000000000016179055565b015191016120b5565b5f546801000000000000000081101561155c5760018101805f55811015611b655773ffffffffffffffffffffffffffffffffffffffff905f80527f290decd9548b62a8d60345a988386fc84ba6bc95484008f6362f93160ef3e5630191167fffffffffffffffffffffffff0000000000000000000000000000000000000000825416179055565b80546801000000000000000081101561155c576124ae91600182018155612026565b73ffffffffffffffffffffffffffffffffffffffff9291928084549260031b9316831b921b1916179055565b95909160a09569ffffffffffffffffffff9360e07fffffffffffffffffffffffffffffffffffffffffffffffffffffffffffffffe0601f885f61ffff9b9f9e9a85908f8173ffffffffffffffffffffffffffffffffffffffff9b8c809b16835260c060208401528160c08401528483013701015201168a01019a16604089015216606087015216608085015216910152565b93959192959490946125a960016125a18773ffffffffffffffffffffffffffffffffffffffff165f52600460205260405f2090565b015460ff1690565b6126bd57866126b8946125df8585857f7735fb05b8e8ddc6039fa70a50d11434f6ba73219f3cc820e8100b10dcaf89ed9c612e07565b6126a36125ef5f5462ffffff1690565b61264a6125fa611615565b73ffffffffffffffffffffffffffffffffffffffff871681529169ffffffffffffffffffff8816602084015261ffff89166040840152600160608401526001608084015262ffffff1660a0830152565b73ffffffffffffffffffffffffffffffffffffffff841660c082015261267136848c611643565b60e082015261269e8973ffffffffffffffffffffffffffffffffffffffff165f52600460205260405f2090565b6121e0565b6126ac87612405565b604051978897886124da565b0390a1565b60046040517f3704fb41000000000000000000000000000000000000000000000000000000008152fd5b67ffffffffffffffff811161155c5760051b60200190565b90612709826126e7565b6127166040519182611592565b8281527fffffffffffffffffffffffffffffffffffffffffffffffffffffffffffffffe061274482946126e7565b0190602036910137565b8051821015611b655760209160051b010190565b929391909173ffffffffffffffffffffffffffffffffffffffff80941692835f52600460205260ff600160405f20015416156108035785858460a097846127da877fba32e46aec30b4be89696b127e3fc9923645feaf4184109ba3627ac28e4de3b59c61ffff9a69ffffffffffffffffffff99612e07565b885f5260046020526128a98760405f2061283c8460018301907fffffffffffffff0000000000000000000000000000000000000000ffffffffff78ffffffffffffffffffffffffffffffffffffffff000000000083549260281b169116179055565b7dffffffffffffffffffff000000000000000000000000000000000000000060a089901b1673ffffffffffffffffffffffffffffffffffffffff87161760f09290921b7fffff00000000000000000000000000000000000000000000000000000000000016919091179055565b604051988952166020880152166040860152166060840152166080820152a1565b73ffffffffffffffffffffffffffffffffffffffff16805f52600460205260ff600160405f2001541615610803576020817ff53ee7e14e8211031e94d3dbef2a1d525daa5842da39bffef5aa54c2cb76214a925f5260048252600160405f20017fffffffffffffffffffffffffffffffffffffffffffffffffffffffffffff00ff8154169055604051908152a1565b9198979593929096949861296b612de0565b6040517f0787c1fe0000000000000000000000000000000000000000000000000000000081523360048201526020816024817f000000000000000000000000000000000000000000000000000000000000000073ffffffffffffffffffffffffffffffffffffffff165afa908115610e1a575f91612a72575b5015611a5257612a1561072f8473ffffffffffffffffffffffffffffffffffffffff165f52600460205260405f2090565b93612a266107456060870151151590565b61080357612a3b612a6292612a689a86612edb565b61012084018051919c916bffffffffffffffffffffffff1660608e901b1790523691611643565b90613304565b91906106d1612dfe565b612a8b915060203d602011611aa457611a968183611592565b5f6129e4565b9081602091031261023e5751801515810361023e5790565b9094939291612ab6612de0565b6040517f0787c1fe00000000000000000000000000000000000000000000000000000000815233600482015273ffffffffffffffffffffffffffffffffffffffff91906020816024817f000000000000000000000000000000000000000000000000000000000000000087165afa908115610e1a575f91612c05575b5015611a5257612b85612b6b61012085013560601c73ffffffffffffffffffffffffffffffffffffffff165f52600560205260405f2090565b5473ffffffffffffffffffffffffffffffffffffffff1690565b91821615612bdb57612a62612bd297612bca612bc261072f8673ffffffffffffffffffffffffffffffffffffffff165f52600460205260405f2090565b953690611700565b923691611643565b906106d1612dfe565b60046040517f816fefa2000000000000000000000000000000000000000000000000000000008152fd5b612c1e915060203d602011611aa457611a968183611592565b5f612b32565b51906106d182610cb9565b51906106d1826116c2565b51906106d1826116e7565b519060ff8216820361023e57565b908161020091031261023e57612c67611622565b90612c718161203b565b8252612c7f6020820161203b565b6020830152612c906040820161203b565b6040830152612ca160608201612c24565b6060830152612cb260808201612c2f565b6080830152612cc360a08201612c24565b60a0830152612cd460c08201612c24565b60c0830152612ce560e08201612c3a565b60e0830152610100612cf8818301612c24565b90830152610120612d0a818301612c3a565b908301526101408082015190830152610160808201519083015261018080820151908301526101a080820151908301526101c0612d48818301612c45565b908301526101e0809101519082015290565b5f6101e0612d66611622565b8281528260208201528260408201528260608201528260808201528260a08201528260c08201528260e08201528261010082015282610120820152826101408201528261016082015282610180820152826101a0820152826101c082015201526109c1612dd1613b47565b60208082518301019101612c53565b63929eee14805c612df1576001905d565b637fa8a9875f526004601cfd5b5f63929eee145d565b909169ffffffffffffffffffff1615159061ffff73ffffffffffffffffffffffffffffffffffffffff809216159416928315159485612ed3575b8515612eb8575b508415612e97575b5050508115612e8b575b50612e6157565b60046040517f6d24edae000000000000000000000000000000000000000000000000000000008152fd5b6103e89150115f612e5a565b929350909182612ead575b5050905f8080612e50565b161590505f80612ea2565b838092965091612ecb575b50935f612e48565b90505f612ec3565b945084612e41565b92916001612f078573ffffffffffffffffffffffffffffffffffffffff165f52600460205260405f2090565b015460ff8116156108035760081c60ff161561309857605f612f473373ffffffffffffffffffffffffffffffffffffffff165f52600160205260405f2090565b54916040519281873b95847fffffffffffffffffffffffffffffffffffffffffffffffffffffffffffffffff8089016001898d3c8888019033908201526040601f82015283603f82015201373360601b17930101905ff591821561308b576106d190612fda84612fd53373ffffffffffffffffffffffffffffffffffffffff165f52600160205260405f2090565b61248c565b6040805173ffffffffffffffffffffffffffffffffffffffff8681168252831660208201527fa1d2f67e073e80e6ec12790c669d64ea9a5dbe85ed539a27549f7e447c480dfe9190a161304b8473ffffffffffffffffffffffffffffffffffffffff165f52600560205260405f2090565b9073ffffffffffffffffffffffffffffffffffffffff167fffffffffffffffffffffffff0000000000000000000000000000000000000000825416179055565b63301164255f526004601cfd5b60046040517f0e8dc677000000000000000000000000000000000000000000000000000000008152fd5b9081602091031261023e575190565b906109c1949273ffffffffffffffffffffffffffffffffffffffff80921683521660208201526080604082015261312160808201845173ffffffffffffffffffffffffffffffffffffffff169052565b6020830151613175613141610140928360a08601526101c0850190610631565b60408601517fffffffffffffffffffffffffffffffffffffffffffffffffffffffffffffff808583030160c0860152610631565b60608501516fffffffffffffffffffffffffffffffff1660e0840152936131fa60808201516131ad610100918287019061ffff169052565b6131da60a0840151946131c9610120968789019061ffff169052565b60c085015163ffffffff1690870152565b60e083015161ffff1661016086015282015163ffffffff16610180850152565b01516101a08201526060818403910152610631565b805191908290602001825e015f815290565b6106d19061324361323d9493604051958693602085019061320f565b9061320f565b037fffffffffffffffffffffffffffffffffffffffffffffffffffffffffffffffe08101845283611592565b96959373ffffffffffffffffffffffffffffffffffffffff6132c66101209a959d9c9b97946132b86fffffffffffffffffffffffffffffffff958c6101408091528d0190610631565b908b820360208d0152610631565b9c16604089015216606087015261ffff928380921660808801521660a086015263ffffffff80941660c08601521660e0840152166101008201520152565b9293909695919461337d602061332e865173ffffffffffffffffffffffffffffffffffffffff1690565b6040517fb0018c6000000000000000000000000000000000000000000000000000000000815273ffffffffffffffffffffffffffffffffffffffff909116600482015291829081906024820190565b038173ffffffffffffffffffffffffffffffffffffffff7f0000000000000000000000000000000000000000000000000000000000000000165afa908115610e1a575f91613b28575b50613afe5761012084015160601c92338360601c148015613ad4575b15613aaa57613421613408875173ffffffffffffffffffffffffffffffffffffffff1690565b73ffffffffffffffffffffffffffffffffffffffff1690565b73ffffffffffffffffffffffffffffffffffffffff8316908114801590613a78575b613a4e57613a1a575b505061350060206134c97f0000000000000000000000000000000000000000000000000000000000000000847f0000000000000000000000000000000000000000000000000000000000000000929190604051935f5260205260405273ffffffffffffffffffffffffffffffffffffffff6055600b201691604052565b98604051809381927f28fd0307000000000000000000000000000000000000000000000000000000008352888d33600486016130d1565b03815f73ffffffffffffffffffffffffffffffffffffffff88165af1908115610e1a575f916139eb575b50610120840152825173ffffffffffffffffffffffffffffffffffffffff1661355290613cae565b90602084015184516135779073ffffffffffffffffffffffffffffffffffffffff1690565b61358090613e5b565b61358991613221565b94604085015185516135ae9073ffffffffffffffffffffffffffffffffffffffff1690565b6135b790613fb6565b6135c091613221565b9285516135e09073ffffffffffffffffffffffffffffffffffffffff1690565b9560c08301516136039073ffffffffffffffffffffffffffffffffffffffff1690565b60409093015161ffff1660608201516fffffffffffffffffffffffffffffffff16608083015161ffff1660a084015161ffff169060c08501516136499063ffffffff1690565b9260e086015161365a9061ffff1690565b9461010087015161366e9063ffffffff1690565b9661012001519861367d611622565b33815273ffffffffffffffffffffffffffffffffffffffff9e8f1660208201529d1660408e015261ffff1660608d01526fffffffffffffffffffffffffffffffff1660808c015261ffff1660a08b015261ffff1660c08a015263ffffffff1660e089015261ffff1661010088015263ffffffff166101208701525f6101408701819052610160870181905261018087018190526101a087015260ff166101c08601526101e085015261372e85613ce2565b61016086015261014085015261374382613ce2565b6101a086015261018085015261375884613d0d565b873b6139c157613788907f0000000000000000000000000000000000000000000000000000000000000000614157565b5073ffffffffffffffffffffffffffffffffffffffff7f0000000000000000000000000000000000000000000000000000000000000000163b1561023e576040517fa79b9ec900000000000000000000000000000000000000000000000000000000815273ffffffffffffffffffffffffffffffffffffffff88166004820152905f82806024810103818373ffffffffffffffffffffffffffffffffffffffff7f0000000000000000000000000000000000000000000000000000000000000000165af1908115610e1a577f6f8c7c94fc16393d1ebec38de9899ba8c6bd860a025aa60063b7cf4c40a16c09946139118a612fd573ffffffffffffffffffffffffffffffffffffffff976138ed83612fd58e829b6139a39b6139a8575b505f7f78cf023adbf9fec5dbd8e980a6a3526d1d11c66c894ab342ade9ace71f5619045d73ffffffffffffffffffffffffffffffffffffffff165f52600260205260405f2090565b73ffffffffffffffffffffffffffffffffffffffff165f52600360205260405f2090565b602081015173ffffffffffffffffffffffffffffffffffffffff1660808201516fffffffffffffffffffffffffffffffff1660a083015161ffff1660c084015161ffff169061396760e086015163ffffffff1690565b9261397861010087015161ffff1690565b946101e061398e61012089015163ffffffff1690565b970151978b6040519c8d9c169f169d8b61326f565b0390a3565b806139b56139bb92611561565b80610234565b5f6138a5565b60046040517f0313b285000000000000000000000000000000000000000000000000000000008152fd5b613a0d915060203d602011613a13575b613a058183611592565b8101906130c2565b5f61352a565b503d6139fb565b613a4791613a3f60c088015173ffffffffffffffffffffffffffffffffffffffff1690565b903390613c59565b5f8061344c565b60046040517f36a9d011000000000000000000000000000000000000000000000000000000008152fd5b50613aa2613a93602089015169ffffffffffffffffffff1690565b69ffffffffffffffffffff1690565b821415613443565b60046040517f861f5c0b000000000000000000000000000000000000000000000000000000008152fd5b507fffffffffffffffffffffffffffffffffffffffff0000000000000000000000008316156133e2565b60046040517f47426645000000000000000000000000000000000000000000000000000000008152fd5b613b41915060203d602011611aa457611a968183611592565b5f6133c6565b604051905f82525f7f78cf023adbf9fec5dbd8e980a6a3526d1d11c66c894ab342ade9ace71f561904805c9060018260011c9160018416938415613c4f575b6020948585108114613c3e57848952908115613c035750600114613bae575b50505050604052565b5f908152929350837f810543fe2cb308dcc7090dc0718da3cf7b1ea9e6ee6878e7d574d84a057628975b838510613bef57505050508301015f808080613ba5565b805c88860183015293019284908201613bd8565b93505050507fffffffffffffffffffffffffffffffffffffffffffffffffffffffffffffff009192501690830152604082015f808080613ba5565b602286634e487b715f52526024601cfd5b92607f1692613b86565b601c5f60649281946020966040519860605260405260601b602c526f23b872dd000000000000000000000000600c525af13d1560015f5114171615613ca1575f606052604052565b637939f4245f526004601cfd5b5f6004601c60209363313ce56784525afa6101005f511060203d14161615613cd5575f5190565b633394d1705f526004601cfd5b90603f825111613d0057601f82015191603f601f8251119101510290565b6319a65cb65f526004601cfd5b604051815173ffffffffffffffffffffffffffffffffffffffff1660208201526106d191602081015173ffffffffffffffffffffffffffffffffffffffff166040830152604081015173ffffffffffffffffffffffffffffffffffffffff166060830152606081015161ffff16608083015260808101516fffffffffffffffffffffffffffffffff1660a083015260a081015161ffff1660c083015260c081015161ffff1660e083015260e0810151613dd1610100918285019063ffffffff169052565b810151613de7610120918285019061ffff169052565b810151613dff610140918285019063ffffffff169052565b810151610160908184015281015161018090818401528101516101a090818401528101516101c0908184015281015190613e416101e0928385019060ff169052565b015161020090818301528152613e5681611575565b614098565b5f6004601c82936306fdde0384525afa3d6020149015605f3d118217158117613f8b575015613f1a5760205f803e6109c15f519060018219018216916007836fffffffffffffffffffffffffffffffff10811b821560081b1784811c67ffffffffffffffff1060061b1784811c63ffffffff1060051b177e1f0d1e100c1d070f090b19131c1706010e11080a1a141802121b1503160405601f6040519660408801604052831c63d76453e004161a1760ff030160031c83526020830152565b60405190602063ffffffe07fffffffffffffffffffffffffffffffffffffffffffffffffffffffffffffffff3d01168084016040527fffffffffffffffffffffffffffffffffffffffffffffffffffffffffffffffe03d0182853e013d18613f7e57565b634cb9c0005f526004601cfd5b613f9c57634cb9c0005f526004601cfd5b3d613fae57632ed09f545f526004601cfd5b3d5f803e3d5ffd5b5f6004601c82936395d89b4184525afa3d6020149015605f3d118217158117614075575015613f1a5760205f803e6109c15f519060018219018216916007836fffffffffffffffffffffffffffffffff10811b821560081b1784811c67ffffffffffffffff1060061b1784811c63ffffffff1060051b177e1f0d1e100c1d070f090b19131c1706010e11080a1a141802121b1503160405601f6040519660408801604052831c63d76453e004161a1760ff030160031c83526020830152565b61408657634cb9c0005f526004601cfd5b3d613fae57633ddcc60a5f526004601cfd5b805160208082109081156140e057506001146140b2575050565b60209060011b910151177f78cf023adbf9fec5dbd8e980a6a3526d1d11c66c894ab342ade9ace71f5619045d565b92600191507f78cf023adbf9fec5dbd8e980a6a3526d1d11c66c894ab342ade9ace71f56190483831b8301815d5f527f810543fe2cb308dcc7090dc0718da3cf7b1ea9e6ee6878e7d574d84a05762897905f915b84831061414357505050505050565b838691828585010151815d01920191614134565b6040518160017fffffffffffffffffffffffffffffffffffffffffffffffffffffffffffffffff83943b019384923c5ff590811561308b5756fea164736f6c6343000819000a","linkReferences":{}},"methodIdentifiers":{"addHooksTemplate(address,string,address,address,uint80,uint16)":"3476b76d","archController()":"54635570","changeSphereXEngine(address)":"4c6c848f","computeMarketAddress(bytes32)":"c29a7677","deployHooksInstance(address,bytes)":"cd01e52a","deployMarket((address,string,string,uint128,uint16,uint16,uint32,uint16,uint32,uint256),bytes,bytes32,address,uint256)":"e7ca86e3","deployMarketAndHooks(address,bytes,(address,string,string,uint128,uint16,uint16,uint32,uint16,uint32,uint256),bytes,bytes32,address,uint256)":"ad78e45a","disableHooksTemplate(address)":"9f2f94b3","getHooksInstancesCountForBorrower(address)":"d14a5402","getHooksInstancesForBorrower(address)":"62ef8119","getHooksTemplateDetails(address)":"2812d2de","getHooksTemplateForInstance(address)":"2b07f280","getHooksTemplates()":"6e50f960","getHooksTemplates(uint256,uint256)":"cdbb8374","getHooksTemplatesCount()":"d9d58025","getMarketParameters()":"04032dbb","getMarketsForHooksInstance(address)":"4bd1acf3","getMarketsForHooksInstance(address,uint256,uint256)":"7a749060","getMarketsForHooksInstanceCount(address)":"fe604ec7","getMarketsForHooksTemplate(address)":"1caab59d","getMarketsForHooksTemplate(address,uint256,uint256)":"eae6ff66","getMarketsForHooksTemplateCount(address)":"d1a0745c","isHooksInstance(address)":"d19bd571","isHooksTemplate(address)":"3fd83e1e","marketInitCodeHash()":"aeefe08c","marketInitCodeStorage()":"356dd352","name()":"06fdde03","pushProtocolFeeBipsUpdates(address)":"155733ef","pushProtocolFeeBipsUpdates(address,uint256,uint256)":"33ee81f2","registerWithArchController()":"41f259b8","sanctionsSentinel()":"4272711d","sphereXEngine()":"3c231166","sphereXOperator()":"e7e5db4f","updateHooksTemplateFees(address,address,address,uint80,uint16)":"9c5cd31a"},"id":32}