{"abi":[{"type":"constructor","inputs":[{"name":"_chainalysisOracle","type":"address","internalType":"address"}],"stateMutability":"nonpayable"},{"type":"function","name":"chainalysisOracle","inputs":[],"outputs":[{"name":"","type":"address","internalType":"contract IChainalysis"}],"stateMutability":"view"},{"type":"function","name":"getCredential","inputs":[{"name":"account","type":"address","internalType":"address"}],"outputs":[{"name":"","type":"uint32","internalType":"uint32"}],"stateMutability":"view"},{"type":"function","name":"isPullProvider","inputs":[],"outputs":[{"name":"","type":"bool","internalType":"bool"}],"stateMutability":"pure"},{"type":"function","name":"validateCredential","inputs":[{"name":"account","type":"address","internalType":"address"},{"name":"","type":"bytes","internalType":"bytes"}],"outputs":[{"name":"","type":"uint32","internalType":"uint32"}],"stateMutability":"view"}],"bytecode":{"object":"0x60a034606e57601f6102bb38819003918201601f19168301916001600160401b03831184841017607257808492602094604052833981010312606e57516001600160a01b03811690819003606e5760805260405161023490816100878239608051818181605d01526101730152f35b5f80fd5b634e487b7160e01b5f52604160045260245ffdfe6080806040526004361015610012575f80fd5b5f3560e01c908163256909f11461011a5750806354560cb2146100c1578063ccdad14b146100905763cea57fe814610048575f80fd5b3461008c575f36600319011261008c576040517f00000000000000000000000000000000000000000000000000000000000000006001600160a01b03168152602090f35b5f80fd5b3461008c57602036600319011261008c5760206100b36100ae610133565b610149565b63ffffffff60405191168152f35b3461008c57604036600319011261008c576100da610133565b60243567ffffffffffffffff80821161008c573660238301121561008c57816004013590811161008c573691016024011161008c576100b3602091610149565b3461008c575f36600319011261008c5780600160209252f35b600435906001600160a01b038216820361008c57565b60405163df592f7d60e01b81526001600160a01b03918216600482015290602090829060249082907f0000000000000000000000000000000000000000000000000000000000000000165afa90811561021c575f916101b7575b50156101ad575f90565b63ffffffff421690565b905060203d602011610215575b601f8101601f1916820167ffffffffffffffff8111838210176102015760209183916040528101031261008c5751801515810361008c575f6101a3565b634e487b7160e01b5f52604160045260245ffd5b503d6101c4565b6040513d5f823e3d90fdfea164736f6c6343000819000a","linkReferences":{}},"methodIdentifiers":{"chainalysisOracle()":"cea57fe8","getCredential(address)":"ccdad14b","isPullProvider()":"256909f1","validateCredential(address,bytes)":"54560cb2"},"id":47}