{"abi":[{"type":"function","name":"accruedProtocolFees","inputs":[],"outputs":[{"name":"","type":"uint256","internalType":"uint256"}],"stateMutability":"view"},{"type":"function","name":"allowance","inputs":[{"name":"","type":"address","internalType":"address"},{"name":"","type":"address","internalType":"address"}],"outputs":[{"name":"","type":"uint256","internalType":"uint256"}],"stateMutability":"view"},{"type":"function","name":"annualInterestBips","inputs":[],"outputs":[{"name":"","type":"uint256","internalType":"uint256"}],"stateMutability":"view"},{"type":"function","name":"approve","inputs":[{"name":"spender","type":"address","internalType":"address"},{"name":"amount","type":"uint256","internalType":"uint256"}],"outputs":[{"name":"","type":"bool","internalType":"bool"}],"stateMutability":"nonpayable"},{"type":"function","name":"archController","inputs":[],"outputs":[{"name":"","type":"address","internalType":"address"}],"stateMutability":"view"},{"type":"function","name":"asset","inputs":[],"outputs":[{"name":"","type":"address","internalType":"address"}],"stateMutability":"view"},{"type":"function","name":"balanceOf","inputs":[{"name":"account","type":"address","internalType":"address"}],"outputs":[{"name":"","type":"uint256","internalType":"uint256"}],"stateMutability":"view"},{"type":"function","name":"borrow","inputs":[{"name":"amount","type":"uint256","internalType":"uint256"}],"outputs":[],"stateMutability":"nonpayable"},{"type":"function","name":"borrowableAssets","inputs":[],"outputs":[{"name":"","type":"uint256","internalType":"uint256"}],"stateMutability":"view"},{"type":"function","name":"borrower","inputs":[],"outputs":[{"name":"","type":"address","internalType":"address"}],"stateMutability":"view"},{"type":"function","name":"changeSphereXEngine","inputs":[{"name":"newSphereXEngine","type":"address","internalType":"address"}],"outputs":[],"stateMutability":"nonpayable"},{"type":"function","name":"closeMarket","inputs":[],"outputs":[],"stateMutability":"nonpayable"},{"type":"function","name":"collectFees","inputs":[],"outputs":[],"stateMutability":"nonpayable"},{"type":"function","name":"coverageLiquidity","inputs":[],"outputs":[{"name":"","type":"uint256","internalType":"uint256"}],"stateMutability":"view"},{"type":"function","name":"currentState","inputs":[],"outputs":[{"name":"state","type":"tuple","internalType":"struct MarketState","components":[{"name":"isClosed","type":"bool","internalType":"bool"},{"name":"maxTotalSupply","type":"uint128","internalType":"uint128"},{"name":"accruedProtocolFees","type":"uint128","internalType":"uint128"},{"name":"normalizedUnclaimedWithdrawals","type":"uint128","internalType":"uint128"},{"name":"scaledTotalSupply","type":"uint104","internalType":"uint104"},{"name":"scaledPendingWithdrawals","type":"uint104","internalType":"uint104"},{"name":"pendingWithdrawalExpiry","type":"uint32","internalType":"uint32"},{"name":"isDelinquent","type":"bool","internalType":"bool"},{"name":"timeDelinquent","type":"uint32","internalType":"uint32"},{"name":"protocolFeeBips","type":"uint16","internalType":"uint16"},{"name":"annualInterestBips","type":"uint16","internalType":"uint16"},{"name":"reserveRatioBips","type":"uint16","internalType":"uint16"},{"name":"scaleFactor","type":"uint112","internalType":"uint112"},{"name":"lastInterestAccruedTimestamp","type":"uint32","internalType":"uint32"}]}],"stateMutability":"view"},{"type":"function","name":"decimals","inputs":[],"outputs":[{"name":"","type":"uint8","internalType":"uint8"}],"stateMutability":"view"},{"type":"function","name":"delinquencyFeeBips","inputs":[],"outputs":[{"name":"","type":"uint256","internalType":"uint256"}],"stateMutability":"view"},{"type":"function","name":"delinquencyGracePeriod","inputs":[],"outputs":[{"name":"","type":"uint256","internalType":"uint256"}],"stateMutability":"view"},{"type":"function","name":"deposit","inputs":[{"name":"amount","type":"uint256","internalType":"uint256"}],"outputs":[],"stateMutability":"nonpayable"},{"type":"function","name":"depositUpTo","inputs":[{"name":"amount","type":"uint256","internalType":"uint256"}],"outputs":[{"name":"","type":"uint256","internalType":"uint256"}],"stateMutability":"nonpayable"},{"type":"function","name":"executeWithdrawal","inputs":[{"name":"accountAddress","type":"address","internalType":"address"},{"name":"expiry","type":"uint32","internalType":"uint32"}],"outputs":[{"name":"","type":"uint256","internalType":"uint256"}],"stateMutability":"nonpayable"},{"type":"function","name":"executeWithdrawals","inputs":[{"name":"accountAddresses","type":"address[]","internalType":"address[]"},{"name":"expiries","type":"uint32[]","internalType":"uint32[]"}],"outputs":[{"name":"amounts","type":"uint256[]","internalType":"uint256[]"}],"stateMutability":"nonpayable"},{"type":"function","name":"factory","inputs":[],"outputs":[{"name":"","type":"address","internalType":"address"}],"stateMutability":"view"},{"type":"function","name":"feeRecipient","inputs":[],"outputs":[{"name":"","type":"address","internalType":"address"}],"stateMutability":"view"},{"type":"function","name":"forceBuyBack","inputs":[{"name":"lender","type":"address","internalType":"address"},{"name":"normalizedAmount","type":"uint256","internalType":"uint256"}],"outputs":[],"stateMutability":"nonpayable"},{"type":"function","name":"getAccountWithdrawalStatus","inputs":[{"name":"accountAddress","type":"address","internalType":"address"},{"name":"expiry","type":"uint32","internalType":"uint32"}],"outputs":[{"name":"status","type":"tuple","internalType":"struct AccountWithdrawalStatus","components":[{"name":"scaledAmount","type":"uint104","internalType":"uint104"},{"name":"normalizedAmountWithdrawn","type":"uint128","internalType":"uint128"}]}],"stateMutability":"view"},{"type":"function","name":"getAvailableWithdrawalAmount","inputs":[{"name":"accountAddress","type":"address","internalType":"address"},{"name":"expiry","type":"uint32","internalType":"uint32"}],"outputs":[{"name":"","type":"uint256","internalType":"uint256"}],"stateMutability":"view"},{"type":"function","name":"getUnpaidBatchExpiries","inputs":[],"outputs":[{"name":"","type":"uint32[]","internalType":"uint32[]"}],"stateMutability":"view"},{"type":"function","name":"getWithdrawalBatch","inputs":[{"name":"expiry","type":"uint32","internalType":"uint32"}],"outputs":[{"name":"batch","type":"tuple","internalType":"struct WithdrawalBatch","components":[{"name":"scaledTotalAmount","type":"uint104","internalType":"uint104"},{"name":"scaledAmountBurned","type":"uint104","internalType":"uint104"},{"name":"normalizedAmountPaid","type":"uint128","internalType":"uint128"}]}],"stateMutability":"view"},{"type":"function","name":"hooks","inputs":[],"outputs":[{"name":"","type":"uint256","internalType":"HooksConfig"}],"stateMutability":"view"},{"type":"function","name":"isClosed","inputs":[],"outputs":[{"name":"","type":"bool","internalType":"bool"}],"stateMutability":"view"},{"type":"function","name":"maxTotalSupply","inputs":[],"outputs":[{"name":"","type":"uint256","internalType":"uint256"}],"stateMutability":"view"},{"type":"function","name":"maximumDeposit","inputs":[],"outputs":[{"name":"","type":"uint256","internalType":"uint256"}],"stateMutability":"view"},{"type":"function","name":"name","inputs":[],"outputs":[{"name":"","type":"string","internalType":"string"}],"stateMutability":"view"},{"type":"function","name":"nukeFromOrbit","inputs":[{"name":"accountAddress","type":"address","internalType":"address"}],"outputs":[],"stateMutability":"nonpayable"},{"type":"function","name":"previousState","inputs":[],"outputs":[{"name":"","type":"tuple","internalType":"struct MarketState","components":[{"name":"isClosed","type":"bool","internalType":"bool"},{"name":"maxTotalSupply","type":"uint128","internalType":"uint128"},{"name":"accruedProtocolFees","type":"uint128","internalType":"uint128"},{"name":"normalizedUnclaimedWithdrawals","type":"uint128","internalType":"uint128"},{"name":"scaledTotalSupply","type":"uint104","internalType":"uint104"},{"name":"scaledPendingWithdrawals","type":"uint104","internalType":"uint104"},{"name":"pendingWithdrawalExpiry","type":"uint32","internalType":"uint32"},{"name":"isDelinquent","type":"bool","internalType":"bool"},{"name":"timeDelinquent","type":"uint32","internalType":"uint32"},{"name":"protocolFeeBips","type":"uint16","internalType":"uint16"},{"name":"annualInterestBips","type":"uint16","internalType":"uint16"},{"name":"reserveRatioBips","type":"uint16","internalType":"uint16"},{"name":"scaleFactor","type":"uint112","internalType":"uint112"},{"name":"lastInterestAccruedTimestamp","type":"uint32","internalType":"uint32"}]}],"stateMutability":"view"},{"type":"function","name":"queueFullWithdrawal","inputs":[],"outputs":[{"name":"expiry","type":"uint32","internalType":"uint32"}],"stateMutability":"nonpayable"},{"type":"function","name":"queueWithdrawal","inputs":[{"name":"amount","type":"uint256","internalType":"uint256"}],"outputs":[{"name":"expiry","type":"uint32","internalType":"uint32"}],"stateMutability":"nonpayable"},{"type":"function","name":"repay","inputs":[{"name":"amount","type":"uint256","internalType":"uint256"}],"outputs":[],"stateMutability":"nonpayable"},{"type":"function","name":"repayAndProcessUnpaidWithdrawalBatches","inputs":[{"name":"repayAmount","type":"uint256","internalType":"uint256"},{"name":"maxBatches","type":"uint256","internalType":"uint256"}],"outputs":[],"stateMutability":"nonpayable"},{"type":"function","name":"rescueTokens","inputs":[{"name":"token","type":"address","internalType":"address"}],"outputs":[],"stateMutability":"nonpayable"},{"type":"function","name":"reserveRatioBips","inputs":[],"outputs":[{"name":"","type":"uint256","internalType":"uint256"}],"stateMutability":"view"},{"type":"function","name":"scaleFactor","inputs":[],"outputs":[{"name":"","type":"uint256","internalType":"uint256"}],"stateMutability":"view"},{"type":"function","name":"scaledBalanceOf","inputs":[{"name":"account","type":"address","internalType":"address"}],"outputs":[{"name":"","type":"uint256","internalType":"uint256"}],"stateMutability":"view"},{"type":"function","name":"scaledTotalSupply","inputs":[],"outputs":[{"name":"","type":"uint256","internalType":"uint256"}],"stateMutability":"view"},{"type":"function","name":"sentinel","inputs":[],"outputs":[{"name":"","type":"address","internalType":"address"}],"stateMutability":"view"},{"type":"function","name":"setAnnualInterestAndReserveRatioBips","inputs":[{"name":"_annualInterestBips","type":"uint16","internalType":"uint16"},{"name":"_reserveRatioBips","type":"uint16","internalType":"uint16"}],"outputs":[],"stateMutability":"nonpayable"},{"type":"function","name":"setMaxTotalSupply","inputs":[{"name":"_maxTotalSupply","type":"uint256","internalType":"uint256"}],"outputs":[],"stateMutability":"nonpayable"},{"type":"function","name":"setProtocolFeeBips","inputs":[{"name":"_protocolFeeBips","type":"uint16","internalType":"uint16"}],"outputs":[],"stateMutability":"nonpayable"},{"type":"function","name":"sphereXEngine","inputs":[],"outputs":[{"name":"","type":"address","internalType":"address"}],"stateMutability":"view"},{"type":"function","name":"sphereXOperator","inputs":[],"outputs":[{"name":"","type":"address","internalType":"address"}],"stateMutability":"view"},{"type":"function","name":"symbol","inputs":[],"outputs":[{"name":"","type":"string","internalType":"string"}],"stateMutability":"view"},{"type":"function","name":"totalAssets","inputs":[],"outputs":[{"name":"","type":"uint256","internalType":"uint256"}],"stateMutability":"view"},{"type":"function","name":"totalDebts","inputs":[],"outputs":[{"name":"","type":"uint256","internalType":"uint256"}],"stateMutability":"view"},{"type":"function","name":"totalSupply","inputs":[],"outputs":[{"name":"","type":"uint256","internalType":"uint256"}],"stateMutability":"view"},{"type":"function","name":"transfer","inputs":[{"name":"to","type":"address","internalType":"address"},{"name":"amount","type":"uint256","internalType":"uint256"}],"outputs":[{"name":"","type":"bool","internalType":"bool"}],"stateMutability":"nonpayable"},{"type":"function","name":"transferFrom","inputs":[{"name":"from","type":"address","internalType":"address"},{"name":"to","type":"address","internalType":"address"},{"name":"amount","type":"uint256","internalType":"uint256"}],"outputs":[{"name":"","type":"bool","internalType":"bool"}],"stateMutability":"nonpayable"},{"type":"function","name":"updateState","inputs":[],"outputs":[],"stateMutability":"nonpayable"},{"type":"function","name":"version","inputs":[],"outputs":[{"name":"","type":"string","internalType":"string"}],"stateMutability":"pure"},{"type":"function","name":"withdrawableProtocolFees","inputs":[],"outputs":[{"name":"","type":"uint128","internalType":"uint128"}],"stateMutability":"view"},{"type":"function","name":"withdrawalBatchDuration","inputs":[],"outputs":[{"name":"","type":"uint256","internalType":"uint256"}],"stateMutability":"view"},{"type":"event","name":"AccountSanctioned","inputs":[{"name":"account","type":"address","indexed":true,"internalType":"address"}],"anonymous":false},{"type":"event","name":"AnnualInterestBipsUpdated","inputs":[{"name":"annualInterestBipsUpdated","type":"uint256","indexed":false,"internalType":"uint256"}],"anonymous":false},{"type":"event","name":"Approval","inputs":[{"name":"owner","type":"address","indexed":true,"internalType":"address"},{"name":"spender","type":"address","indexed":true,"internalType":"address"},{"name":"value","type":"uint256","indexed":false,"internalType":"uint256"}],"anonymous":false},{"type":"event","name":"Borrow","inputs":[{"name":"assetAmount","type":"uint256","indexed":false,"internalType":"uint256"}],"anonymous":false},{"type":"event","name":"ChangedSpherexEngineAddress","inputs":[{"name":"oldEngineAddress","type":"address","indexed":false,"internalType":"address"},{"name":"newEngineAddress","type":"address","indexed":false,"internalType":"address"}],"anonymous":false},{"type":"event","name":"ChangedSpherexOperator","inputs":[{"name":"oldSphereXAdmin","type":"address","indexed":false,"internalType":"address"},{"name":"newSphereXAdmin","type":"address","indexed":false,"internalType":"address"}],"anonymous":false},{"type":"event","name":"DebtRepaid","inputs":[{"name":"from","type":"address","indexed":true,"internalType":"address"},{"name":"assetAmount","type":"uint256","indexed":false,"internalType":"uint256"}],"anonymous":false},{"type":"event","name":"Deposit","inputs":[{"name":"account","type":"address","indexed":true,"internalType":"address"},{"name":"assetAmount","type":"uint256","indexed":false,"internalType":"uint256"},{"name":"scaledAmount","type":"uint256","indexed":false,"internalType":"uint256"}],"anonymous":false},{"type":"event","name":"FeesCollected","inputs":[{"name":"assets","type":"uint256","indexed":false,"internalType":"uint256"}],"anonymous":false},{"type":"event","name":"ForceBuyBack","inputs":[{"name":"lender","type":"address","indexed":true,"internalType":"address"},{"name":"scaledAmount","type":"uint256","indexed":false,"internalType":"uint256"},{"name":"normalizedAmount","type":"uint256","indexed":false,"internalType":"uint256"},{"name":"withdrawalExpiry","type":"uint32","indexed":false,"internalType":"uint32"}],"anonymous":false},{"type":"event","name":"InterestAndFeesAccrued","inputs":[{"name":"fromTimestamp","type":"uint256","indexed":false,"internalType":"uint256"},{"name":"toTimestamp","type":"uint256","indexed":false,"internalType":"uint256"},{"name":"scaleFactor","type":"uint256","indexed":false,"internalType":"uint256"},{"name":"baseInterestRay","type":"uint256","indexed":false,"internalType":"uint256"},{"name":"delinquencyFeeRay","type":"uint256","indexed":false,"internalType":"uint256"},{"name":"protocolFees","type":"uint256","indexed":false,"internalType":"uint256"}],"anonymous":false},{"type":"event","name":"MarketClosed","inputs":[{"name":"timestamp","type":"uint256","indexed":false,"internalType":"uint256"}],"anonymous":false},{"type":"event","name":"MaxTotalSupplyUpdated","inputs":[{"name":"assets","type":"uint256","indexed":false,"internalType":"uint256"}],"anonymous":false},{"type":"event","name":"ProtocolFeeBipsUpdated","inputs":[{"name":"protocolFeeBips","type":"uint256","indexed":false,"internalType":"uint256"}],"anonymous":false},{"type":"event","name":"ReserveRatioBipsUpdated","inputs":[{"name":"reserveRatioBipsUpdated","type":"uint256","indexed":false,"internalType":"uint256"}],"anonymous":false},{"type":"event","name":"SanctionedAccountAssetsQueuedForWithdrawal","inputs":[{"name":"account","type":"address","indexed":true,"internalType":"address"},{"name":"expiry","type":"uint256","indexed":false,"internalType":"uint256"},{"name":"scaledAmount","type":"uint256","indexed":false,"internalType":"uint256"},{"name":"normalizedAmount","type":"uint256","indexed":false,"internalType":"uint256"}],"anonymous":false},{"type":"event","name":"SanctionedAccountAssetsSentToEscrow","inputs":[{"name":"account","type":"address","indexed":true,"internalType":"address"},{"name":"escrow","type":"address","indexed":false,"internalType":"address"},{"name":"amount","type":"uint256","indexed":false,"internalType":"uint256"}],"anonymous":false},{"type":"event","name":"SanctionedAccountWithdrawalSentToEscrow","inputs":[{"name":"account","type":"address","indexed":true,"internalType":"address"},{"name":"escrow","type":"address","indexed":false,"internalType":"address"},{"name":"expiry","type":"uint32","indexed":false,"internalType":"uint32"},{"name":"amount","type":"uint256","indexed":false,"internalType":"uint256"}],"anonymous":false},{"type":"event","name":"StateUpdated","inputs":[{"name":"scaleFactor","type":"uint256","indexed":false,"internalType":"uint256"},{"name":"isDelinquent","type":"bool","indexed":false,"internalType":"bool"}],"anonymous":false},{"type":"event","name":"Transfer","inputs":[{"name":"from","type":"address","indexed":true,"internalType":"address"},{"name":"to","type":"address","indexed":true,"internalType":"address"},{"name":"value","type":"uint256","indexed":false,"internalType":"uint256"}],"anonymous":false},{"type":"event","name":"WithdrawalBatchClosed","inputs":[{"name":"expiry","type":"uint256","indexed":true,"internalType":"uint256"}],"anonymous":false},{"type":"event","name":"WithdrawalBatchCreated","inputs":[{"name":"expiry","type":"uint256","indexed":true,"internalType":"uint256"}],"anonymous":false},{"type":"event","name":"WithdrawalBatchExpired","inputs":[{"name":"expiry","type":"uint256","indexed":true,"internalType":"uint256"},{"name":"scaledTotalAmount","type":"uint256","indexed":false,"internalType":"uint256"},{"name":"scaledAmountBurned","type":"uint256","indexed":false,"internalType":"uint256"},{"name":"normalizedAmountPaid","type":"uint256","indexed":false,"internalType":"uint256"}],"anonymous":false},{"type":"event","name":"WithdrawalBatchPayment","inputs":[{"name":"expiry","type":"uint256","indexed":true,"internalType":"uint256"},{"name":"scaledAmountBurned","type":"uint256","indexed":false,"internalType":"uint256"},{"name":"normalizedAmountPaid","type":"uint256","indexed":false,"internalType":"uint256"}],"anonymous":false},{"type":"event","name":"WithdrawalExecuted","inputs":[{"name":"expiry","type":"uint256","indexed":true,"internalType":"uint256"},{"name":"account","type":"address","indexed":true,"internalType":"address"},{"name":"normalizedAmount","type":"uint256","indexed":false,"internalType":"uint256"}],"anonymous":false},{"type":"event","name":"WithdrawalQueued","inputs":[{"name":"expiry","type":"uint256","indexed":true,"internalType":"uint256"},{"name":"account","type":"address","indexed":true,"internalType":"address"},{"name":"scaledAmount","type":"uint256","indexed":false,"internalType":"uint256"},{"name":"normalizedAmount","type":"uint256","indexed":false,"internalType":"uint256"}],"anonymous":false},{"type":"error","name":"AccountBlocked","inputs":[]},{"type":"error","name":"AnnualInterestBipsTooHigh","inputs":[]},{"type":"error","name":"AprChangeOnClosedMarket","inputs":[]},{"type":"error","name":"BadLaunchCode","inputs":[]},{"type":"error","name":"BadRescueAsset","inputs":[]},{"type":"error","name":"BorrowAmountTooHigh","inputs":[]},{"type":"error","name":"BorrowFromClosedMarket","inputs":[]},{"type":"error","name":"BorrowWhileSanctioned","inputs":[]},{"type":"error","name":"BuyBackOnDelinquentMarket","inputs":[]},{"type":"error","name":"CapacityChangeOnClosedMarket","inputs":[]},{"type":"error","name":"CloseMarketWithUnpaidWithdrawals","inputs":[]},{"type":"error","name":"DepositToClosedMarket","inputs":[]},{"type":"error","name":"FIFOQueueOutOfBounds","inputs":[]},{"type":"error","name":"InsufficientReservesForFeeWithdrawal","inputs":[]},{"type":"error","name":"InsufficientReservesForNewLiquidityRatio","inputs":[]},{"type":"error","name":"InsufficientReservesForOldLiquidityRatio","inputs":[]},{"type":"error","name":"InvalidArrayLength","inputs":[]},{"type":"error","name":"MarketAlreadyClosed","inputs":[]},{"type":"error","name":"MaxSupplyExceeded","inputs":[]},{"type":"error","name":"NoReentrantCalls","inputs":[]},{"type":"error","name":"NotApprovedBorrower","inputs":[]},{"type":"error","name":"NotApprovedLender","inputs":[]},{"type":"error","name":"NotFactory","inputs":[]},{"type":"error","name":"NullBurnAmount","inputs":[]},{"type":"error","name":"NullBuyBackAmount","inputs":[]},{"type":"error","name":"NullFeeAmount","inputs":[]},{"type":"error","name":"NullMintAmount","inputs":[]},{"type":"error","name":"NullRepayAmount","inputs":[]},{"type":"error","name":"NullTransferAmount","inputs":[]},{"type":"error","name":"NullWithdrawalAmount","inputs":[]},{"type":"error","name":"ProtocolFeeChangeOnClosedMarket","inputs":[]},{"type":"error","name":"ProtocolFeeTooHigh","inputs":[]},{"type":"error","name":"RepayToClosedMarket","inputs":[]},{"type":"error","name":"ReserveRatioBipsTooHigh","inputs":[]},{"type":"error","name":"SphereXOperatorRequired","inputs":[]},{"type":"error","name":"WithdrawalBatchNotExpired","inputs":[]}],"bytecode":{"object":"0x610260604052346102185761001261021c565b60405161590090816104708239608051818181610f91015261107c015260a051818181610ca701528181610de2015281816112020152818161190f01528181611b2001528181611d35015281816120bd0152818161222001528181612323015281816124dd015281816126c0015281816137410152818161398501528181613e5e0152818161426c01526143e1015260c051818181612055015281816125e1015281816148b8015261542b015260e05181818161042401528181610d9d0152818161169501528181611ca40152818161200b0152818161247d015281816126300152818161488a01526153d8015261010051818181611a790152611c6e015261012051818181610eff01526121a5015261014051818181610f3a01528181613014015281816130f9015281816133fe01526134d301526101605181818161102d01528181612ff3015281816130d8015281816133dd01526134b2015261018051818181611853015261401601526101a05181610b8701526101c05181818161046701528181610c3501528181610d110152818161123901528181611fc5015281816120e8015281816121c6015281816126ec0152818161285501528181613a5101528181613a88015281816142980152818161439201526153ff01526101e051816106160152610200518161063a015261022051816117f1015261024051816118150152f35b5f80fd5b6103c26103bd610100338152610230610447565b80516103ac906001600160a01b03166101c09081528261039b61038461025a602084015160ff1690565b6101a09081526040840151946101e095865261038d6103846060870151976102009889528760808101519c6102209d8e5261033e60a083015191610240928352610120926102d76102d06102c56102b98789015160018060801b031690565b6001600160801b031690565b9a87015161ffff1690565b61ffff1690565b98610160996102ed6102d08c89015161ffff1690565b6103016102d0610140809a015161ffff1690565b9260081b5f55676765c793fa10079d606b1b9260201b9060301b179060401b4260c01b1717176003558c015160a0528b015160018060a01b031690565b60c09081528a01516001600160a01b031660e09081528a01516001600160a01b031690526103766102d0610180809b015161ffff1690565b90528a015163ffffffff1690565b63ffffffff1690565b905286015163ffffffff1690565b90528201516001600160a01b031690565b60805201516001600160a01b031690565b6103c4565b565b60018060a01b03608051165f80526020527f2ac55ae7ba47db34b5334622acafeb34a65daf143b47019273185d64c73a35a560405fa1807f1777adabd324f814e2b0e28f6edf876dce01d7d66358c9acfe87b1b5f38338d5556020527ff33499cccaa0611882086224cc48cd82ef54b66a4d2edf4ed67108dd516896d560405fa1565b6040516102608082016040526304032dbb5f5280826004601c335afa903d141615610218579056fe60806040526004361015610011575f80fd5b5f3560e01c8062ae3bf8146103de57806301e1d114146103d957806302372c4f146103d457806306fdde03146103cf578063088fee5e146103ca578063095ea7b3146103c55780630c1e3fea146103c05780630c3f6acf146103bb5780630cd1a5b6146103b657806311057cd0146103b157806314a1c32d146103ac57806318160ddd146103a75780631d8557d7146103a25780631da24f3e1461039d5780631e3cef531461039857806323b872dd146103935780632ab4d0521461038e578063313ce5671461038957806334bca29c14610384578063371fd8e61461037f57806338d52e0f1461037a5780633c231166146103755780633f3e4c1114610370578063469048401461036b5780634be687c6146103665780634c6c848f14610361578063514a4cd61461035c57806354635570146102c157806354b302c51461035757806354fd4d50146103525780636731ba6d1461034d578063683dd191146103485780636b174f351461034357806370a082311461033e5780637243d96c14610339578063739ccdd314610334578063740588591461032f578063766360171461032a5780637df1f1b914610325578063878eb9211461032057806395d89b411461031b5780639e6f980214610316578063a9059cbb14610311578063ae6ea1911461030c578063b1bf962d14610307578063b68ce7a214610302578063b6b55f25146102fd578063c2b6b58c146102f8578063c45a0155146102f3578063c511ed5e146102ee578063c5ebeaec146102e9578063c8796572146102e4578063cd7033c4146102df578063d98e0fe8146102da578063dbcd50b4146102d5578063dcd549d4146102d0578063dd62ed3e146102cb578063e5adc635146102c6578063e7e5db4f146102c1578063f58c251c146102bc5763f7962e07146102b7575f80fd5b612605565b6125b5565b611050565b612459565b6123de565b6122dd565b612267565b612243565b612209565b612120565b611ff5565b611c92565b611c42565b611c21565b611be0565b611bb7565b611b85565b611a39565b611876565b61183c565b6117d7565b6116fa565b611669565b611625565b6114eb565b611453565b6113ce565b611363565b6112a0565b61126c565b6110e8565b6110c4565b6110a0565b611016565b610f5d565b610f23565b610ed3565b610d87565b610d35565b610ce5565b610c03565b610bab565b610b6e565b610b3d565b610a41565b6109fa565b61099a565b61095e565b61091d565b6108f1565b6108cd565b61088b565b61085b565b610835565b6107e0565b610661565b6105fc565b61055e565b610506565b610405565b73ffffffffffffffffffffffffffffffffffffffff81160361040157565b5f80fd5b3461040157602060031936011261040157600435610422816103e3565b7f000000000000000000000000000000000000000000000000000000000000000033186104f95773ffffffffffffffffffffffffffffffffffffffff808216308114917f00000000000000000000000000000000000000000000000000000000000000001614176104ec576370a082315f5230602052602060346024601c845afa601f3d1116156104df575f6044601082602094336014526fa9059cbb00000000000000000000000082525af13d1560015f51141716156104df57005b6390b8ec185f526004601cfd5b6311530cde5f526004601cfd5b6302171e6a5f526004601cfd5b34610401575f600319360112610401576020610520612841565b604051908152f35b63ffffffff81160361040157565b60031960409101126104015760043561054e816103e3565b9060243561055b81610528565b90565b3461040157604061056e36610536565b6105c06105796128bf565b925f845263ffffffff60208501935f8552610592612ee0565b165f526008602052845f209073ffffffffffffffffffffffffffffffffffffffff165f5260205260405f2090565b54906cffffffffffffffffffffffffff82168093526fffffffffffffffffffffffffffffffff809260681c168152835192835251166020820152f35b34610401575f6003193601126104015760205f525f6020527f0000000000000000000000000000000000000000000000000000000000000000603f527f0000000000000000000000000000000000000000000000000000000000000000605f5260805ff35b346104015761066f36610536565b90610678612ee0565b63ffffffff9182811691428310156107d3576106f76106f26107819261079696610786966106a4612ef9565b9391506106af612989565b50160361079a576106cf909563ffffffff165f52600860205260405f2090565b9073ffffffffffffffffffffffffffffffffffffffff165f5260205260405f2090565b6129e9565b9161072d61071860208501516fffffffffffffffffffffffffffffffff1690565b6fffffffffffffffffffffffffffffffff1690565b9261076861075461075461071860408601516fffffffffffffffffffffffffffffffff1690565b92516cffffffffffffffffffffffffff1690565b6cffffffffffffffffffffffffff809116921690613175565b612a4f565b6040519081529081906020820190565b0390f35b506106cf6107be6107b98763ffffffff165f52600760205260405f2090565b6129a3565b9563ffffffff165f52600860205260405f2090565b632561b8805f526004601cfd5b3461040157604060031936011261040157610823600435610800816103e3565b6108086131a9565b61081e6108136131c3565b916024359033613207565b61504f565b5f63929eee145d602060405160018152f35b34610401575f6003193601126104015761084d612a5c565b506101c0610859612abe565bf35b34610401575f60031936011261040157610873612a5c565b5061087c612ee0565b6101c0610887612ef9565b5050f35b34610401575f600319360112610401576108a3612ee0565b60206fffffffffffffffffffffffffffffffff60406108c0612ef9565b5050015116604051908152f35b34610401575f60031936011261040157602061ffff60035460301c16604051908152f35b34610401575f60031936011261040157610909612ee0565b6020610520610916612ef9565b505061327d565b34610401575f60031936011261040157610935612ee0565b6020610520610942612ef9565b50506cffffffffffffffffffffffffff60808201511690614064565b34610401575f600319360112610401576109766131a9565b6109916109816131c3565b61081e61098c6132ce565b613527565b5f63929eee145d005b346104015760206003193601126104015773ffffffffffffffffffffffffffffffffffffffff6004356109cc816103e3565b6109d4612ee0565b165f52600460205260206cffffffffffffffffffffffffff60405f205416604051908152f35b34610401575f600319360112610401576020610a27610a17612ef9565b5050610a21612841565b906136bc565b6fffffffffffffffffffffffffffffffff60405191168152f35b3461040157606060031936011261040157600435610a5e816103e3565b602435610a6a816103e3565b604435610a756131a9565b610a7d6131c3565b9173ffffffffffffffffffffffffffffffffffffffff84165f526009602052610ac660405f203373ffffffffffffffffffffffffffffffffffffffff165f5260205260405f2090565b547fffffffffffffffffffffffffffffffffffffffffffffffffffffffffffffffff8103610b11575b509061081e91610afe946136f3565b5f63929eee145d60405160018152602090f35b9190818303928311610b3857610afe94610b2f61081e943383613207565b94509091610aef565b612a22565b34610401575f6003193601126104015760206fffffffffffffffffffffffffffffffff5f5460081c16604051908152f35b34610401575f60031936011261040157602060405160ff7f0000000000000000000000000000000000000000000000000000000000000000168152f35b34610401576020610bf4610bbe36610536565b9190610bc86131a9565b61081e610bee610bd66131c3565b92610bdf6132ce565b9560445f523615519187613883565b93613527565b5f63929eee145d604051908152f35b3461040157602060031936011261040157600435610c1f6131a9565b610c276131c3565b8115610cd857610c598230337f0000000000000000000000000000000000000000000000000000000000000000613ab6565b815f52337fe8b606ac1e5df7657db58d297ca8f41c090fc94c5fd2d6958f043e41736e9fa660205fa2610c8a6132ce565b918251610ccb576109919261098c61081e9260245f5282361551917f0000000000000000000000000000000000000000000000000000000000000000613b35565b6361d1bc8f5f526004601cfd5b637e0820885f526004601cfd5b34610401575f60031936011261040157602060405173ffffffffffffffffffffffffffffffffffffffff7f0000000000000000000000000000000000000000000000000000000000000000168152f35b34610401575f6003193601126104015760207f1777adabd324f814e2b0e28f6edf876dce01d7d66358c9acfe87b1b5f38338d55473ffffffffffffffffffffffffffffffffffffffff60405191168152f35b34610401576020600319360112610401576004357f000000000000000000000000000000000000000000000000000000000000000033186104f957610dca6131a9565b610dd26131c3565b610dda6132ce565b8051610ec6577f000000000000000000000000000000000000000000000000000000000000000060018160571c16610e4d575b5082610e3e61081e9261098c610e25610e4397613b9b565b6fffffffffffffffffffffffffffffffff166020830152565b613bba565b610e4b6131ba565b005b5f80917fffffffffffffffffffffffffffffffffffffffffffffffffffffffffffffffdc36019082601c6040519363849da12985528960208601526101c088604087015e610200908180870152806102208701526024610240870137360193019160601c5af115610ebe575f610e0d565b3d5f803e3d5ffd5b6381b210785f526004601cfd5b34610401575f60031936011261040157602060405173ffffffffffffffffffffffffffffffffffffffff7f0000000000000000000000000000000000000000000000000000000000000000168152f35b34610401575f6003193601126104015760206040517f00000000000000000000000000000000000000000000000000000000000000008152f35b3461040157602060031936011261040157600435610f7a816103e3565b73ffffffffffffffffffffffffffffffffffffffff7f0000000000000000000000000000000000000000000000000000000000000000163303611009577f1777adabd324f814e2b0e28f6edf876dce01d7d66358c9acfe87b1b5f38338d581815491555f526020527ff33499cccaa0611882086224cc48cd82ef54b66a4d2edf4ed67108dd516896d560405fa1005b634ee0b8f85f526004601cfd5b34610401575f6003193601126104015760206040517f00000000000000000000000000000000000000000000000000000000000000008152f35b34610401575f60031936011261040157602060405173ffffffffffffffffffffffffffffffffffffffff7f0000000000000000000000000000000000000000000000000000000000000000168152f35b34610401575f6003193601126104015760206105206110bd612ef9565b5050613be3565b34610401575f600319360112610401575f6040526101326041526020805260606020f35b34610401576040600319360112610401576004356111046131a9565b61110c6131c3565b8115159182611231575b61111e6132ce565b926111298451151590565b61122c576111ed575b5061118461113e612841565b61117e61071861116160608701516fffffffffffffffffffffffffffffffff1690565b60408701516fffffffffffffffffffffffffffffffff1690612be6565b90612a4f565b906111a1611193610718613c18565b602435818082039110020190565b5f925b816111ae85612c0a565b9410806111e4575b156111d757806111c96111d29287613c3a565b80820391110290565b6111a4565b610e438361081e87613527565b508015156111b6565b61122690836111ff60445f5236155190565b917f0000000000000000000000000000000000000000000000000000000000000000613b35565b5f611132565b610ccb565b61125d8130337f0000000000000000000000000000000000000000000000000000000000000000613ab6565b6112678133613b0b565b611116565b34610401575f60031936011261040157611284612ee0565b60206dffffffffffffffffffffffffffff6101806108c0612ef9565b34610401576020600319360112610401576004356112bc6131a9565b6112c46131c3565b6112cc6132ce565b916112ec6dffffffffffffffffffffffffffff61018085015116826154e0565b6113076cffffffffffffffffffffffffff82168092146154c7565b80156113565761079693611338926113329261132233613d9e565b9260245f52361551933391613e02565b9161504f565b5f63929eee145d60405163ffffffff90911681529081906020820190565b63d61c50f85f526004601cfd5b34610401576020600319360112610401576020610520600435611385816103e3565b61138d612ee0565b73ffffffffffffffffffffffffffffffffffffffff6113aa612ef9565b505091165f52600483526cffffffffffffffffffffffffff60405f20541690614064565b34610401575f600319360112610401576113e66131a9565b6113ee6131c3565b6113f66132ce565b9061140033613d9e565b916cffffffffffffffffffffffffff8351168015611356576107969382611332926114436dffffffffffffffffffffffffffff61018061133897015116826155b0565b9160045f52361551933391613e02565b34610401575f6003193601126104015761146b612ee0565b6020610520611478612ef9565b5050614084565b9181601f840112156104015782359167ffffffffffffffff8311610401576020808501948460051b01011161040157565b60209060206040818301928281528551809452019301915f5b8281106114d7575050505090565b8351855293810193928101926001016114c9565b346104015760406003193601126104015767ffffffffffffffff6004358181116104015761151d90369060040161147f565b90916024359081116104015761153790369060040161147f565b9190926115426131a9565b61154a6131c3565b938383036116185761156361155e84612c37565b612945565b938385527fffffffffffffffffffffffffffffffffffffffffffffffffffffffffffffffe061159185612c37565b013660208701376115a06132ce565b935f5b8181106115cf57610796876115bb8a61081e8a613527565b6115c36131ba565b604051918291826114b0565b806116076115e06001938589612c7c565b356115ea816103e3565b6115f5838789612c7c565b356115ff81610528565b36918a613883565b611611828a612c91565b52016115a3565b639d89020a5f526004601cfd5b34610401575f6003193601126104015761163d612ee0565b6020611647612ef9565b505061165a611654612841565b91614084565b90604051918082039111028152f35b34610401575f60031936011261040157602060405173ffffffffffffffffffffffffffffffffffffffff7f0000000000000000000000000000000000000000000000000000000000000000168152f35b60209060206040818301928281528551809452019301915f5b8281106116e0575050505090565b835163ffffffff16855293810193928101926001016116d2565b34610401575f60031936011261040157611712612ee0565b6005546fffffffffffffffffffffffffffffffff81169060801c818103908111610b385761174261155e82612c37565b918183527fffffffffffffffffffffffffffffffffffffffffffffffffffffffffffffffe061177083612c37565b013660208501375f5b82811061178e576040518061079686826116b9565b806117d16117bc6117b26117a460019587612ca5565b5f52600660205260405f2090565b5463ffffffff1690565b6117c68388612c91565b9063ffffffff169052565b01611779565b34610401575f6003193601126104015760205f525f6020527f0000000000000000000000000000000000000000000000000000000000000000603f527f0000000000000000000000000000000000000000000000000000000000000000605f5260805ff35b34610401575f6003193601126104015760206040517f00000000000000000000000000000000000000000000000000000000000000008152f35b3461040157604060031936011261040157600435611893816103e3565b6024359061189f6131a9565b6118a76131c3565b906118b06132ce565b926118d06dffffffffffffffffffffffffffff61018086015116826154e0565b916cffffffffffffffffffffffffff926118ee8482168092146154c7565b8015611a0a578561098c8261199861081e976119336108239b611a049789337f00000000000000000000000000000000000000000000000000000000000000006152af565b61193c33613d9e565b908061194b8582855116612e54565b168252335f9081526004602052604090205b9151166cffffffffffffffffffffffffff167fffffffffffffffffffffffffffffffffffffff00000000000000000000000000825416179055565b6119d76119c46119a787613d9e565b926119bf84516cffffffffffffffffffffffffff1690565b612ebf565b6cffffffffffffffffffffffffff168252565b6119ff8573ffffffffffffffffffffffffffffffffffffffff165f52600460205260405f2090565b612e73565b33614b62565b63ddee9b305f526004601cfd5b6004359061ffff8216820361040157565b6024359061ffff8216820361040157565b3461040157602060031936011261040157611a52611a17565b611a5a6131a9565b611a626131c3565b73ffffffffffffffffffffffffffffffffffffffff7f0000000000000000000000000000000000000000000000000000000000000000163303611b785761ffff82166103e88111611b7357611ab56132ce565b8051611b6e578061081e92610e4395610120830191611ae0611ad9845161ffff1690565b61ffff1690565b8103611af0575b50505050613527565b81611b6293611b447f4b34705283cdb9398d0e50b216b8fb424c6d4def5db9bfadc661ee3adc6076ee96611b4d947f0000000000000000000000000000000000000000000000000000000000000000614154565b9061ffff169052565b60405161ffff90911681529081906020820190565b0390a1805f8080611ae7565b614147565b61413a565b6332cc72365f526004601cfd5b34610401575f60031936011261040157611b9d612ee0565b60206cffffffffffffffffffffffffff60806108c0612ef9565b34610401576020600319360112610401576020611bd26131c3565b6105206113326004356141d2565b3461040157602060031936011261040157600435611bfc6131c3565b90611c06816141d2565b03611c1457610e4b9061504f565b638a164f635f526004601cfd5b34610401575f60031936011261040157602060ff5f54166040519015158152f35b34610401575f60031936011261040157602060405173ffffffffffffffffffffffffffffffffffffffff7f0000000000000000000000000000000000000000000000000000000000000000168152f35b34610401575f600319360112610401577f00000000000000000000000000000000000000000000000000000000000000008033186104f957611cd26131a9565b611cda6131c3565b611ce26132ce565b91611ced8351151590565b611ff057611d9790611cfd612841565b90611d078561327d565b9081831015611fa0575090611d1f81611d2f93612a4f565b90611d2a828761437e565b612ca5565b611d59847f000000000000000000000000000000000000000000000000000000000000000061445f565b5f610140850152600184526127106101608501525f61010085015261117e61071861116160608701516fffffffffffffffffffffffffffffffff1690565b60c08301805163ffffffff908116918280611e29575b50505050611dbc610718613c18565b905f905b828210611e11575050506cffffffffffffffffffffffffff611df260a08401516cffffffffffffffffffffffffff1690565b16611e0c57611e03610e4392613527565b61081e4261475c565b61474f565b611e218161117e60019388613c3a565b910190611dc0565b611e446107b98563ffffffff165f52600760205260405f2090565b6020810180516cffffffffffffffffffffffffff1689611e86611e7485516cffffffffffffffffffffffffff1690565b6cffffffffffffffffffffffffff1690565b6cffffffffffffffffffffffffff80931610611f44575b5090611f0f92915f8652806fffffffffffffffffffffffffffffffff611f046040611eec611ed888516cffffffffffffffffffffffffff1690565b96516cffffffffffffffffffffffffff1690565b9601516fffffffffffffffffffffffffffffffff1690565b1693169116846146c9565b611f1881614703565b4214611f25575b80611dad565b6117c6611f34611f3c94612d91565b928316614729565b5f8080611f1f565b886fffffffffffffffffffffffffffffffff611f6b8695949b8b611f7495611f0f996144b6565b90501690612a4f565b97611f9683611f918a63ffffffff165f52600760205260405f2090565b612cb2565b9091925089611e9d565b90808311611fb0575b5050611d2f565b91610781611fc1611fe99483612a4f565b80937f0000000000000000000000000000000000000000000000000000000000000000614344565b5f80611fa9565b614337565b34610401576020600319360112610401576004357f00000000000000000000000000000000000000000000000000000000000000008033186104f9576120396131a9565b6120416131c3565b906395c098395f5260205260205f6024601c7f00000000000000000000000000000000000000000000000000000000000000005afa60203d141615610ebe575f5161211b5761208e6132ce565b8051612116576120a561209f612841565b82614131565b8311612111578261210c826120e161081e94610e43977f00000000000000000000000000000000000000000000000000000000000000006147ac565b61098c83337f0000000000000000000000000000000000000000000000000000000000000000614344565b61482a565b61479f565b614792565b614785565b34610401575f600319360112610401576121386131a9565b6121406131c3565b6121486132ce565b9060408201916fffffffffffffffffffffffffffffffff9081845116156121fc5761217a612174612841565b826136bc565b8281169182156121ef57858461219c6121ea9461081e97610e439a5116612da6565b16905261098c837f00000000000000000000000000000000000000000000000000000000000000007f0000000000000000000000000000000000000000000000000000000000000000614344565b614853565b63f784cfa45f526004601cfd5b6345c835cb5f526004601cfd5b34610401575f6003193601126104015760206040517f00000000000000000000000000000000000000000000000000000000000000008152f35b34610401575f60031936011261040157602060035461ffff6040519160401c168152f35b3461040157602060031936011261040157606061229e60043561228981610528565b612291612989565b612299612ee0565b612dc8565b6fffffffffffffffffffffffffffffffff60408051926cffffffffffffffffffffffffff80825116855260208201511660208501520151166040820152f35b34610401576020600319360112610401576004356122fa816103e3565b6123026131a9565b61230a6131c3565b6123138261487c565b156123d1576123206132ce565b917f000000000000000000000000000000000000000000000000000000000000000060018160581c16612360575b508261098c61081e92610e43956148eb565b5f80917fffffffffffffffffffffffffffffffffffffffffffffffffffffffffffffffdc36019082601c60405193638b3ce9b385528760208601526101c08a604087015e610200908180870152806102208701526024610240870137360193019160601c5af115610ebe575f61234e565b63a97ab1675f526004601cfd5b34610401576040600319360112610401576020612450600435612400816103e3565b73ffffffffffffffffffffffffffffffffffffffff60243591612422836103e3565b165f526009835260405f209073ffffffffffffffffffffffffffffffffffffffff165f5260205260405f2090565b54604051908152f35b3461040157604060031936011261040157612472611a17565b61247a611a28565b907f000000000000000000000000000000000000000000000000000000000000000033186104f9576124aa6131a9565b6124b26131c3565b906124bb6132ce565b80516125b057612501816101608101956124da611ad9885161ffff1690565b947f00000000000000000000000000000000000000000000000000000000000000006149b2565b61ffff959186811694612710978887116125ab5783169788116125a657871192831561258a575b61254592612539919061ffff169052565b61ffff16610140840152565b612568575b9261256361081e9261255e610e4396613527565b614a83565b614aac565b9261257284614084565b61257a612841565b10612585579261254a565b614a76565b61259385614084565b61259b612841565b101561252857614a69565b614a5c565b614a4f565b6149a5565b34610401575f60031936011261040157602060405173ffffffffffffffffffffffffffffffffffffffff7f0000000000000000000000000000000000000000000000000000000000000000168152f35b3461040157604060031936011261040157600435612622816103e3565b6024359061262e6131a9565b7f000000000000000000000000000000000000000000000000000000000000000033186104f95761265d6132ce565b9161266b60e0840151151590565b61283c5761018083015161269890612693906dffffffffffffffffffffffffffff16836154e0565b613d82565b6cffffffffffffffffffffffffff8116908115612837578483612831926126e4610e439886897f0000000000000000000000000000000000000000000000000000000000000000614aef565b6127108288337f0000000000000000000000000000000000000000000000000000000000000000613ab6565b61278e61274361273e8973ffffffffffffffffffffffffffffffffffffffff165f52600460205260405f2090565b612e36565b6127666119c48461276184516cffffffffffffffffffffffffff1690565b612e54565b6119ff8973ffffffffffffffffffffffffffffffffffffffff165f52600460205260405f2090565b6127b961273e3373ffffffffffffffffffffffffffffffffffffffff165f52600460205260405f2090565b926127eb6127d8836119bf87516cffffffffffffffffffffffffff1690565b6cffffffffffffffffffffffffff168552565b612817846119ff3373ffffffffffffffffffffffffffffffffffffffff165f52600460205260405f2090565b61282283338a614b62565b60445f52361551933391613e02565b92614b8d565b614ae2565b614ad5565b6370a082315f523060205260205f6024601c7f00000000000000000000000000000000000000000000000000000000000000005afa601f3d111615612885575f5190565b634963f6d55f526004601cfd5b7f4e487b71000000000000000000000000000000000000000000000000000000005f52604160045260245ffd5b604051906040820182811067ffffffffffffffff8211176128df57604052565b612892565b604051906060820182811067ffffffffffffffff8211176128df57604052565b604051906101c0820182811067ffffffffffffffff8211176128df57604052565b604051906020820182811067ffffffffffffffff8211176128df57604052565b907fffffffffffffffffffffffffffffffffffffffffffffffffffffffffffffffe0601f604051930116820182811067ffffffffffffffff8211176128df57604052565b6129916128e4565b905f82525f60208301525f6040830152565b906fffffffffffffffffffffffffffffffff60016129bf6128e4565b9380546cffffffffffffffffffffffffff90818116875260681c1660208601520154166040830152565b906fffffffffffffffffffffffffffffffff612a036128bf565b92546cffffffffffffffffffffffffff8116845260681c166020830152565b7f4e487b71000000000000000000000000000000000000000000000000000000005f52601160045260245ffd5b91908203918211610b3857565b612a64612904565b905f82525f60208301525f60408301525f60608301525f60808301525f60a08301525f60c08301525f60e08301525f6101008301525f6101208301525f6101408301525f6101608301525f6101808301525f6101a0830152565b612ac6612904565b90612b0c5f54612adb60ff8216859015159052565b60081c6fffffffffffffffffffffffffffffffff9081166020850152600154908116604085015260801c6060840152565b6002546cffffffffffffffffffffffffff8082166080850152606882901c1660a084015263ffffffff60d082901c811660c0850152612bc391612b599060ff9060f01c16151560e0860152565b60035463ffffffff8282161661010086015261ffff602082901c8116610120870152603082901c8116610140870152604082901c16610160860152605081901c6dffffffffffffffffffffffffffff1661018086015260c01c166101a084019063ffffffff169052565b565b9060016fffffffffffffffffffffffffffffffff80931601918211610b3857565b9190916fffffffffffffffffffffffffffffffff80809416911601918211610b3857565b7fffffffffffffffffffffffffffffffffffffffffffffffffffffffffffffffff8114610b385760010190565b67ffffffffffffffff81116128df5760051b60200190565b7f4e487b71000000000000000000000000000000000000000000000000000000005f52603260045260245ffd5b9190811015612c8c5760051b0190565b612c4f565b8051821015612c8c5760209160051b010190565b91908201809211610b3857565b604060016fffffffffffffffffffffffffffffffff92612d166cffffffffffffffffffffffffff86511682906cffffffffffffffffffffffffff167fffffffffffffffffffffffffffffffffffffff00000000000000000000000000825416179055565b60208501517fffffffffffff00000000000000000000000000ffffffffffffffffffffffffff79ffffffffffffffffffffffffff0000000000000000000000000083549260681b16911617815501920151167fffffffffffffffffffffffffffffffff00000000000000000000000000000000825416179055565b90600163ffffffff80931601918211610b3857565b6fffffffffffffffffffffffffffffffff9182169082160391908211610b3857565b9190612dd2612ef9565b915063ffffffff809316928315159116831416612e3157505f5260076020526fffffffffffffffffffffffffffffffff600160405f2080546cffffffffffffffffffffffffff90818116875260681c1660208601520154166040830152565b925050565b906cffffffffffffffffffffffffff612e4d612925565b9254168252565b6cffffffffffffffffffffffffff9182169082160391908211610b3857565b6cffffffffffffffffffffffffff612bc39251166cffffffffffffffffffffffffff167fffffffffffffffffffffffffffffffffffffff00000000000000000000000000825416179055565b9190916cffffffffffffffffffffffffff80809416911601918211610b3857565b63929eee145c612eec57565b637fa8a9875f526004601cfd5b612f01612a5c565b505f612f0b612989565b612f13612abe565b92612f2d8460c063ffffffff910151168042119015151690565b613041575b6101a084015163ffffffff904290821603612fed575b60c085015163ffffffff16908116612f5d5750565b92509050612f7c6107b98363ffffffff165f52600760205260405f2090565b90612f9760208301516cffffffffffffffffffffffffff1690565b6cffffffffffffffffffffffffff612fbf611e7485516cffffffffffffffffffffffffff1690565b911610612fc857565b612fda612fd3612841565b8584614d1e565b80612fe25750565b612bc3908584614da7565b613039427f00000000000000000000000000000000000000000000000000000000000000007f000000000000000000000000000000000000000000000000000000000000000088614bbf565b505050612f48565b91505060c08201613056815163ffffffff1690565b9161307561306c6101a086015163ffffffff1690565b63ffffffff1690565b63ffffffff84169081036130d2575b505f6130a16107b98563ffffffff165f52600760205260405f2090565b926130b46130ad612841565b8786614d1e565b806130c1575b5052612f32565b6130cc908786614da7565b5f6130ba565b61311e907f00000000000000000000000000000000000000000000000000000000000000007f000000000000000000000000000000000000000000000000000000000000000087614bbf565b5050613084565b906b033b2e3c9fd0803ce800000091817fffffffffffffffffffffffffffffffffffffffffffffffffffffffffffffffff04811182021583021561316857020490565b63ad251c275f526004601cfd5b817fffffffffffffffffffffffffffffffffffffffffffffffffffffffffffffffff04811182021583021561316857020490565b63929eee14805c612eec576001905d565b5f63929eee145d565b604051608081019080821067ffffffffffffffff8311176128df5761055b9160405260608152606060208201525f60408201525f60608201525f3560e01c90614f6b565b909173ffffffffffffffffffffffffffffffffffffffff82165f526009602052806132538460405f209073ffffffffffffffffffffffffffffffffffffffff165f5260205260405f2090565b555f527f8c5be1e5ebec7d5bd14f71427d1e84f3dd0314c0f7b2291e5b200ac8c7c3b92560205fa3565b61329a6cffffffffffffffffffffffffff60808301511682614064565b906fffffffffffffffffffffffffffffffff90816060820151168301809311610b385760400151168101809111610b385790565b6132d6612a5c565b506132df612abe565b906132f98260c063ffffffff910151168042119015151690565b613467575b6101a082015163ffffffff908116428190036133d3575b5060c083015163ffffffff1690811661332b5750565b6133466107b98263ffffffff165f52600760205260405f2090565b60208101516cffffffffffffffffffffffffff166cffffffffffffffffffffffffff613382611e7484516cffffffffffffffffffffffffff1690565b91161061338e575b5050565b6133a0613399612841565b8583614d1e565b806133aa57505050565b826133bd611f9192612bc39588866144b6565b505063ffffffff165f52600760205260405f2090565b61346190613423427f00000000000000000000000000000000000000000000000000000000000000007f000000000000000000000000000000000000000000000000000000000000000088614bbf565b926134596134466101808a95949501516dffffffffffffffffffffffffffff1690565b6dffffffffffffffffffffffffffff1690565b9042906150bd565b5f613315565b61347b61306c60c084015163ffffffff1690565b61349061306c6101a085015163ffffffff1690565b8082036134a8575b50506134a382615107565b6132fe565b816134f8613520937f00000000000000000000000000000000000000000000000000000000000000007f000000000000000000000000000000000000000000000000000000000000000088614bbf565b93909261351a6134466101808a01516dffffffffffffffffffffffffffff1690565b916150bd565b5f80613498565b612bc39061353481614084565b61353c612841565b1060e08201819052908051151561356961071860208401516fffffffffffffffffffffffffffffffff1690565b60081b175f5561358f61071860408301516fffffffffffffffffffffffffffffffff1690565b6135af61071860608401516fffffffffffffffffffffffffffffffff1690565b60801b176001556135d3611e7460808301516cffffffffffffffffffffffffff1690565b6135f0611e7460a08401516cffffffffffffffffffffffffff1690565b61360461306c60c085015163ffffffff1690565b9060681b9060d01b8460f01b17171760025561362b61306c61010083015163ffffffff1690565b61363e611ad961012084015161ffff1690565b613651611ad961014085015161ffff1690565b90613665611ad961016086015161ffff1690565b9161369a61306c6101a061368e6134466101808a01516dffffffffffffffffffffffffffff1690565b97015163ffffffff1690565b9160201b9060301b179160401b908460501b9060c01b17171717600355615283565b906fffffffffffffffffffffffffffffffff91826060820151168203918211610b3857604083910151169081808203911002011690565b91906136fd6132ce565b9261371d6dffffffffffffffffffffffffffff61018086015116846154e0565b6cffffffffffffffffffffffffff6137398183168093146154c7565b8115611a0a577f0000000000000000000000000000000000000000000000000000000000000000600181605c1c166137fb575b509461098c6137f6926137bf612bc39861378587613d9e565b90806137948582855116612e54565b16825261195d8873ffffffffffffffffffffffffffffffffffffffff165f52600460205260405f2090565b6137ce6119c46119a788613d9e565b6119ff8673ffffffffffffffffffffffffffffffffffffffff165f52600460205260405f2090565b614b62565b5f80917fffffffffffffffffffffffffffffffffffffffffffffffffffffffffffffff9c9893983601906040519163a018f90e83523360208401528760408401528860608401528660808401526101c08660a085015e610260808401528061028084015260646102a084013782601c610220360193019160601c5af115610ebe57945f61376c565b909291926138a26107b98563ffffffff165f52600760205260405f2090565b936138b761306c60c085015163ffffffff1690565b9063ffffffff8116918214613ab1576138e2836106cf8363ffffffff165f52600860205260405f2090565b9461393561396061390660408a01516fffffffffffffffffffffffffffffffff1690565b986139556107188a54809c6cffffffffffffffffffffffffff968795516cffffffffffffffffffffffffff1690565b6fffffffffffffffffffffffffffffffff97889687921693169116613175565b9960681c1689612da6565b908116978815613aac576060876139f7613a189361055b9b6139a9613a2e988f9d8e8e7f000000000000000000000000000000000000000000000000000000000000000061535a565b907fffffff00000000000000000000000000000000ffffffffffffffffffffffffff7cffffffffffffffffffffffffffffffff0000000000000000000000000083549260681b169116179055565b0191613a1383516fffffffffffffffffffffffffffffffff1690565b612da6565b6fffffffffffffffffffffffffffffffff169052565b83613a388461487c565b15613a8057613a7b91613a4a856153ca565b613a7583827f0000000000000000000000000000000000000000000000000000000000000000614344565b85615462565b61549c565b613a7b9150837f0000000000000000000000000000000000000000000000000000000000000000614344565b61534d565b6107d3565b601c5f60649281946020966040519860605260405260601b602c526f23b872dd000000000000000000000000600c525af13d1560015f5114171615613afe575f606052604052565b637939f4245f526004601cfd5b905f527fe8b606ac1e5df7657db58d297ca8f41c090fc94c5fd2d6958f043e41736e9fa660205fa2565b600181605a1c16613b47575b50505050565b5f601c6101c08296958684973603928392604051986383d9e1eb8a5260208a0152604089015e61020080880152816102208801526102408701376102240193019160601c5af115610ebe575f808080613b41565b90612bc36fffffffffffffffffffffffffffffffff83168093146154c7565b5f527ff2672935fc79f5237559e2e2999dbe743bf65430894ac2b37666890e7c69e1af60205fa1565b6111c96fffffffffffffffffffffffffffffffff602083015116916cffffffffffffffffffffffffff60808201511690614064565b61055b6005546fffffffffffffffffffffffffffffffff81169060801c612da6565b9190600554906fffffffffffffffffffffffffffffffff918281169060801c8114613d58575f52600660205281613c9963ffffffff60405f2054169283613c926107b98263ffffffff165f52600760205260405f2090565b97886144b6565b90501693613cb981611f918463ffffffff165f52600760205260405f2090565b6cffffffffffffffffffffffffff6020818351169201511614613cda575050565b600554918083169260801c8314613d5857613d2983612bc3945f52600660205260405f207fffffffffffffffffffffffffffffffffffffffffffffffffffffffff000000008154169055612bc5565b167fffffffffffffffffffffffffffffffff000000000000000000000000000000006005541617600555614703565b60046040517f87274801000000000000000000000000000000000000000000000000000000008152fd5b90612bc36cffffffffffffffffffffffffff83168093146154c7565b905f613da8612925565b5273ffffffffffffffffffffffffffffffffffffffff82165f526004602052613def60405f206cffffffffffffffffffffffffff613de4612925565b91541681529261487c565b613df557565b636bc671fd5f526004601cfd5b9392959491909560c0850190613e1c825163ffffffff1690565b9763ffffffff92838a1615613fe5575b50938893613fa293613f9b84613ea061098c99613e826cffffffffffffffffffffffffff612bc39e9d9916978d898d8a7f0000000000000000000000000000000000000000000000000000000000000000615506565b6137ce6119c48461276184516cffffffffffffffffffffffffff1690565b613eab863086614b62565b613f38613ee5856106cf613ed06107b98d63ffffffff165f52600760205260405f2090565b9b63ffffffff165f52600860205260405f2090565b613f00836119bf83546cffffffffffffffffffffffffff1690565b6cffffffffffffffffffffffffff167fffffffffffffffffffffffffffffffffffffff00000000000000000000000000825416179055565b613f69613f56826119bf8b516cffffffffffffffffffffffffff1690565b6cffffffffffffffffffffffffff168952565b613f8860a08b01916119bf83516cffffffffffffffffffffffffff1690565b6cffffffffffffffffffffffffff169052565b8a16615580565b613fb4613fad612841565b8483614d1e565b80613fd3575b50611f918663ffffffff165f52600760205260405f2090565b613fdf908785846144b6565b50613fba565b936140539950613fa293613f9b899894613ea061098c999561404461306c61403e612bc39f6140149051151590565b7f000000000000000000000000000000000000000000000000000000000000000090815f03020190565b42612ca5565b9e8f809b6117c6888316614729565b959950509498995050935093613e2c565b906dffffffffffffffffffffffffffff61018061055b93015116906155b0565b6cffffffffffffffffffffffffff8060a08301511690608083015116818103908111610b38576140be9061ffff61016085015116906155ff565b908101809111610b38576140e8906dffffffffffffffffffffffffffff61018084015116906155b0565b6fffffffffffffffffffffffffffffffff6040830151168101809111610b385761412b610718606061055b9401516fffffffffffffffffffffffffffffffff1690565b90612ca5565b6111c990614084565b63499fddb15f526004601cfd5b6337f1a75f5f526004601cfd5b919060018360551c1661416657505050565b5f9283601c81946101c07fffffffffffffffffffffffffffffffffffffffffffffffffffffffffffffffdc360191604051966303473d8d88526020880152604087015e610200908180870152806102208701526024610240870137360193019160601c5af115610ebe57565b6141da6131a9565b6141e26132ce565b906141ed8251151590565b6143325761420a906141fe83613be3565b90818082039110020190565b906142366126936142306134466101808501516dffffffffffffffffffffffffffff1690565b846154e0565b906cffffffffffffffffffffffffff8216801561432d576143249261430561098c926142ed61426433613d9e565b6142908784337f0000000000000000000000000000000000000000000000000000000000000000615654565b6142bc8930337f0000000000000000000000000000000000000000000000000000000000000000613ab6565b6142da6119c4866119bf84516cffffffffffffffffffffffffff1690565b335f908152600460205260409020612e73565b6142fe87336137f65f805236155190565b86336156e0565b613f8860808401916119bf83516cffffffffffffffffffffffffff1690565b90612bc36131ba565b615647565b61563a565b63449e5f505f526004601cfd5b60105f60449260209582956014526034526fa9059cbb00000000000000000000000082525af13d1560015f51141716156104df575f603452565b8115610cd8578051610ccb576143b68230337f0000000000000000000000000000000000000000000000000000000000000000613ab6565b815f52337fe8b606ac1e5df7657db58d297ca8f41c090fc94c5fd2d6958f043e41736e9fa660205fa27f000000000000000000000000000000000000000000000000000000000000000091600183605a1c1661441157505050565b5f9283601c81946101c0600319360191604051966383d9e1eb88526020880152604087015e610200808601526102209080828701526004610240870137360193019160601c5af115610ebe57565b60018160591c1661446e575050565b5f91829182601c60031936016101c060405195639ecc64e68752602087015e6101e0808601526102009080828701526004610220870137360193019160601c5af115610ebe57565b929391614508916144d485516cffffffffffffffffffffffffff1690565b9460208101956cffffffffffffffffffffffffff94859161450289516cffffffffffffffffffffffffff1690565b90612e54565b1680156146bc57610180830197885161452e906dffffffffffffffffffffffffffff1690565b6dffffffffffffffffffffffffffff16614547916154e0565b81811090829003020161455990613d82565b965193871693614579906dffffffffffffffffffffffffffff1685613125565b61458290613b9b565b9587815161459c906cffffffffffffffffffffffffff1690565b906145a691612ebf565b6cffffffffffffffffffffffffff16905260400180516145d99087906fffffffffffffffffffffffffffffffff16612be6565b6fffffffffffffffffffffffffffffffff16905260a08101805161460d9088906cffffffffffffffffffffffffff16612e54565b6cffffffffffffffffffffffffff1690526060810180516146419087906fffffffffffffffffffffffffffffffff16612be6565b6fffffffffffffffffffffffffffffffff16905260800180516146749087906cffffffffffffffffffffffffff16612e54565b6cffffffffffffffffffffffffff1690525f8052361551906fffffffffffffffffffffffffffffffff8516918230916146ac92614b62565b63ffffffff1691612bc39261570e565b505f965086955050505050565b91929092604051935f526020526040527f9262dc39b47cad3a0512e4c08dda248cb345e7163058f300bc63f56bda288b6e60605fa2604052565b7fcbdf25bf6e096dd9030d89bb2ba2e3e7adb82d25a233c3ca3d92e9f098b74e555f80a2565b7f5c9a946d3041134198ebefcd814de7748def6576efd3d1b48f48193e183e89ef5f80a2565b634d7909975f526004601cfd5b5f527f9dc30b8eda31a6a144e092e5de600955523a6a925cc15cc1d1b9b4872cfa615560205fa1565b634a1c13a95f526004601cfd5b63d0242b285f526004601cfd5b63119fe6e35f526004601cfd5b9190600183605b1c166147be57505050565b5f9283601c81946101c07fffffffffffffffffffffffffffffffffffffffffffffffffffffffffffffffdc3601916040519663b1cfda0d88526020880152604087015e610200908180870152806102208701526024610240870137360193019160601c5af115610ebe57565b5f527fb848ae6b1253b6cb77e81464128ce8bd94d3d524fea54e801e0da869784dca3360205fa1565b5f527f860c0aa5520013080c2f65981705fcdea474d9f7c3daf954656ed5e65d692d1f60205fa1565b90604051916306e744445f527f000000000000000000000000000000000000000000000000000000000000000060205260405260205f6044601c7f00000000000000000000000000000000000000000000000000000000000000005afa60203d141615610ebe575f5191604052565b9073ffffffffffffffffffffffffffffffffffffffff81165f52600460205260405f20916cffffffffffffffffffffffffff614925612925565b93541692838152836149375750505050565b81614967918561495d6dffffffffffffffffffffffffffff6101808897015116826155b0565b9485923694613e02565b92604051935f526020526040527fe12b220b92469ae28fb0d79de531f94161431be9f073b96b8aad3effb88be6fa60605fa26040525f808080613b41565b63b9de88a25f526004601cfd5b91909260018360561c165f14614a485791604093916101c05f947fffffffffffffffffffffffffffffffffffffffffffffffffffffffffffffffbc36019287519563cc4526428752602087015287860152606085015e6102208084015280610240840152604461026084013782601c610200360193019160601c5af11560403d1017610ebe5761ffff90815f5116916020511690565b5090509091565b63cf1f916f5f526004601cfd5b638ec830735f526004601cfd5b630a68e5bf5f526004601cfd5b63253ecbb95f526004601cfd5b5f527fff7b6c8be373823323d3c5d99f5d027dd409dce5db54eae511bbdd5546b7503760205fa1565b5f527f72877a153052500f5edbb2f9da96a0f45d671d4b4555fdf8628a709dc4eab43a60205fa1565b631707a7b75f526004601cfd5b63503941205f526004601cfd5b5f93926101c085947fffffffffffffffffffffffffffffffffffffffffffffffffffffffffffffffbc3601926040519563726303ef875260208701526040860152606085015e6102208084015280610240840152604461026084013782601c610200360193019160601c5af115610ebe57565b90915f527fddf252ad1be2c89b69c2b068fc378daa952ba7f163c4a11628f55a4df523b3ef60205fa3565b9291905f526020526040527fd26ddbc1840a7e87449ec6172fa0ba67fadecc95a60ab7ec01d8f712b4d8cda360605fa2565b92939190915f925f9261ffff968761014088015116916101a088019363ffffffff93848651168403848111610b3857614bf791615856565b809a6101208b01511680614c99575b505080614c77575b5050614c6c610180612bc39596979801614c58614c538b61412b614c4d8d614c4761344688516dffffffffffffffffffffffffffff1690565b93612ca5565b826155b0565b615775565b6dffffffffffffffffffffffffffff169052565b1663ffffffff169052565b612bc395969750614c90614c6c9261018092858c61573c565b97969550614c0e565b614ce292985090614ca9916155ff565b614cdc6cffffffffffffffffffffffffff60808c015116916dffffffffffffffffffffffffffff6101808d0151166155b0565b906155b0565b604089016fffffffffffffffffffffffffffffffff908181511691838301809311610b3857614d159083168093146154c7565b5295895f614c06565b614d4c6cffffffffffffffffffffffffff916145028360a08601511691846020818351169201511690612e54565b16906fffffffffffffffffffffffffffffffff90614d8782606083015116936dffffffffffffffffffffffffffff61018084015116906155b0565b8301809311610b385760400151168101809111610b385780820391110290565b80516cffffffffffffffffffffffffff1690614de960208201926cffffffffffffffffffffffffff91829161450286516cffffffffffffffffffffffffff1690565b168015614f63576101808501958651614e0f906dffffffffffffffffffffffffffff1690565b6dffffffffffffffffffffffffffff16614e28916154e0565b818110908290030201614e3a90613d82565b9451614e5a916dffffffffffffffffffffffffffff909116908616613125565b614e6390613b9b565b91848151614e7d906cffffffffffffffffffffffffff1690565b90614e8791612ebf565b6cffffffffffffffffffffffffff1690526040018051614eba9083906fffffffffffffffffffffffffffffffff16612be6565b6fffffffffffffffffffffffffffffffff16905260a082018051614eee9085906cffffffffffffffffffffffffff16612e54565b6cffffffffffffffffffffffffff16905260608201908151614f1f906fffffffffffffffffffffffffffffffff1690565b90614f2991612be6565b6fffffffffffffffffffffffffffffffff169052608001908151614f59906cffffffffffffffffffffffffff1690565b90613f8891612e54565b505050505050565b90819073ffffffffffffffffffffffffffffffffffffffff7f1777adabd324f814e2b0e28f6edf876dce01d7d66358c9acfe87b1b5f38338d55416918260608501528215615048575060405190638925ca5a825260405f60209483868601523383860152606080860152366080860152368260a08701373660c4019082601c8701915af1835f51141615610ebe5760808361055b945160051b809460e06003830282010160405282820183823e80885201925f038184015281606084015285019260a08301845260a0019101525a60408401528251905190615792565b9392505050565b606081019073ffffffffffffffffffffffffffffffffffffffff8251161561338a575f8082518051908160061b9561508c60c08884010183615792565b519160051b019360405a91015103604085015283519463f0bd9468855260c4019082601c8601915af115610ebe5752565b927f18247a393d0531b65fbd94f5e78bc5639801a4efda62ae7b43533c4442116c3a959260c09592604051958652602086015260408501526060840152608083015260a0820152a1565b612bc390611f9160c082015f615121825163ffffffff1690565b9161513d6107b98463ffffffff165f52600760205260405f2090565b94602086019061515a82516cffffffffffffffffffffffffff1690565b90615175611e7489516cffffffffffffffffffffffffff1690565b6cffffffffffffffffffffffffff80931610615253575b506152026151a788516cffffffffffffffffffffffffff1690565b926151ef6151c282516cffffffffffffffffffffffffff1690565b60408b015163ffffffff8a16966fffffffffffffffffffffffffffffffff909116918616908616876146c9565b516cffffffffffffffffffffffffff1690565b9061521d611e7489516cffffffffffffffffffffffffff1690565b91161083146152455750615230836157ca565b5263ffffffff165f52600760205260405f2090565b61524e90614703565b615230565b61526561525e612841565b828a614d1e565b8681615273575b505061518c565b61527d928a6144b6565b8661526c565b5f526020527f9385f9ff65bcd2fb81cece54b27d4ec7376795fc4dcff686e370e347b0ed86c060405fa1565b9091939293600182605c1c166152c7575b5050505050565b6101c05f959486957fffffffffffffffffffffffffffffffffffffffffffffffffffffffffffffffbc3601936040519663a018f90e885233602089015260408801526060870152608086015260a085015e610260808401528061028084015260446102a084013782601c610240360193019160601c5af115610ebe575f808080806152c0565b63186334fe5f526004601cfd5b9091600182605d1c1661536e575050505050565b601c5f9594869592836101c08895360393849360405199632970403d8b5260208b015260408a0152606089015e61022080880152816102408801526102608701376102440193019160601c5af115610ebe575f808080806152c0565b906040519163a1054f6b5f527f00000000000000000000000000000000000000000000000000000000000000006020526040527f000000000000000000000000000000000000000000000000000000000000000060605260205f6064601c827f00000000000000000000000000000000000000000000000000000000000000005af160203d141615610ebe575f51916040525f606052565b91929092604051935f526020526040527f0d0843a0fcb8b83f625aafb6e42f234ac48c6728b207d52d97cfa8fbd34d498f60605fa2604052565b90915f527fd6cddb3d69146e96ebc2c87b1b3dd0b20ee2d3b0eadf134e011afb434a3e56e660205fa3565b156154ce57565b634e487b715f5260116020526024601cfd5b8160011c906b033b2e3c9fd0803ce8000000908183190481118415176154ce5702010490565b919394909294600183605e1c1661551f57505050505050565b5f958695836101c0601c94899636039485946040519a633521cccc8c5260208c015260408b015260608a0152608089015e61024080880152816102608801526102808701376102640193019160601c5af115610ebe575f8080808080614f63565b919290925f526020527fecc966b282a372469fa4d3e497c2ac17983c3eaed03f3f17c9acf4b15591663e60405fa3565b817ffffffffffffffffffffffffffffffffffffffffffe6268e1b017bfe18bffffff04811115821517156154ce576b033b2e3c9fd0803ce800000091026b019d971e4fe8401e74000000010490565b817fffffffffffffffffffffffffffffffffffffffffffffffffffffffffffffec7704811115821517156154ce576127109102611388010490565b6322d7c0435f526004601cfd5b63e4aa50555f526004601cfd5b929192600181605f1c166156685750505050565b5f601c81956101c083967fffffffffffffffffffffffffffffffffffffffffffffffffffffffffffffffdc36019260405197635aeb713f895260208901526040880152606087015e610220908180870152806102408701526024610260870137360193019160601c5af115610ebe575f808080613b41565b91905f526020527f90890809c654f11d6e72a28fa60149770a0d11ec6c92319d6ceb2bb0a4ea1a1560405fa2565b91905f526020527f5272034725119f19d7236de4129fdb5093f0dcb80282ca5edbd587df91d2bd8960405fa2565b909392935f9463ffffffff6101a0840151168203918211610b385761576092615888565b908161576a575050565b61055b929350615856565b90612bc36dffffffffffffffffffffffffffff83168093146154c7565b9190825190818152602080809501918181019360051b0101915b8281106157ba575050509050565b81515481529084019084016157ac565b6158149060055460801c90815f52600660205263ffffffff60405f2091167fffffffffffffffffffffffffffffffffffffffffffffffffffffffff00000000825416179055612bc5565b6fffffffffffffffffffffffffffffffff7fffffffffffffffffffffffffffffffff000000000000000000000000000000006005549260801b16911617600555565b69152d02c7e14af68000008082029180828404036154ce57830202918183041490151715610b38576301e13380900490565b90610100820163ffffffff9060e0828251169401516158c8576158b6858503868611029283168093146154c7565b52808203911102818082039110020190565b848493940191828411610b38576158e39083168093146154c7565b528082039111028082039111029056fea164736f6c6343000819000a","linkReferences":{}},"methodIdentifiers":{"accruedProtocolFees()":"0cd1a5b6","allowance(address,address)":"dd62ed3e","annualInterestBips()":"11057cd0","approve(address,uint256)":"095ea7b3","archController()":"54635570","asset()":"38d52e0f","balanceOf(address)":"70a08231","borrow(uint256)":"c5ebeaec","borrowableAssets()":"76636017","borrower()":"7df1f1b9","changeSphereXEngine(address)":"4c6c848f","closeMarket()":"c511ed5e","collectFees()":"c8796572","coverageLiquidity()":"739ccdd3","currentState()":"0c3f6acf","decimals()":"313ce567","delinquencyFeeBips()":"4be687c6","delinquencyGracePeriod()":"514a4cd6","deposit(uint256)":"b6b55f25","depositUpTo(uint256)":"b68ce7a2","executeWithdrawal(address,uint32)":"34bca29c","executeWithdrawals(address[],uint32[])":"74058859","factory()":"c45a0155","feeRecipient()":"46904840","forceBuyBack(address,uint256)":"f7962e07","getAccountWithdrawalStatus(address,uint32)":"02372c4f","getAvailableWithdrawalAmount(address,uint32)":"088fee5e","getUnpaidBatchExpiries()":"878eb921","getWithdrawalBatch(uint32)":"dbcd50b4","hooks()":"cd7033c4","isClosed()":"c2b6b58c","maxTotalSupply()":"2ab4d052","maximumDeposit()":"54b302c5","name()":"06fdde03","nukeFromOrbit(address)":"dcd549d4","previousState()":"0c1e3fea","queueFullWithdrawal()":"7243d96c","queueWithdrawal(uint256)":"6b174f35","repay(uint256)":"371fd8e6","repayAndProcessUnpaidWithdrawalBatches(uint256,uint256)":"6731ba6d","rescueTokens(address)":"00ae3bf8","reserveRatioBips()":"d98e0fe8","scaleFactor()":"683dd191","scaledBalanceOf(address)":"1da24f3e","scaledTotalSupply()":"b1bf962d","sentinel()":"f58c251c","setAnnualInterestAndReserveRatioBips(uint16,uint16)":"e5adc635","setMaxTotalSupply(uint256)":"3f3e4c11","setProtocolFeeBips(uint16)":"ae6ea191","sphereXEngine()":"3c231166","sphereXOperator()":"e7e5db4f","symbol()":"95d89b41","totalAssets()":"01e1d114","totalDebts()":"14a1c32d","totalSupply()":"18160ddd","transfer(address,uint256)":"a9059cbb","transferFrom(address,address,uint256)":"23b872dd","updateState()":"1d8557d7","version()":"54fd4d50","withdrawableProtocolFees()":"1e3cef53","withdrawalBatchDuration()":"9e6f9802"},"id":78}