{"abi":[{"type":"function","name":"getCredential","inputs":[{"name":"","type":"address","internalType":"address"}],"outputs":[{"name":"timestamp","type":"uint32","internalType":"uint32"}],"stateMutability":"view"},{"type":"function","name":"isPullProvider","inputs":[],"outputs":[{"name":"","type":"bool","internalType":"bool"}],"stateMutability":"view"},{"type":"function","name":"validateCredential","inputs":[{"name":"","type":"address","internalType":"address"},{"name":"","type":"bytes","internalType":"bytes"}],"outputs":[{"name":"timestamp","type":"uint32","internalType":"uint32"}],"stateMutability":"view"}],"bytecode":{"object":"0x6080806040523460155761016d908161001a8239f35b5f80fdfe6080806040526004361015610012575f80fd5b5f3560e01c908163256909f1146101065750806354560cb2146100895763ccdad14b1461003d575f80fd5b346100855760207ffffffffffffffffffffffffffffffffffffffffffffffffffffffffffffffffc3601126100855761007461013d565b50602060405163ffffffff42168152f35b5f80fd5b346100855760407ffffffffffffffffffffffffffffffffffffffffffffffffffffffffffffffffc360112610085576100c061013d565b5060243567ffffffffffffffff8082116100855736602383011215610085578160040135908111610085573691016024011161008557602060405163ffffffff42168152f35b34610085575f7ffffffffffffffffffffffffffffffffffffffffffffffffffffffffffffffffc3601126100855780600160209252f35b6004359073ffffffffffffffffffffffffffffffffffffffff821682036100855756fea164736f6c6343000819000a","linkReferences":{}},"methodIdentifiers":{"getCredential(address)":"ccdad14b","isPullProvider()":"256909f1","validateCredential(address,bytes)":"54560cb2"},"id":31}