{"abi":[{"type":"constructor","inputs":[{"name":"_archController","type":"address","internalType":"address"},{"name":"_hooksFactory","type":"address","internalType":"address"}],"stateMutability":"nonpayable"},{"type":"function","name":"archController","inputs":[],"outputs":[{"name":"","type":"address","internalType":"contract WildcatArchController"}],"stateMutability":"view"},{"type":"function","name":"getAllHooksTemplatesForBorrower","inputs":[{"name":"borrower","type":"address","internalType":"address"}],"outputs":[{"name":"data","type":"tuple[]","internalType":"struct HooksTemplateData[]","components":[{"name":"hooksTemplate","type":"address","internalType":"address"},{"name":"fees","type":"tuple","internalType":"struct FeeConfiguration","components":[{"name":"feeRecipient","type":"address","internalType":"address"},{"name":"protocolFeeBips","type":"uint16","internalType":"uint16"},{"name":"originationFeeToken","type":"tuple","internalType":"struct TokenMetadata","components":[{"name":"token","type":"address","internalType":"address"},{"name":"name","type":"string","internalType":"string"},{"name":"symbol","type":"string","internalType":"string"},{"name":"decimals","type":"uint256","internalType":"uint256"},{"name":"isMock","type":"bool","internalType":"bool"}]},{"name":"originationFeeAmount","type":"uint256","internalType":"uint256"},{"name":"borrowerOriginationFeeBalance","type":"uint256","internalType":"uint256"},{"name":"borrowerOriginationFeeApproval","type":"uint256","internalType":"uint256"}]},{"name":"exists","type":"bool","internalType":"bool"},{"name":"enabled","type":"bool","internalType":"bool"},{"name":"index","type":"uint24","internalType":"uint24"},{"name":"name","type":"string","internalType":"string"},{"name":"totalMarkets","type":"uint256","internalType":"uint256"}]}],"stateMutability":"view"},{"type":"function","name":"getAllMarketsDataForHooksTemplate","inputs":[{"name":"hooksTemplate","type":"address","internalType":"address"}],"outputs":[{"name":"data","type":"tuple[]","internalType":"struct MarketData[]","components":[{"name":"marketToken","type":"tuple","internalType":"struct TokenMetadata","components":[{"name":"token","type":"address","internalType":"address"},{"name":"name","type":"string","internalType":"string"},{"name":"symbol","type":"string","internalType":"string"},{"name":"decimals","type":"uint256","internalType":"uint256"},{"name":"isMock","type":"bool","internalType":"bool"}]},{"name":"underlyingToken","type":"tuple","internalType":"struct TokenMetadata","components":[{"name":"token","type":"address","internalType":"address"},{"name":"name","type":"string","internalType":"string"},{"name":"symbol","type":"string","internalType":"string"},{"name":"decimals","type":"uint256","internalType":"uint256"},{"name":"isMock","type":"bool","internalType":"bool"}]},{"name":"hooksFactory","type":"address","internalType":"address"},{"name":"borrower","type":"address","internalType":"address"},{"name":"hooksConfig","type":"tuple","internalType":"struct MarketHooksData","components":[{"name":"hooksAddress","type":"address","internalType":"address"},{"name":"flags","type":"tuple","internalType":"struct HooksConfigData","components":[{"name":"useOnDeposit","type":"bool","internalType":"bool"},{"name":"useOnQueueWithdrawal","type":"bool","internalType":"bool"},{"name":"useOnExecuteWithdrawal","type":"bool","internalType":"bool"},{"name":"useOnTransfer","type":"bool","internalType":"bool"},{"name":"useOnBorrow","type":"bool","internalType":"bool"},{"name":"useOnRepay","type":"bool","internalType":"bool"},{"name":"useOnCloseMarket","type":"bool","internalType":"bool"},{"name":"useOnNukeFromOrbit","type":"bool","internalType":"bool"},{"name":"useOnSetMaxTotalSupply","type":"bool","internalType":"bool"},{"name":"useOnSetAnnualInterestAndReserveRatioBips","type":"bool","internalType":"bool"},{"name":"useOnSetProtocolFeeBips","type":"bool","internalType":"bool"}]},{"name":"kind","type":"uint8","internalType":"enum HooksInstanceKind"},{"name":"transferRequiresAccess","type":"bool","internalType":"bool"},{"name":"depositRequiresAccess","type":"bool","internalType":"bool"},{"name":"minimumDeposit","type":"uint128","internalType":"uint128"},{"name":"transfersDisabled","type":"bool","internalType":"bool"},{"name":"withdrawalRequiresAccess","type":"bool","internalType":"bool"},{"name":"fixedTermEndTime","type":"uint32","internalType":"uint32"},{"name":"allowClosureBeforeTerm","type":"bool","internalType":"bool"},{"name":"allowTermReduction","type":"bool","internalType":"bool"}]},{"name":"withdrawalBatchDuration","type":"uint256","internalType":"uint256"},{"name":"feeRecipient","type":"address","internalType":"address"},{"name":"delinquencyFeeBips","type":"uint256","internalType":"uint256"},{"name":"delinquencyGracePeriod","type":"uint256","internalType":"uint256"},{"name":"hooks","type":"tuple","internalType":"struct HooksInstanceData","components":[{"name":"hooksAddress","type":"address","internalType":"address"},{"name":"borrower","type":"address","internalType":"address"},{"name":"name","type":"string","internalType":"string"},{"name":"kind","type":"uint8","internalType":"enum HooksInstanceKind"},{"name":"hooksTemplate","type":"tuple","internalType":"struct HooksTemplateData","components":[{"name":"hooksTemplate","type":"address","internalType":"address"},{"name":"fees","type":"tuple","internalType":"struct FeeConfiguration","components":[{"name":"feeRecipient","type":"address","internalType":"address"},{"name":"protocolFeeBips","type":"uint16","internalType":"uint16"},{"name":"originationFeeToken","type":"tuple","internalType":"struct TokenMetadata","components":[{"name":"token","type":"address","internalType":"address"},{"name":"name","type":"string","internalType":"string"},{"name":"symbol","type":"string","internalType":"string"},{"name":"decimals","type":"uint256","internalType":"uint256"},{"name":"isMock","type":"bool","internalType":"bool"}]},{"name":"originationFeeAmount","type":"uint256","internalType":"uint256"},{"name":"borrowerOriginationFeeBalance","type":"uint256","internalType":"uint256"},{"name":"borrowerOriginationFeeApproval","type":"uint256","internalType":"uint256"}]},{"name":"exists","type":"bool","internalType":"bool"},{"name":"enabled","type":"bool","internalType":"bool"},{"name":"index","type":"uint24","internalType":"uint24"},{"name":"name","type":"string","internalType":"string"},{"name":"totalMarkets","type":"uint256","internalType":"uint256"}]},{"name":"constraints","type":"tuple","internalType":"struct MarketParameterConstraints","components":[{"name":"minimumDelinquencyGracePeriod","type":"uint32","internalType":"uint32"},{"name":"maximumDelinquencyGracePeriod","type":"uint32","internalType":"uint32"},{"name":"minimumReserveRatioBips","type":"uint16","internalType":"uint16"},{"name":"maximumReserveRatioBips","type":"uint16","internalType":"uint16"},{"name":"minimumDelinquencyFeeBips","type":"uint16","internalType":"uint16"},{"name":"maximumDelinquencyFeeBips","type":"uint16","internalType":"uint16"},{"name":"minimumWithdrawalBatchDuration","type":"uint32","internalType":"uint32"},{"name":"maximumWithdrawalBatchDuration","type":"uint32","internalType":"uint32"},{"name":"minimumAnnualInterestBips","type":"uint16","internalType":"uint16"},{"name":"maximumAnnualInterestBips","type":"uint16","internalType":"uint16"}]},{"name":"deploymentFlags","type":"tuple","internalType":"struct HooksDeploymentFlags","components":[{"name":"optional","type":"tuple","internalType":"struct HooksConfigData","components":[{"name":"useOnDeposit","type":"bool","internalType":"bool"},{"name":"useOnQueueWithdrawal","type":"bool","internalType":"bool"},{"name":"useOnExecuteWithdrawal","type":"bool","internalType":"bool"},{"name":"useOnTransfer","type":"bool","internalType":"bool"},{"name":"useOnBorrow","type":"bool","internalType":"bool"},{"name":"useOnRepay","type":"bool","internalType":"bool"},{"name":"useOnCloseMarket","type":"bool","internalType":"bool"},{"name":"useOnNukeFromOrbit","type":"bool","internalType":"bool"},{"name":"useOnSetMaxTotalSupply","type":"bool","internalType":"bool"},{"name":"useOnSetAnnualInterestAndReserveRatioBips","type":"bool","internalType":"bool"},{"name":"useOnSetProtocolFeeBips","type":"bool","internalType":"bool"}]},{"name":"required","type":"tuple","internalType":"struct HooksConfigData","components":[{"name":"useOnDeposit","type":"bool","internalType":"bool"},{"name":"useOnQueueWithdrawal","type":"bool","internalType":"bool"},{"name":"useOnExecuteWithdrawal","type":"bool","internalType":"bool"},{"name":"useOnTransfer","type":"bool","internalType":"bool"},{"name":"useOnBorrow","type":"bool","internalType":"bool"},{"name":"useOnRepay","type":"bool","internalType":"bool"},{"name":"useOnCloseMarket","type":"bool","internalType":"bool"},{"name":"useOnNukeFromOrbit","type":"bool","internalType":"bool"},{"name":"useOnSetMaxTotalSupply","type":"bool","internalType":"bool"},{"name":"useOnSetAnnualInterestAndReserveRatioBips","type":"bool","internalType":"bool"},{"name":"useOnSetProtocolFeeBips","type":"bool","internalType":"bool"}]}]},{"name":"pullProviders","type":"tuple[]","internalType":"struct RoleProviderData[]","components":[{"name":"timeToLive","type":"uint32","internalType":"uint32"},{"name":"providerAddress","type":"address","internalType":"address"},{"name":"pullProviderIndex","type":"uint24","internalType":"uint24"},{"name":"pushProviderIndex","type":"uint24","internalType":"uint24"}]},{"name":"pushProviders","type":"tuple[]","internalType":"struct RoleProviderData[]","components":[{"name":"timeToLive","type":"uint32","internalType":"uint32"},{"name":"providerAddress","type":"address","internalType":"address"},{"name":"pullProviderIndex","type":"uint24","internalType":"uint24"},{"name":"pushProviderIndex","type":"uint24","internalType":"uint24"}]},{"name":"totalMarkets","type":"uint256","internalType":"uint256"}]},{"name":"temporaryReserveRatio","type":"bool","internalType":"bool"},{"name":"originalAnnualInterestBips","type":"uint256","internalType":"uint256"},{"name":"originalReserveRatioBips","type":"uint256","internalType":"uint256"},{"name":"temporaryReserveRatioExpiry","type":"uint256","internalType":"uint256"},{"name":"isClosed","type":"bool","internalType":"bool"},{"name":"protocolFeeBips","type":"uint256","internalType":"uint256"},{"name":"reserveRatioBips","type":"uint256","internalType":"uint256"},{"name":"annualInterestBips","type":"uint256","internalType":"uint256"},{"name":"scaleFactor","type":"uint256","internalType":"uint256"},{"name":"totalSupply","type":"uint256","internalType":"uint256"},{"name":"maxTotalSupply","type":"uint256","internalType":"uint256"},{"name":"scaledTotalSupply","type":"uint256","internalType":"uint256"},{"name":"totalAssets","type":"uint256","internalType":"uint256"},{"name":"lastAccruedProtocolFees","type":"uint256","internalType":"uint256"},{"name":"normalizedUnclaimedWithdrawals","type":"uint256","internalType":"uint256"},{"name":"scaledPendingWithdrawals","type":"uint256","internalType":"uint256"},{"name":"pendingWithdrawalExpiry","type":"uint256","internalType":"uint256"},{"name":"isDelinquent","type":"bool","internalType":"bool"},{"name":"timeDelinquent","type":"uint256","internalType":"uint256"},{"name":"lastInterestAccruedTimestamp","type":"uint256","internalType":"uint256"},{"name":"unpaidWithdrawalBatchExpiries","type":"uint32[]","internalType":"uint32[]"},{"name":"coverageLiquidity","type":"uint256","internalType":"uint256"}]}],"stateMutability":"view"},{"type":"function","name":"getHooksDataForBorrower","inputs":[{"name":"borrower","type":"address","internalType":"address"}],"outputs":[{"name":"data","type":"tuple","internalType":"struct HooksDataForBorrower","components":[{"name":"borrower","type":"address","internalType":"address"},{"name":"isRegisteredBorrower","type":"bool","internalType":"bool"},{"name":"hooksTemplates","type":"tuple[]","internalType":"struct HooksTemplateData[]","components":[{"name":"hooksTemplate","type":"address","internalType":"address"},{"name":"fees","type":"tuple","internalType":"struct FeeConfiguration","components":[{"name":"feeRecipient","type":"address","internalType":"address"},{"name":"protocolFeeBips","type":"uint16","internalType":"uint16"},{"name":"originationFeeToken","type":"tuple","internalType":"struct TokenMetadata","components":[{"name":"token","type":"address","internalType":"address"},{"name":"name","type":"string","internalType":"string"},{"name":"symbol","type":"string","internalType":"string"},{"name":"decimals","type":"uint256","internalType":"uint256"},{"name":"isMock","type":"bool","internalType":"bool"}]},{"name":"originationFeeAmount","type":"uint256","internalType":"uint256"},{"name":"borrowerOriginationFeeBalance","type":"uint256","internalType":"uint256"},{"name":"borrowerOriginationFeeApproval","type":"uint256","internalType":"uint256"}]},{"name":"exists","type":"bool","internalType":"bool"},{"name":"enabled","type":"bool","internalType":"bool"},{"name":"index","type":"uint24","internalType":"uint24"},{"name":"name","type":"string","internalType":"string"},{"name":"totalMarkets","type":"uint256","internalType":"uint256"}]},{"name":"hooksInstances","type":"tuple[]","internalType":"struct HooksInstanceData[]","components":[{"name":"hooksAddress","type":"address","internalType":"address"},{"name":"borrower","type":"address","internalType":"address"},{"name":"name","type":"string","internalType":"string"},{"name":"kind","type":"uint8","internalType":"enum HooksInstanceKind"},{"name":"hooksTemplate","type":"tuple","internalType":"struct HooksTemplateData","components":[{"name":"hooksTemplate","type":"address","internalType":"address"},{"name":"fees","type":"tuple","internalType":"struct FeeConfiguration","components":[{"name":"feeRecipient","type":"address","internalType":"address"},{"name":"protocolFeeBips","type":"uint16","internalType":"uint16"},{"name":"originationFeeToken","type":"tuple","internalType":"struct TokenMetadata","components":[{"name":"token","type":"address","internalType":"address"},{"name":"name","type":"string","internalType":"string"},{"name":"symbol","type":"string","internalType":"string"},{"name":"decimals","type":"uint256","internalType":"uint256"},{"name":"isMock","type":"bool","internalType":"bool"}]},{"name":"originationFeeAmount","type":"uint256","internalType":"uint256"},{"name":"borrowerOriginationFeeBalance","type":"uint256","internalType":"uint256"},{"name":"borrowerOriginationFeeApproval","type":"uint256","internalType":"uint256"}]},{"name":"exists","type":"bool","internalType":"bool"},{"name":"enabled","type":"bool","internalType":"bool"},{"name":"index","type":"uint24","internalType":"uint24"},{"name":"name","type":"string","internalType":"string"},{"name":"totalMarkets","type":"uint256","internalType":"uint256"}]},{"name":"constraints","type":"tuple","internalType":"struct MarketParameterConstraints","components":[{"name":"minimumDelinquencyGracePeriod","type":"uint32","internalType":"uint32"},{"name":"maximumDelinquencyGracePeriod","type":"uint32","internalType":"uint32"},{"name":"minimumReserveRatioBips","type":"uint16","internalType":"uint16"},{"name":"maximumReserveRatioBips","type":"uint16","internalType":"uint16"},{"name":"minimumDelinquencyFeeBips","type":"uint16","internalType":"uint16"},{"name":"maximumDelinquencyFeeBips","type":"uint16","internalType":"uint16"},{"name":"minimumWithdrawalBatchDuration","type":"uint32","internalType":"uint32"},{"name":"maximumWithdrawalBatchDuration","type":"uint32","internalType":"uint32"},{"name":"minimumAnnualInterestBips","type":"uint16","internalType":"uint16"},{"name":"maximumAnnualInterestBips","type":"uint16","internalType":"uint16"}]},{"name":"deploymentFlags","type":"tuple","internalType":"struct HooksDeploymentFlags","components":[{"name":"optional","type":"tuple","internalType":"struct HooksConfigData","components":[{"name":"useOnDeposit","type":"bool","internalType":"bool"},{"name":"useOnQueueWithdrawal","type":"bool","internalType":"bool"},{"name":"useOnExecuteWithdrawal","type":"bool","internalType":"bool"},{"name":"useOnTransfer","type":"bool","internalType":"bool"},{"name":"useOnBorrow","type":"bool","internalType":"bool"},{"name":"useOnRepay","type":"bool","internalType":"bool"},{"name":"useOnCloseMarket","type":"bool","internalType":"bool"},{"name":"useOnNukeFromOrbit","type":"bool","internalType":"bool"},{"name":"useOnSetMaxTotalSupply","type":"bool","internalType":"bool"},{"name":"useOnSetAnnualInterestAndReserveRatioBips","type":"bool","internalType":"bool"},{"name":"useOnSetProtocolFeeBips","type":"bool","internalType":"bool"}]},{"name":"required","type":"tuple","internalType":"struct HooksConfigData","components":[{"name":"useOnDeposit","type":"bool","internalType":"bool"},{"name":"useOnQueueWithdrawal","type":"bool","internalType":"bool"},{"name":"useOnExecuteWithdrawal","type":"bool","internalType":"bool"},{"name":"useOnTransfer","type":"bool","internalType":"bool"},{"name":"useOnBorrow","type":"bool","internalType":"bool"},{"name":"useOnRepay","type":"bool","internalType":"bool"},{"name":"useOnCloseMarket","type":"bool","internalType":"bool"},{"name":"useOnNukeFromOrbit","type":"bool","internalType":"bool"},{"name":"useOnSetMaxTotalSupply","type":"bool","internalType":"bool"},{"name":"useOnSetAnnualInterestAndReserveRatioBips","type":"bool","internalType":"bool"},{"name":"useOnSetProtocolFeeBips","type":"bool","internalType":"bool"}]}]},{"name":"pullProviders","type":"tuple[]","internalType":"struct RoleProviderData[]","components":[{"name":"timeToLive","type":"uint32","internalType":"uint32"},{"name":"providerAddress","type":"address","internalType":"address"},{"name":"pullProviderIndex","type":"uint24","internalType":"uint24"},{"name":"pushProviderIndex","type":"uint24","internalType":"uint24"}]},{"name":"pushProviders","type":"tuple[]","internalType":"struct RoleProviderData[]","components":[{"name":"timeToLive","type":"uint32","internalType":"uint32"},{"name":"providerAddress","type":"address","internalType":"address"},{"name":"pullProviderIndex","type":"uint24","internalType":"uint24"},{"name":"pushProviderIndex","type":"uint24","internalType":"uint24"}]},{"name":"totalMarkets","type":"uint256","internalType":"uint256"}]}]}],"stateMutability":"view"},{"type":"function","name":"getHooksInstancesForBorrower","inputs":[{"name":"borrower","type":"address","internalType":"address"}],"outputs":[{"name":"arr","type":"tuple[]","internalType":"struct HooksInstanceData[]","components":[{"name":"hooksAddress","type":"address","internalType":"address"},{"name":"borrower","type":"address","internalType":"address"},{"name":"name","type":"string","internalType":"string"},{"name":"kind","type":"uint8","internalType":"enum HooksInstanceKind"},{"name":"hooksTemplate","type":"tuple","internalType":"struct HooksTemplateData","components":[{"name":"hooksTemplate","type":"address","internalType":"address"},{"name":"fees","type":"tuple","internalType":"struct FeeConfiguration","components":[{"name":"feeRecipient","type":"address","internalType":"address"},{"name":"protocolFeeBips","type":"uint16","internalType":"uint16"},{"name":"originationFeeToken","type":"tuple","internalType":"struct TokenMetadata","components":[{"name":"token","type":"address","internalType":"address"},{"name":"name","type":"string","internalType":"string"},{"name":"symbol","type":"string","internalType":"string"},{"name":"decimals","type":"uint256","internalType":"uint256"},{"name":"isMock","type":"bool","internalType":"bool"}]},{"name":"originationFeeAmount","type":"uint256","internalType":"uint256"},{"name":"borrowerOriginationFeeBalance","type":"uint256","internalType":"uint256"},{"name":"borrowerOriginationFeeApproval","type":"uint256","internalType":"uint256"}]},{"name":"exists","type":"bool","internalType":"bool"},{"name":"enabled","type":"bool","internalType":"bool"},{"name":"index","type":"uint24","internalType":"uint24"},{"name":"name","type":"string","internalType":"string"},{"name":"totalMarkets","type":"uint256","internalType":"uint256"}]},{"name":"constraints","type":"tuple","internalType":"struct MarketParameterConstraints","components":[{"name":"minimumDelinquencyGracePeriod","type":"uint32","internalType":"uint32"},{"name":"maximumDelinquencyGracePeriod","type":"uint32","internalType":"uint32"},{"name":"minimumReserveRatioBips","type":"uint16","internalType":"uint16"},{"name":"maximumReserveRatioBips","type":"uint16","internalType":"uint16"},{"name":"minimumDelinquencyFeeBips","type":"uint16","internalType":"uint16"},{"name":"maximumDelinquencyFeeBips","type":"uint16","internalType":"uint16"},{"name":"minimumWithdrawalBatchDuration","type":"uint32","internalType":"uint32"},{"name":"maximumWithdrawalBatchDuration","type":"uint32","internalType":"uint32"},{"name":"minimumAnnualInterestBips","type":"uint16","internalType":"uint16"},{"name":"maximumAnnualInterestBips","type":"uint16","internalType":"uint16"}]},{"name":"deploymentFlags","type":"tuple","internalType":"struct HooksDeploymentFlags","components":[{"name":"optional","type":"tuple","internalType":"struct HooksConfigData","components":[{"name":"useOnDeposit","type":"bool","internalType":"bool"},{"name":"useOnQueueWithdrawal","type":"bool","internalType":"bool"},{"name":"useOnExecuteWithdrawal","type":"bool","internalType":"bool"},{"name":"useOnTransfer","type":"bool","internalType":"bool"},{"name":"useOnBorrow","type":"bool","internalType":"bool"},{"name":"useOnRepay","type":"bool","internalType":"bool"},{"name":"useOnCloseMarket","type":"bool","internalType":"bool"},{"name":"useOnNukeFromOrbit","type":"bool","internalType":"bool"},{"name":"useOnSetMaxTotalSupply","type":"bool","internalType":"bool"},{"name":"useOnSetAnnualInterestAndReserveRatioBips","type":"bool","internalType":"bool"},{"name":"useOnSetProtocolFeeBips","type":"bool","internalType":"bool"}]},{"name":"required","type":"tuple","internalType":"struct HooksConfigData","components":[{"name":"useOnDeposit","type":"bool","internalType":"bool"},{"name":"useOnQueueWithdrawal","type":"bool","internalType":"bool"},{"name":"useOnExecuteWithdrawal","type":"bool","internalType":"bool"},{"name":"useOnTransfer","type":"bool","internalType":"bool"},{"name":"useOnBorrow","type":"bool","internalType":"bool"},{"name":"useOnRepay","type":"bool","internalType":"bool"},{"name":"useOnCloseMarket","type":"bool","internalType":"bool"},{"name":"useOnNukeFromOrbit","type":"bool","internalType":"bool"},{"name":"useOnSetMaxTotalSupply","type":"bool","internalType":"bool"},{"name":"useOnSetAnnualInterestAndReserveRatioBips","type":"bool","internalType":"bool"},{"name":"useOnSetProtocolFeeBips","type":"bool","internalType":"bool"}]}]},{"name":"pullProviders","type":"tuple[]","internalType":"struct RoleProviderData[]","components":[{"name":"timeToLive","type":"uint32","internalType":"uint32"},{"name":"providerAddress","type":"address","internalType":"address"},{"name":"pullProviderIndex","type":"uint24","internalType":"uint24"},{"name":"pushProviderIndex","type":"uint24","internalType":"uint24"}]},{"name":"pushProviders","type":"tuple[]","internalType":"struct RoleProviderData[]","components":[{"name":"timeToLive","type":"uint32","internalType":"uint32"},{"name":"providerAddress","type":"address","internalType":"address"},{"name":"pullProviderIndex","type":"uint24","internalType":"uint24"},{"name":"pushProviderIndex","type":"uint24","internalType":"uint24"}]},{"name":"totalMarkets","type":"uint256","internalType":"uint256"}]}],"stateMutability":"view"},{"type":"function","name":"getHooksTemplateForBorrower","inputs":[{"name":"borrower","type":"address","internalType":"address"},{"name":"hooksTemplate","type":"address","internalType":"address"}],"outputs":[{"name":"data","type":"tuple","internalType":"struct HooksTemplateData","components":[{"name":"hooksTemplate","type":"address","internalType":"address"},{"name":"fees","type":"tuple","internalType":"struct FeeConfiguration","components":[{"name":"feeRecipient","type":"address","internalType":"address"},{"name":"protocolFeeBips","type":"uint16","internalType":"uint16"},{"name":"originationFeeToken","type":"tuple","internalType":"struct TokenMetadata","components":[{"name":"token","type":"address","internalType":"address"},{"name":"name","type":"string","internalType":"string"},{"name":"symbol","type":"string","internalType":"string"},{"name":"decimals","type":"uint256","internalType":"uint256"},{"name":"isMock","type":"bool","internalType":"bool"}]},{"name":"originationFeeAmount","type":"uint256","internalType":"uint256"},{"name":"borrowerOriginationFeeBalance","type":"uint256","internalType":"uint256"},{"name":"borrowerOriginationFeeApproval","type":"uint256","internalType":"uint256"}]},{"name":"exists","type":"bool","internalType":"bool"},{"name":"enabled","type":"bool","internalType":"bool"},{"name":"index","type":"uint24","internalType":"uint24"},{"name":"name","type":"string","internalType":"string"},{"name":"totalMarkets","type":"uint256","internalType":"uint256"}]}],"stateMutability":"view"},{"type":"function","name":"getHooksTemplatesForBorrower","inputs":[{"name":"borrower","type":"address","internalType":"address"},{"name":"hooksTemplates","type":"address[]","internalType":"address[]"}],"outputs":[{"name":"data","type":"tuple[]","internalType":"struct HooksTemplateData[]","components":[{"name":"hooksTemplate","type":"address","internalType":"address"},{"name":"fees","type":"tuple","internalType":"struct FeeConfiguration","components":[{"name":"feeRecipient","type":"address","internalType":"address"},{"name":"protocolFeeBips","type":"uint16","internalType":"uint16"},{"name":"originationFeeToken","type":"tuple","internalType":"struct TokenMetadata","components":[{"name":"token","type":"address","internalType":"address"},{"name":"name","type":"string","internalType":"string"},{"name":"symbol","type":"string","internalType":"string"},{"name":"decimals","type":"uint256","internalType":"uint256"},{"name":"isMock","type":"bool","internalType":"bool"}]},{"name":"originationFeeAmount","type":"uint256","internalType":"uint256"},{"name":"borrowerOriginationFeeBalance","type":"uint256","internalType":"uint256"},{"name":"borrowerOriginationFeeApproval","type":"uint256","internalType":"uint256"}]},{"name":"exists","type":"bool","internalType":"bool"},{"name":"enabled","type":"bool","internalType":"bool"},{"name":"index","type":"uint24","internalType":"uint24"},{"name":"name","type":"string","internalType":"string"},{"name":"totalMarkets","type":"uint256","internalType":"uint256"}]}],"stateMutability":"view"},{"type":"function","name":"getLenderAccountData","inputs":[{"name":"lender","type":"address","internalType":"address"},{"name":"market","type":"address","internalType":"address"}],"outputs":[{"name":"data","type":"tuple","internalType":"struct LenderAccountData","components":[{"name":"lender","type":"address","internalType":"address"},{"name":"scaledBalance","type":"uint256","internalType":"uint256"},{"name":"normalizedBalance","type":"uint256","internalType":"uint256"},{"name":"underlyingBalance","type":"uint256","internalType":"uint256"},{"name":"underlyingApproval","type":"uint256","internalType":"uint256"},{"name":"isBlockedFromDeposits","type":"bool","internalType":"bool"},{"name":"lastProvider","type":"tuple","internalType":"struct RoleProviderData","components":[{"name":"timeToLive","type":"uint32","internalType":"uint32"},{"name":"providerAddress","type":"address","internalType":"address"},{"name":"pullProviderIndex","type":"uint24","internalType":"uint24"},{"name":"pushProviderIndex","type":"uint24","internalType":"uint24"}]},{"name":"canRefresh","type":"bool","internalType":"bool"},{"name":"lastApprovalTimestamp","type":"uint32","internalType":"uint32"},{"name":"isKnownLender","type":"bool","internalType":"bool"}]}],"stateMutability":"view"},{"type":"function","name":"getLenderAccountData","inputs":[{"name":"lender","type":"address","internalType":"address"},{"name":"markets","type":"address[]","internalType":"address[]"}],"outputs":[{"name":"arr","type":"tuple[]","internalType":"struct LenderAccountData[]","components":[{"name":"lender","type":"address","internalType":"address"},{"name":"scaledBalance","type":"uint256","internalType":"uint256"},{"name":"normalizedBalance","type":"uint256","internalType":"uint256"},{"name":"underlyingBalance","type":"uint256","internalType":"uint256"},{"name":"underlyingApproval","type":"uint256","internalType":"uint256"},{"name":"isBlockedFromDeposits","type":"bool","internalType":"bool"},{"name":"lastProvider","type":"tuple","internalType":"struct RoleProviderData","components":[{"name":"timeToLive","type":"uint32","internalType":"uint32"},{"name":"providerAddress","type":"address","internalType":"address"},{"name":"pullProviderIndex","type":"uint24","internalType":"uint24"},{"name":"pushProviderIndex","type":"uint24","internalType":"uint24"}]},{"name":"canRefresh","type":"bool","internalType":"bool"},{"name":"lastApprovalTimestamp","type":"uint32","internalType":"uint32"},{"name":"isKnownLender","type":"bool","internalType":"bool"}]}],"stateMutability":"view"},{"type":"function","name":"getLenderAccountsData","inputs":[{"name":"marketAddress","type":"address","internalType":"address"},{"name":"lenders","type":"address[]","internalType":"address[]"}],"outputs":[{"name":"data","type":"tuple[]","internalType":"struct LenderAccountData[]","components":[{"name":"lender","type":"address","internalType":"address"},{"name":"scaledBalance","type":"uint256","internalType":"uint256"},{"name":"normalizedBalance","type":"uint256","internalType":"uint256"},{"name":"underlyingBalance","type":"uint256","internalType":"uint256"},{"name":"underlyingApproval","type":"uint256","internalType":"uint256"},{"name":"isBlockedFromDeposits","type":"bool","internalType":"bool"},{"name":"lastProvider","type":"tuple","internalType":"struct RoleProviderData","components":[{"name":"timeToLive","type":"uint32","internalType":"uint32"},{"name":"providerAddress","type":"address","internalType":"address"},{"name":"pullProviderIndex","type":"uint24","internalType":"uint24"},{"name":"pushProviderIndex","type":"uint24","internalType":"uint24"}]},{"name":"canRefresh","type":"bool","internalType":"bool"},{"name":"lastApprovalTimestamp","type":"uint32","internalType":"uint32"},{"name":"isKnownLender","type":"bool","internalType":"bool"}]}],"stateMutability":"view"},{"type":"function","name":"getMarketData","inputs":[{"name":"market","type":"address","internalType":"address"}],"outputs":[{"name":"data","type":"tuple","internalType":"struct MarketData","components":[{"name":"marketToken","type":"tuple","internalType":"struct TokenMetadata","components":[{"name":"token","type":"address","internalType":"address"},{"name":"name","type":"string","internalType":"string"},{"name":"symbol","type":"string","internalType":"string"},{"name":"decimals","type":"uint256","internalType":"uint256"},{"name":"isMock","type":"bool","internalType":"bool"}]},{"name":"underlyingToken","type":"tuple","internalType":"struct TokenMetadata","components":[{"name":"token","type":"address","internalType":"address"},{"name":"name","type":"string","internalType":"string"},{"name":"symbol","type":"string","internalType":"string"},{"name":"decimals","type":"uint256","internalType":"uint256"},{"name":"isMock","type":"bool","internalType":"bool"}]},{"name":"hooksFactory","type":"address","internalType":"address"},{"name":"borrower","type":"address","internalType":"address"},{"name":"hooksConfig","type":"tuple","internalType":"struct MarketHooksData","components":[{"name":"hooksAddress","type":"address","internalType":"address"},{"name":"flags","type":"tuple","internalType":"struct HooksConfigData","components":[{"name":"useOnDeposit","type":"bool","internalType":"bool"},{"name":"useOnQueueWithdrawal","type":"bool","internalType":"bool"},{"name":"useOnExecuteWithdrawal","type":"bool","internalType":"bool"},{"name":"useOnTransfer","type":"bool","internalType":"bool"},{"name":"useOnBorrow","type":"bool","internalType":"bool"},{"name":"useOnRepay","type":"bool","internalType":"bool"},{"name":"useOnCloseMarket","type":"bool","internalType":"bool"},{"name":"useOnNukeFromOrbit","type":"bool","internalType":"bool"},{"name":"useOnSetMaxTotalSupply","type":"bool","internalType":"bool"},{"name":"useOnSetAnnualInterestAndReserveRatioBips","type":"bool","internalType":"bool"},{"name":"useOnSetProtocolFeeBips","type":"bool","internalType":"bool"}]},{"name":"kind","type":"uint8","internalType":"enum HooksInstanceKind"},{"name":"transferRequiresAccess","type":"bool","internalType":"bool"},{"name":"depositRequiresAccess","type":"bool","internalType":"bool"},{"name":"minimumDeposit","type":"uint128","internalType":"uint128"},{"name":"transfersDisabled","type":"bool","internalType":"bool"},{"name":"withdrawalRequiresAccess","type":"bool","internalType":"bool"},{"name":"fixedTermEndTime","type":"uint32","internalType":"uint32"},{"name":"allowClosureBeforeTerm","type":"bool","internalType":"bool"},{"name":"allowTermReduction","type":"bool","internalType":"bool"}]},{"name":"withdrawalBatchDuration","type":"uint256","internalType":"uint256"},{"name":"feeRecipient","type":"address","internalType":"address"},{"name":"delinquencyFeeBips","type":"uint256","internalType":"uint256"},{"name":"delinquencyGracePeriod","type":"uint256","internalType":"uint256"},{"name":"hooks","type":"tuple","internalType":"struct HooksInstanceData","components":[{"name":"hooksAddress","type":"address","internalType":"address"},{"name":"borrower","type":"address","internalType":"address"},{"name":"name","type":"string","internalType":"string"},{"name":"kind","type":"uint8","internalType":"enum HooksInstanceKind"},{"name":"hooksTemplate","type":"tuple","internalType":"struct HooksTemplateData","components":[{"name":"hooksTemplate","type":"address","internalType":"address"},{"name":"fees","type":"tuple","internalType":"struct FeeConfiguration","components":[{"name":"feeRecipient","type":"address","internalType":"address"},{"name":"protocolFeeBips","type":"uint16","internalType":"uint16"},{"name":"originationFeeToken","type":"tuple","internalType":"struct TokenMetadata","components":[{"name":"token","type":"address","internalType":"address"},{"name":"name","type":"string","internalType":"string"},{"name":"symbol","type":"string","internalType":"string"},{"name":"decimals","type":"uint256","internalType":"uint256"},{"name":"isMock","type":"bool","internalType":"bool"}]},{"name":"originationFeeAmount","type":"uint256","internalType":"uint256"},{"name":"borrowerOriginationFeeBalance","type":"uint256","internalType":"uint256"},{"name":"borrowerOriginationFeeApproval","type":"uint256","internalType":"uint256"}]},{"name":"exists","type":"bool","internalType":"bool"},{"name":"enabled","type":"bool","internalType":"bool"},{"name":"index","type":"uint24","internalType":"uint24"},{"name":"name","type":"string","internalType":"string"},{"name":"totalMarkets","type":"uint256","internalType":"uint256"}]},{"name":"constraints","type":"tuple","internalType":"struct MarketParameterConstraints","components":[{"name":"minimumDelinquencyGracePeriod","type":"uint32","internalType":"uint32"},{"name":"maximumDelinquencyGracePeriod","type":"uint32","internalType":"uint32"},{"name":"minimumReserveRatioBips","type":"uint16","internalType":"uint16"},{"name":"maximumReserveRatioBips","type":"uint16","internalType":"uint16"},{"name":"minimumDelinquencyFeeBips","type":"uint16","internalType":"uint16"},{"name":"maximumDelinquencyFeeBips","type":"uint16","internalType":"uint16"},{"name":"minimumWithdrawalBatchDuration","type":"uint32","internalType":"uint32"},{"name":"maximumWithdrawalBatchDuration","type":"uint32","internalType":"uint32"},{"name":"minimumAnnualInterestBips","type":"uint16","internalType":"uint16"},{"name":"maximumAnnualInterestBips","type":"uint16","internalType":"uint16"}]},{"name":"deploymentFlags","type":"tuple","internalType":"struct HooksDeploymentFlags","components":[{"name":"optional","type":"tuple","internalType":"struct HooksConfigData","components":[{"name":"useOnDeposit","type":"bool","internalType":"bool"},{"name":"useOnQueueWithdrawal","type":"bool","internalType":"bool"},{"name":"useOnExecuteWithdrawal","type":"bool","internalType":"bool"},{"name":"useOnTransfer","type":"bool","internalType":"bool"},{"name":"useOnBorrow","type":"bool","internalType":"bool"},{"name":"useOnRepay","type":"bool","internalType":"bool"},{"name":"useOnCloseMarket","type":"bool","internalType":"bool"},{"name":"useOnNukeFromOrbit","type":"bool","internalType":"bool"},{"name":"useOnSetMaxTotalSupply","type":"bool","internalType":"bool"},{"name":"useOnSetAnnualInterestAndReserveRatioBips","type":"bool","internalType":"bool"},{"name":"useOnSetProtocolFeeBips","type":"bool","internalType":"bool"}]},{"name":"required","type":"tuple","internalType":"struct HooksConfigData","components":[{"name":"useOnDeposit","type":"bool","internalType":"bool"},{"name":"useOnQueueWithdrawal","type":"bool","internalType":"bool"},{"name":"useOnExecuteWithdrawal","type":"bool","internalType":"bool"},{"name":"useOnTransfer","type":"bool","internalType":"bool"},{"name":"useOnBorrow","type":"bool","internalType":"bool"},{"name":"useOnRepay","type":"bool","internalType":"bool"},{"name":"useOnCloseMarket","type":"bool","internalType":"bool"},{"name":"useOnNukeFromOrbit","type":"bool","internalType":"bool"},{"name":"useOnSetMaxTotalSupply","type":"bool","internalType":"bool"},{"name":"useOnSetAnnualInterestAndReserveRatioBips","type":"bool","internalType":"bool"},{"name":"useOnSetProtocolFeeBips","type":"bool","internalType":"bool"}]}]},{"name":"pullProviders","type":"tuple[]","internalType":"struct RoleProviderData[]","components":[{"name":"timeToLive","type":"uint32","internalType":"uint32"},{"name":"providerAddress","type":"address","internalType":"address"},{"name":"pullProviderIndex","type":"uint24","internalType":"uint24"},{"name":"pushProviderIndex","type":"uint24","internalType":"uint24"}]},{"name":"pushProviders","type":"tuple[]","internalType":"struct RoleProviderData[]","components":[{"name":"timeToLive","type":"uint32","internalType":"uint32"},{"name":"providerAddress","type":"address","internalType":"address"},{"name":"pullProviderIndex","type":"uint24","internalType":"uint24"},{"name":"pushProviderIndex","type":"uint24","internalType":"uint24"}]},{"name":"totalMarkets","type":"uint256","internalType":"uint256"}]},{"name":"temporaryReserveRatio","type":"bool","internalType":"bool"},{"name":"originalAnnualInterestBips","type":"uint256","internalType":"uint256"},{"name":"originalReserveRatioBips","type":"uint256","internalType":"uint256"},{"name":"temporaryReserveRatioExpiry","type":"uint256","internalType":"uint256"},{"name":"isClosed","type":"bool","internalType":"bool"},{"name":"protocolFeeBips","type":"uint256","internalType":"uint256"},{"name":"reserveRatioBips","type":"uint256","internalType":"uint256"},{"name":"annualInterestBips","type":"uint256","internalType":"uint256"},{"name":"scaleFactor","type":"uint256","internalType":"uint256"},{"name":"totalSupply","type":"uint256","internalType":"uint256"},{"name":"maxTotalSupply","type":"uint256","internalType":"uint256"},{"name":"scaledTotalSupply","type":"uint256","internalType":"uint256"},{"name":"totalAssets","type":"uint256","internalType":"uint256"},{"name":"lastAccruedProtocolFees","type":"uint256","internalType":"uint256"},{"name":"normalizedUnclaimedWithdrawals","type":"uint256","internalType":"uint256"},{"name":"scaledPendingWithdrawals","type":"uint256","internalType":"uint256"},{"name":"pendingWithdrawalExpiry","type":"uint256","internalType":"uint256"},{"name":"isDelinquent","type":"bool","internalType":"bool"},{"name":"timeDelinquent","type":"uint256","internalType":"uint256"},{"name":"lastInterestAccruedTimestamp","type":"uint256","internalType":"uint256"},{"name":"unpaidWithdrawalBatchExpiries","type":"uint32[]","internalType":"uint32[]"},{"name":"coverageLiquidity","type":"uint256","internalType":"uint256"}]}],"stateMutability":"view"},{"type":"function","name":"getMarketDataWithLenderStatus","inputs":[{"name":"lender","type":"address","internalType":"address"},{"name":"market","type":"address","internalType":"address"}],"outputs":[{"name":"data","type":"tuple","internalType":"struct MarketDataWithLenderStatus","components":[{"name":"market","type":"tuple","internalType":"struct MarketData","components":[{"name":"marketToken","type":"tuple","internalType":"struct TokenMetadata","components":[{"name":"token","type":"address","internalType":"address"},{"name":"name","type":"string","internalType":"string"},{"name":"symbol","type":"string","internalType":"string"},{"name":"decimals","type":"uint256","internalType":"uint256"},{"name":"isMock","type":"bool","internalType":"bool"}]},{"name":"underlyingToken","type":"tuple","internalType":"struct TokenMetadata","components":[{"name":"token","type":"address","internalType":"address"},{"name":"name","type":"string","internalType":"string"},{"name":"symbol","type":"string","internalType":"string"},{"name":"decimals","type":"uint256","internalType":"uint256"},{"name":"isMock","type":"bool","internalType":"bool"}]},{"name":"hooksFactory","type":"address","internalType":"address"},{"name":"borrower","type":"address","internalType":"address"},{"name":"hooksConfig","type":"tuple","internalType":"struct MarketHooksData","components":[{"name":"hooksAddress","type":"address","internalType":"address"},{"name":"flags","type":"tuple","internalType":"struct HooksConfigData","components":[{"name":"useOnDeposit","type":"bool","internalType":"bool"},{"name":"useOnQueueWithdrawal","type":"bool","internalType":"bool"},{"name":"useOnExecuteWithdrawal","type":"bool","internalType":"bool"},{"name":"useOnTransfer","type":"bool","internalType":"bool"},{"name":"useOnBorrow","type":"bool","internalType":"bool"},{"name":"useOnRepay","type":"bool","internalType":"bool"},{"name":"useOnCloseMarket","type":"bool","internalType":"bool"},{"name":"useOnNukeFromOrbit","type":"bool","internalType":"bool"},{"name":"useOnSetMaxTotalSupply","type":"bool","internalType":"bool"},{"name":"useOnSetAnnualInterestAndReserveRatioBips","type":"bool","internalType":"bool"},{"name":"useOnSetProtocolFeeBips","type":"bool","internalType":"bool"}]},{"name":"kind","type":"uint8","internalType":"enum HooksInstanceKind"},{"name":"transferRequiresAccess","type":"bool","internalType":"bool"},{"name":"depositRequiresAccess","type":"bool","internalType":"bool"},{"name":"minimumDeposit","type":"uint128","internalType":"uint128"},{"name":"transfersDisabled","type":"bool","internalType":"bool"},{"name":"withdrawalRequiresAccess","type":"bool","internalType":"bool"},{"name":"fixedTermEndTime","type":"uint32","internalType":"uint32"},{"name":"allowClosureBeforeTerm","type":"bool","internalType":"bool"},{"name":"allowTermReduction","type":"bool","internalType":"bool"}]},{"name":"withdrawalBatchDuration","type":"uint256","internalType":"uint256"},{"name":"feeRecipient","type":"address","internalType":"address"},{"name":"delinquencyFeeBips","type":"uint256","internalType":"uint256"},{"name":"delinquencyGracePeriod","type":"uint256","internalType":"uint256"},{"name":"hooks","type":"tuple","internalType":"struct HooksInstanceData","components":[{"name":"hooksAddress","type":"address","internalType":"address"},{"name":"borrower","type":"address","internalType":"address"},{"name":"name","type":"string","internalType":"string"},{"name":"kind","type":"uint8","internalType":"enum HooksInstanceKind"},{"name":"hooksTemplate","type":"tuple","internalType":"struct HooksTemplateData","components":[{"name":"hooksTemplate","type":"address","internalType":"address"},{"name":"fees","type":"tuple","internalType":"struct FeeConfiguration","components":[{"name":"feeRecipient","type":"address","internalType":"address"},{"name":"protocolFeeBips","type":"uint16","internalType":"uint16"},{"name":"originationFeeToken","type":"tuple","internalType":"struct TokenMetadata","components":[{"name":"token","type":"address","internalType":"address"},{"name":"name","type":"string","internalType":"string"},{"name":"symbol","type":"string","internalType":"string"},{"name":"decimals","type":"uint256","internalType":"uint256"},{"name":"isMock","type":"bool","internalType":"bool"}]},{"name":"originationFeeAmount","type":"uint256","internalType":"uint256"},{"name":"borrowerOriginationFeeBalance","type":"uint256","internalType":"uint256"},{"name":"borrowerOriginationFeeApproval","type":"uint256","internalType":"uint256"}]},{"name":"exists","type":"bool","internalType":"bool"},{"name":"enabled","type":"bool","internalType":"bool"},{"name":"index","type":"uint24","internalType":"uint24"},{"name":"name","type":"string","internalType":"string"},{"name":"totalMarkets","type":"uint256","internalType":"uint256"}]},{"name":"constraints","type":"tuple","internalType":"struct MarketParameterConstraints","components":[{"name":"minimumDelinquencyGracePeriod","type":"uint32","internalType":"uint32"},{"name":"maximumDelinquencyGracePeriod","type":"uint32","internalType":"uint32"},{"name":"minimumReserveRatioBips","type":"uint16","internalType":"uint16"},{"name":"maximumReserveRatioBips","type":"uint16","internalType":"uint16"},{"name":"minimumDelinquencyFeeBips","type":"uint16","internalType":"uint16"},{"name":"maximumDelinquencyFeeBips","type":"uint16","internalType":"uint16"},{"name":"minimumWithdrawalBatchDuration","type":"uint32","internalType":"uint32"},{"name":"maximumWithdrawalBatchDuration","type":"uint32","internalType":"uint32"},{"name":"minimumAnnualInterestBips","type":"uint16","internalType":"uint16"},{"name":"maximumAnnualInterestBips","type":"uint16","internalType":"uint16"}]},{"name":"deploymentFlags","type":"tuple","internalType":"struct HooksDeploymentFlags","components":[{"name":"optional","type":"tuple","internalType":"struct HooksConfigData","components":[{"name":"useOnDeposit","type":"bool","internalType":"bool"},{"name":"useOnQueueWithdrawal","type":"bool","internalType":"bool"},{"name":"useOnExecuteWithdrawal","type":"bool","internalType":"bool"},{"name":"useOnTransfer","type":"bool","internalType":"bool"},{"name":"useOnBorrow","type":"bool","internalType":"bool"},{"name":"useOnRepay","type":"bool","internalType":"bool"},{"name":"useOnCloseMarket","type":"bool","internalType":"bool"},{"name":"useOnNukeFromOrbit","type":"bool","internalType":"bool"},{"name":"useOnSetMaxTotalSupply","type":"bool","internalType":"bool"},{"name":"useOnSetAnnualInterestAndReserveRatioBips","type":"bool","internalType":"bool"},{"name":"useOnSetProtocolFeeBips","type":"bool","internalType":"bool"}]},{"name":"required","type":"tuple","internalType":"struct HooksConfigData","components":[{"name":"useOnDeposit","type":"bool","internalType":"bool"},{"name":"useOnQueueWithdrawal","type":"bool","internalType":"bool"},{"name":"useOnExecuteWithdrawal","type":"bool","internalType":"bool"},{"name":"useOnTransfer","type":"bool","internalType":"bool"},{"name":"useOnBorrow","type":"bool","internalType":"bool"},{"name":"useOnRepay","type":"bool","internalType":"bool"},{"name":"useOnCloseMarket","type":"bool","internalType":"bool"},{"name":"useOnNukeFromOrbit","type":"bool","internalType":"bool"},{"name":"useOnSetMaxTotalSupply","type":"bool","internalType":"bool"},{"name":"useOnSetAnnualInterestAndReserveRatioBips","type":"bool","internalType":"bool"},{"name":"useOnSetProtocolFeeBips","type":"bool","internalType":"bool"}]}]},{"name":"pullProviders","type":"tuple[]","internalType":"struct RoleProviderData[]","components":[{"name":"timeToLive","type":"uint32","internalType":"uint32"},{"name":"providerAddress","type":"address","internalType":"address"},{"name":"pullProviderIndex","type":"uint24","internalType":"uint24"},{"name":"pushProviderIndex","type":"uint24","internalType":"uint24"}]},{"name":"pushProviders","type":"tuple[]","internalType":"struct RoleProviderData[]","components":[{"name":"timeToLive","type":"uint32","internalType":"uint32"},{"name":"providerAddress","type":"address","internalType":"address"},{"name":"pullProviderIndex","type":"uint24","internalType":"uint24"},{"name":"pushProviderIndex","type":"uint24","internalType":"uint24"}]},{"name":"totalMarkets","type":"uint256","internalType":"uint256"}]},{"name":"temporaryReserveRatio","type":"bool","internalType":"bool"},{"name":"originalAnnualInterestBips","type":"uint256","internalType":"uint256"},{"name":"originalReserveRatioBips","type":"uint256","internalType":"uint256"},{"name":"temporaryReserveRatioExpiry","type":"uint256","internalType":"uint256"},{"name":"isClosed","type":"bool","internalType":"bool"},{"name":"protocolFeeBips","type":"uint256","internalType":"uint256"},{"name":"reserveRatioBips","type":"uint256","internalType":"uint256"},{"name":"annualInterestBips","type":"uint256","internalType":"uint256"},{"name":"scaleFactor","type":"uint256","internalType":"uint256"},{"name":"totalSupply","type":"uint256","internalType":"uint256"},{"name":"maxTotalSupply","type":"uint256","internalType":"uint256"},{"name":"scaledTotalSupply","type":"uint256","internalType":"uint256"},{"name":"totalAssets","type":"uint256","internalType":"uint256"},{"name":"lastAccruedProtocolFees","type":"uint256","internalType":"uint256"},{"name":"normalizedUnclaimedWithdrawals","type":"uint256","internalType":"uint256"},{"name":"scaledPendingWithdrawals","type":"uint256","internalType":"uint256"},{"name":"pendingWithdrawalExpiry","type":"uint256","internalType":"uint256"},{"name":"isDelinquent","type":"bool","internalType":"bool"},{"name":"timeDelinquent","type":"uint256","internalType":"uint256"},{"name":"lastInterestAccruedTimestamp","type":"uint256","internalType":"uint256"},{"name":"unpaidWithdrawalBatchExpiries","type":"uint32[]","internalType":"uint32[]"},{"name":"coverageLiquidity","type":"uint256","internalType":"uint256"}]},{"name":"lenderStatus","type":"tuple","internalType":"struct LenderAccountData","components":[{"name":"lender","type":"address","internalType":"address"},{"name":"scaledBalance","type":"uint256","internalType":"uint256"},{"name":"normalizedBalance","type":"uint256","internalType":"uint256"},{"name":"underlyingBalance","type":"uint256","internalType":"uint256"},{"name":"underlyingApproval","type":"uint256","internalType":"uint256"},{"name":"isBlockedFromDeposits","type":"bool","internalType":"bool"},{"name":"lastProvider","type":"tuple","internalType":"struct RoleProviderData","components":[{"name":"timeToLive","type":"uint32","internalType":"uint32"},{"name":"providerAddress","type":"address","internalType":"address"},{"name":"pullProviderIndex","type":"uint24","internalType":"uint24"},{"name":"pushProviderIndex","type":"uint24","internalType":"uint24"}]},{"name":"canRefresh","type":"bool","internalType":"bool"},{"name":"lastApprovalTimestamp","type":"uint32","internalType":"uint32"},{"name":"isKnownLender","type":"bool","internalType":"bool"}]}]}],"stateMutability":"view"},{"type":"function","name":"getMarketsData","inputs":[{"name":"markets","type":"address[]","internalType":"address[]"}],"outputs":[{"name":"data","type":"tuple[]","internalType":"struct MarketData[]","components":[{"name":"marketToken","type":"tuple","internalType":"struct TokenMetadata","components":[{"name":"token","type":"address","internalType":"address"},{"name":"name","type":"string","internalType":"string"},{"name":"symbol","type":"string","internalType":"string"},{"name":"decimals","type":"uint256","internalType":"uint256"},{"name":"isMock","type":"bool","internalType":"bool"}]},{"name":"underlyingToken","type":"tuple","internalType":"struct TokenMetadata","components":[{"name":"token","type":"address","internalType":"address"},{"name":"name","type":"string","internalType":"string"},{"name":"symbol","type":"string","internalType":"string"},{"name":"decimals","type":"uint256","internalType":"uint256"},{"name":"isMock","type":"bool","internalType":"bool"}]},{"name":"hooksFactory","type":"address","internalType":"address"},{"name":"borrower","type":"address","internalType":"address"},{"name":"hooksConfig","type":"tuple","internalType":"struct MarketHooksData","components":[{"name":"hooksAddress","type":"address","internalType":"address"},{"name":"flags","type":"tuple","internalType":"struct HooksConfigData","components":[{"name":"useOnDeposit","type":"bool","internalType":"bool"},{"name":"useOnQueueWithdrawal","type":"bool","internalType":"bool"},{"name":"useOnExecuteWithdrawal","type":"bool","internalType":"bool"},{"name":"useOnTransfer","type":"bool","internalType":"bool"},{"name":"useOnBorrow","type":"bool","internalType":"bool"},{"name":"useOnRepay","type":"bool","internalType":"bool"},{"name":"useOnCloseMarket","type":"bool","internalType":"bool"},{"name":"useOnNukeFromOrbit","type":"bool","internalType":"bool"},{"name":"useOnSetMaxTotalSupply","type":"bool","internalType":"bool"},{"name":"useOnSetAnnualInterestAndReserveRatioBips","type":"bool","internalType":"bool"},{"name":"useOnSetProtocolFeeBips","type":"bool","internalType":"bool"}]},{"name":"kind","type":"uint8","internalType":"enum HooksInstanceKind"},{"name":"transferRequiresAccess","type":"bool","internalType":"bool"},{"name":"depositRequiresAccess","type":"bool","internalType":"bool"},{"name":"minimumDeposit","type":"uint128","internalType":"uint128"},{"name":"transfersDisabled","type":"bool","internalType":"bool"},{"name":"withdrawalRequiresAccess","type":"bool","internalType":"bool"},{"name":"fixedTermEndTime","type":"uint32","internalType":"uint32"},{"name":"allowClosureBeforeTerm","type":"bool","internalType":"bool"},{"name":"allowTermReduction","type":"bool","internalType":"bool"}]},{"name":"withdrawalBatchDuration","type":"uint256","internalType":"uint256"},{"name":"feeRecipient","type":"address","internalType":"address"},{"name":"delinquencyFeeBips","type":"uint256","internalType":"uint256"},{"name":"delinquencyGracePeriod","type":"uint256","internalType":"uint256"},{"name":"hooks","type":"tuple","internalType":"struct HooksInstanceData","components":[{"name":"hooksAddress","type":"address","internalType":"address"},{"name":"borrower","type":"address","internalType":"address"},{"name":"name","type":"string","internalType":"string"},{"name":"kind","type":"uint8","internalType":"enum HooksInstanceKind"},{"name":"hooksTemplate","type":"tuple","internalType":"struct HooksTemplateData","components":[{"name":"hooksTemplate","type":"address","internalType":"address"},{"name":"fees","type":"tuple","internalType":"struct FeeConfiguration","components":[{"name":"feeRecipient","type":"address","internalType":"address"},{"name":"protocolFeeBips","type":"uint16","internalType":"uint16"},{"name":"originationFeeToken","type":"tuple","internalType":"struct TokenMetadata","components":[{"name":"token","type":"address","internalType":"address"},{"name":"name","type":"string","internalType":"string"},{"name":"symbol","type":"string","internalType":"string"},{"name":"decimals","type":"uint256","internalType":"uint256"},{"name":"isMock","type":"bool","internalType":"bool"}]},{"name":"originationFeeAmount","type":"uint256","internalType":"uint256"},{"name":"borrowerOriginationFeeBalance","type":"uint256","internalType":"uint256"},{"name":"borrowerOriginationFeeApproval","type":"uint256","internalType":"uint256"}]},{"name":"exists","type":"bool","internalType":"bool"},{"name":"enabled","type":"bool","internalType":"bool"},{"name":"index","type":"uint24","internalType":"uint24"},{"name":"name","type":"string","internalType":"string"},{"name":"totalMarkets","type":"uint256","internalType":"uint256"}]},{"name":"constraints","type":"tuple","internalType":"struct MarketParameterConstraints","components":[{"name":"minimumDelinquencyGracePeriod","type":"uint32","internalType":"uint32"},{"name":"maximumDelinquencyGracePeriod","type":"uint32","internalType":"uint32"},{"name":"minimumReserveRatioBips","type":"uint16","internalType":"uint16"},{"name":"maximumReserveRatioBips","type":"uint16","internalType":"uint16"},{"name":"minimumDelinquencyFeeBips","type":"uint16","internalType":"uint16"},{"name":"maximumDelinquencyFeeBips","type":"uint16","internalType":"uint16"},{"name":"minimumWithdrawalBatchDuration","type":"uint32","internalType":"uint32"},{"name":"maximumWithdrawalBatchDuration","type":"uint32","internalType":"uint32"},{"name":"minimumAnnualInterestBips","type":"uint16","internalType":"uint16"},{"name":"maximumAnnualInterestBips","type":"uint16","internalType":"uint16"}]},{"name":"deploymentFlags","type":"tuple","internalType":"struct HooksDeploymentFlags","components":[{"name":"optional","type":"tuple","internalType":"struct HooksConfigData","components":[{"name":"useOnDeposit","type":"bool","internalType":"bool"},{"name":"useOnQueueWithdrawal","type":"bool","internalType":"bool"},{"name":"useOnExecuteWithdrawal","type":"bool","internalType":"bool"},{"name":"useOnTransfer","type":"bool","internalType":"bool"},{"name":"useOnBorrow","type":"bool","internalType":"bool"},{"name":"useOnRepay","type":"bool","internalType":"bool"},{"name":"useOnCloseMarket","type":"bool","internalType":"bool"},{"name":"useOnNukeFromOrbit","type":"bool","internalType":"bool"},{"name":"useOnSetMaxTotalSupply","type":"bool","internalType":"bool"},{"name":"useOnSetAnnualInterestAndReserveRatioBips","type":"bool","internalType":"bool"},{"name":"useOnSetProtocolFeeBips","type":"bool","internalType":"bool"}]},{"name":"required","type":"tuple","internalType":"struct HooksConfigData","components":[{"name":"useOnDeposit","type":"bool","internalType":"bool"},{"name":"useOnQueueWithdrawal","type":"bool","internalType":"bool"},{"name":"useOnExecuteWithdrawal","type":"bool","internalType":"bool"},{"name":"useOnTransfer","type":"bool","internalType":"bool"},{"name":"useOnBorrow","type":"bool","internalType":"bool"},{"name":"useOnRepay","type":"bool","internalType":"bool"},{"name":"useOnCloseMarket","type":"bool","internalType":"bool"},{"name":"useOnNukeFromOrbit","type":"bool","internalType":"bool"},{"name":"useOnSetMaxTotalSupply","type":"bool","internalType":"bool"},{"name":"useOnSetAnnualInterestAndReserveRatioBips","type":"bool","internalType":"bool"},{"name":"useOnSetProtocolFeeBips","type":"bool","internalType":"bool"}]}]},{"name":"pullProviders","type":"tuple[]","internalType":"struct RoleProviderData[]","components":[{"name":"timeToLive","type":"uint32","internalType":"uint32"},{"name":"providerAddress","type":"address","internalType":"address"},{"name":"pullProviderIndex","type":"uint24","internalType":"uint24"},{"name":"pushProviderIndex","type":"uint24","internalType":"uint24"}]},{"name":"pushProviders","type":"tuple[]","internalType":"struct RoleProviderData[]","components":[{"name":"timeToLive","type":"uint32","internalType":"uint32"},{"name":"providerAddress","type":"address","internalType":"address"},{"name":"pullProviderIndex","type":"uint24","internalType":"uint24"},{"name":"pushProviderIndex","type":"uint24","internalType":"uint24"}]},{"name":"totalMarkets","type":"uint256","internalType":"uint256"}]},{"name":"temporaryReserveRatio","type":"bool","internalType":"bool"},{"name":"originalAnnualInterestBips","type":"uint256","internalType":"uint256"},{"name":"originalReserveRatioBips","type":"uint256","internalType":"uint256"},{"name":"temporaryReserveRatioExpiry","type":"uint256","internalType":"uint256"},{"name":"isClosed","type":"bool","internalType":"bool"},{"name":"protocolFeeBips","type":"uint256","internalType":"uint256"},{"name":"reserveRatioBips","type":"uint256","internalType":"uint256"},{"name":"annualInterestBips","type":"uint256","internalType":"uint256"},{"name":"scaleFactor","type":"uint256","internalType":"uint256"},{"name":"totalSupply","type":"uint256","internalType":"uint256"},{"name":"maxTotalSupply","type":"uint256","internalType":"uint256"},{"name":"scaledTotalSupply","type":"uint256","internalType":"uint256"},{"name":"totalAssets","type":"uint256","internalType":"uint256"},{"name":"lastAccruedProtocolFees","type":"uint256","internalType":"uint256"},{"name":"normalizedUnclaimedWithdrawals","type":"uint256","internalType":"uint256"},{"name":"scaledPendingWithdrawals","type":"uint256","internalType":"uint256"},{"name":"pendingWithdrawalExpiry","type":"uint256","internalType":"uint256"},{"name":"isDelinquent","type":"bool","internalType":"bool"},{"name":"timeDelinquent","type":"uint256","internalType":"uint256"},{"name":"lastInterestAccruedTimestamp","type":"uint256","internalType":"uint256"},{"name":"unpaidWithdrawalBatchExpiries","type":"uint32[]","internalType":"uint32[]"},{"name":"coverageLiquidity","type":"uint256","internalType":"uint256"}]}],"stateMutability":"view"},{"type":"function","name":"getMarketsDataWithLenderStatus","inputs":[{"name":"lender","type":"address","internalType":"address"},{"name":"markets","type":"address[]","internalType":"address[]"}],"outputs":[{"name":"data","type":"tuple[]","internalType":"struct MarketDataWithLenderStatus[]","components":[{"name":"market","type":"tuple","internalType":"struct MarketData","components":[{"name":"marketToken","type":"tuple","internalType":"struct TokenMetadata","components":[{"name":"token","type":"address","internalType":"address"},{"name":"name","type":"string","internalType":"string"},{"name":"symbol","type":"string","internalType":"string"},{"name":"decimals","type":"uint256","internalType":"uint256"},{"name":"isMock","type":"bool","internalType":"bool"}]},{"name":"underlyingToken","type":"tuple","internalType":"struct TokenMetadata","components":[{"name":"token","type":"address","internalType":"address"},{"name":"name","type":"string","internalType":"string"},{"name":"symbol","type":"string","internalType":"string"},{"name":"decimals","type":"uint256","internalType":"uint256"},{"name":"isMock","type":"bool","internalType":"bool"}]},{"name":"hooksFactory","type":"address","internalType":"address"},{"name":"borrower","type":"address","internalType":"address"},{"name":"hooksConfig","type":"tuple","internalType":"struct MarketHooksData","components":[{"name":"hooksAddress","type":"address","internalType":"address"},{"name":"flags","type":"tuple","internalType":"struct HooksConfigData","components":[{"name":"useOnDeposit","type":"bool","internalType":"bool"},{"name":"useOnQueueWithdrawal","type":"bool","internalType":"bool"},{"name":"useOnExecuteWithdrawal","type":"bool","internalType":"bool"},{"name":"useOnTransfer","type":"bool","internalType":"bool"},{"name":"useOnBorrow","type":"bool","internalType":"bool"},{"name":"useOnRepay","type":"bool","internalType":"bool"},{"name":"useOnCloseMarket","type":"bool","internalType":"bool"},{"name":"useOnNukeFromOrbit","type":"bool","internalType":"bool"},{"name":"useOnSetMaxTotalSupply","type":"bool","internalType":"bool"},{"name":"useOnSetAnnualInterestAndReserveRatioBips","type":"bool","internalType":"bool"},{"name":"useOnSetProtocolFeeBips","type":"bool","internalType":"bool"}]},{"name":"kind","type":"uint8","internalType":"enum HooksInstanceKind"},{"name":"transferRequiresAccess","type":"bool","internalType":"bool"},{"name":"depositRequiresAccess","type":"bool","internalType":"bool"},{"name":"minimumDeposit","type":"uint128","internalType":"uint128"},{"name":"transfersDisabled","type":"bool","internalType":"bool"},{"name":"withdrawalRequiresAccess","type":"bool","internalType":"bool"},{"name":"fixedTermEndTime","type":"uint32","internalType":"uint32"},{"name":"allowClosureBeforeTerm","type":"bool","internalType":"bool"},{"name":"allowTermReduction","type":"bool","internalType":"bool"}]},{"name":"withdrawalBatchDuration","type":"uint256","internalType":"uint256"},{"name":"feeRecipient","type":"address","internalType":"address"},{"name":"delinquencyFeeBips","type":"uint256","internalType":"uint256"},{"name":"delinquencyGracePeriod","type":"uint256","internalType":"uint256"},{"name":"hooks","type":"tuple","internalType":"struct HooksInstanceData","components":[{"name":"hooksAddress","type":"address","internalType":"address"},{"name":"borrower","type":"address","internalType":"address"},{"name":"name","type":"string","internalType":"string"},{"name":"kind","type":"uint8","internalType":"enum HooksInstanceKind"},{"name":"hooksTemplate","type":"tuple","internalType":"struct HooksTemplateData","components":[{"name":"hooksTemplate","type":"address","internalType":"address"},{"name":"fees","type":"tuple","internalType":"struct FeeConfiguration","components":[{"name":"feeRecipient","type":"address","internalType":"address"},{"name":"protocolFeeBips","type":"uint16","internalType":"uint16"},{"name":"originationFeeToken","type":"tuple","internalType":"struct TokenMetadata","components":[{"name":"token","type":"address","internalType":"address"},{"name":"name","type":"string","internalType":"string"},{"name":"symbol","type":"string","internalType":"string"},{"name":"decimals","type":"uint256","internalType":"uint256"},{"name":"isMock","type":"bool","internalType":"bool"}]},{"name":"originationFeeAmount","type":"uint256","internalType":"uint256"},{"name":"borrowerOriginationFeeBalance","type":"uint256","internalType":"uint256"},{"name":"borrowerOriginationFeeApproval","type":"uint256","internalType":"uint256"}]},{"name":"exists","type":"bool","internalType":"bool"},{"name":"enabled","type":"bool","internalType":"bool"},{"name":"index","type":"uint24","internalType":"uint24"},{"name":"name","type":"string","internalType":"string"},{"name":"totalMarkets","type":"uint256","internalType":"uint256"}]},{"name":"constraints","type":"tuple","internalType":"struct MarketParameterConstraints","components":[{"name":"minimumDelinquencyGracePeriod","type":"uint32","internalType":"uint32"},{"name":"maximumDelinquencyGracePeriod","type":"uint32","internalType":"uint32"},{"name":"minimumReserveRatioBips","type":"uint16","internalType":"uint16"},{"name":"maximumReserveRatioBips","type":"uint16","internalType":"uint16"},{"name":"minimumDelinquencyFeeBips","type":"uint16","internalType":"uint16"},{"name":"maximumDelinquencyFeeBips","type":"uint16","internalType":"uint16"},{"name":"minimumWithdrawalBatchDuration","type":"uint32","internalType":"uint32"},{"name":"maximumWithdrawalBatchDuration","type":"uint32","internalType":"uint32"},{"name":"minimumAnnualInterestBips","type":"uint16","internalType":"uint16"},{"name":"maximumAnnualInterestBips","type":"uint16","internalType":"uint16"}]},{"name":"deploymentFlags","type":"tuple","internalType":"struct HooksDeploymentFlags","components":[{"name":"optional","type":"tuple","internalType":"struct HooksConfigData","components":[{"name":"useOnDeposit","type":"bool","internalType":"bool"},{"name":"useOnQueueWithdrawal","type":"bool","internalType":"bool"},{"name":"useOnExecuteWithdrawal","type":"bool","internalType":"bool"},{"name":"useOnTransfer","type":"bool","internalType":"bool"},{"name":"useOnBorrow","type":"bool","internalType":"bool"},{"name":"useOnRepay","type":"bool","internalType":"bool"},{"name":"useOnCloseMarket","type":"bool","internalType":"bool"},{"name":"useOnNukeFromOrbit","type":"bool","internalType":"bool"},{"name":"useOnSetMaxTotalSupply","type":"bool","internalType":"bool"},{"name":"useOnSetAnnualInterestAndReserveRatioBips","type":"bool","internalType":"bool"},{"name":"useOnSetProtocolFeeBips","type":"bool","internalType":"bool"}]},{"name":"required","type":"tuple","internalType":"struct HooksConfigData","components":[{"name":"useOnDeposit","type":"bool","internalType":"bool"},{"name":"useOnQueueWithdrawal","type":"bool","internalType":"bool"},{"name":"useOnExecuteWithdrawal","type":"bool","internalType":"bool"},{"name":"useOnTransfer","type":"bool","internalType":"bool"},{"name":"useOnBorrow","type":"bool","internalType":"bool"},{"name":"useOnRepay","type":"bool","internalType":"bool"},{"name":"useOnCloseMarket","type":"bool","internalType":"bool"},{"name":"useOnNukeFromOrbit","type":"bool","internalType":"bool"},{"name":"useOnSetMaxTotalSupply","type":"bool","internalType":"bool"},{"name":"useOnSetAnnualInterestAndReserveRatioBips","type":"bool","internalType":"bool"},{"name":"useOnSetProtocolFeeBips","type":"bool","internalType":"bool"}]}]},{"name":"pullProviders","type":"tuple[]","internalType":"struct RoleProviderData[]","components":[{"name":"timeToLive","type":"uint32","internalType":"uint32"},{"name":"providerAddress","type":"address","internalType":"address"},{"name":"pullProviderIndex","type":"uint24","internalType":"uint24"},{"name":"pushProviderIndex","type":"uint24","internalType":"uint24"}]},{"name":"pushProviders","type":"tuple[]","internalType":"struct RoleProviderData[]","components":[{"name":"timeToLive","type":"uint32","internalType":"uint32"},{"name":"providerAddress","type":"address","internalType":"address"},{"name":"pullProviderIndex","type":"uint24","internalType":"uint24"},{"name":"pushProviderIndex","type":"uint24","internalType":"uint24"}]},{"name":"totalMarkets","type":"uint256","internalType":"uint256"}]},{"name":"temporaryReserveRatio","type":"bool","internalType":"bool"},{"name":"originalAnnualInterestBips","type":"uint256","internalType":"uint256"},{"name":"originalReserveRatioBips","type":"uint256","internalType":"uint256"},{"name":"temporaryReserveRatioExpiry","type":"uint256","internalType":"uint256"},{"name":"isClosed","type":"bool","internalType":"bool"},{"name":"protocolFeeBips","type":"uint256","internalType":"uint256"},{"name":"reserveRatioBips","type":"uint256","internalType":"uint256"},{"name":"annualInterestBips","type":"uint256","internalType":"uint256"},{"name":"scaleFactor","type":"uint256","internalType":"uint256"},{"name":"totalSupply","type":"uint256","internalType":"uint256"},{"name":"maxTotalSupply","type":"uint256","internalType":"uint256"},{"name":"scaledTotalSupply","type":"uint256","internalType":"uint256"},{"name":"totalAssets","type":"uint256","internalType":"uint256"},{"name":"lastAccruedProtocolFees","type":"uint256","internalType":"uint256"},{"name":"normalizedUnclaimedWithdrawals","type":"uint256","internalType":"uint256"},{"name":"scaledPendingWithdrawals","type":"uint256","internalType":"uint256"},{"name":"pendingWithdrawalExpiry","type":"uint256","internalType":"uint256"},{"name":"isDelinquent","type":"bool","internalType":"bool"},{"name":"timeDelinquent","type":"uint256","internalType":"uint256"},{"name":"lastInterestAccruedTimestamp","type":"uint256","internalType":"uint256"},{"name":"unpaidWithdrawalBatchExpiries","type":"uint32[]","internalType":"uint32[]"},{"name":"coverageLiquidity","type":"uint256","internalType":"uint256"}]},{"name":"lenderStatus","type":"tuple","internalType":"struct LenderAccountData","components":[{"name":"lender","type":"address","internalType":"address"},{"name":"scaledBalance","type":"uint256","internalType":"uint256"},{"name":"normalizedBalance","type":"uint256","internalType":"uint256"},{"name":"underlyingBalance","type":"uint256","internalType":"uint256"},{"name":"underlyingApproval","type":"uint256","internalType":"uint256"},{"name":"isBlockedFromDeposits","type":"bool","internalType":"bool"},{"name":"lastProvider","type":"tuple","internalType":"struct RoleProviderData","components":[{"name":"timeToLive","type":"uint32","internalType":"uint32"},{"name":"providerAddress","type":"address","internalType":"address"},{"name":"pullProviderIndex","type":"uint24","internalType":"uint24"},{"name":"pushProviderIndex","type":"uint24","internalType":"uint24"}]},{"name":"canRefresh","type":"bool","internalType":"bool"},{"name":"lastApprovalTimestamp","type":"uint32","internalType":"uint32"},{"name":"isKnownLender","type":"bool","internalType":"bool"}]}]}],"stateMutability":"view"},{"type":"function","name":"getMarketsForHooksTemplateCount","inputs":[{"name":"hooksTemplate","type":"address","internalType":"address"}],"outputs":[{"name":"","type":"uint256","internalType":"uint256"}],"stateMutability":"view"},{"type":"function","name":"getPaginatedMarketsDataForHooksTemplate","inputs":[{"name":"hooksTemplate","type":"address","internalType":"address"},{"name":"start","type":"uint256","internalType":"uint256"},{"name":"end","type":"uint256","internalType":"uint256"}],"outputs":[{"name":"data","type":"tuple[]","internalType":"struct MarketData[]","components":[{"name":"marketToken","type":"tuple","internalType":"struct TokenMetadata","components":[{"name":"token","type":"address","internalType":"address"},{"name":"name","type":"string","internalType":"string"},{"name":"symbol","type":"string","internalType":"string"},{"name":"decimals","type":"uint256","internalType":"uint256"},{"name":"isMock","type":"bool","internalType":"bool"}]},{"name":"underlyingToken","type":"tuple","internalType":"struct TokenMetadata","components":[{"name":"token","type":"address","internalType":"address"},{"name":"name","type":"string","internalType":"string"},{"name":"symbol","type":"string","internalType":"string"},{"name":"decimals","type":"uint256","internalType":"uint256"},{"name":"isMock","type":"bool","internalType":"bool"}]},{"name":"hooksFactory","type":"address","internalType":"address"},{"name":"borrower","type":"address","internalType":"address"},{"name":"hooksConfig","type":"tuple","internalType":"struct MarketHooksData","components":[{"name":"hooksAddress","type":"address","internalType":"address"},{"name":"flags","type":"tuple","internalType":"struct HooksConfigData","components":[{"name":"useOnDeposit","type":"bool","internalType":"bool"},{"name":"useOnQueueWithdrawal","type":"bool","internalType":"bool"},{"name":"useOnExecuteWithdrawal","type":"bool","internalType":"bool"},{"name":"useOnTransfer","type":"bool","internalType":"bool"},{"name":"useOnBorrow","type":"bool","internalType":"bool"},{"name":"useOnRepay","type":"bool","internalType":"bool"},{"name":"useOnCloseMarket","type":"bool","internalType":"bool"},{"name":"useOnNukeFromOrbit","type":"bool","internalType":"bool"},{"name":"useOnSetMaxTotalSupply","type":"bool","internalType":"bool"},{"name":"useOnSetAnnualInterestAndReserveRatioBips","type":"bool","internalType":"bool"},{"name":"useOnSetProtocolFeeBips","type":"bool","internalType":"bool"}]},{"name":"kind","type":"uint8","internalType":"enum HooksInstanceKind"},{"name":"transferRequiresAccess","type":"bool","internalType":"bool"},{"name":"depositRequiresAccess","type":"bool","internalType":"bool"},{"name":"minimumDeposit","type":"uint128","internalType":"uint128"},{"name":"transfersDisabled","type":"bool","internalType":"bool"},{"name":"withdrawalRequiresAccess","type":"bool","internalType":"bool"},{"name":"fixedTermEndTime","type":"uint32","internalType":"uint32"},{"name":"allowClosureBeforeTerm","type":"bool","internalType":"bool"},{"name":"allowTermReduction","type":"bool","internalType":"bool"}]},{"name":"withdrawalBatchDuration","type":"uint256","internalType":"uint256"},{"name":"feeRecipient","type":"address","internalType":"address"},{"name":"delinquencyFeeBips","type":"uint256","internalType":"uint256"},{"name":"delinquencyGracePeriod","type":"uint256","internalType":"uint256"},{"name":"hooks","type":"tuple","internalType":"struct HooksInstanceData","components":[{"name":"hooksAddress","type":"address","internalType":"address"},{"name":"borrower","type":"address","internalType":"address"},{"name":"name","type":"string","internalType":"string"},{"name":"kind","type":"uint8","internalType":"enum HooksInstanceKind"},{"name":"hooksTemplate","type":"tuple","internalType":"struct HooksTemplateData","components":[{"name":"hooksTemplate","type":"address","internalType":"address"},{"name":"fees","type":"tuple","internalType":"struct FeeConfiguration","components":[{"name":"feeRecipient","type":"address","internalType":"address"},{"name":"protocolFeeBips","type":"uint16","internalType":"uint16"},{"name":"originationFeeToken","type":"tuple","internalType":"struct TokenMetadata","components":[{"name":"token","type":"address","internalType":"address"},{"name":"name","type":"string","internalType":"string"},{"name":"symbol","type":"string","internalType":"string"},{"name":"decimals","type":"uint256","internalType":"uint256"},{"name":"isMock","type":"bool","internalType":"bool"}]},{"name":"originationFeeAmount","type":"uint256","internalType":"uint256"},{"name":"borrowerOriginationFeeBalance","type":"uint256","internalType":"uint256"},{"name":"borrowerOriginationFeeApproval","type":"uint256","internalType":"uint256"}]},{"name":"exists","type":"bool","internalType":"bool"},{"name":"enabled","type":"bool","internalType":"bool"},{"name":"index","type":"uint24","internalType":"uint24"},{"name":"name","type":"string","internalType":"string"},{"name":"totalMarkets","type":"uint256","internalType":"uint256"}]},{"name":"constraints","type":"tuple","internalType":"struct MarketParameterConstraints","components":[{"name":"minimumDelinquencyGracePeriod","type":"uint32","internalType":"uint32"},{"name":"maximumDelinquencyGracePeriod","type":"uint32","internalType":"uint32"},{"name":"minimumReserveRatioBips","type":"uint16","internalType":"uint16"},{"name":"maximumReserveRatioBips","type":"uint16","internalType":"uint16"},{"name":"minimumDelinquencyFeeBips","type":"uint16","internalType":"uint16"},{"name":"maximumDelinquencyFeeBips","type":"uint16","internalType":"uint16"},{"name":"minimumWithdrawalBatchDuration","type":"uint32","internalType":"uint32"},{"name":"maximumWithdrawalBatchDuration","type":"uint32","internalType":"uint32"},{"name":"minimumAnnualInterestBips","type":"uint16","internalType":"uint16"},{"name":"maximumAnnualInterestBips","type":"uint16","internalType":"uint16"}]},{"name":"deploymentFlags","type":"tuple","internalType":"struct HooksDeploymentFlags","components":[{"name":"optional","type":"tuple","internalType":"struct HooksConfigData","components":[{"name":"useOnDeposit","type":"bool","internalType":"bool"},{"name":"useOnQueueWithdrawal","type":"bool","internalType":"bool"},{"name":"useOnExecuteWithdrawal","type":"bool","internalType":"bool"},{"name":"useOnTransfer","type":"bool","internalType":"bool"},{"name":"useOnBorrow","type":"bool","internalType":"bool"},{"name":"useOnRepay","type":"bool","internalType":"bool"},{"name":"useOnCloseMarket","type":"bool","internalType":"bool"},{"name":"useOnNukeFromOrbit","type":"bool","internalType":"bool"},{"name":"useOnSetMaxTotalSupply","type":"bool","internalType":"bool"},{"name":"useOnSetAnnualInterestAndReserveRatioBips","type":"bool","internalType":"bool"},{"name":"useOnSetProtocolFeeBips","type":"bool","internalType":"bool"}]},{"name":"required","type":"tuple","internalType":"struct HooksConfigData","components":[{"name":"useOnDeposit","type":"bool","internalType":"bool"},{"name":"useOnQueueWithdrawal","type":"bool","internalType":"bool"},{"name":"useOnExecuteWithdrawal","type":"bool","internalType":"bool"},{"name":"useOnTransfer","type":"bool","internalType":"bool"},{"name":"useOnBorrow","type":"bool","internalType":"bool"},{"name":"useOnRepay","type":"bool","internalType":"bool"},{"name":"useOnCloseMarket","type":"bool","internalType":"bool"},{"name":"useOnNukeFromOrbit","type":"bool","internalType":"bool"},{"name":"useOnSetMaxTotalSupply","type":"bool","internalType":"bool"},{"name":"useOnSetAnnualInterestAndReserveRatioBips","type":"bool","internalType":"bool"},{"name":"useOnSetProtocolFeeBips","type":"bool","internalType":"bool"}]}]},{"name":"pullProviders","type":"tuple[]","internalType":"struct RoleProviderData[]","components":[{"name":"timeToLive","type":"uint32","internalType":"uint32"},{"name":"providerAddress","type":"address","internalType":"address"},{"name":"pullProviderIndex","type":"uint24","internalType":"uint24"},{"name":"pushProviderIndex","type":"uint24","internalType":"uint24"}]},{"name":"pushProviders","type":"tuple[]","internalType":"struct RoleProviderData[]","components":[{"name":"timeToLive","type":"uint32","internalType":"uint32"},{"name":"providerAddress","type":"address","internalType":"address"},{"name":"pullProviderIndex","type":"uint24","internalType":"uint24"},{"name":"pushProviderIndex","type":"uint24","internalType":"uint24"}]},{"name":"totalMarkets","type":"uint256","internalType":"uint256"}]},{"name":"temporaryReserveRatio","type":"bool","internalType":"bool"},{"name":"originalAnnualInterestBips","type":"uint256","internalType":"uint256"},{"name":"originalReserveRatioBips","type":"uint256","internalType":"uint256"},{"name":"temporaryReserveRatioExpiry","type":"uint256","internalType":"uint256"},{"name":"isClosed","type":"bool","internalType":"bool"},{"name":"protocolFeeBips","type":"uint256","internalType":"uint256"},{"name":"reserveRatioBips","type":"uint256","internalType":"uint256"},{"name":"annualInterestBips","type":"uint256","internalType":"uint256"},{"name":"scaleFactor","type":"uint256","internalType":"uint256"},{"name":"totalSupply","type":"uint256","internalType":"uint256"},{"name":"maxTotalSupply","type":"uint256","internalType":"uint256"},{"name":"scaledTotalSupply","type":"uint256","internalType":"uint256"},{"name":"totalAssets","type":"uint256","internalType":"uint256"},{"name":"lastAccruedProtocolFees","type":"uint256","internalType":"uint256"},{"name":"normalizedUnclaimedWithdrawals","type":"uint256","internalType":"uint256"},{"name":"scaledPendingWithdrawals","type":"uint256","internalType":"uint256"},{"name":"pendingWithdrawalExpiry","type":"uint256","internalType":"uint256"},{"name":"isDelinquent","type":"bool","internalType":"bool"},{"name":"timeDelinquent","type":"uint256","internalType":"uint256"},{"name":"lastInterestAccruedTimestamp","type":"uint256","internalType":"uint256"},{"name":"unpaidWithdrawalBatchExpiries","type":"uint32[]","internalType":"uint32[]"},{"name":"coverageLiquidity","type":"uint256","internalType":"uint256"}]}],"stateMutability":"view"},{"type":"function","name":"getTokenInfo","inputs":[{"name":"token","type":"address","internalType":"address"}],"outputs":[{"name":"info","type":"tuple","internalType":"struct TokenMetadata","components":[{"name":"token","type":"address","internalType":"address"},{"name":"name","type":"string","internalType":"string"},{"name":"symbol","type":"string","internalType":"string"},{"name":"decimals","type":"uint256","internalType":"uint256"},{"name":"isMock","type":"bool","internalType":"bool"}]}],"stateMutability":"view"},{"type":"function","name":"getTokensInfo","inputs":[{"name":"tokens","type":"address[]","internalType":"address[]"}],"outputs":[{"name":"info","type":"tuple[]","internalType":"struct TokenMetadata[]","components":[{"name":"token","type":"address","internalType":"address"},{"name":"name","type":"string","internalType":"string"},{"name":"symbol","type":"string","internalType":"string"},{"name":"decimals","type":"uint256","internalType":"uint256"},{"name":"isMock","type":"bool","internalType":"bool"}]}],"stateMutability":"view"},{"type":"function","name":"getWithdrawalBatchData","inputs":[{"name":"market","type":"address","internalType":"address"},{"name":"expiry","type":"uint32","internalType":"uint32"}],"outputs":[{"name":"data","type":"tuple","internalType":"struct WithdrawalBatchData","components":[{"name":"expiry","type":"uint32","internalType":"uint32"},{"name":"status","type":"uint8","internalType":"enum BatchStatus"},{"name":"scaledTotalAmount","type":"uint256","internalType":"uint256"},{"name":"scaledAmountBurned","type":"uint256","internalType":"uint256"},{"name":"normalizedAmountPaid","type":"uint256","internalType":"uint256"},{"name":"normalizedTotalAmount","type":"uint256","internalType":"uint256"}]}],"stateMutability":"view"},{"type":"function","name":"getWithdrawalBatchDataWithLenderStatus","inputs":[{"name":"market","type":"address","internalType":"address"},{"name":"expiry","type":"uint32","internalType":"uint32"},{"name":"lender","type":"address","internalType":"address"}],"outputs":[{"name":"status","type":"tuple","internalType":"struct WithdrawalBatchDataWithLenderStatus","components":[{"name":"batch","type":"tuple","internalType":"struct WithdrawalBatchData","components":[{"name":"expiry","type":"uint32","internalType":"uint32"},{"name":"status","type":"uint8","internalType":"enum BatchStatus"},{"name":"scaledTotalAmount","type":"uint256","internalType":"uint256"},{"name":"scaledAmountBurned","type":"uint256","internalType":"uint256"},{"name":"normalizedAmountPaid","type":"uint256","internalType":"uint256"},{"name":"normalizedTotalAmount","type":"uint256","internalType":"uint256"}]},{"name":"lenderStatus","type":"tuple","internalType":"struct WithdrawalBatchLenderStatus","components":[{"name":"lender","type":"address","internalType":"address"},{"name":"scaledAmount","type":"uint256","internalType":"uint256"},{"name":"normalizedAmountWithdrawn","type":"uint256","internalType":"uint256"},{"name":"normalizedAmountOwed","type":"uint256","internalType":"uint256"},{"name":"availableWithdrawalAmount","type":"uint256","internalType":"uint256"}]}]}],"stateMutability":"view"},{"type":"function","name":"getWithdrawalBatchDataWithLendersStatus","inputs":[{"name":"market","type":"address","internalType":"address"},{"name":"expiry","type":"uint32","internalType":"uint32"},{"name":"lenders","type":"address[]","internalType":"address[]"}],"outputs":[{"name":"batch","type":"tuple","internalType":"struct WithdrawalBatchData","components":[{"name":"expiry","type":"uint32","internalType":"uint32"},{"name":"status","type":"uint8","internalType":"enum BatchStatus"},{"name":"scaledTotalAmount","type":"uint256","internalType":"uint256"},{"name":"scaledAmountBurned","type":"uint256","internalType":"uint256"},{"name":"normalizedAmountPaid","type":"uint256","internalType":"uint256"},{"name":"normalizedTotalAmount","type":"uint256","internalType":"uint256"}]},{"name":"statuses","type":"tuple[]","internalType":"struct WithdrawalBatchLenderStatus[]","components":[{"name":"lender","type":"address","internalType":"address"},{"name":"scaledAmount","type":"uint256","internalType":"uint256"},{"name":"normalizedAmountWithdrawn","type":"uint256","internalType":"uint256"},{"name":"normalizedAmountOwed","type":"uint256","internalType":"uint256"},{"name":"availableWithdrawalAmount","type":"uint256","internalType":"uint256"}]}],"stateMutability":"view"},{"type":"function","name":"getWithdrawalBatchesData","inputs":[{"name":"market","type":"address","internalType":"address"},{"name":"expiries","type":"uint32[]","internalType":"uint32[]"}],"outputs":[{"name":"data","type":"tuple[]","internalType":"struct WithdrawalBatchData[]","components":[{"name":"expiry","type":"uint32","internalType":"uint32"},{"name":"status","type":"uint8","internalType":"enum BatchStatus"},{"name":"scaledTotalAmount","type":"uint256","internalType":"uint256"},{"name":"scaledAmountBurned","type":"uint256","internalType":"uint256"},{"name":"normalizedAmountPaid","type":"uint256","internalType":"uint256"},{"name":"normalizedTotalAmount","type":"uint256","internalType":"uint256"}]}],"stateMutability":"view"},{"type":"function","name":"getWithdrawalBatchesDataWithLenderStatus","inputs":[{"name":"market","type":"address","internalType":"address"},{"name":"expiries","type":"uint32[]","internalType":"uint32[]"},{"name":"lender","type":"address","internalType":"address"}],"outputs":[{"name":"statuses","type":"tuple[]","internalType":"struct WithdrawalBatchDataWithLenderStatus[]","components":[{"name":"batch","type":"tuple","internalType":"struct WithdrawalBatchData","components":[{"name":"expiry","type":"uint32","internalType":"uint32"},{"name":"status","type":"uint8","internalType":"enum BatchStatus"},{"name":"scaledTotalAmount","type":"uint256","internalType":"uint256"},{"name":"scaledAmountBurned","type":"uint256","internalType":"uint256"},{"name":"normalizedAmountPaid","type":"uint256","internalType":"uint256"},{"name":"normalizedTotalAmount","type":"uint256","internalType":"uint256"}]},{"name":"lenderStatus","type":"tuple","internalType":"struct WithdrawalBatchLenderStatus","components":[{"name":"lender","type":"address","internalType":"address"},{"name":"scaledAmount","type":"uint256","internalType":"uint256"},{"name":"normalizedAmountWithdrawn","type":"uint256","internalType":"uint256"},{"name":"normalizedAmountOwed","type":"uint256","internalType":"uint256"},{"name":"availableWithdrawalAmount","type":"uint256","internalType":"uint256"}]}]}],"stateMutability":"view"},{"type":"function","name":"hooksFactory","inputs":[],"outputs":[{"name":"","type":"address","internalType":"contract HooksFactory"}],"stateMutability":"view"},{"type":"function","name":"queryLenderAccount","inputs":[{"name":"query","type":"tuple","internalType":"struct LenderAccountQuery","components":[{"name":"lender","type":"address","internalType":"address"},{"name":"market","type":"address","internalType":"address"},{"name":"withdrawalBatchExpiries","type":"uint32[]","internalType":"uint32[]"}]}],"outputs":[{"name":"result","type":"tuple","internalType":"struct LenderAccountQueryResult","components":[{"name":"market","type":"tuple","internalType":"struct MarketData","components":[{"name":"marketToken","type":"tuple","internalType":"struct TokenMetadata","components":[{"name":"token","type":"address","internalType":"address"},{"name":"name","type":"string","internalType":"string"},{"name":"symbol","type":"string","internalType":"string"},{"name":"decimals","type":"uint256","internalType":"uint256"},{"name":"isMock","type":"bool","internalType":"bool"}]},{"name":"underlyingToken","type":"tuple","internalType":"struct TokenMetadata","components":[{"name":"token","type":"address","internalType":"address"},{"name":"name","type":"string","internalType":"string"},{"name":"symbol","type":"string","internalType":"string"},{"name":"decimals","type":"uint256","internalType":"uint256"},{"name":"isMock","type":"bool","internalType":"bool"}]},{"name":"hooksFactory","type":"address","internalType":"address"},{"name":"borrower","type":"address","internalType":"address"},{"name":"hooksConfig","type":"tuple","internalType":"struct MarketHooksData","components":[{"name":"hooksAddress","type":"address","internalType":"address"},{"name":"flags","type":"tuple","internalType":"struct HooksConfigData","components":[{"name":"useOnDeposit","type":"bool","internalType":"bool"},{"name":"useOnQueueWithdrawal","type":"bool","internalType":"bool"},{"name":"useOnExecuteWithdrawal","type":"bool","internalType":"bool"},{"name":"useOnTransfer","type":"bool","internalType":"bool"},{"name":"useOnBorrow","type":"bool","internalType":"bool"},{"name":"useOnRepay","type":"bool","internalType":"bool"},{"name":"useOnCloseMarket","type":"bool","internalType":"bool"},{"name":"useOnNukeFromOrbit","type":"bool","internalType":"bool"},{"name":"useOnSetMaxTotalSupply","type":"bool","internalType":"bool"},{"name":"useOnSetAnnualInterestAndReserveRatioBips","type":"bool","internalType":"bool"},{"name":"useOnSetProtocolFeeBips","type":"bool","internalType":"bool"}]},{"name":"kind","type":"uint8","internalType":"enum HooksInstanceKind"},{"name":"transferRequiresAccess","type":"bool","internalType":"bool"},{"name":"depositRequiresAccess","type":"bool","internalType":"bool"},{"name":"minimumDeposit","type":"uint128","internalType":"uint128"},{"name":"transfersDisabled","type":"bool","internalType":"bool"},{"name":"withdrawalRequiresAccess","type":"bool","internalType":"bool"},{"name":"fixedTermEndTime","type":"uint32","internalType":"uint32"},{"name":"allowClosureBeforeTerm","type":"bool","internalType":"bool"},{"name":"allowTermReduction","type":"bool","internalType":"bool"}]},{"name":"withdrawalBatchDuration","type":"uint256","internalType":"uint256"},{"name":"feeRecipient","type":"address","internalType":"address"},{"name":"delinquencyFeeBips","type":"uint256","internalType":"uint256"},{"name":"delinquencyGracePeriod","type":"uint256","internalType":"uint256"},{"name":"hooks","type":"tuple","internalType":"struct HooksInstanceData","components":[{"name":"hooksAddress","type":"address","internalType":"address"},{"name":"borrower","type":"address","internalType":"address"},{"name":"name","type":"string","internalType":"string"},{"name":"kind","type":"uint8","internalType":"enum HooksInstanceKind"},{"name":"hooksTemplate","type":"tuple","internalType":"struct HooksTemplateData","components":[{"name":"hooksTemplate","type":"address","internalType":"address"},{"name":"fees","type":"tuple","internalType":"struct FeeConfiguration","components":[{"name":"feeRecipient","type":"address","internalType":"address"},{"name":"protocolFeeBips","type":"uint16","internalType":"uint16"},{"name":"originationFeeToken","type":"tuple","internalType":"struct TokenMetadata","components":[{"name":"token","type":"address","internalType":"address"},{"name":"name","type":"string","internalType":"string"},{"name":"symbol","type":"string","internalType":"string"},{"name":"decimals","type":"uint256","internalType":"uint256"},{"name":"isMock","type":"bool","internalType":"bool"}]},{"name":"originationFeeAmount","type":"uint256","internalType":"uint256"},{"name":"borrowerOriginationFeeBalance","type":"uint256","internalType":"uint256"},{"name":"borrowerOriginationFeeApproval","type":"uint256","internalType":"uint256"}]},{"name":"exists","type":"bool","internalType":"bool"},{"name":"enabled","type":"bool","internalType":"bool"},{"name":"index","type":"uint24","internalType":"uint24"},{"name":"name","type":"string","internalType":"string"},{"name":"totalMarkets","type":"uint256","internalType":"uint256"}]},{"name":"constraints","type":"tuple","internalType":"struct MarketParameterConstraints","components":[{"name":"minimumDelinquencyGracePeriod","type":"uint32","internalType":"uint32"},{"name":"maximumDelinquencyGracePeriod","type":"uint32","internalType":"uint32"},{"name":"minimumReserveRatioBips","type":"uint16","internalType":"uint16"},{"name":"maximumReserveRatioBips","type":"uint16","internalType":"uint16"},{"name":"minimumDelinquencyFeeBips","type":"uint16","internalType":"uint16"},{"name":"maximumDelinquencyFeeBips","type":"uint16","internalType":"uint16"},{"name":"minimumWithdrawalBatchDuration","type":"uint32","internalType":"uint32"},{"name":"maximumWithdrawalBatchDuration","type":"uint32","internalType":"uint32"},{"name":"minimumAnnualInterestBips","type":"uint16","internalType":"uint16"},{"name":"maximumAnnualInterestBips","type":"uint16","internalType":"uint16"}]},{"name":"deploymentFlags","type":"tuple","internalType":"struct HooksDeploymentFlags","components":[{"name":"optional","type":"tuple","internalType":"struct HooksConfigData","components":[{"name":"useOnDeposit","type":"bool","internalType":"bool"},{"name":"useOnQueueWithdrawal","type":"bool","internalType":"bool"},{"name":"useOnExecuteWithdrawal","type":"bool","internalType":"bool"},{"name":"useOnTransfer","type":"bool","internalType":"bool"},{"name":"useOnBorrow","type":"bool","internalType":"bool"},{"name":"useOnRepay","type":"bool","internalType":"bool"},{"name":"useOnCloseMarket","type":"bool","internalType":"bool"},{"name":"useOnNukeFromOrbit","type":"bool","internalType":"bool"},{"name":"useOnSetMaxTotalSupply","type":"bool","internalType":"bool"},{"name":"useOnSetAnnualInterestAndReserveRatioBips","type":"bool","internalType":"bool"},{"name":"useOnSetProtocolFeeBips","type":"bool","internalType":"bool"}]},{"name":"required","type":"tuple","internalType":"struct HooksConfigData","components":[{"name":"useOnDeposit","type":"bool","internalType":"bool"},{"name":"useOnQueueWithdrawal","type":"bool","internalType":"bool"},{"name":"useOnExecuteWithdrawal","type":"bool","internalType":"bool"},{"name":"useOnTransfer","type":"bool","internalType":"bool"},{"name":"useOnBorrow","type":"bool","internalType":"bool"},{"name":"useOnRepay","type":"bool","internalType":"bool"},{"name":"useOnCloseMarket","type":"bool","internalType":"bool"},{"name":"useOnNukeFromOrbit","type":"bool","internalType":"bool"},{"name":"useOnSetMaxTotalSupply","type":"bool","internalType":"bool"},{"name":"useOnSetAnnualInterestAndReserveRatioBips","type":"bool","internalType":"bool"},{"name":"useOnSetProtocolFeeBips","type":"bool","internalType":"bool"}]}]},{"name":"pullProviders","type":"tuple[]","internalType":"struct RoleProviderData[]","components":[{"name":"timeToLive","type":"uint32","internalType":"uint32"},{"name":"providerAddress","type":"address","internalType":"address"},{"name":"pullProviderIndex","type":"uint24","internalType":"uint24"},{"name":"pushProviderIndex","type":"uint24","internalType":"uint24"}]},{"name":"pushProviders","type":"tuple[]","internalType":"struct RoleProviderData[]","components":[{"name":"timeToLive","type":"uint32","internalType":"uint32"},{"name":"providerAddress","type":"address","internalType":"address"},{"name":"pullProviderIndex","type":"uint24","internalType":"uint24"},{"name":"pushProviderIndex","type":"uint24","internalType":"uint24"}]},{"name":"totalMarkets","type":"uint256","internalType":"uint256"}]},{"name":"temporaryReserveRatio","type":"bool","internalType":"bool"},{"name":"originalAnnualInterestBips","type":"uint256","internalType":"uint256"},{"name":"originalReserveRatioBips","type":"uint256","internalType":"uint256"},{"name":"temporaryReserveRatioExpiry","type":"uint256","internalType":"uint256"},{"name":"isClosed","type":"bool","internalType":"bool"},{"name":"protocolFeeBips","type":"uint256","internalType":"uint256"},{"name":"reserveRatioBips","type":"uint256","internalType":"uint256"},{"name":"annualInterestBips","type":"uint256","internalType":"uint256"},{"name":"scaleFactor","type":"uint256","internalType":"uint256"},{"name":"totalSupply","type":"uint256","internalType":"uint256"},{"name":"maxTotalSupply","type":"uint256","internalType":"uint256"},{"name":"scaledTotalSupply","type":"uint256","internalType":"uint256"},{"name":"totalAssets","type":"uint256","internalType":"uint256"},{"name":"lastAccruedProtocolFees","type":"uint256","internalType":"uint256"},{"name":"normalizedUnclaimedWithdrawals","type":"uint256","internalType":"uint256"},{"name":"scaledPendingWithdrawals","type":"uint256","internalType":"uint256"},{"name":"pendingWithdrawalExpiry","type":"uint256","internalType":"uint256"},{"name":"isDelinquent","type":"bool","internalType":"bool"},{"name":"timeDelinquent","type":"uint256","internalType":"uint256"},{"name":"lastInterestAccruedTimestamp","type":"uint256","internalType":"uint256"},{"name":"unpaidWithdrawalBatchExpiries","type":"uint32[]","internalType":"uint32[]"},{"name":"coverageLiquidity","type":"uint256","internalType":"uint256"}]},{"name":"lenderStatus","type":"tuple","internalType":"struct LenderAccountData","components":[{"name":"lender","type":"address","internalType":"address"},{"name":"scaledBalance","type":"uint256","internalType":"uint256"},{"name":"normalizedBalance","type":"uint256","internalType":"uint256"},{"name":"underlyingBalance","type":"uint256","internalType":"uint256"},{"name":"underlyingApproval","type":"uint256","internalType":"uint256"},{"name":"isBlockedFromDeposits","type":"bool","internalType":"bool"},{"name":"lastProvider","type":"tuple","internalType":"struct RoleProviderData","components":[{"name":"timeToLive","type":"uint32","internalType":"uint32"},{"name":"providerAddress","type":"address","internalType":"address"},{"name":"pullProviderIndex","type":"uint24","internalType":"uint24"},{"name":"pushProviderIndex","type":"uint24","internalType":"uint24"}]},{"name":"canRefresh","type":"bool","internalType":"bool"},{"name":"lastApprovalTimestamp","type":"uint32","internalType":"uint32"},{"name":"isKnownLender","type":"bool","internalType":"bool"}]},{"name":"withdrawalBatches","type":"tuple[]","internalType":"struct WithdrawalBatchDataWithLenderStatus[]","components":[{"name":"batch","type":"tuple","internalType":"struct WithdrawalBatchData","components":[{"name":"expiry","type":"uint32","internalType":"uint32"},{"name":"status","type":"uint8","internalType":"enum BatchStatus"},{"name":"scaledTotalAmount","type":"uint256","internalType":"uint256"},{"name":"scaledAmountBurned","type":"uint256","internalType":"uint256"},{"name":"normalizedAmountPaid","type":"uint256","internalType":"uint256"},{"name":"normalizedTotalAmount","type":"uint256","internalType":"uint256"}]},{"name":"lenderStatus","type":"tuple","internalType":"struct WithdrawalBatchLenderStatus","components":[{"name":"lender","type":"address","internalType":"address"},{"name":"scaledAmount","type":"uint256","internalType":"uint256"},{"name":"normalizedAmountWithdrawn","type":"uint256","internalType":"uint256"},{"name":"normalizedAmountOwed","type":"uint256","internalType":"uint256"},{"name":"availableWithdrawalAmount","type":"uint256","internalType":"uint256"}]}]}]}],"stateMutability":"view"},{"type":"function","name":"queryLenderAccounts","inputs":[{"name":"queries","type":"tuple[]","internalType":"struct LenderAccountQuery[]","components":[{"name":"lender","type":"address","internalType":"address"},{"name":"market","type":"address","internalType":"address"},{"name":"withdrawalBatchExpiries","type":"uint32[]","internalType":"uint32[]"}]}],"outputs":[{"name":"result","type":"tuple[]","internalType":"struct LenderAccountQueryResult[]","components":[{"name":"market","type":"tuple","internalType":"struct MarketData","components":[{"name":"marketToken","type":"tuple","internalType":"struct TokenMetadata","components":[{"name":"token","type":"address","internalType":"address"},{"name":"name","type":"string","internalType":"string"},{"name":"symbol","type":"string","internalType":"string"},{"name":"decimals","type":"uint256","internalType":"uint256"},{"name":"isMock","type":"bool","internalType":"bool"}]},{"name":"underlyingToken","type":"tuple","internalType":"struct TokenMetadata","components":[{"name":"token","type":"address","internalType":"address"},{"name":"name","type":"string","internalType":"string"},{"name":"symbol","type":"string","internalType":"string"},{"name":"decimals","type":"uint256","internalType":"uint256"},{"name":"isMock","type":"bool","internalType":"bool"}]},{"name":"hooksFactory","type":"address","internalType":"address"},{"name":"borrower","type":"address","internalType":"address"},{"name":"hooksConfig","type":"tuple","internalType":"struct MarketHooksData","components":[{"name":"hooksAddress","type":"address","internalType":"address"},{"name":"flags","type":"tuple","internalType":"struct HooksConfigData","components":[{"name":"useOnDeposit","type":"bool","internalType":"bool"},{"name":"useOnQueueWithdrawal","type":"bool","internalType":"bool"},{"name":"useOnExecuteWithdrawal","type":"bool","internalType":"bool"},{"name":"useOnTransfer","type":"bool","internalType":"bool"},{"name":"useOnBorrow","type":"bool","internalType":"bool"},{"name":"useOnRepay","type":"bool","internalType":"bool"},{"name":"useOnCloseMarket","type":"bool","internalType":"bool"},{"name":"useOnNukeFromOrbit","type":"bool","internalType":"bool"},{"name":"useOnSetMaxTotalSupply","type":"bool","internalType":"bool"},{"name":"useOnSetAnnualInterestAndReserveRatioBips","type":"bool","internalType":"bool"},{"name":"useOnSetProtocolFeeBips","type":"bool","internalType":"bool"}]},{"name":"kind","type":"uint8","internalType":"enum HooksInstanceKind"},{"name":"transferRequiresAccess","type":"bool","internalType":"bool"},{"name":"depositRequiresAccess","type":"bool","internalType":"bool"},{"name":"minimumDeposit","type":"uint128","internalType":"uint128"},{"name":"transfersDisabled","type":"bool","internalType":"bool"},{"name":"withdrawalRequiresAccess","type":"bool","internalType":"bool"},{"name":"fixedTermEndTime","type":"uint32","internalType":"uint32"},{"name":"allowClosureBeforeTerm","type":"bool","internalType":"bool"},{"name":"allowTermReduction","type":"bool","internalType":"bool"}]},{"name":"withdrawalBatchDuration","type":"uint256","internalType":"uint256"},{"name":"feeRecipient","type":"address","internalType":"address"},{"name":"delinquencyFeeBips","type":"uint256","internalType":"uint256"},{"name":"delinquencyGracePeriod","type":"uint256","internalType":"uint256"},{"name":"hooks","type":"tuple","internalType":"struct HooksInstanceData","components":[{"name":"hooksAddress","type":"address","internalType":"address"},{"name":"borrower","type":"address","internalType":"address"},{"name":"name","type":"string","internalType":"string"},{"name":"kind","type":"uint8","internalType":"enum HooksInstanceKind"},{"name":"hooksTemplate","type":"tuple","internalType":"struct HooksTemplateData","components":[{"name":"hooksTemplate","type":"address","internalType":"address"},{"name":"fees","type":"tuple","internalType":"struct FeeConfiguration","components":[{"name":"feeRecipient","type":"address","internalType":"address"},{"name":"protocolFeeBips","type":"uint16","internalType":"uint16"},{"name":"originationFeeToken","type":"tuple","internalType":"struct TokenMetadata","components":[{"name":"token","type":"address","internalType":"address"},{"name":"name","type":"string","internalType":"string"},{"name":"symbol","type":"string","internalType":"string"},{"name":"decimals","type":"uint256","internalType":"uint256"},{"name":"isMock","type":"bool","internalType":"bool"}]},{"name":"originationFeeAmount","type":"uint256","internalType":"uint256"},{"name":"borrowerOriginationFeeBalance","type":"uint256","internalType":"uint256"},{"name":"borrowerOriginationFeeApproval","type":"uint256","internalType":"uint256"}]},{"name":"exists","type":"bool","internalType":"bool"},{"name":"enabled","type":"bool","internalType":"bool"},{"name":"index","type":"uint24","internalType":"uint24"},{"name":"name","type":"string","internalType":"string"},{"name":"totalMarkets","type":"uint256","internalType":"uint256"}]},{"name":"constraints","type":"tuple","internalType":"struct MarketParameterConstraints","components":[{"name":"minimumDelinquencyGracePeriod","type":"uint32","internalType":"uint32"},{"name":"maximumDelinquencyGracePeriod","type":"uint32","internalType":"uint32"},{"name":"minimumReserveRatioBips","type":"uint16","internalType":"uint16"},{"name":"maximumReserveRatioBips","type":"uint16","internalType":"uint16"},{"name":"minimumDelinquencyFeeBips","type":"uint16","internalType":"uint16"},{"name":"maximumDelinquencyFeeBips","type":"uint16","internalType":"uint16"},{"name":"minimumWithdrawalBatchDuration","type":"uint32","internalType":"uint32"},{"name":"maximumWithdrawalBatchDuration","type":"uint32","internalType":"uint32"},{"name":"minimumAnnualInterestBips","type":"uint16","internalType":"uint16"},{"name":"maximumAnnualInterestBips","type":"uint16","internalType":"uint16"}]},{"name":"deploymentFlags","type":"tuple","internalType":"struct HooksDeploymentFlags","components":[{"name":"optional","type":"tuple","internalType":"struct HooksConfigData","components":[{"name":"useOnDeposit","type":"bool","internalType":"bool"},{"name":"useOnQueueWithdrawal","type":"bool","internalType":"bool"},{"name":"useOnExecuteWithdrawal","type":"bool","internalType":"bool"},{"name":"useOnTransfer","type":"bool","internalType":"bool"},{"name":"useOnBorrow","type":"bool","internalType":"bool"},{"name":"useOnRepay","type":"bool","internalType":"bool"},{"name":"useOnCloseMarket","type":"bool","internalType":"bool"},{"name":"useOnNukeFromOrbit","type":"bool","internalType":"bool"},{"name":"useOnSetMaxTotalSupply","type":"bool","internalType":"bool"},{"name":"useOnSetAnnualInterestAndReserveRatioBips","type":"bool","internalType":"bool"},{"name":"useOnSetProtocolFeeBips","type":"bool","internalType":"bool"}]},{"name":"required","type":"tuple","internalType":"struct HooksConfigData","components":[{"name":"useOnDeposit","type":"bool","internalType":"bool"},{"name":"useOnQueueWithdrawal","type":"bool","internalType":"bool"},{"name":"useOnExecuteWithdrawal","type":"bool","internalType":"bool"},{"name":"useOnTransfer","type":"bool","internalType":"bool"},{"name":"useOnBorrow","type":"bool","internalType":"bool"},{"name":"useOnRepay","type":"bool","internalType":"bool"},{"name":"useOnCloseMarket","type":"bool","internalType":"bool"},{"name":"useOnNukeFromOrbit","type":"bool","internalType":"bool"},{"name":"useOnSetMaxTotalSupply","type":"bool","internalType":"bool"},{"name":"useOnSetAnnualInterestAndReserveRatioBips","type":"bool","internalType":"bool"},{"name":"useOnSetProtocolFeeBips","type":"bool","internalType":"bool"}]}]},{"name":"pullProviders","type":"tuple[]","internalType":"struct RoleProviderData[]","components":[{"name":"timeToLive","type":"uint32","internalType":"uint32"},{"name":"providerAddress","type":"address","internalType":"address"},{"name":"pullProviderIndex","type":"uint24","internalType":"uint24"},{"name":"pushProviderIndex","type":"uint24","internalType":"uint24"}]},{"name":"pushProviders","type":"tuple[]","internalType":"struct RoleProviderData[]","components":[{"name":"timeToLive","type":"uint32","internalType":"uint32"},{"name":"providerAddress","type":"address","internalType":"address"},{"name":"pullProviderIndex","type":"uint24","internalType":"uint24"},{"name":"pushProviderIndex","type":"uint24","internalType":"uint24"}]},{"name":"totalMarkets","type":"uint256","internalType":"uint256"}]},{"name":"temporaryReserveRatio","type":"bool","internalType":"bool"},{"name":"originalAnnualInterestBips","type":"uint256","internalType":"uint256"},{"name":"originalReserveRatioBips","type":"uint256","internalType":"uint256"},{"name":"temporaryReserveRatioExpiry","type":"uint256","internalType":"uint256"},{"name":"isClosed","type":"bool","internalType":"bool"},{"name":"protocolFeeBips","type":"uint256","internalType":"uint256"},{"name":"reserveRatioBips","type":"uint256","internalType":"uint256"},{"name":"annualInterestBips","type":"uint256","internalType":"uint256"},{"name":"scaleFactor","type":"uint256","internalType":"uint256"},{"name":"totalSupply","type":"uint256","internalType":"uint256"},{"name":"maxTotalSupply","type":"uint256","internalType":"uint256"},{"name":"scaledTotalSupply","type":"uint256","internalType":"uint256"},{"name":"totalAssets","type":"uint256","internalType":"uint256"},{"name":"lastAccruedProtocolFees","type":"uint256","internalType":"uint256"},{"name":"normalizedUnclaimedWithdrawals","type":"uint256","internalType":"uint256"},{"name":"scaledPendingWithdrawals","type":"uint256","internalType":"uint256"},{"name":"pendingWithdrawalExpiry","type":"uint256","internalType":"uint256"},{"name":"isDelinquent","type":"bool","internalType":"bool"},{"name":"timeDelinquent","type":"uint256","internalType":"uint256"},{"name":"lastInterestAccruedTimestamp","type":"uint256","internalType":"uint256"},{"name":"unpaidWithdrawalBatchExpiries","type":"uint32[]","internalType":"uint32[]"},{"name":"coverageLiquidity","type":"uint256","internalType":"uint256"}]},{"name":"lenderStatus","type":"tuple","internalType":"struct LenderAccountData","components":[{"name":"lender","type":"address","internalType":"address"},{"name":"scaledBalance","type":"uint256","internalType":"uint256"},{"name":"normalizedBalance","type":"uint256","internalType":"uint256"},{"name":"underlyingBalance","type":"uint256","internalType":"uint256"},{"name":"underlyingApproval","type":"uint256","internalType":"uint256"},{"name":"isBlockedFromDeposits","type":"bool","internalType":"bool"},{"name":"lastProvider","type":"tuple","internalType":"struct RoleProviderData","components":[{"name":"timeToLive","type":"uint32","internalType":"uint32"},{"name":"providerAddress","type":"address","internalType":"address"},{"name":"pullProviderIndex","type":"uint24","internalType":"uint24"},{"name":"pushProviderIndex","type":"uint24","internalType":"uint24"}]},{"name":"canRefresh","type":"bool","internalType":"bool"},{"name":"lastApprovalTimestamp","type":"uint32","internalType":"uint32"},{"name":"isKnownLender","type":"bool","internalType":"bool"}]},{"name":"withdrawalBatches","type":"tuple[]","internalType":"struct WithdrawalBatchDataWithLenderStatus[]","components":[{"name":"batch","type":"tuple","internalType":"struct WithdrawalBatchData","components":[{"name":"expiry","type":"uint32","internalType":"uint32"},{"name":"status","type":"uint8","internalType":"enum BatchStatus"},{"name":"scaledTotalAmount","type":"uint256","internalType":"uint256"},{"name":"scaledAmountBurned","type":"uint256","internalType":"uint256"},{"name":"normalizedAmountPaid","type":"uint256","internalType":"uint256"},{"name":"normalizedTotalAmount","type":"uint256","internalType":"uint256"}]},{"name":"lenderStatus","type":"tuple","internalType":"struct WithdrawalBatchLenderStatus","components":[{"name":"lender","type":"address","internalType":"address"},{"name":"scaledAmount","type":"uint256","internalType":"uint256"},{"name":"normalizedAmountWithdrawn","type":"uint256","internalType":"uint256"},{"name":"normalizedAmountOwed","type":"uint256","internalType":"uint256"},{"name":"availableWithdrawalAmount","type":"uint256","internalType":"uint256"}]}]}]}],"stateMutability":"view"},{"type":"error","name":"NotV2Market","inputs":[]}],"bytecode":{"object":"0x60c03460bd57601f61602a38819003918201601f19168301916001600160401b0383118484101760c157808492604094855283398101031260bd57604b602060458360d5565b920160d5565b6001600160a01b039182166080521660a052604051615f4190816100e982396080518181816117fc0152611bc4015260a0518181816109b60152818161174c0152818161192b01528181611b5001528181611f4d01528181612335015281816124160152818161251101526128e00152f35b5f80fd5b634e487b7160e01b5f52604160045260245ffd5b51906001600160a01b038216820360bd5756fe60806040526004361015610011575f80fd5b5f3560e01c8063098aaea8146101b45780630c52af99146101af5780631f69565f146101aa5780632385571b146101a5578063274631a3146101a05780633be9be7a1461019b5780633d8d2dcd1461019657806346a0fe47146101915780634b5a900d1461018c578063546355701461018757806362ef811914610182578063655314381461017d578063733efd1e1461017857806387fed6d2146101735780638febd74f1461016e5780639016be4f146101695780639f293fb114610164578063a30c302d1461015f578063b31d10151461015a578063bc6ba6f614610155578063c4482d3614610150578063d1a0745c1461014b578063dd92b92b14610146578063ddee086514610141578063e85dfdf01461013c5763ffc7005e14610137575f80fd5b612706565b612645565b612575565b612489565b61238d565b61229c565b612226565b61213e565b61202c565b612007565b611f2c565b611eae565b611e66565b611d95565b611ad6565b6118ab565b6117b2565b6116cf565b611601565b611467565b61136e565b610a22565b61096c565b610908565b610834565b61066b565b73ffffffffffffffffffffffffffffffffffffffff8116036101d757565b5f80fd5b7f4e487b71000000000000000000000000000000000000000000000000000000005f52604160045260245ffd5b6060810190811067ffffffffffffffff82111761022457604052565b6101db565b6080810190811067ffffffffffffffff82111761022457604052565b60a0810190811067ffffffffffffffff82111761022457604052565b60c0810190811067ffffffffffffffff82111761022457604052565b6040810190811067ffffffffffffffff82111761022457604052565b610160810190811067ffffffffffffffff82111761022457604052565b610140810190811067ffffffffffffffff82111761022457604052565b90601f7fffffffffffffffffffffffffffffffffffffffffffffffffffffffffffffffe0910116810190811067ffffffffffffffff82111761022457604052565b60405190610400820182811067ffffffffffffffff82111761022457604052565b60405190610100820182811067ffffffffffffffff82111761022457604052565b604051906101c0820182811067ffffffffffffffff82111761022457604052565b60405190610384826102b6565b565b60405190610120820182811067ffffffffffffffff82111761022457604052565b67ffffffffffffffff81116102245760051b60200190565b9080601f830112156101d75760209082356103d9816103a7565b936103e760405195866102d3565b81855260208086019260051b8201019283116101d757602001905b828210610410575050505090565b838091833561041e816101b9565b815201910190610402565b9060407ffffffffffffffffffffffffffffffffffffffffffffffffffffffffffffffffc8301126101d757600435610460816101b9565b916024359067ffffffffffffffff82116101d757610480916004016103bf565b90565b907fffffffffffffffffffffffffffffffffffffffffffffffffffffffffffffffe0601f602080948051918291828752018686015e5f8582860101520116010190565b9073ffffffffffffffffffffffffffffffffffffffff8251168152608080610512610500602086015160a0602087015260a0860190610483565b60408601518582036040870152610483565b93606081015160608501520151151591015290565b9060c0806105e173ffffffffffffffffffffffffffffffffffffffff80865116855260208601519060e0602087015281511660e086015261ffff60208201511661010086015260a06105896040830151856101208901526101a08801906104c6565b6060830151610140880152608083015161016088015291015161018086015260408681015115159086015260608681015115159086015260808681015162ffffff169086015260a086015185820360a0870152610483565b93015191015290565b6020808201906020835283518092526040830192602060408460051b8301019501935f915b84831061061f5750505050505090565b909192939495848061065b837fffffffffffffffffffffffffffffffffffffffffffffffffffffffffffffffc086600196030187528a51610527565b980193019301919493929061060f565b346101d75761069161068561067f36610429565b906128d0565b604051918291826105ea565b0390f35b63ffffffff8116036101d757565b9080601f830112156101d75760209082356106bd816103a7565b936106cb60405195866102d3565b81855260208086019260051b8201019283116101d757602001905b8282106106f4575050505090565b838091833561070281610695565b8152019101906106e6565b7f4e487b71000000000000000000000000000000000000000000000000000000005f52602160045260245ffd5b63ffffffff8151168252602081015160048110156107815760a091829160208501526040810151604085015260608101516060850152608081015160808501520151910152565b61070d565b9060c060206103849361079a84825161073a565b01519101906080809173ffffffffffffffffffffffffffffffffffffffff81511684526020810151602085015260408101516040850152606081015160608501520151910152565b9081518082526020808093019301915f5b828110610801575050505090565b9091929382610160826108176001948951610786565b019501939291016107f3565b9060206104809281815201906107e2565b346101d75760607ffffffffffffffffffffffffffffffffffffffffffffffffffffffffffffffffc3601126101d75760043561086f816101b9565b60243567ffffffffffffffff81116101d75761088f9036906004016106a3565b9060443561089c816101b9565b6108a683516129cc565b9273ffffffffffffffffffffffffffffffffffffffff5f9316925b81518110156108fa57806108f4846108db600194896128b7565b518763ffffffff6108ec86896128b7565b511691613447565b016108c1565b604051806106918782610823565b346101d75760207ffffffffffffffffffffffffffffffffffffffffffffffffffffffffffffffffc3601126101d757610691600435610946816101b9565b610958610951612777565b91826134a4565b6040519182916020835260208301906104c6565b346101d7575f7ffffffffffffffffffffffffffffffffffffffffffffffffffffffffffffffffc3601126101d757602060405173ffffffffffffffffffffffffffffffffffffffff7f0000000000000000000000000000000000000000000000000000000000000000168152f35b60209060206040818301928281528551809452019301915f5b828110610a01575050505090565b909192938260c082610a16600194895161073a565b019501939291016109f3565b346101d75760407ffffffffffffffffffffffffffffffffffffffffffffffffffffffffffffffffc3601126101d757600435610a5d816101b9565b60243567ffffffffffffffff81116101d757610a7d9036906004016106a3565b908151917fffffffffffffffffffffffffffffffffffffffffffffffffffffffffffffffe0610ac4610aae856103a7565b94610abc60405196876102d3565b8086526103a7565b015f5b818110610b3657505073ffffffffffffffffffffffffffffffffffffffff5f9216915b8151811015610b285780610b22610b03600193876128b7565b5185610b1c610b1285886128b7565b5163ffffffff1690565b9161383c565b01610aea565b6040518061069186826109da565b602090610b41612950565b82828801015201610ac7565b91906060838203126101d75760405190610b6682610208565b81938035610b73816101b9565b83526020810135610b83816101b9565b602084015260408101359167ffffffffffffffff83116101d757604092610baa92016106a3565b910152565b6003111561078157565b9060038210156107815752565b9061028061014061038493610bf184825173ffffffffffffffffffffffffffffffffffffffff169052565b610c806020820151602086019080511515825260208082015115159083015260408082015115159083015260608082015115159083015260808082015115159083015260a08082015115159083015260c08082015115159083015260e0808201511515908301526101008082015115159083015261012080820151151590830152610140908101511515910152565b610c936040820151610180860190610bb9565b606081015115156101a0850152608081015115156101c085015260a08101516fffffffffffffffffffffffffffffffff166101e085015260c0810151151561020085015260e0810151151561022085015261010081015163ffffffff1661024085015261012081015115156102608501525b01511515910152565b805163ffffffff168252610384919060208181015163ffffffff169083015260408181015161ffff169083015260608181015161ffff169083015260808181015161ffff169083015260a08181015161ffff169083015260c08181015163ffffffff169083015260e08181015163ffffffff16908301526101008181015161ffff16908301526101209081015161ffff16910152565b90610160602061038493610e3684825180511515825260208082015115159083015260408082015115159083015260608082015115159083015260808082015115159083015260a08082015115159083015260c08082015115159083015260e0808201511515908301526101008082015115159083015261012080820151151590830152610140908101511515910152565b015191019080511515825260208082015115159083015260408082015115159083015260608082015115159083015260808082015115159083015260a08082015115159083015260c08082015115159083015260e0808201511515908301526101008082015115159083015261012080820151151590830152610140908101511515910152565b9081518082526020808093019301915f5b828110610edc575050505090565b9091929382608082610f34600194895160609063ffffffff815116835273ffffffffffffffffffffffffffffffffffffffff60208201511660208401528160408201519162ffffff8093166040860152015116910152565b01950193929101610ece565b805173ffffffffffffffffffffffffffffffffffffffff168252906104e06101206105e1611000610fc8610fa461050060208981015173ffffffffffffffffffffffffffffffffffffffff16908901526040890151908060408a0152880190610483565b610fb660608901516060890190610bb9565b60808801518782036080890152610527565b610fda60a088015160a0880190610d0e565b610fed60c08801516101e0880190610da4565b60e08701518682036104a0880152610ebd565b6101008601518582036104c0870152610ebd565b9081518082526020808093019301915f5b828110611033575050505090565b835163ffffffff1685529381019392810192600101611025565b90610660826105e161107e61106c6106808451908088528701906104c6565b602084015186820360208801526104c6565b60408381015173ffffffffffffffffffffffffffffffffffffffff169086015260608381015173ffffffffffffffffffffffffffffffffffffffff16908601526110d060808401516080870190610bc6565b8260a081015191610320928388015260c082015161110961034091828a019073ffffffffffffffffffffffffffffffffffffffff169052565b61122e60e084015161036090818b01526101008501519261038093848c0152611143610120870151956103a0968d88818403910152610f40565b966111978c6104406101c06101606101408c01519b6111696103c09d8e87019015159052565b01519d6103e09e8f8501526101808101516104008501526101a0810151610420850152015191019015159052565b6101e08d01516104608d01526102008d01516104808d01526102208d01516104a08d01526102408d01516104c08d01526102608d01516104e08d01526102808d01516105008d01526102a08d01516105208d01526102c08d01516105408d01526102e08d01516105608d01526103008d01516105808d01528c01516105a08c01528b01516105c08b01528a015115156105e08a0152565b880151610600880152870151610620870152860151858203610640870152611014565b906101806101206103849361127c84825173ffffffffffffffffffffffffffffffffffffffff169052565b602081015160208501526040810151604085015260608101516060850152608081015160808501526112b760a082015160a086019015159052565b61130c60c082015160c086019060609063ffffffff815116835273ffffffffffffffffffffffffffffffffffffffff60208201511660208401528160408201519162ffffff8093166040860152015116910152565b60e0810151151561014085015261010081015163ffffffff16610160850152610d05565b61048091604061134a6101e084519080855284019061104d565b9261135d60208201516020850190611251565b0151906101c08184039101526107e2565b346101d75760207ffffffffffffffffffffffffffffffffffffffffffffffffffffffffffffffffc3601126101d75760043567ffffffffffffffff81116101d7576113c0610691913690600401610b4d565b6113d26113cb612d13565b9182613ae7565b604051918291602083526020830190611330565b6020808201906020835283518092526040830192602060408460051b8301019501935f915b84831061141b5750505050505090565b9091929394958480611457837fffffffffffffffffffffffffffffffffffffffffffffffffffffffffffffffc086600196030187528a51611330565b980193019301919493929061140b565b346101d7576020807ffffffffffffffffffffffffffffffffffffffffffffffffffffffffffffffffc3601126101d75767ffffffffffffffff906004358281116101d757366023820112156101d757602460048201356114c6816103a7565b946114d460405196876102d3565b8186526024602087019260051b850101933685116101d75760248101925b8584106115115761069161150589612d40565b604051918291826113e6565b83358381116101d757879161152c8392883691870101610b4d565b8152019301926114f2565b60207ffffffffffffffffffffffffffffffffffffffffffffffffffffffffffffffffc8201126101d7576004359067ffffffffffffffff82116101d757610480916004016103bf565b6020808201906020835283518092526040830192602060408460051b8301019501935f915b8483106115b55750505050505090565b90919293949584806115f1837fffffffffffffffffffffffffffffffffffffffffffffffffffffffffffffffc086600196030187528a516104c6565b98019301930191949392906115a5565b346101d75761160f36611537565b8051907fffffffffffffffffffffffffffffffffffffffffffffffffffffffffffffffe061165561163f846103a7565b9361164d60405195866102d3565b8085526103a7565b015f5b8181106116b85750505f5b81518110156116aa57806116a461167c600193866128b7565b5173ffffffffffffffffffffffffffffffffffffffff61169c84876128b7565b5116906134a4565b01611663565b604051806106918582611580565b6020906116c3612777565b82828701015201611658565b346101d75760207ffffffffffffffffffffffffffffffffffffffffffffffffffffffffffffffffc3601126101d75760043561170a816101b9565b6040517f6e50f9600000000000000000000000000000000000000000000000000000000081525f8160048173ffffffffffffffffffffffffffffffffffffffff7f0000000000000000000000000000000000000000000000000000000000000000165afa80156117ad5761069192610685925f92611789575b506128d0565b6117a69192503d805f833e61179e81836102d3565b810190612dee565b905f611783565b612e72565b346101d7575f7ffffffffffffffffffffffffffffffffffffffffffffffffffffffffffffffffc3601126101d757602060405173ffffffffffffffffffffffffffffffffffffffff7f0000000000000000000000000000000000000000000000000000000000000000168152f35b90808251908181526020809101926020808460051b8301019501935f915b84831061184e5750505050505090565b909192939495848061188a837fffffffffffffffffffffffffffffffffffffffffffffffffffffffffffffffe086600196030187528a51610f40565b980193019301919493929061183e565b906020610480928181520190611820565b346101d75760207ffffffffffffffffffffffffffffffffffffffffffffffffffffffffffffffffc3601126101d7576004356118e6816101b9565b6040517f62ef811900000000000000000000000000000000000000000000000000000000815273ffffffffffffffffffffffffffffffffffffffff91821660048201527f0000000000000000000000000000000000000000000000000000000000000000915f908290602490829086165afa9081156117ad575f916119d1575b50611972606051612e7d565b915f5b82518110156119c357806119bd8361198f600194886128b7565b516119b761199d85896128b7565b5173ffffffffffffffffffffffffffffffffffffffff1690565b90613ccc565b01611975565b60405180610691868261189a565b6119e591503d805f833e61179e81836102d3565b5f611966565b91909160209081815260a081019173ffffffffffffffffffffffffffffffffffffffff85511681830152808501511515604083015260408501519260806060840152835180915260c08301918060c08360051b8601019501925f905b838210611a8c5750505050506060610480939401519060807fffffffffffffffffffffffffffffffffffffffffffffffffffffffffffffffe082850301910152611820565b90919293958380611ac7837fffffffffffffffffffffffffffffffffffffffffffffffffffffffffffffff408a600196030186528a51610527565b98019201920190939291611a47565b346101d75760207ffffffffffffffffffffffffffffffffffffffffffffffffffffffffffffffffc3601126101d757600435611b11816101b9565b6040908151611b1f81610229565b5f60208201908152606084830181815281840191825273ffffffffffffffffffffffffffffffffffffffff851684527f0000000000000000000000000000000000000000000000000000000000000000959094919281517f0787c1fe00000000000000000000000000000000000000000000000000000000815273ffffffffffffffffffffffffffffffffffffffff84811660048301529160208280602481010381867f0000000000000000000000000000000000000000000000000000000000000000165afa9081156117ad57611c00925f92611d64575b509015159052565b81517f62ef811900000000000000000000000000000000000000000000000000000000815273ffffffffffffffffffffffffffffffffffffffff841660048201529087169590945f866024818a5afa9586156117ad575f96611d48575b50611c688651612e7d565b85525f5b8651811015611c9b5780611c958a611c876001948a516128b7565b516119b761199d858d6128b7565b01611c6c565b5082517f6e50f9600000000000000000000000000000000000000000000000000000000081529188915f846004818c5afa9384156117ad575f94611d2c575b50611ce5845161281e565b82525f5b8451811015611d1f5780611d1988611d0460019487516128b7565b5187611d1361199d868c6128b7565b916132aa565b01611ce9565b85518061069184826119eb565b611d419194503d805f833e61179e81836102d3565b9286611cda565b611d5d9196503d805f833e61179e81836102d3565b945f611c5d565b611d8791925060203d602011611d8e575b611d7f81836102d3565b81019061415c565b905f611bf8565b503d611d75565b346101d75760607ffffffffffffffffffffffffffffffffffffffffffffffffffffffffffffffffc3601126101d757610160600435611dd3816101b9565b611e14602435611de281610695565b60443590611def826101b9565b73ffffffffffffffffffffffffffffffffffffffff611e0c6129aa565b941684613447565b611e216040518092610786565bf35b7ffffffffffffffffffffffffffffffffffffffffffffffffffffffffffffffffc60409101126101d757600435611e59816101b9565b90602435610480816101b9565b346101d7576101a0611ea1611e7a36611e23565b919073ffffffffffffffffffffffffffffffffffffffff611e99612cc2565b931683614170565b611e216040518092611251565b346101d75760407ffffffffffffffffffffffffffffffffffffffffffffffffffffffffffffffffc3601126101d75760c0600435611eeb816101b9565b611f1f602435611efa81610695565b73ffffffffffffffffffffffffffffffffffffffff611f17612950565b93168361383c565b611e21604051809261073a565b346101d757610691611f72611f4036611e23565b9190611f4a6127a3565b927f0000000000000000000000000000000000000000000000000000000000000000846132aa565b604051918291602083526020830190610527565b6020808201906020835283518092526040830192602060408460051b8301019501935f915b848310611fbb5750505050505090565b9091929394958480611ff7837fffffffffffffffffffffffffffffffffffffffffffffffffffffffffffffffc086600196030187528a5161104d565b9801930193019194939290611fab565b346101d75761069161202061201b36611537565b612ee9565b60405191829182611f86565b346101d75760207ffffffffffffffffffffffffffffffffffffffffffffffffffffffffffffffffc3601126101d75761069160043561206a816101b9565b61209273ffffffffffffffffffffffffffffffffffffffff61208a612ba1565b92168261425d565b60405191829160208352602083019061104d565b610100909291926120bb8160e081019561073a565b60e060c0820152825180945201916020809201915f5b8281106120df575050505090565b909192938260a08261213260019489516080809173ffffffffffffffffffffffffffffffffffffffff81511684526020810151602085015260408101516040850152606081015160608501520151910152565b019501939291016120d1565b346101d75760607ffffffffffffffffffffffffffffffffffffffffffffffffffffffffffffffffc3601126101d757600435612179816101b9565b60243561218581610695565b6044359167ffffffffffffffff918284116101d757366023850112156101d75783600401359283116101d7573660248460051b860101116101d75760246121cd940191612fbc565b90610691604051928392836120a6565b60209060206040818301928281528551809452019301915f5b828110612204575050505090565b90919293826101a08261221a6001948951611251565b019501939291016121f6565b346101d75761223436610429565b9061223f8251613093565b9173ffffffffffffffffffffffffffffffffffffffff8092165f5b825181101561228e5780612288612273600193886128b7565b51848761228085896128b7565b511691614170565b0161225a565b6040518061069187826121dd565b346101d75760607ffffffffffffffffffffffffffffffffffffffffffffffffffffffffffffffffc3601126101d75760645f6004356122da816101b9565b73ffffffffffffffffffffffffffffffffffffffff92839160405194859384927feae6ff66000000000000000000000000000000000000000000000000000000008452166004830152602435602483015260443560448301527f0000000000000000000000000000000000000000000000000000000000000000165afa9081156117ad5761069191612020915f91612373575b50612ee9565b61238791503d805f833e61179e81836102d3565b5f61236d565b346101d75760207ffffffffffffffffffffffffffffffffffffffffffffffffffffffffffffffffc3601126101d757602460206004356123cc816101b9565b6040517fd1a0745c00000000000000000000000000000000000000000000000000000000815273ffffffffffffffffffffffffffffffffffffffff918216600482015292839182907f0000000000000000000000000000000000000000000000000000000000000000165afa80156117ad57610691915f9161245a575b506040519081529081906020820190565b61247c915060203d602011612482575b61247481836102d3565b8101906130ff565b5f612449565b503d61246a565b346101d75760207ffffffffffffffffffffffffffffffffffffffffffffffffffffffffffffffffc3601126101d75760245f6004356124c7816101b9565b6040517f1caab59d00000000000000000000000000000000000000000000000000000000815273ffffffffffffffffffffffffffffffffffffffff918216600482015292839182907f0000000000000000000000000000000000000000000000000000000000000000165afa9081156117ad5761069191612020915f916123735750612ee9565b906104809060208061256a6101c086519080865285019061104d565b940151910190611251565b346101d7576106916125b061258936611e23565b919073ffffffffffffffffffffffffffffffffffffffff6125a861310e565b931683614511565b60405191829160208352602083019061254e565b6020808201906020835283518092526040830192602060408460051b8301019501935f915b8483106125f95750505050505090565b9091929394958480612635837fffffffffffffffffffffffffffffffffffffffffffffffffffffffffffffffc086600196030187528a5161254e565b98019301930191949392906125e9565b346101d75761265336610429565b8051917fffffffffffffffffffffffffffffffffffffffffffffffffffffffffffffffe0612683610aae856103a7565b015f5b8181106126ef5750505f5b82518110156126e157806126db836126ab600194886128b7565b516126d56126bc61199d868a6128b7565b73ffffffffffffffffffffffffffffffffffffffff1690565b90614511565b01612691565b6040518061069186826125c4565b6020906126fa61310e565b82828801015201612686565b346101d75761271436610429565b61271e8151613093565b915f5b825181101561276957806127638361273b600194886128b7565b5173ffffffffffffffffffffffffffffffffffffffff61275b85896128b7565b511690614170565b01612721565b6040518061069186826121dd565b6040519061278482610245565b5f60808382815260606020820152606060408201528260608201520152565b6040519060e0820182811067ffffffffffffffff821117610224576040525f60c0838281526040516127d481610261565b8381528360208201526127e5612777565b60408201528360608201528360808201528360a08201526020820152826040820152826060820152826080820152606060a08201520152565b90612828826103a7565b61283560405191826102d3565b8281527fffffffffffffffffffffffffffffffffffffffffffffffffffffffffffffffe061286382946103a7565b01905f5b82811061287357505050565b60209061287e6127a3565b82828501015201612867565b7f4e487b71000000000000000000000000000000000000000000000000000000005f52603260045260245ffd5b80518210156128cb5760209160051b010190565b61288a565b9190916128dd835161281e565b927f00000000000000000000000000000000000000000000000000000000000000005f5b825181101561294a57806129448561291b6001948a6128b7565b518573ffffffffffffffffffffffffffffffffffffffff61293c868a6128b7565b5116916132aa565b01612901565b50505050565b6040519061295d82610261565b5f60a0838281528260208201528260408201528260608201528260808201520152565b6040519061298d82610245565b5f6080838281528260208201528260408201528260608201520152565b604051906129b78261027d565b816129c0612950565b81526020610baa612980565b906129d6826103a7565b6129e360405191826102d3565b8281527fffffffffffffffffffffffffffffffffffffffffffffffffffffffffffffffe0612a1182946103a7565b01905f5b828110612a2157505050565b602090612a2c6129aa565b82828501015201612a15565b60405190612a4582610299565b5f610140838281528260208201528260408201528260608201528260808201528260a08201528260c08201528260e082015282610100820152826101208201520152565b60405190612a9682610299565b5f61014083828152612aa6612a38565b60208201528260408201528260608201528260808201528260a08201528260c08201528260e082015282610100820152826101208201520152565b60405190612aee8261027d565b81612af7612a38565b81526020610baa612a38565b60405190612b10826102b6565b5f8281815281602082015260606040820152816060820152612b306127a3565b608082015260405190612b42826102b6565b8282528260208301528260408301528260608301528260808301528260a08301528260c08301528260e08301526060610100848185015261012093858582015260a0840152612b8f612ae1565b60c08401528160e08401528201520152565b612ba9610314565b90612bb2612777565b8252612bbc612777565b60208301525f60408301525f6060830152612bd5612a89565b60808301525f60a08301525f60c08301525f60e08301525f610100830152612bfb612b03565b6101208301525f6101408301525f6101608301525f6101808301525f6101a08301525f6101c08301525f6101e08301525f6102008301525f6102208301525f6102408301525f6102608301525f6102808301525f6102a08301525f6102c08301525f6102e08301525f6103008301525f6103208301525f6103408301525f6103608301525f6103808301525f6103a083015260606103c08301525f6103e0830152565b60405190612cab82610229565b5f6060838281528260208201528260408201520152565b60405190612ccf826102b6565b5f610120838281528260208201528260408201528260608201528260808201528260a0820152612cfd612c9e565b60c08201528260e0820152826101008201520152565b60405190612d2082610208565b6060604083612d2d612ba1565b8152612d37612cc2565b60208201520152565b9081517fffffffffffffffffffffffffffffffffffffffffffffffffffffffffffffffe0612d86612d70836103a7565b92612d7e60405194856102d3565b8084526103a7565b015f5b818110612dcc575050805f5b8451811015612dc65780612dc0612dae600193866128b7565b51612db983896128b7565b5190613ae7565b01612d95565b50925050565b602090612dd7612d13565b82828601015201612d89565b5190610384826101b9565b60209081818403126101d75780519067ffffffffffffffff82116101d757019180601f840112156101d7578251612e24816103a7565b93612e3260405195866102d3565b818552838086019260051b8201019283116101d7578301905b828210612e59575050505090565b8380918351612e67816101b9565b815201910190612e4b565b6040513d5f823e3d90fd5b90612e87826103a7565b612e9460405191826102d3565b8281527fffffffffffffffffffffffffffffffffffffffffffffffffffffffffffffffe0612ec282946103a7565b01905f5b828110612ed257505050565b602090612edd612b03565b82828501015201612ec6565b9081517fffffffffffffffffffffffffffffffffffffffffffffffffffffffffffffffe0612f19612d70836103a7565b015f5b818110612f8b575050805f5b8451811015612dc65780612f85612f41600193866128b7565b51612f7f73ffffffffffffffffffffffffffffffffffffffff612f64858b6128b7565b511673ffffffffffffffffffffffffffffffffffffffff1690565b9061425d565b01612f28565b602090612f96612ba1565b82828601015201612f1c565b91908110156128cb5760051b0190565b35610480816101b9565b9391612fe873ffffffffffffffffffffffffffffffffffffffff612fde612950565b961692838761383c565b612ff1846103a7565b91612fff60405193846102d3565b8483527fffffffffffffffffffffffffffffffffffffffffffffffffffffffffffffffe061302c866103a7565b015f5b81811061307c57505082945f5b81811061304a575050505050565b8061307661305a600193886128b7565b518a8661307061306b86898c612fa2565b612fb2565b926143db565b0161303c565b602090613087612980565b8282880101520161302f565b9061309d826103a7565b6130aa60405191826102d3565b8281527fffffffffffffffffffffffffffffffffffffffffffffffffffffffffffffffe06130d882946103a7565b01905f5b8281106130e857505050565b6020906130f3612cc2565b828285010152016130dc565b908160209103126101d7575190565b6040519061311b8261027d565b81613124612ba1565b81526020610baa612cc2565b519069ffffffffffffffffffff821682036101d757565b519061ffff821682036101d757565b519081151582036101d757565b519062ffffff821682036101d757565b81601f820112156101d75780519067ffffffffffffffff821161022457604051926131c660207fffffffffffffffffffffffffffffffffffffffffffffffffffffffffffffffe0601f86011601856102d3565b828452602083830101116101d757815f9260208093018386015e8301015290565b906020828203126101d757815167ffffffffffffffff928382116101d7570190610100828203126101d75761321a610335565b9261322483612de3565b845261323260208401613130565b602085015261324360408401613147565b604085015261325460608401613156565b606085015261326560808401613156565b608085015261327660a08401613163565b60a085015261328760c08401612de3565b60c085015260e08301519081116101d7576132a29201613173565b60e082015290565b6040517f2812d2de00000000000000000000000000000000000000000000000000000000815273ffffffffffffffffffffffffffffffffffffffff8481166004830152919493909183165f83602481845afa9283156117ad575f9361341a575b5073ffffffffffffffffffffffffffffffffffffffff821686526133d79160209161334461333b6060870151151590565b151560408a0152565b61335d6133546080870151151590565b151560608a0152565b61337c61337060a087015162ffffff1690565b62ffffff1660808a0152565b60e085015160a089015260405180809581947fd1a0745c0000000000000000000000000000000000000000000000000000000083526004830191909173ffffffffffffffffffffffffffffffffffffffff6020820193169052565b03915afa9485156117ad57610384956020925f916133fd575b5060c0820152015161452d565b6134149150833d85116124825761247481836102d3565b5f6133f0565b60209193509161343e6133d7933d805f833e61343681836102d3565b8101906131e7565b9391509161330a565b90613458610384949382845161383c565b60208201519151916143db565b906020828203126101d757815167ffffffffffffffff81116101d7576104809201613173565b908160209103126101d7575160ff811681036101d75790565b73ffffffffffffffffffffffffffffffffffffffff821680156136285773ffffffffffffffffffffffffffffffffffffffff831682526040517f06fdde030000000000000000000000000000000000000000000000000000000081525f81600481855afa9081156117ad575f9161360e575b5060208301526040517f95d89b410000000000000000000000000000000000000000000000000000000081525f81600481855afa9182156117ad576004926020925f916135ec575b506040850152604051928380927f313ce5670000000000000000000000000000000000000000000000000000000082525afa80156117ad576103849360ff6135b6926080945f916135bd575b5016606085015261473d565b1515910152565b6135df915060203d6020116135e5575b6135d781836102d3565b81019061348b565b5f6135aa565b503d6135cd565b61360891503d805f833e61360081836102d3565b810190613465565b5f61355e565b61362291503d805f833e61360081836102d3565b5f613516565b505050565b51906cffffffffffffffffffffffffff821682036101d757565b51906fffffffffffffffffffffffffffffffff821682036101d757565b908160609103126101d7576136a2604080519261368084610208565b6136898161362d565b84526136976020820161362d565b602085015201613647565b604082015290565b519061038482610695565b51906dffffffffffffffffffffffffffff821682036101d757565b90816101c09103126101d7576136e4610356565b906136ee81613156565b82526136fc60208201613647565b602083015261370d60408201613647565b604083015261371e60608201613647565b606083015261372f6080820161362d565b608083015261374060a0820161362d565b60a083015261375160c082016136aa565b60c083015261376260e08201613156565b60e08301526101006137758183016136aa565b90830152610120613787818301613147565b90830152610140613799818301613147565b908301526101606137ab818301613147565b908301526101806137bd8183016136b5565b908301526137cf6101a08092016136aa565b9082015290565b60048210156107815752565b7f4e487b71000000000000000000000000000000000000000000000000000000005f52601160045260245ffd5b9190820391821161381c57565b6137e2565b906001820180921161381c57565b9190820180921161381c57565b6040517fdbcd50b400000000000000000000000000000000000000000000000000000000815263ffffffff84166004820152909273ffffffffffffffffffffffffffffffffffffffff929092169190606081602481865afa9081156117ad575f91613ab8575b5063ffffffff821684526138d86138c682516cffffffffffffffffffffffffff1690565b6cffffffffffffffffffffffffff1690565b906040850191825260209163ffffffff61394061392b604061390c6138c6888801516cffffffffffffffffffffffffff1690565b9560608b0196875201516fffffffffffffffffffffffffffffffff1690565b6fffffffffffffffffffffffffffffffff1690565b6080880190815294164281106139f257505f838701525b81518151146139e557916139738192600495945190519061380f565b94604051948580927f683dd1910000000000000000000000000000000000000000000000000000000082525afa80156117ad5760a094610baa946139bf935f936139c6575b5050614757565b905161382f565b6139dd929350803d106124825761247481836102d3565b905f806139b8565b50505060a0915051910152565b6040517f0c1e3fea0000000000000000000000000000000000000000000000000000000081526101c09081816004818b5afa9182156117ad57613a5492613a4b926101a0925f92613a8b575b5050015163ffffffff1690565b63ffffffff1690565b1015613a6a57600186840152613957565b613957565b8151815103613a8157613a6560035b8488016137d6565b613a656002613a79565b613aaa9250803d10613ab1575b613aa281836102d3565b8101906136d0565b5f80613a3e565b503d613a98565b613ada915060603d606011613ae0575b613ad281836102d3565b810190613664565b5f6138a2565b503d613ac8565b919073ffffffffffffffffffffffffffffffffffffffff8060208301511690613b1182865161425d565b613b256020860151865183865116916147b8565b60408301946040613b378751516129cc565b91019081525f5b865151811015613b7d5780613b77613b5960019385516128b7565b5163ffffffff613b6a848c516128b7565b511687878a511692613447565b01613b3e565b50505050509050565b908160209103126101d75751610480816101b9565b60209081818403126101d75780519067ffffffffffffffff82116101d757019180601f840112156101d7578251613bd1816103a7565b93613bdf60405195866102d3565b818552838086019260051b8201019283116101d7578301905b828210613c06575050505090565b81518152908301908301613bf8565b90816101409103126101d757613c29610377565b90613c33816136aa565b8252613c41602082016136aa565b6020830152613c5260408201613147565b6040830152613c6360608201613147565b6060830152613c7460808201613147565b6080830152613c8560a08201613147565b60a0830152613c9660c082016136aa565b60c0830152613ca760e082016136aa565b60e0830152610100613cba818301613147565b908301526137cf610120809201613147565b73ffffffffffffffffffffffffffffffffffffffff828116808352604080517f2b07f2800000000000000000000000000000000000000000000000000000000081526004808201939093526020969495929480851692908883602481875afa9586156117ad5787935f9761413d575b50613d6f60808a01978851908c8c0194613d69865173ffffffffffffffffffffffffffffffffffffffff1690565b926132aa565b60a0818716975101518a81519101207fe88e57acc9274eb23d6b440f97946a8667dd9c51f6fa0896ee155045af71ca7b81145f1461410b5750600160608a01525b6060890151613dbe81610baf565b613dc781610baf565b613ecb575b50508760c0880151958251978880927f79502c550000000000000000000000000000000000000000000000000000000082525afa9586156117ad57613e6c968996613e1e925f92613eac575b506148ad565b518095819482937ffe604ec7000000000000000000000000000000000000000000000000000000008452830191909173ffffffffffffffffffffffffffffffffffffffff6020820193169052565b03915afa9283156117ad575f93613e87575b50506101200152565b6101209293509081613ea492903d106124825761247481836102d3565b91905f613e7e565b613ec4919250883d8a116124825761247481836102d3565b905f613e18565b90919250613eed825173ffffffffffffffffffffffffffffffffffffffff1690565b161561407b575b5080517f8f8ef4190000000000000000000000000000000000000000000000000000000081525f818781885afa80156117ad57613f38915f91614059575b506147ed565b60e087015280517f879277670000000000000000000000000000000000000000000000000000000081525f818781885afa80156117ad57613f7f915f9161405957506147ed565b61010087015280517fa11ef0670000000000000000000000000000000000000000000000000000000081526101409081818881895afa9182156117ad575f9261402c575b505060a08701528051907f06fdde030000000000000000000000000000000000000000000000000000000082525f828781885afa80156117ad5786925f91614012575b50818801525f80613dcc565b61402691503d805f833e61360081836102d3565b5f614006565b61404b9250803d10614052575b61404381836102d3565b810190613c15565b5f80613fc3565b503d614039565b61407591503d805f833e61406d81836102d3565b810190613b9b565b5f613f32565b8151907f7df1f1b900000000000000000000000000000000000000000000000000000000825288828881895afa9081156117ad576140d6925f926140dc575b509073ffffffffffffffffffffffffffffffffffffffff169052565b5f613ef4565b6140fd9192508a3d8c11614104575b6140f581836102d3565b810190613b86565b905f6140ba565b503d6140eb565b7fb6d5b28f5ed4cbf362aba0058b9c7c2183fbb2f9619e8c5f77f35ae2e23de54703613db057600260608a0152613db0565b6141559197508a3d8c11614104576140f581836102d3565b955f613d3b565b908160209103126101d75761048090613156565b6040517f38d52e0f0000000000000000000000000000000000000000000000000000000081526020939273ffffffffffffffffffffffffffffffffffffffff80821693928681600481885afa9485156117ad5787915f96614239575b5090600491604051928380927fcd7033c40000000000000000000000000000000000000000000000000000000082525afa9081156117ad57610384975f9261421c575b505060601c93169161493d565b6142329250803d106124825761247481836102d3565b5f8061420f565b82919650614255906004933d8411614104576140f581836102d3565b9590916141cc565b9061428173ffffffffffffffffffffffffffffffffffffffff8351921680926134a4565b6020820151604051917f38d52e0f000000000000000000000000000000000000000000000000000000008352602083600481845afa9283156117ad576004935f936142d3928592614384575b506134a4565b604051928380927f54fd4d500000000000000000000000000000000000000000000000000000000082525afa9081156117ad5760ff6001614321936032935f9161436a575b50015116141590565b614340578061433261038492614e1e565b61433b81615170565b6152e4565b60046040517faaf40101000000000000000000000000000000000000000000000000000000008152fd5b61437e91503d805f833e61360081836102d3565b5f614318565b61439e91925060203d602011614104576140f581836102d3565b905f6142cd565b908160409103126101d7576143d36020604051926143c28461027d565b6143cb8161362d565b845201613647565b602082015290565b73ffffffffffffffffffffffffffffffffffffffff9384168082528351604080517f02372c4f000000000000000000000000000000000000000000000000000000008152600481019390935263ffffffff909116602483015291949092829184916044918391165afa9283156117ad57608093856144d892610baa955f936144e0575b5086906144c76144bf6144a761392b60208061448a6138c68b516cffffffffffffffffffffffffff1690565b980198888a5201516fffffffffffffffffffffffffffffffff1690565b97808c0198895260a0840151908401958651916157be565b87519061380f565b60608a0152015191519051916157be565b90519061380f565b8791935061450390863d881161450a575b6144fb81836102d3565b8101906143a5565b929061445e565b503d6144f1565b6145206103849392825161425d565b60208101519051906147b8565b919061456d61455360c083015173ffffffffffffffffffffffffffffffffffffffff1690565b73ffffffffffffffffffffffffffffffffffffffff168452565b604081015161ffff16602084810191909152936145a86145998684015169ffffffffffffffffffff1690565b69ffffffffffffffffffff1690565b6060850152815173ffffffffffffffffffffffffffffffffffffffff92908316806145d7575b50505050505050565b6145e59060408701516134a4565b8282166145f3575b806145ce565b6126bc6126bc614617925173ffffffffffffffffffffffffffffffffffffffff1690565b6040517f70a0823100000000000000000000000000000000000000000000000000000000815273ffffffffffffffffffffffffffffffffffffffff83166004820152928684602481855afa9485156117ad576146d99588955f91614720575b5060808801526040517fdd62ed3e00000000000000000000000000000000000000000000000000000000815273ffffffffffffffffffffffffffffffffffffffff9485166004820152911690921660248301529092839190829081906044820190565b03915afa9283156117ad575f936146fc575b505060a001525f80808080806145ed565b60a0929350908161471892903d106124825761247481836102d3565b91905f6146eb565b6147379150863d88116124825761247481836102d3565b5f614676565b5f6004601c6020936328ccaa2984525afa60015f51141690565b817ffffffffffffffffffffffffffffffffffffffffffe6268e1b017bfe18bffffff04811115821517156147a6576b033b2e3c9fd0803ce800000091026b019d971e4fe8401e74000000010490565b634e487b715f5260116020526024601cfd5b610384929173ffffffffffffffffffffffffffffffffffffffff8082515116906080816020850151511693015151169261493d565b9081517fffffffffffffffffffffffffffffffffffffffffffffffffffffffffffffffe061481d612d70836103a7565b015f5b818110614896575050805f5b8451811015612dc65780614890614845600193866128b7565b5161485083896128b7565b5162ffffff808260101c1660608401528160281c16604083015273ffffffffffffffffffffffffffffffffffffffff8160401c16602083015260e01c9052565b0161482c565b6020906148a1612c9e565b82828601015201614820565b906103849160208151916148d46bffff0000000000000000000093848660501b16906157ff565b01519160401b16906157ff565b908160809103126101d7576060604051916148fb83610229565b61490481613156565b83526020810151614914816101b9565b602084015261492560408201613156565b6040840152015161493581610695565b606082015290565b73ffffffffffffffffffffffffffffffffffffffff858116808352604080517f1da24f3e000000000000000000000000000000000000000000000000000000008152600480820193909352602098919794969295841694919392908981602481895afa9081156117ad575f91614e01575b508988015287517f70a0823100000000000000000000000000000000000000000000000000000000918282528a8280614a06898c830191909173ffffffffffffffffffffffffffffffffffffffff6020820193169052565b03818a5afa80156117ad5785925f91614de4575b508a8a015216908851908152898180614a52888b830191909173ffffffffffffffffffffffffffffffffffffffff6020820193169052565b0381855afa9081156117ad575f91614dc7575b50606088015288885180927fdd62ed3e0000000000000000000000000000000000000000000000000000000082528180614ac98a8a8d840190602090939293604083019473ffffffffffffffffffffffffffffffffffffffff809216845216910152565b03915afa9081156117ad575f91614daa575b506080870152169081614af15750505050505050565b8551937f22a4a19f00000000000000000000000000000000000000000000000000000000855260808580614b448585830191909173ffffffffffffffffffffffffffffffffffffffff6020820193169052565b0381865afa9687156117ad5788955f98614d79575b5085880197614b7f6126bc8a5173ffffffffffffffffffffffffffffffffffffffff1690565b614c30575b50517fa9ff2dbf00000000000000000000000000000000000000000000000000000000815273ffffffffffffffffffffffffffffffffffffffff92831691810191825291909316602084015294508491829081906040015b03915afa9182156117ad57614bff935f93614c0b575b5050610120019015159052565b5f8080808080806145ce565b6101209293509081614c2892903d10611d8e57611d7f81836102d3565b91905f614bf2565b9550614c48614c3f8751151590565b151560a0890152565b614cbd89614c6f60c08a01519a5173ffffffffffffffffffffffffffffffffffffffff1690565b8351809381927fbfd269be00000000000000000000000000000000000000000000000000000000835287830191909173ffffffffffffffffffffffffffffffffffffffff6020820193169052565b0381885afa80156117ad5760608b98614d23614d4693614bdc9d614d54965f92614d5a575b509062ffffff808260101c1660608401528160281c16604083015273ffffffffffffffffffffffffffffffffffffffff8160401c16602083015260e01c9052565b614d3b614d3286830151151590565b151560e08d0152565b015163ffffffff1690565b63ffffffff16610100890152565b5f614b84565b614d729192508d803d106124825761247481836102d3565b905f614ce2565b614d9c91985060803d608011614da3575b614d9481836102d3565b8101906148e1565b965f614b59565b503d614d8a565b614dc19150893d8b116124825761247481836102d3565b5f614adb565b614dde91508a3d8c116124825761247481836102d3565b5f614a65565b614dfb91508c8d3d106124825761247481836102d3565b5f614a1a565b614e1891508a3d8c116124825761247481836102d3565b5f6149ae565b80515173ffffffffffffffffffffffffffffffffffffffff169073ffffffffffffffffffffffffffffffffffffffff8216906040928351927fc45a015500000000000000000000000000000000000000000000000000000000845260209460049186868481845afa9586156117ad575f96615122575b50614eb882860196879073ffffffffffffffffffffffffffffffffffffffff169052565b81517f7df1f1b900000000000000000000000000000000000000000000000000000000815287818581855afa80156117ad57614f13915f91615105575b5073ffffffffffffffffffffffffffffffffffffffff166060870152565b614f2260808601948551615a25565b81517f9e6f980200000000000000000000000000000000000000000000000000000000815287818581855afa9081156117ad575f916150e8575b5060a086015281517f4690484000000000000000000000000000000000000000000000000000000000815287818581855afa80156117ad57614fbd915f916150cb575b5073ffffffffffffffffffffffffffffffffffffffff1660c0870152565b8151917f4be687c600000000000000000000000000000000000000000000000000000000835287838581855afa80156117ad5788935f916150ae575b5060e087015251928380927f514a4cd60000000000000000000000000000000000000000000000000000000082525afa9081156117ad5761506d61508b936126bc9361012093610384995f92615091575b5050610100870152515173ffffffffffffffffffffffffffffffffffffffff1690565b930151935173ffffffffffffffffffffffffffffffffffffffff1690565b91613ccc565b6150a79250803d106124825761247481836102d3565b5f8061504a565b6150c59150843d86116124825761247481836102d3565b5f614ff9565b6150e29150893d8b11614104576140f581836102d3565b5f614f9f565b6150ff9150883d8a116124825761247481836102d3565b5f614f5c565b61511c9150893d8b11614104576140f581836102d3565b5f614ef5565b61513a919650873d8911614104576140f581836102d3565b945f614e94565b908160609103126101d75761515581613147565b91604061516460208401613147565b92015161048081610695565b615211906060615196825173ffffffffffffffffffffffffffffffffffffffff90511690565b6151c06126bc6126bc61012086015173ffffffffffffffffffffffffffffffffffffffff90511690565b60405180809681947ffeb368e20000000000000000000000000000000000000000000000000000000083526004830191909173ffffffffffffffffffffffffffffffffffffffff6020820193169052565b03915afa9182156117ad5761038492610140915f915f915f91615259575b5063ffffffff166101a0850181905261ffff91821661018086015291166101608401521515910152565b905063ffffffff9250615284915060603d60601161528e575b61527c81836102d3565b810190615141565b919290919061522f565b503d615272565b9061529f826103a7565b6152ac60405191826102d3565b8281527fffffffffffffffffffffffffffffffffffffffffffffffffffffffffffffffe06152da82946103a7565b0190602036910137565b61530a6126bc6126bc835173ffffffffffffffffffffffffffffffffffffffff90511690565b604051907f0c3f6acf0000000000000000000000000000000000000000000000000000000082526101c08083600481855afa9283156117ad575f9361579f575b506153606153588451151590565b151585830152565b61537a61537361012085015161ffff1690565b61ffff1690565b6101e085015261539361537361016085015161ffff1690565b6102008501526153ac61537361014085015161ffff1690565b6102208501526153e46153d16101808501516dffffffffffffffffffffffffffff1690565b6dffffffffffffffffffffffffffff1690565b61024085015260808301805190926cffffffffffffffffffffffffff9161540e9083165b86615f14565b6102608701526154556138c660209561543c61392b888a01516fffffffffffffffffffffffffffffffff1690565b6102808a0152516cffffffffffffffffffffffffff1690565b6102a08701526040517f01e1d1140000000000000000000000000000000000000000000000000000000081528481600481855afa9081156117ad575f91615782575b506102c0870152604051917f0cd1a5b60000000000000000000000000000000000000000000000000000000083528483600481855afa80156117ad576155af935f91615765575b506102e088015261550561392b60608801516fffffffffffffffffffffffffffffffff1690565b6103008801526155286138c660a08801516cffffffffffffffffffffffffff1690565b61032088015260c0860193615544613a4b865163ffffffff1690565b94610340890195865261556761555d60e08a0151151590565b15156103608b0152565b61557c613a4b6101008a015163ffffffff1690565b6103808a0152615597613a4b6101a08a015163ffffffff1690565b6103a08a015263ffffffff9485915163ffffffff1690565b16156155c8575b505050505050610baa6103e091615e51565b604051907f0c1e3fea0000000000000000000000000000000000000000000000000000000082528082600481875afa80156117ad576156179260c0925f92613a8b575050015163ffffffff1690565b9283169485156155b6576040517fdbcd50b400000000000000000000000000000000000000000000000000000000815263ffffffff8516600482015292606090849060249082905afa9283156117ad575f9361573c575b506138c66156a29161568d85516cffffffffffffffffffffffffff1690565b9401516cffffffffffffffffffffffffff1690565b9116036156be5750526103e090610baa905b915f8080806155b6565b93809592506103c0915001938451926156df6156da8551613821565b615295565b86525f5b845181101561571b57806157156156ff610b12600194896128b7565b61570a838b516128b7565b9063ffffffff169052565b016156e3565b5090936157379061570a6103e095610baa9598519051906128b7565b6156b4565b6156a291935061575d6138c69160603d606011613ae057613ad281836102d3565b93915061566e565b61577c9150863d88116124825761247481836102d3565b5f6154de565b6157999150853d87116124825761247481836102d3565b5f615497565b816157b79294503d8511613ab157613aa281836102d3565b915f61534a565b817fffffffffffffffffffffffffffffffffffffffffffffffffffffffffffffffff0481118202158302156157f257020490565b63ad251c275f526004601cfd5b6101406103849260019061581a8282605f1c16859015159052565b605e81901c821615156020850152605d81901c821615156040850152605c81901c821615156060850152605b81901c821615156080850152605a81901c8216151560a0850152605981901c8216151560c0850152605881901c8216151560e0850152605781901c82161515610100850152605681901c8216151561012085015260551c161515910152565b604051906158b28261027d565b600d82527f4f70656e5465726d486f6f6b73000000000000000000000000000000000000006020830152565b604051906158eb8261027d565b600e82527f46697865645465726d486f6f6b730000000000000000000000000000000000006020830152565b90816101209103126101d75761592b610386565b9061593581613156565b825261594360208201613156565b602083015261595460408201613156565b604083015261596560608201613156565b606083015261597660808201613647565b608083015261598760a082016136aa565b60a083015261599860c08201613156565b60c08301526159a960e08201613156565b60e08301526137cf610100809201613156565b908160a09103126101d757615a1d6080604051926159d984610245565b6159e281613156565b84526159f060208201613156565b6020850152615a0160408201613156565b6040850152615a1260608201613647565b606085015201613156565b608082015290565b60408051927fcd7033c4000000000000000000000000000000000000000000000000000000008452602090818560048173ffffffffffffffffffffffffffffffffffffffff85165afa9485156117ad575f95615e32575b50606085901c8085526004905f90615a9788868901516157ff565b8551928380927f54fd4d500000000000000000000000000000000000000000000000000000000082525afa9081156117ad575f91615e18575b50828151910120615adf6158a5565b8051908401208103615c60575060a0615b7291615afe85870160019052565b615b226126bc6126bc885173ffffffffffffffffffffffffffffffffffffffff1690565b855180809581947f2ccf46670000000000000000000000000000000000000000000000000000000083526004830191909173ffffffffffffffffffffffffffffffffffffffff6020820193169052565b03915afa80156117ad576103849560c0946135b6946080945f94615c14575b5091615bc7615bbf600193615bb7615bae615bd497890151151590565b151560608d0152565b860151151590565b151589870152565b605e1c16151560e0870152565b615c0d615bf460608301516fffffffffffffffffffffffffffffffff1690565b6fffffffffffffffffffffffffffffffff1660a0870152565b0151151590565b615bd493919450615bbf600193615bb7615bae615c4b615bc79560a03d60a011615c59575b615c4381836102d3565b8101906159bc565b989597505050935050615b91565b503d615c39565b9091929450615c6d6158de565b83815191012014615c7e5750505050565b600283850152615d00615cab6126bc6126bc865173ffffffffffffffffffffffffffffffffffffffff1690565b85517f2ccf466700000000000000000000000000000000000000000000000000000000815273ffffffffffffffffffffffffffffffffffffffff90931660048401526101209182918491829081906024820190565b03915afa80156117ad57615dce95610140946135b6945f93615dd7575b50615d4591615d34613354615d3c93860151151590565b830151151590565b15156080870152565b615d5e615d556060830151151590565b151560e0870152565b615d7e615bf460808301516fffffffffffffffffffffffffffffffff1690565b615c0d615d9260a083015163ffffffff1690565b92615da8610100948589019063ffffffff169052565b615dc1615db860c0850151151590565b151560c0890152565b60e0830151151590870152565b5f80808061294a565b615d3c91935091615d34613354615e06615d4595883d8a11615e11575b615dfe81836102d3565b810190615917565b959350505091615d1d565b503d615df4565b615e2c91503d805f833e61360081836102d3565b5f615ad0565b615e4a919550823d84116124825761247481836102d3565b935f615a7c565b6cffffffffffffffffffffffffff908160a082015116916080820151169180830392831161381c5761ffff61016083015116807fffffffffffffffffffffffffffffffffffffffffffffffffffffffffffffec7704841115811517156147a6576060615efc615ed6615408615ef69561271061138861392b976104809b02010461382f565b615ef661392b60408801516fffffffffffffffffffffffffffffffff1690565b9061382f565b9301516fffffffffffffffffffffffffffffffff1690565b906dffffffffffffffffffffffffffff610180610480930151169061475756fea164736f6c6343000819000a","linkReferences":{}},"methodIdentifiers":{"archController()":"54635570","getAllHooksTemplatesForBorrower(address)":"4b5a900d","getAllMarketsDataForHooksTemplate(address)":"dd92b92b","getHooksDataForBorrower(address)":"65531438","getHooksInstancesForBorrower(address)":"62ef8119","getHooksTemplateForBorrower(address,address)":"9016be4f","getHooksTemplatesForBorrower(address,address[])":"098aaea8","getLenderAccountData(address,address)":"87fed6d2","getLenderAccountData(address,address[])":"ffc7005e","getLenderAccountsData(address,address[])":"bc6ba6f6","getMarketData(address)":"a30c302d","getMarketDataWithLenderStatus(address,address)":"ddee0865","getMarketsData(address[])":"9f293fb1","getMarketsDataWithLenderStatus(address,address[])":"e85dfdf0","getMarketsForHooksTemplateCount(address)":"d1a0745c","getPaginatedMarketsDataForHooksTemplate(address,uint256,uint256)":"c4482d36","getTokenInfo(address)":"1f69565f","getTokensInfo(address[])":"46a0fe47","getWithdrawalBatchData(address,uint32)":"8febd74f","getWithdrawalBatchDataWithLenderStatus(address,uint32,address)":"733efd1e","getWithdrawalBatchDataWithLendersStatus(address,uint32,address[])":"b31d1015","getWithdrawalBatchesData(address,uint32[])":"274631a3","getWithdrawalBatchesDataWithLenderStatus(address,uint32[],address)":"0c52af99","hooksFactory()":"2385571b","queryLenderAccount((address,address,uint32[]))":"3be9be7a","queryLenderAccounts((address,address,uint32[])[])":"3d8d2dcd"},"id":53}