{"abi":[{"type":"constructor","inputs":[{"name":"_deployer","type":"address","internalType":"address"},{"name":"args","type":"bytes","internalType":"bytes"}],"stateMutability":"nonpayable"},{"type":"function","name":"MaximumLoanTerm","inputs":[],"outputs":[{"name":"","type":"uint32","internalType":"uint32"}],"stateMutability":"view"},{"type":"function","name":"addRoleProvider","inputs":[{"name":"providerAddress","type":"address","internalType":"address"},{"name":"timeToLive","type":"uint32","internalType":"uint32"}],"outputs":[],"stateMutability":"nonpayable"},{"type":"function","name":"blockFromDeposits","inputs":[{"name":"account","type":"address","internalType":"address"}],"outputs":[],"stateMutability":"nonpayable"},{"type":"function","name":"borrower","inputs":[],"outputs":[{"name":"","type":"address","internalType":"address"}],"stateMutability":"view"},{"type":"function","name":"config","inputs":[],"outputs":[{"name":"","type":"uint256","internalType":"HooksDeploymentConfig"}],"stateMutability":"view"},{"type":"function","name":"createRoleProvider","inputs":[{"name":"providerFactory","type":"address","internalType":"address"},{"name":"timeToLive","type":"uint32","internalType":"uint32"},{"name":"data","type":"bytes","internalType":"bytes"}],"outputs":[],"stateMutability":"nonpayable"},{"type":"function","name":"disableForceBuyBacks","inputs":[{"name":"market","type":"address","internalType":"address"}],"outputs":[],"stateMutability":"nonpayable"},{"type":"function","name":"factory","inputs":[],"outputs":[{"name":"","type":"address","internalType":"address"}],"stateMutability":"view"},{"type":"function","name":"getHookedMarket","inputs":[{"name":"marketAddress","type":"address","internalType":"address"}],"outputs":[{"name":"","type":"tuple","internalType":"struct HookedMarket","components":[{"name":"isHooked","type":"bool","internalType":"bool"},{"name":"transferRequiresAccess","type":"bool","internalType":"bool"},{"name":"depositRequiresAccess","type":"bool","internalType":"bool"},{"name":"withdrawalRequiresAccess","type":"bool","internalType":"bool"},{"name":"minimumDeposit","type":"uint128","internalType":"uint128"},{"name":"fixedTermEndTime","type":"uint32","internalType":"uint32"},{"name":"transfersDisabled","type":"bool","internalType":"bool"},{"name":"allowClosureBeforeTerm","type":"bool","internalType":"bool"},{"name":"allowTermReduction","type":"bool","internalType":"bool"},{"name":"allowForceBuyBacks","type":"bool","internalType":"bool"}]}],"stateMutability":"view"},{"type":"function","name":"getHookedMarkets","inputs":[{"name":"marketAddresses","type":"address[]","internalType":"address[]"}],"outputs":[{"name":"hookedMarkets","type":"tuple[]","internalType":"struct HookedMarket[]","components":[{"name":"isHooked","type":"bool","internalType":"bool"},{"name":"transferRequiresAccess","type":"bool","internalType":"bool"},{"name":"depositRequiresAccess","type":"bool","internalType":"bool"},{"name":"withdrawalRequiresAccess","type":"bool","internalType":"bool"},{"name":"minimumDeposit","type":"uint128","internalType":"uint128"},{"name":"fixedTermEndTime","type":"uint32","internalType":"uint32"},{"name":"transfersDisabled","type":"bool","internalType":"bool"},{"name":"allowClosureBeforeTerm","type":"bool","internalType":"bool"},{"name":"allowTermReduction","type":"bool","internalType":"bool"},{"name":"allowForceBuyBacks","type":"bool","internalType":"bool"}]}],"stateMutability":"view"},{"type":"function","name":"getLenderStatus","inputs":[{"name":"accountAddress","type":"address","internalType":"address"}],"outputs":[{"name":"status","type":"tuple","internalType":"struct LenderStatus","components":[{"name":"isBlockedFromDeposits","type":"bool","internalType":"bool"},{"name":"lastProvider","type":"address","internalType":"address"},{"name":"canRefresh","type":"bool","internalType":"bool"},{"name":"lastApprovalTimestamp","type":"uint32","internalType":"uint32"}]}],"stateMutability":"view"},{"type":"function","name":"getParameterConstraints","inputs":[],"outputs":[{"name":"constraints","type":"tuple","internalType":"struct MarketParameterConstraints","components":[{"name":"minimumDelinquencyGracePeriod","type":"uint32","internalType":"uint32"},{"name":"maximumDelinquencyGracePeriod","type":"uint32","internalType":"uint32"},{"name":"minimumReserveRatioBips","type":"uint16","internalType":"uint16"},{"name":"maximumReserveRatioBips","type":"uint16","internalType":"uint16"},{"name":"minimumDelinquencyFeeBips","type":"uint16","internalType":"uint16"},{"name":"maximumDelinquencyFeeBips","type":"uint16","internalType":"uint16"},{"name":"minimumWithdrawalBatchDuration","type":"uint32","internalType":"uint32"},{"name":"maximumWithdrawalBatchDuration","type":"uint32","internalType":"uint32"},{"name":"minimumAnnualInterestBips","type":"uint16","internalType":"uint16"},{"name":"maximumAnnualInterestBips","type":"uint16","internalType":"uint16"}]}],"stateMutability":"pure"},{"type":"function","name":"getPreviousLenderStatus","inputs":[{"name":"accountAddress","type":"address","internalType":"address"}],"outputs":[{"name":"status","type":"tuple","internalType":"struct LenderStatus","components":[{"name":"isBlockedFromDeposits","type":"bool","internalType":"bool"},{"name":"lastProvider","type":"address","internalType":"address"},{"name":"canRefresh","type":"bool","internalType":"bool"},{"name":"lastApprovalTimestamp","type":"uint32","internalType":"uint32"}]}],"stateMutability":"view"},{"type":"function","name":"getPullProviders","inputs":[],"outputs":[{"name":"","type":"uint256[]","internalType":"RoleProvider[]"}],"stateMutability":"view"},{"type":"function","name":"getPushProviders","inputs":[],"outputs":[{"name":"","type":"uint256[]","internalType":"RoleProvider[]"}],"stateMutability":"view"},{"type":"function","name":"getRoleProvider","inputs":[{"name":"providerAddress","type":"address","internalType":"address"}],"outputs":[{"name":"","type":"uint256","internalType":"RoleProvider"}],"stateMutability":"view"},{"type":"function","name":"grantRole","inputs":[{"name":"account","type":"address","internalType":"address"},{"name":"roleGrantedTimestamp","type":"uint32","internalType":"uint32"}],"outputs":[],"stateMutability":"nonpayable"},{"type":"function","name":"grantRoles","inputs":[{"name":"accounts","type":"address[]","internalType":"address[]"},{"name":"roleGrantedTimestamps","type":"uint32[]","internalType":"uint32[]"}],"outputs":[],"stateMutability":"nonpayable"},{"type":"function","name":"isKnownLenderOnMarket","inputs":[{"name":"lender","type":"address","internalType":"address"},{"name":"market","type":"address","internalType":"address"}],"outputs":[{"name":"","type":"bool","internalType":"bool"}],"stateMutability":"view"},{"type":"function","name":"name","inputs":[],"outputs":[{"name":"","type":"string","internalType":"string"}],"stateMutability":"view"},{"type":"function","name":"onBorrow","inputs":[{"name":"","type":"uint256","internalType":"uint256"},{"name":"","type":"tuple","internalType":"struct MarketState","components":[{"name":"isClosed","type":"bool","internalType":"bool"},{"name":"maxTotalSupply","type":"uint128","internalType":"uint128"},{"name":"accruedProtocolFees","type":"uint128","internalType":"uint128"},{"name":"normalizedUnclaimedWithdrawals","type":"uint128","internalType":"uint128"},{"name":"scaledTotalSupply","type":"uint104","internalType":"uint104"},{"name":"scaledPendingWithdrawals","type":"uint104","internalType":"uint104"},{"name":"pendingWithdrawalExpiry","type":"uint32","internalType":"uint32"},{"name":"isDelinquent","type":"bool","internalType":"bool"},{"name":"timeDelinquent","type":"uint32","internalType":"uint32"},{"name":"protocolFeeBips","type":"uint16","internalType":"uint16"},{"name":"annualInterestBips","type":"uint16","internalType":"uint16"},{"name":"reserveRatioBips","type":"uint16","internalType":"uint16"},{"name":"scaleFactor","type":"uint112","internalType":"uint112"},{"name":"lastInterestAccruedTimestamp","type":"uint32","internalType":"uint32"}]},{"name":"","type":"bytes","internalType":"bytes"}],"outputs":[],"stateMutability":"nonpayable"},{"type":"function","name":"onCloseMarket","inputs":[{"name":"","type":"tuple","internalType":"struct MarketState","components":[{"name":"isClosed","type":"bool","internalType":"bool"},{"name":"maxTotalSupply","type":"uint128","internalType":"uint128"},{"name":"accruedProtocolFees","type":"uint128","internalType":"uint128"},{"name":"normalizedUnclaimedWithdrawals","type":"uint128","internalType":"uint128"},{"name":"scaledTotalSupply","type":"uint104","internalType":"uint104"},{"name":"scaledPendingWithdrawals","type":"uint104","internalType":"uint104"},{"name":"pendingWithdrawalExpiry","type":"uint32","internalType":"uint32"},{"name":"isDelinquent","type":"bool","internalType":"bool"},{"name":"timeDelinquent","type":"uint32","internalType":"uint32"},{"name":"protocolFeeBips","type":"uint16","internalType":"uint16"},{"name":"annualInterestBips","type":"uint16","internalType":"uint16"},{"name":"reserveRatioBips","type":"uint16","internalType":"uint16"},{"name":"scaleFactor","type":"uint112","internalType":"uint112"},{"name":"lastInterestAccruedTimestamp","type":"uint32","internalType":"uint32"}]},{"name":"","type":"bytes","internalType":"bytes"}],"outputs":[],"stateMutability":"nonpayable"},{"type":"function","name":"onCreateMarket","inputs":[{"name":"deployer","type":"address","internalType":"address"},{"name":"marketAddress","type":"address","internalType":"address"},{"name":"parameters","type":"tuple","internalType":"struct DeployMarketInputs","components":[{"name":"asset","type":"address","internalType":"address"},{"name":"namePrefix","type":"string","internalType":"string"},{"name":"symbolPrefix","type":"string","internalType":"string"},{"name":"maxTotalSupply","type":"uint128","internalType":"uint128"},{"name":"annualInterestBips","type":"uint16","internalType":"uint16"},{"name":"delinquencyFeeBips","type":"uint16","internalType":"uint16"},{"name":"withdrawalBatchDuration","type":"uint32","internalType":"uint32"},{"name":"reserveRatioBips","type":"uint16","internalType":"uint16"},{"name":"delinquencyGracePeriod","type":"uint32","internalType":"uint32"},{"name":"hooks","type":"uint256","internalType":"HooksConfig"}]},{"name":"extraData","type":"bytes","internalType":"bytes"}],"outputs":[{"name":"","type":"uint256","internalType":"HooksConfig"}],"stateMutability":"nonpayable"},{"type":"function","name":"onDeposit","inputs":[{"name":"lender","type":"address","internalType":"address"},{"name":"scaledAmount","type":"uint256","internalType":"uint256"},{"name":"state","type":"tuple","internalType":"struct MarketState","components":[{"name":"isClosed","type":"bool","internalType":"bool"},{"name":"maxTotalSupply","type":"uint128","internalType":"uint128"},{"name":"accruedProtocolFees","type":"uint128","internalType":"uint128"},{"name":"normalizedUnclaimedWithdrawals","type":"uint128","internalType":"uint128"},{"name":"scaledTotalSupply","type":"uint104","internalType":"uint104"},{"name":"scaledPendingWithdrawals","type":"uint104","internalType":"uint104"},{"name":"pendingWithdrawalExpiry","type":"uint32","internalType":"uint32"},{"name":"isDelinquent","type":"bool","internalType":"bool"},{"name":"timeDelinquent","type":"uint32","internalType":"uint32"},{"name":"protocolFeeBips","type":"uint16","internalType":"uint16"},{"name":"annualInterestBips","type":"uint16","internalType":"uint16"},{"name":"reserveRatioBips","type":"uint16","internalType":"uint16"},{"name":"scaleFactor","type":"uint112","internalType":"uint112"},{"name":"lastInterestAccruedTimestamp","type":"uint32","internalType":"uint32"}]},{"name":"hooksData","type":"bytes","internalType":"bytes"}],"outputs":[],"stateMutability":"nonpayable"},{"type":"function","name":"onExecuteWithdrawal","inputs":[{"name":"lender","type":"address","internalType":"address"},{"name":"","type":"uint128","internalType":"uint128"},{"name":"","type":"tuple","internalType":"struct MarketState","components":[{"name":"isClosed","type":"bool","internalType":"bool"},{"name":"maxTotalSupply","type":"uint128","internalType":"uint128"},{"name":"accruedProtocolFees","type":"uint128","internalType":"uint128"},{"name":"normalizedUnclaimedWithdrawals","type":"uint128","internalType":"uint128"},{"name":"scaledTotalSupply","type":"uint104","internalType":"uint104"},{"name":"scaledPendingWithdrawals","type":"uint104","internalType":"uint104"},{"name":"pendingWithdrawalExpiry","type":"uint32","internalType":"uint32"},{"name":"isDelinquent","type":"bool","internalType":"bool"},{"name":"timeDelinquent","type":"uint32","internalType":"uint32"},{"name":"protocolFeeBips","type":"uint16","internalType":"uint16"},{"name":"annualInterestBips","type":"uint16","internalType":"uint16"},{"name":"reserveRatioBips","type":"uint16","internalType":"uint16"},{"name":"scaleFactor","type":"uint112","internalType":"uint112"},{"name":"lastInterestAccruedTimestamp","type":"uint32","internalType":"uint32"}]},{"name":"hooksData","type":"bytes","internalType":"bytes"}],"outputs":[],"stateMutability":"nonpayable"},{"type":"function","name":"onForceBuyBack","inputs":[{"name":"","type":"address","internalType":"address"},{"name":"","type":"uint256","internalType":"uint256"},{"name":"","type":"tuple","internalType":"struct MarketState","components":[{"name":"isClosed","type":"bool","internalType":"bool"},{"name":"maxTotalSupply","type":"uint128","internalType":"uint128"},{"name":"accruedProtocolFees","type":"uint128","internalType":"uint128"},{"name":"normalizedUnclaimedWithdrawals","type":"uint128","internalType":"uint128"},{"name":"scaledTotalSupply","type":"uint104","internalType":"uint104"},{"name":"scaledPendingWithdrawals","type":"uint104","internalType":"uint104"},{"name":"pendingWithdrawalExpiry","type":"uint32","internalType":"uint32"},{"name":"isDelinquent","type":"bool","internalType":"bool"},{"name":"timeDelinquent","type":"uint32","internalType":"uint32"},{"name":"protocolFeeBips","type":"uint16","internalType":"uint16"},{"name":"annualInterestBips","type":"uint16","internalType":"uint16"},{"name":"reserveRatioBips","type":"uint16","internalType":"uint16"},{"name":"scaleFactor","type":"uint112","internalType":"uint112"},{"name":"lastInterestAccruedTimestamp","type":"uint32","internalType":"uint32"}]},{"name":"","type":"bytes","internalType":"bytes"}],"outputs":[],"stateMutability":"nonpayable"},{"type":"function","name":"onNukeFromOrbit","inputs":[{"name":"","type":"address","internalType":"address"},{"name":"","type":"tuple","internalType":"struct MarketState","components":[{"name":"isClosed","type":"bool","internalType":"bool"},{"name":"maxTotalSupply","type":"uint128","internalType":"uint128"},{"name":"accruedProtocolFees","type":"uint128","internalType":"uint128"},{"name":"normalizedUnclaimedWithdrawals","type":"uint128","internalType":"uint128"},{"name":"scaledTotalSupply","type":"uint104","internalType":"uint104"},{"name":"scaledPendingWithdrawals","type":"uint104","internalType":"uint104"},{"name":"pendingWithdrawalExpiry","type":"uint32","internalType":"uint32"},{"name":"isDelinquent","type":"bool","internalType":"bool"},{"name":"timeDelinquent","type":"uint32","internalType":"uint32"},{"name":"protocolFeeBips","type":"uint16","internalType":"uint16"},{"name":"annualInterestBips","type":"uint16","internalType":"uint16"},{"name":"reserveRatioBips","type":"uint16","internalType":"uint16"},{"name":"scaleFactor","type":"uint112","internalType":"uint112"},{"name":"lastInterestAccruedTimestamp","type":"uint32","internalType":"uint32"}]},{"name":"","type":"bytes","internalType":"bytes"}],"outputs":[],"stateMutability":"nonpayable"},{"type":"function","name":"onQueueWithdrawal","inputs":[{"name":"lender","type":"address","internalType":"address"},{"name":"","type":"uint32","internalType":"uint32"},{"name":"","type":"uint256","internalType":"uint256"},{"name":"","type":"tuple","internalType":"struct MarketState","components":[{"name":"isClosed","type":"bool","internalType":"bool"},{"name":"maxTotalSupply","type":"uint128","internalType":"uint128"},{"name":"accruedProtocolFees","type":"uint128","internalType":"uint128"},{"name":"normalizedUnclaimedWithdrawals","type":"uint128","internalType":"uint128"},{"name":"scaledTotalSupply","type":"uint104","internalType":"uint104"},{"name":"scaledPendingWithdrawals","type":"uint104","internalType":"uint104"},{"name":"pendingWithdrawalExpiry","type":"uint32","internalType":"uint32"},{"name":"isDelinquent","type":"bool","internalType":"bool"},{"name":"timeDelinquent","type":"uint32","internalType":"uint32"},{"name":"protocolFeeBips","type":"uint16","internalType":"uint16"},{"name":"annualInterestBips","type":"uint16","internalType":"uint16"},{"name":"reserveRatioBips","type":"uint16","internalType":"uint16"},{"name":"scaleFactor","type":"uint112","internalType":"uint112"},{"name":"lastInterestAccruedTimestamp","type":"uint32","internalType":"uint32"}]},{"name":"hooksData","type":"bytes","internalType":"bytes"}],"outputs":[],"stateMutability":"nonpayable"},{"type":"function","name":"onRepay","inputs":[{"name":"normalizedAmount","type":"uint256","internalType":"uint256"},{"name":"state","type":"tuple","internalType":"struct MarketState","components":[{"name":"isClosed","type":"bool","internalType":"bool"},{"name":"maxTotalSupply","type":"uint128","internalType":"uint128"},{"name":"accruedProtocolFees","type":"uint128","internalType":"uint128"},{"name":"normalizedUnclaimedWithdrawals","type":"uint128","internalType":"uint128"},{"name":"scaledTotalSupply","type":"uint104","internalType":"uint104"},{"name":"scaledPendingWithdrawals","type":"uint104","internalType":"uint104"},{"name":"pendingWithdrawalExpiry","type":"uint32","internalType":"uint32"},{"name":"isDelinquent","type":"bool","internalType":"bool"},{"name":"timeDelinquent","type":"uint32","internalType":"uint32"},{"name":"protocolFeeBips","type":"uint16","internalType":"uint16"},{"name":"annualInterestBips","type":"uint16","internalType":"uint16"},{"name":"reserveRatioBips","type":"uint16","internalType":"uint16"},{"name":"scaleFactor","type":"uint112","internalType":"uint112"},{"name":"lastInterestAccruedTimestamp","type":"uint32","internalType":"uint32"}]},{"name":"hooksData","type":"bytes","internalType":"bytes"}],"outputs":[],"stateMutability":"nonpayable"},{"type":"function","name":"onSetAnnualInterestAndReserveRatioBips","inputs":[{"name":"annualInterestBips","type":"uint16","internalType":"uint16"},{"name":"reserveRatioBips","type":"uint16","internalType":"uint16"},{"name":"intermediateState","type":"tuple","internalType":"struct MarketState","components":[{"name":"isClosed","type":"bool","internalType":"bool"},{"name":"maxTotalSupply","type":"uint128","internalType":"uint128"},{"name":"accruedProtocolFees","type":"uint128","internalType":"uint128"},{"name":"normalizedUnclaimedWithdrawals","type":"uint128","internalType":"uint128"},{"name":"scaledTotalSupply","type":"uint104","internalType":"uint104"},{"name":"scaledPendingWithdrawals","type":"uint104","internalType":"uint104"},{"name":"pendingWithdrawalExpiry","type":"uint32","internalType":"uint32"},{"name":"isDelinquent","type":"bool","internalType":"bool"},{"name":"timeDelinquent","type":"uint32","internalType":"uint32"},{"name":"protocolFeeBips","type":"uint16","internalType":"uint16"},{"name":"annualInterestBips","type":"uint16","internalType":"uint16"},{"name":"reserveRatioBips","type":"uint16","internalType":"uint16"},{"name":"scaleFactor","type":"uint112","internalType":"uint112"},{"name":"lastInterestAccruedTimestamp","type":"uint32","internalType":"uint32"}]},{"name":"hooksData","type":"bytes","internalType":"bytes"}],"outputs":[{"name":"updatedAnnualInterestBips","type":"uint16","internalType":"uint16"},{"name":"updatedReserveRatioBips","type":"uint16","internalType":"uint16"}],"stateMutability":"nonpayable"},{"type":"function","name":"onSetMaxTotalSupply","inputs":[{"name":"","type":"uint256","internalType":"uint256"},{"name":"","type":"tuple","internalType":"struct MarketState","components":[{"name":"isClosed","type":"bool","internalType":"bool"},{"name":"maxTotalSupply","type":"uint128","internalType":"uint128"},{"name":"accruedProtocolFees","type":"uint128","internalType":"uint128"},{"name":"normalizedUnclaimedWithdrawals","type":"uint128","internalType":"uint128"},{"name":"scaledTotalSupply","type":"uint104","internalType":"uint104"},{"name":"scaledPendingWithdrawals","type":"uint104","internalType":"uint104"},{"name":"pendingWithdrawalExpiry","type":"uint32","internalType":"uint32"},{"name":"isDelinquent","type":"bool","internalType":"bool"},{"name":"timeDelinquent","type":"uint32","internalType":"uint32"},{"name":"protocolFeeBips","type":"uint16","internalType":"uint16"},{"name":"annualInterestBips","type":"uint16","internalType":"uint16"},{"name":"reserveRatioBips","type":"uint16","internalType":"uint16"},{"name":"scaleFactor","type":"uint112","internalType":"uint112"},{"name":"lastInterestAccruedTimestamp","type":"uint32","internalType":"uint32"}]},{"name":"","type":"bytes","internalType":"bytes"}],"outputs":[],"stateMutability":"nonpayable"},{"type":"function","name":"onSetProtocolFeeBips","inputs":[{"name":"","type":"uint16","internalType":"uint16"},{"name":"","type":"tuple","internalType":"struct MarketState","components":[{"name":"isClosed","type":"bool","internalType":"bool"},{"name":"maxTotalSupply","type":"uint128","internalType":"uint128"},{"name":"accruedProtocolFees","type":"uint128","internalType":"uint128"},{"name":"normalizedUnclaimedWithdrawals","type":"uint128","internalType":"uint128"},{"name":"scaledTotalSupply","type":"uint104","internalType":"uint104"},{"name":"scaledPendingWithdrawals","type":"uint104","internalType":"uint104"},{"name":"pendingWithdrawalExpiry","type":"uint32","internalType":"uint32"},{"name":"isDelinquent","type":"bool","internalType":"bool"},{"name":"timeDelinquent","type":"uint32","internalType":"uint32"},{"name":"protocolFeeBips","type":"uint16","internalType":"uint16"},{"name":"annualInterestBips","type":"uint16","internalType":"uint16"},{"name":"reserveRatioBips","type":"uint16","internalType":"uint16"},{"name":"scaleFactor","type":"uint112","internalType":"uint112"},{"name":"lastInterestAccruedTimestamp","type":"uint32","internalType":"uint32"}]},{"name":"","type":"bytes","internalType":"bytes"}],"outputs":[],"stateMutability":"nonpayable"},{"type":"function","name":"onTransfer","inputs":[{"name":"","type":"address","internalType":"address"},{"name":"","type":"address","internalType":"address"},{"name":"to","type":"address","internalType":"address"},{"name":"","type":"uint256","internalType":"uint256"},{"name":"","type":"tuple","internalType":"struct MarketState","components":[{"name":"isClosed","type":"bool","internalType":"bool"},{"name":"maxTotalSupply","type":"uint128","internalType":"uint128"},{"name":"accruedProtocolFees","type":"uint128","internalType":"uint128"},{"name":"normalizedUnclaimedWithdrawals","type":"uint128","internalType":"uint128"},{"name":"scaledTotalSupply","type":"uint104","internalType":"uint104"},{"name":"scaledPendingWithdrawals","type":"uint104","internalType":"uint104"},{"name":"pendingWithdrawalExpiry","type":"uint32","internalType":"uint32"},{"name":"isDelinquent","type":"bool","internalType":"bool"},{"name":"timeDelinquent","type":"uint32","internalType":"uint32"},{"name":"protocolFeeBips","type":"uint16","internalType":"uint16"},{"name":"annualInterestBips","type":"uint16","internalType":"uint16"},{"name":"reserveRatioBips","type":"uint16","internalType":"uint16"},{"name":"scaleFactor","type":"uint112","internalType":"uint112"},{"name":"lastInterestAccruedTimestamp","type":"uint32","internalType":"uint32"}]},{"name":"extraData","type":"bytes","internalType":"bytes"}],"outputs":[],"stateMutability":"nonpayable"},{"type":"function","name":"removeRoleProvider","inputs":[{"name":"providerAddress","type":"address","internalType":"address"}],"outputs":[],"stateMutability":"nonpayable"},{"type":"function","name":"revokeRole","inputs":[{"name":"account","type":"address","internalType":"address"}],"outputs":[],"stateMutability":"nonpayable"},{"type":"function","name":"setFixedTermEndTime","inputs":[{"name":"market","type":"address","internalType":"address"},{"name":"newFixedTermEndTime","type":"uint32","internalType":"uint32"}],"outputs":[],"stateMutability":"nonpayable"},{"type":"function","name":"setMinimumDeposit","inputs":[{"name":"market","type":"address","internalType":"address"},{"name":"newMinimumDeposit","type":"uint128","internalType":"uint128"}],"outputs":[],"stateMutability":"nonpayable"},{"type":"function","name":"setName","inputs":[{"name":"_name","type":"string","internalType":"string"}],"outputs":[],"stateMutability":"nonpayable"},{"type":"function","name":"temporaryExcessReserveRatio","inputs":[{"name":"","type":"address","internalType":"address"}],"outputs":[{"name":"originalAnnualInterestBips","type":"uint16","internalType":"uint16"},{"name":"originalReserveRatioBips","type":"uint16","internalType":"uint16"},{"name":"expiry","type":"uint32","internalType":"uint32"}],"stateMutability":"view"},{"type":"function","name":"unblockFromDeposits","inputs":[{"name":"account","type":"address","internalType":"address"}],"outputs":[],"stateMutability":"nonpayable"},{"type":"function","name":"version","inputs":[],"outputs":[{"name":"","type":"string","internalType":"string"}],"stateMutability":"pure"},{"type":"event","name":"AccountAccessGranted","inputs":[{"name":"providerAddress","type":"address","indexed":true,"internalType":"address"},{"name":"accountAddress","type":"address","indexed":true,"internalType":"address"},{"name":"credentialTimestamp","type":"uint32","indexed":false,"internalType":"uint32"}],"anonymous":false},{"type":"event","name":"AccountAccessRevoked","inputs":[{"name":"accountAddress","type":"address","indexed":true,"internalType":"address"}],"anonymous":false},{"type":"event","name":"AccountBlockedFromDeposits","inputs":[{"name":"accountAddress","type":"address","indexed":true,"internalType":"address"}],"anonymous":false},{"type":"event","name":"AccountMadeFirstDeposit","inputs":[{"name":"market","type":"address","indexed":true,"internalType":"address"},{"name":"accountAddress","type":"address","indexed":true,"internalType":"address"}],"anonymous":false},{"type":"event","name":"AccountUnblockedFromDeposits","inputs":[{"name":"accountAddress","type":"address","indexed":true,"internalType":"address"}],"anonymous":false},{"type":"event","name":"DisabledForceBuyBacks","inputs":[{"name":"market","type":"address","indexed":false,"internalType":"address"}],"anonymous":false},{"type":"event","name":"FixedTermUpdated","inputs":[{"name":"market","type":"address","indexed":false,"internalType":"address"},{"name":"fixedTermEndTime","type":"uint32","indexed":false,"internalType":"uint32"}],"anonymous":false},{"type":"event","name":"MinimumDepositUpdated","inputs":[{"name":"market","type":"address","indexed":false,"internalType":"address"},{"name":"newMinimumDeposit","type":"uint128","indexed":false,"internalType":"uint128"}],"anonymous":false},{"type":"event","name":"NameUpdated","inputs":[{"name":"name","type":"string","indexed":false,"internalType":"string"}],"anonymous":false},{"type":"event","name":"RoleProviderAdded","inputs":[{"name":"providerAddress","type":"address","indexed":true,"internalType":"address"},{"name":"timeToLive","type":"uint32","indexed":false,"internalType":"uint32"},{"name":"pullProviderIndex","type":"uint24","indexed":false,"internalType":"uint24"},{"name":"pushProviderIndex","type":"uint24","indexed":false,"internalType":"uint24"}],"anonymous":false},{"type":"event","name":"RoleProviderRemoved","inputs":[{"name":"providerAddress","type":"address","indexed":true,"internalType":"address"},{"name":"pullProviderIndex","type":"uint24","indexed":false,"internalType":"uint24"},{"name":"pushProviderIndex","type":"uint24","indexed":false,"internalType":"uint24"}],"anonymous":false},{"type":"event","name":"RoleProviderUpdated","inputs":[{"name":"providerAddress","type":"address","indexed":true,"internalType":"address"},{"name":"timeToLive","type":"uint32","indexed":false,"internalType":"uint32"},{"name":"pullProviderIndex","type":"uint24","indexed":false,"internalType":"uint24"},{"name":"pushProviderIndex","type":"uint24","indexed":false,"internalType":"uint24"}],"anonymous":false},{"type":"event","name":"TemporaryExcessReserveRatioActivated","inputs":[{"name":"market","type":"address","indexed":true,"internalType":"address"},{"name":"originalReserveRatioBips","type":"uint256","indexed":false,"internalType":"uint256"},{"name":"temporaryReserveRatioBips","type":"uint256","indexed":false,"internalType":"uint256"},{"name":"temporaryReserveRatioExpiry","type":"uint256","indexed":false,"internalType":"uint256"}],"anonymous":false},{"type":"event","name":"TemporaryExcessReserveRatioCanceled","inputs":[{"name":"market","type":"address","indexed":true,"internalType":"address"}],"anonymous":false},{"type":"event","name":"TemporaryExcessReserveRatioExpired","inputs":[{"name":"market","type":"address","indexed":true,"internalType":"address"}],"anonymous":false},{"type":"event","name":"TemporaryExcessReserveRatioUpdated","inputs":[{"name":"market","type":"address","indexed":true,"internalType":"address"},{"name":"originalReserveRatioBips","type":"uint256","indexed":false,"internalType":"uint256"},{"name":"temporaryReserveRatioBips","type":"uint256","indexed":false,"internalType":"uint256"},{"name":"temporaryReserveRatioExpiry","type":"uint256","indexed":false,"internalType":"uint256"}],"anonymous":false},{"type":"error","name":"AnnualInterestBipsOutOfBounds","inputs":[]},{"type":"error","name":"CallerNotBorrower","inputs":[]},{"type":"error","name":"CallerNotFactory","inputs":[]},{"type":"error","name":"ClosureDisabledBeforeTerm","inputs":[]},{"type":"error","name":"CreateRoleProviderFailed","inputs":[]},{"type":"error","name":"DelinquencyFeeBipsOutOfBounds","inputs":[]},{"type":"error","name":"DelinquencyGracePeriodOutOfBounds","inputs":[]},{"type":"error","name":"DepositBelowMinimum","inputs":[]},{"type":"error","name":"FixedTermNotProvided","inputs":[]},{"type":"error","name":"ForceBuyBackDisabledBeforeTerm","inputs":[]},{"type":"error","name":"ForceBuyBacksDisabled","inputs":[]},{"type":"error","name":"GrantedCredentialExpired","inputs":[]},{"type":"error","name":"IncreaseFixedTerm","inputs":[]},{"type":"error","name":"InvalidArrayLength","inputs":[]},{"type":"error","name":"InvalidCredentialReturned","inputs":[]},{"type":"error","name":"InvalidFixedTerm","inputs":[]},{"type":"error","name":"NoReducingAprBeforeTermEnd","inputs":[]},{"type":"error","name":"NotApprovedLender","inputs":[]},{"type":"error","name":"NotHookedMarket","inputs":[]},{"type":"error","name":"ProviderCanNotReplaceCredential","inputs":[]},{"type":"error","name":"ProviderCanNotRevokeCredential","inputs":[]},{"type":"error","name":"ProviderNotFound","inputs":[]},{"type":"error","name":"ReserveRatioBipsOutOfBounds","inputs":[]},{"type":"error","name":"TermReductionDisabled","inputs":[]},{"type":"error","name":"TransfersDisabled","inputs":[]},{"type":"error","name":"WithdrawBeforeTermEnd","inputs":[]},{"type":"error","name":"WithdrawalBatchDurationOutOfBounds","inputs":[]}],"bytecode":{"object":"0x60e0604090808252346103c357615910803803809161001e82856105da565b833981019082818303126103c357610035816105fd565b6020828101516001600160401b0394919391908581116103c3576100599201610656565b918160805261008f67ffffff0000000001600160e01b031983871b1760018060a01b038094165f526005835280875f205561069b565b3360a052634240900060c052825180610127575b8551614f9c90816109348239608051818181610347015281816108c201528181610c620152818161136f0152818161174b015281816118af01528181611af90152818161225b015281816123f30152818161266101528181612a480152612dc4015260a0518181816125e10152612d91015260c0518181816118600152612f830152f35b83018181019382818303126103c35782810151908682116103c35701936080858303126103c35786516080810181811088821117610507578852838601518781116103c357860182603f820112156103c35782818a8761018a9401519101610611565b81526101978887016105fd565b9184820192835260609660608101518981116103c357810182603f820112156103c357868101516101c781610673565b996101d48d519b8c6105da565b818b528c898c019260051b840101928584116103c3578c8e8201935b85851061055c575050505050508983019788526080810151908982116103c3570181603f820112156103c357858101519061022a82610673565b956102378c5197886105da565b8287528b8888019360061b8301019384116103c35791908b01915b83831061051b575050505060608101928352518051968711610507575f54926001978885811c951680156104fd575b868610146104e9578892601f95601f811161049a575b508690601f8311600114610434575f919083610429575b50505f19600383901b1c191690831b175f55859291905b5f825b6103de575b505050511692836102df575b506100a3565b5f969594855b6102f3575b508596506102d9565b805180518910156103d85788610308916106fb565b51978463ffffffff8a51169901518851906314f22bb960e11b8252868260049282848301528181518060248301528085604494018484015e5f8382840101528a601f1991011681010301815f8c5af19182156103ce575f92610393575b508482161561038557509061037d88999a899361070f565b0197966102e5565b895163228e729160e01b8152fd5b9091508681813d83116103c7575b6103ab81836105da565b810103126103c3576103bc906105fd565b905f610365565b5f80fd5b503d6103a1565b8a513d5f823e3d90fd5b506102ea565b908092939450518781518310156104205750906104146103ff8286946106fb565b5163ffffffff898b835116920151169061070f565b019082918794936102c8565b949392506102cd565b015190505f806102ae565b90601f198316915f8052885f20925f5b8a828210610484575050908487959493921061046c575b505050811b015f55908592916102c5565b01515f1960f88460031b161c191690555f808061045b565b8385015186558e98909501949384019301610444565b90919293505f8052865f20601f840160051c8101918885106104df575b90601f8c96959493920160051c01905b8181106104d45750610297565b5f81558b95016104c7565b90915081906104b7565b634e487b7160e01b5f52602260045260245ffd5b94607f1694610281565b634e487b7160e01b5f52604160045260245ffd5b8b8884830301126103c3578b8881938251610535816105bf565b61053e876105fd565b815261054b83880161068a565b838201528152019301929150610252565b84519182116103c3578f91830191601f19838d0301126103c3578f908f825190610585826105bf565b61059084860161068a565b8252868501519081116103c3578a8f95946105ae9287960101610656565b838201528152019301928d906101f0565b604081019081106001600160401b0382111761050757604052565b601f909101601f19168101906001600160401b0382119082101761050757604052565b51906001600160a01b03821682036103c357565b9192916001600160401b038211610507576040519161063a601f8201601f1916602001846105da565b8294818452818301116103c3578281602093845f96015e010152565b9080601f830112156103c357815161067092602001610611565b90565b6001600160401b0381116105075760051b60200190565b519063ffffffff821682036103c357565b600454680100000000000000008110156105075760018101806004558110156106e75760045f527f8a35acfbc15ff81a39ae7d344fd709f28e8600b4aa8c65c6b64bfe7fe36bd19b0155565b634e487b7160e01b5f52603260045260245ffd5b80518210156106e75760209160051b010190565b9060018060a01b03821690815f52602060058152604092835f205480155f146108765750835163256909f160e01b8152948286600481855afa95861561086c575f96610834575b5085156108245760035462ffffff908116915b8160101b8360281b1790871b8660e01b1717965f146107ff5760035491680100000000000000008310156105075760018301806003558310156106e7576005956107f35f805160206158d0833981519152938a879660035f52895f2001555b89519384938491604091949363ffffffff606085019616845262ffffff809216602085015216910152565b0390a25b5f52525f2055565b82916005956107f35f805160206158d08339815191529361081f8b61069b565b6107c8565b62ffffff90816004541690610769565b9095508281813d8311610865575b61084c81836105da565b810103126103c3575180151581036103c357945f610756565b503d610842565b85513d5f823e3d90fd5b6001600160e01b031660e084901b179450602885901c62ffffff9081169390601087901c8116908514610902576003548510156106e75760059483926108fa5f805160206158f08339815191529360035f528a84895f20015589519384938491604091949363ffffffff606085019616845262ffffff809216602085015216910152565b0390a26107f7565b6004548110156106e75760059483926108fa5f805160206158f08339815191529360045f528a81895f2001556107c856fe60806040526004361015610011575f80fd5b5f3560e01c806302420e7f1461029a57806303473d8d14610295578063064ed53b1461029057806306fdde031461028b5780631c4b36941461028657806322a4a19f1461028157806328fd03071461027c5780632970403d146102775780632ccf4667146102725780633521cccc1461026d57806336c892141461026857806354fd4d50146102635780635aeb713f1461025e5780636b2b369b14610259578063726303ef1461025457806379502c551461024f5780637df1f1b91461024a57806380e52e3f1461024557806383d9e1eb14610204578063849da1291461020457806387927767146102405780638adfe0f81461023b5780638b3ce9b3146102365780638f8ef419146102315780639d2a76fe1461022c5780639ecc64e614610227578063a018f90e14610222578063a11ef0671461021d578063a7fee65414610218578063a9ff2dbf14610213578063aa9486891461020e578063b037096d14610209578063b1cfda0d14610204578063bfd269be146101ff578063c45a0155146101fa578063c47f0027146101f5578063c888fb15146101f0578063cc452642146101eb578063ea5b13bd146101e6578063f040ed98146101e15763feb368e2146101dc575f80fd5b612a95565b612a77565b612a23565b612943565b6128dd565b612605565b6125b5565b61256c565b6119a7565b61251a565b6123bd565b61233d565b612226565b6121b1565b611f2b565b611dce565b611d21565b611c27565b611bbe565b611ac4565b611a40565b6118d3565b611883565b611849565b6116d2565b61167d565b61153f565b61145e565b6112fc565b6110cc565b610fce565b610ee8565b610dbf565b610d46565b610c25565b610b2a565b61088c565b610760565b610322565b73ffffffffffffffffffffffffffffffffffffffff8116036102bd57565b5f80fd5b63ffffffff8116036102bd57565b60e435906102dc826102c1565b565b61012435906102dc826102c1565b6101c435906102dc826102c1565b60031960409101126102bd576004356103128161029f565b9060243561031f816102c1565b90565b346102bd57610330366102fa565b73ffffffffffffffffffffffffffffffffffffffff7f00000000000000000000000000000000000000000000000000000000000000001633036104f9576103958273ffffffffffffffffffffffffffffffffffffffff165f52600760205260405f2090565b91825460ff8116156104cf5760ff8160d01c1615806104b9575b61048f5763ffffffff809160a01c16908316116104655782547fffffffffffffffff00000000ffffffffffffffffffffffffffffffffffffffff1660a083901b77ffffffff000000000000000000000000000000000000000016179092557f8fcb9a8dc61c986e7488a736bc8edc39e7f8b2bea37fdf7aa56cf142c5fe04b7916040805173ffffffffffffffffffffffffffffffffffffffff909216825263ffffffff909216602082015290819081015b0390a1005b60046040517f9b25ac5a000000000000000000000000000000000000000000000000000000008152fd5b60046040517f04a1ee32000000000000000000000000000000000000000000000000000000008152fd5b5063ffffffff808260a01c1690841611156103af565b60046040517fb217907b000000000000000000000000000000000000000000000000000000008152fd5b60046040517f3c698d79000000000000000000000000000000000000000000000000000000008152fd5b61ffff8116036102bd57565b61014435906102dc82610523565b61016435906102dc82610523565b61018435906102dc82610523565b7f4e487b71000000000000000000000000000000000000000000000000000000005f52604160045260245ffd5b610140810190811067ffffffffffffffff8211176105a357604052565b610559565b6080810190811067ffffffffffffffff8211176105a357604052565b90601f7fffffffffffffffffffffffffffffffffffffffffffffffffffffffffffffffe0910116810190811067ffffffffffffffff8211176105a357604052565b604051906101c0820182811067ffffffffffffffff8211176105a357604052565b604051906102dc82610586565b801515036102bd57565b602435906102dc82610633565b61010435906102dc82610633565b604435906fffffffffffffffffffffffffffffffff821682036102bd57565b606435906fffffffffffffffffffffffffffffffff821682036102bd57565b608435906fffffffffffffffffffffffffffffffff821682036102bd57565b602435906fffffffffffffffffffffffffffffffff821682036102bd57565b60a435906cffffffffffffffffffffffffff821682036102bd57565b60c435906cffffffffffffffffffffffffff821682036102bd57565b6dffffffffffffffffffffffffffff8116036102bd57565b6101a435906102dc8261070c565b9181601f840112156102bd5782359167ffffffffffffffff83116102bd57602083818601950101116102bd57565b346102bd576102006003193601126102bd5761077d600435610523565b6101c07fffffffffffffffffffffffffffffffffffffffffffffffffffffffffffffffdc3601126102bd576107b0610605565b6107b861063d565b81526107c2610658565b60208201526107cf610677565b60408201526107dc610696565b60608201526107e96106d4565b60808201526107f66106f0565b60a08201526108036102cf565b60c082015261081061064a565b60e082015261081d6102de565b61010082015261082b61052f565b61012082015261083961053d565b61014082015261084761054b565b610160820152610855610724565b6101808201526101a06108666102ec565b9101526101e43567ffffffffffffffff81116102bd5761088a903690600401610732565b005b346102bd5760206003193601126102bd576004356108a98161029f565b73ffffffffffffffffffffffffffffffffffffffff90817f00000000000000000000000000000000000000000000000000000000000000001633036104f95716805f526001602052610a1d61090060405f20612b08565b6109d36060820163ffffffff815116610a43575b60018352845f52600160205260405f209261095d81511515859060ff7fffffffffffffffffffffffffffffffffffffffffffffffffffffffffffffff0083541691151516179055565b6020810151907fffffffffffffffffffff000000000000000000000000000000000000000000ff74ffffffffffffffffffffffffffffffffffffffff0075ff00000000000000000000000000000000000000000060408854940151151560a81b169360081b169116171783555163ffffffff1690565b7fffffffffffff00000000ffffffffffffffffffffffffffffffffffffffffffff79ffffffff0000000000000000000000000000000000000000000083549260b01b169116179055565b7f25b0d1830e0d487402e2c828de3ccbc9d16bd911aaec75fbba1bffd32657fad45f80a2005b610a5b8360205f918260408201528260608201520152565b847f47695aa96e09db0d106b9bd402979d6aff7e51ada06ec6fe014e5eeadd8c1dc05f80a2610914565b90600182811c92168015610acc575b6020831014610a9f57565b7f4e487b71000000000000000000000000000000000000000000000000000000005f52602260045260245ffd5b91607f1691610a94565b907fffffffffffffffffffffffffffffffffffffffffffffffffffffffffffffffe0601f602080948051918291828752018686015e5f8582860101520116010190565b90602061031f928181520190610ad6565b346102bd575f6003193601126102bd576040515f8054610b4981610a85565b80845290602090600190818116908115610bdd5750600114610b86575b610b8285610b76818703826105c4565b60405191829182610b19565b0390f35b5f80805293507f290decd9548b62a8d60345a988386fc84ba6bc95484008f6362f93160ef3e5635b838510610bca57505050508101602001610b7682610b82610b66565b8054868601840152938201938101610bae565b869550610b8296935060209250610b769491507fffffffffffffffffffffffffffffffffffffffffffffffffffffffffffffff001682840152151560051b8201019293610b66565b346102bd5760406003193601126102bd57600435610c428161029f565b610c4a6106b5565b73ffffffffffffffffffffffffffffffffffffffff807f00000000000000000000000000000000000000000000000000000000000000001633036104f95782165f52600760205260405f209160ff835416156104cf5782547fffffffffffffffffffffffff00000000000000000000000000000000ffffffff16602083901b73ffffffffffffffffffffffffffffffff0000000016179092557f4e39f53293455dca8fe1725b2dfcbe6abd2f44d777b7f2a7279526e17d7ebede916040805173ffffffffffffffffffffffffffffffffffffffff90921682526fffffffffffffffffffffffffffffffff90921660208201529081908101610460565b346102bd5760206003193601126102bd57610b82610d6e600435610d698161029f565b612c5f565b60405191829182919091606063ffffffff81608084019580511515855273ffffffffffffffffffffffffffffffffffffffff6020820151166020860152604081015115156040860152015116910152565b346102bd576003196080813601126102bd5760043590610dde8261029f565b602435610dea8161029f565b60443567ffffffffffffffff928382116102bd576101409082360301126102bd576064359283116102bd57610b8293610e2a610e36943690600401610732565b93909260040191612d73565b6040519081529081906020820190565b7fffffffffffffffffffffffffffffffffffffffffffffffffffffffffffffffbc6101c09101126102bd57604490565b7fffffffffffffffffffffffffffffffffffffffffffffffffffffffffffffff9c6101c09101126102bd57606490565b6003196101c09101126102bd57600490565b7fffffffffffffffffffffffffffffffffffffffffffffffffffffffffffffff7c6101c09101126102bd57608490565b346102bd576102206003193601126102bd57610f0560043561029f565b610f0d6106b5565b50610f1736610e46565b506102043567ffffffffffffffff81116102bd5761088a903690600401610732565b610140810192916102dc91908051151582526020808201511515908301526040808201511515908301526060808201511515908301526080808201516fffffffffffffffffffffffffffffffff169083015260a08082015163ffffffff169083015260c08082015115159083015260e08082015115159083015261010080820151151590830152610120908101511515910152565b346102bd5760206003193601126102bd5773ffffffffffffffffffffffffffffffffffffffff6004356110008161029f565b611008613147565b50165f526007602052610b8260405f206110c06040519161102883610586565b5460ff8082161515845290600881901c821615156020850152601081901c821615156040850152601881901c821615156060850152602081901c6fffffffffffffffffffffffffffffffff16608085015260a081811c63ffffffff169085015260c081811c831615159085015260c881901c8216151560e085015260d081901c8216151561010085015260d81c161515610120830152565b60405191829182610f39565b346102bd576102406003193601126102bd576004356110ea8161029f565b6110f56024356102c1565b6110fe36610e76565b506102243567ffffffffffffffff81116102bd57611120903690600401610732565b61115361114e9392933373ffffffffffffffffffffffffffffffffffffffff165f52600760205260405f2090565b613191565b926111656111618551151590565b1590565b6104cf5760a08401514263ffffffff9091161161126e576111b960606111b16111ac8673ffffffffffffffffffffffffffffffffffffffff165f52600160205260405f2090565b612b08565b950151151590565b6111bf57005b61121b611161611214336111f18773ffffffffffffffffffffffffffffffffffffffff165f52600260205260405f2090565b9073ffffffffffffffffffffffffffffffffffffffff165f5260205260405f2090565b5460ff1690565b9283611257575b505050905061122d57005b60046040517fe50a45ce000000000000000000000000000000000000000000000000000000008152fd5b611161935061126594613a45565b805f8080611222565b60046040517ffb868501000000000000000000000000000000000000000000000000000000008152fd5b92919267ffffffffffffffff82116105a357604051916112e060207fffffffffffffffffffffffffffffffffffffffffffffffffffffffffffffffe0601f84011601846105c4565b8294818452818301116102bd578281602093845f960137010152565b346102bd5760606003193601126102bd576004356113198161029f565b602435611325816102c1565b60443567ffffffffffffffff81116102bd57366023820112156102bd57611356903690602481600401359101611298565b73ffffffffffffffffffffffffffffffffffffffff92837f00000000000000000000000000000000000000000000000000000000000000001633036104f9576113da60209185935f6040519788809581947f29e457720000000000000000000000000000000000000000000000000000000083528860048401526024830190610ad6565b0393165af1928315611459575f93611428575b508216156113fe5761088a91614938565b60046040517f228e7291000000000000000000000000000000000000000000000000000000008152fd5b61144b91935060203d602011611452575b61144381836105c4565b810190613b86565b915f6113ed565b503d611439565b613b9b565b346102bd575f6003193601126102bd57604051604081019080821067ffffffffffffffff8311176105a357610b8291604052600e81527f46697865645465726d486f6f6b730000000000000000000000000000000000006020820152604051918291602083526020830190610ad6565b906102206003198301126102bd576004356114e88161029f565b91602435916101c07fffffffffffffffffffffffffffffffffffffffffffffffffffffffffffffffbc8301126102bd57604491610204359067ffffffffffffffff82116102bd5761153b91600401610732565b9091565b346102bd5761154d366114ce565b61157c61114e959294953373ffffffffffffffffffffffffffffffffffffffff165f52600760205260405f2090565b9261158a6111618551151590565b6104cf576115b96111ac8473ffffffffffffffffffffffffffffffffffffffff165f52600160205260405f2090565b956115c48751151590565b61122d576115ee6115db6101806115f49401613242565b6dffffffffffffffffffffffffffff1690565b90613ba6565b6fffffffffffffffffffffffffffffffff61162260808601516fffffffffffffffffffffffffffffffff1690565b161161165357611639611643916040958488613c07565b9490930151151590565b82151661122d5761088a93613d4b565b60046040517fc24b1b61000000000000000000000000000000000000000000000000000000008152fd5b346102bd5761168b366102fa565b335f52600560205260405f20549182156116a85761088a92613ed4565b60046040517fb1cd0903000000000000000000000000000000000000000000000000000000008152fd5b346102bd576116e0366114ce565b505050505061171061114e3373ffffffffffffffffffffffffffffffffffffffff165f52600760205260405f2090565b61171d6111618251151590565b6104cf57611732611161610120830151151590565b61181f5760a0015163ffffffff9042908216116117f5577f00000000000000000000000000000000000000000000000000000000000000006117928173ffffffffffffffffffffffffffffffffffffffff165f52600160205260405f2090565b906117b16111616117a284612b08565b6060015163ffffffff16151590565b6117b757005b61088a926117f06117e68373ffffffffffffffffffffffffffffffffffffffff165f52600560205260405f2090565b5491421693612b08565b614087565b60046040517f41b4ac59000000000000000000000000000000000000000000000000000000008152fd5b60046040517f1f79558d000000000000000000000000000000000000000000000000000000008152fd5b346102bd575f6003193601126102bd5760206040517f00000000000000000000000000000000000000000000000000000000000000008152f35b346102bd575f6003193601126102bd57602060405173ffffffffffffffffffffffffffffffffffffffff7f0000000000000000000000000000000000000000000000000000000000000000168152f35b346102bd5760206003193601126102bd576004356118f08161029f565b73ffffffffffffffffffffffffffffffffffffffff80911690815f52600160205261191d60405f20612b08565b90602082015116330361197d57806119466119579260205f918260408201528260608201520152565b825f52600160205260405f20612b5d565b7f47695aa96e09db0d106b9bd402979d6aff7e51ada06ec6fe014e5eeadd8c1dc05f80a2005b60046040517f3a364f3d000000000000000000000000000000000000000000000000000000008152fd5b346102bd576102006003193601126102bd576101c07fffffffffffffffffffffffffffffffffffffffffffffffffffffffffffffffdc3601126102bd576101e43567ffffffffffffffff81116102bd5761088a903690600401610732565b60209060206040818301928281528551809452019301915f5b828110611a2c575050505090565b835185529381019392810192600101611a1e565b346102bd575f6003193601126102bd57604051806004549182815260208091019260045f527f8a35acfbc15ff81a39ae7d344fd709f28e8600b4aa8c65c6b64bfe7fe36bd19b915f905b828210611aad57610b8285611aa1818903826105c4565b60405191829182611a05565b835486529485019460019384019390910190611a8a565b346102bd5760206003193601126102bd57600435611ae18161029f565b73ffffffffffffffffffffffffffffffffffffffff807f00000000000000000000000000000000000000000000000000000000000000001633036104f9578116805f52600560205260405f20549182156116a85773ffffffffffffffffffffffffffffffffffffffff165f90815260056020908152604080832092909255815162ffffff602886901c811680835260109690961c8116928201839052919391927fd40af841b3d79ec50752ce038e1ee39d243ed894aacf7c3b8f9a87b09ec8fc9791a28214611bb4575061088a906143d5565b61088a915061425a565b346102bd576102006003193601126102bd57611bdb60043561029f565b6101c07fffffffffffffffffffffffffffffffffffffffffffffffffffffffffffffffdc3601126102bd576101e43567ffffffffffffffff81116102bd5761088a903690600401610732565b346102bd575f6003193601126102bd57604051806003549182815260208091019260035f527fc2575a0e9e593c00f959f8c92f12db2869c3395a3b0502d05e2516446f71f85b915f905b828210611c8857610b8285611aa1818903826105c4565b835486529485019460019384019390910190611c71565b67ffffffffffffffff81116105a35760051b60200190565b9080601f830112156102bd576020908235611cd181611c9f565b93611cdf60405195866105c4565b81855260208086019260051b8201019283116102bd57602001905b828210611d08575050505090565b8380918335611d16816102c1565b815201910190611cfa565b346102bd5760406003193601126102bd5767ffffffffffffffff6004358181116102bd57366023820112156102bd578060040135611d5e81611c9f565b91611d6c60405193846105c4565b8183526020916024602085019160051b830101913683116102bd57602401905b828210611db557602435858782116102bd57611daf61088a923690600401611cb7565b90613292565b8380918335611dc38161029f565b815201910190611d8c565b346102bd576101e06003193601126102bd57611de936610ea6565b506101c43567ffffffffffffffff81116102bd57611e0b903690600401610732565b5050335f90815260076020526040902080549060ff8216156104cf5760ff8260c81c161580611f19575b611eef5763ffffffff9182429160a01c1611611e4d57005b611ed261046091611ec57f8fcb9a8dc61c986e7488a736bc8edc39e7f8b2bea37fdf7aa56cf142c5fe04b794421682907fffffffffffffffff00000000ffffffffffffffffffffffffffffffffffffffff77ffffffff000000000000000000000000000000000000000083549260a01b169116179055565b5460a01c63ffffffff1690565b6040805133815263ffffffff909216602083015290918291820190565b60046040517f9bc5c4d5000000000000000000000000000000000000000000000000000000008152fd5b5063ffffffff8260a01c164210611e35565b346102bd576102606003193601126102bd576004611f49813561029f565b611f5460243561029f565b604435611f608161029f565b611f6936610eb8565b506102443567ffffffffffffffff81116102bd57611f8a9036908401610732565b9091611fb761114e3373ffffffffffffffffffffffffffffffffffffffff165f52600760205260405f2090565b91611fc56111618451151590565b6120eb5760c08301516120c257612004611161611214336111f18673ffffffffffffffffffffffffffffffffffffffff165f52600260205260405f2090565b61200a57005b6120356111ac8373ffffffffffffffffffffffffffffffffffffffff165f52600160205260405f2090565b906120408251151590565b6120995761205561205f916020968585613c07565b9590940151151590565b8315166120705761088a9450613d4b565b846040517fe50a45ce000000000000000000000000000000000000000000000000000000008152fd5b856040517fe50a45ce000000000000000000000000000000000000000000000000000000008152fd5b846040517f8574adcf000000000000000000000000000000000000000000000000000000008152fd5b846040517fb217907b000000000000000000000000000000000000000000000000000000008152fd5b815163ffffffff168152610140810192916102dc919060208181015163ffffffff169083015260408181015161ffff169083015260608181015161ffff169083015260808181015161ffff169083015260a08181015161ffff169083015260c08181015163ffffffff169083015260e08181015163ffffffff16908301526101008181015161ffff16908301526101209081015161ffff16910152565b346102bd575f6003193601126102bd57610b826121cc613147565b5f81526276a70060208201525f604082015261271060608201525f60808201526121fa60a082016127109052565b5f60c08201526301e1338060e08201525f61010082015261271061012082015260405191829182612114565b346102bd5760206003193601126102bd576004356122438161029f565b73ffffffffffffffffffffffffffffffffffffffff807f00000000000000000000000000000000000000000000000000000000000000001633036104f95781165f52600760205260405f209081549060ff8216156104cf5760ff8260d81c166122a857005b7fffffffff00ffffffffffffffffffffffffffffffffffffffffffffffffffffff9190911690915560405173ffffffffffffffffffffffffffffffffffffffff90911681527faf6366a6c595fb57058be86bf9fe0ec5ffee196de2ca5b2b55036617606d10ac908060208101610460565b73ffffffffffffffffffffffffffffffffffffffff165f52600560205260405f2090565b346102bd5760406003193601126102bd57602060ff6123b16004356123618161029f565b73ffffffffffffffffffffffffffffffffffffffff602435916123838361029f565b165f526002845260405f209073ffffffffffffffffffffffffffffffffffffffff165f5260205260405f2090565b54166040519015158152f35b346102bd5760206003193601126102bd576004356123da8161029f565b73ffffffffffffffffffffffffffffffffffffffff90817f00000000000000000000000000000000000000000000000000000000000000001633036104f95716805f5260016020526124f461243160405f20612b08565b5f8152825f5260016020526109d3606060405f209261247e81511515859060ff7fffffffffffffffffffffffffffffffffffffffffffffffffffffffffffffff0083541691151516179055565b602081015184547fffffffffffffffffffff000000000000000000000000000000000000000000ff74ffffffffffffffffffffffffffffffffffffffff0075ff0000000000000000000000000000000000000000006040860151151560a81b169360081b16911617178455015163ffffffff1690565b7f7201a4017f7e2ac3b7164275daef1150d8fc64543b3f7196293722db50bc7fa05f80a2005b346102bd5760206003193601126102bd5773ffffffffffffffffffffffffffffffffffffffff60043561254c8161029f565b612554612c3b565b50165f526001602052610b82610d6e60405f20612b08565b346102bd5760206003193601126102bd5773ffffffffffffffffffffffffffffffffffffffff60043561259e8161029f565b165f526005602052602060405f2054604051908152f35b346102bd575f6003193601126102bd57602060405173ffffffffffffffffffffffffffffffffffffffff7f0000000000000000000000000000000000000000000000000000000000000000168152f35b346102bd576020806003193601126102bd5767ffffffffffffffff6004358181116102bd57366023820112156102bd57612649903690602481600401359101611298565b9173ffffffffffffffffffffffffffffffffffffffff7f00000000000000000000000000000000000000000000000000000000000000001633036104f95782519182116105a3576126a38261269e5f54610a85565b61334e565b602090601f831160011461272e57509161271582610460937f9f7688a97f1ac51fe03bac18af18d6810f9f11f0db08c59b1938a9ac825ef744955f91612723575b507fffffffffffffffffffffffffffffffffffffffffffffffffffffffffffffffff8260011b9260031b1c19161790565b5f5560405191829182610b19565b90508301515f6126e4565b5f8052907fffffffffffffffffffffffffffffffffffffffffffffffffffffffffffffffe083167f290decd9548b62a8d60345a988386fc84ba6bc95484008f6362f93160ef3e563925f905b8282106127f8575050927f9f7688a97f1ac51fe03bac18af18d6810f9f11f0db08c59b1938a9ac825ef74494926001928261046096106127c1575b5050811b015f55610b76565b8401517fffffffffffffffffffffffffffffffffffffffffffffffffffffffffffffffff60f88460031b161c191690555f806127b5565b80600185968294968a0151815501950193019061277a565b60209060206040818301928281528551809452019301915f5b828110612837575050505090565b9091929382610140826128d160019489518051151582526020808201511515908301526040808201511515908301526060808201511515908301526080808201516fffffffffffffffffffffffffffffffff169083015260a08082015163ffffffff169083015260c08082015115159083015260e08082015115159083015261010080820151151590830152610120908101511515910152565b01950193929101612829565b346102bd5760206003193601126102bd5767ffffffffffffffff6004358181116102bd57366023820112156102bd5780600401359182116102bd573660248360051b830101116102bd57610b8291602461293792016133c4565b60405191829182612810565b346102bd576102206003193601126102bd5760043561296181610523565b61296c602435610523565b61297536610e46565b6102043567ffffffffffffffff81116102bd57612996903690600401610732565b5050335f52600760205263ffffffff60405f205460a01c16421080612a04575b6129da576129c391614569565b6040805161ffff9384168152919092166020820152f35b60046040517f63e25428000000000000000000000000000000000000000000000000000000008152fd5b50610140810135612a1481610523565b61ffff809116908316106129b6565b346102bd57612a31366102fa565b73ffffffffffffffffffffffffffffffffffffffff7f00000000000000000000000000000000000000000000000000000000000000001633036104f95761088a91614938565b346102bd575f6003193601126102bd5760206040516301e133808152f35b346102bd5760206003193601126102bd5773ffffffffffffffffffffffffffffffffffffffff600435612ac78161029f565b165f526006602052606060405f205463ffffffff61ffff916040519280821684528160101c16602084015260201c166040820152f35b9063ffffffff169052565b90604051612b15816105a8565b606063ffffffff82945460ff81161515845273ffffffffffffffffffffffffffffffffffffffff8160081c16602085015260ff8160a81c161515604085015260b01c16910152565b63ffffffff60606102dc93612ba081511515859060ff7fffffffffffffffffffffffffffffffffffffffffffffffffffffffffffffff0083541691151516179055565b60208101518454604083015193909201517fffffffffffff00000000000000000000000000000000000000000000000000ff90921660089190911b74ffffffffffffffffffffffffffffffffffffffff00161791151560a81b75ff0000000000000000000000000000000000000000001691909117911660b01b79ffffffff0000000000000000000000000000000000000000000016179055565b60405190612c48826105a8565b5f6060838281528260208201528260408201520152565b90612c68612c3b565b50612c946111ac8373ffffffffffffffffffffffffffffffffffffffff165f52600160205260405f2090565b917fffffffffffffffffffffffffffffffffffffffffffffffffffffffffffffffff63ffffffff612ccc606086015163ffffffff1690565b16612ce2575b612cdc9184613655565b6102dc57565b612d06612319602086015173ffffffffffffffffffffffffffffffffffffffff1690565b5480612d31575b50612cdc91612d2a8560205f918260408201528260608201520152565b9150612cd2565b612d3b818661349e565b612d6e57604085015115612d0d579050612d568282866134e9565b612d6a5760281c62ffffff16612cdc612d0d565b5050565b505050565b93909392919273ffffffffffffffffffffffffffffffffffffffff807f000000000000000000000000000000000000000000000000000000000000000016330361311d57612dc085614bd2565b50807f0000000000000000000000000000000000000000000000000000000000000000169116036104f9576020116130f3576101208092013591612e0382614cd4565b9163ffffffff83164281109081156130da575b506130b05761031f9361300b92612fe6927f8fcb9a8dc61c986e7488a736bc8edc39e7f8b2bea37fdf7aa56cf142c5fe04b760405180612e80898c8390929163ffffffff60209173ffffffffffffffffffffffffffffffffffffffff604085019616845216910152565b0390a1612f55600192612f3f612e9584614ce7565b91612efd612ea1610626565b600181529a605c89901c8816151560208d0152605f89901c8816151560408d0152605e89901c8816151560608d0152612ef060808d019586906fffffffffffffffffffffffffffffffff169052565b63ffffffff1660a08c0152565b85606060c08c0196612f1783604083013516899015159052565b60808101358316151560e08e015260a0810135831615156101008e01520135161515908a0152565b516fffffffffffffffffffffffffffffffff1690565b6fffffffffffffffffffffffffffffffff8116613038575b505115155b613023575b81605e1c16613010575b7f00000000000000000000000000000000000000000000000000000000000000006bffff000000000000000000007fffffffffffffffffffffffffffffffffffffffff000000000000000000000000918060101c908460501c161760501b1691161790565b9373ffffffffffffffffffffffffffffffffffffffff165f52600760205260405f2090565b613709565b6b90000000000000000000000017612f81565b906b1000000000000000000000001790612f77565b6040805173ffffffffffffffffffffffffffffffffffffffff8b1681526fffffffffffffffffffffffffffffffff9290921660208301526b8000000000000000000000009490941793612f7292917f4e39f53293455dca8fe1725b2dfcbe6abd2f44d777b7f2a7279526e17d7ebede9190a190612f6d565b60046040517f90b0b2c3000000000000000000000000000000000000000000000000000000008152fd5b6301e1338091506130ec9042906136f7565b115f612e16565b60046040517ff8fa12c0000000000000000000000000000000000000000000000000000000008152fd5b60046040517fa84178ab000000000000000000000000000000000000000000000000000000008152fd5b6040519061315482610586565b5f610120838281528260208201528260408201528260608201528260808201528260a08201528260c08201528260e0820152826101008201520152565b906102dc6040516131a181610586565b61012081945460ff906131b8828216859015159052565b600881901c821615156020850152601081901c821615156040850152601881901c821615156060850152602081901c6fffffffffffffffffffffffffffffffff16608085015260a081811c63ffffffff169085015260c081811c831615159085015260c881901c8216151560e085015260d081901c8216151561010085015260d81c161515910152565b3561031f8161070c565b7f4e487b71000000000000000000000000000000000000000000000000000000005f52603260045260245ffd5b805182101561328d5760209160051b010190565b61324c565b91906132bc3373ffffffffffffffffffffffffffffffffffffffff165f52600560205260405f2090565b549283156116a8578051825103613324575f5b815181101561331d578061331773ffffffffffffffffffffffffffffffffffffffff6132fd60019486613279565b511663ffffffff61330e8488613279565b51169088613ed4565b016132cf565b5050509050565b60046040517f9d89020a000000000000000000000000000000000000000000000000000000008152fd5b601f811161335a575050565b5f80527f290decd9548b62a8d60345a988386fc84ba6bc95484008f6362f93160ef3e563906020601f840160051c830193106133b0575b601f0160051c01905b8181106133a5575050565b5f815560010161339a565b9091508190613391565b3561031f8161029f565b91906133cf81611c9f565b6133dc60405191826105c4565b8181527fffffffffffffffffffffffffffffffffffffffffffffffffffffffffffffffe061340983611c9f565b015f5b81811061347d57505080935f5b8381106134265750505050565b8061346161114e61343d60019460051b86016133ba565b73ffffffffffffffffffffffffffffffffffffffff165f52600760205260405f2090565b61346b8286613279565b526134768185613279565b5001613419565b602090613488613147565b8282860101520161340c565b3561031f81610523565b9063ffffffff60606134e3930151169060e01c0163ffffffff90817fffffffffffffffffffffffffffffffffffffffffffffffffffffffff0000000182019110020190565b42111590565b909291925f935f9063ccdad14b5f5260205260205f6024601c73ffffffffffffffffffffffffffffffffffffffff8660401c165afa601f3d11166135dd575b63ffffffff1691821580156135d4575b6135cc57613576838360e01c0163ffffffff90817fffffffffffffffffffffffffffffffffffffffffffffffffffffffff0000000182019110020190565b42111561358257505050565b6135c7939450919063ffffffff60409216606084015273ffffffffffffffffffffffffffffffffffffffff81831c16602084015262ffffff809160281c161415910152565b600190565b505f93505050565b50428311613538565b505f5163ffffffff16613528565b60045481101561328d5760045f527f8a35acfbc15ff81a39ae7d344fd709f28e8600b4aa8c65c6b64bfe7fe36bd19b01905f90565b60035481101561328d5760035f527fc2575a0e9e593c00f959f8c92f12db2869c3395a3b0502d05e2516446f71f85b01905f90565b9291905f9360038054935f5b85811061367057505050505050565b8181146136c257825f526136a885827fc2575a0e9e593c00f959f8c92f12db2869c3395a3b0502d05e2516446f71f85b0154866134e9565b6136b6576001905b01613661565b50600196505050505050565b6001906136b0565b7f4e487b71000000000000000000000000000000000000000000000000000000005f52601160045260245ffd5b9190820391821161370457565b6136ca565b6139f86101206102dc936137516137208251151590565b859060ff7fffffffffffffffffffffffffffffffffffffffffffffffffffffffffffffff0083541691151516179055565b6137946137616020830151151590565b85547fffffffffffffffffffffffffffffffffffffffffffffffffffffffffffff00ff1690151560081b61ff0016178555565b6137d86137a46040830151151590565b85547fffffffffffffffffffffffffffffffffffffffffffffffffffffffffff00ffff1690151560101b62ff000016178555565b61381d6137e86060830151151590565b85547fffffffffffffffffffffffffffffffffffffffffffffffffffffffff00ffffff1690151560181b63ff00000016178555565b61388261383d60808301516fffffffffffffffffffffffffffffffff1690565b85547fffffffffffffffffffffffff00000000000000000000000000000000ffffffff1660209190911b73ffffffffffffffffffffffffffffffff0000000016178555565b6138df61389660a083015163ffffffff1690565b85547fffffffffffffffff00000000ffffffffffffffffffffffffffffffffffffffff1660a09190911b77ffffffff000000000000000000000000000000000000000016178555565b6139396138ef60c0830151151590565b85547fffffffffffffff00ffffffffffffffffffffffffffffffffffffffffffffffff1690151560c01b78ff00000000000000000000000000000000000000000000000016178555565b61399461394960e0830151151590565b85547fffffffffffff00ffffffffffffffffffffffffffffffffffffffffffffffffff1690151560c81b79ff0000000000000000000000000000000000000000000000000016178555565b6139f16139a5610100830151151590565b85547fffffffffff00ffffffffffffffffffffffffffffffffffffffffffffffffffff1690151560d01b7aff000000000000000000000000000000000000000000000000000016178555565b0151151590565b81547fffffffff00ffffffffffffffffffffffffffffffffffffffffffffffffffffff1690151560d81b7bff00000000000000000000000000000000000000000000000000000016179055565b9392613a5391928386613c07565b8181959295613ae5575b50613aac613a898473ffffffffffffffffffffffffffffffffffffffff165f52600260205260405f2090565b3373ffffffffffffffffffffffffffffffffffffffff165f5260205260405f2090565b50613ab5575050565b613ae06102dc9273ffffffffffffffffffffffffffffffffffffffff165f52600160205260405f2090565b612b5d565b15613b465773ffffffffffffffffffffffffffffffffffffffff806020840151167fa04eb478c9c6a13a6de14b7eb31b1b629511e804c3cfef31bd549accd4b15524602063ffffffff60608701511693604051948552871693a35b5f613a5d565b73ffffffffffffffffffffffffffffffffffffffff83167f47695aa96e09db0d106b9bd402979d6aff7e51ada06ec6fe014e5eeadd8c1dc05f80a2613b40565b908160209103126102bd575161031f8161029f565b6040513d5f823e3d90fd5b817ffffffffffffffffffffffffffffffffffffffffffe6268e1b017bfe18bffffff0481111582151715613bf5576b033b2e3c9fd0803ce800000091026b019d971e4fe8401e74000000010490565b634e487b715f5260116020526024601cfd5b90929391935f945f94606084019163ffffffff938484511615155f14613d4457613c4b612319602088015173ffffffffffffffffffffffffffffffffffffffff1690565b54905b811515928380613d34575b613d235790613c69918589614d09565b613d14577fffffffffffffffffffffffffffffffffffffffffffffffffffffffffffffffff9180613d07575b613cd8575b50613ca59185613655565b613ccc575116613cb25750565b6135c791925060205f918260408201528260608201520152565b50600194508493505050565b9050613ce58282876134e9565b613cf95760281c62ffffff16613ca5613c9a565b506001965086955050505050565b5060408601511515613c95565b50600197508796505050505050565b50600199505f985050505050505050565b50613d3f838961349e565b613c59565b5f90613c4e565b91600190849294613e32575b613d88611161611214613a898873ffffffffffffffffffffffffffffffffffffffff165f52600260205260405f2090565b1616613d97575b613ab5575050565b613df1613dc6336111f18673ffffffffffffffffffffffffffffffffffffffff165f52600260205260405f2090565b60017fffffffffffffffffffffffffffffffffffffffffffffffffffffffffffffff00825416179055565b73ffffffffffffffffffffffffffffffffffffffff8316337f19c0c79c8d3a2c3300023a426c471dbf37ef4602c3c143fe049cc9e9f989165d5f80a3613d8f565b8015613e9457602084810151606086015160405163ffffffff909116815273ffffffffffffffffffffffffffffffffffffffff888116939216917fa04eb478c9c6a13a6de14b7eb31b1b629511e804c3cfef31bd549accd4b1552491a3613d57565b73ffffffffffffffffffffffffffffffffffffffff85167f47695aa96e09db0d106b9bd402979d6aff7e51ada06ec6fe014e5eeadd8c1dc05f80a2613d57565b9190613f016111ac8273ffffffffffffffffffffffffffffffffffffffff165f52600160205260405f2090565b9263ffffffff613f438185168360e01c0163ffffffff90817fffffffffffffffffffffffffffffffffffffffffffffffffffffffff0000000182019110020190565b9042821061405d576060860190815116613f63575b50506102dc93614087565b6020860190613f89612319835173ffffffffffffffffffffffffffffffffffffffff1690565b549081613f98575b5050613f58565b61400a91613fb9613fb0613fef935163ffffffff1690565b63ffffffff1690565b9060e01c0163ffffffff90817fffffffffffffffffffffffffffffffffffffffffffffffffffffffff0000000182019110020190565b915173ffffffffffffffffffffffffffffffffffffffff1690565b73ffffffffffffffffffffffffffffffffffffffff16331491111715614033575f808080613f91565b60046040517fc03faa56000000000000000000000000000000000000000000000000000000008152fd5b60046040517f5a922a2f000000000000000000000000000000000000000000000000000000008152fd5b63ffffffff84166060820152604082811c73ffffffffffffffffffffffffffffffffffffffff166020830152602883901c62ffffff90811614159082015292917fa04eb478c9c6a13a6de14b7eb31b1b629511e804c3cfef31bd549accd4b155249161414f73ffffffffffffffffffffffffffffffffffffffff80931695865f5260016020526109d3606060405f209261247e81511515859060ff7fffffffffffffffffffffffffffffffffffffffffffffffffffffffffffffff0083541691151516179055565b6040805163ffffffff9590951685521c1691602090a3565b60045480156141ca577fffffffffffffffffffffffffffffffffffffffffffffffffffffffffffffffff8101908082101561328d577f8a35acfbc15ff81a39ae7d344fd709f28e8600b4aa8c65c6b64bfe7fe36bd19a5f91600483520155600455565b7f4e487b71000000000000000000000000000000000000000000000000000000005f52603160045260245ffd5b60035480156141ca577fffffffffffffffffffffffffffffffffffffffffffffffffffffffffffffffff8101908082101561328d577fc2575a0e9e593c00f959f8c92f12db2869c3395a3b0502d05e2516446f71f85a5f91600383520155600355565b6004547fffffffffffffffffffffffffffffffffffffffffffffffffffffffffffffffff8101818111613704578062ffffff8416146143ca57600454111561328d577f8a35acfbc15ff81a39ae7d344fd709f28e8600b4aa8c65c6b64bfe7fe36bd19a7f77f7914b3d5f909ba079a3cfd67cdff25863760515f339affe0f2313d35638629160045f5201547fffffffffffffffffffffffffffffffffffffffffffffffffffffff000000ffff8360101b911617916143518361431b836135eb565b9091907fffffffffffffffffffffffffffffffffffffffffffffffffffffffffffffffff83549160031b92831b921b1916179055565b614359614167565b73ffffffffffffffffffffffffffffffffffffffff8360401c16928061439d8573ffffffffffffffffffffffffffffffffffffffff165f52600560205260405f2090565b556040805160e09290921c825262ffffff602083018190529092169181019190915280606081015b0390a2565b5050506102dc614167565b6003547fffffffffffffffffffffffffffffffffffffffffffffffffffffffffffffffff8101818111613704578062ffffff84161461450b57600354111561328d577fc2575a0e9e593c00f959f8c92f12db2869c3395a3b0502d05e2516446f71f85a7f77f7914b3d5f909ba079a3cfd67cdff25863760515f339affe0f2313d35638629160035f5201547fffffffffffffffffffffffffffffffffffffffffffffffff000000ffffffffff8360281b911617916144968361431b83613620565b61449e6141f7565b73ffffffffffffffffffffffffffffffffffffffff8360401c1692806144e28573ffffffffffffffffffffffffffffffffffffffff165f52600560205260405f2090565b556040805160e09290921c825262ffffff928316602083015281019190915280606081016143c5565b5050506102dc6141f7565b906040516060810181811067ffffffffffffffff8211176105a357604052604063ffffffff82945461ffff80821685528160101c16602085015260201c16910152565b9062127500820180921161370457565b9161016082019061457982613494565b918461ffff948582169261458c84614d75565b6145bc6145b73373ffffffffffffffffffffffffffffffffffffffff165f52600660205260405f2090565b614516565b92604084019163ffffffff91826145d7855163ffffffff1690565b16806147d9575b50506145f1613fb0845163ffffffff1690565b6147c35761460b6146056101408601613494565b91613494565b915b898216998a8810614626575b5050505050505050909150565b6146cb96979950614738989a61463f918516908b614de4565b9861464c613fb042614559565b9561465b865163ffffffff1690565b9283166147465750506040805161ffff85811682528b16602082015263ffffffff871691810191909152612afd93926146c092509033907f16f9a191ecd86fd97f0ddc3dbed8fdc4d1e0d0644b93db99f8a577f52b0dec4390606090a261ffff168752565b61ffff166020860152565b335f90815260066020908152604091829020835181548584015195909401517fffffffffffffffffffffffffffffffffffffffffffffffff000000000000000090941661ffff919091161760109490941b63ffff0000169390931791901b67ffffffff0000000016179055565b815f80808080808080614619565b6147619192935061014061475a9101613494565b61ffff1690565b11156147bb575b506040805161ffff9283168152918816602083015263ffffffff84169082015233907ff813e17e21ecee3918b028c4e02f15f1fdd045f9f63183b6ab4f42c23c97b32190606090a29063ffffffff169052565b92505f614768565b50835161ffff16602085015161ffff169161460d565b6147e961475a6101408801613494565b881015904210151661480061475a885161ffff1690565b8810158117156145de57959650995050505050602092945061031f93505f1461486157337f145c143a918203cecb36063a1d70980ebb42b5b00490c5510d79c9d7717b77bb5f80a25b335f90815260066020526040812055015161ffff1690565b337f2045c970b5c1a8f9b69dd33e70a1f9d07b9021e408716d5b8daeb83a776ea05f5f80a2614849565b908160209103126102bd575161031f81610633565b600454680100000000000000008110156105a357600181018060045581101561328d5760045f527f8a35acfbc15ff81a39ae7d344fd709f28e8600b4aa8c65c6b64bfe7fe36bd19b0155565b600354680100000000000000008110156105a357600181018060035581101561328d5760035f527fc2575a0e9e593c00f959f8c92f12db2869c3395a3b0502d05e2516446f71f85b0155565b6149608173ffffffffffffffffffffffffffffffffffffffff165f52600560205260405f2090565b5480614aed57506040517f256909f10000000000000000000000000000000000000000000000000000000081529073ffffffffffffffffffffffffffffffffffffffff8116602083600481845afa928315611459575f93614a98575b507f3c4db27692774915639231cf12808d8ee5f42ca0bd208df85fdcd82e5f2ebe05614a719394855f14614a825760035462ffffff1690614a4a62ffffff5b8060101b8460281b178760401b8460e01b1717985f14614a7457614a1e896148ec565b6040519384938491604091949363ffffffff606085019616845262ffffff809216602085015216910152565b0390a273ffffffffffffffffffffffffffffffffffffffff165f52600560205260405f2090565b55565b614a7d896148a0565b614a1e565b60045462ffffff1690614a4a62ffffff926149fb565b614a719350614adf7f3c4db27692774915639231cf12808d8ee5f42ca0bd208df85fdcd82e5f2ebe059160203d602011614ae6575b614ad781836105c4565b81019061488b565b93506149bc565b503d614acd565b90614a71917bffffffffffffffffffffffffffffffffffffffffffffffffffffffff8460e01b911617927f77f7914b3d5f909ba079a3cfd67cdff25863760515f339affe0f2313d356386262ffffff808660281c16818760101c16918114155f14614bc057614b5f8761431b83613620565b6040805163ffffffff95909516855262ffffff918216602086015291169083015273ffffffffffffffffffffffffffffffffffffffff831691606090a273ffffffffffffffffffffffffffffffffffffffff165f52600560205260405f2090565b614bcd8761431b846135eb565b614b5f565b905f91608081013590614be482610523565b60a0810135614bf281610523565b60c082013591614c01836102c1565b61010060e082013591614c1383610523565b013591614c1f836102c1565b612710908161ffff80971611614cac57851611614c84576301e1338063ffffffff80941611614c5c576102dc93614c569116614d7f565b16614db1565b7f772de361000000000000000000000000000000000000000000000000000000005f5260045ffd5b7fcfd2223a000000000000000000000000000000000000000000000000000000005f5260045ffd5b7f74e6ce76000000000000000000000000000000000000000000000000000000005f5260045ffd5b3561031f63ffffffff8216809214614f88565b6020013561031f6fffffffffffffffffffffffffffffffff8216809214614f88565b5f94939192909160148103614d5957503560601c5f52600560205260405f20549081151580614d47575b614d3c57505050565b61031f9394506134e9565b5062ffffff808360281c161415614d33565b92909160148411614d6a5750505050565b61031f949550614e90565b61271010614cac57565b61271010614d8957565b7fc7f3bbb9000000000000000000000000000000000000000000000000000000005f5260045ffd5b6276a70010614dbc57565b7f21366737000000000000000000000000000000000000000000000000000000005f5260045ffd5b810391908083116137045761271092807fffffffffffffffffffffffffffffffffffffffffffffffffffffffffffffffff048411810215820215614e8357830204916109c48311614e39575061ffff91501690565b908260011b927f7fffffffffffffffffffffffffffffffffffffffffffffffffffffffffffffff8116036137045782828161031f9561475a95039110020190818103908210020190565b63ad251c275f526004601cfd5b823560601c5f81815260056020526040812090969593919054938415614f7d57915f9182601c6050602096839a604051966354560cb288528988015260408088015260147fffffffffffffffffffffffffffffffffffffffffffffffffffffffffffffffec8301918260608a0152016080880137019301915af1614f55575b821580156135d4576135cc57613576838360e01c0163ffffffff90817fffffffffffffffffffffffffffffffffffffffffffffffffffffffff0000000182019110020190565b915060203d10600114614f705763ffffffff5f511691614f0f565b63c177c7005f526004601cfd5b505f96505050505050565b15613bf55756fea164736f6c6343000819000a3c4db27692774915639231cf12808d8ee5f42ca0bd208df85fdcd82e5f2ebe0577f7914b3d5f909ba079a3cfd67cdff25863760515f339affe0f2313d3563862","linkReferences":{}},"methodIdentifiers":{"MaximumLoanTerm()":"f040ed98","addRoleProvider(address,uint32)":"ea5b13bd","blockFromDeposits(address)":"064ed53b","borrower()":"7df1f1b9","config()":"79502c55","createRoleProvider(address,uint32,bytes)":"36c89214","disableForceBuyBacks(address)":"a7fee654","factory()":"c45a0155","getHookedMarket(address)":"2ccf4667","getHookedMarkets(address[])":"c888fb15","getLenderStatus(address)":"22a4a19f","getParameterConstraints()":"a11ef067","getPreviousLenderStatus(address)":"b037096d","getPullProviders()":"8f8ef419","getPushProviders()":"87927767","getRoleProvider(address)":"bfd269be","grantRole(address,uint32)":"6b2b369b","grantRoles(address[],uint32[])":"9d2a76fe","isKnownLenderOnMarket(address,address)":"a9ff2dbf","name()":"06fdde03","onBorrow(uint256,(bool,uint128,uint128,uint128,uint104,uint104,uint32,bool,uint32,uint16,uint16,uint16,uint112,uint32),bytes)":"b1cfda0d","onCloseMarket((bool,uint128,uint128,uint128,uint104,uint104,uint32,bool,uint32,uint16,uint16,uint16,uint112,uint32),bytes)":"9ecc64e6","onCreateMarket(address,address,(address,string,string,uint128,uint16,uint16,uint32,uint16,uint32,uint256),bytes)":"28fd0307","onDeposit(address,uint256,(bool,uint128,uint128,uint128,uint104,uint104,uint32,bool,uint32,uint16,uint16,uint16,uint112,uint32),bytes)":"5aeb713f","onExecuteWithdrawal(address,uint128,(bool,uint128,uint128,uint128,uint104,uint104,uint32,bool,uint32,uint16,uint16,uint16,uint112,uint32),bytes)":"2970403d","onForceBuyBack(address,uint256,(bool,uint128,uint128,uint128,uint104,uint104,uint32,bool,uint32,uint16,uint16,uint16,uint112,uint32),bytes)":"726303ef","onNukeFromOrbit(address,(bool,uint128,uint128,uint128,uint104,uint104,uint32,bool,uint32,uint16,uint16,uint16,uint112,uint32),bytes)":"8b3ce9b3","onQueueWithdrawal(address,uint32,uint256,(bool,uint128,uint128,uint128,uint104,uint104,uint32,bool,uint32,uint16,uint16,uint16,uint112,uint32),bytes)":"3521cccc","onRepay(uint256,(bool,uint128,uint128,uint128,uint104,uint104,uint32,bool,uint32,uint16,uint16,uint16,uint112,uint32),bytes)":"83d9e1eb","onSetAnnualInterestAndReserveRatioBips(uint16,uint16,(bool,uint128,uint128,uint128,uint104,uint104,uint32,bool,uint32,uint16,uint16,uint16,uint112,uint32),bytes)":"cc452642","onSetMaxTotalSupply(uint256,(bool,uint128,uint128,uint128,uint104,uint104,uint32,bool,uint32,uint16,uint16,uint16,uint112,uint32),bytes)":"849da129","onSetProtocolFeeBips(uint16,(bool,uint128,uint128,uint128,uint104,uint104,uint32,bool,uint32,uint16,uint16,uint16,uint112,uint32),bytes)":"03473d8d","onTransfer(address,address,address,uint256,(bool,uint128,uint128,uint128,uint104,uint104,uint32,bool,uint32,uint16,uint16,uint16,uint112,uint32),bytes)":"a018f90e","removeRoleProvider(address)":"8adfe0f8","revokeRole(address)":"80e52e3f","setFixedTermEndTime(address,uint32)":"02420e7f","setMinimumDeposit(address,uint128)":"1c4b3694","setName(string)":"c47f0027","temporaryExcessReserveRatio(address)":"feb368e2","unblockFromDeposits(address)":"aa948689","version()":"54fd4d50"},"id":39}