{"abi":[{"type":"function","name":"accruedProtocolFees","inputs":[],"outputs":[{"name":"","type":"uint256","internalType":"uint256"}],"stateMutability":"view"},{"type":"function","name":"allowance","inputs":[{"name":"","type":"address","internalType":"address"},{"name":"","type":"address","internalType":"address"}],"outputs":[{"name":"","type":"uint256","internalType":"uint256"}],"stateMutability":"view"},{"type":"function","name":"annualInterestBips","inputs":[],"outputs":[{"name":"","type":"uint256","internalType":"uint256"}],"stateMutability":"view"},{"type":"function","name":"approve","inputs":[{"name":"spender","type":"address","internalType":"address"},{"name":"amount","type":"uint256","internalType":"uint256"}],"outputs":[{"name":"","type":"bool","internalType":"bool"}],"stateMutability":"nonpayable"},{"type":"function","name":"archController","inputs":[],"outputs":[{"name":"","type":"address","internalType":"address"}],"stateMutability":"view"},{"type":"function","name":"asset","inputs":[],"outputs":[{"name":"","type":"address","internalType":"address"}],"stateMutability":"view"},{"type":"function","name":"balanceOf","inputs":[{"name":"account","type":"address","internalType":"address"}],"outputs":[{"name":"","type":"uint256","internalType":"uint256"}],"stateMutability":"view"},{"type":"function","name":"borrow","inputs":[{"name":"amount","type":"uint256","internalType":"uint256"}],"outputs":[],"stateMutability":"nonpayable"},{"type":"function","name":"borrowableAssets","inputs":[],"outputs":[{"name":"","type":"uint256","internalType":"uint256"}],"stateMutability":"view"},{"type":"function","name":"borrower","inputs":[],"outputs":[{"name":"","type":"address","internalType":"address"}],"stateMutability":"view"},{"type":"function","name":"changeSphereXEngine","inputs":[{"name":"newSphereXEngine","type":"address","internalType":"address"}],"outputs":[],"stateMutability":"nonpayable"},{"type":"function","name":"closeMarket","inputs":[],"outputs":[],"stateMutability":"nonpayable"},{"type":"function","name":"collectFees","inputs":[],"outputs":[],"stateMutability":"nonpayable"},{"type":"function","name":"coverageLiquidity","inputs":[],"outputs":[{"name":"","type":"uint256","internalType":"uint256"}],"stateMutability":"view"},{"type":"function","name":"currentState","inputs":[],"outputs":[{"name":"state","type":"tuple","internalType":"struct MarketState","components":[{"name":"isClosed","type":"bool","internalType":"bool"},{"name":"maxTotalSupply","type":"uint128","internalType":"uint128"},{"name":"accruedProtocolFees","type":"uint128","internalType":"uint128"},{"name":"normalizedUnclaimedWithdrawals","type":"uint128","internalType":"uint128"},{"name":"scaledTotalSupply","type":"uint104","internalType":"uint104"},{"name":"scaledPendingWithdrawals","type":"uint104","internalType":"uint104"},{"name":"pendingWithdrawalExpiry","type":"uint32","internalType":"uint32"},{"name":"isDelinquent","type":"bool","internalType":"bool"},{"name":"timeDelinquent","type":"uint32","internalType":"uint32"},{"name":"protocolFeeBips","type":"uint16","internalType":"uint16"},{"name":"annualInterestBips","type":"uint16","internalType":"uint16"},{"name":"reserveRatioBips","type":"uint16","internalType":"uint16"},{"name":"scaleFactor","type":"uint112","internalType":"uint112"},{"name":"lastInterestAccruedTimestamp","type":"uint32","internalType":"uint32"}]}],"stateMutability":"view"},{"type":"function","name":"decimals","inputs":[],"outputs":[{"name":"","type":"uint8","internalType":"uint8"}],"stateMutability":"view"},{"type":"function","name":"delinquencyFeeBips","inputs":[],"outputs":[{"name":"","type":"uint256","internalType":"uint256"}],"stateMutability":"view"},{"type":"function","name":"delinquencyGracePeriod","inputs":[],"outputs":[{"name":"","type":"uint256","internalType":"uint256"}],"stateMutability":"view"},{"type":"function","name":"deposit","inputs":[{"name":"amount","type":"uint256","internalType":"uint256"}],"outputs":[],"stateMutability":"nonpayable"},{"type":"function","name":"depositUpTo","inputs":[{"name":"amount","type":"uint256","internalType":"uint256"}],"outputs":[{"name":"","type":"uint256","internalType":"uint256"}],"stateMutability":"nonpayable"},{"type":"function","name":"executeWithdrawal","inputs":[{"name":"accountAddress","type":"address","internalType":"address"},{"name":"expiry","type":"uint32","internalType":"uint32"}],"outputs":[{"name":"","type":"uint256","internalType":"uint256"}],"stateMutability":"nonpayable"},{"type":"function","name":"executeWithdrawals","inputs":[{"name":"accountAddresses","type":"address[]","internalType":"address[]"},{"name":"expiries","type":"uint32[]","internalType":"uint32[]"}],"outputs":[{"name":"amounts","type":"uint256[]","internalType":"uint256[]"}],"stateMutability":"nonpayable"},{"type":"function","name":"factory","inputs":[],"outputs":[{"name":"","type":"address","internalType":"address"}],"stateMutability":"view"},{"type":"function","name":"feeRecipient","inputs":[],"outputs":[{"name":"","type":"address","internalType":"address"}],"stateMutability":"view"},{"type":"function","name":"getAccountWithdrawalStatus","inputs":[{"name":"accountAddress","type":"address","internalType":"address"},{"name":"expiry","type":"uint32","internalType":"uint32"}],"outputs":[{"name":"status","type":"tuple","internalType":"struct AccountWithdrawalStatus","components":[{"name":"scaledAmount","type":"uint104","internalType":"uint104"},{"name":"normalizedAmountWithdrawn","type":"uint128","internalType":"uint128"}]}],"stateMutability":"view"},{"type":"function","name":"getAvailableWithdrawalAmount","inputs":[{"name":"accountAddress","type":"address","internalType":"address"},{"name":"expiry","type":"uint32","internalType":"uint32"}],"outputs":[{"name":"","type":"uint256","internalType":"uint256"}],"stateMutability":"view"},{"type":"function","name":"getUnpaidBatchExpiries","inputs":[],"outputs":[{"name":"","type":"uint32[]","internalType":"uint32[]"}],"stateMutability":"view"},{"type":"function","name":"getWithdrawalBatch","inputs":[{"name":"expiry","type":"uint32","internalType":"uint32"}],"outputs":[{"name":"batch","type":"tuple","internalType":"struct WithdrawalBatch","components":[{"name":"scaledTotalAmount","type":"uint104","internalType":"uint104"},{"name":"scaledAmountBurned","type":"uint104","internalType":"uint104"},{"name":"normalizedAmountPaid","type":"uint128","internalType":"uint128"}]}],"stateMutability":"view"},{"type":"function","name":"hooks","inputs":[],"outputs":[{"name":"","type":"uint256","internalType":"HooksConfig"}],"stateMutability":"view"},{"type":"function","name":"isClosed","inputs":[],"outputs":[{"name":"","type":"bool","internalType":"bool"}],"stateMutability":"view"},{"type":"function","name":"maxTotalSupply","inputs":[],"outputs":[{"name":"","type":"uint256","internalType":"uint256"}],"stateMutability":"view"},{"type":"function","name":"maximumDeposit","inputs":[],"outputs":[{"name":"","type":"uint256","internalType":"uint256"}],"stateMutability":"view"},{"type":"function","name":"name","inputs":[],"outputs":[{"name":"","type":"string","internalType":"string"}],"stateMutability":"view"},{"type":"function","name":"nukeFromOrbit","inputs":[{"name":"accountAddress","type":"address","internalType":"address"}],"outputs":[],"stateMutability":"nonpayable"},{"type":"function","name":"previousState","inputs":[],"outputs":[{"name":"","type":"tuple","internalType":"struct MarketState","components":[{"name":"isClosed","type":"bool","internalType":"bool"},{"name":"maxTotalSupply","type":"uint128","internalType":"uint128"},{"name":"accruedProtocolFees","type":"uint128","internalType":"uint128"},{"name":"normalizedUnclaimedWithdrawals","type":"uint128","internalType":"uint128"},{"name":"scaledTotalSupply","type":"uint104","internalType":"uint104"},{"name":"scaledPendingWithdrawals","type":"uint104","internalType":"uint104"},{"name":"pendingWithdrawalExpiry","type":"uint32","internalType":"uint32"},{"name":"isDelinquent","type":"bool","internalType":"bool"},{"name":"timeDelinquent","type":"uint32","internalType":"uint32"},{"name":"protocolFeeBips","type":"uint16","internalType":"uint16"},{"name":"annualInterestBips","type":"uint16","internalType":"uint16"},{"name":"reserveRatioBips","type":"uint16","internalType":"uint16"},{"name":"scaleFactor","type":"uint112","internalType":"uint112"},{"name":"lastInterestAccruedTimestamp","type":"uint32","internalType":"uint32"}]}],"stateMutability":"view"},{"type":"function","name":"queueFullWithdrawal","inputs":[],"outputs":[{"name":"expiry","type":"uint32","internalType":"uint32"}],"stateMutability":"nonpayable"},{"type":"function","name":"queueWithdrawal","inputs":[{"name":"amount","type":"uint256","internalType":"uint256"}],"outputs":[{"name":"expiry","type":"uint32","internalType":"uint32"}],"stateMutability":"nonpayable"},{"type":"function","name":"repay","inputs":[{"name":"amount","type":"uint256","internalType":"uint256"}],"outputs":[],"stateMutability":"nonpayable"},{"type":"function","name":"repayAndProcessUnpaidWithdrawalBatches","inputs":[{"name":"repayAmount","type":"uint256","internalType":"uint256"},{"name":"maxBatches","type":"uint256","internalType":"uint256"}],"outputs":[],"stateMutability":"nonpayable"},{"type":"function","name":"rescueTokens","inputs":[{"name":"token","type":"address","internalType":"address"}],"outputs":[],"stateMutability":"nonpayable"},{"type":"function","name":"reserveRatioBips","inputs":[],"outputs":[{"name":"","type":"uint256","internalType":"uint256"}],"stateMutability":"view"},{"type":"function","name":"scaleFactor","inputs":[],"outputs":[{"name":"","type":"uint256","internalType":"uint256"}],"stateMutability":"view"},{"type":"function","name":"scaledBalanceOf","inputs":[{"name":"account","type":"address","internalType":"address"}],"outputs":[{"name":"","type":"uint256","internalType":"uint256"}],"stateMutability":"view"},{"type":"function","name":"scaledTotalSupply","inputs":[],"outputs":[{"name":"","type":"uint256","internalType":"uint256"}],"stateMutability":"view"},{"type":"function","name":"sentinel","inputs":[],"outputs":[{"name":"","type":"address","internalType":"address"}],"stateMutability":"view"},{"type":"function","name":"setAnnualInterestAndReserveRatioBips","inputs":[{"name":"_annualInterestBips","type":"uint16","internalType":"uint16"},{"name":"_reserveRatioBips","type":"uint16","internalType":"uint16"}],"outputs":[],"stateMutability":"nonpayable"},{"type":"function","name":"setMaxTotalSupply","inputs":[{"name":"_maxTotalSupply","type":"uint256","internalType":"uint256"}],"outputs":[],"stateMutability":"nonpayable"},{"type":"function","name":"setProtocolFeeBips","inputs":[{"name":"_protocolFeeBips","type":"uint16","internalType":"uint16"}],"outputs":[],"stateMutability":"nonpayable"},{"type":"function","name":"sphereXEngine","inputs":[],"outputs":[{"name":"","type":"address","internalType":"address"}],"stateMutability":"view"},{"type":"function","name":"sphereXOperator","inputs":[],"outputs":[{"name":"","type":"address","internalType":"address"}],"stateMutability":"view"},{"type":"function","name":"symbol","inputs":[],"outputs":[{"name":"","type":"string","internalType":"string"}],"stateMutability":"view"},{"type":"function","name":"totalAssets","inputs":[],"outputs":[{"name":"","type":"uint256","internalType":"uint256"}],"stateMutability":"view"},{"type":"function","name":"totalDebts","inputs":[],"outputs":[{"name":"","type":"uint256","internalType":"uint256"}],"stateMutability":"view"},{"type":"function","name":"totalSupply","inputs":[],"outputs":[{"name":"","type":"uint256","internalType":"uint256"}],"stateMutability":"view"},{"type":"function","name":"transfer","inputs":[{"name":"to","type":"address","internalType":"address"},{"name":"amount","type":"uint256","internalType":"uint256"}],"outputs":[{"name":"","type":"bool","internalType":"bool"}],"stateMutability":"nonpayable"},{"type":"function","name":"transferFrom","inputs":[{"name":"from","type":"address","internalType":"address"},{"name":"to","type":"address","internalType":"address"},{"name":"amount","type":"uint256","internalType":"uint256"}],"outputs":[{"name":"","type":"bool","internalType":"bool"}],"stateMutability":"nonpayable"},{"type":"function","name":"updateState","inputs":[],"outputs":[],"stateMutability":"nonpayable"},{"type":"function","name":"version","inputs":[],"outputs":[{"name":"","type":"string","internalType":"string"}],"stateMutability":"pure"},{"type":"function","name":"withdrawableProtocolFees","inputs":[],"outputs":[{"name":"","type":"uint128","internalType":"uint128"}],"stateMutability":"view"},{"type":"function","name":"withdrawalBatchDuration","inputs":[],"outputs":[{"name":"","type":"uint256","internalType":"uint256"}],"stateMutability":"view"},{"type":"event","name":"AccountSanctioned","inputs":[{"name":"account","type":"address","indexed":true,"internalType":"address"}],"anonymous":false},{"type":"event","name":"AnnualInterestBipsUpdated","inputs":[{"name":"annualInterestBipsUpdated","type":"uint256","indexed":false,"internalType":"uint256"}],"anonymous":false},{"type":"event","name":"Approval","inputs":[{"name":"owner","type":"address","indexed":true,"internalType":"address"},{"name":"spender","type":"address","indexed":true,"internalType":"address"},{"name":"value","type":"uint256","indexed":false,"internalType":"uint256"}],"anonymous":false},{"type":"event","name":"Borrow","inputs":[{"name":"assetAmount","type":"uint256","indexed":false,"internalType":"uint256"}],"anonymous":false},{"type":"event","name":"ChangedSpherexEngineAddress","inputs":[{"name":"oldEngineAddress","type":"address","indexed":false,"internalType":"address"},{"name":"newEngineAddress","type":"address","indexed":false,"internalType":"address"}],"anonymous":false},{"type":"event","name":"ChangedSpherexOperator","inputs":[{"name":"oldSphereXAdmin","type":"address","indexed":false,"internalType":"address"},{"name":"newSphereXAdmin","type":"address","indexed":false,"internalType":"address"}],"anonymous":false},{"type":"event","name":"DebtRepaid","inputs":[{"name":"from","type":"address","indexed":true,"internalType":"address"},{"name":"assetAmount","type":"uint256","indexed":false,"internalType":"uint256"}],"anonymous":false},{"type":"event","name":"Deposit","inputs":[{"name":"account","type":"address","indexed":true,"internalType":"address"},{"name":"assetAmount","type":"uint256","indexed":false,"internalType":"uint256"},{"name":"scaledAmount","type":"uint256","indexed":false,"internalType":"uint256"}],"anonymous":false},{"type":"event","name":"FeesCollected","inputs":[{"name":"assets","type":"uint256","indexed":false,"internalType":"uint256"}],"anonymous":false},{"type":"event","name":"InterestAndFeesAccrued","inputs":[{"name":"fromTimestamp","type":"uint256","indexed":false,"internalType":"uint256"},{"name":"toTimestamp","type":"uint256","indexed":false,"internalType":"uint256"},{"name":"scaleFactor","type":"uint256","indexed":false,"internalType":"uint256"},{"name":"baseInterestRay","type":"uint256","indexed":false,"internalType":"uint256"},{"name":"delinquencyFeeRay","type":"uint256","indexed":false,"internalType":"uint256"},{"name":"protocolFees","type":"uint256","indexed":false,"internalType":"uint256"}],"anonymous":false},{"type":"event","name":"MarketClosed","inputs":[{"name":"timestamp","type":"uint256","indexed":false,"internalType":"uint256"}],"anonymous":false},{"type":"event","name":"MaxTotalSupplyUpdated","inputs":[{"name":"assets","type":"uint256","indexed":false,"internalType":"uint256"}],"anonymous":false},{"type":"event","name":"ProtocolFeeBipsUpdated","inputs":[{"name":"protocolFeeBips","type":"uint256","indexed":false,"internalType":"uint256"}],"anonymous":false},{"type":"event","name":"ReserveRatioBipsUpdated","inputs":[{"name":"reserveRatioBipsUpdated","type":"uint256","indexed":false,"internalType":"uint256"}],"anonymous":false},{"type":"event","name":"SanctionedAccountAssetsQueuedForWithdrawal","inputs":[{"name":"account","type":"address","indexed":true,"internalType":"address"},{"name":"expiry","type":"uint256","indexed":false,"internalType":"uint256"},{"name":"scaledAmount","type":"uint256","indexed":false,"internalType":"uint256"},{"name":"normalizedAmount","type":"uint256","indexed":false,"internalType":"uint256"}],"anonymous":false},{"type":"event","name":"SanctionedAccountAssetsSentToEscrow","inputs":[{"name":"account","type":"address","indexed":true,"internalType":"address"},{"name":"escrow","type":"address","indexed":false,"internalType":"address"},{"name":"amount","type":"uint256","indexed":false,"internalType":"uint256"}],"anonymous":false},{"type":"event","name":"SanctionedAccountWithdrawalSentToEscrow","inputs":[{"name":"account","type":"address","indexed":true,"internalType":"address"},{"name":"escrow","type":"address","indexed":false,"internalType":"address"},{"name":"expiry","type":"uint32","indexed":false,"internalType":"uint32"},{"name":"amount","type":"uint256","indexed":false,"internalType":"uint256"}],"anonymous":false},{"type":"event","name":"StateUpdated","inputs":[{"name":"scaleFactor","type":"uint256","indexed":false,"internalType":"uint256"},{"name":"isDelinquent","type":"bool","indexed":false,"internalType":"bool"}],"anonymous":false},{"type":"event","name":"Transfer","inputs":[{"name":"from","type":"address","indexed":true,"internalType":"address"},{"name":"to","type":"address","indexed":true,"internalType":"address"},{"name":"value","type":"uint256","indexed":false,"internalType":"uint256"}],"anonymous":false},{"type":"event","name":"WithdrawalBatchClosed","inputs":[{"name":"expiry","type":"uint256","indexed":true,"internalType":"uint256"}],"anonymous":false},{"type":"event","name":"WithdrawalBatchCreated","inputs":[{"name":"expiry","type":"uint256","indexed":true,"internalType":"uint256"}],"anonymous":false},{"type":"event","name":"WithdrawalBatchExpired","inputs":[{"name":"expiry","type":"uint256","indexed":true,"internalType":"uint256"},{"name":"scaledTotalAmount","type":"uint256","indexed":false,"internalType":"uint256"},{"name":"scaledAmountBurned","type":"uint256","indexed":false,"internalType":"uint256"},{"name":"normalizedAmountPaid","type":"uint256","indexed":false,"internalType":"uint256"}],"anonymous":false},{"type":"event","name":"WithdrawalBatchPayment","inputs":[{"name":"expiry","type":"uint256","indexed":true,"internalType":"uint256"},{"name":"scaledAmountBurned","type":"uint256","indexed":false,"internalType":"uint256"},{"name":"normalizedAmountPaid","type":"uint256","indexed":false,"internalType":"uint256"}],"anonymous":false},{"type":"event","name":"WithdrawalExecuted","inputs":[{"name":"expiry","type":"uint256","indexed":true,"internalType":"uint256"},{"name":"account","type":"address","indexed":true,"internalType":"address"},{"name":"normalizedAmount","type":"uint256","indexed":false,"internalType":"uint256"}],"anonymous":false},{"type":"event","name":"WithdrawalQueued","inputs":[{"name":"expiry","type":"uint256","indexed":true,"internalType":"uint256"},{"name":"account","type":"address","indexed":true,"internalType":"address"},{"name":"scaledAmount","type":"uint256","indexed":false,"internalType":"uint256"},{"name":"normalizedAmount","type":"uint256","indexed":false,"internalType":"uint256"}],"anonymous":false},{"type":"error","name":"AccountBlocked","inputs":[]},{"type":"error","name":"AnnualInterestBipsTooHigh","inputs":[]},{"type":"error","name":"AprChangeOnClosedMarket","inputs":[]},{"type":"error","name":"BadLaunchCode","inputs":[]},{"type":"error","name":"BadRescueAsset","inputs":[]},{"type":"error","name":"BorrowAmountTooHigh","inputs":[]},{"type":"error","name":"BorrowFromClosedMarket","inputs":[]},{"type":"error","name":"BorrowWhileSanctioned","inputs":[]},{"type":"error","name":"BuyBackOnDelinquentMarket","inputs":[]},{"type":"error","name":"CapacityChangeOnClosedMarket","inputs":[]},{"type":"error","name":"CloseMarketWithUnpaidWithdrawals","inputs":[]},{"type":"error","name":"DepositToClosedMarket","inputs":[]},{"type":"error","name":"FIFOQueueOutOfBounds","inputs":[]},{"type":"error","name":"InsufficientReservesForFeeWithdrawal","inputs":[]},{"type":"error","name":"InsufficientReservesForNewLiquidityRatio","inputs":[]},{"type":"error","name":"InsufficientReservesForOldLiquidityRatio","inputs":[]},{"type":"error","name":"InvalidArrayLength","inputs":[]},{"type":"error","name":"MarketAlreadyClosed","inputs":[]},{"type":"error","name":"MaxSupplyExceeded","inputs":[]},{"type":"error","name":"NoReentrantCalls","inputs":[]},{"type":"error","name":"NotApprovedBorrower","inputs":[]},{"type":"error","name":"NotApprovedLender","inputs":[]},{"type":"error","name":"NotFactory","inputs":[]},{"type":"error","name":"NullBurnAmount","inputs":[]},{"type":"error","name":"NullBuyBackAmount","inputs":[]},{"type":"error","name":"NullFeeAmount","inputs":[]},{"type":"error","name":"NullMintAmount","inputs":[]},{"type":"error","name":"NullRepayAmount","inputs":[]},{"type":"error","name":"NullTransferAmount","inputs":[]},{"type":"error","name":"NullWithdrawalAmount","inputs":[]},{"type":"error","name":"ProtocolFeeChangeOnClosedMarket","inputs":[]},{"type":"error","name":"ProtocolFeeTooHigh","inputs":[]},{"type":"error","name":"RepayToClosedMarket","inputs":[]},{"type":"error","name":"ReserveRatioBipsTooHigh","inputs":[]},{"type":"error","name":"SphereXOperatorRequired","inputs":[]},{"type":"error","name":"WithdrawalBatchNotExpired","inputs":[]}],"bytecode":{"object":"0x6102606040523461020357610012610207565b604051614c56908161045b8239608051818181610e420152610f1e015260a051818181610bb901528181610cdd0152818161109d0152818161171b015281816118e401528181611ae701528181611e1b01528181611f7501528181612069015281816121e901528181612f7c0152818161316c01528181613580015281816139050152613a65015260c051818181611db3015281816122d601528181613ea60152614818015260e05181818161040f01528181610c98015281816114ca01528181611a5601528181611d690152818161218901528181613e7801526147c50152610100518181816118350152611a15015261012051818181610dba0152611efa015261014051818181610e00015281816128e7015281816129cc01528181612c360152612cfd015261016051818181610ee6015281816128c6015281816129ab01528181612c150152612cdc01526101805181818161166c01526136fb01526101a05181610a9901526101c05181818161044401528181610b4701528181610c0c015281816110d401528181611d2301528181611e4601528181611f1b01528181612319015281816132130152818161324a0152818161393101528181613a1601526147ec01526101e051816105d5015261020051816105f90152610220518161160a0152610240518161162e0152f35b5f80fd5b6103ad6103a861010033815261021b610432565b8051610397906001600160a01b03166101c09081528261038661036f610245602084015160ff1690565b6101a09081526040840151946101e095865261037861036f6060870151976102009889528760808101519c6102209d8e5261032960a083015191610240928352610120926102c26102bb6102b06102a48789015160018060801b031690565b6001600160801b031690565b9a87015161ffff1690565b61ffff1690565b98610160996102d86102bb8c89015161ffff1690565b6102ec6102bb610140809a015161ffff1690565b9260081b5f55676765c793fa10079d606b1b9260201b9060301b179060401b4260c01b1717176003558c015160a0528b015160018060a01b031690565b60c09081528a01516001600160a01b031660e09081528a01516001600160a01b031690526103616102bb610180809b015161ffff1690565b90528a015163ffffffff1690565b63ffffffff1690565b905286015163ffffffff1690565b90528201516001600160a01b031690565b60805201516001600160a01b031690565b6103af565b565b60018060a01b03608051165f80526020527f2ac55ae7ba47db34b5334622acafeb34a65daf143b47019273185d64c73a35a560405fa1807f1777adabd324f814e2b0e28f6edf876dce01d7d66358c9acfe87b1b5f38338d5556020527ff33499cccaa0611882086224cc48cd82ef54b66a4d2edf4ed67108dd516896d560405fa1565b6040516102608082016040526304032dbb5f5280826004601c335afa903d141615610203579056fe60806040526004361015610011575f80fd5b5f3560e01c8062ae3bf8146103ce57806301e1d114146103c957806302372c4f146103c457806306fdde03146103bf578063088fee5e146103ba578063095ea7b3146103b55780630c1e3fea146103b05780630c3f6acf146103ab5780630cd1a5b6146103a657806311057cd0146103a157806314a1c32d1461039c57806318160ddd146103975780631d8557d7146103925780631da24f3e1461038d5780631e3cef531461038857806323b872dd146103835780632ab4d0521461037e578063313ce5671461037957806334bca29c14610374578063371fd8e61461036f57806338d52e0f1461036a5780633c231166146103655780633f3e4c1114610360578063469048401461035b5780634be687c6146103565780634c6c848f14610351578063514a4cd61461034c57806354635570146102b157806354b302c51461034757806354fd4d50146103425780636731ba6d1461033d578063683dd191146103385780636b174f351461033357806370a082311461032e5780637243d96c14610329578063739ccdd314610324578063740588591461031f578063766360171461031a5780637df1f1b914610315578063878eb9211461031057806395d89b411461030b5780639e6f980214610306578063a9059cbb14610301578063ae6ea191146102fc578063b1bf962d146102f7578063b68ce7a2146102f2578063b6b55f25146102ed578063c2b6b58c146102e8578063c45a0155146102e3578063c511ed5e146102de578063c5ebeaec146102d9578063c8796572146102d4578063cd7033c4146102cf578063d98e0fe8146102ca578063dbcd50b4146102c5578063dcd549d4146102c0578063dd62ed3e146102bb578063e5adc635146102b6578063e7e5db4f146102b15763f58c251c146102ac575f80fd5b6122c1565b610f09565b612165565b612106565b612023565b611fbc565b611f98565b611f5e565b611e7e565b611d53565b611a44565b611a00565b6119df565b61199e565b611975565b611949565b61180a565b61168f565b611655565b6115f0565b61153a565b6114b5565b611471565b611355565b6112bd565b611245565b6111ea565b611134565b611107565b610f95565b610f71565b610f4d565b610ecf565b610e23565b610de9565b610da5565b610c82565b610c3b565b610bf7565b610b15565b610abd565b610a80565b610a58565b61099f565b610961565b610915565b6108d9565b61089e565b610872565b61084e565b610815565b6107e5565b6107bf565b61076a565b610620565b6105bb565b61053a565b6104e2565b6103e8565b6001600160a01b038116036103e457565b5f80fd5b346103e45760203660031901126103e457600435610405816103d3565b61040d6127ab565b7f000000000000000000000000000000000000000000000000000000000000000033186104d55760018060a01b03808216308114917f00000000000000000000000000000000000000000000000000000000000000001614176104c8576370a082315f5230602052602060346024601c845afa601f3d1116156104bb575f60446010826020943360145263a9059cbb60601b82525af13d1560015f51141716156104bb576104b96127c9565b005b6390b8ec185f526004601cfd5b6311530cde5f526004601cfd5b6302171e6a5f526004601cfd5b346103e4575f3660031901126103e45760206104fc612305565b604051908152f35b63ffffffff8116036103e457565b60409060031901126103e45760043561052a816103d3565b9060243561053781610504565b90565b346103e457604061054a36610512565b61058e61055561236a565b925f845263ffffffff60208501935f855261056e6127d2565b165f526008602052845f209060018060a01b03165f5260205260405f2090565b54906001600160681b0382168093526001600160801b03809260681c168152835192835251166020820152f35b346103e4575f3660031901126103e45760205f525f6020527f0000000000000000000000000000000000000000000000000000000000000000603f527f0000000000000000000000000000000000000000000000000000000000000000605f5260805ff35b346103e45761062e36610512565b906106376127d2565b63ffffffff91828116914283101561075d576106a86106a361070b9261072096610710966106636127de565b93915061066e612416565b5016036107245761068e909563ffffffff165f52600860205260405f2090565b9060018060a01b03165f5260205260405f2090565b612467565b916106cc6106c060208501516001600160801b031690565b6001600160801b031690565b926106f86106ea6106ea6106c060408601516001600160801b031690565b92516001600160681b031690565b6001600160681b03809116921690612a29565b6124a5565b6040519081529081906020820190565b0390f35b5061068e6107486107438763ffffffff165f52600760205260405f2090565b612430565b9563ffffffff165f52600860205260405f2090565b632561b8805f526004601cfd5b346103e45760403660031901126103e4576107ad60043561078a816103d3565b6107926127ab565b6107a861079d612a3e565b916024359033612a82565b61446d565b5f63929eee145d602060405160018152f35b346103e4575f3660031901126103e4576107d76124b2565b506101c06107e3612514565bf35b346103e4575f3660031901126103e4576107fd6124b2565b506108066127d2565b6101c06108116127de565b5050f35b346103e4575f3660031901126103e45761082d6127d2565b60206001600160801b0360406108416127de565b5050015116604051908152f35b346103e4575f3660031901126103e457602061ffff60035460301c16604051908152f35b346103e4575f3660031901126103e45761088a6127d2565b60206104fc6108976127de565b5050612ad6565b346103e4575f3660031901126103e4576108b66127d2565b60206104fc6108c36127de565b50506001600160681b0360808201511690613749565b346103e4575f3660031901126103e4576108f16127ab565b61090c6108fc612a3e565b6107a8610907612b18565b612d4a565b5f63929eee145d005b346103e45760203660031901126103e457600435610932816103d3565b61093a6127d2565b60018060a01b03165f52600460205260206001600160681b0360405f205416604051908152f35b346103e4575f3660031901126103e457602061098e61097e6127de565b5050610988612305565b90612eb1565b6001600160801b0360405191168152f35b346103e45760603660031901126103e4576004356109bc816103d3565b6024356109c8816103d3565b6044356109d36127ab565b6109db612a3e565b6001600160a01b0384165f90815260096020908152604080832033845290915290209092905460018101610a2c575b50906107a891610a1994612f3b565b5f63929eee145d60405160018152602090f35b9190818303928311610a5357610a1994610a4a6107a8943383612a82565b94509091610a0a565b612491565b346103e4575f3660031901126103e45760206001600160801b035f5460081c16604051908152f35b346103e4575f3660031901126103e457602060405160ff7f0000000000000000000000000000000000000000000000000000000000000000168152f35b346103e4576020610b06610ad036610512565b9190610ada6127ab565b6107a8610b00610ae8612a3e565b92610af1612b18565b9560445f523615519187613088565b93612d4a565b5f63929eee145d604051908152f35b346103e45760203660031901126103e457600435610b316127ab565b610b39612a3e565b8115610bea57610b6b8230337f0000000000000000000000000000000000000000000000000000000000000000613278565b815f52337fe8b606ac1e5df7657db58d297ca8f41c090fc94c5fd2d6958f043e41736e9fa660205fa2610b9c612b18565b918251610bdd5761090c926109076107a89260245f5282361551917f00000000000000000000000000000000000000000000000000000000000000006132ee565b6361d1bc8f5f526004601cfd5b637e0820885f526004601cfd5b346103e4575f3660031901126103e4576040517f00000000000000000000000000000000000000000000000000000000000000006001600160a01b03168152602090f35b346103e4575f3660031901126103e4577f1777adabd324f814e2b0e28f6edf876dce01d7d66358c9acfe87b1b5f38338d5546040516001600160a01b039091168152602090f35b346103e45760203660031901126103e4576004357f000000000000000000000000000000000000000000000000000000000000000033186104d557610cc56127ab565b610ccd612a3e565b610cd5612b18565b8051610d98577f000000000000000000000000000000000000000000000000000000000000000060018160571c16610d3d575b5082610d306107a892610907610d20610d3597613354565b6001600160801b03166020830152565b61336a565b6104b96127c9565b5f809160231936019082601c6040519363849da12985528960208601526101c088604087015e610200908180870152806102208701526024610240870137360193019160601c5af115610d90575f610d08565b3d5f803e3d5ffd5b6381b210785f526004601cfd5b346103e4575f3660031901126103e4576040517f00000000000000000000000000000000000000000000000000000000000000006001600160a01b03168152602090f35b346103e4575f3660031901126103e45760206040517f00000000000000000000000000000000000000000000000000000000000000008152f35b346103e45760203660031901126103e457600435610e40816103d3565b7f00000000000000000000000000000000000000000000000000000000000000006001600160a01b03163303610ec2577f1777adabd324f814e2b0e28f6edf876dce01d7d66358c9acfe87b1b5f38338d581815491555f526020527ff33499cccaa0611882086224cc48cd82ef54b66a4d2edf4ed67108dd516896d560405fa1005b634ee0b8f85f526004601cfd5b346103e4575f3660031901126103e45760206040517f00000000000000000000000000000000000000000000000000000000000000008152f35b346103e4575f3660031901126103e4576040517f00000000000000000000000000000000000000000000000000000000000000006001600160a01b03168152602090f35b346103e4575f3660031901126103e45760206104fc610f6a6127de565b5050613393565b346103e4575f3660031901126103e4575f6040526101326041526020805260606020f35b346103e45760403660031901126103e457600435610fb16127ab565b610fb9612a3e565b81151591826110cc575b610fcb612b18565b92610fd68451151590565b6110c757611088575b5061101f610feb612305565b6110196106c061100560608701516001600160801b031690565b60408701516001600160801b03169061261d565b906124a5565b9061103c61102e6106c06133b9565b602435818082039110020190565b5f925b8161104985612638565b94108061107f575b15611072578061106461106d92876133d2565b80820391110290565b61103f565b610d35836107a887612d4a565b50801515611051565b6110c1908361109a60445f5236155190565b917f00000000000000000000000000000000000000000000000000000000000000006132ee565b5f610fdf565b610bdd565b6110f88130337f0000000000000000000000000000000000000000000000000000000000000000613278565b61110281336132c4565b610fc3565b346103e4575f3660031901126103e45761111f6127d2565b60206001600160701b036101806108416127de565b346103e45760203660031901126103e4576004356111506127ab565b611158612a3e565b611160612b18565b916111796001600160701b0361018085015116826148cd565b61118e6001600160681b0382168092146148b4565b80156111dd57610720936111bf926111b9926111a9336134d6565b9260245f5236155193339161352a565b9161446d565b5f63929eee145d60405163ffffffff90911681529081906020820190565b63d61c50f85f526004601cfd5b346103e45760203660031901126103e45760206104fc60043561120c816103d3565b6112146127d2565b61121c6127de565b50506001600160a01b039091165f9081526004845260409020546001600160681b031690613749565b346103e4575f3660031901126103e45761125d6127ab565b611265612a3e565b61126d612b18565b90611277336134d6565b916001600160681b0383511680156111dd5761072093826111b9926112ad6001600160701b036101806111bf970151168261499d565b9160045f5236155193339161352a565b346103e4575f3660031901126103e4576112d56127d2565b60206104fc6112e26127de565b5050613762565b9181601f840112156103e45782359167ffffffffffffffff83116103e4576020808501948460051b0101116103e457565b60209060206040818301928281528551809452019301915f5b828110611341575050505090565b835185529381019392810192600101611333565b346103e45760403660031901126103e45767ffffffffffffffff6004358181116103e4576113879036906004016112e9565b90916024359081116103e4576113a19036906004016112e9565b9190926113ac6127ab565b6113b4612a3e565b93838303611464576113cd6113c884612646565b6123f0565b83815293601f196113dd85612646565b013660208701376113ec612b18565b935f5b81811061141b57610720876114078a6107a88a612d4a565b61140f6127c9565b6040519182918261131a565b8061145361142c6001938589612672565b35611436816103d3565b611441838789612672565b3561144b81610504565b36918a613088565b61145d828a612687565b52016113ef565b639d89020a5f526004601cfd5b346103e4575f3660031901126103e4576114896127d2565b60206114936127de565b50506114a66114a0612305565b91613762565b90604051918082039111028152f35b346103e4575f3660031901126103e4576040517f00000000000000000000000000000000000000000000000000000000000000006001600160a01b03168152602090f35b60209060206040818301928281528551809452019301915f5b828110611520575050505090565b835163ffffffff1685529381019392810192600101611512565b346103e4575f3660031901126103e4576115526127d2565b6005546001600160801b0381169060801c818103908111610a53576115796113c882612646565b81815291601f1961158983612646565b013660208501375f5b8281106115a7576040518061072086826114f9565b806115ea6115d56115cb6115bd6001958761269b565b5f52600660205260405f2090565b5463ffffffff1690565b6115df8388612687565b9063ffffffff169052565b01611592565b346103e4575f3660031901126103e45760205f525f6020527f0000000000000000000000000000000000000000000000000000000000000000603f527f0000000000000000000000000000000000000000000000000000000000000000605f5260805ff35b346103e4575f3660031901126103e45760206040517f00000000000000000000000000000000000000000000000000000000000000008152f35b346103e45760403660031901126103e4576004356116ac816103d3565b602435906116b86127ab565b6116c0612a3e565b906116c9612b18565b926116e26001600160701b0361018086015116826148cd565b916001600160681b03926116fa8482168092146148b4565b80156117db5785610907826117866107a89761173f6107ad9b6117d59789337f000000000000000000000000000000000000000000000000000000000000000061468f565b611748336134d6565b90806117578582855116612edf565b168252335f9081526004602052604090205b9151166001600160681b03166001600160681b0319825416179055565b6117b96117ac611795876134d6565b926117a784516001600160681b031690565b612f20565b6001600160681b03168252565b6001600160a01b0385165f908152600460205260409020612ef8565b3361470f565b63ddee9b305f526004601cfd5b6004359061ffff821682036103e457565b6024359061ffff821682036103e457565b346103e45760203660031901126103e4576118236117e8565b61182b6127ab565b611833612a3e565b7f00000000000000000000000000000000000000000000000000000000000000006001600160a01b0316330361193c5761ffff82166103e8811161193757611879612b18565b805161193257806107a892610d35956101208301916118a461189d845161ffff1690565b61ffff1690565b81036118b4575b50505050612d4a565b81611926936119087f4b34705283cdb9398d0e50b216b8fb424c6d4def5db9bfadc661ee3adc6076ee96611911947f0000000000000000000000000000000000000000000000000000000000000000613813565b9061ffff169052565b60405161ffff90911681529081906020820190565b0390a1805f80806118ab565b613806565b6137f9565b6332cc72365f526004601cfd5b346103e4575f3660031901126103e4576119616127d2565b60206001600160681b0360806108416127de565b346103e45760203660031901126103e4576020611990612a3e565b6104fc6111b9600435613873565b346103e45760203660031901126103e4576004356119ba612a3e565b906119c481613873565b036119d2576104b99061446d565b638a164f635f526004601cfd5b346103e4575f3660031901126103e457602060ff5f54166040519015158152f35b346103e4575f3660031901126103e4576040517f00000000000000000000000000000000000000000000000000000000000000006001600160a01b03168152602090f35b346103e4575f3660031901126103e4577f00000000000000000000000000000000000000000000000000000000000000008033186104d557611a846127ab565b611a8c612a3e565b611a94612b18565b91611a9f8351151590565b611d4e57611b4090611aaf612305565b90611ab985612ad6565b9081831015611cfe575090611ad181611ae1936124a5565b90611adc8287613a02565b61269b565b611b0b847f0000000000000000000000000000000000000000000000000000000000000000613ae3565b5f610140850152600184526127106101608501525f6101008501526110196106c061100560608701516001600160801b031690565b60c08301805163ffffffff908116918280611bc6575b50505050611b656106c06133b9565b905f905b828210611bae575050506001600160681b03611b8f60a08401516001600160681b031690565b16611ba957611ba0610d3592612d4a565b6107a842613d68565b613d5b565b611bbe81611019600193886133d2565b910190611b69565b611be16107438563ffffffff165f52600760205260405f2090565b6020810180516001600160681b031689611c11611c0585516001600160681b031690565b6001600160681b031690565b6001600160681b0380931610611cab575b5090611c7692915f8652806001600160801b03611c6b6040611c5c611c4e88516001600160681b031690565b96516001600160681b031690565b9601516001600160801b031690565b169316911684613cd5565b611c7f81613d0f565b4214611c8c575b80611b56565b6115df611c9b611ca39461271e565b928316613d35565b5f8080611c86565b886001600160801b03611cc98695949b8b611cd295611c7699613b3a565b905016906124a5565b97611cf483611cef8a63ffffffff165f52600760205260405f2090565b6126a8565b9091925089611c22565b90808311611d0e575b5050611ae1565b9161070b611d1f611d4794836124a5565b80937f00000000000000000000000000000000000000000000000000000000000000006139d1565b5f80611d07565b6139c4565b346103e45760203660031901126103e4576004357f00000000000000000000000000000000000000000000000000000000000000008033186104d557611d976127ab565b611d9f612a3e565b906395c098395f5260205260205f6024601c7f00000000000000000000000000000000000000000000000000000000000000005afa60203d141615610d90575f51611e7957611dec612b18565b8051611e7457611e03611dfd612305565b826137f0565b8311611e6f5782611e6a82611e3f6107a894610d35977f0000000000000000000000000000000000000000000000000000000000000000613db8565b61090783337f00000000000000000000000000000000000000000000000000000000000000006139d1565b613e18565b613dab565b613d9e565b613d91565b346103e4575f3660031901126103e457611e966127ab565b611e9e612a3e565b611ea6612b18565b9060408201916001600160801b03908184511615611f5157611ecf611ec9612305565b82612eb1565b828116918215611f44578584611ef1611f3f946107a897610d359a5116612733565b169052610907837f00000000000000000000000000000000000000000000000000000000000000007f00000000000000000000000000000000000000000000000000000000000000006139d1565b613e41565b63f784cfa45f526004601cfd5b6345c835cb5f526004601cfd5b346103e4575f3660031901126103e45760206040517f00000000000000000000000000000000000000000000000000000000000000008152f35b346103e4575f3660031901126103e457602060035461ffff6040519160401c168152f35b346103e45760203660031901126103e4576060611ff3600435611fde81610504565b611fe6612416565b611fee6127d2565b61274c565b6001600160801b0360408051926001600160681b0380825116855260208201511660208501520151166040820152f35b346103e45760203660031901126103e457600435612040816103d3565b6120486127ab565b612050612a3e565b61205982613e6a565b156120f957612066612b18565b917f000000000000000000000000000000000000000000000000000000000000000060018160581c166120a6575b50826109076107a892610d3595613ed9565b5f809160231936019082601c60405193638b3ce9b385528760208601526101c08a604087015e610200908180870152806102208701526024610240870137360193019160601c5af115610d90575f612094565b63a97ab1675f526004601cfd5b346103e45760403660031901126103e457602061215c600435612128816103d3565b60243590612135826103d3565b60018060a01b03165f526009835260405f209060018060a01b03165f5260205260405f2090565b54604051908152f35b346103e45760403660031901126103e45761217e6117e8565b6121866117f9565b907f000000000000000000000000000000000000000000000000000000000000000033186104d5576121b66127ab565b6121be612a3e565b906121c7612b18565b80516122bc5761220d816101608101956121e661189d885161ffff1690565b947f0000000000000000000000000000000000000000000000000000000000000000613f88565b61ffff959186811694612710978887116122b75783169788116122b2578711928315612296575b61225192612245919061ffff169052565b61ffff16610140840152565b612274575b9261226f6107a89261226a610d3596612d4a565b61403b565b614064565b9261227e84613762565b612286612305565b106122915792612256565b61402e565b61229f85613762565b6122a7612305565b101561223457614021565b614014565b614007565b613f7b565b346103e4575f3660031901126103e4576040517f00000000000000000000000000000000000000000000000000000000000000006001600160a01b03168152602090f35b6370a082315f523060205260205f6024601c7f00000000000000000000000000000000000000000000000000000000000000005afa601f3d111615612349575f5190565b634963f6d55f526004601cfd5b634e487b7160e01b5f52604160045260245ffd5b604051906040820182811067ffffffffffffffff82111761238a57604052565b612356565b604051906060820182811067ffffffffffffffff82111761238a57604052565b604051906101c0820182811067ffffffffffffffff82111761238a57604052565b604051906020820182811067ffffffffffffffff82111761238a57604052565b6040519190601f01601f1916820167ffffffffffffffff81118382101761238a57604052565b61241e61238f565b905f82525f60208301525f6040830152565b906001600160801b03600161244361238f565b9380546001600160681b0390818116875260681c1660208601520154166040830152565b906001600160801b0361247861236a565b92546001600160681b038116845260681c166020830152565b634e487b7160e01b5f52601160045260245ffd5b91908203918211610a5357565b6124ba6123af565b905f82525f60208301525f60408301525f60608301525f60808301525f60a08301525f60c08301525f60e08301525f6101008301525f6101208301525f6101408301525f6101608301525f6101808301525f6101a0830152565b61251c6123af565b906125595f5461253160ff8216859015159052565b60081c6001600160801b039081166020850152600154908116604085015260801c6060840152565b6002546001600160681b038082166080850152606882901c1660a084015263ffffffff60d082901c811660c0850152612603916125a09060ff9060f01c16151560e0860152565b60035463ffffffff8282161661010086015261ffff602082901c8116610120870152603082901c8116610140870152604082901c16610160860152605081901c6001600160701b031661018086015260c01c166101a084019063ffffffff169052565b565b9060016001600160801b0380931601918211610a5357565b9190916001600160801b0380809416911601918211610a5357565b5f198114610a535760010190565b67ffffffffffffffff811161238a5760051b60200190565b634e487b7160e01b5f52603260045260245ffd5b91908110156126825760051b0190565b61265e565b80518210156126825760209160051b010190565b91908201809211610a5357565b604060016001600160801b03926126df6001600160681b0386511682906001600160681b03166001600160681b0319825416179055565b60208501518154906001600160681b0360681b9060681b16906001600160681b0360681b191617815501920151166001600160801b0319825416179055565b90600163ffffffff80931601918211610a5357565b6001600160801b039182169082160391908211610a5357565b91906127566127de565b915063ffffffff8093169283151591168314166127a657505f5260076020526001600160801b03600160405f2080546001600160681b0390818116875260681c1660208601520154166040830152565b925050565b63929eee14805c6127bc576001905d565b637fa8a9875f526004601cfd5b5f63929eee145d565b63929eee145c6127bc57565b6127e66124b2565b505f6127f0612416565b6127f8612514565b926128128460c063ffffffff910151168042119015151690565b612914575b6101a084015163ffffffff9042908216036128c0575b60c085015163ffffffff169081166128425750565b925090506128616107438363ffffffff165f52600760205260405f2090565b9061287660208301516001600160681b031690565b6001600160681b03612892611c0585516001600160681b031690565b91161061289b57565b6128ad6128a6612305565b85846141c8565b806128b55750565b61260390858461423b565b61290c427f00000000000000000000000000000000000000000000000000000000000000007f00000000000000000000000000000000000000000000000000000000000000008861408d565b50505061282d565b91505060c08201612929815163ffffffff1690565b9161294861293f6101a086015163ffffffff1690565b63ffffffff1690565b63ffffffff84169081036129a5575b505f6129746107438563ffffffff165f52600760205260405f2090565b92612987612980612305565b87866141c8565b80612994575b5052612817565b61299f90878661423b565b5f61298d565b6129f1907f00000000000000000000000000000000000000000000000000000000000000007f00000000000000000000000000000000000000000000000000000000000000008761408d565b5050612957565b906b033b2e3c9fd0803ce800000091815f19048111820215830215612a1c57020490565b63ad251c275f526004601cfd5b815f19048111820215830215612a1c57020490565b604051608081019080821067ffffffffffffffff83111761238a576105379160405260608152606060208201525f60408201525f60608201525f3560e01c90614396565b6001600160a01b038082165f908152600960209081526040808320938616835292905220919290918190555f527f8c5be1e5ebec7d5bd14f71427d1e84f3dd0314c0f7b2291e5b200ac8c7c3b92560205fa3565b612aed6001600160681b0360808301511682613749565b906001600160801b0390816060820151168301809311610a535760400151168101809111610a535790565b612b206124b2565b50612b29612514565b90612b438260c063ffffffff910151168042119015151690565b612c91575b6101a082015163ffffffff90811642819003612c0b575b5060c083015163ffffffff16908116612b755750565b612b906107438263ffffffff165f52600760205260405f2090565b60208101516001600160681b03166001600160681b03612bba611c0584516001600160681b031690565b911610612bc6575b5050565b612bd8612bd1612305565b85836141c8565b80612be257505050565b82612bf5611cef92612603958886613b3a565b505063ffffffff165f52600760205260405f2090565b612c8b90612c5b427f00000000000000000000000000000000000000000000000000000000000000007f00000000000000000000000000000000000000000000000000000000000000008861408d565b92612c83612c776101808a95949501516001600160701b031690565b6001600160701b031690565b9042906144d0565b5f612b5f565b612ca561293f60c084015163ffffffff1690565b612cba61293f6101a085015163ffffffff1690565b808203612cd2575b5050612ccd8261451a565b612b48565b81612d22612d43937f00000000000000000000000000000000000000000000000000000000000000007f00000000000000000000000000000000000000000000000000000000000000008861408d565b939092612d3d612c776101808a01516001600160701b031690565b916144d0565b5f80612cc2565b61260390612d5781613762565b612d5f612305565b1060e082018190529080511515612d836106c060208401516001600160801b031690565b60081b175f55612da06106c060408301516001600160801b031690565b612db76106c060608401516001600160801b031690565b60801b17600155612dd5611c0560808301516001600160681b031690565b612dec611c0560a08401516001600160681b031690565b612e0061293f60c085015163ffffffff1690565b9060681b9060d01b8460f01b171717600255612e2761293f61010083015163ffffffff1690565b612e3a61189d61012084015161ffff1690565b612e4d61189d61014085015161ffff1690565b90612e6161189d61016086015161ffff1690565b91612e8f61293f6101a0612e83612c776101808a01516001600160701b031690565b97015163ffffffff1690565b9160201b9060301b179160401b908460501b9060c01b17171717600355614663565b906001600160801b0391826060820151168203918211610a5357604083910151169081808203911002011690565b6001600160681b039182169082160391908211610a5357565b6001600160681b036126039251166001600160681b03166001600160681b0319825416179055565b9190916001600160681b0380809416911601918211610a5357565b9190612f45612b18565b92612f5e6001600160701b0361018086015116846148cd565b6001600160681b03612f748183168093146148b4565b81156117db577f0000000000000000000000000000000000000000000000000000000000000000600181605c1c1661301e575b509461090761301992612fee61260398612fc0876134d6565b9080612fcf8582855116612edf565b1682526001600160a01b0388165f908152600460205260409020611769565b612ffd6117ac611795886134d6565b6001600160a01b0386165f908152600460205260409020612ef8565b61470f565b5f80916063989398193601906040519163a018f90e83523360208401528760408401528860608401528660808401526101c08660a085015e610260808401528061028084015260646102a084013782601c610220360193019160601c5af115610d9057945f612fa7565b909291926130a76107438563ffffffff165f52600760205260405f2090565b936130bc61293f60c085015163ffffffff1690565b9063ffffffff8116918214613273576130e78361068e8363ffffffff165f52600860205260405f2090565b9461312561314761310260408a01516001600160801b031690565b9861313c6106c08a54809c6001600160681b03968795516001600160681b031690565b6001600160801b0397889687921693169116612a29565b9960681c1689612733565b90811697881561326e576060876131cb6131e3936105379b6131906131f0988f9d8e8e7f0000000000000000000000000000000000000000000000000000000000000000614747565b80546fffffffffffffffffffffffffffffffff60681b191660689290921b6fffffffffffffffffffffffffffffffff60681b16919091179055565b01916131de83516001600160801b031690565b612733565b6001600160801b03169052565b836131fa84613e6a565b156132425761323d9161320c856147b7565b61323783827f00000000000000000000000000000000000000000000000000000000000000006139d1565b8561484f565b614889565b61323d9150837f00000000000000000000000000000000000000000000000000000000000000006139d1565b61473a565b61075d565b601c5f60649281946020966040519860605260405260601b602c526323b872dd60601b600c525af13d1560015f51141716156132b7575f606052604052565b637939f4245f526004601cfd5b905f527fe8b606ac1e5df7657db58d297ca8f41c090fc94c5fd2d6958f043e41736e9fa660205fa2565b600181605a1c16613300575b50505050565b5f601c6101c08296958684973603928392604051986383d9e1eb8a5260208a0152604089015e61020080880152816102208801526102408701376102240193019160601c5af115610d90575f8080806132fa565b906126036001600160801b0383168093146148b4565b5f527ff2672935fc79f5237559e2e2999dbe743bf65430894ac2b37666890e7c69e1af60205fa1565b6110646001600160801b03602083015116916001600160681b0360808201511690613749565b6105376005546001600160801b0381169060801c612733565b9190600554906001600160801b03918281169060801c81146134ae575f5260066020528161342863ffffffff60405f20541692836134216107438263ffffffff165f52600760205260405f2090565b9788613b3a565b9050169361344881611cef8463ffffffff165f52600760205260405f2090565b6001600160681b036020818351169201511614613463575050565b600554918083169260801c83146134ae5761349783612603945f52600660205260405f2063ffffffff198154169055612605565b166001600160801b03196005541617600555613d0f565b604051638727480160e01b8152600490fd5b906126036001600160681b0383168093146148b4565b905f6134e06123d0565b526001600160a01b0382165f908152600460205260409020613517906001600160681b0361350c6123d0565b915416815292613e6a565b61351d57565b636bc671fd5f526004601cfd5b9392959491909560c0850190613544825163ffffffff1690565b9763ffffffff92838a16156136ca575b5093889361368793613680846135c1610907996135a46001600160681b036126039e9d9916978d898d8a7f00000000000000000000000000000000000000000000000000000000000000006148f3565b612ffd6117ac846135bc84516001600160681b031690565b612edf565b6135cc86308661470f565b6136356136068561068e6135f16107438d63ffffffff165f52600760205260405f2090565b9b63ffffffff165f52600860205260405f2090565b61361b836117a783546001600160681b031690565b6001600160681b03166001600160681b0319825416179055565b61365a61364d826117a78b516001600160681b031690565b6001600160681b03168952565b61367360a08b01916117a783516001600160681b031690565b6001600160681b03169052565b8a1661496d565b613699613692612305565b84836141c8565b806136b8575b50611cef8663ffffffff165f52600760205260405f2090565b6136c490878584613b3a565b5061369f565b936137389950613687936136808998946135c1610907999561372961293f6137236126039f6136f99051151590565b7f000000000000000000000000000000000000000000000000000000000000000090815f03020190565b4261269b565b9e8f809b6115df888316613d35565b959950509498995050935093613554565b906001600160701b03610180610537930151169061499d565b6001600160681b038060a08301511690608083015116818103908111610a53576137969061ffff61016085015116906149d9565b908101809111610a53576137b9906001600160701b03610180840151169061499d565b6001600160801b036040830151168101809111610a53576137ea6106c060606105379401516001600160801b031690565b9061269b565b61106490613762565b63499fddb15f526004601cfd5b6337f1a75f5f526004601cfd5b919060018360551c1661382557505050565b5f9283601c81946101c0602319360191604051966303473d8d88526020880152604087015e610200908180870152806102208701526024610240870137360193019160601c5af115610d9057565b61387b6127ab565b613883612b18565b9061388e8251151590565b6139bf576138ab9061389f83613393565b90818082039110020190565b906138d56138d06138ca612c776101808501516001600160701b031690565b846148cd565b6134c0565b906001600160681b03821680156139ba576139b192613998610907926139806138fd336134d6565b6139298784337f0000000000000000000000000000000000000000000000000000000000000000614a11565b6139558930337f0000000000000000000000000000000000000000000000000000000000000000613278565b61396d6117ac866117a784516001600160681b031690565b335f908152600460205260409020612ef8565b61399187336130195f805236155190565b8633614a7f565b61367360808401916117a783516001600160681b031690565b906126036127c9565b614a04565b6149f7565b63449e5f505f526004601cfd5b60105f604492602095829560145260345263a9059cbb60601b82525af13d1560015f51141716156104bb575f603452565b8115610bea578051610bdd57613a3a8230337f0000000000000000000000000000000000000000000000000000000000000000613278565b815f52337fe8b606ac1e5df7657db58d297ca8f41c090fc94c5fd2d6958f043e41736e9fa660205fa27f000000000000000000000000000000000000000000000000000000000000000091600183605a1c16613a9557505050565b5f9283601c81946101c0600319360191604051966383d9e1eb88526020880152604087015e610200808601526102209080828701526004610240870137360193019160601c5af115610d9057565b60018160591c16613af2575050565b5f91829182601c60031936016101c060405195639ecc64e68752602087015e6101e0808601526102009080828701526004610220870137360193019160601c5af115610d9057565b929391613b7a91613b5285516001600160681b031690565b9460208101956001600160681b03948591613b7489516001600160681b031690565b90612edf565b168015613cc8576101808301978851613b99906001600160701b031690565b6001600160701b0316613bab916148cd565b818110908290030201613bbd906134c0565b965193871693613bd6906001600160701b0316856129f8565b613bdf90613354565b95878151613bf3906001600160681b031690565b90613bfd91612f20565b6001600160681b031690526040018051613c219087906001600160801b031661261d565b6001600160801b0316905260a081018051613c469088906001600160681b0316612edf565b6001600160681b03169052606081018051613c6b9087906001600160801b031661261d565b6001600160801b031690526080018051613c8f9087906001600160681b0316612edf565b6001600160681b031690525f8052361551906001600160801b03851691823091613cb89261470f565b63ffffffff169161260392614aad565b505f965086955050505050565b91929092604051935f526020526040527f9262dc39b47cad3a0512e4c08dda248cb345e7163058f300bc63f56bda288b6e60605fa2604052565b7fcbdf25bf6e096dd9030d89bb2ba2e3e7adb82d25a233c3ca3d92e9f098b74e555f80a2565b7f5c9a946d3041134198ebefcd814de7748def6576efd3d1b48f48193e183e89ef5f80a2565b634d7909975f526004601cfd5b5f527f9dc30b8eda31a6a144e092e5de600955523a6a925cc15cc1d1b9b4872cfa615560205fa1565b634a1c13a95f526004601cfd5b63d0242b285f526004601cfd5b63119fe6e35f526004601cfd5b9190600183605b1c16613dca57505050565b5f9283601c81946101c06023193601916040519663b1cfda0d88526020880152604087015e610200908180870152806102208701526024610240870137360193019160601c5af115610d9057565b5f527fb848ae6b1253b6cb77e81464128ce8bd94d3d524fea54e801e0da869784dca3360205fa1565b5f527f860c0aa5520013080c2f65981705fcdea474d9f7c3daf954656ed5e65d692d1f60205fa1565b90604051916306e744445f527f000000000000000000000000000000000000000000000000000000000000000060205260405260205f6044601c7f00000000000000000000000000000000000000000000000000000000000000005afa60203d141615610d90575f5191604052565b6001600160a01b0382165f90815260046020526040902091906001600160681b03613f026123d0565b9354169283815283613f145750505050565b81613f3d9185613f336001600160701b0361018088970151168261499d565b948592369461352a565b92604051935f526020526040527fe12b220b92469ae28fb0d79de531f94161431be9f073b96b8aad3effb88be6fa60605fa26040525f8080806132fa565b63b9de88a25f526004601cfd5b91909260018360561c165f146140005791604093916101c05f9460431936019287519563cc4526428752602087015287860152606085015e6102208084015280610240840152604461026084013782601c610200360193019160601c5af11560403d1017610d905761ffff90815f5116916020511690565b5090509091565b63cf1f916f5f526004601cfd5b638ec830735f526004601cfd5b630a68e5bf5f526004601cfd5b63253ecbb95f526004601cfd5b5f527fff7b6c8be373823323d3c5d99f5d027dd409dce5db54eae511bbdd5546b7503760205fa1565b5f527f72877a153052500f5edbb2f9da96a0f45d671d4b4555fdf8628a709dc4eab43a60205fa1565b92939190915f925f9261ffff968761014088015116916101a088019363ffffffff93848651168403848111610a53576140c591614bac565b809a6101208b01511680614159575b505080614137575b505061412c610180612603959697980161411f61411a8b6137ea6141148d61410e612c7788516001600160701b031690565b9361269b565b8261499d565b614b14565b6001600160701b03169052565b1663ffffffff169052565b6126039596975061415061412c9261018092858c614adb565b979695506140dc565b61419592985090614169916149d9565b61418f6001600160681b0360808c015116916001600160701b036101808d01511661499d565b9061499d565b604089016001600160801b03908181511691838301809311610a53576141bf9083168093146148b4565b5295895f6140d4565b6141f06001600160681b0391613b748360a08601511691846020818351169201511690612edf565b16906001600160801b039061421b82606083015116936001600160701b03610180840151169061499d565b8301809311610a535760400151168101809111610a535780820391110290565b80516001600160681b03169061426b60208201926001600160681b03918291613b7486516001600160681b031690565b16801561438e57610180850195865161428a906001600160701b031690565b6001600160701b031661429c916148cd565b8181109082900302016142ae906134c0565b94516142c7916001600160701b039091169086166129f8565b6142d090613354565b918481516142e4906001600160681b031690565b906142ee91612f20565b6001600160681b0316905260400180516143129083906001600160801b031661261d565b6001600160801b0316905260a0820180516143379085906001600160681b0316612edf565b6001600160681b0316905260608201908151614359906001600160801b031690565b906143639161261d565b6001600160801b03169052608001908151614384906001600160681b031690565b9061367391612edf565b505050505050565b7f1777adabd324f814e2b0e28f6edf876dce01d7d66358c9acfe87b1b5f38338d5546001600160a01b0316606082018190529091828215614466575060405190638925ca5a825260405f60209483868601523383860152606080860152366080860152368260a08701373660c4019082601c8701915af1835f51141615610d9057608083610537945160051b809460e06003830282010160405282820183823e80885201925f038184015281606084015285019260a08301845260a0019101525a60408401528251905190614b2a565b9392505050565b6060810180519091906001600160a01b031615612bc2575f8082518051908160061b9561449f60c08884010183614b2a565b519160051b019360405a91015103604085015283519463f0bd9468855260c4019082601c8601915af115610d905752565b927f18247a393d0531b65fbd94f5e78bc5639801a4efda62ae7b43533c4442116c3a959260c09592604051958652602086015260408501526060840152608083015260a0820152a1565b61260390611cef60c082015f614534825163ffffffff1690565b916145506107438463ffffffff165f52600760205260405f2090565b94602086019061456782516001600160681b031690565b9061457c611c0589516001600160681b031690565b6001600160681b0380931610614633575b506145e86145a288516001600160681b031690565b926145db6145b782516001600160681b031690565b60408b015163ffffffff8a16966001600160801b0390911691861690861687613cd5565b516001600160681b031690565b906145fd611c0589516001600160681b031690565b9116108314614625575061461083614b62565b5263ffffffff165f52600760205260405f2090565b61462e90613d0f565b614610565b61464561463e612305565b828a6141c8565b8681614653575b505061458d565b61465d928a613b3a565b8661464c565b5f526020527f9385f9ff65bcd2fb81cece54b27d4ec7376795fc4dcff686e370e347b0ed86c060405fa1565b9091939293600182605c1c166146a7575b5050505050565b6101c05f959486956043193601936040519663a018f90e885233602089015260408801526060870152608086015260a085015e610260808401528061028084015260446102a084013782601c610240360193019160601c5af115610d90575f808080806146a0565b90915f527fddf252ad1be2c89b69c2b068fc378daa952ba7f163c4a11628f55a4df523b3ef60205fa3565b63186334fe5f526004601cfd5b9091600182605d1c1661475b575050505050565b601c5f9594869592836101c08895360393849360405199632970403d8b5260208b015260408a0152606089015e61022080880152816102408801526102608701376102440193019160601c5af115610d90575f808080806146a0565b906040519163a1054f6b5f527f00000000000000000000000000000000000000000000000000000000000000006020526040527f000000000000000000000000000000000000000000000000000000000000000060605260205f6064601c827f00000000000000000000000000000000000000000000000000000000000000005af160203d141615610d90575f51916040525f606052565b91929092604051935f526020526040527f0d0843a0fcb8b83f625aafb6e42f234ac48c6728b207d52d97cfa8fbd34d498f60605fa2604052565b90915f527fd6cddb3d69146e96ebc2c87b1b3dd0b20ee2d3b0eadf134e011afb434a3e56e660205fa3565b156148bb57565b634e487b715f5260116020526024601cfd5b8160011c906b033b2e3c9fd0803ce8000000908183190481118415176148bb5702010490565b919394909294600183605e1c1661490c57505050505050565b5f958695836101c0601c94899636039485946040519a633521cccc8c5260208c015260408b015260608a0152608089015e61024080880152816102608801526102808701376102640193019160601c5af115610d90575f808080808061438e565b919290925f526020527fecc966b282a372469fa4d3e497c2ac17983c3eaed03f3f17c9acf4b15591663e60405fa3565b816b019d971e4fe8401e740000001904811115821517156148bb576b033b2e3c9fd0803ce800000091026b019d971e4fe8401e74000000010490565b816113881904811115821517156148bb576127109102611388010490565b6322d7c0435f526004601cfd5b63e4aa50555f526004601cfd5b929192600181605f1c16614a255750505050565b5f601c81956101c0839660231936019260405197635aeb713f895260208901526040880152606087015e610220908180870152806102408701526024610260870137360193019160601c5af115610d90575f8080806132fa565b91905f526020527f90890809c654f11d6e72a28fa60149770a0d11ec6c92319d6ceb2bb0a4ea1a1560405fa2565b91905f526020527f5272034725119f19d7236de4129fdb5093f0dcb80282ca5edbd587df91d2bd8960405fa2565b909392935f9463ffffffff6101a0840151168203918211610a5357614aff92614bde565b9081614b09575050565b610537929350614bac565b906126036001600160701b0383168093146148b4565b9190825190818152602080809501918181019360051b0101915b828110614b52575050509050565b8151548152908401908401614b44565b614b919060055460801c90815f52600660205263ffffffff60405f20911663ffffffff19825416179055612605565b6001600160801b036005549181199060801b16911617600555565b69152d02c7e14af68000008082029180828404036148bb57830202918183041490151715610a53576301e13380900490565b90610100820163ffffffff9060e082825116940151614c1e57614c0c858503868611029283168093146148b4565b52808203911102818082039110020190565b848493940191828411610a5357614c399083168093146148b4565b528082039111028082039111029056fea164736f6c6343000819000a","linkReferences":{}},"methodIdentifiers":{"accruedProtocolFees()":"0cd1a5b6","allowance(address,address)":"dd62ed3e","annualInterestBips()":"11057cd0","approve(address,uint256)":"095ea7b3","archController()":"54635570","asset()":"38d52e0f","balanceOf(address)":"70a08231","borrow(uint256)":"c5ebeaec","borrowableAssets()":"76636017","borrower()":"7df1f1b9","changeSphereXEngine(address)":"4c6c848f","closeMarket()":"c511ed5e","collectFees()":"c8796572","coverageLiquidity()":"739ccdd3","currentState()":"0c3f6acf","decimals()":"313ce567","delinquencyFeeBips()":"4be687c6","delinquencyGracePeriod()":"514a4cd6","deposit(uint256)":"b6b55f25","depositUpTo(uint256)":"b68ce7a2","executeWithdrawal(address,uint32)":"34bca29c","executeWithdrawals(address[],uint32[])":"74058859","factory()":"c45a0155","feeRecipient()":"46904840","getAccountWithdrawalStatus(address,uint32)":"02372c4f","getAvailableWithdrawalAmount(address,uint32)":"088fee5e","getUnpaidBatchExpiries()":"878eb921","getWithdrawalBatch(uint32)":"dbcd50b4","hooks()":"cd7033c4","isClosed()":"c2b6b58c","maxTotalSupply()":"2ab4d052","maximumDeposit()":"54b302c5","name()":"06fdde03","nukeFromOrbit(address)":"dcd549d4","previousState()":"0c1e3fea","queueFullWithdrawal()":"7243d96c","queueWithdrawal(uint256)":"6b174f35","repay(uint256)":"371fd8e6","repayAndProcessUnpaidWithdrawalBatches(uint256,uint256)":"6731ba6d","rescueTokens(address)":"00ae3bf8","reserveRatioBips()":"d98e0fe8","scaleFactor()":"683dd191","scaledBalanceOf(address)":"1da24f3e","scaledTotalSupply()":"b1bf962d","sentinel()":"f58c251c","setAnnualInterestAndReserveRatioBips(uint16,uint16)":"e5adc635","setMaxTotalSupply(uint256)":"3f3e4c11","setProtocolFeeBips(uint16)":"ae6ea191","sphereXEngine()":"3c231166","sphereXOperator()":"e7e5db4f","symbol()":"95d89b41","totalAssets()":"01e1d114","totalDebts()":"14a1c32d","totalSupply()":"18160ddd","transfer(address,uint256)":"a9059cbb","transferFrom(address,address,uint256)":"23b872dd","updateState()":"1d8557d7","version()":"54fd4d50","withdrawableProtocolFees()":"1e3cef53","withdrawalBatchDuration()":"9e6f9802"},"id":93}