{"abi":[{"type":"constructor","inputs":[{"name":"_deployer","type":"address","internalType":"address"},{"name":"args","type":"bytes","internalType":"bytes"}],"stateMutability":"nonpayable"},{"type":"function","name":"MaximumLoanTerm","inputs":[],"outputs":[{"name":"","type":"uint32","internalType":"uint32"}],"stateMutability":"view"},{"type":"function","name":"addRoleProvider","inputs":[{"name":"providerAddress","type":"address","internalType":"address"},{"name":"timeToLive","type":"uint32","internalType":"uint32"}],"outputs":[],"stateMutability":"nonpayable"},{"type":"function","name":"blockFromDeposits","inputs":[{"name":"account","type":"address","internalType":"address"}],"outputs":[],"stateMutability":"nonpayable"},{"type":"function","name":"blockFromDeposits","inputs":[{"name":"accounts","type":"address[]","internalType":"address[]"}],"outputs":[],"stateMutability":"nonpayable"},{"type":"function","name":"borrower","inputs":[],"outputs":[{"name":"","type":"address","internalType":"address"}],"stateMutability":"view"},{"type":"function","name":"config","inputs":[],"outputs":[{"name":"","type":"uint256","internalType":"HooksDeploymentConfig"}],"stateMutability":"view"},{"type":"function","name":"createRoleProvider","inputs":[{"name":"providerFactory","type":"address","internalType":"address"},{"name":"timeToLive","type":"uint32","internalType":"uint32"},{"name":"data","type":"bytes","internalType":"bytes"}],"outputs":[],"stateMutability":"nonpayable"},{"type":"function","name":"factory","inputs":[],"outputs":[{"name":"","type":"address","internalType":"address"}],"stateMutability":"view"},{"type":"function","name":"getHookedMarket","inputs":[{"name":"marketAddress","type":"address","internalType":"address"}],"outputs":[{"name":"","type":"tuple","internalType":"struct HookedMarket","components":[{"name":"isHooked","type":"bool","internalType":"bool"},{"name":"transferRequiresAccess","type":"bool","internalType":"bool"},{"name":"depositRequiresAccess","type":"bool","internalType":"bool"},{"name":"withdrawalRequiresAccess","type":"bool","internalType":"bool"},{"name":"minimumDeposit","type":"uint128","internalType":"uint128"},{"name":"fixedTermEndTime","type":"uint32","internalType":"uint32"},{"name":"transfersDisabled","type":"bool","internalType":"bool"},{"name":"allowClosureBeforeTerm","type":"bool","internalType":"bool"},{"name":"allowTermReduction","type":"bool","internalType":"bool"}]}],"stateMutability":"view"},{"type":"function","name":"getHookedMarkets","inputs":[{"name":"marketAddresses","type":"address[]","internalType":"address[]"}],"outputs":[{"name":"hookedMarkets","type":"tuple[]","internalType":"struct HookedMarket[]","components":[{"name":"isHooked","type":"bool","internalType":"bool"},{"name":"transferRequiresAccess","type":"bool","internalType":"bool"},{"name":"depositRequiresAccess","type":"bool","internalType":"bool"},{"name":"withdrawalRequiresAccess","type":"bool","internalType":"bool"},{"name":"minimumDeposit","type":"uint128","internalType":"uint128"},{"name":"fixedTermEndTime","type":"uint32","internalType":"uint32"},{"name":"transfersDisabled","type":"bool","internalType":"bool"},{"name":"allowClosureBeforeTerm","type":"bool","internalType":"bool"},{"name":"allowTermReduction","type":"bool","internalType":"bool"}]}],"stateMutability":"view"},{"type":"function","name":"getLenderStatus","inputs":[{"name":"accountAddress","type":"address","internalType":"address"}],"outputs":[{"name":"status","type":"tuple","internalType":"struct LenderStatus","components":[{"name":"isBlockedFromDeposits","type":"bool","internalType":"bool"},{"name":"lastProvider","type":"address","internalType":"address"},{"name":"canRefresh","type":"bool","internalType":"bool"},{"name":"lastApprovalTimestamp","type":"uint32","internalType":"uint32"}]}],"stateMutability":"view"},{"type":"function","name":"getParameterConstraints","inputs":[],"outputs":[{"name":"constraints","type":"tuple","internalType":"struct MarketParameterConstraints","components":[{"name":"minimumDelinquencyGracePeriod","type":"uint32","internalType":"uint32"},{"name":"maximumDelinquencyGracePeriod","type":"uint32","internalType":"uint32"},{"name":"minimumReserveRatioBips","type":"uint16","internalType":"uint16"},{"name":"maximumReserveRatioBips","type":"uint16","internalType":"uint16"},{"name":"minimumDelinquencyFeeBips","type":"uint16","internalType":"uint16"},{"name":"maximumDelinquencyFeeBips","type":"uint16","internalType":"uint16"},{"name":"minimumWithdrawalBatchDuration","type":"uint32","internalType":"uint32"},{"name":"maximumWithdrawalBatchDuration","type":"uint32","internalType":"uint32"},{"name":"minimumAnnualInterestBips","type":"uint16","internalType":"uint16"},{"name":"maximumAnnualInterestBips","type":"uint16","internalType":"uint16"}]}],"stateMutability":"pure"},{"type":"function","name":"getPreviousLenderStatus","inputs":[{"name":"accountAddress","type":"address","internalType":"address"}],"outputs":[{"name":"status","type":"tuple","internalType":"struct LenderStatus","components":[{"name":"isBlockedFromDeposits","type":"bool","internalType":"bool"},{"name":"lastProvider","type":"address","internalType":"address"},{"name":"canRefresh","type":"bool","internalType":"bool"},{"name":"lastApprovalTimestamp","type":"uint32","internalType":"uint32"}]}],"stateMutability":"view"},{"type":"function","name":"getPullProviders","inputs":[],"outputs":[{"name":"","type":"uint256[]","internalType":"RoleProvider[]"}],"stateMutability":"view"},{"type":"function","name":"getPushProviders","inputs":[],"outputs":[{"name":"","type":"uint256[]","internalType":"RoleProvider[]"}],"stateMutability":"view"},{"type":"function","name":"getRoleProvider","inputs":[{"name":"providerAddress","type":"address","internalType":"address"}],"outputs":[{"name":"","type":"uint256","internalType":"RoleProvider"}],"stateMutability":"view"},{"type":"function","name":"grantRole","inputs":[{"name":"account","type":"address","internalType":"address"},{"name":"roleGrantedTimestamp","type":"uint32","internalType":"uint32"}],"outputs":[],"stateMutability":"nonpayable"},{"type":"function","name":"grantRoles","inputs":[{"name":"accounts","type":"address[]","internalType":"address[]"},{"name":"roleGrantedTimestamps","type":"uint32[]","internalType":"uint32[]"}],"outputs":[],"stateMutability":"nonpayable"},{"type":"function","name":"isKnownLenderOnMarket","inputs":[{"name":"lender","type":"address","internalType":"address"},{"name":"market","type":"address","internalType":"address"}],"outputs":[{"name":"","type":"bool","internalType":"bool"}],"stateMutability":"view"},{"type":"function","name":"name","inputs":[],"outputs":[{"name":"","type":"string","internalType":"string"}],"stateMutability":"view"},{"type":"function","name":"onBorrow","inputs":[{"name":"","type":"uint256","internalType":"uint256"},{"name":"","type":"tuple","internalType":"struct MarketState","components":[{"name":"isClosed","type":"bool","internalType":"bool"},{"name":"maxTotalSupply","type":"uint128","internalType":"uint128"},{"name":"accruedProtocolFees","type":"uint128","internalType":"uint128"},{"name":"normalizedUnclaimedWithdrawals","type":"uint128","internalType":"uint128"},{"name":"scaledTotalSupply","type":"uint104","internalType":"uint104"},{"name":"scaledPendingWithdrawals","type":"uint104","internalType":"uint104"},{"name":"pendingWithdrawalExpiry","type":"uint32","internalType":"uint32"},{"name":"isDelinquent","type":"bool","internalType":"bool"},{"name":"timeDelinquent","type":"uint32","internalType":"uint32"},{"name":"protocolFeeBips","type":"uint16","internalType":"uint16"},{"name":"annualInterestBips","type":"uint16","internalType":"uint16"},{"name":"reserveRatioBips","type":"uint16","internalType":"uint16"},{"name":"scaleFactor","type":"uint112","internalType":"uint112"},{"name":"lastInterestAccruedTimestamp","type":"uint32","internalType":"uint32"}]},{"name":"","type":"bytes","internalType":"bytes"}],"outputs":[],"stateMutability":"nonpayable"},{"type":"function","name":"onCloseMarket","inputs":[{"name":"","type":"tuple","internalType":"struct MarketState","components":[{"name":"isClosed","type":"bool","internalType":"bool"},{"name":"maxTotalSupply","type":"uint128","internalType":"uint128"},{"name":"accruedProtocolFees","type":"uint128","internalType":"uint128"},{"name":"normalizedUnclaimedWithdrawals","type":"uint128","internalType":"uint128"},{"name":"scaledTotalSupply","type":"uint104","internalType":"uint104"},{"name":"scaledPendingWithdrawals","type":"uint104","internalType":"uint104"},{"name":"pendingWithdrawalExpiry","type":"uint32","internalType":"uint32"},{"name":"isDelinquent","type":"bool","internalType":"bool"},{"name":"timeDelinquent","type":"uint32","internalType":"uint32"},{"name":"protocolFeeBips","type":"uint16","internalType":"uint16"},{"name":"annualInterestBips","type":"uint16","internalType":"uint16"},{"name":"reserveRatioBips","type":"uint16","internalType":"uint16"},{"name":"scaleFactor","type":"uint112","internalType":"uint112"},{"name":"lastInterestAccruedTimestamp","type":"uint32","internalType":"uint32"}]},{"name":"","type":"bytes","internalType":"bytes"}],"outputs":[],"stateMutability":"nonpayable"},{"type":"function","name":"onCreateMarket","inputs":[{"name":"deployer","type":"address","internalType":"address"},{"name":"marketAddress","type":"address","internalType":"address"},{"name":"parameters","type":"tuple","internalType":"struct DeployMarketInputs","components":[{"name":"asset","type":"address","internalType":"address"},{"name":"namePrefix","type":"string","internalType":"string"},{"name":"symbolPrefix","type":"string","internalType":"string"},{"name":"maxTotalSupply","type":"uint128","internalType":"uint128"},{"name":"annualInterestBips","type":"uint16","internalType":"uint16"},{"name":"delinquencyFeeBips","type":"uint16","internalType":"uint16"},{"name":"withdrawalBatchDuration","type":"uint32","internalType":"uint32"},{"name":"reserveRatioBips","type":"uint16","internalType":"uint16"},{"name":"delinquencyGracePeriod","type":"uint32","internalType":"uint32"},{"name":"hooks","type":"uint256","internalType":"HooksConfig"}]},{"name":"extraData","type":"bytes","internalType":"bytes"}],"outputs":[{"name":"","type":"uint256","internalType":"HooksConfig"}],"stateMutability":"nonpayable"},{"type":"function","name":"onDeposit","inputs":[{"name":"lender","type":"address","internalType":"address"},{"name":"scaledAmount","type":"uint256","internalType":"uint256"},{"name":"state","type":"tuple","internalType":"struct MarketState","components":[{"name":"isClosed","type":"bool","internalType":"bool"},{"name":"maxTotalSupply","type":"uint128","internalType":"uint128"},{"name":"accruedProtocolFees","type":"uint128","internalType":"uint128"},{"name":"normalizedUnclaimedWithdrawals","type":"uint128","internalType":"uint128"},{"name":"scaledTotalSupply","type":"uint104","internalType":"uint104"},{"name":"scaledPendingWithdrawals","type":"uint104","internalType":"uint104"},{"name":"pendingWithdrawalExpiry","type":"uint32","internalType":"uint32"},{"name":"isDelinquent","type":"bool","internalType":"bool"},{"name":"timeDelinquent","type":"uint32","internalType":"uint32"},{"name":"protocolFeeBips","type":"uint16","internalType":"uint16"},{"name":"annualInterestBips","type":"uint16","internalType":"uint16"},{"name":"reserveRatioBips","type":"uint16","internalType":"uint16"},{"name":"scaleFactor","type":"uint112","internalType":"uint112"},{"name":"lastInterestAccruedTimestamp","type":"uint32","internalType":"uint32"}]},{"name":"hooksData","type":"bytes","internalType":"bytes"}],"outputs":[],"stateMutability":"nonpayable"},{"type":"function","name":"onExecuteWithdrawal","inputs":[{"name":"lender","type":"address","internalType":"address"},{"name":"","type":"uint128","internalType":"uint128"},{"name":"","type":"tuple","internalType":"struct MarketState","components":[{"name":"isClosed","type":"bool","internalType":"bool"},{"name":"maxTotalSupply","type":"uint128","internalType":"uint128"},{"name":"accruedProtocolFees","type":"uint128","internalType":"uint128"},{"name":"normalizedUnclaimedWithdrawals","type":"uint128","internalType":"uint128"},{"name":"scaledTotalSupply","type":"uint104","internalType":"uint104"},{"name":"scaledPendingWithdrawals","type":"uint104","internalType":"uint104"},{"name":"pendingWithdrawalExpiry","type":"uint32","internalType":"uint32"},{"name":"isDelinquent","type":"bool","internalType":"bool"},{"name":"timeDelinquent","type":"uint32","internalType":"uint32"},{"name":"protocolFeeBips","type":"uint16","internalType":"uint16"},{"name":"annualInterestBips","type":"uint16","internalType":"uint16"},{"name":"reserveRatioBips","type":"uint16","internalType":"uint16"},{"name":"scaleFactor","type":"uint112","internalType":"uint112"},{"name":"lastInterestAccruedTimestamp","type":"uint32","internalType":"uint32"}]},{"name":"hooksData","type":"bytes","internalType":"bytes"}],"outputs":[],"stateMutability":"nonpayable"},{"type":"function","name":"onNukeFromOrbit","inputs":[{"name":"","type":"address","internalType":"address"},{"name":"","type":"tuple","internalType":"struct MarketState","components":[{"name":"isClosed","type":"bool","internalType":"bool"},{"name":"maxTotalSupply","type":"uint128","internalType":"uint128"},{"name":"accruedProtocolFees","type":"uint128","internalType":"uint128"},{"name":"normalizedUnclaimedWithdrawals","type":"uint128","internalType":"uint128"},{"name":"scaledTotalSupply","type":"uint104","internalType":"uint104"},{"name":"scaledPendingWithdrawals","type":"uint104","internalType":"uint104"},{"name":"pendingWithdrawalExpiry","type":"uint32","internalType":"uint32"},{"name":"isDelinquent","type":"bool","internalType":"bool"},{"name":"timeDelinquent","type":"uint32","internalType":"uint32"},{"name":"protocolFeeBips","type":"uint16","internalType":"uint16"},{"name":"annualInterestBips","type":"uint16","internalType":"uint16"},{"name":"reserveRatioBips","type":"uint16","internalType":"uint16"},{"name":"scaleFactor","type":"uint112","internalType":"uint112"},{"name":"lastInterestAccruedTimestamp","type":"uint32","internalType":"uint32"}]},{"name":"","type":"bytes","internalType":"bytes"}],"outputs":[],"stateMutability":"nonpayable"},{"type":"function","name":"onQueueWithdrawal","inputs":[{"name":"lender","type":"address","internalType":"address"},{"name":"","type":"uint32","internalType":"uint32"},{"name":"","type":"uint256","internalType":"uint256"},{"name":"","type":"tuple","internalType":"struct MarketState","components":[{"name":"isClosed","type":"bool","internalType":"bool"},{"name":"maxTotalSupply","type":"uint128","internalType":"uint128"},{"name":"accruedProtocolFees","type":"uint128","internalType":"uint128"},{"name":"normalizedUnclaimedWithdrawals","type":"uint128","internalType":"uint128"},{"name":"scaledTotalSupply","type":"uint104","internalType":"uint104"},{"name":"scaledPendingWithdrawals","type":"uint104","internalType":"uint104"},{"name":"pendingWithdrawalExpiry","type":"uint32","internalType":"uint32"},{"name":"isDelinquent","type":"bool","internalType":"bool"},{"name":"timeDelinquent","type":"uint32","internalType":"uint32"},{"name":"protocolFeeBips","type":"uint16","internalType":"uint16"},{"name":"annualInterestBips","type":"uint16","internalType":"uint16"},{"name":"reserveRatioBips","type":"uint16","internalType":"uint16"},{"name":"scaleFactor","type":"uint112","internalType":"uint112"},{"name":"lastInterestAccruedTimestamp","type":"uint32","internalType":"uint32"}]},{"name":"hooksData","type":"bytes","internalType":"bytes"}],"outputs":[],"stateMutability":"nonpayable"},{"type":"function","name":"onRepay","inputs":[{"name":"normalizedAmount","type":"uint256","internalType":"uint256"},{"name":"state","type":"tuple","internalType":"struct MarketState","components":[{"name":"isClosed","type":"bool","internalType":"bool"},{"name":"maxTotalSupply","type":"uint128","internalType":"uint128"},{"name":"accruedProtocolFees","type":"uint128","internalType":"uint128"},{"name":"normalizedUnclaimedWithdrawals","type":"uint128","internalType":"uint128"},{"name":"scaledTotalSupply","type":"uint104","internalType":"uint104"},{"name":"scaledPendingWithdrawals","type":"uint104","internalType":"uint104"},{"name":"pendingWithdrawalExpiry","type":"uint32","internalType":"uint32"},{"name":"isDelinquent","type":"bool","internalType":"bool"},{"name":"timeDelinquent","type":"uint32","internalType":"uint32"},{"name":"protocolFeeBips","type":"uint16","internalType":"uint16"},{"name":"annualInterestBips","type":"uint16","internalType":"uint16"},{"name":"reserveRatioBips","type":"uint16","internalType":"uint16"},{"name":"scaleFactor","type":"uint112","internalType":"uint112"},{"name":"lastInterestAccruedTimestamp","type":"uint32","internalType":"uint32"}]},{"name":"hooksData","type":"bytes","internalType":"bytes"}],"outputs":[],"stateMutability":"nonpayable"},{"type":"function","name":"onSetAnnualInterestAndReserveRatioBips","inputs":[{"name":"annualInterestBips","type":"uint16","internalType":"uint16"},{"name":"reserveRatioBips","type":"uint16","internalType":"uint16"},{"name":"intermediateState","type":"tuple","internalType":"struct MarketState","components":[{"name":"isClosed","type":"bool","internalType":"bool"},{"name":"maxTotalSupply","type":"uint128","internalType":"uint128"},{"name":"accruedProtocolFees","type":"uint128","internalType":"uint128"},{"name":"normalizedUnclaimedWithdrawals","type":"uint128","internalType":"uint128"},{"name":"scaledTotalSupply","type":"uint104","internalType":"uint104"},{"name":"scaledPendingWithdrawals","type":"uint104","internalType":"uint104"},{"name":"pendingWithdrawalExpiry","type":"uint32","internalType":"uint32"},{"name":"isDelinquent","type":"bool","internalType":"bool"},{"name":"timeDelinquent","type":"uint32","internalType":"uint32"},{"name":"protocolFeeBips","type":"uint16","internalType":"uint16"},{"name":"annualInterestBips","type":"uint16","internalType":"uint16"},{"name":"reserveRatioBips","type":"uint16","internalType":"uint16"},{"name":"scaleFactor","type":"uint112","internalType":"uint112"},{"name":"lastInterestAccruedTimestamp","type":"uint32","internalType":"uint32"}]},{"name":"hooksData","type":"bytes","internalType":"bytes"}],"outputs":[{"name":"updatedAnnualInterestBips","type":"uint16","internalType":"uint16"},{"name":"updatedReserveRatioBips","type":"uint16","internalType":"uint16"}],"stateMutability":"nonpayable"},{"type":"function","name":"onSetMaxTotalSupply","inputs":[{"name":"","type":"uint256","internalType":"uint256"},{"name":"","type":"tuple","internalType":"struct MarketState","components":[{"name":"isClosed","type":"bool","internalType":"bool"},{"name":"maxTotalSupply","type":"uint128","internalType":"uint128"},{"name":"accruedProtocolFees","type":"uint128","internalType":"uint128"},{"name":"normalizedUnclaimedWithdrawals","type":"uint128","internalType":"uint128"},{"name":"scaledTotalSupply","type":"uint104","internalType":"uint104"},{"name":"scaledPendingWithdrawals","type":"uint104","internalType":"uint104"},{"name":"pendingWithdrawalExpiry","type":"uint32","internalType":"uint32"},{"name":"isDelinquent","type":"bool","internalType":"bool"},{"name":"timeDelinquent","type":"uint32","internalType":"uint32"},{"name":"protocolFeeBips","type":"uint16","internalType":"uint16"},{"name":"annualInterestBips","type":"uint16","internalType":"uint16"},{"name":"reserveRatioBips","type":"uint16","internalType":"uint16"},{"name":"scaleFactor","type":"uint112","internalType":"uint112"},{"name":"lastInterestAccruedTimestamp","type":"uint32","internalType":"uint32"}]},{"name":"","type":"bytes","internalType":"bytes"}],"outputs":[],"stateMutability":"nonpayable"},{"type":"function","name":"onSetProtocolFeeBips","inputs":[{"name":"","type":"uint16","internalType":"uint16"},{"name":"","type":"tuple","internalType":"struct MarketState","components":[{"name":"isClosed","type":"bool","internalType":"bool"},{"name":"maxTotalSupply","type":"uint128","internalType":"uint128"},{"name":"accruedProtocolFees","type":"uint128","internalType":"uint128"},{"name":"normalizedUnclaimedWithdrawals","type":"uint128","internalType":"uint128"},{"name":"scaledTotalSupply","type":"uint104","internalType":"uint104"},{"name":"scaledPendingWithdrawals","type":"uint104","internalType":"uint104"},{"name":"pendingWithdrawalExpiry","type":"uint32","internalType":"uint32"},{"name":"isDelinquent","type":"bool","internalType":"bool"},{"name":"timeDelinquent","type":"uint32","internalType":"uint32"},{"name":"protocolFeeBips","type":"uint16","internalType":"uint16"},{"name":"annualInterestBips","type":"uint16","internalType":"uint16"},{"name":"reserveRatioBips","type":"uint16","internalType":"uint16"},{"name":"scaleFactor","type":"uint112","internalType":"uint112"},{"name":"lastInterestAccruedTimestamp","type":"uint32","internalType":"uint32"}]},{"name":"","type":"bytes","internalType":"bytes"}],"outputs":[],"stateMutability":"nonpayable"},{"type":"function","name":"onTransfer","inputs":[{"name":"","type":"address","internalType":"address"},{"name":"","type":"address","internalType":"address"},{"name":"to","type":"address","internalType":"address"},{"name":"","type":"uint256","internalType":"uint256"},{"name":"","type":"tuple","internalType":"struct MarketState","components":[{"name":"isClosed","type":"bool","internalType":"bool"},{"name":"maxTotalSupply","type":"uint128","internalType":"uint128"},{"name":"accruedProtocolFees","type":"uint128","internalType":"uint128"},{"name":"normalizedUnclaimedWithdrawals","type":"uint128","internalType":"uint128"},{"name":"scaledTotalSupply","type":"uint104","internalType":"uint104"},{"name":"scaledPendingWithdrawals","type":"uint104","internalType":"uint104"},{"name":"pendingWithdrawalExpiry","type":"uint32","internalType":"uint32"},{"name":"isDelinquent","type":"bool","internalType":"bool"},{"name":"timeDelinquent","type":"uint32","internalType":"uint32"},{"name":"protocolFeeBips","type":"uint16","internalType":"uint16"},{"name":"annualInterestBips","type":"uint16","internalType":"uint16"},{"name":"reserveRatioBips","type":"uint16","internalType":"uint16"},{"name":"scaleFactor","type":"uint112","internalType":"uint112"},{"name":"lastInterestAccruedTimestamp","type":"uint32","internalType":"uint32"}]},{"name":"extraData","type":"bytes","internalType":"bytes"}],"outputs":[],"stateMutability":"nonpayable"},{"type":"function","name":"removeRoleProvider","inputs":[{"name":"providerAddress","type":"address","internalType":"address"}],"outputs":[],"stateMutability":"nonpayable"},{"type":"function","name":"revokeRole","inputs":[{"name":"account","type":"address","internalType":"address"}],"outputs":[],"stateMutability":"nonpayable"},{"type":"function","name":"revokeRoles","inputs":[{"name":"accounts","type":"address[]","internalType":"address[]"}],"outputs":[],"stateMutability":"nonpayable"},{"type":"function","name":"setFixedTermEndTime","inputs":[{"name":"market","type":"address","internalType":"address"},{"name":"newFixedTermEndTime","type":"uint32","internalType":"uint32"}],"outputs":[],"stateMutability":"nonpayable"},{"type":"function","name":"setMinimumDeposit","inputs":[{"name":"market","type":"address","internalType":"address"},{"name":"newMinimumDeposit","type":"uint128","internalType":"uint128"}],"outputs":[],"stateMutability":"nonpayable"},{"type":"function","name":"setName","inputs":[{"name":"_name","type":"string","internalType":"string"}],"outputs":[],"stateMutability":"nonpayable"},{"type":"function","name":"temporaryExcessReserveRatio","inputs":[{"name":"","type":"address","internalType":"address"}],"outputs":[{"name":"originalAnnualInterestBips","type":"uint16","internalType":"uint16"},{"name":"originalReserveRatioBips","type":"uint16","internalType":"uint16"},{"name":"expiry","type":"uint32","internalType":"uint32"}],"stateMutability":"view"},{"type":"function","name":"unblockFromDeposits","inputs":[{"name":"account","type":"address","internalType":"address"}],"outputs":[],"stateMutability":"nonpayable"},{"type":"function","name":"version","inputs":[],"outputs":[{"name":"","type":"string","internalType":"string"}],"stateMutability":"pure"},{"type":"event","name":"AccountAccessGranted","inputs":[{"name":"providerAddress","type":"address","indexed":true,"internalType":"address"},{"name":"accountAddress","type":"address","indexed":true,"internalType":"address"},{"name":"credentialTimestamp","type":"uint32","indexed":false,"internalType":"uint32"}],"anonymous":false},{"type":"event","name":"AccountAccessRevoked","inputs":[{"name":"accountAddress","type":"address","indexed":true,"internalType":"address"}],"anonymous":false},{"type":"event","name":"AccountBlockedFromDeposits","inputs":[{"name":"accountAddress","type":"address","indexed":true,"internalType":"address"}],"anonymous":false},{"type":"event","name":"AccountMadeFirstDeposit","inputs":[{"name":"market","type":"address","indexed":true,"internalType":"address"},{"name":"accountAddress","type":"address","indexed":true,"internalType":"address"}],"anonymous":false},{"type":"event","name":"AccountUnblockedFromDeposits","inputs":[{"name":"accountAddress","type":"address","indexed":true,"internalType":"address"}],"anonymous":false},{"type":"event","name":"FixedTermUpdated","inputs":[{"name":"market","type":"address","indexed":false,"internalType":"address"},{"name":"fixedTermEndTime","type":"uint32","indexed":false,"internalType":"uint32"}],"anonymous":false},{"type":"event","name":"MinimumDepositUpdated","inputs":[{"name":"market","type":"address","indexed":false,"internalType":"address"},{"name":"newMinimumDeposit","type":"uint128","indexed":false,"internalType":"uint128"}],"anonymous":false},{"type":"event","name":"NameUpdated","inputs":[{"name":"name","type":"string","indexed":false,"internalType":"string"}],"anonymous":false},{"type":"event","name":"RoleProviderAdded","inputs":[{"name":"providerAddress","type":"address","indexed":true,"internalType":"address"},{"name":"timeToLive","type":"uint32","indexed":false,"internalType":"uint32"},{"name":"pullProviderIndex","type":"uint24","indexed":false,"internalType":"uint24"},{"name":"pushProviderIndex","type":"uint24","indexed":false,"internalType":"uint24"}],"anonymous":false},{"type":"event","name":"RoleProviderRemoved","inputs":[{"name":"providerAddress","type":"address","indexed":true,"internalType":"address"},{"name":"pullProviderIndex","type":"uint24","indexed":false,"internalType":"uint24"},{"name":"pushProviderIndex","type":"uint24","indexed":false,"internalType":"uint24"}],"anonymous":false},{"type":"event","name":"RoleProviderUpdated","inputs":[{"name":"providerAddress","type":"address","indexed":true,"internalType":"address"},{"name":"timeToLive","type":"uint32","indexed":false,"internalType":"uint32"},{"name":"pullProviderIndex","type":"uint24","indexed":false,"internalType":"uint24"},{"name":"pushProviderIndex","type":"uint24","indexed":false,"internalType":"uint24"}],"anonymous":false},{"type":"event","name":"TemporaryExcessReserveRatioActivated","inputs":[{"name":"market","type":"address","indexed":true,"internalType":"address"},{"name":"originalReserveRatioBips","type":"uint256","indexed":false,"internalType":"uint256"},{"name":"temporaryReserveRatioBips","type":"uint256","indexed":false,"internalType":"uint256"},{"name":"temporaryReserveRatioExpiry","type":"uint256","indexed":false,"internalType":"uint256"}],"anonymous":false},{"type":"event","name":"TemporaryExcessReserveRatioCanceled","inputs":[{"name":"market","type":"address","indexed":true,"internalType":"address"}],"anonymous":false},{"type":"event","name":"TemporaryExcessReserveRatioExpired","inputs":[{"name":"market","type":"address","indexed":true,"internalType":"address"}],"anonymous":false},{"type":"event","name":"TemporaryExcessReserveRatioUpdated","inputs":[{"name":"market","type":"address","indexed":true,"internalType":"address"},{"name":"originalReserveRatioBips","type":"uint256","indexed":false,"internalType":"uint256"},{"name":"temporaryReserveRatioBips","type":"uint256","indexed":false,"internalType":"uint256"},{"name":"temporaryReserveRatioExpiry","type":"uint256","indexed":false,"internalType":"uint256"}],"anonymous":false},{"type":"error","name":"AnnualInterestBipsOutOfBounds","inputs":[]},{"type":"error","name":"CallerNotBorrower","inputs":[]},{"type":"error","name":"CallerNotFactory","inputs":[]},{"type":"error","name":"ClosureDisabledBeforeTerm","inputs":[]},{"type":"error","name":"CreateRoleProviderFailed","inputs":[]},{"type":"error","name":"DelinquencyFeeBipsOutOfBounds","inputs":[]},{"type":"error","name":"DelinquencyGracePeriodOutOfBounds","inputs":[]},{"type":"error","name":"DepositBelowMinimum","inputs":[]},{"type":"error","name":"FixedTermNotProvided","inputs":[]},{"type":"error","name":"GrantedCredentialExpired","inputs":[]},{"type":"error","name":"IncreaseFixedTerm","inputs":[]},{"type":"error","name":"InvalidArrayLength","inputs":[]},{"type":"error","name":"InvalidCredentialReturned","inputs":[]},{"type":"error","name":"InvalidFixedTerm","inputs":[]},{"type":"error","name":"NoReducingAprBeforeTermEnd","inputs":[]},{"type":"error","name":"NotApprovedLender","inputs":[]},{"type":"error","name":"NotHookedMarket","inputs":[]},{"type":"error","name":"ProviderCanNotReplaceCredential","inputs":[]},{"type":"error","name":"ProviderCanNotRevokeCredential","inputs":[]},{"type":"error","name":"ProviderNotFound","inputs":[]},{"type":"error","name":"ReserveRatioBipsOutOfBounds","inputs":[]},{"type":"error","name":"TermReductionDisabled","inputs":[]},{"type":"error","name":"TransfersDisabled","inputs":[]},{"type":"error","name":"WithdrawBeforeTermEnd","inputs":[]},{"type":"error","name":"WithdrawalBatchDurationOutOfBounds","inputs":[]}],"bytecode":{"object":"0x60e0604090808252346103bc57614737803803809161001e82856105d3565b833981019082818303126103bc57610035816105f6565b6020828101516001600160401b0394919391908581116103bc57610059920161064f565b918160805261008f67ffffff0000000001600160e01b031983871b1760018060a01b038094165f526005835280875f2055610694565b3360a052634240900060c052825180610120575b8551613dca908161092d82396080518181816103250152818161077f0152818161092f01528181610ed8015281816111ef0152818161129d0152818161141601528181611aaa01528181611ce60152818161205d01526122bb015260a051818181611c710152612287015260c05181818161126501526124340152f35b83018181019382818303126103bc5782810151908682116103bc5701936080858303126103bc5786516080810181811088821117610500578852838601518781116103bc57860182603f820112156103bc5782818a87610183940151910161060a565b81526101908887016105f6565b9184820192835260609660608101518981116103bc57810182603f820112156103bc57868101516101c08161066c565b996101cd8d519b8c6105d3565b818b528c898c019260051b840101928584116103bc578c8e8201935b858510610555575050505050508983019788526080810151908982116103bc570181603f820112156103bc5785810151906102238261066c565b956102308c5197886105d3565b8287528b8888019360061b8301019384116103bc5791908b01915b838310610514575050505060608101928352518051968711610500575f54926001978885811c951680156104f6575b868610146104e2578892601f95601f8111610493575b508690601f831160011461042d575f919083610422575b50505f19600383901b1c191690831b175f55859291905b5f825b6103d7575b505050511692836102d8575b506100a3565b5f969594855b6102ec575b508596506102d2565b805180518910156103d15788610301916106f4565b51978463ffffffff8a51169901518851906314f22bb960e11b8252868260049282848301528181518060248301528085604494018484015e5f8382840101528a601f1991011681010301815f8c5af19182156103c7575f9261038c575b508482161561037e57509061037688999a8993610708565b0197966102de565b895163228e729160e01b8152fd5b9091508681813d83116103c0575b6103a481836105d3565b810103126103bc576103b5906105f6565b905f61035e565b5f80fd5b503d61039a565b8a513d5f823e3d90fd5b506102e3565b9080929394505187815183101561041957509061040d6103f88286946106f4565b5163ffffffff898b8351169201511690610708565b019082918794936102c1565b949392506102c6565b015190505f806102a7565b90601f198316915f8052885f20925f5b8a82821061047d5750509084879594939210610465575b505050811b015f55908592916102be565b01515f1960f88460031b161c191690555f8080610454565b8385015186558e9890950194938401930161043d565b90919293505f8052865f20601f840160051c8101918885106104d8575b90601f8c96959493920160051c01905b8181106104cd5750610290565b5f81558b95016104c0565b90915081906104b0565b634e487b7160e01b5f52602260045260245ffd5b94607f169461027a565b634e487b7160e01b5f52604160045260245ffd5b8b8884830301126103bc578b888193825161052e816105b8565b610537876105f6565b8152610544838801610683565b83820152815201930192915061024b565b84519182116103bc578f91830191601f19838d0301126103bc578f908f82519061057e826105b8565b610589848601610683565b8252868501519081116103bc578a8f95946105a7928796010161064f565b838201528152019301928d906101e9565b604081019081106001600160401b0382111761050057604052565b601f909101601f19168101906001600160401b0382119082101761050057604052565b51906001600160a01b03821682036103bc57565b9192916001600160401b0382116105005760405191610633601f8201601f1916602001846105d3565b8294818452818301116103bc578281602093845f96015e010152565b9080601f830112156103bc5781516106699260200161060a565b90565b6001600160401b0381116105005760051b60200190565b519063ffffffff821682036103bc57565b600454680100000000000000008110156105005760018101806004558110156106e05760045f527f8a35acfbc15ff81a39ae7d344fd709f28e8600b4aa8c65c6b64bfe7fe36bd19b0155565b634e487b7160e01b5f52603260045260245ffd5b80518210156106e05760209160051b010190565b9060018060a01b03821690815f52602060058152604092835f205480155f1461086f5750835163256909f160e01b8152948286600481855afa958615610865575f9661082d575b50851561081d5760035462ffffff908116915b8160101b8360281b1790871b8660e01b1717965f146107f85760035491680100000000000000008310156105005760018301806003558310156106e0576005956107ec5f805160206146f7833981519152938a879660035f52895f2001555b89519384938491604091949363ffffffff606085019616845262ffffff809216602085015216910152565b0390a25b5f52525f2055565b82916005956107ec5f805160206146f7833981519152936108188b610694565b6107c1565b62ffffff90816004541690610762565b9095508281813d831161085e575b61084581836105d3565b810103126103bc575180151581036103bc57945f61074f565b503d61083b565b85513d5f823e3d90fd5b6001600160e01b031660e084901b179450602885901c62ffffff9081169390601087901c81169085146108fb576003548510156106e05760059483926108f35f805160206147178339815191529360035f528a84895f20015589519384938491604091949363ffffffff606085019616845262ffffff809216602085015216910152565b0390a26107f0565b6004548110156106e05760059483926108f35f805160206147178339815191529360045f528a81895f2001556107c156fe60806040526004361015610011575f80fd5b5f3560e01c806302420e7f1461029a57806303473d8d14610295578063064ed53b1461029057806306fdde031461028b5780631c4b36941461028657806322a4a19f1461028157806328fd03071461027c5780632970403d146102775780632ccf4667146102725780633521cccc1461026d57806336c892141461026857806354fd4d50146102635780635aeb713f1461025e5780636b2b369b146102595780636d1587a61461025457806379502c551461024f5780637df1f1b91461024a57806380e52e3f1461024557806383d9e1eb14610209578063849da1291461020957806387927767146102405780638adfe0f81461023b5780638b3ce9b3146102365780638f8ef419146102315780639d2a76fe1461022c5780639ecc64e614610227578063a018f90e14610222578063a11ef0671461021d578063a9ff2dbf14610218578063aa94868914610213578063b037096d1461020e578063b1cfda0d14610209578063bfd269be14610204578063c45a0155146101ff578063c47f0027146101fa578063c888fb15146101f5578063cc452642146101f0578063e5ef8405146101eb578063ea5b13bd146101e6578063f040ed98146101e15763feb368e2146101dc575f80fd5b6120b2565b612094565b61204d565b612012565b611f4b565b611e8b565b611ca0565b611c5c565b611c21565b6112f1565b611b62565b611a83565b611a1f565b611990565b6117c2565b6116ab565b6115ff565b611519565b6114cf565b6113ef565b61136b565b6112cc565b611288565b61124e565b6111de565b611155565b610ff7565b610f97565b610e74565b610cd2565b610bfa565b610b1a565b610a4c565b6109e1565b610900565b610823565b610760565b610653565b610315565b6001600160a01b038116036102b057565b5f80fd5b63ffffffff8116036102b057565b60e435906102cf826102b4565b565b61012435906102cf826102b4565b6101c435906102cf826102b4565b60409060031901126102b0576004356103058161029f565b90602435610312816102b4565b90565b346102b057610323366102ed565b7f00000000000000000000000000000000000000000000000000000000000000006001600160a01b03163303610450576001600160a01b0382165f90815260076020526040902091825460ff81161561043e5760ff8160d01c161580610428575b6104165763ffffffff809160a01c169083161161040457825463ffffffff60a01b191660a083901b63ffffffff60a01b16179092557f8fcb9a8dc61c986e7488a736bc8edc39e7f8b2bea37fdf7aa56cf142c5fe04b791604080516001600160a01b03909216825263ffffffff909216602082015290819081015b0390a1005b604051634d92d62d60e11b8152600490fd5b604051630250f71960e11b8152600490fd5b5063ffffffff808260a01c169084161115610384565b60405163b217907b60e01b8152600490fd5b604051633c698d7960e01b8152600490fd5b61ffff8116036102b057565b61014435906102cf82610462565b61016435906102cf82610462565b61018435906102cf82610462565b634e487b7160e01b5f52604160045260245ffd5b61012081019081106001600160401b038211176104c857604052565b610498565b61014081019081106001600160401b038211176104c857604052565b608081019081106001600160401b038211176104c857604052565b90601f801991011681019081106001600160401b038211176104c857604052565b604051906101c082018281106001600160401b038211176104c857604052565b604051906102cf826104ac565b801515036102b057565b602435906102cf82610552565b61010435906102cf82610552565b604435906001600160801b03821682036102b057565b606435906001600160801b03821682036102b057565b608435906001600160801b03821682036102b057565b602435906001600160801b03821682036102b057565b60a435906cffffffffffffffffffffffffff821682036102b057565b60c435906cffffffffffffffffffffffffff821682036102b057565b6001600160701b038116036102b057565b6101a435906102cf82610607565b9181601f840112156102b0578235916001600160401b0383116102b057602083818601950101116102b057565b346102b0576102003660031901126102b057610670600435610462565b6101c03660231901126102b057610685610525565b61068d61055c565b8152610697610577565b60208201526106a461058d565b60408201526106b16105a3565b60608201526106be6105cf565b60808201526106cb6105eb565b60a08201526106d86102c2565b60c08201526106e5610569565b60e08201526106f26102d1565b61010082015261070061046e565b61012082015261070e61047c565b61014082015261071c61048a565b61016082015261072a610618565b6101808201526101a061073b6102df565b9101526101e4356001600160401b0381116102b05761075e903690600401610626565b005b346102b05760203660031901126102b05760043561077d8161029f565b7f00000000000000000000000000000000000000000000000000000000000000006001600160a01b031633036104505761075e906127f4565b90600182811c921680156107e4575b60208310146107d057565b634e487b7160e01b5f52602260045260245ffd5b91607f16916107c5565b805180835260209291819084018484015e5f828201840152601f01601f1916010190565b9060206103129281815201906107ee565b346102b0575f3660031901126102b0576040515f8054610842816107b6565b808452906020906001908181169081156108d6575060011461087f575b61087b8561086f81870382610504565b60405191829182610812565b0390f35b5f80805293507f290decd9548b62a8d60345a988386fc84ba6bc95484008f6362f93160ef3e5635b8385106108c35750505050810160200161086f8261087b61085f565b80548686018401529382019381016108a7565b86955061087b9693506020925061086f94915060ff191682840152151560051b820101929361085f565b346102b05760403660031901126102b05760043561091d8161029f565b6109256105b9565b6001600160a01b037f0000000000000000000000000000000000000000000000000000000000000000811633036104505782165f52600760205260405f209160ff8354161561043e578254640100000000600160a01b031916602083901b640100000000600160a01b0316179092557f4e39f53293455dca8fe1725b2dfcbe6abd2f44d777b7f2a7279526e17d7ebede91604080516001600160a01b0390921682526001600160801b03909216602082015290819081016103ff565b346102b05760203660031901126102b05761087b610a09600435610a048161029f565b612183565b60405191829182919091606063ffffffff81608084019580511515855260018060a01b036020820151166020860152604081015115156040860152015116910152565b346102b0576003196080368201126102b05760043590610a6b8261029f565b602435610a778161029f565b6044356001600160401b03928382116102b0576101409082360301126102b0576064359283116102b05761087b93610ab6610ac2943690600401610626565b9390926004019161227a565b6040519081529081906020820190565b6101c09060431901126102b057604490565b6101c09060631901126102b057606490565b6101c09060031901126102b057600490565b6101c09060831901126102b057608490565b346102b0576102203660031901126102b057610b3760043561029f565b610b3f6105b9565b50610b4936610ad2565b50610204356001600160401b0381116102b05761075e903690600401610626565b906102cf91805115158252602081015115156020830152610b946040820151604084019015159052565b6060818101511515908301526080818101516001600160801b03169083015260a08181015163ffffffff169083015260c08181015115159083015260e081810151151590830152610100908101511515910152565b610120810192916102cf9190610b6a565b346102b05760203660031901126102b057600435610c178161029f565b610c1f61255f565b5060018060a01b03165f52600760205261087b60405f20610cc660405191610c46836104ac565b5460ff80821615158452600882901c81161515602085015290601081901c821615156040850152601881901c821615156060850152602081901c6001600160801b0316608085015260a081811c63ffffffff169085015260c081811c831615159085015260c881901c8216151560e085015260d01c161515610100830152565b60405191829182610be9565b346102b0576102403660031901126102b057600435610cf08161029f565b610cfb6024356102b4565b610d0436610ae4565b50610224356001600160401b0381116102b057610d25903690600401610626565b335f908152600760205260409020919291610d44906125a2565b6125a2565b92610d56610d528551151590565b1590565b61043e5760a08401514263ffffffff90911611610e1d57610d9c6060610d94610d8f8660018060a01b03165f52600160205260405f2090565b61213b565b950151151590565b610da257005b610de2610d52610ddb33610dc68760018060a01b03165f52600260205260405f2090565b9060018060a01b03165f5260205260405f2090565b5460ff1690565b9283610e06575b5050509050610df457005b60405163728522e760e11b8152600490fd5b610d529350610e1494612bd5565b805f8080610de9565b60405163fb86850160e01b8152600490fd5b9291926001600160401b0382116104c85760405191610e58601f8201601f191660200184610504565b8294818452818301116102b0578281602093845f960137010152565b346102b05760603660031901126102b057600435610e918161029f565b602435610e9d816102b4565b6044356001600160401b0381116102b057366023820112156102b057610ecd903690602481600401359101610e2f565b6001600160a01b03927f00000000000000000000000000000000000000000000000000000000000000008416330361045057610f2b60209185935f6040519788809581946314f22bb960e11b835288600484015260248301906107ee565b0393165af1928315610f92575f93610f61575b50821615610f4f5761075e9161377b565b60405163228e729160e01b8152600490fd5b610f8491935060203d602011610f8b575b610f7c8183610504565b810190612cb5565b915f610f3e565b503d610f72565b612cca565b346102b0575f3660031901126102b05760405160408101908082106001600160401b038311176104c85761087b91604052600e81526d46697865645465726d486f6f6b7360901b60208201526040519182916020835260208301906107ee565b346102b0576102203660031901126102b057600480356110168161029f565b61101f36610ad2565b90610204356001600160401b0381116102b05761103f9036908501610626565b335f908152600760205260409020919390929161105b906125a2565b92611069610d528551151590565b611144576001600160a01b0383165f90815260016020526040902061108d9061213b565b916110988351151590565b611133576110bb6110af6101806110c3930161263a565b6001600160701b031690565b602435612cd5565b6001600160801b036110df60808701516001600160801b031690565b1611611122576110f6611100916040968585612d23565b9590940151151590565b8315166111115761075e9450612e55565b60405163728522e760e11b81528590fd5b60405163c24b1b6160e01b81528690fd5b60405163728522e760e11b81528790fd5b60405163b217907b60e01b81528690fd5b346102b057611163366102ed565b335f52600560205260405f20549182156111805761075e92612f71565b60405163b1cd090360e01b8152600490fd5b9060206003198301126102b0576004356001600160401b03928382116102b057806023830112156102b05781600401359384116102b05760248460051b830101116102b0576024019190565b346102b0576111ec36611192565b907f00000000000000000000000000000000000000000000000000000000000000006001600160a01b03163303610450575f5b82811061122857005b806112486112396001938686612658565b356112438161029f565b6127f4565b0161121f565b346102b0575f3660031901126102b05760206040517f00000000000000000000000000000000000000000000000000000000000000008152f35b346102b0575f3660031901126102b0576040517f00000000000000000000000000000000000000000000000000000000000000006001600160a01b03168152602090f35b346102b05760203660031901126102b05761075e6004356112ec8161029f565b613082565b346102b0576102003660031901126102b0576101c03660231901126102b0576101e4356001600160401b0381116102b05761075e903690600401610626565b60209060206040818301928281528551809452019301915f5b828110611357575050505090565b835185529381019392810192600101611349565b346102b0575f3660031901126102b057604051806004549182815260208091019260045f527f8a35acfbc15ff81a39ae7d344fd709f28e8600b4aa8c65c6b64bfe7fe36bd19b915f905b8282106113d85761087b856113cc81890382610504565b60405191829182611330565b8354865294850194600193840193909101906113b5565b346102b05760203660031901126102b05760043561140c8161029f565b6001600160a01b037f000000000000000000000000000000000000000000000000000000000000000081163303610450578116805f52600560205260405f2054918215611180576001600160a01b03165f90815260056020908152604080832092909255815162ffffff602886901c811680835260109690961c8116928201839052919391927fd40af841b3d79ec50752ce038e1ee39d243ed894aacf7c3b8f9a87b09ec8fc9791a282146114c5575061075e906132c0565b61075e91506131c0565b346102b0576102003660031901126102b0576114ec60043561029f565b6101c03660231901126102b0576101e4356001600160401b0381116102b05761075e903690600401610626565b346102b0575f3660031901126102b057604051806003549182815260208091019260035f525f80516020613d7e833981519152915f905b8282106115675761087b856113cc81890382610504565b835486529485019460019384019390910190611550565b6001600160401b0381116104c85760051b60200190565b9080601f830112156102b05760209082356115af8161157e565b936115bd6040519586610504565b81855260208086019260051b8201019283116102b057602001905b8282106115e6575050505090565b83809183356115f4816102b4565b8152019101906115d8565b346102b05760403660031901126102b0576001600160401b036004358181116102b057366023820112156102b057806004013561163b8161157e565b916116496040519384610504565b8183526020916024602085019160051b830101913683116102b057602401905b82821061169257602435858782116102b05761168c61075e923690600401611595565b9061268b565b83809183356116a08161029f565b815201910190611669565b346102b0576101e03660031901126102b0576116c636610af6565b506101c4356001600160401b0381116102b0576116e7903690600401610626565b5050335f90815260076020526040902080549060ff82161561043e5763ffffffff91828160a01c16421061171757005b60ff8160d01c169081156117b4575b50156117a257805463ffffffff60a01b19164290921660a01b63ffffffff60a01b169190911781557f8fcb9a8dc61c986e7488a736bc8edc39e7f8b2bea37fdf7aa56cf142c5fe04b7906103ff90611785905460a01c63ffffffff1690565b6040805133815263ffffffff909216602083015290918291820190565b604051639bc5c4d560e01b8152600490fd5b60ff915060c81c165f611726565b346102b0576102603660031901126102b05760046117e0813561029f565b6117eb60243561029f565b6044356117f78161029f565b61180036610b08565b50610244356001600160401b0381116102b0576118209036908401610626565b335f9081526007602052604090209192909161183b906125a2565b91611849610d528451151590565b6118e25760c08301516118d15761187a610d52610ddb33610dc68660018060a01b03165f52600260205260405f2090565b61188057005b6001600160a01b0382165f9081526001602052604090206118a09061213b565b906118ab8251151590565b6118c0576110f6611100916020968585612d23565b60405163728522e760e11b81528690fd5b604051638574adcf60e01b81528590fd5b60405163b217907b60e01b81528590fd5b815163ffffffff168152610140810192916102cf919060208181015163ffffffff169083015260408181015161ffff169083015260608181015161ffff169083015260808181015161ffff169083015260a08181015161ffff169083015260c08181015163ffffffff169083015260e08181015163ffffffff16908301526101008181015161ffff16908301526101209081015161ffff16910152565b346102b0575f3660031901126102b0576040516119ac816104cd565b5f60408281018290526080830182905260c0830182905261010083018290529082526276a70060208301526127106060830181905260a083018190526301e1338060e08401526101208301525190819061087b90826118f3565b6001600160a01b03165f90815260056020526040902090565b346102b05760403660031901126102b057602060ff611a77600435611a438161029f565b60243590611a508261029f565b60018060a01b03165f526002845260405f209060018060a01b03165f5260205260405f2090565b54166040519015158152f35b346102b05760203660031901126102b057600435611aa08161029f565b6001600160a01b037f0000000000000000000000000000000000000000000000000000000000000000811633036104505780611b37611b3c92841693845f52600160205263ffffffff60405f209360405194611afb866104e9565b54908160081c16602086015260ff8160a81c161515604086015260b01c1660608401525f835260018060a01b03165f52600160205260405f2090565b612708565b7f7201a4017f7e2ac3b7164275daef1150d8fc64543b3f7196293722db50bc7fa05f80a2005b346102b05760203660031901126102b05761087b600435611b828161029f565b611b8a61210c565b5060018060a01b038091165f52600160205263ffffffff60405f209160405192611bb3846104e9565b549060ff8216151584528160081c16602084015260ff8160a81c161515604084015260b01c16606082015260405191829182919091606063ffffffff81608084019580511515855260018060a01b036020820151166020860152604081015115156040860152015116910152565b346102b05760203660031901126102b057600435611c3e8161029f565b60018060a01b03165f526005602052602060405f2054604051908152f35b346102b0575f3660031901126102b0576040517f00000000000000000000000000000000000000000000000000000000000000006001600160a01b03168152602090f35b346102b0576020806003193601126102b0576001600160401b036004358181116102b057366023820112156102b057611ce3903690602481600401359101610e2f565b917f00000000000000000000000000000000000000000000000000000000000000006001600160a01b031633036104505782519182116104c857611d3082611d2b5f546107b6565b61277e565b602090601f8311600114611d9d575091611d84826103ff937f9f7688a97f1ac51fe03bac18af18d6810f9f11f0db08c59b1938a9ac825ef744955f91611d92575b508160011b915f199060031b1c19161790565b5f5560405191829182610812565b90508301515f611d71565b5f805290601f1983167f290decd9548b62a8d60345a988386fc84ba6bc95484008f6362f93160ef3e563925f905b828210611e2a575050927f9f7688a97f1ac51fe03bac18af18d6810f9f11f0db08c59b1938a9ac825ef7449492600192826103ff9610611e12575b5050811b015f5561086f565b8401515f1960f88460031b161c191690555f80611e06565b80600185968294968a01518155019501930190611dcb565b60209060206040818301928281528551809452019301915f5b828110611e69575050505090565b909192938261012082611e7f6001948951610b6a565b01950193929101611e5b565b346102b057611e9936611192565b90611ea38261157e565b91611eb16040519384610504565b808352601f19611ec08261157e565b015f5b818110611f345750505f5b818110611ee3576040518061087b8682611e42565b80611f18610d3f611eff611efa6001958789612658565b61266d565b6001600160a01b03165f90815260076020526040902090565b611f228287612677565b52611f2d8186612677565b5001611ece565b602090611f3f61255f565b82828801015201611ec3565b346102b0576102203660031901126102b057600435611f6981610462565b611f74602435610462565b611f7d36610ad2565b610204356001600160401b0381116102b057611f9d903690600401610626565b5050335f52600760205263ffffffff60405f205460a01c16421080611ff3575b611fe157611fca916133f9565b6040805161ffff9384168152919092166020820152f35b604051630c7c4a8560e31b8152600490fd5b5061014081013561200381610462565b61ffff80911690831610611fbd565b346102b05761202036611192565b905f5b82811061202c57005b8061204761203d6001938686612658565b356112ec8161029f565b01612023565b346102b05761205b366102ed565b7f00000000000000000000000000000000000000000000000000000000000000006001600160a01b031633036104505761075e9161377b565b346102b0575f3660031901126102b05760206040516303c267008152f35b346102b05760203660031901126102b0576004356120cf8161029f565b60018060a01b03165f526006602052606060405f205463ffffffff61ffff916040519280821684528160101c16602084015260201c166040820152f35b60405190612119826104e9565b5f6060838281528260208201528260408201520152565b9063ffffffff169052565b90604051612148816104e9565b915460ff80821615158452600882901c6001600160a01b0316602085015260a882901c161515604084015260b01c63ffffffff166060830152565b9061218c61210c565b506001600160a01b0382165f9081526001602052604090206121ad9061213b565b915f1963ffffffff6121c6606086015163ffffffff1690565b166121dc575b6121d691846129eb565b6102cf57565b60208401516121f3906001600160a01b0316611a06565b548061221e575b506121d6916122178560205f918260408201528260608201520152565b91506121cc565b606085015163fffffffe1963ffffffff91821660e084901c019081019082110201421115612275576040850151156121fa57905061225d8282866128c8565b6122715760281c62ffffff166121d66121fa565b5050565b505050565b9093906001600160a01b037f00000000000000000000000000000000000000000000000000000000000000008116330361254d576122b7846139a7565b50807f0000000000000000000000000000000000000000000000000000000000000000169116036104505760201161253b5761012001356122f782613a5e565b9063ffffffff8216428110908115612522575b5061251057604080516001600160a01b038616815263ffffffff84166020820152610312946124989361247d9390927f8fcb9a8dc61c986e7488a736bc8edc39e7f8b2bea37fdf7aa56cf142c5fe04b79190a160019061240f61236c82613a71565b6123ca612377610545565b6001815298605c87901c8616151560208b0152605f87901c8616151560408b0152605e87901c8616151560608b01526123bd60808b019384906001600160801b03169052565b63ffffffff1660a08a0152565b61240284608060c08b01956123e783604083013516889015159052565b60608101358316151560e08d015201351615156101008a0152565b516001600160801b031690565b6001600160801b0381166124b6575b505115155b6124a8575b81605e1c1661249d575b7f000000000000000000000000000000000000000000000000000000000000000061ffff60501b908060101c908360501c161760501b16906bffffffffffffffffffffffff19161790565b6001600160a01b039094165f90815260076020526040902090565b612a73565b6009605c1b17612432565b6001605c1b90911790612428565b604080516001600160a01b038b1681526001600160801b039290921660208301526001605f1b949094179361242392917f4e39f53293455dca8fe1725b2dfcbe6abd2f44d777b7f2a7279526e17d7ebede9190a19061241e565b6040516390b0b2c360e01b8152600490fd5b6303c267009150612534904290612a61565b115f61230a565b6040516303e3e84b60e61b8152600490fd5b60405163a84178ab60e01b8152600490fd5b6040519061256c826104ac565b5f610100838281528260208201528260408201528260608201528260808201528260a08201528260c08201528260e08201520152565b906102cf6040516125b2816104ac565b61010081945460ff90818116151584526125d6828260081c16602086019015159052565b601081901c821615156040850152601881901c821615156060850152602081901c6001600160801b0316608085015260a081811c63ffffffff169085015260c081811c831615159085015260c881901c8216151560e085015260d01c161515910152565b3561031281610607565b634e487b7160e01b5f52603260045260245ffd5b91908110156126685760051b0190565b612644565b356103128161029f565b80518210156126685760209160051b010190565b335f9081526005602052604090205492919083156111805780518251036126f6575f5b81518110156126ef576001906126e96001600160a01b036126cf8386612677565b511663ffffffff6126e08488612677565b51169088612f71565b016126ae565b5050509050565b604051634ec4810560e11b8152600490fd5b63ffffffff60606102cf9361272c81511515859060ff801983541691151516179055565b6020810151845460408301519390920151610100600160d01b031990921660089190911b610100600160a81b03161791151560a81b60ff60a81b1691909117911660b01b63ffffffff60b01b16179055565b601f811161278a575050565b5f80527f290decd9548b62a8d60345a988386fc84ba6bc95484008f6362f93160ef3e563906020601f840160051c830193106127e0575b601f0160051c01905b8181106127d5575050565b5f81556001016127ca565b90915081906127c1565b3561031281610462565b61287360018060a01b03611b3781841693845f52600160205263ffffffff60405f209360405194612824866104e9565b549060ff8216151586528160081c16602086015260ff8160a81c161515604086015260b01c16806060850152612899575b600183525b6001600160a01b03165f90815260016020526040902090565b7f25b0d1830e0d487402e2c828de3ccbc9d16bd911aaec75fbba1bffd32657fad45f80a2565b6128b18360205f918260408201528260608201520152565b845f80516020613d9e8339815191525f80a2612855565b63ccdad14b5f908152602093845293929091908490816024601c604086901c6001600160a01b03165afa601f3d1116612986575b63ffffffff16918215801561297d575b6129755763ffffffff60e083901c840181811063fffffffe1990910102015b42111561293757505050565b63ffffffff9092166060830152604081811c6001600160a01b0316602084015260289190911c62ffffff90811614159101529050600190565b600190565b505f93505050565b5042831161290c565b505f5163ffffffff166128fc565b6004548110156126685760045f527f8a35acfbc15ff81a39ae7d344fd709f28e8600b4aa8c65c6b64bfe7fe36bd19b01905f90565b6003548110156126685760035f525f80516020613d7e83398151915201905f90565b9291905f9360038054935f5b858110612a0657505050505050565b818114612a4557825f52612a2b85825f80516020613d7e8339815191520154866128c8565b612a39576001905b016129f7565b50600196505050505050565b600190612a33565b634e487b7160e01b5f52601160045260245ffd5b91908203918211612a6e57565b612a4d565b612bbb6101006102cf93612a9681511515859060ff801983541691151516179055565b60208101518454604083015191151560081b61ff001662ffff00199091161790151560101b62ff000016178455612aed612ad36060830151151590565b855463ff000000191690151560181b63ff00000016178555565b612b2c612b0460808301516001600160801b031690565b8554640100000000600160a01b03191660209190911b640100000000600160a01b0316178555565b612b60612b4060a083015163ffffffff1690565b855463ffffffff60a01b191660a09190911b63ffffffff60a01b16178555565b612b8a612b7060c0830151151590565b855460ff60c01b191690151560c01b60ff60c01b16178555565b612bb4612b9a60e0830151151590565b855460ff60c81b191690151560c81b60ff60c81b16178555565b0151151590565b815460ff60d01b191690151560d01b60ff60d01b16179055565b9392612be391928386612d23565b8181959295612c42575b506001600160a01b0383165f908152600260205260409020612c1c905b335f9081526020919091526040902090565b50612c25575050565b611b376102cf9260018060a01b03165f52600160205260405f2090565b15612c955760018060a01b03806020840151167fa04eb478c9c6a13a6de14b7eb31b1b629511e804c3cfef31bd549accd4b15524602063ffffffff60608701511693604051948552871693a35b5f612bed565b6001600160a01b0383165f80516020613d9e8339815191525f80a2612c8f565b908160209103126102b057516103128161029f565b6040513d5f823e3d90fd5b816b019d971e4fe8401e74000000190481111582151715612d11576b033b2e3c9fd0803ce800000091026b019d971e4fe8401e74000000010490565b634e487b715f5260116020526024601cfd5b90929391935f945f94606084019163ffffffff938484511615155f14612e4e576020860151612d5a906001600160a01b0316611a06565b54905b811515928380612e24575b612e135790612d78918589613a8a565b612e04575f199180612df7575b612dc8575b50612d9591856129eb565b612dbc575116612da25750565b61297091925060205f918260408201528260608201520152565b50600194508493505050565b9050612dd58282876128c8565b612de95760281c62ffffff16612d95612d8a565b506001965086955050505050565b5060408601511515612d85565b50600197508796505050505050565b50600199505f985050505050505050565b50606088015163fffffffe1963ffffffff91821660e086901c019081019082110201421115612d68565b5f90612d5d565b91600190849294612ef5575b612e84610d52610ddb612c0a8860018060a01b03165f52600260205260405f2090565b1616612e93575b612c25575050565b612ec1612eb433610dc68660018060a01b03165f52600260205260405f2090565b805460ff19166001179055565b6001600160a01b038316337f19c0c79c8d3a2c3300023a426c471dbf37ef4602c3c143fe049cc9e9f989165d5f80a3612e8b565b8015612f5357602084810151606086015160405163ffffffff909116815260a085901b8590038881169392166001600160a01b0316917fa04eb478c9c6a13a6de14b7eb31b1b629511e804c3cfef31bd549accd4b1552491a3612e61565b818060a01b0385165f80516020613d9e8339815191525f80a2612e61565b9190612f90610d8f8260018060a01b03165f52600160205260405f2090565b9263ffffffff60e082901c8482160181811063fffffffe1990910102810190428210613070576060860190815116612fce575b50506102cf93613af6565b602086018051909190612fe9906001600160a01b0316611a06565b549081612ff8575b5050612fc3565b61304291613019613010613034935163ffffffff1690565b63ffffffff1690565b9060e01c0163ffffffff908163fffffffe1982019110020190565b91516001600160a01b031690565b6001600160a01b031633149111171561305e575f808080612ff1565b60405163601fd52b60e11b8152600490fd5b604051635a922a2f60e01b8152600490fd5b60018060a01b039081811691825f52600160205260405f209063ffffffff604051926130ad846104e9565b549160ff8316151584528260081c169182602085015260ff8160a81c161515604085015260b01c166060830152330361311257611b376130ff9261285a8360205f918260408201528260608201520152565b5f80516020613d9e8339815191525f80a2565b604051633a364f3d60e01b8152600490fd5b6004548015613168575f1981019080821015612668577f8a35acfbc15ff81a39ae7d344fd709f28e8600b4aa8c65c6b64bfe7fe36bd19a5f91600483520155600455565b634e487b7160e01b5f52603160045260245ffd5b6003548015613168575f1981019080821015612668577fc2575a0e9e593c00f959f8c92f12db2869c3395a3b0502d05e2516446f71f85a5f91600383520155600355565b6004545f198101818111612a6e578062ffffff8416146132b55760045411156126685760045f527f8a35acfbc15ff81a39ae7d344fd709f28e8600b4aa8c65c6b64bfe7fe36bd19a015464ffffff00001916601082901b17907f77f7914b3d5f909ba079a3cfd67cdff25863760515f339affe0f2313d3563862906132608361324883612994565b90919082549060031b91821b915f19901b1916179055565b613268613124565b604083811c6001600160a01b03165f8181526005602052919091209093908190556040805160e09290921c825262ffffff602083018190529092169181019190915280606081015b0390a2565b5050506102cf613124565b6003545f198101818111612a6e578062ffffff84161461339c5760035411156126685760035f527fc2575a0e9e593c00f959f8c92f12db2869c3395a3b0502d05e2516446f71f85a015467ffffff00000000001916602882901b17907f77f7914b3d5f909ba079a3cfd67cdff25863760515f339affe0f2313d35638629061334b83613248836129c9565b61335361317c565b604083811c6001600160a01b03165f8181526005602052919091209093908190556040805160e09290921c825262ffffff928316602083015281019190915280606081016132b0565b5050506102cf61317c565b90604051606081018181106001600160401b038211176104c857604052604063ffffffff82945461ffff80821685528160101c16602085015260201c16910152565b90621275008201809211612a6e57565b91610160820190613409826127ea565b918461ffff948582169261341c84613c03565b335f908152600660205260409020613433906133a7565b92604084019163ffffffff918261344e855163ffffffff1690565b1680613639575b5050613468613010845163ffffffff1690565b6136235761348261347c61014086016127ea565b916127ea565b915b898216998a881061349d575b5050505050505050909150565b61354296979950613598989a6134b6918516908b613c40565b986134c3613010426133e9565b956134d2865163ffffffff1690565b9283166135a65750506040805161ffff85811682528b16602082015263ffffffff871691810191909152612130939261353792509033907f16f9a191ecd86fd97f0ddc3dbed8fdc4d1e0d0644b93db99f8a577f52b0dec4390606090a261ffff168752565b61ffff166020860152565b335f9081526006602052604090208151815460208085015160409095015167ffffffff00000000911b1663ffff000060109590951b9490941661ffff90921667ffffffffffffffff199091161717919091179055565b815f80808080808080613490565b6135c1919293506101406135ba91016127ea565b61ffff1690565b111561361b575b506040805161ffff9283168152918816602083015263ffffffff84169082015233907ff813e17e21ecee3918b028c4e02f15f1fdd045f9f63183b6ab4f42c23c97b32190606090a29063ffffffff169052565b92505f6135c8565b50835161ffff16602085015161ffff1691613484565b6136496135ba61014088016127ea565b88101590421015166136606135ba885161ffff1690565b88101581171561345557959650995050505050602092945061031293505f146136c157337f145c143a918203cecb36063a1d70980ebb42b5b00490c5510d79c9d7717b77bb5f80a25b335f90815260066020526040812055015161ffff1690565b337f2045c970b5c1a8f9b69dd33e70a1f9d07b9021e408716d5b8daeb83a776ea05f5f80a26136a9565b908160209103126102b0575161031281610552565b600454600160401b8110156104c85760018101806004558110156126685760045f527f8a35acfbc15ff81a39ae7d344fd709f28e8600b4aa8c65c6b64bfe7fe36bd19b0155565b600354600160401b8110156104c85760018101806003558110156126685760035f525f80516020613d7e8339815191520155565b6001600160a01b0381165f90815260056020526040902054806138ee575060405163256909f160e01b8152906001600160a01b038116602083600481845afa928315610f92575f93613899575b507f3c4db27692774915639231cf12808d8ee5f42ca0bd208df85fdcd82e5f2ebe056138729394855f146138835760035462ffffff169061385662ffffff5b8060101b8460281b178760401b8460e01b1717985f146138755761382a89613747565b6040519384938491604091949363ffffffff606085019616845262ffffff809216602085015216910152565b0390a26001600160a01b03165f90815260056020526040902090565b55565b61387e89613700565b61382a565b60045462ffffff169061385662ffffff92613807565b61387293506138e07f3c4db27692774915639231cf12808d8ee5f42ca0bd208df85fdcd82e5f2ebe059160203d6020116138e7575b6138d88183610504565b8101906136eb565b93506137c8565b503d6138ce565b6001600160e01b031660e083901b179161387291907f77f7914b3d5f909ba079a3cfd67cdff25863760515f339affe0f2313d3563862601085901c62ffffff90811690602887901c81169081146139955761394c87613248836129c9565b6040805163ffffffff95909516855262ffffff91821660208601529116908301526001600160a01b03831691606090a26001600160a01b03165f90815260056020526040902090565b6139a28761324884612994565b61394c565b905f916080810135906139b982610462565b60a08101356139c781610462565b60c0820135916139d6836102b4565b61010060e0820135916139e883610462565b0135916139f4836102b4565b612710908161ffff80971611613a4f57851611613a40576301e1338063ffffffff80941611613a31576102cf93613a2b9116613c0d565b16613c26565b63772de36160e01b5f5260045ffd5b6367e9111d60e11b5f5260045ffd5b633a73673b60e11b5f5260045ffd5b3561031263ffffffff8216809214613d76565b602001356103126001600160801b038216809214613d76565b5f94939192909160148103613ada57503560601c5f52600560205260405f20549081151580613ac8575b613abd57505050565b6103129394506128c8565b5062ffffff808360281c161415613ab4565b92909160148411613aeb5750505050565b610312949550613cb7565b63ffffffff84166060820152604082811c6001600160a01b03166020830152602883901c62ffffff90811614159082015292917fa04eb478c9c6a13a6de14b7eb31b1b629511e804c3cfef31bd549accd4b1552491613beb60018060a01b0380931695865f526001602052613bcb606060405f2092613b8481511515859060ff801983541691151516179055565b602081015184546040830151610100600160b01b031990911660089290921b610100600160a81b03169190911790151560a81b60ff60a81b16178455015163ffffffff1690565b815463ffffffff60b01b191660b09190911b63ffffffff60b01b16179055565b6040805163ffffffff9590951685521c1691602090a3565b61271010613a4f57565b61271010613c1757565b63c7f3bbb960e01b5f5260045ffd5b6276a70010613c3157565b632136673760e01b5f5260045ffd5b81039190808311612a6e5761271092805f19048411810215820215613caa57830204916109c48311613c76575061ffff91501690565b600183901b929091906001600160ff1b03811603612a6e57828281610312956135ba95039110020190818103908210020190565b63ad251c275f526004601cfd5b823560601c5f81815260056020526040812090969593919054938415613d6b57915f9182601c6050602096839a604051966354560cb288528988015260408088015260146013198301918260608a0152016080880137019301915af1613d43575b8215801561297d576129755763ffffffff60e083901c840181811063fffffffe19909101020161292b565b915060203d10600114613d5e5763ffffffff5f511691613d18565b63c177c7005f526004601cfd5b505f96505050505050565b15612d115756fec2575a0e9e593c00f959f8c92f12db2869c3395a3b0502d05e2516446f71f85b47695aa96e09db0d106b9bd402979d6aff7e51ada06ec6fe014e5eeadd8c1dc0a164736f6c6343000819000a3c4db27692774915639231cf12808d8ee5f42ca0bd208df85fdcd82e5f2ebe0577f7914b3d5f909ba079a3cfd67cdff25863760515f339affe0f2313d3563862","linkReferences":{}},"methodIdentifiers":{"MaximumLoanTerm()":"f040ed98","addRoleProvider(address,uint32)":"ea5b13bd","blockFromDeposits(address)":"064ed53b","blockFromDeposits(address[])":"6d1587a6","borrower()":"7df1f1b9","config()":"79502c55","createRoleProvider(address,uint32,bytes)":"36c89214","factory()":"c45a0155","getHookedMarket(address)":"2ccf4667","getHookedMarkets(address[])":"c888fb15","getLenderStatus(address)":"22a4a19f","getParameterConstraints()":"a11ef067","getPreviousLenderStatus(address)":"b037096d","getPullProviders()":"8f8ef419","getPushProviders()":"87927767","getRoleProvider(address)":"bfd269be","grantRole(address,uint32)":"6b2b369b","grantRoles(address[],uint32[])":"9d2a76fe","isKnownLenderOnMarket(address,address)":"a9ff2dbf","name()":"06fdde03","onBorrow(uint256,(bool,uint128,uint128,uint128,uint104,uint104,uint32,bool,uint32,uint16,uint16,uint16,uint112,uint32),bytes)":"b1cfda0d","onCloseMarket((bool,uint128,uint128,uint128,uint104,uint104,uint32,bool,uint32,uint16,uint16,uint16,uint112,uint32),bytes)":"9ecc64e6","onCreateMarket(address,address,(address,string,string,uint128,uint16,uint16,uint32,uint16,uint32,uint256),bytes)":"28fd0307","onDeposit(address,uint256,(bool,uint128,uint128,uint128,uint104,uint104,uint32,bool,uint32,uint16,uint16,uint16,uint112,uint32),bytes)":"5aeb713f","onExecuteWithdrawal(address,uint128,(bool,uint128,uint128,uint128,uint104,uint104,uint32,bool,uint32,uint16,uint16,uint16,uint112,uint32),bytes)":"2970403d","onNukeFromOrbit(address,(bool,uint128,uint128,uint128,uint104,uint104,uint32,bool,uint32,uint16,uint16,uint16,uint112,uint32),bytes)":"8b3ce9b3","onQueueWithdrawal(address,uint32,uint256,(bool,uint128,uint128,uint128,uint104,uint104,uint32,bool,uint32,uint16,uint16,uint16,uint112,uint32),bytes)":"3521cccc","onRepay(uint256,(bool,uint128,uint128,uint128,uint104,uint104,uint32,bool,uint32,uint16,uint16,uint16,uint112,uint32),bytes)":"83d9e1eb","onSetAnnualInterestAndReserveRatioBips(uint16,uint16,(bool,uint128,uint128,uint128,uint104,uint104,uint32,bool,uint32,uint16,uint16,uint16,uint112,uint32),bytes)":"cc452642","onSetMaxTotalSupply(uint256,(bool,uint128,uint128,uint128,uint104,uint104,uint32,bool,uint32,uint16,uint16,uint16,uint112,uint32),bytes)":"849da129","onSetProtocolFeeBips(uint16,(bool,uint128,uint128,uint128,uint104,uint104,uint32,bool,uint32,uint16,uint16,uint16,uint112,uint32),bytes)":"03473d8d","onTransfer(address,address,address,uint256,(bool,uint128,uint128,uint128,uint104,uint104,uint32,bool,uint32,uint16,uint16,uint16,uint112,uint32),bytes)":"a018f90e","removeRoleProvider(address)":"8adfe0f8","revokeRole(address)":"80e52e3f","revokeRoles(address[])":"e5ef8405","setFixedTermEndTime(address,uint32)":"02420e7f","setMinimumDeposit(address,uint128)":"1c4b3694","setName(string)":"c47f0027","temporaryExcessReserveRatio(address)":"feb368e2","unblockFromDeposits(address)":"aa948689","version()":"54fd4d50"},"id":54}