{"abi":[{"type":"constructor","inputs":[],"stateMutability":"nonpayable"},{"type":"function","name":"deployMockERC20","inputs":[{"name":"name","type":"string","internalType":"string"},{"name":"symbol","type":"string","internalType":"string"}],"outputs":[{"name":"","type":"address","internalType":"address"}],"stateMutability":"nonpayable"},{"type":"function","name":"deployerNonce","inputs":[{"name":"","type":"address","internalType":"address"}],"outputs":[{"name":"","type":"uint256","internalType":"uint256"}],"stateMutability":"view"},{"type":"function","name":"getDeployParameters","inputs":[],"outputs":[{"name":"name","type":"string","internalType":"string"},{"name":"symbol","type":"string","internalType":"string"}],"stateMutability":"view"},{"type":"function","name":"getNextTokenAddress","inputs":[{"name":"deployer","type":"address","internalType":"address"}],"outputs":[{"name":"tokenAddress","type":"address","internalType":"address"}],"stateMutability":"view"},{"type":"function","name":"mockERC20InitCodeHash","inputs":[],"outputs":[{"name":"","type":"uint256","internalType":"uint256"}],"stateMutability":"view"},{"type":"function","name":"mockERC20InitCodeStorage","inputs":[],"outputs":[{"name":"","type":"address","internalType":"address"}],"stateMutability":"view"},{"type":"event","name":"NewTokenDeployed","inputs":[{"name":"token","type":"address","indexed":true,"internalType":"address"},{"name":"name","type":"string","indexed":false,"internalType":"string"},{"name":"symbol","type":"string","indexed":false,"internalType":"string"},{"name":"decimals","type":"uint8","indexed":false,"internalType":"uint8"}],"anonymous":false}],"bytecode":{"object":"0x346100c9573060ff60a01b1760c05260e0610e30603f8101601f191682016001600160401b038111838210176100b55760405280825261010090610ad982398151809120906a6100005f81600a5f39f3006001820160401b178352600b810160f55ff09283156100a8575260a052608052604051610a0b90816100ce823960805181818161025501526103e1015260a0518181816101570152610210015260c051816101eb0152f35b6311c8c3c05f526004601cfd5b634e487b7160e01b5f52604160045260245ffd5b5f80fdfe60806040526004361015610011575f80fd5b5f3560e01c806304889e26146100745780638b4151581461006f5780639ca49bf21461006a578063ec91d19614610065578063ecb5d6c4146100605763ee0293221461005b575f80fd5b610329565b610240565b61017a565b610140565b610114565b346100c0575f3660031901126100c0576100ae61008f610515565b6100bc61009a6105c5565b6040519384936040855260408501906100ce565b9083820360208501526100ce565b0390f35b5f80fd5b5f9103126100c057565b805180835260209291819084018484015e5f828201840152601f01601f1916010190565b60209060031901126100c0576004356001600160a01b03811681036100c05790565b346100c0576001600160a01b0361012a366100f2565b165f525f602052602060405f2054604051908152f35b346100c0575f3660031901126100c05760206040517f00000000000000000000000000000000000000000000000000000000000000008152f35b346100c057602061018a366100f2565b6001600160a01b038181165f90815280845260409081902054905160609390931b6bffffffffffffffffffffffff1916838501908152601481019190915290916101e181603484015b03601f1981018352826102b1565b51902090604051917f00000000000000000000000000000000000000000000000000000000000000005f5283527f00000000000000000000000000000000000000000000000000000000000000006040526055600b2016816040528152f35b346100c0575f3660031901126100c0576040517f00000000000000000000000000000000000000000000000000000000000000006001600160a01b03168152602090f35b634e487b7160e01b5f52604160045260245ffd5b67ffffffffffffffff81116102ac57604052565b610284565b90601f8019910116810190811067ffffffffffffffff8211176102ac57604052565b81601f820112156100c05780359067ffffffffffffffff82116102ac5760405192610308601f8401601f1916602001856102b1565b828452602083830101116100c057815f926020809301838601378301015290565b346100c05760403660031901126100c05767ffffffffffffffff6004358181116100c05761035b9036906004016102d3565b906024359081116100c0576103749036906004016102d3565b61037d826106f3565b610386816107cb565b335f90815260208190526040902061041190610405908054906103a882610898565b90556040513360601b6bffffffffffffffffffffffff19166020820190815260348201929092526103dc81605481016101d3565b5190207f0000000000000000000000000000000000000000000000000000000000000000610996565b6001600160a01b031690565b6104196108ba565b61042161090c565b6001600160a01b031690813b156100c0576040516340c10f1960e01b815233600482015268056bc75e2d631000006024820152905f8260448183875af19081156104d8576100bc9484937fc48153a538e96379d201c100ee70cfaf9e827cb32432ce4c889d7bbae9ec400b936104bf575b506104a260405192839283610967565b0390a26040516001600160a01b0390911681529081906020820190565b806104cc6104d292610298565b806100c4565b5f610492565b61095c565b90600182811c9216801561050b575b60208310146104f757565b634e487b7160e01b5f52602260045260245ffd5b91607f16916104ec565b604051905f8260019160015461052a816104dd565b80845293602091600181169081156105a15750600114610555575b5050610553925003836102b1565b565b91509260015f525f805160206109df833981519152935f925b82841061058957506105539450505081016020015f80610545565b8554888501830152948501948794509281019261056e565b9150506020925061055394915060ff191682840152151560051b8201015f80610545565b604051905f82600254916105d8836104dd565b808352926020906001908181169081156105a15750600114610602575050610553925003836102b1565b91509260025f525f805160206109bf833981519152935f925b82841061063657506105539450505081016020015f80610545565b8554888501830152948501948794509281019261061b565b818110610659575050565b5f815560010161064e565b90601f8211610671575050565b6105539160015f525f805160206109df833981519152906020601f840160051c830193106106a7575b601f0160051c019061064e565b909150819061069a565b90601f82116106be575050565b6105539160025f525f805160206109bf833981519152906020601f840160051c830193106106a757601f0160051c019061064e565b90815167ffffffffffffffff81116102ac5760019061071b8161071684546104dd565b610664565b602080601f831160011461075c5750819061074d9394955f92610751575b50508160011b915f199060031b1c19161790565b9055565b015190505f80610739565b90601f1983169561077b60015f525f805160206109df83398151915290565b925f905b8882106107b4575050838596971061079c575b505050811b019055565b01515f1960f88460031b161c191690555f8080610792565b80878596829496860151815501950193019061077f565b90815167ffffffffffffffff81116102ac576107f1816107ec6002546104dd565b6106b1565b602080601f83116001146108265750819061082193945f926107515750508160011b915f199060031b1c19161790565b600255565b90601f1983169461084560025f525f805160206109bf83398151915290565b925f905b878210610880575050836001959610610868575b505050811b01600255565b01515f1960f88460031b161c191690555f808061085d565b80600185968294968601518155019501930190610849565b5f1981146108a65760010190565b634e487b7160e01b5f52601160045260245ffd5b60016108c76001546104dd565b601f81116108d8575b50505f600155565b60015f52601f5f805160206109df833981519152910160051c8101905b81811061090257506108d0565b5f815582016108f5565b6109176002546104dd565b601f8111610927575b505f600255565b60025f52601f5f805160206109bf833981519152910160051c8101905b8181106109515750610920565b5f8155600101610944565b6040513d5f823e3d90fd5b92916109916040916109836012946060885260608801906100ce565b9086820360208801526100ce565b930152565b604051809160015f19823b019384923c5ff59081156109b157565b63301164255f526004601cfdfe405787fa12a823e0f2b7631cc41b3ba8828b3321ca811111fa75cd3aa3bb5aceb10e2d527612073b26eecdfd717e6a320cf44b4afac2b0732d9fcbe2b7fa0cf6a164736f6c6343000819000a60a080604052346102f7576302444f1360e11b81525f81600481335afa9081156102fb575f905f9261029b575b5080516001600160401b03928382116101d2575f54936001918286811c9616938415610291575b602094858810146101b457601f9687811161024e575b5080858882116001146101f1575f916101e6575b505f19600383901b1c191690841b175f555b80519182116101d25782548381811c911680156101c8575b858210146101b457868111610171575b5083958211600114610115579481929394955f9261010a575b50505f19600383901b1c191690821b1790555b8151910120608052604051610ab1908161037f82396080518181816101bf01526106320152f35b015190505f806100d0565b601f19821695835f52845f20915f5b88811061015c5750838596979810610144575b505050811b0190556100e3565b01515f1960f88460031b161c191690555f8080610137565b81830151845592850192918601918601610124565b835f52845f208780850160051c8201928786106101ab575b0160051c019084905b8281106101a05750506100b7565b5f8155018490610192565b92508192610189565b634e487b7160e01b5f52602260045260245ffd5b90607f16906100a7565b634e487b7160e01b5f52604160045260245ffd5b90508601515f61007d565b859250601f198216905f8052875f20915f5b898282106102385750508311610220575b5050811b015f5561008f565b8801515f1960f88460031b161c191690555f80610214565b838c015185558996909401939283019201610203565b5f8052855f208880840160051c820192888510610288575b0160051c019085905b82811061027d575050610069565b5f815501859061026f565b92508192610266565b95607f1695610053565b9150503d805f833e6102ad8183610306565b8101906040818303126102f75780516001600160401b0392908381116102f757816102d9918401610329565b9260208301519081116102f7576102f09201610329565b905f61002c565b5f80fd5b6040513d5f823e3d90fd5b601f909101601f19168101906001600160401b038211908210176101d257604052565b81601f820112156102f7578051906001600160401b0382116101d2576040519261035d601f8401601f191660200185610306565b828452602083830101116102f757815f9260208093018386015e830101529056fe608060409080825260049182361015610016575f80fd5b5f3560e01c91826306fdde031461085657508163095ea7b3146107ef57816318160ddd146107ca57816323b872dd1461070a57816328ccaa29146106f0578163313ce567146106d65781633644e5151461061d57816340c10f19146105b457816370a08231146105825781637ecebe001461055057816395d89b411461042d5781639dc29fac146103c2578163a9059cbb14610349578163d505accf14610184578163dd62ed3e14610148575063de5f72fd146100d1575f80fd5b34610144575f366003190112610144576805345cdf77eb68f44c80549068056bc75e2d63100000928383019283106101395750556387a211a2600c52335f526020600c20818154019055602052600c5160601c5f5f80516020610a85833981519152602080a3005b63e5cfe9575f52601cfd5b5f80fd5b34610144578060031936011261014457602090610163610956565b61016b61096c565b8352637f5e9f20600c525f526034600c20549051908152f35b9050346101445760e03660031901126101445761019f610956565b6101a761096c565b60443590606435916084359460ff86168603610144577f0000000000000000000000000000000000000000000000000000000000000000938415610332575b8042116103265781519460018060a01b03809716968795169765383775081901600e52855f5260c060209788600c2094855480957f8b73c3c69bb8fe3d512ecc4cf759cc79239f7b179b0ffacaa9a75d522b39400f84528b84019081528d8985017fc89efdaa54c0f20c7adf612882df0950f5a951637e0307cdcb4c672f298b8bc68152606086019c8d469052608087019330855260a08820602e527f6e71edae12b1b97f4d1f60370fef10105fa2faae0126114a169c64845d6126c988525252898b525260a082015220604e526042602c205f5260ff16865260a435835260c435606052858060805f60015afa90873d510361031a577f8c5be1e5ebec7d5bd14f71427d1e84f3dd0314c0f7b2291e5b200ac8c7c3b92597989950019055866303faf4f960a51b1790526034602c2055a3005b8963ddafbaef5f52601cfd5b87631a15a3cc5f52601cfd5b935061033c610982565b60208151910120936101e6565b905034610144578060031936011261014457610363610956565b602435906387a211a2600c52335f5260209384600c20908154908185116103b7575083900390555f5282600c208181540190558252600c5160601c335f80516020610a858339815191528480a35160018152f35b63f4d678b85f52601cfd5b90503461014457366003190112610144576103db610956565b6024356387a211a2600c52815f526020600c208054938483116103b75750815f940390556805345cdf77eb68f44c818154039055825260018060a01b03165f80516020610a85833981519152602083a3005b905034610144575f366003190112610144578051905f60018054908160011c9060018316928315610546575b60209384841081146105335783885290811561051757506001146104c1575b505050829003601f01601f191682019267ffffffffffffffff8411838510176104ae57508291826104aa92528261092c565b0390f35b604190634e487b7160e01b5f525260245ffd5b60015f908152929350837fb10e2d527612073b26eecdfd717e6a320cf44b4afac2b0732d9fcbe2b7fa0cf65b83851061050357505050508301015f8080610478565b8054888601830152930192849082016104ed565b60ff1916878501525050151560051b84010190505f8080610478565b602289634e487b7160e01b5f525260245ffd5b91607f1691610459565b346101445760203660031901126101445760209061056c610956565b6338377508600c525f5281600c20549051908152f35b346101445760203660031901126101445760209061059e610956565b6387a211a2600c525f5281600c20549051908152f35b90503461014457366003190112610144576105cd610956565b602435916805345cdf77eb68f44c8054918483019283106101395750556387a211a2600c525f526020600c20818154019055602052600c5160601c5f5f80516020610a85833981519152602080a3005b34610144575f366003190112610144576020907f000000000000000000000000000000000000000000000000000000000000000080156106be575b60a0908251907f8b73c3c69bb8fe3d512ecc4cf759cc79239f7b179b0ffacaa9a75d522b39400f8252848201527fc89efdaa54c0f20c7adf612882df0950f5a951637e0307cdcb4c672f298b8bc683820152466060820152306080820152209051908152f35b5060a06106c9610982565b8381519101209050610658565b34610144575f366003190112610144576020905160128152f35b34610144575f366003190112610144576020905160018152f35b90503461014457606036600319011261014457610725610956565b61072d61096c565b6044358260601b91602095338752600c93637f5e9f2081178552603485208054600181016107a7575b50506387a211a2178452868420908154908185116103b7575083900390555f5284822080548201905584525160601c906001600160a01b03165f80516020610a858339815191528480a35160018152f35b8086116107be5785900390556387a211a25f610756565b836313be252b5f52601cfd5b34610144575f366003190112610144576020906805345cdf77eb68f44c549051908152f35b3461014457806003193601126101445760209061080a610956565b602435908352637f5e9f20600c52335f52806034600c20555f52602c5160601c337f8c5be1e5ebec7d5bd14f71427d1e84f3dd0314c0f7b2291e5b200ac8c7c3b925845fa35160018152f35b915034610144575f366003190112610144575f805460018160011c9060018316928315610922575b60209384841081146105335783885290811561051757506001146108ce57505050829003601f01601f191682019267ffffffffffffffff8411838510176104ae57508291826104aa92528261092c565b5f808052929350837f290decd9548b62a8d60345a988386fc84ba6bc95484008f6362f93160ef3e5635b83851061090e57505050508301015f8080610478565b8054888601830152930192849082016108f8565b91607f169161087e565b602060409281835280519182918282860152018484015e5f828201840152601f01601f1916010190565b600435906001600160a01b038216820361014457565b602435906001600160a01b038216820361014457565b604051905f805460018160011c9060018316928315610a7a575b6020938484108114610a6657838852908115610a4a57506001146109f6575b505050829003601f01601f1916820167ffffffffffffffff8111838210176109e257604052565b634e487b7160e01b5f52604160045260245ffd5b5f808052929350837f290decd9548b62a8d60345a988386fc84ba6bc95484008f6362f93160ef3e5635b838510610a3657505050508301015f80806109bb565b805488860183015293019284908201610a20565b60ff1916878501525050151560051b84010190505f80806109bb565b634e487b7160e01b5f52602260045260245ffd5b91607f169161099c56feddf252ad1be2c89b69c2b068fc378daa952ba7f163c4a11628f55a4df523b3efa164736f6c6343000819000a","linkReferences":{}},"methodIdentifiers":{"deployMockERC20(string,string)":"ee029322","deployerNonce(address)":"8b415158","getDeployParameters()":"04889e26","getNextTokenAddress(address)":"ec91d196","mockERC20InitCodeHash()":"9ca49bf2","mockERC20InitCodeStorage()":"ecb5d6c4"},"id":42}