{"abi":[{"type":"constructor","inputs":[],"stateMutability":"nonpayable"},{"type":"function","name":"DEFAULT_ADMIN_ROLE","inputs":[],"outputs":[{"name":"","type":"bytes32","internalType":"bytes32"}],"stateMutability":"view"},{"type":"function","name":"OPERATOR_ROLE","inputs":[],"outputs":[{"name":"","type":"bytes32","internalType":"bytes32"}],"stateMutability":"view"},{"type":"function","name":"SENDER_ADDER_ROLE","inputs":[],"outputs":[{"name":"","type":"bytes32","internalType":"bytes32"}],"stateMutability":"view"},{"type":"function","name":"acceptDefaultAdminTransfer","inputs":[],"outputs":[],"stateMutability":"nonpayable"},{"type":"function","name":"addAllowedPatterns","inputs":[{"name":"patterns","type":"uint216[]","internalType":"uint216[]"}],"outputs":[],"stateMutability":"nonpayable"},{"type":"function","name":"addAllowedSender","inputs":[{"name":"senders","type":"address[]","internalType":"address[]"}],"outputs":[],"stateMutability":"nonpayable"},{"type":"function","name":"addAllowedSenderOnChain","inputs":[{"name":"sender","type":"address","internalType":"address"}],"outputs":[],"stateMutability":"nonpayable"},{"type":"function","name":"beginDefaultAdminTransfer","inputs":[{"name":"newAdmin","type":"address","internalType":"address"}],"outputs":[],"stateMutability":"nonpayable"},{"type":"function","name":"cancelDefaultAdminTransfer","inputs":[],"outputs":[],"stateMutability":"nonpayable"},{"type":"function","name":"changeDefaultAdminDelay","inputs":[{"name":"newDelay","type":"uint48","internalType":"uint48"}],"outputs":[],"stateMutability":"nonpayable"},{"type":"function","name":"configureRules","inputs":[{"name":"rules","type":"bytes8","internalType":"bytes8"}],"outputs":[],"stateMutability":"nonpayable"},{"type":"function","name":"deactivateAllRules","inputs":[],"outputs":[],"stateMutability":"nonpayable"},{"type":"function","name":"defaultAdmin","inputs":[],"outputs":[{"name":"","type":"address","internalType":"address"}],"stateMutability":"view"},{"type":"function","name":"defaultAdminDelay","inputs":[],"outputs":[{"name":"","type":"uint48","internalType":"uint48"}],"stateMutability":"view"},{"type":"function","name":"defaultAdminDelayIncreaseWait","inputs":[],"outputs":[{"name":"","type":"uint48","internalType":"uint48"}],"stateMutability":"view"},{"type":"function","name":"getRoleAdmin","inputs":[{"name":"role","type":"bytes32","internalType":"bytes32"}],"outputs":[{"name":"","type":"bytes32","internalType":"bytes32"}],"stateMutability":"view"},{"type":"function","name":"grantRole","inputs":[{"name":"role","type":"bytes32","internalType":"bytes32"},{"name":"account","type":"address","internalType":"address"}],"outputs":[],"stateMutability":"nonpayable"},{"type":"function","name":"grantSenderAdderRole","inputs":[{"name":"newSenderAdder","type":"address","internalType":"address"}],"outputs":[],"stateMutability":"nonpayable"},{"type":"function","name":"hasRole","inputs":[{"name":"role","type":"bytes32","internalType":"bytes32"},{"name":"account","type":"address","internalType":"address"}],"outputs":[{"name":"","type":"bool","internalType":"bool"}],"stateMutability":"view"},{"type":"function","name":"owner","inputs":[],"outputs":[{"name":"","type":"address","internalType":"address"}],"stateMutability":"view"},{"type":"function","name":"pendingDefaultAdmin","inputs":[],"outputs":[{"name":"newAdmin","type":"address","internalType":"address"},{"name":"schedule","type":"uint48","internalType":"uint48"}],"stateMutability":"view"},{"type":"function","name":"pendingDefaultAdminDelay","inputs":[],"outputs":[{"name":"newDelay","type":"uint48","internalType":"uint48"},{"name":"schedule","type":"uint48","internalType":"uint48"}],"stateMutability":"view"},{"type":"function","name":"removeAllowedPatterns","inputs":[{"name":"patterns","type":"uint216[]","internalType":"uint216[]"}],"outputs":[],"stateMutability":"nonpayable"},{"type":"function","name":"removeAllowedSender","inputs":[{"name":"senders","type":"address[]","internalType":"address[]"}],"outputs":[],"stateMutability":"nonpayable"},{"type":"function","name":"renounceRole","inputs":[{"name":"role","type":"bytes32","internalType":"bytes32"},{"name":"account","type":"address","internalType":"address"}],"outputs":[],"stateMutability":"nonpayable"},{"type":"function","name":"revokeRole","inputs":[{"name":"role","type":"bytes32","internalType":"bytes32"},{"name":"account","type":"address","internalType":"address"}],"outputs":[],"stateMutability":"nonpayable"},{"type":"function","name":"rollbackDefaultAdminDelay","inputs":[],"outputs":[],"stateMutability":"nonpayable"},{"type":"function","name":"sphereXValidateInternalPost","inputs":[{"name":"num","type":"int256","internalType":"int256"},{"name":"gas","type":"uint256","internalType":"uint256"},{"name":"valuesBefore","type":"bytes32[]","internalType":"bytes32[]"},{"name":"valuesAfter","type":"bytes32[]","internalType":"bytes32[]"}],"outputs":[],"stateMutability":"nonpayable"},{"type":"function","name":"sphereXValidateInternalPre","inputs":[{"name":"num","type":"int256","internalType":"int256"}],"outputs":[{"name":"result","type":"bytes32[]","internalType":"bytes32[]"}],"stateMutability":"nonpayable"},{"type":"function","name":"sphereXValidatePost","inputs":[{"name":"num","type":"int256","internalType":"int256"},{"name":"gas","type":"uint256","internalType":"uint256"},{"name":"valuesBefore","type":"bytes32[]","internalType":"bytes32[]"},{"name":"valuesAfter","type":"bytes32[]","internalType":"bytes32[]"}],"outputs":[],"stateMutability":"nonpayable"},{"type":"function","name":"sphereXValidatePre","inputs":[{"name":"num","type":"int256","internalType":"int256"},{"name":"sender","type":"address","internalType":"address"},{"name":"data","type":"bytes","internalType":"bytes"}],"outputs":[{"name":"result","type":"bytes32[]","internalType":"bytes32[]"}],"stateMutability":"nonpayable"},{"type":"function","name":"supportsInterface","inputs":[{"name":"interfaceId","type":"bytes4","internalType":"bytes4"}],"outputs":[{"name":"","type":"bool","internalType":"bool"}],"stateMutability":"view"},{"type":"event","name":"AddedAllowedPatterns","inputs":[{"name":"patterns","type":"uint216[]","indexed":false,"internalType":"uint216[]"}],"anonymous":false},{"type":"event","name":"AddedAllowedSenderOnchain","inputs":[{"name":"sender","type":"address","indexed":false,"internalType":"address"}],"anonymous":false},{"type":"event","name":"AddedAllowedSenders","inputs":[{"name":"senders","type":"address[]","indexed":false,"internalType":"address[]"}],"anonymous":false},{"type":"event","name":"ConfigureRules","inputs":[{"name":"oldRules","type":"bytes8","indexed":false,"internalType":"bytes8"},{"name":"newRules","type":"bytes8","indexed":false,"internalType":"bytes8"}],"anonymous":false},{"type":"event","name":"DefaultAdminDelayChangeCanceled","inputs":[],"anonymous":false},{"type":"event","name":"DefaultAdminDelayChangeScheduled","inputs":[{"name":"newDelay","type":"uint48","indexed":false,"internalType":"uint48"},{"name":"effectSchedule","type":"uint48","indexed":false,"internalType":"uint48"}],"anonymous":false},{"type":"event","name":"DefaultAdminTransferCanceled","inputs":[],"anonymous":false},{"type":"event","name":"DefaultAdminTransferScheduled","inputs":[{"name":"newAdmin","type":"address","indexed":true,"internalType":"address"},{"name":"acceptSchedule","type":"uint48","indexed":false,"internalType":"uint48"}],"anonymous":false},{"type":"event","name":"RemovedAllowedPatterns","inputs":[{"name":"patterns","type":"uint216[]","indexed":false,"internalType":"uint216[]"}],"anonymous":false},{"type":"event","name":"RemovedAllowedSenders","inputs":[{"name":"senders","type":"address[]","indexed":false,"internalType":"address[]"}],"anonymous":false},{"type":"event","name":"RoleAdminChanged","inputs":[{"name":"role","type":"bytes32","indexed":true,"internalType":"bytes32"},{"name":"previousAdminRole","type":"bytes32","indexed":true,"internalType":"bytes32"},{"name":"newAdminRole","type":"bytes32","indexed":true,"internalType":"bytes32"}],"anonymous":false},{"type":"event","name":"RoleGranted","inputs":[{"name":"role","type":"bytes32","indexed":true,"internalType":"bytes32"},{"name":"account","type":"address","indexed":true,"internalType":"address"},{"name":"sender","type":"address","indexed":true,"internalType":"address"}],"anonymous":false},{"type":"event","name":"RoleRevoked","inputs":[{"name":"role","type":"bytes32","indexed":true,"internalType":"bytes32"},{"name":"account","type":"address","indexed":true,"internalType":"address"},{"name":"sender","type":"address","indexed":true,"internalType":"address"}],"anonymous":false},{"type":"event","name":"TxStartedAtIrregularDepth","inputs":[],"anonymous":false}],"bytecode":{"object":"0x60806040908082523461046d57331561042b5750600180546001600160d01b031660e160d41b1781556002546001600160a01b0381166103d257339060018060a01b031916176002555f80526020905f8252825f20335f52825260ff835f2054161561039e575b82516001600160401b039290606081018481118282101761029c57839186918252828152600160e81b848201520152650100000100016006557f97667070c54ef182b0f5858b034beac1b6f3089aa2d3188bb1e8929f4fa9b92992835f525f825282855f200154805f52855f20335f52835260ff865f20541615610147575050825f525f8152835f20335f52815260ff845f2054161561010f575b835161211590816104838239f35b825f525f8152835f2090335f5252825f209060ff19825416179055339033905f805160206125988339815191525f80a45f8080610101565b8591945033825191606083018381108882111761029c578452602a8352848301918436843783511561034957603083538351871015610349576078602185015360295b87811161035d57506102b05794835195608087018781108982111761029c578552604287528587019160603684378751156103495760308353875181101561034957607860218901536041905b8082116102f25750506102b0579083929160679451968792878401947f416363657373436f6e74726f6c3a206163636f756e74200000000000000000008652518091603786015e8301907001034b99036b4b9b9b4b733903937b6329607d1b6037830152518092604883015e015f604882015203602881018652601f1993849101168501958587109087111761029c57604494869485601f945262461bcd60e51b865260048601525180918160248701528686015e5f85828601015201168101030190fd5b634e487b7160e01b5f52604160045260245ffd5b60648585519062461bcd60e51b825280600483015260248201527f537472696e67733a20686578206c656e67746820696e73756666696369656e746044820152fd5b9091600f81166010811015610349576f181899199a1a9b1b9c1cb0b131b232b360811b901a610321848b610471565b5360041c918015610335575f1901906101d7565b634e487b7160e01b5f52601160045260245ffd5b634e487b7160e01b5f52603260045260245ffd5b90600f81166010811015610349576f181899199a1a9b1b9c1cb0b131b232b360811b901a61038b8387610471565b5360041c908015610335575f190161018a565b5f80525f8252825f20335f528252825f208160ff1982541617905533335f5f805160206125988339815191528180a4610066565b825162461bcd60e51b815260206004820152602c60248201527f416363657373436f6e74726f6c3a2064656661756c742061646d696e20616c7260448201526b1958591e4819dc985b9d195960a21b6064820152608490fd5b62461bcd60e51b815260206004820152601e60248201527f416363657373436f6e74726f6c3a20302064656661756c742061646d696e00006044820152606490fd5b5f80fd5b90815181101561034957016020019056fe6080604090808252600480361015610015575f80fd5b5f3560e01c91826301ffc9a7146113d457508163022d63fb146113b7578163024e4718146112ea578163045390621461121d57816304e6279a146112025781630aa6220b1461117057816311ede2e614611082578163248a9ca3146110595781632f2ff15d14610f4d57816336568abe14610dce5781633e88494314610daf5781634320d34f14610d7557816345a4ba6b14610ca5578163634e93da14610bcb578163649a5ec714610a305781637a44fd9d146109a257816380a0b6da146108cd57816384ef8ffc1461083f5781638925ca5a146108675781638da5cb5b1461083f57816391d14854146107fc578163a121be8a1461072a578163a1eda53c146106b7578163a217fddf1461069d578163b8cd969c1461059c578163cc8463c814610571578163cefc14291461030a578163cf6eefb7146102d3578163d547741f1461022857508063d602b9fd146101c7578063f0bd9468146101aa5763f5b541a614610180575f80fd5b346101a6575f3660031901126101a657602090515f805160206120e98339815191528152f35b5f80fd5b346101a6576101c56101bb3661148a565b5050505050611a7f565b005b346101a6575f3660031901126101a6576101df611bdc565b600180546001600160d01b0319811690915560a01c65ffffffffffff1661020257005b7f8886ebfc4259abdbc16601dd8fb5678e54878f47b3c34836cfc51154a96051095f80a1005b9050346101a657816003193601126101a65780356102446114f2565b91811561026a575061026560016101c594835f525f6020525f200154611d9b565b611ee2565b608490602085519162461bcd60e51b8352820152603760248201527f416363657373436f6e74726f6c3a2063616e2774206469726563746c7920726560448201527f766f6b652064656661756c742061646d696e20726f6c650000000000000000006064820152fd5b82346101a6575f3660031901126101a65760015481516001600160a01b038216815260a09190911c65ffffffffffff166020820152f35b82346101a6575f3660031901126101a6576001546001600160a01b0392908316330361051e576001546001600160a01b038116919060a01c65ffffffffffff168015159081610514575b50156104c05760025493808516926bffffffffffffffffffffffff60a01b8096166002555f80526020935f8552855f20815f52855260ff865f20541661047a575b506002549282841661042257501693849116176002555f80525f8152815f20835f52815260ff825f205416156103d8575b600180546001600160d01b0319169055005b5f80525f8152815f2090835f52525f20600160ff1982541617905533905f7f2f8788117e7eff1d82e926ec794901d17c78024a50270940304540a733656f0d8180a48080806103c6565b855162461bcd60e51b8152908101859052602c60248201527f416363657373436f6e74726f6c3a2064656661756c742061646d696e20616c7260448201526b1958591e4819dc985b9d195960a21b6064820152608490fd5b5f80525f8552855f20815f528552855f2060ff19815416905533905f7ff6391f5c32d9c69d2a47ea670b442974b53935d1edc7fd64eb21e047a839171b8180a486610395565b608490602084519162461bcd60e51b8352820152602860248201527f416363657373436f6e74726f6c3a207472616e736665722064656c6179206e6f6044820152671d081c185cdcd95960c21b6064820152fd5b9050421185610354565b6020608492519162461bcd60e51b8352820152602860248201527f416363657373436f6e74726f6c3a2070656e64696e672061646d696e206d75736044820152671d081858d8d95c1d60c21b6064820152fd5b82346101a6575f3660031901126101a65760209065ffffffffffff610594611a46565b915191168152f35b82346101a65760203660031901126101a6576001600160c01b0319823581811681036101a6575f805160206120e98339815191525f525f602052825f20335f526020526105ee60ff845f205416611543565b60c01c90600380831614610649577f35d4bdc972b8d2c63d5243d90057ff81f618c8d583493cd73cdc182fd684d6589350600354916001600160401b0319831617806003558184519360c01b16835260c01b166020820152a1005b825162461bcd60e51b8152602081860152602860248201527f53706865726558206572726f723a20696c6c6567616c2072756c657320636f6d6044820152673134b730ba34b7b760c11b6064820152608490fd5b82346101a6575f3660031901126101a657602090515f8152f35b82346101a6575f3660031901126101a6576002548060d01c9081151580610720575b156107135765ffffffffffff61070f9160a01c1691925b5165ffffffffffff928316815292909116602083015281906040820190565b0390f35b50505f61070f5f926106f0565b50428210156106d9565b82346101a657602090816003193601126101a6576107466114dc565b905f805160206120e98339815191525f525f8352805f20335f52835261077160ff825f205416611543565b7f460586411c358994ccf85e825f5c4a921e754a35d68c0fc3a73566e9474fc2bd92835f525f8152815f209260018060a01b031692835f52815260ff825f205416156107b957005b835f525f8152815f2090835f52525f20600160ff1982541617905533917f2f8788117e7eff1d82e926ec794901d17c78024a50270940304540a733656f0d5f80a4005b82346101a657806003193601126101a6576020916108186114f2565b90355f525f8352815f209060018060a01b03165f52825260ff815f20541690519015158152f35b82346101a6575f3660031901126101a65760025490516001600160a01b039091168152602090f35b82346101a65760603660031901126101a6576108816114f2565b506044356001600160401b038082116101a657366023830112156101a657818401359081116101a657369101602401116101a6576108c261070f923561188a565b905191829182611508565b82346101a65760209160206003193601126101a6578035906001600160401b0382116101a6576108ff9136910161145a565b9190925f805160206120e98339815191525f525f602052815f20335f5260205261092e60ff835f205416611543565b5f5b83811061096c5782517f60f43c5d70cdb8687221ed14f818268b280bd8e725bfd21a8afa20c3eac8859a9080610967878983611628565b0390a1005b6001906001600160d81b0361098a61098583888a61158e565b611614565b165f5260058352835f2060ff19815416905501610930565b82346101a6575f3660031901126101a6577f35d4bdc972b8d2c63d5243d90057ff81f618c8d583493cd73cdc182fd684d658905f805160206120e98339815191525f525f602052805f20335f52602052610a0160ff825f205416611543565b6003546001600160401b031981166003558151906001600160401b0360c01b9060c01b1681525f6020820152a1005b82346101a65760203660031901126101a657813565ffffffffffff8082168083036101a657610a5d611bdc565b610a6642611f8c565b9482610a70611a46565b1680831115610b7d5750507ff1038c18cf84a56e432fdbfaf746924b7ea511dfe03a6506a0ceba4888788d9b9461096792610abb92620697808082105f14610b7657505b1690611ec8565b926002548060d01c80610b1a575b5050600280546001600160a01b031660a085901b65ffffffffffff60a01b161760d086901b6001600160d01b0319161790555165ffffffffffff928316815292909116602083015281906040820190565b421115610b4c57600180546001600160d01b031660309290921b6001600160d01b0319169190911790555b8580610ac9565b507f2b1fa2edafe6f7b9e97c1a9e0c3660e645beb2dcaa2d45bdbf9beaf5472e1ec55f80a1610b45565b9050610ab4565b91909103918211610bb85750610abb7ff1038c18cf84a56e432fdbfaf746924b7ea511dfe03a6506a0ceba4888788d9b946109679290611ec8565b601190634e487b7160e01b5f525260245ffd5b82346101a65760203660031901126101a6577f3377dc44241e779dd06afab5b788a35ca5f3b778836e2990bdb26a2a4b2e5ed66020610c086114dc565b610c10611bdc565b610c2a610c1c42611f8c565b610c24611a46565b90611ec8565b600180546001600160d01b031981166001600160a01b039490941693841760a084811b65ffffffffffff60a01b16919091179092559295919265ffffffffffff92911c8216610c7c575b5191168152a2005b7f8886ebfc4259abdbc16601dd8fb5678e54878f47b3c34836cfc51154a96051095f80a1610c74565b9050346101a65760209160206003193601126101a65781356001600160401b0381116101a657610cd8903690840161145a565b9390925f805160206120e98339815191525f525f602052825f20335f52602052610d0760ff845f205416611543565b5f5b858110610d405783517f38bf8ff81f4ef76eb9b7ec6ceb193303f52abb512c5b36fa6f532c24fa974de190806109678989836115c6565b6001906001600160a01b03610d5e610d59838a8a61158e565b6115b2565b165f52828452845f2060ff19815416905501610d09565b82346101a6575f3660031901126101a657602090517f460586411c358994ccf85e825f5c4a921e754a35d68c0fc3a73566e9474fc2bd8152f35b82346101a65760203660031901126101a6576108c261070f923561188a565b9050346101a657816003193601126101a6578035610dea6114f2565b91811580610f36575b610e6d575b336001600160a01b03841603610e12576101c58383611ee2565b608490602085519162461bcd60e51b8352820152602f60248201527f416363657373436f6e74726f6c3a2063616e206f6e6c792072656e6f756e636560448201526e103937b632b9903337b91039b2b63360891b6064820152fd5b6001546001600160a01b038116159060a01c65ffffffffffff1681610f24575b81610f11575b5015610eb0576001805465ffffffffffff60a01b19169055610df8565b608490602085519162461bcd60e51b8352820152603560248201527f416363657373436f6e74726f6c3a206f6e6c792063616e2072656e6f756e636560448201527420696e2074776f2064656c6179656420737465707360581b6064820152fd5b905065ffffffffffff429116105f610e93565b65ffffffffffff811615159150610e8d565b506002546001600160a01b03848116911614610df3565b9050346101a657816003193601126101a657803591610f6a6114f2565b918315610ff85750825f525f602052610f886001825f200154611d9b565b5f83815260208181528282206001600160a01b039094168083529390528190205460ff1615610fb357005b825f525f602052805f20825f526020525f20600160ff1982541617905533917f2f8788117e7eff1d82e926ec794901d17c78024a50270940304540a733656f0d5f80a4005b6020608492519162461bcd60e51b8352820152603660248201527f416363657373436f6e74726f6c3a2063616e2774206469726563746c79206772604482015275616e742064656661756c742061646d696e20726f6c6560501b6064820152fd5b82346101a65760203660031901126101a657602091355f525f82526001815f2001549051908152f35b9050346101a657602090816003193601126101a65761109f6114dc565b7f460586411c358994ccf85e825f5c4a921e754a35d68c0fc3a73566e9474fc2bd5f525f8352835f20335f52835260ff845f20541615611122576001600160a01b03165f81815291835290839020805460ff1916600117905591519182527fe952bc401d6fb727e0844c82c96c017ed11b5bc6a213b3b45a0413cd37cd272091a1005b50915162461bcd60e51b8152918201526024808201527f53706865726558206572726f723a2073656e64657220616464657220726571756044820152631a5c995960e21b6064820152608490fd5b346101a6575f3660031901126101a657611188611bdc565b6002548060d01c806111a6575b600280546001600160a01b03169055005b4211156111d857600180546001600160d01b031660309290921b6001600160d01b0319169190911790555b8080611195565b507f2b1fa2edafe6f7b9e97c1a9e0c3660e645beb2dcaa2d45bdbf9beaf5472e1ec55f80a16111d1565b346101a6576101c56112133661148a565b5050505050611676565b82346101a65760209160206003193601126101a6578035906001600160401b0382116101a65761124f9136910161145a565b9190925f805160206120e98339815191525f525f602052815f20335f5260205261127e60ff835f205416611543565b5f5b8381106112b75782517f12b3c3c8e9f31199ca2ce68c8eea4b65d2f3e2ac799aeea1e05e8876b814261b9080610967878983611628565b6001906001600160d81b036112d061098583888a61158e565b165f5260058352835f208260ff1982541617905501611280565b9050346101a65760209160206003193601126101a65781356001600160401b0381116101a65761131d903690840161145a565b9390925f805160206120e98339815191525f525f602052825f20335f5260205261134c60ff845f205416611543565b5f5b8581106113855783517f0adaca063849be3759cb543670f0440af048e0710f921ab27965a7c73095228f90806109678989836115c6565b6001906001600160a01b0361139e610d59838a8a61158e565b165f52828452845f208260ff198254161790550161134e565b82346101a6575f3660031901126101a65760209051620697808152f35b90346101a65760203660031901126101a657359063ffffffff60e01b82168092036101a6576020916329f20dd560e11b8114908115611415575b5015158152f35b6318a4c3c360e11b81149150811561142f575b508361140e565b637965db0b60e01b811491508115611449575b5083611428565b6301ffc9a760e01b14905083611442565b9181601f840112156101a6578235916001600160401b0383116101a6576020808501948460051b0101116101a657565b60806003198201126101a65760043591602435916001600160401b03916044358381116101a657826114be9160040161145a565b939093926064359182116101a6576114d89160040161145a565b9091565b600435906001600160a01b03821682036101a657565b602435906001600160a01b03821682036101a657565b60209060206040818301928281528551809452019301915f5b82811061152f575050505090565b835185529381019392810192600101611521565b1561154a57565b606460405162461bcd60e51b815260206004820152602060248201527f53706865726558206572726f723a206f70657261746f722072657175697265646044820152fd5b919081101561159e5760051b0190565b634e487b7160e01b5f52603260045260245ffd5b356001600160a01b03811681036101a65790565b90916040602092826020820160208352520192915f5b8281106115ea575050505090565b9091929384359060018060a01b0382168092036101a65790815282019382019291906001016115dc565b356001600160d81b03811681036101a65790565b90916040602092826020820160208352520192915f5b82811061164c575050505090565b9091929384359060018060d81b0382168092036101a657908152820193820192919060010161163e565b60035460c01b6001600160c01b031981161561183b57335f526020600481526040926116a760ff855f20541661183f565b5f8112156117eb576116b7611b99565b848101805186518581019485526001600160d81b039182166020860152919692939092916116f281604084015b03601f198101835282611b78565b51902060281c865261ffff918284511680156117d7575f1901831680855260011461176d575b50509064ffffff000092918151169360018514908161175d575b50611754575b015160d81c169164ffffffffff19905160281b16911717600655565b60018552611738565b600160c01b16151590505f611732565b8651165f526005845260ff815f205416156117885780611718565b5162461bcd60e51b8152600481018490526024808201527f53706865726558206572726f723a20646973616c6c6f776564207478207061746044820152633a32b93760e11b6064820152608490fd5b634e487b7160e01b5f52601160045260245ffd5b835162461bcd60e51b8152600481018390526024808201527f53706865726558206572726f723a206578706563746564206e65676174697665604482015263206e756d60e01b6064820152608490fd5b5050565b1561184657565b606460405162461bcd60e51b815260206004820152602060248201527f53706865726558206572726f723a20646973616c6c6f7765642073656e6465726044820152fd5b60035460609060c01b6001600160c01b03191615611a415750335f5260046020526040906118bd60ff835f20541661183f565b5f8113156119f1576118cd611b99565b90825190602082019143835232858201524260608201524460808201526080815260a081018181106001600160401b038211176119dd57855262ffffff60e81b9283915190201660208401928351168103611994575b5083830180519451602081019283526001600160d81b0390951660408601529361195081606081016116e4565b51902060281c835261ffff9081835116918083146117d757600164ffffff00009301168093525160d81c169164ffffffffff19905160281b16911717600655606090565b6001858501528252600161ffff845116036119b0575b5f611923565b7fde7e0b5e37408fa8528ed22c296deb2a2999d19087661129ce99e5115cce93285f80a1600183526119aa565b634e487b7160e01b5f52604160045260245ffd5b815162461bcd60e51b8152602060048201526024808201527f53706865726558206572726f723a20657870656374656420706f736974697665604482015263206e756d60e01b6064820152608490fd5b919050565b6002548060d01c8015159081611a75575b5015611a6b5760a01c65ffffffffffff1690565b5060015460d01c90565b905042115f611a57565b60035460c01b6001600160c01b031981161561183b57335f52602060048152604092611ab060ff855f20541661183f565b5f8112156117eb57611ac0611b99565b848101805186518581019485526001600160d81b03918216602086015291969293909291611af181604084016116e4565b51902060281c865261ffff918284511680156117d75783905f19011684528651165f526005845260ff815f2054161561178857509064ffffff000092918151169360018514908161175d575061175457015160d81c169164ffffffffff19905160281b16911717600655565b608081019081106001600160401b038211176119dd57604052565b90601f801991011681019081106001600160401b038211176119dd57604052565b60405190606082018281106001600160401b038211176119dd5760405281604060065461ffff8116835262ffffff60e81b8160d81b16602084015260281c910152565b335f9081527fad3228b676f7d3cd4284a5443f17f1962b36e491b30a40b2405849e597ba5fb560209081526040918290205460ff1615611c1a575050565b611c2333612004565b905f918351611c3181611b5d565b6042815282810193606036863781511561159e576030855381516001906001101561159e57607860218401536041905b808211611d58575050611d165793611ce26048604495968351978891878084019776020b1b1b2b9b9a1b7b73a3937b61d1030b1b1b7bab73a1604d1b8952805191829101603786015e8301907001034b99036b4b9b9b4b733903937b6329607d1b60378301525180928583015e015f83820152036028810188520186611b78565b5193849262461bcd60e51b845260048401525180918160248501528484015e5f828201840152601f01601f19168101030190fd5b60648386519062461bcd60e51b825280600483015260248201527f537472696e67733a20686578206c656e67746820696e73756666696369656e746044820152fd5b9091600f8116601081101561159e576f181899199a1a9b1b9c1cb0b131b232b360811b901a611d878486611ff3565b5360041c9180156117d7575f190190611c61565b805f526020905f8252604091825f20335f52815260ff835f20541615611dc057505050565b611dc933612004565b8351611dd481611b5d565b6042815282810193606036863781511561159e576030855381516001906001101561159e57607860218401536041905b808211611e85575050611d165793611ce26048604495968351978891878084019776020b1b1b2b9b9a1b7b73a3937b61d1030b1b1b7bab73a1604d1b8952805191829101603786015e8301907001034b99036b4b9b9b4b733903937b6329607d1b60378301525180928583015e015f83820152036028810188520186611b78565b9091600f8116601081101561159e576f181899199a1a9b1b9c1cb0b131b232b360811b901a611eb48486611ff3565b5360041c9180156117d7575f190190611e04565b91909165ffffffffffff808094169116019182116117d757565b90811580611f75575b611f60575b815f525f60205260405f209060018060a01b031690815f5260205260ff60405f205416611f1b575050565b815f525f60205260405f20815f5260205260405f2060ff19815416905533917ff6391f5c32d9c69d2a47ea670b442974b53935d1edc7fd64eb21e047a839171b5f80a4565b600280546001600160a01b0319169055611ef0565b506002546001600160a01b03828116911614611eeb565b65ffffffffffff90818111611f9f571690565b60405162461bcd60e51b815260206004820152602660248201527f53616665436173743a2076616c756520646f65736e27742066697420696e203460448201526538206269747360d01b6064820152608490fd5b90815181101561159e570160200190565b60405190606082018281106001600160401b038211176119dd57604052602a825260208201604036823782511561159e576030905381516001906001101561159e57607860218401536029905b8082116120a55750506120615790565b606460405162461bcd60e51b815260206004820152602060248201527f537472696e67733a20686578206c656e67746820696e73756666696369656e746044820152fd5b9091600f8116601081101561159e576f181899199a1a9b1b9c1cb0b131b232b360811b901a6120d48486611ff3565b5360041c9180156117d7575f19019061205156fe97667070c54ef182b0f5858b034beac1b6f3089aa2d3188bb1e8929f4fa9b929a164736f6c6343000819000a2f8788117e7eff1d82e926ec794901d17c78024a50270940304540a733656f0d","linkReferences":{}},"methodIdentifiers":{"DEFAULT_ADMIN_ROLE()":"a217fddf","OPERATOR_ROLE()":"f5b541a6","SENDER_ADDER_ROLE()":"4320d34f","acceptDefaultAdminTransfer()":"cefc1429","addAllowedPatterns(uint216[])":"04539062","addAllowedSender(address[])":"024e4718","addAllowedSenderOnChain(address)":"11ede2e6","beginDefaultAdminTransfer(address)":"634e93da","cancelDefaultAdminTransfer()":"d602b9fd","changeDefaultAdminDelay(uint48)":"649a5ec7","configureRules(bytes8)":"b8cd969c","deactivateAllRules()":"7a44fd9d","defaultAdmin()":"84ef8ffc","defaultAdminDelay()":"cc8463c8","defaultAdminDelayIncreaseWait()":"022d63fb","getRoleAdmin(bytes32)":"248a9ca3","grantRole(bytes32,address)":"2f2ff15d","grantSenderAdderRole(address)":"a121be8a","hasRole(bytes32,address)":"91d14854","owner()":"8da5cb5b","pendingDefaultAdmin()":"cf6eefb7","pendingDefaultAdminDelay()":"a1eda53c","removeAllowedPatterns(uint216[])":"80a0b6da","removeAllowedSender(address[])":"45a4ba6b","renounceRole(bytes32,address)":"36568abe","revokeRole(bytes32,address)":"d547741f","rollbackDefaultAdminDelay()":"0aa6220b","sphereXValidateInternalPost(int256,uint256,bytes32[],bytes32[])":"04e6279a","sphereXValidateInternalPre(int256)":"3e884943","sphereXValidatePost(int256,uint256,bytes32[],bytes32[])":"f0bd9468","sphereXValidatePre(int256,address,bytes)":"8925ca5a","supportsInterface(bytes4)":"01ffc9a7"},"id":98}