{"abi":[{"type":"constructor","inputs":[{"name":"_archController","type":"address","internalType":"address"},{"name":"_hooksFactory","type":"address","internalType":"address"}],"stateMutability":"nonpayable"},{"type":"function","name":"archController","inputs":[],"outputs":[{"name":"","type":"address","internalType":"contract WildcatArchController"}],"stateMutability":"view"},{"type":"function","name":"getAllHooksTemplatesForBorrower","inputs":[{"name":"borrower","type":"address","internalType":"address"}],"outputs":[{"name":"data","type":"tuple[]","internalType":"struct HooksTemplateData[]","components":[{"name":"hooksTemplate","type":"address","internalType":"address"},{"name":"fees","type":"tuple","internalType":"struct FeeConfiguration","components":[{"name":"feeRecipient","type":"address","internalType":"address"},{"name":"protocolFeeBips","type":"uint16","internalType":"uint16"},{"name":"originationFeeToken","type":"tuple","internalType":"struct TokenMetadata","components":[{"name":"token","type":"address","internalType":"address"},{"name":"name","type":"string","internalType":"string"},{"name":"symbol","type":"string","internalType":"string"},{"name":"decimals","type":"uint256","internalType":"uint256"},{"name":"isMock","type":"bool","internalType":"bool"}]},{"name":"originationFeeAmount","type":"uint256","internalType":"uint256"},{"name":"borrowerOriginationFeeBalance","type":"uint256","internalType":"uint256"},{"name":"borrowerOriginationFeeApproval","type":"uint256","internalType":"uint256"}]},{"name":"exists","type":"bool","internalType":"bool"},{"name":"enabled","type":"bool","internalType":"bool"},{"name":"index","type":"uint24","internalType":"uint24"},{"name":"name","type":"string","internalType":"string"},{"name":"totalMarkets","type":"uint256","internalType":"uint256"}]}],"stateMutability":"view"},{"type":"function","name":"getAllMarketsDataForHooksTemplate","inputs":[{"name":"hooksTemplate","type":"address","internalType":"address"}],"outputs":[{"name":"data","type":"tuple[]","internalType":"struct MarketData[]","components":[{"name":"marketToken","type":"tuple","internalType":"struct TokenMetadata","components":[{"name":"token","type":"address","internalType":"address"},{"name":"name","type":"string","internalType":"string"},{"name":"symbol","type":"string","internalType":"string"},{"name":"decimals","type":"uint256","internalType":"uint256"},{"name":"isMock","type":"bool","internalType":"bool"}]},{"name":"underlyingToken","type":"tuple","internalType":"struct TokenMetadata","components":[{"name":"token","type":"address","internalType":"address"},{"name":"name","type":"string","internalType":"string"},{"name":"symbol","type":"string","internalType":"string"},{"name":"decimals","type":"uint256","internalType":"uint256"},{"name":"isMock","type":"bool","internalType":"bool"}]},{"name":"hooksFactory","type":"address","internalType":"address"},{"name":"borrower","type":"address","internalType":"address"},{"name":"hooksConfig","type":"tuple","internalType":"struct MarketHooksData","components":[{"name":"hooksAddress","type":"address","internalType":"address"},{"name":"flags","type":"tuple","internalType":"struct HooksConfigData","components":[{"name":"useOnDeposit","type":"bool","internalType":"bool"},{"name":"useOnQueueWithdrawal","type":"bool","internalType":"bool"},{"name":"useOnExecuteWithdrawal","type":"bool","internalType":"bool"},{"name":"useOnTransfer","type":"bool","internalType":"bool"},{"name":"useOnBorrow","type":"bool","internalType":"bool"},{"name":"useOnRepay","type":"bool","internalType":"bool"},{"name":"useOnCloseMarket","type":"bool","internalType":"bool"},{"name":"useOnNukeFromOrbit","type":"bool","internalType":"bool"},{"name":"useOnSetMaxTotalSupply","type":"bool","internalType":"bool"},{"name":"useOnSetAnnualInterestAndReserveRatioBips","type":"bool","internalType":"bool"},{"name":"useOnSetProtocolFeeBips","type":"bool","internalType":"bool"}]},{"name":"kind","type":"uint8","internalType":"enum HooksInstanceKind"},{"name":"transferRequiresAccess","type":"bool","internalType":"bool"},{"name":"depositRequiresAccess","type":"bool","internalType":"bool"},{"name":"minimumDeposit","type":"uint128","internalType":"uint128"},{"name":"transfersDisabled","type":"bool","internalType":"bool"},{"name":"allowForceBuyBacks","type":"bool","internalType":"bool"},{"name":"withdrawalRequiresAccess","type":"bool","internalType":"bool"},{"name":"fixedTermEndTime","type":"uint32","internalType":"uint32"},{"name":"allowClosureBeforeTerm","type":"bool","internalType":"bool"},{"name":"allowTermReduction","type":"bool","internalType":"bool"}]},{"name":"withdrawalBatchDuration","type":"uint256","internalType":"uint256"},{"name":"feeRecipient","type":"address","internalType":"address"},{"name":"delinquencyFeeBips","type":"uint256","internalType":"uint256"},{"name":"delinquencyGracePeriod","type":"uint256","internalType":"uint256"},{"name":"hooks","type":"tuple","internalType":"struct HooksInstanceData","components":[{"name":"hooksAddress","type":"address","internalType":"address"},{"name":"borrower","type":"address","internalType":"address"},{"name":"name","type":"string","internalType":"string"},{"name":"kind","type":"uint8","internalType":"enum HooksInstanceKind"},{"name":"hooksTemplate","type":"address","internalType":"address"},{"name":"hooksTemplateName","type":"string","internalType":"string"},{"name":"constraints","type":"tuple","internalType":"struct MarketParameterConstraints","components":[{"name":"minimumDelinquencyGracePeriod","type":"uint32","internalType":"uint32"},{"name":"maximumDelinquencyGracePeriod","type":"uint32","internalType":"uint32"},{"name":"minimumReserveRatioBips","type":"uint16","internalType":"uint16"},{"name":"maximumReserveRatioBips","type":"uint16","internalType":"uint16"},{"name":"minimumDelinquencyFeeBips","type":"uint16","internalType":"uint16"},{"name":"maximumDelinquencyFeeBips","type":"uint16","internalType":"uint16"},{"name":"minimumWithdrawalBatchDuration","type":"uint32","internalType":"uint32"},{"name":"maximumWithdrawalBatchDuration","type":"uint32","internalType":"uint32"},{"name":"minimumAnnualInterestBips","type":"uint16","internalType":"uint16"},{"name":"maximumAnnualInterestBips","type":"uint16","internalType":"uint16"}]},{"name":"deploymentFlags","type":"tuple","internalType":"struct HooksDeploymentFlags","components":[{"name":"optional","type":"tuple","internalType":"struct HooksConfigData","components":[{"name":"useOnDeposit","type":"bool","internalType":"bool"},{"name":"useOnQueueWithdrawal","type":"bool","internalType":"bool"},{"name":"useOnExecuteWithdrawal","type":"bool","internalType":"bool"},{"name":"useOnTransfer","type":"bool","internalType":"bool"},{"name":"useOnBorrow","type":"bool","internalType":"bool"},{"name":"useOnRepay","type":"bool","internalType":"bool"},{"name":"useOnCloseMarket","type":"bool","internalType":"bool"},{"name":"useOnNukeFromOrbit","type":"bool","internalType":"bool"},{"name":"useOnSetMaxTotalSupply","type":"bool","internalType":"bool"},{"name":"useOnSetAnnualInterestAndReserveRatioBips","type":"bool","internalType":"bool"},{"name":"useOnSetProtocolFeeBips","type":"bool","internalType":"bool"}]},{"name":"required","type":"tuple","internalType":"struct HooksConfigData","components":[{"name":"useOnDeposit","type":"bool","internalType":"bool"},{"name":"useOnQueueWithdrawal","type":"bool","internalType":"bool"},{"name":"useOnExecuteWithdrawal","type":"bool","internalType":"bool"},{"name":"useOnTransfer","type":"bool","internalType":"bool"},{"name":"useOnBorrow","type":"bool","internalType":"bool"},{"name":"useOnRepay","type":"bool","internalType":"bool"},{"name":"useOnCloseMarket","type":"bool","internalType":"bool"},{"name":"useOnNukeFromOrbit","type":"bool","internalType":"bool"},{"name":"useOnSetMaxTotalSupply","type":"bool","internalType":"bool"},{"name":"useOnSetAnnualInterestAndReserveRatioBips","type":"bool","internalType":"bool"},{"name":"useOnSetProtocolFeeBips","type":"bool","internalType":"bool"}]}]},{"name":"pullProviders","type":"tuple[]","internalType":"struct RoleProviderData[]","components":[{"name":"timeToLive","type":"uint32","internalType":"uint32"},{"name":"providerAddress","type":"address","internalType":"address"},{"name":"pullProviderIndex","type":"uint24","internalType":"uint24"},{"name":"pushProviderIndex","type":"uint24","internalType":"uint24"}]},{"name":"pushProviders","type":"tuple[]","internalType":"struct RoleProviderData[]","components":[{"name":"timeToLive","type":"uint32","internalType":"uint32"},{"name":"providerAddress","type":"address","internalType":"address"},{"name":"pullProviderIndex","type":"uint24","internalType":"uint24"},{"name":"pushProviderIndex","type":"uint24","internalType":"uint24"}]},{"name":"totalMarkets","type":"uint256","internalType":"uint256"}]},{"name":"temporaryReserveRatio","type":"bool","internalType":"bool"},{"name":"originalAnnualInterestBips","type":"uint256","internalType":"uint256"},{"name":"originalReserveRatioBips","type":"uint256","internalType":"uint256"},{"name":"temporaryReserveRatioExpiry","type":"uint256","internalType":"uint256"},{"name":"isClosed","type":"bool","internalType":"bool"},{"name":"protocolFeeBips","type":"uint256","internalType":"uint256"},{"name":"reserveRatioBips","type":"uint256","internalType":"uint256"},{"name":"annualInterestBips","type":"uint256","internalType":"uint256"},{"name":"scaleFactor","type":"uint256","internalType":"uint256"},{"name":"totalSupply","type":"uint256","internalType":"uint256"},{"name":"maxTotalSupply","type":"uint256","internalType":"uint256"},{"name":"scaledTotalSupply","type":"uint256","internalType":"uint256"},{"name":"totalAssets","type":"uint256","internalType":"uint256"},{"name":"lastAccruedProtocolFees","type":"uint256","internalType":"uint256"},{"name":"normalizedUnclaimedWithdrawals","type":"uint256","internalType":"uint256"},{"name":"scaledPendingWithdrawals","type":"uint256","internalType":"uint256"},{"name":"pendingWithdrawalExpiry","type":"uint256","internalType":"uint256"},{"name":"isDelinquent","type":"bool","internalType":"bool"},{"name":"timeDelinquent","type":"uint256","internalType":"uint256"},{"name":"lastInterestAccruedTimestamp","type":"uint256","internalType":"uint256"},{"name":"unpaidWithdrawalBatchExpiries","type":"uint32[]","internalType":"uint32[]"},{"name":"coverageLiquidity","type":"uint256","internalType":"uint256"}]}],"stateMutability":"view"},{"type":"function","name":"getHooksDataForBorrower","inputs":[{"name":"borrower","type":"address","internalType":"address"}],"outputs":[{"name":"data","type":"tuple","internalType":"struct HooksDataForBorrower","components":[{"name":"borrower","type":"address","internalType":"address"},{"name":"isRegisteredBorrower","type":"bool","internalType":"bool"},{"name":"hooksTemplates","type":"tuple[]","internalType":"struct HooksTemplateData[]","components":[{"name":"hooksTemplate","type":"address","internalType":"address"},{"name":"fees","type":"tuple","internalType":"struct FeeConfiguration","components":[{"name":"feeRecipient","type":"address","internalType":"address"},{"name":"protocolFeeBips","type":"uint16","internalType":"uint16"},{"name":"originationFeeToken","type":"tuple","internalType":"struct TokenMetadata","components":[{"name":"token","type":"address","internalType":"address"},{"name":"name","type":"string","internalType":"string"},{"name":"symbol","type":"string","internalType":"string"},{"name":"decimals","type":"uint256","internalType":"uint256"},{"name":"isMock","type":"bool","internalType":"bool"}]},{"name":"originationFeeAmount","type":"uint256","internalType":"uint256"},{"name":"borrowerOriginationFeeBalance","type":"uint256","internalType":"uint256"},{"name":"borrowerOriginationFeeApproval","type":"uint256","internalType":"uint256"}]},{"name":"exists","type":"bool","internalType":"bool"},{"name":"enabled","type":"bool","internalType":"bool"},{"name":"index","type":"uint24","internalType":"uint24"},{"name":"name","type":"string","internalType":"string"},{"name":"totalMarkets","type":"uint256","internalType":"uint256"}]},{"name":"hooksInstances","type":"tuple[]","internalType":"struct HooksInstanceData[]","components":[{"name":"hooksAddress","type":"address","internalType":"address"},{"name":"borrower","type":"address","internalType":"address"},{"name":"name","type":"string","internalType":"string"},{"name":"kind","type":"uint8","internalType":"enum HooksInstanceKind"},{"name":"hooksTemplate","type":"address","internalType":"address"},{"name":"hooksTemplateName","type":"string","internalType":"string"},{"name":"constraints","type":"tuple","internalType":"struct MarketParameterConstraints","components":[{"name":"minimumDelinquencyGracePeriod","type":"uint32","internalType":"uint32"},{"name":"maximumDelinquencyGracePeriod","type":"uint32","internalType":"uint32"},{"name":"minimumReserveRatioBips","type":"uint16","internalType":"uint16"},{"name":"maximumReserveRatioBips","type":"uint16","internalType":"uint16"},{"name":"minimumDelinquencyFeeBips","type":"uint16","internalType":"uint16"},{"name":"maximumDelinquencyFeeBips","type":"uint16","internalType":"uint16"},{"name":"minimumWithdrawalBatchDuration","type":"uint32","internalType":"uint32"},{"name":"maximumWithdrawalBatchDuration","type":"uint32","internalType":"uint32"},{"name":"minimumAnnualInterestBips","type":"uint16","internalType":"uint16"},{"name":"maximumAnnualInterestBips","type":"uint16","internalType":"uint16"}]},{"name":"deploymentFlags","type":"tuple","internalType":"struct HooksDeploymentFlags","components":[{"name":"optional","type":"tuple","internalType":"struct HooksConfigData","components":[{"name":"useOnDeposit","type":"bool","internalType":"bool"},{"name":"useOnQueueWithdrawal","type":"bool","internalType":"bool"},{"name":"useOnExecuteWithdrawal","type":"bool","internalType":"bool"},{"name":"useOnTransfer","type":"bool","internalType":"bool"},{"name":"useOnBorrow","type":"bool","internalType":"bool"},{"name":"useOnRepay","type":"bool","internalType":"bool"},{"name":"useOnCloseMarket","type":"bool","internalType":"bool"},{"name":"useOnNukeFromOrbit","type":"bool","internalType":"bool"},{"name":"useOnSetMaxTotalSupply","type":"bool","internalType":"bool"},{"name":"useOnSetAnnualInterestAndReserveRatioBips","type":"bool","internalType":"bool"},{"name":"useOnSetProtocolFeeBips","type":"bool","internalType":"bool"}]},{"name":"required","type":"tuple","internalType":"struct HooksConfigData","components":[{"name":"useOnDeposit","type":"bool","internalType":"bool"},{"name":"useOnQueueWithdrawal","type":"bool","internalType":"bool"},{"name":"useOnExecuteWithdrawal","type":"bool","internalType":"bool"},{"name":"useOnTransfer","type":"bool","internalType":"bool"},{"name":"useOnBorrow","type":"bool","internalType":"bool"},{"name":"useOnRepay","type":"bool","internalType":"bool"},{"name":"useOnCloseMarket","type":"bool","internalType":"bool"},{"name":"useOnNukeFromOrbit","type":"bool","internalType":"bool"},{"name":"useOnSetMaxTotalSupply","type":"bool","internalType":"bool"},{"name":"useOnSetAnnualInterestAndReserveRatioBips","type":"bool","internalType":"bool"},{"name":"useOnSetProtocolFeeBips","type":"bool","internalType":"bool"}]}]},{"name":"pullProviders","type":"tuple[]","internalType":"struct RoleProviderData[]","components":[{"name":"timeToLive","type":"uint32","internalType":"uint32"},{"name":"providerAddress","type":"address","internalType":"address"},{"name":"pullProviderIndex","type":"uint24","internalType":"uint24"},{"name":"pushProviderIndex","type":"uint24","internalType":"uint24"}]},{"name":"pushProviders","type":"tuple[]","internalType":"struct RoleProviderData[]","components":[{"name":"timeToLive","type":"uint32","internalType":"uint32"},{"name":"providerAddress","type":"address","internalType":"address"},{"name":"pullProviderIndex","type":"uint24","internalType":"uint24"},{"name":"pushProviderIndex","type":"uint24","internalType":"uint24"}]},{"name":"totalMarkets","type":"uint256","internalType":"uint256"}]}]}],"stateMutability":"view"},{"type":"function","name":"getHooksInstancesForBorrower","inputs":[{"name":"borrower","type":"address","internalType":"address"}],"outputs":[{"name":"arr","type":"tuple[]","internalType":"struct HooksInstanceData[]","components":[{"name":"hooksAddress","type":"address","internalType":"address"},{"name":"borrower","type":"address","internalType":"address"},{"name":"name","type":"string","internalType":"string"},{"name":"kind","type":"uint8","internalType":"enum HooksInstanceKind"},{"name":"hooksTemplate","type":"address","internalType":"address"},{"name":"hooksTemplateName","type":"string","internalType":"string"},{"name":"constraints","type":"tuple","internalType":"struct MarketParameterConstraints","components":[{"name":"minimumDelinquencyGracePeriod","type":"uint32","internalType":"uint32"},{"name":"maximumDelinquencyGracePeriod","type":"uint32","internalType":"uint32"},{"name":"minimumReserveRatioBips","type":"uint16","internalType":"uint16"},{"name":"maximumReserveRatioBips","type":"uint16","internalType":"uint16"},{"name":"minimumDelinquencyFeeBips","type":"uint16","internalType":"uint16"},{"name":"maximumDelinquencyFeeBips","type":"uint16","internalType":"uint16"},{"name":"minimumWithdrawalBatchDuration","type":"uint32","internalType":"uint32"},{"name":"maximumWithdrawalBatchDuration","type":"uint32","internalType":"uint32"},{"name":"minimumAnnualInterestBips","type":"uint16","internalType":"uint16"},{"name":"maximumAnnualInterestBips","type":"uint16","internalType":"uint16"}]},{"name":"deploymentFlags","type":"tuple","internalType":"struct HooksDeploymentFlags","components":[{"name":"optional","type":"tuple","internalType":"struct HooksConfigData","components":[{"name":"useOnDeposit","type":"bool","internalType":"bool"},{"name":"useOnQueueWithdrawal","type":"bool","internalType":"bool"},{"name":"useOnExecuteWithdrawal","type":"bool","internalType":"bool"},{"name":"useOnTransfer","type":"bool","internalType":"bool"},{"name":"useOnBorrow","type":"bool","internalType":"bool"},{"name":"useOnRepay","type":"bool","internalType":"bool"},{"name":"useOnCloseMarket","type":"bool","internalType":"bool"},{"name":"useOnNukeFromOrbit","type":"bool","internalType":"bool"},{"name":"useOnSetMaxTotalSupply","type":"bool","internalType":"bool"},{"name":"useOnSetAnnualInterestAndReserveRatioBips","type":"bool","internalType":"bool"},{"name":"useOnSetProtocolFeeBips","type":"bool","internalType":"bool"}]},{"name":"required","type":"tuple","internalType":"struct HooksConfigData","components":[{"name":"useOnDeposit","type":"bool","internalType":"bool"},{"name":"useOnQueueWithdrawal","type":"bool","internalType":"bool"},{"name":"useOnExecuteWithdrawal","type":"bool","internalType":"bool"},{"name":"useOnTransfer","type":"bool","internalType":"bool"},{"name":"useOnBorrow","type":"bool","internalType":"bool"},{"name":"useOnRepay","type":"bool","internalType":"bool"},{"name":"useOnCloseMarket","type":"bool","internalType":"bool"},{"name":"useOnNukeFromOrbit","type":"bool","internalType":"bool"},{"name":"useOnSetMaxTotalSupply","type":"bool","internalType":"bool"},{"name":"useOnSetAnnualInterestAndReserveRatioBips","type":"bool","internalType":"bool"},{"name":"useOnSetProtocolFeeBips","type":"bool","internalType":"bool"}]}]},{"name":"pullProviders","type":"tuple[]","internalType":"struct RoleProviderData[]","components":[{"name":"timeToLive","type":"uint32","internalType":"uint32"},{"name":"providerAddress","type":"address","internalType":"address"},{"name":"pullProviderIndex","type":"uint24","internalType":"uint24"},{"name":"pushProviderIndex","type":"uint24","internalType":"uint24"}]},{"name":"pushProviders","type":"tuple[]","internalType":"struct RoleProviderData[]","components":[{"name":"timeToLive","type":"uint32","internalType":"uint32"},{"name":"providerAddress","type":"address","internalType":"address"},{"name":"pullProviderIndex","type":"uint24","internalType":"uint24"},{"name":"pushProviderIndex","type":"uint24","internalType":"uint24"}]},{"name":"totalMarkets","type":"uint256","internalType":"uint256"}]}],"stateMutability":"view"},{"type":"function","name":"getHooksTemplateForBorrower","inputs":[{"name":"borrower","type":"address","internalType":"address"},{"name":"hooksTemplate","type":"address","internalType":"address"}],"outputs":[{"name":"data","type":"tuple","internalType":"struct HooksTemplateData","components":[{"name":"hooksTemplate","type":"address","internalType":"address"},{"name":"fees","type":"tuple","internalType":"struct FeeConfiguration","components":[{"name":"feeRecipient","type":"address","internalType":"address"},{"name":"protocolFeeBips","type":"uint16","internalType":"uint16"},{"name":"originationFeeToken","type":"tuple","internalType":"struct TokenMetadata","components":[{"name":"token","type":"address","internalType":"address"},{"name":"name","type":"string","internalType":"string"},{"name":"symbol","type":"string","internalType":"string"},{"name":"decimals","type":"uint256","internalType":"uint256"},{"name":"isMock","type":"bool","internalType":"bool"}]},{"name":"originationFeeAmount","type":"uint256","internalType":"uint256"},{"name":"borrowerOriginationFeeBalance","type":"uint256","internalType":"uint256"},{"name":"borrowerOriginationFeeApproval","type":"uint256","internalType":"uint256"}]},{"name":"exists","type":"bool","internalType":"bool"},{"name":"enabled","type":"bool","internalType":"bool"},{"name":"index","type":"uint24","internalType":"uint24"},{"name":"name","type":"string","internalType":"string"},{"name":"totalMarkets","type":"uint256","internalType":"uint256"}]}],"stateMutability":"view"},{"type":"function","name":"getHooksTemplatesForBorrower","inputs":[{"name":"borrower","type":"address","internalType":"address"},{"name":"hooksTemplates","type":"address[]","internalType":"address[]"}],"outputs":[{"name":"data","type":"tuple[]","internalType":"struct HooksTemplateData[]","components":[{"name":"hooksTemplate","type":"address","internalType":"address"},{"name":"fees","type":"tuple","internalType":"struct FeeConfiguration","components":[{"name":"feeRecipient","type":"address","internalType":"address"},{"name":"protocolFeeBips","type":"uint16","internalType":"uint16"},{"name":"originationFeeToken","type":"tuple","internalType":"struct TokenMetadata","components":[{"name":"token","type":"address","internalType":"address"},{"name":"name","type":"string","internalType":"string"},{"name":"symbol","type":"string","internalType":"string"},{"name":"decimals","type":"uint256","internalType":"uint256"},{"name":"isMock","type":"bool","internalType":"bool"}]},{"name":"originationFeeAmount","type":"uint256","internalType":"uint256"},{"name":"borrowerOriginationFeeBalance","type":"uint256","internalType":"uint256"},{"name":"borrowerOriginationFeeApproval","type":"uint256","internalType":"uint256"}]},{"name":"exists","type":"bool","internalType":"bool"},{"name":"enabled","type":"bool","internalType":"bool"},{"name":"index","type":"uint24","internalType":"uint24"},{"name":"name","type":"string","internalType":"string"},{"name":"totalMarkets","type":"uint256","internalType":"uint256"}]}],"stateMutability":"view"},{"type":"function","name":"getLenderAccountData","inputs":[{"name":"lender","type":"address","internalType":"address"},{"name":"market","type":"address","internalType":"address"}],"outputs":[{"name":"data","type":"tuple","internalType":"struct LenderAccountData","components":[{"name":"lender","type":"address","internalType":"address"},{"name":"scaledBalance","type":"uint256","internalType":"uint256"},{"name":"normalizedBalance","type":"uint256","internalType":"uint256"},{"name":"underlyingBalance","type":"uint256","internalType":"uint256"},{"name":"underlyingApproval","type":"uint256","internalType":"uint256"},{"name":"isBlockedFromDeposits","type":"bool","internalType":"bool"},{"name":"lastProvider","type":"tuple","internalType":"struct RoleProviderData","components":[{"name":"timeToLive","type":"uint32","internalType":"uint32"},{"name":"providerAddress","type":"address","internalType":"address"},{"name":"pullProviderIndex","type":"uint24","internalType":"uint24"},{"name":"pushProviderIndex","type":"uint24","internalType":"uint24"}]},{"name":"canRefresh","type":"bool","internalType":"bool"},{"name":"lastApprovalTimestamp","type":"uint32","internalType":"uint32"},{"name":"isKnownLender","type":"bool","internalType":"bool"}]}],"stateMutability":"view"},{"type":"function","name":"getLenderAccountData","inputs":[{"name":"lender","type":"address","internalType":"address"},{"name":"markets","type":"address[]","internalType":"address[]"}],"outputs":[{"name":"arr","type":"tuple[]","internalType":"struct LenderAccountData[]","components":[{"name":"lender","type":"address","internalType":"address"},{"name":"scaledBalance","type":"uint256","internalType":"uint256"},{"name":"normalizedBalance","type":"uint256","internalType":"uint256"},{"name":"underlyingBalance","type":"uint256","internalType":"uint256"},{"name":"underlyingApproval","type":"uint256","internalType":"uint256"},{"name":"isBlockedFromDeposits","type":"bool","internalType":"bool"},{"name":"lastProvider","type":"tuple","internalType":"struct RoleProviderData","components":[{"name":"timeToLive","type":"uint32","internalType":"uint32"},{"name":"providerAddress","type":"address","internalType":"address"},{"name":"pullProviderIndex","type":"uint24","internalType":"uint24"},{"name":"pushProviderIndex","type":"uint24","internalType":"uint24"}]},{"name":"canRefresh","type":"bool","internalType":"bool"},{"name":"lastApprovalTimestamp","type":"uint32","internalType":"uint32"},{"name":"isKnownLender","type":"bool","internalType":"bool"}]}],"stateMutability":"view"},{"type":"function","name":"getMarketData","inputs":[{"name":"market","type":"address","internalType":"address"}],"outputs":[{"name":"data","type":"tuple","internalType":"struct MarketData","components":[{"name":"marketToken","type":"tuple","internalType":"struct TokenMetadata","components":[{"name":"token","type":"address","internalType":"address"},{"name":"name","type":"string","internalType":"string"},{"name":"symbol","type":"string","internalType":"string"},{"name":"decimals","type":"uint256","internalType":"uint256"},{"name":"isMock","type":"bool","internalType":"bool"}]},{"name":"underlyingToken","type":"tuple","internalType":"struct TokenMetadata","components":[{"name":"token","type":"address","internalType":"address"},{"name":"name","type":"string","internalType":"string"},{"name":"symbol","type":"string","internalType":"string"},{"name":"decimals","type":"uint256","internalType":"uint256"},{"name":"isMock","type":"bool","internalType":"bool"}]},{"name":"hooksFactory","type":"address","internalType":"address"},{"name":"borrower","type":"address","internalType":"address"},{"name":"hooksConfig","type":"tuple","internalType":"struct MarketHooksData","components":[{"name":"hooksAddress","type":"address","internalType":"address"},{"name":"flags","type":"tuple","internalType":"struct HooksConfigData","components":[{"name":"useOnDeposit","type":"bool","internalType":"bool"},{"name":"useOnQueueWithdrawal","type":"bool","internalType":"bool"},{"name":"useOnExecuteWithdrawal","type":"bool","internalType":"bool"},{"name":"useOnTransfer","type":"bool","internalType":"bool"},{"name":"useOnBorrow","type":"bool","internalType":"bool"},{"name":"useOnRepay","type":"bool","internalType":"bool"},{"name":"useOnCloseMarket","type":"bool","internalType":"bool"},{"name":"useOnNukeFromOrbit","type":"bool","internalType":"bool"},{"name":"useOnSetMaxTotalSupply","type":"bool","internalType":"bool"},{"name":"useOnSetAnnualInterestAndReserveRatioBips","type":"bool","internalType":"bool"},{"name":"useOnSetProtocolFeeBips","type":"bool","internalType":"bool"}]},{"name":"kind","type":"uint8","internalType":"enum HooksInstanceKind"},{"name":"transferRequiresAccess","type":"bool","internalType":"bool"},{"name":"depositRequiresAccess","type":"bool","internalType":"bool"},{"name":"minimumDeposit","type":"uint128","internalType":"uint128"},{"name":"transfersDisabled","type":"bool","internalType":"bool"},{"name":"allowForceBuyBacks","type":"bool","internalType":"bool"},{"name":"withdrawalRequiresAccess","type":"bool","internalType":"bool"},{"name":"fixedTermEndTime","type":"uint32","internalType":"uint32"},{"name":"allowClosureBeforeTerm","type":"bool","internalType":"bool"},{"name":"allowTermReduction","type":"bool","internalType":"bool"}]},{"name":"withdrawalBatchDuration","type":"uint256","internalType":"uint256"},{"name":"feeRecipient","type":"address","internalType":"address"},{"name":"delinquencyFeeBips","type":"uint256","internalType":"uint256"},{"name":"delinquencyGracePeriod","type":"uint256","internalType":"uint256"},{"name":"hooks","type":"tuple","internalType":"struct HooksInstanceData","components":[{"name":"hooksAddress","type":"address","internalType":"address"},{"name":"borrower","type":"address","internalType":"address"},{"name":"name","type":"string","internalType":"string"},{"name":"kind","type":"uint8","internalType":"enum HooksInstanceKind"},{"name":"hooksTemplate","type":"address","internalType":"address"},{"name":"hooksTemplateName","type":"string","internalType":"string"},{"name":"constraints","type":"tuple","internalType":"struct MarketParameterConstraints","components":[{"name":"minimumDelinquencyGracePeriod","type":"uint32","internalType":"uint32"},{"name":"maximumDelinquencyGracePeriod","type":"uint32","internalType":"uint32"},{"name":"minimumReserveRatioBips","type":"uint16","internalType":"uint16"},{"name":"maximumReserveRatioBips","type":"uint16","internalType":"uint16"},{"name":"minimumDelinquencyFeeBips","type":"uint16","internalType":"uint16"},{"name":"maximumDelinquencyFeeBips","type":"uint16","internalType":"uint16"},{"name":"minimumWithdrawalBatchDuration","type":"uint32","internalType":"uint32"},{"name":"maximumWithdrawalBatchDuration","type":"uint32","internalType":"uint32"},{"name":"minimumAnnualInterestBips","type":"uint16","internalType":"uint16"},{"name":"maximumAnnualInterestBips","type":"uint16","internalType":"uint16"}]},{"name":"deploymentFlags","type":"tuple","internalType":"struct HooksDeploymentFlags","components":[{"name":"optional","type":"tuple","internalType":"struct HooksConfigData","components":[{"name":"useOnDeposit","type":"bool","internalType":"bool"},{"name":"useOnQueueWithdrawal","type":"bool","internalType":"bool"},{"name":"useOnExecuteWithdrawal","type":"bool","internalType":"bool"},{"name":"useOnTransfer","type":"bool","internalType":"bool"},{"name":"useOnBorrow","type":"bool","internalType":"bool"},{"name":"useOnRepay","type":"bool","internalType":"bool"},{"name":"useOnCloseMarket","type":"bool","internalType":"bool"},{"name":"useOnNukeFromOrbit","type":"bool","internalType":"bool"},{"name":"useOnSetMaxTotalSupply","type":"bool","internalType":"bool"},{"name":"useOnSetAnnualInterestAndReserveRatioBips","type":"bool","internalType":"bool"},{"name":"useOnSetProtocolFeeBips","type":"bool","internalType":"bool"}]},{"name":"required","type":"tuple","internalType":"struct HooksConfigData","components":[{"name":"useOnDeposit","type":"bool","internalType":"bool"},{"name":"useOnQueueWithdrawal","type":"bool","internalType":"bool"},{"name":"useOnExecuteWithdrawal","type":"bool","internalType":"bool"},{"name":"useOnTransfer","type":"bool","internalType":"bool"},{"name":"useOnBorrow","type":"bool","internalType":"bool"},{"name":"useOnRepay","type":"bool","internalType":"bool"},{"name":"useOnCloseMarket","type":"bool","internalType":"bool"},{"name":"useOnNukeFromOrbit","type":"bool","internalType":"bool"},{"name":"useOnSetMaxTotalSupply","type":"bool","internalType":"bool"},{"name":"useOnSetAnnualInterestAndReserveRatioBips","type":"bool","internalType":"bool"},{"name":"useOnSetProtocolFeeBips","type":"bool","internalType":"bool"}]}]},{"name":"pullProviders","type":"tuple[]","internalType":"struct RoleProviderData[]","components":[{"name":"timeToLive","type":"uint32","internalType":"uint32"},{"name":"providerAddress","type":"address","internalType":"address"},{"name":"pullProviderIndex","type":"uint24","internalType":"uint24"},{"name":"pushProviderIndex","type":"uint24","internalType":"uint24"}]},{"name":"pushProviders","type":"tuple[]","internalType":"struct RoleProviderData[]","components":[{"name":"timeToLive","type":"uint32","internalType":"uint32"},{"name":"providerAddress","type":"address","internalType":"address"},{"name":"pullProviderIndex","type":"uint24","internalType":"uint24"},{"name":"pushProviderIndex","type":"uint24","internalType":"uint24"}]},{"name":"totalMarkets","type":"uint256","internalType":"uint256"}]},{"name":"temporaryReserveRatio","type":"bool","internalType":"bool"},{"name":"originalAnnualInterestBips","type":"uint256","internalType":"uint256"},{"name":"originalReserveRatioBips","type":"uint256","internalType":"uint256"},{"name":"temporaryReserveRatioExpiry","type":"uint256","internalType":"uint256"},{"name":"isClosed","type":"bool","internalType":"bool"},{"name":"protocolFeeBips","type":"uint256","internalType":"uint256"},{"name":"reserveRatioBips","type":"uint256","internalType":"uint256"},{"name":"annualInterestBips","type":"uint256","internalType":"uint256"},{"name":"scaleFactor","type":"uint256","internalType":"uint256"},{"name":"totalSupply","type":"uint256","internalType":"uint256"},{"name":"maxTotalSupply","type":"uint256","internalType":"uint256"},{"name":"scaledTotalSupply","type":"uint256","internalType":"uint256"},{"name":"totalAssets","type":"uint256","internalType":"uint256"},{"name":"lastAccruedProtocolFees","type":"uint256","internalType":"uint256"},{"name":"normalizedUnclaimedWithdrawals","type":"uint256","internalType":"uint256"},{"name":"scaledPendingWithdrawals","type":"uint256","internalType":"uint256"},{"name":"pendingWithdrawalExpiry","type":"uint256","internalType":"uint256"},{"name":"isDelinquent","type":"bool","internalType":"bool"},{"name":"timeDelinquent","type":"uint256","internalType":"uint256"},{"name":"lastInterestAccruedTimestamp","type":"uint256","internalType":"uint256"},{"name":"unpaidWithdrawalBatchExpiries","type":"uint32[]","internalType":"uint32[]"},{"name":"coverageLiquidity","type":"uint256","internalType":"uint256"}]}],"stateMutability":"view"},{"type":"function","name":"getMarketDataWithLenderStatus","inputs":[{"name":"lender","type":"address","internalType":"address"},{"name":"market","type":"address","internalType":"address"}],"outputs":[{"name":"data","type":"tuple","internalType":"struct MarketDataWithLenderStatus","components":[{"name":"market","type":"tuple","internalType":"struct MarketData","components":[{"name":"marketToken","type":"tuple","internalType":"struct TokenMetadata","components":[{"name":"token","type":"address","internalType":"address"},{"name":"name","type":"string","internalType":"string"},{"name":"symbol","type":"string","internalType":"string"},{"name":"decimals","type":"uint256","internalType":"uint256"},{"name":"isMock","type":"bool","internalType":"bool"}]},{"name":"underlyingToken","type":"tuple","internalType":"struct TokenMetadata","components":[{"name":"token","type":"address","internalType":"address"},{"name":"name","type":"string","internalType":"string"},{"name":"symbol","type":"string","internalType":"string"},{"name":"decimals","type":"uint256","internalType":"uint256"},{"name":"isMock","type":"bool","internalType":"bool"}]},{"name":"hooksFactory","type":"address","internalType":"address"},{"name":"borrower","type":"address","internalType":"address"},{"name":"hooksConfig","type":"tuple","internalType":"struct MarketHooksData","components":[{"name":"hooksAddress","type":"address","internalType":"address"},{"name":"flags","type":"tuple","internalType":"struct HooksConfigData","components":[{"name":"useOnDeposit","type":"bool","internalType":"bool"},{"name":"useOnQueueWithdrawal","type":"bool","internalType":"bool"},{"name":"useOnExecuteWithdrawal","type":"bool","internalType":"bool"},{"name":"useOnTransfer","type":"bool","internalType":"bool"},{"name":"useOnBorrow","type":"bool","internalType":"bool"},{"name":"useOnRepay","type":"bool","internalType":"bool"},{"name":"useOnCloseMarket","type":"bool","internalType":"bool"},{"name":"useOnNukeFromOrbit","type":"bool","internalType":"bool"},{"name":"useOnSetMaxTotalSupply","type":"bool","internalType":"bool"},{"name":"useOnSetAnnualInterestAndReserveRatioBips","type":"bool","internalType":"bool"},{"name":"useOnSetProtocolFeeBips","type":"bool","internalType":"bool"}]},{"name":"kind","type":"uint8","internalType":"enum HooksInstanceKind"},{"name":"transferRequiresAccess","type":"bool","internalType":"bool"},{"name":"depositRequiresAccess","type":"bool","internalType":"bool"},{"name":"minimumDeposit","type":"uint128","internalType":"uint128"},{"name":"transfersDisabled","type":"bool","internalType":"bool"},{"name":"allowForceBuyBacks","type":"bool","internalType":"bool"},{"name":"withdrawalRequiresAccess","type":"bool","internalType":"bool"},{"name":"fixedTermEndTime","type":"uint32","internalType":"uint32"},{"name":"allowClosureBeforeTerm","type":"bool","internalType":"bool"},{"name":"allowTermReduction","type":"bool","internalType":"bool"}]},{"name":"withdrawalBatchDuration","type":"uint256","internalType":"uint256"},{"name":"feeRecipient","type":"address","internalType":"address"},{"name":"delinquencyFeeBips","type":"uint256","internalType":"uint256"},{"name":"delinquencyGracePeriod","type":"uint256","internalType":"uint256"},{"name":"hooks","type":"tuple","internalType":"struct HooksInstanceData","components":[{"name":"hooksAddress","type":"address","internalType":"address"},{"name":"borrower","type":"address","internalType":"address"},{"name":"name","type":"string","internalType":"string"},{"name":"kind","type":"uint8","internalType":"enum HooksInstanceKind"},{"name":"hooksTemplate","type":"address","internalType":"address"},{"name":"hooksTemplateName","type":"string","internalType":"string"},{"name":"constraints","type":"tuple","internalType":"struct MarketParameterConstraints","components":[{"name":"minimumDelinquencyGracePeriod","type":"uint32","internalType":"uint32"},{"name":"maximumDelinquencyGracePeriod","type":"uint32","internalType":"uint32"},{"name":"minimumReserveRatioBips","type":"uint16","internalType":"uint16"},{"name":"maximumReserveRatioBips","type":"uint16","internalType":"uint16"},{"name":"minimumDelinquencyFeeBips","type":"uint16","internalType":"uint16"},{"name":"maximumDelinquencyFeeBips","type":"uint16","internalType":"uint16"},{"name":"minimumWithdrawalBatchDuration","type":"uint32","internalType":"uint32"},{"name":"maximumWithdrawalBatchDuration","type":"uint32","internalType":"uint32"},{"name":"minimumAnnualInterestBips","type":"uint16","internalType":"uint16"},{"name":"maximumAnnualInterestBips","type":"uint16","internalType":"uint16"}]},{"name":"deploymentFlags","type":"tuple","internalType":"struct HooksDeploymentFlags","components":[{"name":"optional","type":"tuple","internalType":"struct HooksConfigData","components":[{"name":"useOnDeposit","type":"bool","internalType":"bool"},{"name":"useOnQueueWithdrawal","type":"bool","internalType":"bool"},{"name":"useOnExecuteWithdrawal","type":"bool","internalType":"bool"},{"name":"useOnTransfer","type":"bool","internalType":"bool"},{"name":"useOnBorrow","type":"bool","internalType":"bool"},{"name":"useOnRepay","type":"bool","internalType":"bool"},{"name":"useOnCloseMarket","type":"bool","internalType":"bool"},{"name":"useOnNukeFromOrbit","type":"bool","internalType":"bool"},{"name":"useOnSetMaxTotalSupply","type":"bool","internalType":"bool"},{"name":"useOnSetAnnualInterestAndReserveRatioBips","type":"bool","internalType":"bool"},{"name":"useOnSetProtocolFeeBips","type":"bool","internalType":"bool"}]},{"name":"required","type":"tuple","internalType":"struct HooksConfigData","components":[{"name":"useOnDeposit","type":"bool","internalType":"bool"},{"name":"useOnQueueWithdrawal","type":"bool","internalType":"bool"},{"name":"useOnExecuteWithdrawal","type":"bool","internalType":"bool"},{"name":"useOnTransfer","type":"bool","internalType":"bool"},{"name":"useOnBorrow","type":"bool","internalType":"bool"},{"name":"useOnRepay","type":"bool","internalType":"bool"},{"name":"useOnCloseMarket","type":"bool","internalType":"bool"},{"name":"useOnNukeFromOrbit","type":"bool","internalType":"bool"},{"name":"useOnSetMaxTotalSupply","type":"bool","internalType":"bool"},{"name":"useOnSetAnnualInterestAndReserveRatioBips","type":"bool","internalType":"bool"},{"name":"useOnSetProtocolFeeBips","type":"bool","internalType":"bool"}]}]},{"name":"pullProviders","type":"tuple[]","internalType":"struct RoleProviderData[]","components":[{"name":"timeToLive","type":"uint32","internalType":"uint32"},{"name":"providerAddress","type":"address","internalType":"address"},{"name":"pullProviderIndex","type":"uint24","internalType":"uint24"},{"name":"pushProviderIndex","type":"uint24","internalType":"uint24"}]},{"name":"pushProviders","type":"tuple[]","internalType":"struct RoleProviderData[]","components":[{"name":"timeToLive","type":"uint32","internalType":"uint32"},{"name":"providerAddress","type":"address","internalType":"address"},{"name":"pullProviderIndex","type":"uint24","internalType":"uint24"},{"name":"pushProviderIndex","type":"uint24","internalType":"uint24"}]},{"name":"totalMarkets","type":"uint256","internalType":"uint256"}]},{"name":"temporaryReserveRatio","type":"bool","internalType":"bool"},{"name":"originalAnnualInterestBips","type":"uint256","internalType":"uint256"},{"name":"originalReserveRatioBips","type":"uint256","internalType":"uint256"},{"name":"temporaryReserveRatioExpiry","type":"uint256","internalType":"uint256"},{"name":"isClosed","type":"bool","internalType":"bool"},{"name":"protocolFeeBips","type":"uint256","internalType":"uint256"},{"name":"reserveRatioBips","type":"uint256","internalType":"uint256"},{"name":"annualInterestBips","type":"uint256","internalType":"uint256"},{"name":"scaleFactor","type":"uint256","internalType":"uint256"},{"name":"totalSupply","type":"uint256","internalType":"uint256"},{"name":"maxTotalSupply","type":"uint256","internalType":"uint256"},{"name":"scaledTotalSupply","type":"uint256","internalType":"uint256"},{"name":"totalAssets","type":"uint256","internalType":"uint256"},{"name":"lastAccruedProtocolFees","type":"uint256","internalType":"uint256"},{"name":"normalizedUnclaimedWithdrawals","type":"uint256","internalType":"uint256"},{"name":"scaledPendingWithdrawals","type":"uint256","internalType":"uint256"},{"name":"pendingWithdrawalExpiry","type":"uint256","internalType":"uint256"},{"name":"isDelinquent","type":"bool","internalType":"bool"},{"name":"timeDelinquent","type":"uint256","internalType":"uint256"},{"name":"lastInterestAccruedTimestamp","type":"uint256","internalType":"uint256"},{"name":"unpaidWithdrawalBatchExpiries","type":"uint32[]","internalType":"uint32[]"},{"name":"coverageLiquidity","type":"uint256","internalType":"uint256"}]},{"name":"lenderStatus","type":"tuple","internalType":"struct LenderAccountData","components":[{"name":"lender","type":"address","internalType":"address"},{"name":"scaledBalance","type":"uint256","internalType":"uint256"},{"name":"normalizedBalance","type":"uint256","internalType":"uint256"},{"name":"underlyingBalance","type":"uint256","internalType":"uint256"},{"name":"underlyingApproval","type":"uint256","internalType":"uint256"},{"name":"isBlockedFromDeposits","type":"bool","internalType":"bool"},{"name":"lastProvider","type":"tuple","internalType":"struct RoleProviderData","components":[{"name":"timeToLive","type":"uint32","internalType":"uint32"},{"name":"providerAddress","type":"address","internalType":"address"},{"name":"pullProviderIndex","type":"uint24","internalType":"uint24"},{"name":"pushProviderIndex","type":"uint24","internalType":"uint24"}]},{"name":"canRefresh","type":"bool","internalType":"bool"},{"name":"lastApprovalTimestamp","type":"uint32","internalType":"uint32"},{"name":"isKnownLender","type":"bool","internalType":"bool"}]}]}],"stateMutability":"view"},{"type":"function","name":"getMarketsData","inputs":[{"name":"markets","type":"address[]","internalType":"address[]"}],"outputs":[{"name":"data","type":"tuple[]","internalType":"struct MarketData[]","components":[{"name":"marketToken","type":"tuple","internalType":"struct TokenMetadata","components":[{"name":"token","type":"address","internalType":"address"},{"name":"name","type":"string","internalType":"string"},{"name":"symbol","type":"string","internalType":"string"},{"name":"decimals","type":"uint256","internalType":"uint256"},{"name":"isMock","type":"bool","internalType":"bool"}]},{"name":"underlyingToken","type":"tuple","internalType":"struct TokenMetadata","components":[{"name":"token","type":"address","internalType":"address"},{"name":"name","type":"string","internalType":"string"},{"name":"symbol","type":"string","internalType":"string"},{"name":"decimals","type":"uint256","internalType":"uint256"},{"name":"isMock","type":"bool","internalType":"bool"}]},{"name":"hooksFactory","type":"address","internalType":"address"},{"name":"borrower","type":"address","internalType":"address"},{"name":"hooksConfig","type":"tuple","internalType":"struct MarketHooksData","components":[{"name":"hooksAddress","type":"address","internalType":"address"},{"name":"flags","type":"tuple","internalType":"struct HooksConfigData","components":[{"name":"useOnDeposit","type":"bool","internalType":"bool"},{"name":"useOnQueueWithdrawal","type":"bool","internalType":"bool"},{"name":"useOnExecuteWithdrawal","type":"bool","internalType":"bool"},{"name":"useOnTransfer","type":"bool","internalType":"bool"},{"name":"useOnBorrow","type":"bool","internalType":"bool"},{"name":"useOnRepay","type":"bool","internalType":"bool"},{"name":"useOnCloseMarket","type":"bool","internalType":"bool"},{"name":"useOnNukeFromOrbit","type":"bool","internalType":"bool"},{"name":"useOnSetMaxTotalSupply","type":"bool","internalType":"bool"},{"name":"useOnSetAnnualInterestAndReserveRatioBips","type":"bool","internalType":"bool"},{"name":"useOnSetProtocolFeeBips","type":"bool","internalType":"bool"}]},{"name":"kind","type":"uint8","internalType":"enum HooksInstanceKind"},{"name":"transferRequiresAccess","type":"bool","internalType":"bool"},{"name":"depositRequiresAccess","type":"bool","internalType":"bool"},{"name":"minimumDeposit","type":"uint128","internalType":"uint128"},{"name":"transfersDisabled","type":"bool","internalType":"bool"},{"name":"allowForceBuyBacks","type":"bool","internalType":"bool"},{"name":"withdrawalRequiresAccess","type":"bool","internalType":"bool"},{"name":"fixedTermEndTime","type":"uint32","internalType":"uint32"},{"name":"allowClosureBeforeTerm","type":"bool","internalType":"bool"},{"name":"allowTermReduction","type":"bool","internalType":"bool"}]},{"name":"withdrawalBatchDuration","type":"uint256","internalType":"uint256"},{"name":"feeRecipient","type":"address","internalType":"address"},{"name":"delinquencyFeeBips","type":"uint256","internalType":"uint256"},{"name":"delinquencyGracePeriod","type":"uint256","internalType":"uint256"},{"name":"hooks","type":"tuple","internalType":"struct HooksInstanceData","components":[{"name":"hooksAddress","type":"address","internalType":"address"},{"name":"borrower","type":"address","internalType":"address"},{"name":"name","type":"string","internalType":"string"},{"name":"kind","type":"uint8","internalType":"enum HooksInstanceKind"},{"name":"hooksTemplate","type":"address","internalType":"address"},{"name":"hooksTemplateName","type":"string","internalType":"string"},{"name":"constraints","type":"tuple","internalType":"struct MarketParameterConstraints","components":[{"name":"minimumDelinquencyGracePeriod","type":"uint32","internalType":"uint32"},{"name":"maximumDelinquencyGracePeriod","type":"uint32","internalType":"uint32"},{"name":"minimumReserveRatioBips","type":"uint16","internalType":"uint16"},{"name":"maximumReserveRatioBips","type":"uint16","internalType":"uint16"},{"name":"minimumDelinquencyFeeBips","type":"uint16","internalType":"uint16"},{"name":"maximumDelinquencyFeeBips","type":"uint16","internalType":"uint16"},{"name":"minimumWithdrawalBatchDuration","type":"uint32","internalType":"uint32"},{"name":"maximumWithdrawalBatchDuration","type":"uint32","internalType":"uint32"},{"name":"minimumAnnualInterestBips","type":"uint16","internalType":"uint16"},{"name":"maximumAnnualInterestBips","type":"uint16","internalType":"uint16"}]},{"name":"deploymentFlags","type":"tuple","internalType":"struct HooksDeploymentFlags","components":[{"name":"optional","type":"tuple","internalType":"struct HooksConfigData","components":[{"name":"useOnDeposit","type":"bool","internalType":"bool"},{"name":"useOnQueueWithdrawal","type":"bool","internalType":"bool"},{"name":"useOnExecuteWithdrawal","type":"bool","internalType":"bool"},{"name":"useOnTransfer","type":"bool","internalType":"bool"},{"name":"useOnBorrow","type":"bool","internalType":"bool"},{"name":"useOnRepay","type":"bool","internalType":"bool"},{"name":"useOnCloseMarket","type":"bool","internalType":"bool"},{"name":"useOnNukeFromOrbit","type":"bool","internalType":"bool"},{"name":"useOnSetMaxTotalSupply","type":"bool","internalType":"bool"},{"name":"useOnSetAnnualInterestAndReserveRatioBips","type":"bool","internalType":"bool"},{"name":"useOnSetProtocolFeeBips","type":"bool","internalType":"bool"}]},{"name":"required","type":"tuple","internalType":"struct HooksConfigData","components":[{"name":"useOnDeposit","type":"bool","internalType":"bool"},{"name":"useOnQueueWithdrawal","type":"bool","internalType":"bool"},{"name":"useOnExecuteWithdrawal","type":"bool","internalType":"bool"},{"name":"useOnTransfer","type":"bool","internalType":"bool"},{"name":"useOnBorrow","type":"bool","internalType":"bool"},{"name":"useOnRepay","type":"bool","internalType":"bool"},{"name":"useOnCloseMarket","type":"bool","internalType":"bool"},{"name":"useOnNukeFromOrbit","type":"bool","internalType":"bool"},{"name":"useOnSetMaxTotalSupply","type":"bool","internalType":"bool"},{"name":"useOnSetAnnualInterestAndReserveRatioBips","type":"bool","internalType":"bool"},{"name":"useOnSetProtocolFeeBips","type":"bool","internalType":"bool"}]}]},{"name":"pullProviders","type":"tuple[]","internalType":"struct RoleProviderData[]","components":[{"name":"timeToLive","type":"uint32","internalType":"uint32"},{"name":"providerAddress","type":"address","internalType":"address"},{"name":"pullProviderIndex","type":"uint24","internalType":"uint24"},{"name":"pushProviderIndex","type":"uint24","internalType":"uint24"}]},{"name":"pushProviders","type":"tuple[]","internalType":"struct RoleProviderData[]","components":[{"name":"timeToLive","type":"uint32","internalType":"uint32"},{"name":"providerAddress","type":"address","internalType":"address"},{"name":"pullProviderIndex","type":"uint24","internalType":"uint24"},{"name":"pushProviderIndex","type":"uint24","internalType":"uint24"}]},{"name":"totalMarkets","type":"uint256","internalType":"uint256"}]},{"name":"temporaryReserveRatio","type":"bool","internalType":"bool"},{"name":"originalAnnualInterestBips","type":"uint256","internalType":"uint256"},{"name":"originalReserveRatioBips","type":"uint256","internalType":"uint256"},{"name":"temporaryReserveRatioExpiry","type":"uint256","internalType":"uint256"},{"name":"isClosed","type":"bool","internalType":"bool"},{"name":"protocolFeeBips","type":"uint256","internalType":"uint256"},{"name":"reserveRatioBips","type":"uint256","internalType":"uint256"},{"name":"annualInterestBips","type":"uint256","internalType":"uint256"},{"name":"scaleFactor","type":"uint256","internalType":"uint256"},{"name":"totalSupply","type":"uint256","internalType":"uint256"},{"name":"maxTotalSupply","type":"uint256","internalType":"uint256"},{"name":"scaledTotalSupply","type":"uint256","internalType":"uint256"},{"name":"totalAssets","type":"uint256","internalType":"uint256"},{"name":"lastAccruedProtocolFees","type":"uint256","internalType":"uint256"},{"name":"normalizedUnclaimedWithdrawals","type":"uint256","internalType":"uint256"},{"name":"scaledPendingWithdrawals","type":"uint256","internalType":"uint256"},{"name":"pendingWithdrawalExpiry","type":"uint256","internalType":"uint256"},{"name":"isDelinquent","type":"bool","internalType":"bool"},{"name":"timeDelinquent","type":"uint256","internalType":"uint256"},{"name":"lastInterestAccruedTimestamp","type":"uint256","internalType":"uint256"},{"name":"unpaidWithdrawalBatchExpiries","type":"uint32[]","internalType":"uint32[]"},{"name":"coverageLiquidity","type":"uint256","internalType":"uint256"}]}],"stateMutability":"view"},{"type":"function","name":"getMarketsDataWithLenderStatus","inputs":[{"name":"lender","type":"address","internalType":"address"},{"name":"markets","type":"address[]","internalType":"address[]"}],"outputs":[{"name":"data","type":"tuple[]","internalType":"struct MarketDataWithLenderStatus[]","components":[{"name":"market","type":"tuple","internalType":"struct MarketData","components":[{"name":"marketToken","type":"tuple","internalType":"struct TokenMetadata","components":[{"name":"token","type":"address","internalType":"address"},{"name":"name","type":"string","internalType":"string"},{"name":"symbol","type":"string","internalType":"string"},{"name":"decimals","type":"uint256","internalType":"uint256"},{"name":"isMock","type":"bool","internalType":"bool"}]},{"name":"underlyingToken","type":"tuple","internalType":"struct TokenMetadata","components":[{"name":"token","type":"address","internalType":"address"},{"name":"name","type":"string","internalType":"string"},{"name":"symbol","type":"string","internalType":"string"},{"name":"decimals","type":"uint256","internalType":"uint256"},{"name":"isMock","type":"bool","internalType":"bool"}]},{"name":"hooksFactory","type":"address","internalType":"address"},{"name":"borrower","type":"address","internalType":"address"},{"name":"hooksConfig","type":"tuple","internalType":"struct MarketHooksData","components":[{"name":"hooksAddress","type":"address","internalType":"address"},{"name":"flags","type":"tuple","internalType":"struct HooksConfigData","components":[{"name":"useOnDeposit","type":"bool","internalType":"bool"},{"name":"useOnQueueWithdrawal","type":"bool","internalType":"bool"},{"name":"useOnExecuteWithdrawal","type":"bool","internalType":"bool"},{"name":"useOnTransfer","type":"bool","internalType":"bool"},{"name":"useOnBorrow","type":"bool","internalType":"bool"},{"name":"useOnRepay","type":"bool","internalType":"bool"},{"name":"useOnCloseMarket","type":"bool","internalType":"bool"},{"name":"useOnNukeFromOrbit","type":"bool","internalType":"bool"},{"name":"useOnSetMaxTotalSupply","type":"bool","internalType":"bool"},{"name":"useOnSetAnnualInterestAndReserveRatioBips","type":"bool","internalType":"bool"},{"name":"useOnSetProtocolFeeBips","type":"bool","internalType":"bool"}]},{"name":"kind","type":"uint8","internalType":"enum HooksInstanceKind"},{"name":"transferRequiresAccess","type":"bool","internalType":"bool"},{"name":"depositRequiresAccess","type":"bool","internalType":"bool"},{"name":"minimumDeposit","type":"uint128","internalType":"uint128"},{"name":"transfersDisabled","type":"bool","internalType":"bool"},{"name":"allowForceBuyBacks","type":"bool","internalType":"bool"},{"name":"withdrawalRequiresAccess","type":"bool","internalType":"bool"},{"name":"fixedTermEndTime","type":"uint32","internalType":"uint32"},{"name":"allowClosureBeforeTerm","type":"bool","internalType":"bool"},{"name":"allowTermReduction","type":"bool","internalType":"bool"}]},{"name":"withdrawalBatchDuration","type":"uint256","internalType":"uint256"},{"name":"feeRecipient","type":"address","internalType":"address"},{"name":"delinquencyFeeBips","type":"uint256","internalType":"uint256"},{"name":"delinquencyGracePeriod","type":"uint256","internalType":"uint256"},{"name":"hooks","type":"tuple","internalType":"struct HooksInstanceData","components":[{"name":"hooksAddress","type":"address","internalType":"address"},{"name":"borrower","type":"address","internalType":"address"},{"name":"name","type":"string","internalType":"string"},{"name":"kind","type":"uint8","internalType":"enum HooksInstanceKind"},{"name":"hooksTemplate","type":"address","internalType":"address"},{"name":"hooksTemplateName","type":"string","internalType":"string"},{"name":"constraints","type":"tuple","internalType":"struct MarketParameterConstraints","components":[{"name":"minimumDelinquencyGracePeriod","type":"uint32","internalType":"uint32"},{"name":"maximumDelinquencyGracePeriod","type":"uint32","internalType":"uint32"},{"name":"minimumReserveRatioBips","type":"uint16","internalType":"uint16"},{"name":"maximumReserveRatioBips","type":"uint16","internalType":"uint16"},{"name":"minimumDelinquencyFeeBips","type":"uint16","internalType":"uint16"},{"name":"maximumDelinquencyFeeBips","type":"uint16","internalType":"uint16"},{"name":"minimumWithdrawalBatchDuration","type":"uint32","internalType":"uint32"},{"name":"maximumWithdrawalBatchDuration","type":"uint32","internalType":"uint32"},{"name":"minimumAnnualInterestBips","type":"uint16","internalType":"uint16"},{"name":"maximumAnnualInterestBips","type":"uint16","internalType":"uint16"}]},{"name":"deploymentFlags","type":"tuple","internalType":"struct HooksDeploymentFlags","components":[{"name":"optional","type":"tuple","internalType":"struct HooksConfigData","components":[{"name":"useOnDeposit","type":"bool","internalType":"bool"},{"name":"useOnQueueWithdrawal","type":"bool","internalType":"bool"},{"name":"useOnExecuteWithdrawal","type":"bool","internalType":"bool"},{"name":"useOnTransfer","type":"bool","internalType":"bool"},{"name":"useOnBorrow","type":"bool","internalType":"bool"},{"name":"useOnRepay","type":"bool","internalType":"bool"},{"name":"useOnCloseMarket","type":"bool","internalType":"bool"},{"name":"useOnNukeFromOrbit","type":"bool","internalType":"bool"},{"name":"useOnSetMaxTotalSupply","type":"bool","internalType":"bool"},{"name":"useOnSetAnnualInterestAndReserveRatioBips","type":"bool","internalType":"bool"},{"name":"useOnSetProtocolFeeBips","type":"bool","internalType":"bool"}]},{"name":"required","type":"tuple","internalType":"struct HooksConfigData","components":[{"name":"useOnDeposit","type":"bool","internalType":"bool"},{"name":"useOnQueueWithdrawal","type":"bool","internalType":"bool"},{"name":"useOnExecuteWithdrawal","type":"bool","internalType":"bool"},{"name":"useOnTransfer","type":"bool","internalType":"bool"},{"name":"useOnBorrow","type":"bool","internalType":"bool"},{"name":"useOnRepay","type":"bool","internalType":"bool"},{"name":"useOnCloseMarket","type":"bool","internalType":"bool"},{"name":"useOnNukeFromOrbit","type":"bool","internalType":"bool"},{"name":"useOnSetMaxTotalSupply","type":"bool","internalType":"bool"},{"name":"useOnSetAnnualInterestAndReserveRatioBips","type":"bool","internalType":"bool"},{"name":"useOnSetProtocolFeeBips","type":"bool","internalType":"bool"}]}]},{"name":"pullProviders","type":"tuple[]","internalType":"struct RoleProviderData[]","components":[{"name":"timeToLive","type":"uint32","internalType":"uint32"},{"name":"providerAddress","type":"address","internalType":"address"},{"name":"pullProviderIndex","type":"uint24","internalType":"uint24"},{"name":"pushProviderIndex","type":"uint24","internalType":"uint24"}]},{"name":"pushProviders","type":"tuple[]","internalType":"struct RoleProviderData[]","components":[{"name":"timeToLive","type":"uint32","internalType":"uint32"},{"name":"providerAddress","type":"address","internalType":"address"},{"name":"pullProviderIndex","type":"uint24","internalType":"uint24"},{"name":"pushProviderIndex","type":"uint24","internalType":"uint24"}]},{"name":"totalMarkets","type":"uint256","internalType":"uint256"}]},{"name":"temporaryReserveRatio","type":"bool","internalType":"bool"},{"name":"originalAnnualInterestBips","type":"uint256","internalType":"uint256"},{"name":"originalReserveRatioBips","type":"uint256","internalType":"uint256"},{"name":"temporaryReserveRatioExpiry","type":"uint256","internalType":"uint256"},{"name":"isClosed","type":"bool","internalType":"bool"},{"name":"protocolFeeBips","type":"uint256","internalType":"uint256"},{"name":"reserveRatioBips","type":"uint256","internalType":"uint256"},{"name":"annualInterestBips","type":"uint256","internalType":"uint256"},{"name":"scaleFactor","type":"uint256","internalType":"uint256"},{"name":"totalSupply","type":"uint256","internalType":"uint256"},{"name":"maxTotalSupply","type":"uint256","internalType":"uint256"},{"name":"scaledTotalSupply","type":"uint256","internalType":"uint256"},{"name":"totalAssets","type":"uint256","internalType":"uint256"},{"name":"lastAccruedProtocolFees","type":"uint256","internalType":"uint256"},{"name":"normalizedUnclaimedWithdrawals","type":"uint256","internalType":"uint256"},{"name":"scaledPendingWithdrawals","type":"uint256","internalType":"uint256"},{"name":"pendingWithdrawalExpiry","type":"uint256","internalType":"uint256"},{"name":"isDelinquent","type":"bool","internalType":"bool"},{"name":"timeDelinquent","type":"uint256","internalType":"uint256"},{"name":"lastInterestAccruedTimestamp","type":"uint256","internalType":"uint256"},{"name":"unpaidWithdrawalBatchExpiries","type":"uint32[]","internalType":"uint32[]"},{"name":"coverageLiquidity","type":"uint256","internalType":"uint256"}]},{"name":"lenderStatus","type":"tuple","internalType":"struct LenderAccountData","components":[{"name":"lender","type":"address","internalType":"address"},{"name":"scaledBalance","type":"uint256","internalType":"uint256"},{"name":"normalizedBalance","type":"uint256","internalType":"uint256"},{"name":"underlyingBalance","type":"uint256","internalType":"uint256"},{"name":"underlyingApproval","type":"uint256","internalType":"uint256"},{"name":"isBlockedFromDeposits","type":"bool","internalType":"bool"},{"name":"lastProvider","type":"tuple","internalType":"struct RoleProviderData","components":[{"name":"timeToLive","type":"uint32","internalType":"uint32"},{"name":"providerAddress","type":"address","internalType":"address"},{"name":"pullProviderIndex","type":"uint24","internalType":"uint24"},{"name":"pushProviderIndex","type":"uint24","internalType":"uint24"}]},{"name":"canRefresh","type":"bool","internalType":"bool"},{"name":"lastApprovalTimestamp","type":"uint32","internalType":"uint32"},{"name":"isKnownLender","type":"bool","internalType":"bool"}]}]}],"stateMutability":"view"},{"type":"function","name":"getMarketsForHooksTemplateCount","inputs":[{"name":"hooksTemplate","type":"address","internalType":"address"}],"outputs":[{"name":"","type":"uint256","internalType":"uint256"}],"stateMutability":"view"},{"type":"function","name":"getPaginatedMarketsDataForHooksTemplate","inputs":[{"name":"hooksTemplate","type":"address","internalType":"address"},{"name":"start","type":"uint256","internalType":"uint256"},{"name":"end","type":"uint256","internalType":"uint256"}],"outputs":[{"name":"data","type":"tuple[]","internalType":"struct MarketData[]","components":[{"name":"marketToken","type":"tuple","internalType":"struct TokenMetadata","components":[{"name":"token","type":"address","internalType":"address"},{"name":"name","type":"string","internalType":"string"},{"name":"symbol","type":"string","internalType":"string"},{"name":"decimals","type":"uint256","internalType":"uint256"},{"name":"isMock","type":"bool","internalType":"bool"}]},{"name":"underlyingToken","type":"tuple","internalType":"struct TokenMetadata","components":[{"name":"token","type":"address","internalType":"address"},{"name":"name","type":"string","internalType":"string"},{"name":"symbol","type":"string","internalType":"string"},{"name":"decimals","type":"uint256","internalType":"uint256"},{"name":"isMock","type":"bool","internalType":"bool"}]},{"name":"hooksFactory","type":"address","internalType":"address"},{"name":"borrower","type":"address","internalType":"address"},{"name":"hooksConfig","type":"tuple","internalType":"struct MarketHooksData","components":[{"name":"hooksAddress","type":"address","internalType":"address"},{"name":"flags","type":"tuple","internalType":"struct HooksConfigData","components":[{"name":"useOnDeposit","type":"bool","internalType":"bool"},{"name":"useOnQueueWithdrawal","type":"bool","internalType":"bool"},{"name":"useOnExecuteWithdrawal","type":"bool","internalType":"bool"},{"name":"useOnTransfer","type":"bool","internalType":"bool"},{"name":"useOnBorrow","type":"bool","internalType":"bool"},{"name":"useOnRepay","type":"bool","internalType":"bool"},{"name":"useOnCloseMarket","type":"bool","internalType":"bool"},{"name":"useOnNukeFromOrbit","type":"bool","internalType":"bool"},{"name":"useOnSetMaxTotalSupply","type":"bool","internalType":"bool"},{"name":"useOnSetAnnualInterestAndReserveRatioBips","type":"bool","internalType":"bool"},{"name":"useOnSetProtocolFeeBips","type":"bool","internalType":"bool"}]},{"name":"kind","type":"uint8","internalType":"enum HooksInstanceKind"},{"name":"transferRequiresAccess","type":"bool","internalType":"bool"},{"name":"depositRequiresAccess","type":"bool","internalType":"bool"},{"name":"minimumDeposit","type":"uint128","internalType":"uint128"},{"name":"transfersDisabled","type":"bool","internalType":"bool"},{"name":"allowForceBuyBacks","type":"bool","internalType":"bool"},{"name":"withdrawalRequiresAccess","type":"bool","internalType":"bool"},{"name":"fixedTermEndTime","type":"uint32","internalType":"uint32"},{"name":"allowClosureBeforeTerm","type":"bool","internalType":"bool"},{"name":"allowTermReduction","type":"bool","internalType":"bool"}]},{"name":"withdrawalBatchDuration","type":"uint256","internalType":"uint256"},{"name":"feeRecipient","type":"address","internalType":"address"},{"name":"delinquencyFeeBips","type":"uint256","internalType":"uint256"},{"name":"delinquencyGracePeriod","type":"uint256","internalType":"uint256"},{"name":"hooks","type":"tuple","internalType":"struct HooksInstanceData","components":[{"name":"hooksAddress","type":"address","internalType":"address"},{"name":"borrower","type":"address","internalType":"address"},{"name":"name","type":"string","internalType":"string"},{"name":"kind","type":"uint8","internalType":"enum HooksInstanceKind"},{"name":"hooksTemplate","type":"address","internalType":"address"},{"name":"hooksTemplateName","type":"string","internalType":"string"},{"name":"constraints","type":"tuple","internalType":"struct MarketParameterConstraints","components":[{"name":"minimumDelinquencyGracePeriod","type":"uint32","internalType":"uint32"},{"name":"maximumDelinquencyGracePeriod","type":"uint32","internalType":"uint32"},{"name":"minimumReserveRatioBips","type":"uint16","internalType":"uint16"},{"name":"maximumReserveRatioBips","type":"uint16","internalType":"uint16"},{"name":"minimumDelinquencyFeeBips","type":"uint16","internalType":"uint16"},{"name":"maximumDelinquencyFeeBips","type":"uint16","internalType":"uint16"},{"name":"minimumWithdrawalBatchDuration","type":"uint32","internalType":"uint32"},{"name":"maximumWithdrawalBatchDuration","type":"uint32","internalType":"uint32"},{"name":"minimumAnnualInterestBips","type":"uint16","internalType":"uint16"},{"name":"maximumAnnualInterestBips","type":"uint16","internalType":"uint16"}]},{"name":"deploymentFlags","type":"tuple","internalType":"struct HooksDeploymentFlags","components":[{"name":"optional","type":"tuple","internalType":"struct HooksConfigData","components":[{"name":"useOnDeposit","type":"bool","internalType":"bool"},{"name":"useOnQueueWithdrawal","type":"bool","internalType":"bool"},{"name":"useOnExecuteWithdrawal","type":"bool","internalType":"bool"},{"name":"useOnTransfer","type":"bool","internalType":"bool"},{"name":"useOnBorrow","type":"bool","internalType":"bool"},{"name":"useOnRepay","type":"bool","internalType":"bool"},{"name":"useOnCloseMarket","type":"bool","internalType":"bool"},{"name":"useOnNukeFromOrbit","type":"bool","internalType":"bool"},{"name":"useOnSetMaxTotalSupply","type":"bool","internalType":"bool"},{"name":"useOnSetAnnualInterestAndReserveRatioBips","type":"bool","internalType":"bool"},{"name":"useOnSetProtocolFeeBips","type":"bool","internalType":"bool"}]},{"name":"required","type":"tuple","internalType":"struct HooksConfigData","components":[{"name":"useOnDeposit","type":"bool","internalType":"bool"},{"name":"useOnQueueWithdrawal","type":"bool","internalType":"bool"},{"name":"useOnExecuteWithdrawal","type":"bool","internalType":"bool"},{"name":"useOnTransfer","type":"bool","internalType":"bool"},{"name":"useOnBorrow","type":"bool","internalType":"bool"},{"name":"useOnRepay","type":"bool","internalType":"bool"},{"name":"useOnCloseMarket","type":"bool","internalType":"bool"},{"name":"useOnNukeFromOrbit","type":"bool","internalType":"bool"},{"name":"useOnSetMaxTotalSupply","type":"bool","internalType":"bool"},{"name":"useOnSetAnnualInterestAndReserveRatioBips","type":"bool","internalType":"bool"},{"name":"useOnSetProtocolFeeBips","type":"bool","internalType":"bool"}]}]},{"name":"pullProviders","type":"tuple[]","internalType":"struct RoleProviderData[]","components":[{"name":"timeToLive","type":"uint32","internalType":"uint32"},{"name":"providerAddress","type":"address","internalType":"address"},{"name":"pullProviderIndex","type":"uint24","internalType":"uint24"},{"name":"pushProviderIndex","type":"uint24","internalType":"uint24"}]},{"name":"pushProviders","type":"tuple[]","internalType":"struct RoleProviderData[]","components":[{"name":"timeToLive","type":"uint32","internalType":"uint32"},{"name":"providerAddress","type":"address","internalType":"address"},{"name":"pullProviderIndex","type":"uint24","internalType":"uint24"},{"name":"pushProviderIndex","type":"uint24","internalType":"uint24"}]},{"name":"totalMarkets","type":"uint256","internalType":"uint256"}]},{"name":"temporaryReserveRatio","type":"bool","internalType":"bool"},{"name":"originalAnnualInterestBips","type":"uint256","internalType":"uint256"},{"name":"originalReserveRatioBips","type":"uint256","internalType":"uint256"},{"name":"temporaryReserveRatioExpiry","type":"uint256","internalType":"uint256"},{"name":"isClosed","type":"bool","internalType":"bool"},{"name":"protocolFeeBips","type":"uint256","internalType":"uint256"},{"name":"reserveRatioBips","type":"uint256","internalType":"uint256"},{"name":"annualInterestBips","type":"uint256","internalType":"uint256"},{"name":"scaleFactor","type":"uint256","internalType":"uint256"},{"name":"totalSupply","type":"uint256","internalType":"uint256"},{"name":"maxTotalSupply","type":"uint256","internalType":"uint256"},{"name":"scaledTotalSupply","type":"uint256","internalType":"uint256"},{"name":"totalAssets","type":"uint256","internalType":"uint256"},{"name":"lastAccruedProtocolFees","type":"uint256","internalType":"uint256"},{"name":"normalizedUnclaimedWithdrawals","type":"uint256","internalType":"uint256"},{"name":"scaledPendingWithdrawals","type":"uint256","internalType":"uint256"},{"name":"pendingWithdrawalExpiry","type":"uint256","internalType":"uint256"},{"name":"isDelinquent","type":"bool","internalType":"bool"},{"name":"timeDelinquent","type":"uint256","internalType":"uint256"},{"name":"lastInterestAccruedTimestamp","type":"uint256","internalType":"uint256"},{"name":"unpaidWithdrawalBatchExpiries","type":"uint32[]","internalType":"uint32[]"},{"name":"coverageLiquidity","type":"uint256","internalType":"uint256"}]}],"stateMutability":"view"},{"type":"function","name":"getTokenInfo","inputs":[{"name":"token","type":"address","internalType":"address"}],"outputs":[{"name":"info","type":"tuple","internalType":"struct TokenMetadata","components":[{"name":"token","type":"address","internalType":"address"},{"name":"name","type":"string","internalType":"string"},{"name":"symbol","type":"string","internalType":"string"},{"name":"decimals","type":"uint256","internalType":"uint256"},{"name":"isMock","type":"bool","internalType":"bool"}]}],"stateMutability":"view"},{"type":"function","name":"getTokensInfo","inputs":[{"name":"tokens","type":"address[]","internalType":"address[]"}],"outputs":[{"name":"info","type":"tuple[]","internalType":"struct TokenMetadata[]","components":[{"name":"token","type":"address","internalType":"address"},{"name":"name","type":"string","internalType":"string"},{"name":"symbol","type":"string","internalType":"string"},{"name":"decimals","type":"uint256","internalType":"uint256"},{"name":"isMock","type":"bool","internalType":"bool"}]}],"stateMutability":"view"},{"type":"function","name":"getWithdrawalBatchData","inputs":[{"name":"market","type":"address","internalType":"address"},{"name":"expiry","type":"uint32","internalType":"uint32"}],"outputs":[{"name":"data","type":"tuple","internalType":"struct WithdrawalBatchData","components":[{"name":"expiry","type":"uint32","internalType":"uint32"},{"name":"status","type":"uint8","internalType":"enum BatchStatus"},{"name":"scaledTotalAmount","type":"uint256","internalType":"uint256"},{"name":"scaledAmountBurned","type":"uint256","internalType":"uint256"},{"name":"normalizedAmountPaid","type":"uint256","internalType":"uint256"},{"name":"normalizedTotalAmount","type":"uint256","internalType":"uint256"}]}],"stateMutability":"view"},{"type":"function","name":"getWithdrawalBatchDataWithLenderStatus","inputs":[{"name":"market","type":"address","internalType":"address"},{"name":"expiry","type":"uint32","internalType":"uint32"},{"name":"lender","type":"address","internalType":"address"}],"outputs":[{"name":"status","type":"tuple","internalType":"struct WithdrawalBatchDataWithLenderStatus","components":[{"name":"batch","type":"tuple","internalType":"struct WithdrawalBatchData","components":[{"name":"expiry","type":"uint32","internalType":"uint32"},{"name":"status","type":"uint8","internalType":"enum BatchStatus"},{"name":"scaledTotalAmount","type":"uint256","internalType":"uint256"},{"name":"scaledAmountBurned","type":"uint256","internalType":"uint256"},{"name":"normalizedAmountPaid","type":"uint256","internalType":"uint256"},{"name":"normalizedTotalAmount","type":"uint256","internalType":"uint256"}]},{"name":"lenderStatus","type":"tuple","internalType":"struct WithdrawalBatchLenderStatus","components":[{"name":"lender","type":"address","internalType":"address"},{"name":"scaledAmount","type":"uint256","internalType":"uint256"},{"name":"normalizedAmountWithdrawn","type":"uint256","internalType":"uint256"},{"name":"normalizedAmountOwed","type":"uint256","internalType":"uint256"},{"name":"availableWithdrawalAmount","type":"uint256","internalType":"uint256"}]}]}],"stateMutability":"view"},{"type":"function","name":"getWithdrawalBatchDataWithLendersStatus","inputs":[{"name":"market","type":"address","internalType":"address"},{"name":"expiry","type":"uint32","internalType":"uint32"},{"name":"lenders","type":"address[]","internalType":"address[]"}],"outputs":[{"name":"batch","type":"tuple","internalType":"struct WithdrawalBatchData","components":[{"name":"expiry","type":"uint32","internalType":"uint32"},{"name":"status","type":"uint8","internalType":"enum BatchStatus"},{"name":"scaledTotalAmount","type":"uint256","internalType":"uint256"},{"name":"scaledAmountBurned","type":"uint256","internalType":"uint256"},{"name":"normalizedAmountPaid","type":"uint256","internalType":"uint256"},{"name":"normalizedTotalAmount","type":"uint256","internalType":"uint256"}]},{"name":"statuses","type":"tuple[]","internalType":"struct WithdrawalBatchLenderStatus[]","components":[{"name":"lender","type":"address","internalType":"address"},{"name":"scaledAmount","type":"uint256","internalType":"uint256"},{"name":"normalizedAmountWithdrawn","type":"uint256","internalType":"uint256"},{"name":"normalizedAmountOwed","type":"uint256","internalType":"uint256"},{"name":"availableWithdrawalAmount","type":"uint256","internalType":"uint256"}]}],"stateMutability":"view"},{"type":"function","name":"getWithdrawalBatchesData","inputs":[{"name":"market","type":"address","internalType":"address"},{"name":"expiries","type":"uint32[]","internalType":"uint32[]"}],"outputs":[{"name":"data","type":"tuple[]","internalType":"struct WithdrawalBatchData[]","components":[{"name":"expiry","type":"uint32","internalType":"uint32"},{"name":"status","type":"uint8","internalType":"enum BatchStatus"},{"name":"scaledTotalAmount","type":"uint256","internalType":"uint256"},{"name":"scaledAmountBurned","type":"uint256","internalType":"uint256"},{"name":"normalizedAmountPaid","type":"uint256","internalType":"uint256"},{"name":"normalizedTotalAmount","type":"uint256","internalType":"uint256"}]}],"stateMutability":"view"},{"type":"function","name":"getWithdrawalBatchesDataWithLenderStatus","inputs":[{"name":"market","type":"address","internalType":"address"},{"name":"expiries","type":"uint32[]","internalType":"uint32[]"},{"name":"lender","type":"address","internalType":"address"}],"outputs":[{"name":"statuses","type":"tuple[]","internalType":"struct WithdrawalBatchDataWithLenderStatus[]","components":[{"name":"batch","type":"tuple","internalType":"struct WithdrawalBatchData","components":[{"name":"expiry","type":"uint32","internalType":"uint32"},{"name":"status","type":"uint8","internalType":"enum BatchStatus"},{"name":"scaledTotalAmount","type":"uint256","internalType":"uint256"},{"name":"scaledAmountBurned","type":"uint256","internalType":"uint256"},{"name":"normalizedAmountPaid","type":"uint256","internalType":"uint256"},{"name":"normalizedTotalAmount","type":"uint256","internalType":"uint256"}]},{"name":"lenderStatus","type":"tuple","internalType":"struct WithdrawalBatchLenderStatus","components":[{"name":"lender","type":"address","internalType":"address"},{"name":"scaledAmount","type":"uint256","internalType":"uint256"},{"name":"normalizedAmountWithdrawn","type":"uint256","internalType":"uint256"},{"name":"normalizedAmountOwed","type":"uint256","internalType":"uint256"},{"name":"availableWithdrawalAmount","type":"uint256","internalType":"uint256"}]}]}],"stateMutability":"view"},{"type":"function","name":"hooksFactory","inputs":[],"outputs":[{"name":"","type":"address","internalType":"contract HooksFactory"}],"stateMutability":"view"},{"type":"function","name":"queryLenderAccount","inputs":[{"name":"query","type":"tuple","internalType":"struct LenderAccountQuery","components":[{"name":"lender","type":"address","internalType":"address"},{"name":"market","type":"address","internalType":"address"},{"name":"withdrawalBatchExpiries","type":"uint32[]","internalType":"uint32[]"}]}],"outputs":[{"name":"result","type":"tuple","internalType":"struct LenderAccountQueryResult","components":[{"name":"market","type":"tuple","internalType":"struct MarketData","components":[{"name":"marketToken","type":"tuple","internalType":"struct TokenMetadata","components":[{"name":"token","type":"address","internalType":"address"},{"name":"name","type":"string","internalType":"string"},{"name":"symbol","type":"string","internalType":"string"},{"name":"decimals","type":"uint256","internalType":"uint256"},{"name":"isMock","type":"bool","internalType":"bool"}]},{"name":"underlyingToken","type":"tuple","internalType":"struct TokenMetadata","components":[{"name":"token","type":"address","internalType":"address"},{"name":"name","type":"string","internalType":"string"},{"name":"symbol","type":"string","internalType":"string"},{"name":"decimals","type":"uint256","internalType":"uint256"},{"name":"isMock","type":"bool","internalType":"bool"}]},{"name":"hooksFactory","type":"address","internalType":"address"},{"name":"borrower","type":"address","internalType":"address"},{"name":"hooksConfig","type":"tuple","internalType":"struct MarketHooksData","components":[{"name":"hooksAddress","type":"address","internalType":"address"},{"name":"flags","type":"tuple","internalType":"struct HooksConfigData","components":[{"name":"useOnDeposit","type":"bool","internalType":"bool"},{"name":"useOnQueueWithdrawal","type":"bool","internalType":"bool"},{"name":"useOnExecuteWithdrawal","type":"bool","internalType":"bool"},{"name":"useOnTransfer","type":"bool","internalType":"bool"},{"name":"useOnBorrow","type":"bool","internalType":"bool"},{"name":"useOnRepay","type":"bool","internalType":"bool"},{"name":"useOnCloseMarket","type":"bool","internalType":"bool"},{"name":"useOnNukeFromOrbit","type":"bool","internalType":"bool"},{"name":"useOnSetMaxTotalSupply","type":"bool","internalType":"bool"},{"name":"useOnSetAnnualInterestAndReserveRatioBips","type":"bool","internalType":"bool"},{"name":"useOnSetProtocolFeeBips","type":"bool","internalType":"bool"}]},{"name":"kind","type":"uint8","internalType":"enum HooksInstanceKind"},{"name":"transferRequiresAccess","type":"bool","internalType":"bool"},{"name":"depositRequiresAccess","type":"bool","internalType":"bool"},{"name":"minimumDeposit","type":"uint128","internalType":"uint128"},{"name":"transfersDisabled","type":"bool","internalType":"bool"},{"name":"allowForceBuyBacks","type":"bool","internalType":"bool"},{"name":"withdrawalRequiresAccess","type":"bool","internalType":"bool"},{"name":"fixedTermEndTime","type":"uint32","internalType":"uint32"},{"name":"allowClosureBeforeTerm","type":"bool","internalType":"bool"},{"name":"allowTermReduction","type":"bool","internalType":"bool"}]},{"name":"withdrawalBatchDuration","type":"uint256","internalType":"uint256"},{"name":"feeRecipient","type":"address","internalType":"address"},{"name":"delinquencyFeeBips","type":"uint256","internalType":"uint256"},{"name":"delinquencyGracePeriod","type":"uint256","internalType":"uint256"},{"name":"hooks","type":"tuple","internalType":"struct HooksInstanceData","components":[{"name":"hooksAddress","type":"address","internalType":"address"},{"name":"borrower","type":"address","internalType":"address"},{"name":"name","type":"string","internalType":"string"},{"name":"kind","type":"uint8","internalType":"enum HooksInstanceKind"},{"name":"hooksTemplate","type":"address","internalType":"address"},{"name":"hooksTemplateName","type":"string","internalType":"string"},{"name":"constraints","type":"tuple","internalType":"struct MarketParameterConstraints","components":[{"name":"minimumDelinquencyGracePeriod","type":"uint32","internalType":"uint32"},{"name":"maximumDelinquencyGracePeriod","type":"uint32","internalType":"uint32"},{"name":"minimumReserveRatioBips","type":"uint16","internalType":"uint16"},{"name":"maximumReserveRatioBips","type":"uint16","internalType":"uint16"},{"name":"minimumDelinquencyFeeBips","type":"uint16","internalType":"uint16"},{"name":"maximumDelinquencyFeeBips","type":"uint16","internalType":"uint16"},{"name":"minimumWithdrawalBatchDuration","type":"uint32","internalType":"uint32"},{"name":"maximumWithdrawalBatchDuration","type":"uint32","internalType":"uint32"},{"name":"minimumAnnualInterestBips","type":"uint16","internalType":"uint16"},{"name":"maximumAnnualInterestBips","type":"uint16","internalType":"uint16"}]},{"name":"deploymentFlags","type":"tuple","internalType":"struct HooksDeploymentFlags","components":[{"name":"optional","type":"tuple","internalType":"struct HooksConfigData","components":[{"name":"useOnDeposit","type":"bool","internalType":"bool"},{"name":"useOnQueueWithdrawal","type":"bool","internalType":"bool"},{"name":"useOnExecuteWithdrawal","type":"bool","internalType":"bool"},{"name":"useOnTransfer","type":"bool","internalType":"bool"},{"name":"useOnBorrow","type":"bool","internalType":"bool"},{"name":"useOnRepay","type":"bool","internalType":"bool"},{"name":"useOnCloseMarket","type":"bool","internalType":"bool"},{"name":"useOnNukeFromOrbit","type":"bool","internalType":"bool"},{"name":"useOnSetMaxTotalSupply","type":"bool","internalType":"bool"},{"name":"useOnSetAnnualInterestAndReserveRatioBips","type":"bool","internalType":"bool"},{"name":"useOnSetProtocolFeeBips","type":"bool","internalType":"bool"}]},{"name":"required","type":"tuple","internalType":"struct HooksConfigData","components":[{"name":"useOnDeposit","type":"bool","internalType":"bool"},{"name":"useOnQueueWithdrawal","type":"bool","internalType":"bool"},{"name":"useOnExecuteWithdrawal","type":"bool","internalType":"bool"},{"name":"useOnTransfer","type":"bool","internalType":"bool"},{"name":"useOnBorrow","type":"bool","internalType":"bool"},{"name":"useOnRepay","type":"bool","internalType":"bool"},{"name":"useOnCloseMarket","type":"bool","internalType":"bool"},{"name":"useOnNukeFromOrbit","type":"bool","internalType":"bool"},{"name":"useOnSetMaxTotalSupply","type":"bool","internalType":"bool"},{"name":"useOnSetAnnualInterestAndReserveRatioBips","type":"bool","internalType":"bool"},{"name":"useOnSetProtocolFeeBips","type":"bool","internalType":"bool"}]}]},{"name":"pullProviders","type":"tuple[]","internalType":"struct RoleProviderData[]","components":[{"name":"timeToLive","type":"uint32","internalType":"uint32"},{"name":"providerAddress","type":"address","internalType":"address"},{"name":"pullProviderIndex","type":"uint24","internalType":"uint24"},{"name":"pushProviderIndex","type":"uint24","internalType":"uint24"}]},{"name":"pushProviders","type":"tuple[]","internalType":"struct RoleProviderData[]","components":[{"name":"timeToLive","type":"uint32","internalType":"uint32"},{"name":"providerAddress","type":"address","internalType":"address"},{"name":"pullProviderIndex","type":"uint24","internalType":"uint24"},{"name":"pushProviderIndex","type":"uint24","internalType":"uint24"}]},{"name":"totalMarkets","type":"uint256","internalType":"uint256"}]},{"name":"temporaryReserveRatio","type":"bool","internalType":"bool"},{"name":"originalAnnualInterestBips","type":"uint256","internalType":"uint256"},{"name":"originalReserveRatioBips","type":"uint256","internalType":"uint256"},{"name":"temporaryReserveRatioExpiry","type":"uint256","internalType":"uint256"},{"name":"isClosed","type":"bool","internalType":"bool"},{"name":"protocolFeeBips","type":"uint256","internalType":"uint256"},{"name":"reserveRatioBips","type":"uint256","internalType":"uint256"},{"name":"annualInterestBips","type":"uint256","internalType":"uint256"},{"name":"scaleFactor","type":"uint256","internalType":"uint256"},{"name":"totalSupply","type":"uint256","internalType":"uint256"},{"name":"maxTotalSupply","type":"uint256","internalType":"uint256"},{"name":"scaledTotalSupply","type":"uint256","internalType":"uint256"},{"name":"totalAssets","type":"uint256","internalType":"uint256"},{"name":"lastAccruedProtocolFees","type":"uint256","internalType":"uint256"},{"name":"normalizedUnclaimedWithdrawals","type":"uint256","internalType":"uint256"},{"name":"scaledPendingWithdrawals","type":"uint256","internalType":"uint256"},{"name":"pendingWithdrawalExpiry","type":"uint256","internalType":"uint256"},{"name":"isDelinquent","type":"bool","internalType":"bool"},{"name":"timeDelinquent","type":"uint256","internalType":"uint256"},{"name":"lastInterestAccruedTimestamp","type":"uint256","internalType":"uint256"},{"name":"unpaidWithdrawalBatchExpiries","type":"uint32[]","internalType":"uint32[]"},{"name":"coverageLiquidity","type":"uint256","internalType":"uint256"}]},{"name":"lenderStatus","type":"tuple","internalType":"struct LenderAccountData","components":[{"name":"lender","type":"address","internalType":"address"},{"name":"scaledBalance","type":"uint256","internalType":"uint256"},{"name":"normalizedBalance","type":"uint256","internalType":"uint256"},{"name":"underlyingBalance","type":"uint256","internalType":"uint256"},{"name":"underlyingApproval","type":"uint256","internalType":"uint256"},{"name":"isBlockedFromDeposits","type":"bool","internalType":"bool"},{"name":"lastProvider","type":"tuple","internalType":"struct RoleProviderData","components":[{"name":"timeToLive","type":"uint32","internalType":"uint32"},{"name":"providerAddress","type":"address","internalType":"address"},{"name":"pullProviderIndex","type":"uint24","internalType":"uint24"},{"name":"pushProviderIndex","type":"uint24","internalType":"uint24"}]},{"name":"canRefresh","type":"bool","internalType":"bool"},{"name":"lastApprovalTimestamp","type":"uint32","internalType":"uint32"},{"name":"isKnownLender","type":"bool","internalType":"bool"}]},{"name":"withdrawalBatches","type":"tuple[]","internalType":"struct WithdrawalBatchDataWithLenderStatus[]","components":[{"name":"batch","type":"tuple","internalType":"struct WithdrawalBatchData","components":[{"name":"expiry","type":"uint32","internalType":"uint32"},{"name":"status","type":"uint8","internalType":"enum BatchStatus"},{"name":"scaledTotalAmount","type":"uint256","internalType":"uint256"},{"name":"scaledAmountBurned","type":"uint256","internalType":"uint256"},{"name":"normalizedAmountPaid","type":"uint256","internalType":"uint256"},{"name":"normalizedTotalAmount","type":"uint256","internalType":"uint256"}]},{"name":"lenderStatus","type":"tuple","internalType":"struct WithdrawalBatchLenderStatus","components":[{"name":"lender","type":"address","internalType":"address"},{"name":"scaledAmount","type":"uint256","internalType":"uint256"},{"name":"normalizedAmountWithdrawn","type":"uint256","internalType":"uint256"},{"name":"normalizedAmountOwed","type":"uint256","internalType":"uint256"},{"name":"availableWithdrawalAmount","type":"uint256","internalType":"uint256"}]}]}]}],"stateMutability":"view"},{"type":"function","name":"queryLenderAccounts","inputs":[{"name":"queries","type":"tuple[]","internalType":"struct LenderAccountQuery[]","components":[{"name":"lender","type":"address","internalType":"address"},{"name":"market","type":"address","internalType":"address"},{"name":"withdrawalBatchExpiries","type":"uint32[]","internalType":"uint32[]"}]}],"outputs":[{"name":"result","type":"tuple[]","internalType":"struct LenderAccountQueryResult[]","components":[{"name":"market","type":"tuple","internalType":"struct MarketData","components":[{"name":"marketToken","type":"tuple","internalType":"struct TokenMetadata","components":[{"name":"token","type":"address","internalType":"address"},{"name":"name","type":"string","internalType":"string"},{"name":"symbol","type":"string","internalType":"string"},{"name":"decimals","type":"uint256","internalType":"uint256"},{"name":"isMock","type":"bool","internalType":"bool"}]},{"name":"underlyingToken","type":"tuple","internalType":"struct TokenMetadata","components":[{"name":"token","type":"address","internalType":"address"},{"name":"name","type":"string","internalType":"string"},{"name":"symbol","type":"string","internalType":"string"},{"name":"decimals","type":"uint256","internalType":"uint256"},{"name":"isMock","type":"bool","internalType":"bool"}]},{"name":"hooksFactory","type":"address","internalType":"address"},{"name":"borrower","type":"address","internalType":"address"},{"name":"hooksConfig","type":"tuple","internalType":"struct MarketHooksData","components":[{"name":"hooksAddress","type":"address","internalType":"address"},{"name":"flags","type":"tuple","internalType":"struct HooksConfigData","components":[{"name":"useOnDeposit","type":"bool","internalType":"bool"},{"name":"useOnQueueWithdrawal","type":"bool","internalType":"bool"},{"name":"useOnExecuteWithdrawal","type":"bool","internalType":"bool"},{"name":"useOnTransfer","type":"bool","internalType":"bool"},{"name":"useOnBorrow","type":"bool","internalType":"bool"},{"name":"useOnRepay","type":"bool","internalType":"bool"},{"name":"useOnCloseMarket","type":"bool","internalType":"bool"},{"name":"useOnNukeFromOrbit","type":"bool","internalType":"bool"},{"name":"useOnSetMaxTotalSupply","type":"bool","internalType":"bool"},{"name":"useOnSetAnnualInterestAndReserveRatioBips","type":"bool","internalType":"bool"},{"name":"useOnSetProtocolFeeBips","type":"bool","internalType":"bool"}]},{"name":"kind","type":"uint8","internalType":"enum HooksInstanceKind"},{"name":"transferRequiresAccess","type":"bool","internalType":"bool"},{"name":"depositRequiresAccess","type":"bool","internalType":"bool"},{"name":"minimumDeposit","type":"uint128","internalType":"uint128"},{"name":"transfersDisabled","type":"bool","internalType":"bool"},{"name":"allowForceBuyBacks","type":"bool","internalType":"bool"},{"name":"withdrawalRequiresAccess","type":"bool","internalType":"bool"},{"name":"fixedTermEndTime","type":"uint32","internalType":"uint32"},{"name":"allowClosureBeforeTerm","type":"bool","internalType":"bool"},{"name":"allowTermReduction","type":"bool","internalType":"bool"}]},{"name":"withdrawalBatchDuration","type":"uint256","internalType":"uint256"},{"name":"feeRecipient","type":"address","internalType":"address"},{"name":"delinquencyFeeBips","type":"uint256","internalType":"uint256"},{"name":"delinquencyGracePeriod","type":"uint256","internalType":"uint256"},{"name":"hooks","type":"tuple","internalType":"struct HooksInstanceData","components":[{"name":"hooksAddress","type":"address","internalType":"address"},{"name":"borrower","type":"address","internalType":"address"},{"name":"name","type":"string","internalType":"string"},{"name":"kind","type":"uint8","internalType":"enum HooksInstanceKind"},{"name":"hooksTemplate","type":"address","internalType":"address"},{"name":"hooksTemplateName","type":"string","internalType":"string"},{"name":"constraints","type":"tuple","internalType":"struct MarketParameterConstraints","components":[{"name":"minimumDelinquencyGracePeriod","type":"uint32","internalType":"uint32"},{"name":"maximumDelinquencyGracePeriod","type":"uint32","internalType":"uint32"},{"name":"minimumReserveRatioBips","type":"uint16","internalType":"uint16"},{"name":"maximumReserveRatioBips","type":"uint16","internalType":"uint16"},{"name":"minimumDelinquencyFeeBips","type":"uint16","internalType":"uint16"},{"name":"maximumDelinquencyFeeBips","type":"uint16","internalType":"uint16"},{"name":"minimumWithdrawalBatchDuration","type":"uint32","internalType":"uint32"},{"name":"maximumWithdrawalBatchDuration","type":"uint32","internalType":"uint32"},{"name":"minimumAnnualInterestBips","type":"uint16","internalType":"uint16"},{"name":"maximumAnnualInterestBips","type":"uint16","internalType":"uint16"}]},{"name":"deploymentFlags","type":"tuple","internalType":"struct HooksDeploymentFlags","components":[{"name":"optional","type":"tuple","internalType":"struct HooksConfigData","components":[{"name":"useOnDeposit","type":"bool","internalType":"bool"},{"name":"useOnQueueWithdrawal","type":"bool","internalType":"bool"},{"name":"useOnExecuteWithdrawal","type":"bool","internalType":"bool"},{"name":"useOnTransfer","type":"bool","internalType":"bool"},{"name":"useOnBorrow","type":"bool","internalType":"bool"},{"name":"useOnRepay","type":"bool","internalType":"bool"},{"name":"useOnCloseMarket","type":"bool","internalType":"bool"},{"name":"useOnNukeFromOrbit","type":"bool","internalType":"bool"},{"name":"useOnSetMaxTotalSupply","type":"bool","internalType":"bool"},{"name":"useOnSetAnnualInterestAndReserveRatioBips","type":"bool","internalType":"bool"},{"name":"useOnSetProtocolFeeBips","type":"bool","internalType":"bool"}]},{"name":"required","type":"tuple","internalType":"struct HooksConfigData","components":[{"name":"useOnDeposit","type":"bool","internalType":"bool"},{"name":"useOnQueueWithdrawal","type":"bool","internalType":"bool"},{"name":"useOnExecuteWithdrawal","type":"bool","internalType":"bool"},{"name":"useOnTransfer","type":"bool","internalType":"bool"},{"name":"useOnBorrow","type":"bool","internalType":"bool"},{"name":"useOnRepay","type":"bool","internalType":"bool"},{"name":"useOnCloseMarket","type":"bool","internalType":"bool"},{"name":"useOnNukeFromOrbit","type":"bool","internalType":"bool"},{"name":"useOnSetMaxTotalSupply","type":"bool","internalType":"bool"},{"name":"useOnSetAnnualInterestAndReserveRatioBips","type":"bool","internalType":"bool"},{"name":"useOnSetProtocolFeeBips","type":"bool","internalType":"bool"}]}]},{"name":"pullProviders","type":"tuple[]","internalType":"struct RoleProviderData[]","components":[{"name":"timeToLive","type":"uint32","internalType":"uint32"},{"name":"providerAddress","type":"address","internalType":"address"},{"name":"pullProviderIndex","type":"uint24","internalType":"uint24"},{"name":"pushProviderIndex","type":"uint24","internalType":"uint24"}]},{"name":"pushProviders","type":"tuple[]","internalType":"struct RoleProviderData[]","components":[{"name":"timeToLive","type":"uint32","internalType":"uint32"},{"name":"providerAddress","type":"address","internalType":"address"},{"name":"pullProviderIndex","type":"uint24","internalType":"uint24"},{"name":"pushProviderIndex","type":"uint24","internalType":"uint24"}]},{"name":"totalMarkets","type":"uint256","internalType":"uint256"}]},{"name":"temporaryReserveRatio","type":"bool","internalType":"bool"},{"name":"originalAnnualInterestBips","type":"uint256","internalType":"uint256"},{"name":"originalReserveRatioBips","type":"uint256","internalType":"uint256"},{"name":"temporaryReserveRatioExpiry","type":"uint256","internalType":"uint256"},{"name":"isClosed","type":"bool","internalType":"bool"},{"name":"protocolFeeBips","type":"uint256","internalType":"uint256"},{"name":"reserveRatioBips","type":"uint256","internalType":"uint256"},{"name":"annualInterestBips","type":"uint256","internalType":"uint256"},{"name":"scaleFactor","type":"uint256","internalType":"uint256"},{"name":"totalSupply","type":"uint256","internalType":"uint256"},{"name":"maxTotalSupply","type":"uint256","internalType":"uint256"},{"name":"scaledTotalSupply","type":"uint256","internalType":"uint256"},{"name":"totalAssets","type":"uint256","internalType":"uint256"},{"name":"lastAccruedProtocolFees","type":"uint256","internalType":"uint256"},{"name":"normalizedUnclaimedWithdrawals","type":"uint256","internalType":"uint256"},{"name":"scaledPendingWithdrawals","type":"uint256","internalType":"uint256"},{"name":"pendingWithdrawalExpiry","type":"uint256","internalType":"uint256"},{"name":"isDelinquent","type":"bool","internalType":"bool"},{"name":"timeDelinquent","type":"uint256","internalType":"uint256"},{"name":"lastInterestAccruedTimestamp","type":"uint256","internalType":"uint256"},{"name":"unpaidWithdrawalBatchExpiries","type":"uint32[]","internalType":"uint32[]"},{"name":"coverageLiquidity","type":"uint256","internalType":"uint256"}]},{"name":"lenderStatus","type":"tuple","internalType":"struct LenderAccountData","components":[{"name":"lender","type":"address","internalType":"address"},{"name":"scaledBalance","type":"uint256","internalType":"uint256"},{"name":"normalizedBalance","type":"uint256","internalType":"uint256"},{"name":"underlyingBalance","type":"uint256","internalType":"uint256"},{"name":"underlyingApproval","type":"uint256","internalType":"uint256"},{"name":"isBlockedFromDeposits","type":"bool","internalType":"bool"},{"name":"lastProvider","type":"tuple","internalType":"struct RoleProviderData","components":[{"name":"timeToLive","type":"uint32","internalType":"uint32"},{"name":"providerAddress","type":"address","internalType":"address"},{"name":"pullProviderIndex","type":"uint24","internalType":"uint24"},{"name":"pushProviderIndex","type":"uint24","internalType":"uint24"}]},{"name":"canRefresh","type":"bool","internalType":"bool"},{"name":"lastApprovalTimestamp","type":"uint32","internalType":"uint32"},{"name":"isKnownLender","type":"bool","internalType":"bool"}]},{"name":"withdrawalBatches","type":"tuple[]","internalType":"struct WithdrawalBatchDataWithLenderStatus[]","components":[{"name":"batch","type":"tuple","internalType":"struct WithdrawalBatchData","components":[{"name":"expiry","type":"uint32","internalType":"uint32"},{"name":"status","type":"uint8","internalType":"enum BatchStatus"},{"name":"scaledTotalAmount","type":"uint256","internalType":"uint256"},{"name":"scaledAmountBurned","type":"uint256","internalType":"uint256"},{"name":"normalizedAmountPaid","type":"uint256","internalType":"uint256"},{"name":"normalizedTotalAmount","type":"uint256","internalType":"uint256"}]},{"name":"lenderStatus","type":"tuple","internalType":"struct WithdrawalBatchLenderStatus","components":[{"name":"lender","type":"address","internalType":"address"},{"name":"scaledAmount","type":"uint256","internalType":"uint256"},{"name":"normalizedAmountWithdrawn","type":"uint256","internalType":"uint256"},{"name":"normalizedAmountOwed","type":"uint256","internalType":"uint256"},{"name":"availableWithdrawalAmount","type":"uint256","internalType":"uint256"}]}]}]}],"stateMutability":"view"},{"type":"error","name":"NotV2Market","inputs":[]}],"bytecode":{"object":"0x60c03460bd57601f61606338819003918201601f19168301916001600160401b0383118484101760c157808492604094855283398101031260bd57604b602060458360d5565b920160d5565b6001600160a01b039182166080521660a052604051615f7a90816100e982396080518181816117f20152611bba015260a051818181610985015281816117420152818161192101528181611b4601528181611f430152818161226c0152818161234d0152818161244801526128970152f35b5f80fd5b634e487b7160e01b5f52604160045260245ffd5b51906001600160a01b038216820360bd5756fe60806040526004361015610011575f80fd5b5f3560e01c8063098aaea8146101a45780630c52af991461019f5780631f69565f1461019a5780632385571b14610195578063274631a3146101905780633be9be7a1461018b5780633d8d2dcd1461018657806346a0fe47146101815780634b5a900d1461017c578063546355701461017757806362ef811914610172578063655314381461016d578063733efd1e1461016857806387fed6d2146101635780638febd74f1461015e5780639016be4f146101595780639f293fb114610154578063a30c302d1461014f578063b31d10151461014a578063c4482d3614610145578063d1a0745c14610140578063dd92b92b1461013b578063ddee086514610136578063e85dfdf0146101315763ffc7005e1461012c575f80fd5b612686565b61257c565b6124ac565b6123c0565b6122c4565b6121d3565b612134565b612022565b611ffd565b611f22565b611ea4565b611e5c565b611d8b565b611acc565b6118a1565b6117a8565b6116c5565b6115f7565b61145d565b611364565b6109f1565b61093b565b6108d7565b610803565b61063a565b73ffffffffffffffffffffffffffffffffffffffff8116036101c757565b5f80fd5b7f4e487b71000000000000000000000000000000000000000000000000000000005f52604160045260245ffd5b6060810190811067ffffffffffffffff82111761021457604052565b6101cb565b6080810190811067ffffffffffffffff82111761021457604052565b60a0810190811067ffffffffffffffff82111761021457604052565b60c0810190811067ffffffffffffffff82111761021457604052565b6040810190811067ffffffffffffffff82111761021457604052565b610160810190811067ffffffffffffffff82111761021457604052565b610140810190811067ffffffffffffffff82111761021457604052565b90601f7fffffffffffffffffffffffffffffffffffffffffffffffffffffffffffffffe0910116810190811067ffffffffffffffff82111761021457604052565b60405190610400820182811067ffffffffffffffff82111761021457604052565b60405190610100820182811067ffffffffffffffff82111761021457604052565b604051906101c0820182811067ffffffffffffffff82111761021457604052565b60405190610374826102a6565b565b67ffffffffffffffff81116102145760051b60200190565b9080601f830112156101c75760209082356103a881610376565b936103b660405195866102c3565b81855260208086019260051b8201019283116101c757602001905b8282106103df575050505090565b83809183356103ed816101a9565b8152019101906103d1565b9060407ffffffffffffffffffffffffffffffffffffffffffffffffffffffffffffffffc8301126101c75760043561042f816101a9565b916024359067ffffffffffffffff82116101c75761044f9160040161038e565b90565b907fffffffffffffffffffffffffffffffffffffffffffffffffffffffffffffffe0601f602080948051918291828752018686015e5f8582860101520116010190565b9073ffffffffffffffffffffffffffffffffffffffff82511681526080806104e16104cf602086015160a0602087015260a0860190610452565b60408601518582036040870152610452565b93606081015160608501520151151591015290565b9060c0806105b073ffffffffffffffffffffffffffffffffffffffff80865116855260208601519060e0602087015281511660e086015261ffff60208201511661010086015260a06105586040830151856101208901526101a0880190610495565b6060830151610140880152608083015161016088015291015161018086015260408681015115159086015260608681015115159086015260808681015162ffffff169086015260a086015185820360a0870152610452565b93015191015290565b6020808201906020835283518092526040830192602060408460051b8301019501935f915b8483106105ee5750505050505090565b909192939495848061062a837fffffffffffffffffffffffffffffffffffffffffffffffffffffffffffffffc086600196030187528a516104f6565b98019301930191949392906105de565b346101c75761066061065461064e366103f8565b90612887565b604051918291826105b9565b0390f35b63ffffffff8116036101c757565b9080601f830112156101c757602090823561068c81610376565b9361069a60405195866102c3565b81855260208086019260051b8201019283116101c757602001905b8282106106c3575050505090565b83809183356106d181610664565b8152019101906106b5565b7f4e487b71000000000000000000000000000000000000000000000000000000005f52602160045260245ffd5b63ffffffff8151168252602081015160048110156107505760a091829160208501526040810151604085015260608101516060850152608081015160808501520151910152565b6106dc565b9060c0602061037493610769848251610709565b01519101906080809173ffffffffffffffffffffffffffffffffffffffff81511684526020810151602085015260408101516040850152606081015160608501520151910152565b9081518082526020808093019301915f5b8281106107d0575050505090565b9091929382610160826107e66001948951610755565b019501939291016107c2565b90602061044f9281815201906107b1565b346101c75760607ffffffffffffffffffffffffffffffffffffffffffffffffffffffffffffffffc3601126101c75760043561083e816101a9565b60243567ffffffffffffffff81116101c75761085e903690600401610672565b9060443561086b816101a9565b6108758351612983565b9273ffffffffffffffffffffffffffffffffffffffff5f9316925b81518110156108c957806108c3846108aa6001948961286e565b518763ffffffff6108bb868961286e565b5116916133a7565b01610890565b6040518061066087826107f2565b346101c75760207ffffffffffffffffffffffffffffffffffffffffffffffffffffffffffffffffc3601126101c757610660600435610915816101a9565b61092761092061272e565b9182613404565b604051918291602083526020830190610495565b346101c7575f7ffffffffffffffffffffffffffffffffffffffffffffffffffffffffffffffffc3601126101c757602060405173ffffffffffffffffffffffffffffffffffffffff7f0000000000000000000000000000000000000000000000000000000000000000168152f35b60209060206040818301928281528551809452019301915f5b8281106109d0575050505090565b909192938260c0826109e56001948951610709565b019501939291016109c2565b346101c75760407ffffffffffffffffffffffffffffffffffffffffffffffffffffffffffffffffc3601126101c757600435610a2c816101a9565b60243567ffffffffffffffff81116101c757610a4c903690600401610672565b908151917fffffffffffffffffffffffffffffffffffffffffffffffffffffffffffffffe0610a93610a7d85610376565b94610a8b60405196876102c3565b808652610376565b015f5b818110610b0557505073ffffffffffffffffffffffffffffffffffffffff5f9216915b8151811015610af75780610af1610ad26001938761286e565b5185610aeb610ae1858861286e565b5163ffffffff1690565b9161379c565b01610ab9565b6040518061066086826109a9565b602090610b10612907565b82828801015201610a96565b91906060838203126101c75760405190610b35826101f8565b81938035610b42816101a9565b83526020810135610b52816101a9565b602084015260408101359167ffffffffffffffff83116101c757604092610b799201610672565b910152565b6003111561075057565b9060038210156107505752565b906102a061016061037493610bc084825173ffffffffffffffffffffffffffffffffffffffff169052565b610c4f6020820151602086019080511515825260208082015115159083015260408082015115159083015260608082015115159083015260808082015115159083015260a08082015115159083015260c08082015115159083015260e0808201511515908301526101008082015115159083015261012080820151151590830152610140908101511515910152565b610c626040820151610180860190610b88565b606081015115156101a0850152608081015115156101c085015260a08101516fffffffffffffffffffffffffffffffff166101e085015260c0810151151561020085015260e08101511515610220850152610100810151151561024085015261012081015163ffffffff1661026085015261014081015115156102808501525b01511515910152565b805163ffffffff168252610374919060208181015163ffffffff169083015260408181015161ffff169083015260608181015161ffff169083015260808181015161ffff169083015260a08181015161ffff169083015260c08181015163ffffffff169083015260e08181015163ffffffff16908301526101008181015161ffff16908301526101209081015161ffff16910152565b90610160602061037493610e1384825180511515825260208082015115159083015260408082015115159083015260608082015115159083015260808082015115159083015260a08082015115159083015260c08082015115159083015260e0808201511515908301526101008082015115159083015261012080820151151590830152610140908101511515910152565b015191019080511515825260208082015115159083015260408082015115159083015260608082015115159083015260808082015115159083015260a08082015115159083015260c08082015115159083015260e0808201511515908301526101008082015115159083015261012080820151151590830152610140908101511515910152565b9081518082526020808093019301915f5b828110610eb9575050505090565b9091929382608082610f11600194895160609063ffffffff815116835273ffffffffffffffffffffffffffffffffffffffff60208201511660208401528160408201519162ffffff8093166040860152015116910152565b01950193929101610eab565b805173ffffffffffffffffffffffffffffffffffffffff168252906105006101406105b0610ffe610fc5610f8161052060208981015173ffffffffffffffffffffffffffffffffffffffff16908901526040890151908060408a0152880190610452565b610f9360608901516060890190610b88565b60808881015173ffffffffffffffffffffffffffffffffffffffff169088015260a088015187820360a0890152610452565b610fd760c088015160c0880190610ceb565b610fea60e0880151610200880190610d81565b6101008701518682036104c0880152610e9a565b6101208601518582036104e0870152610e9a565b9081518082526020808093019301915f5b828110611031575050505090565b835163ffffffff1685529381019392810192600101611023565b906106806110786110666106a0855190808652850190610495565b60208501518482036020860152610495565b60408481015173ffffffffffffffffffffffffffffffffffffffff169084015260608481015173ffffffffffffffffffffffffffffffffffffffff16908401526110ca60808501516080850190610b95565b6105b060a085015191610340928386015260c086015190611106610360928388019073ffffffffffffffffffffffffffffffffffffffff169052565b60e08701516103809081880152610100880151906103a0918289015261122461113f6101208b0151946103c0958b8203878d0152610f1d565b946101408b0151976111586103e0998a8d019015159052565b6101608c01516104008c01526101808c01516104208c01526101a08c01516104408c01526101c08c015115156104608c01526101e08c01516104808c01526102008c01516104a08c01526102208c01516104c08c01526102408c01516104e08c01526102608c01516105008c01526102808c01516105208c01526102a08c01516105408c01526102c08c01516105608c01526102e08c01516105808c01526103008c01516105a08c01526103208c01516105c08c01528b01516105e08b01528a015115156106008a0152565b880151610620880152870151610640870152860151858203610660870152611012565b906101806101206103749361127284825173ffffffffffffffffffffffffffffffffffffffff169052565b602081015160208501526040810151604085015260608101516060850152608081015160808501526112ad60a082015160a086019015159052565b61130260c082015160c086019060609063ffffffff815116835273ffffffffffffffffffffffffffffffffffffffff60208201511660208401528160408201519162ffffff8093166040860152015116910152565b60e0810151151561014085015261010081015163ffffffff16610160850152610ce2565b61044f9160406113406101e084519080855284019061104b565b9261135360208201516020850190611247565b0151906101c08184039101526107b1565b346101c75760207ffffffffffffffffffffffffffffffffffffffffffffffffffffffffffffffffc3601126101c75760043567ffffffffffffffff81116101c7576113b6610660913690600401610b1c565b6113c86113c1612cdf565b9182613a47565b604051918291602083526020830190611326565b6020808201906020835283518092526040830192602060408460051b8301019501935f915b8483106114115750505050505090565b909192939495848061144d837fffffffffffffffffffffffffffffffffffffffffffffffffffffffffffffffc086600196030187528a51611326565b9801930193019194939290611401565b346101c7576020807ffffffffffffffffffffffffffffffffffffffffffffffffffffffffffffffffc3601126101c75767ffffffffffffffff906004358281116101c757366023820112156101c757602460048201356114bc81610376565b946114ca60405196876102c3565b8186526024602087019260051b850101933685116101c75760248101925b858410611507576106606114fb89612d0c565b604051918291826113dc565b83358381116101c75787916115228392883691870101610b1c565b8152019301926114e8565b60207ffffffffffffffffffffffffffffffffffffffffffffffffffffffffffffffffc8201126101c7576004359067ffffffffffffffff82116101c75761044f9160040161038e565b6020808201906020835283518092526040830192602060408460051b8301019501935f915b8483106115ab5750505050505090565b90919293949584806115e7837fffffffffffffffffffffffffffffffffffffffffffffffffffffffffffffffc086600196030187528a51610495565b980193019301919493929061159b565b346101c7576116053661152d565b8051907fffffffffffffffffffffffffffffffffffffffffffffffffffffffffffffffe061164b61163584610376565b9361164360405195866102c3565b808552610376565b015f5b8181106116ae5750505f5b81518110156116a0578061169a6116726001938661286e565b5173ffffffffffffffffffffffffffffffffffffffff611692848761286e565b511690613404565b01611659565b604051806106608582611576565b6020906116b961272e565b8282870101520161164e565b346101c75760207ffffffffffffffffffffffffffffffffffffffffffffffffffffffffffffffffc3601126101c757600435611700816101a9565b6040517f6e50f9600000000000000000000000000000000000000000000000000000000081525f8160048173ffffffffffffffffffffffffffffffffffffffff7f0000000000000000000000000000000000000000000000000000000000000000165afa80156117a35761066092610654925f9261177f575b50612887565b61179c9192503d805f833e61179481836102c3565b810190612dba565b905f611779565b612e3e565b346101c7575f7ffffffffffffffffffffffffffffffffffffffffffffffffffffffffffffffffc3601126101c757602060405173ffffffffffffffffffffffffffffffffffffffff7f0000000000000000000000000000000000000000000000000000000000000000168152f35b90808251908181526020809101926020808460051b8301019501935f915b8483106118445750505050505090565b9091929394958480611880837fffffffffffffffffffffffffffffffffffffffffffffffffffffffffffffffe086600196030187528a51610f1d565b9801930193019194939290611834565b90602061044f928181520190611816565b346101c75760207ffffffffffffffffffffffffffffffffffffffffffffffffffffffffffffffffc3601126101c7576004356118dc816101a9565b6040517f62ef811900000000000000000000000000000000000000000000000000000000815273ffffffffffffffffffffffffffffffffffffffff91821660048201527f0000000000000000000000000000000000000000000000000000000000000000915f908290602490829086165afa9081156117a3575f916119c7575b50611968606051612e49565b915f5b82518110156119b957806119b3836119856001948861286e565b516119ad611993858961286e565b5173ffffffffffffffffffffffffffffffffffffffff1690565b90613c2c565b0161196b565b604051806106608682611890565b6119db91503d805f833e61179481836102c3565b5f61195c565b91909160209081815260a081019173ffffffffffffffffffffffffffffffffffffffff85511681830152808501511515604083015260408501519260806060840152835180915260c08301918060c08360051b8601019501925f905b838210611a82575050505050606061044f939401519060807fffffffffffffffffffffffffffffffffffffffffffffffffffffffffffffffe082850301910152611816565b90919293958380611abd837fffffffffffffffffffffffffffffffffffffffffffffffffffffffffffffff408a600196030186528a516104f6565b98019201920190939291611a3d565b346101c75760207ffffffffffffffffffffffffffffffffffffffffffffffffffffffffffffffffc3601126101c757600435611b07816101a9565b6040908151611b1581610219565b5f60208201908152606084830181815281840191825273ffffffffffffffffffffffffffffffffffffffff851684527f0000000000000000000000000000000000000000000000000000000000000000959094919281517f0787c1fe00000000000000000000000000000000000000000000000000000000815273ffffffffffffffffffffffffffffffffffffffff84811660048301529160208280602481010381867f0000000000000000000000000000000000000000000000000000000000000000165afa9081156117a357611bf6925f92611d5a575b509015159052565b81517f62ef811900000000000000000000000000000000000000000000000000000000815273ffffffffffffffffffffffffffffffffffffffff841660048201529087169590945f866024818a5afa9586156117a3575f96611d3e575b50611c5e8651612e49565b85525f5b8651811015611c915780611c8b8a611c7d6001948a5161286e565b516119ad611993858d61286e565b01611c62565b5082517f6e50f9600000000000000000000000000000000000000000000000000000000081529188915f846004818c5afa9384156117a3575f94611d22575b50611cdb84516127d5565b82525f5b8451811015611d155780611d0f88611cfa600194875161286e565b5187611d09611993868c61286e565b9161320a565b01611cdf565b85518061066084826119e1565b611d379194503d805f833e61179481836102c3565b9286611cd0565b611d539196503d805f833e61179481836102c3565b945f611c53565b611d7d91925060203d602011611d84575b611d7581836102c3565b81019061412c565b905f611bee565b503d611d6b565b346101c75760607ffffffffffffffffffffffffffffffffffffffffffffffffffffffffffffffffc3601126101c757610160600435611dc9816101a9565b611e0a602435611dd881610664565b60443590611de5826101a9565b73ffffffffffffffffffffffffffffffffffffffff611e02612961565b9416846133a7565b611e176040518092610755565bf35b7ffffffffffffffffffffffffffffffffffffffffffffffffffffffffffffffffc60409101126101c757600435611e4f816101a9565b9060243561044f816101a9565b346101c7576101a0611e97611e7036611e19565b919073ffffffffffffffffffffffffffffffffffffffff611e8f612c8e565b931683614140565b611e176040518092611247565b346101c75760407ffffffffffffffffffffffffffffffffffffffffffffffffffffffffffffffffc3601126101c75760c0600435611ee1816101a9565b611f15602435611ef081610664565b73ffffffffffffffffffffffffffffffffffffffff611f0d612907565b93168361379c565b611e176040518092610709565b346101c757610660611f68611f3636611e19565b9190611f4061275a565b927f00000000000000000000000000000000000000000000000000000000000000008461320a565b6040519182916020835260208301906104f6565b6020808201906020835283518092526040830192602060408460051b8301019501935f915b848310611fb15750505050505090565b9091929394958480611fed837fffffffffffffffffffffffffffffffffffffffffffffffffffffffffffffffc086600196030187528a5161104b565b9801930193019194939290611fa1565b346101c7576106606120166120113661152d565b612eb5565b60405191829182611f7c565b346101c75760207ffffffffffffffffffffffffffffffffffffffffffffffffffffffffffffffffc3601126101c757610660600435612060816101a9565b61208873ffffffffffffffffffffffffffffffffffffffff612080612b6d565b92168261422d565b60405191829160208352602083019061104b565b610100909291926120b18160e0810195610709565b60e060c0820152825180945201916020809201915f5b8281106120d5575050505090565b909192938260a08261212860019489516080809173ffffffffffffffffffffffffffffffffffffffff81511684526020810151602085015260408101516040850152606081015160608501520151910152565b019501939291016120c7565b346101c75760607ffffffffffffffffffffffffffffffffffffffffffffffffffffffffffffffffc3601126101c75760043561216f816101a9565b60243561217b81610664565b6044359167ffffffffffffffff918284116101c757366023850112156101c75783600401359283116101c7573660248460051b860101116101c75760246121c3940191612f88565b906106606040519283928361209c565b346101c75760607ffffffffffffffffffffffffffffffffffffffffffffffffffffffffffffffffc3601126101c75760645f600435612211816101a9565b73ffffffffffffffffffffffffffffffffffffffff92839160405194859384927feae6ff66000000000000000000000000000000000000000000000000000000008452166004830152602435602483015260443560448301527f0000000000000000000000000000000000000000000000000000000000000000165afa9081156117a35761066091612016915f916122aa575b50612eb5565b6122be91503d805f833e61179481836102c3565b5f6122a4565b346101c75760207ffffffffffffffffffffffffffffffffffffffffffffffffffffffffffffffffc3601126101c75760246020600435612303816101a9565b6040517fd1a0745c00000000000000000000000000000000000000000000000000000000815273ffffffffffffffffffffffffffffffffffffffff918216600482015292839182907f0000000000000000000000000000000000000000000000000000000000000000165afa80156117a357610660915f91612391575b506040519081529081906020820190565b6123b3915060203d6020116123b9575b6123ab81836102c3565b81019061305f565b5f612380565b503d6123a1565b346101c75760207ffffffffffffffffffffffffffffffffffffffffffffffffffffffffffffffffc3601126101c75760245f6004356123fe816101a9565b6040517f1caab59d00000000000000000000000000000000000000000000000000000000815273ffffffffffffffffffffffffffffffffffffffff918216600482015292839182907f0000000000000000000000000000000000000000000000000000000000000000165afa9081156117a35761066091612016915f916122aa5750612eb5565b9061044f906020806124a16101c086519080865285019061104b565b940151910190611247565b346101c7576106606124e76124c036611e19565b919073ffffffffffffffffffffffffffffffffffffffff6124df61306e565b9316836144e1565b604051918291602083526020830190612485565b6020808201906020835283518092526040830192602060408460051b8301019501935f915b8483106125305750505050505090565b909192939495848061256c837fffffffffffffffffffffffffffffffffffffffffffffffffffffffffffffffc086600196030187528a51612485565b9801930193019194939290612520565b346101c75761258a366103f8565b8051917fffffffffffffffffffffffffffffffffffffffffffffffffffffffffffffffe06125ba610a7d85610376565b015f5b8181106126265750505f5b82518110156126185780612612836125e26001948861286e565b5161260c6125f3611993868a61286e565b73ffffffffffffffffffffffffffffffffffffffff1690565b906144e1565b016125c8565b6040518061066086826124fb565b60209061263161306e565b828288010152016125bd565b60209060206040818301928281528551809452019301915f5b828110612664575050505090565b90919293826101a08261267a6001948951611247565b01950193929101612656565b346101c757612694366103f8565b8051917fffffffffffffffffffffffffffffffffffffffffffffffffffffffffffffffe06126c4610a7d85610376565b015f5b8181106127175750505f5b82518110156127095780612703836126ec6001948861286e565b516126fd6125f3611993868a61286e565b90614140565b016126d2565b60405180610660868261263d565b602090612722612c8e565b828288010152016126c7565b6040519061273b82610235565b5f60808382815260606020820152606060408201528260608201520152565b6040519060e0820182811067ffffffffffffffff821117610214576040525f60c08382815260405161278b81610251565b83815283602082015261279c61272e565b60408201528360608201528360808201528360a08201526020820152826040820152826060820152826080820152606060a08201520152565b906127df82610376565b6127ec60405191826102c3565b8281527fffffffffffffffffffffffffffffffffffffffffffffffffffffffffffffffe061281a8294610376565b01905f5b82811061282a57505050565b60209061283561275a565b8282850101520161281e565b7f4e487b71000000000000000000000000000000000000000000000000000000005f52603260045260245ffd5b80518210156128825760209160051b010190565b612841565b91909161289483516127d5565b927f00000000000000000000000000000000000000000000000000000000000000005f5b825181101561290157806128fb856128d26001948a61286e565b518573ffffffffffffffffffffffffffffffffffffffff6128f3868a61286e565b51169161320a565b016128b8565b50505050565b6040519061291482610251565b5f60a0838281528260208201528260408201528260608201528260808201520152565b6040519061294482610235565b5f6080838281528260208201528260408201528260608201520152565b6040519061296e8261026d565b81612977612907565b81526020610b79612937565b9061298d82610376565b61299a60405191826102c3565b8281527fffffffffffffffffffffffffffffffffffffffffffffffffffffffffffffffe06129c88294610376565b01905f5b8281106129d857505050565b6020906129e3612961565b828285010152016129cc565b604051906129fc82610289565b5f610140838281528260208201528260408201528260608201528260808201528260a08201528260c08201528260e082015282610100820152826101208201520152565b60405190610180820182811067ffffffffffffffff821117610214576040525f61016083828152612a6f6129ef565b60208201528260408201528260608201528260808201528260a08201528260c08201528260e08201528261010082015282610120820152826101408201520152565b60405190612abe8261026d565b81612ac76129ef565b81526020610b796129ef565b60405190612ae082610289565b5f61014083828152826020820152606080604083015283818301528360808301528060a0830152604051612b13816102a6565b84815284602082015284604082015284828201528460808201528460a08201528460c08201528460e082015281610100868184015261012092878482015260c0860152612b5e612ab1565b60e08601528401528201520152565b612b75610304565b90612b7e61272e565b8252612b8861272e565b60208301525f60408301525f6060830152612ba1612a40565b60808301525f60a08301525f60c08301525f60e08301525f610100830152612bc7612ad3565b6101208301525f6101408301525f6101608301525f6101808301525f6101a08301525f6101c08301525f6101e08301525f6102008301525f6102208301525f6102408301525f6102608301525f6102808301525f6102a08301525f6102c08301525f6102e08301525f6103008301525f6103208301525f6103408301525f6103608301525f6103808301525f6103a083015260606103c08301525f6103e0830152565b60405190612c7782610219565b5f6060838281528260208201528260408201520152565b60405190612c9b826102a6565b5f610120838281528260208201528260408201528260608201528260808201528260a0820152612cc9612c6a565b60c08201528260e0820152826101008201520152565b60405190612cec826101f8565b6060604083612cf9612b6d565b8152612d03612c8e565b60208201520152565b9081517fffffffffffffffffffffffffffffffffffffffffffffffffffffffffffffffe0612d52612d3c83610376565b92612d4a60405194856102c3565b808452610376565b015f5b818110612d98575050805f5b8451811015612d925780612d8c612d7a6001938661286e565b51612d85838961286e565b5190613a47565b01612d61565b50925050565b602090612da3612cdf565b82828601015201612d55565b5190610374826101a9565b60209081818403126101c75780519067ffffffffffffffff82116101c757019180601f840112156101c7578251612df081610376565b93612dfe60405195866102c3565b818552838086019260051b8201019283116101c7578301905b828210612e25575050505090565b8380918351612e33816101a9565b815201910190612e17565b6040513d5f823e3d90fd5b90612e5382610376565b612e6060405191826102c3565b8281527fffffffffffffffffffffffffffffffffffffffffffffffffffffffffffffffe0612e8e8294610376565b01905f5b828110612e9e57505050565b602090612ea9612ad3565b82828501015201612e92565b9081517fffffffffffffffffffffffffffffffffffffffffffffffffffffffffffffffe0612ee5612d3c83610376565b015f5b818110612f57575050805f5b8451811015612d925780612f51612f0d6001938661286e565b51612f4b73ffffffffffffffffffffffffffffffffffffffff612f30858b61286e565b511673ffffffffffffffffffffffffffffffffffffffff1690565b9061422d565b01612ef4565b602090612f62612b6d565b82828601015201612ee8565b91908110156128825760051b0190565b3561044f816101a9565b9391612fb473ffffffffffffffffffffffffffffffffffffffff612faa612907565b961692838761379c565b612fbd84610376565b91612fcb60405193846102c3565b8483527fffffffffffffffffffffffffffffffffffffffffffffffffffffffffffffffe0612ff886610376565b015f5b81811061304857505082945f5b818110613016575050505050565b806130426130266001938861286e565b518a8661303c61303786898c612f6e565b612f7e565b926143ab565b01613008565b602090613053612937565b82828801015201612ffb565b908160209103126101c7575190565b6040519061307b8261026d565b81613084612b6d565b81526020610b79612c8e565b519069ffffffffffffffffffff821682036101c757565b519061ffff821682036101c757565b519081151582036101c757565b519062ffffff821682036101c757565b81601f820112156101c75780519067ffffffffffffffff8211610214576040519261312660207fffffffffffffffffffffffffffffffffffffffffffffffffffffffffffffffe0601f86011601856102c3565b828452602083830101116101c757815f9260208093018386015e8301015290565b906020828203126101c757815167ffffffffffffffff928382116101c7570190610100828203126101c75761317a610325565b9261318483612daf565b845261319260208401613090565b60208501526131a3604084016130a7565b60408501526131b4606084016130b6565b60608501526131c5608084016130b6565b60808501526131d660a084016130c3565b60a08501526131e760c08401612daf565b60c085015260e08301519081116101c75761320292016130d3565b60e082015290565b6040517f2812d2de00000000000000000000000000000000000000000000000000000000815273ffffffffffffffffffffffffffffffffffffffff8481166004830152919493909183165f83602481845afa9283156117a3575f9361337a575b5073ffffffffffffffffffffffffffffffffffffffff82168652613337916020916132a461329b6060870151151590565b151560408a0152565b6132bd6132b46080870151151590565b151560608a0152565b6132dc6132d060a087015162ffffff1690565b62ffffff1660808a0152565b60e085015160a089015260405180809581947fd1a0745c0000000000000000000000000000000000000000000000000000000083526004830191909173ffffffffffffffffffffffffffffffffffffffff6020820193169052565b03915afa9485156117a357610374956020925f9161335d575b5060c082015201516144fd565b6133749150833d85116123b9576123ab81836102c3565b5f613350565b60209193509161339e613337933d805f833e61339681836102c3565b810190613147565b9391509161326a565b906133b8610374949382845161379c565b60208201519151916143ab565b906020828203126101c757815167ffffffffffffffff81116101c75761044f92016130d3565b908160209103126101c7575160ff811681036101c75790565b73ffffffffffffffffffffffffffffffffffffffff821680156135885773ffffffffffffffffffffffffffffffffffffffff831682526040517f06fdde030000000000000000000000000000000000000000000000000000000081525f81600481855afa9081156117a3575f9161356e575b5060208301526040517f95d89b410000000000000000000000000000000000000000000000000000000081525f81600481855afa9182156117a3576004926020925f9161354c575b506040850152604051928380927f313ce5670000000000000000000000000000000000000000000000000000000082525afa80156117a3576103749360ff613516926080945f9161351d575b5016606085015261470d565b1515910152565b61353f915060203d602011613545575b61353781836102c3565b8101906133eb565b5f61350a565b503d61352d565b61356891503d805f833e61356081836102c3565b8101906133c5565b5f6134be565b61358291503d805f833e61356081836102c3565b5f613476565b505050565b51906cffffffffffffffffffffffffff821682036101c757565b51906fffffffffffffffffffffffffffffffff821682036101c757565b908160609103126101c75761360260408051926135e0846101f8565b6135e98161358d565b84526135f76020820161358d565b6020850152016135a7565b604082015290565b519061037482610664565b51906dffffffffffffffffffffffffffff821682036101c757565b90816101c09103126101c757613644610346565b9061364e816130b6565b825261365c602082016135a7565b602083015261366d604082016135a7565b604083015261367e606082016135a7565b606083015261368f6080820161358d565b60808301526136a060a0820161358d565b60a08301526136b160c0820161360a565b60c08301526136c260e082016130b6565b60e08301526101006136d581830161360a565b908301526101206136e78183016130a7565b908301526101406136f98183016130a7565b9083015261016061370b8183016130a7565b9083015261018061371d818301613615565b9083015261372f6101a080920161360a565b9082015290565b60048210156107505752565b7f4e487b71000000000000000000000000000000000000000000000000000000005f52601160045260245ffd5b9190820391821161377c57565b613742565b906001820180921161377c57565b9190820180921161377c57565b6040517fdbcd50b400000000000000000000000000000000000000000000000000000000815263ffffffff84166004820152909273ffffffffffffffffffffffffffffffffffffffff929092169190606081602481865afa9081156117a3575f91613a18575b5063ffffffff8216845261383861382682516cffffffffffffffffffffffffff1690565b6cffffffffffffffffffffffffff1690565b906040850191825260209163ffffffff6138a061388b604061386c613826888801516cffffffffffffffffffffffffff1690565b9560608b0196875201516fffffffffffffffffffffffffffffffff1690565b6fffffffffffffffffffffffffffffffff1690565b60808801908152941642811061395257505f838701525b815181511461394557916138d38192600495945190519061376f565b94604051948580927f683dd1910000000000000000000000000000000000000000000000000000000082525afa80156117a35760a094610b799461391f935f93613926575b5050614727565b905161378f565b61393d929350803d106123b9576123ab81836102c3565b905f80613918565b50505060a0915051910152565b6040517f0c1e3fea0000000000000000000000000000000000000000000000000000000081526101c09081816004818b5afa9182156117a3576139b4926139ab926101a0925f926139eb575b5050015163ffffffff1690565b63ffffffff1690565b10156139ca576001868401526138b7565b6138b7565b81518151036139e1576139c560035b848801613736565b6139c560026139d9565b613a0a9250803d10613a11575b613a0281836102c3565b810190613630565b5f8061399e565b503d6139f8565b613a3a915060603d606011613a40575b613a3281836102c3565b8101906135c4565b5f613802565b503d613a28565b919073ffffffffffffffffffffffffffffffffffffffff8060208301511690613a7182865161422d565b613a85602086015186518386511691614788565b60408301946040613a97875151612983565b91019081525f5b865151811015613add5780613ad7613ab9600193855161286e565b5163ffffffff613aca848c5161286e565b511687878a5116926133a7565b01613a9e565b50505050509050565b908160209103126101c7575161044f816101a9565b60209081818403126101c75780519067ffffffffffffffff82116101c757019180601f840112156101c7578251613b3181610376565b93613b3f60405195866102c3565b818552838086019260051b8201019283116101c7578301905b828210613b66575050505090565b81518152908301908301613b58565b90816101409103126101c757613b89610367565b90613b938161360a565b8252613ba16020820161360a565b6020830152613bb2604082016130a7565b6040830152613bc3606082016130a7565b6060830152613bd4608082016130a7565b6080830152613be560a082016130a7565b60a0830152613bf660c0820161360a565b60c0830152613c0760e0820161360a565b60e0830152610100613c1a8183016130a7565b9083015261372f6101208092016130a7565b73ffffffffffffffffffffffffffffffffffffffff828116808352604080517f2b07f280000000000000000000000000000000000000000000000000000000008152600480820193909352602096949592948416918782602481865afa80156117a357613cc05f91613d0e94839161410f575b5073ffffffffffffffffffffffffffffffffffffffff1660808a0181905290565b8251809481927f2812d2de0000000000000000000000000000000000000000000000000000000083528a830191909173ffffffffffffffffffffffffffffffffffffffff6020820193169052565b0381865afa9182156117a357869260e0915f916140f5575b500151948560a0890152808516958981519101207fe88e57acc9274eb23d6b440f97946a8667dd9c51f6fa0896ee155045af71ca7b81145f146140c35750600160608901525b6060880151613d7a81610b7e565b613d8381610b7e565b613e86575b508760e0880151958251978880927f79502c550000000000000000000000000000000000000000000000000000000082525afa9586156117a357613e27968996613dd9925f92613e67575b5061487d565b518095819482937ffe604ec7000000000000000000000000000000000000000000000000000000008452830191909173ffffffffffffffffffffffffffffffffffffffff6020820193169052565b03915afa9283156117a3575f93613e42575b50506101400152565b6101409293509081613e5f92903d106123b9576123ab81836102c3565b91905f613e39565b613e7f919250883d8a116123b9576123ab81836102c3565b905f613dd3565b87890180519293509173ffffffffffffffffffffffffffffffffffffffff161615614033575b5080517f8f8ef4190000000000000000000000000000000000000000000000000000000081525f818781885afa80156117a357613ef0915f91614011575b506147bd565b61010087015280517f879277670000000000000000000000000000000000000000000000000000000081525f818781885afa80156117a357613f38915f9161401157506147bd565b61012087015280517fa11ef0670000000000000000000000000000000000000000000000000000000081526101409081818881895afa9182156117a3575f92613fe4575b505060c08701528051907f06fdde030000000000000000000000000000000000000000000000000000000082525f828781885afa80156117a35786925f91613fca575b50818801525f613d88565b613fde91503d805f833e61356081836102c3565b5f613fbf565b6140039250803d1061400a575b613ffb81836102c3565b810190613b75565b5f80613f7c565b503d613ff1565b61402d91503d805f833e61402581836102c3565b810190613afb565b5f613eea565b8151907f7df1f1b900000000000000000000000000000000000000000000000000000000825288828881895afa9081156117a35761408e925f92614094575b509073ffffffffffffffffffffffffffffffffffffffff169052565b5f613eac565b6140b59192508a3d8c116140bc575b6140ad81836102c3565b810190613ae6565b905f614072565b503d6140a3565b7fb6d5b28f5ed4cbf362aba0058b9c7c2183fbb2f9619e8c5f77f35ae2e23de54703613d6c5760026060890152613d6c565b61410991503d805f833e61339681836102c3565b5f613d26565b61412691508b3d8d116140bc576140ad81836102c3565b5f613c9f565b908160209103126101c75761044f906130b6565b6040517f38d52e0f0000000000000000000000000000000000000000000000000000000081526020939273ffffffffffffffffffffffffffffffffffffffff80821693928681600481885afa9485156117a35787915f96614209575b5090600491604051928380927fcd7033c40000000000000000000000000000000000000000000000000000000082525afa9081156117a357610374975f926141ec575b505060601c93169161490d565b6142029250803d106123b9576123ab81836102c3565b5f806141df565b82919650614225906004933d84116140bc576140ad81836102c3565b95909161419c565b9061425173ffffffffffffffffffffffffffffffffffffffff835192168092613404565b6020820151604051917f38d52e0f000000000000000000000000000000000000000000000000000000008352602083600481845afa9283156117a3576004935f936142a3928592614354575b50613404565b604051928380927f54fd4d500000000000000000000000000000000000000000000000000000000082525afa9081156117a35760ff60016142f1936032935f9161433a575b50015116141590565b614310578061430261037492614dee565b61430b81615140565b6152b4565b60046040517faaf40101000000000000000000000000000000000000000000000000000000008152fd5b61434e91503d805f833e61356081836102c3565b5f6142e8565b61436e91925060203d6020116140bc576140ad81836102c3565b905f61429d565b908160409103126101c7576143a36020604051926143928461026d565b61439b8161358d565b8452016135a7565b602082015290565b73ffffffffffffffffffffffffffffffffffffffff9384168082528351604080517f02372c4f000000000000000000000000000000000000000000000000000000008152600481019390935263ffffffff909116602483015291949092829184916044918391165afa9283156117a357608093856144a892610b79955f936144b0575b50869061449761448f61447761388b60208061445a6138268b516cffffffffffffffffffffffffff1690565b980198888a5201516fffffffffffffffffffffffffffffffff1690565b97808c0198895260a08401519084019586519161578e565b87519061376f565b60608a01520151915190519161578e565b90519061376f565b879193506144d390863d88116144da575b6144cb81836102c3565b810190614375565b929061442e565b503d6144c1565b6144f06103749392825161422d565b6020810151905190614788565b919061453d61452360c083015173ffffffffffffffffffffffffffffffffffffffff1690565b73ffffffffffffffffffffffffffffffffffffffff168452565b604081015161ffff16602084810191909152936145786145698684015169ffffffffffffffffffff1690565b69ffffffffffffffffffff1690565b6060850152815173ffffffffffffffffffffffffffffffffffffffff92908316806145a7575b50505050505050565b6145b5906040870151613404565b8282166145c3575b8061459e565b6125f36125f36145e7925173ffffffffffffffffffffffffffffffffffffffff1690565b6040517f70a0823100000000000000000000000000000000000000000000000000000000815273ffffffffffffffffffffffffffffffffffffffff83166004820152928684602481855afa9485156117a3576146a99588955f916146f0575b5060808801526040517fdd62ed3e00000000000000000000000000000000000000000000000000000000815273ffffffffffffffffffffffffffffffffffffffff9485166004820152911690921660248301529092839190829081906044820190565b03915afa9283156117a3575f936146cc575b505060a001525f80808080806145bd565b60a092935090816146e892903d106123b9576123ab81836102c3565b91905f6146bb565b6147079150863d88116123b9576123ab81836102c3565b5f614646565b5f6004601c6020936328ccaa2984525afa60015f51141690565b817ffffffffffffffffffffffffffffffffffffffffffe6268e1b017bfe18bffffff0481111582151715614776576b033b2e3c9fd0803ce800000091026b019d971e4fe8401e74000000010490565b634e487b715f5260116020526024601cfd5b610374929173ffffffffffffffffffffffffffffffffffffffff8082515116906080816020850151511693015151169261490d565b9081517fffffffffffffffffffffffffffffffffffffffffffffffffffffffffffffffe06147ed612d3c83610376565b015f5b818110614866575050805f5b8451811015612d9257806148606148156001938661286e565b51614820838961286e565b5162ffffff808260101c1660608401528160281c16604083015273ffffffffffffffffffffffffffffffffffffffff8160401c16602083015260e01c9052565b016147fc565b602090614871612c6a565b828286010152016147f0565b906103749160208151916148a46bffff0000000000000000000093848660501b16906157cf565b01519160401b16906157cf565b908160809103126101c7576060604051916148cb83610219565b6148d4816130b6565b835260208101516148e4816101a9565b60208401526148f5604082016130b6565b6040840152015161490581610664565b606082015290565b73ffffffffffffffffffffffffffffffffffffffff858116808352604080517f1da24f3e000000000000000000000000000000000000000000000000000000008152600480820193909352602098919794969295841694919392908981602481895afa9081156117a3575f91614dd1575b508988015287517f70a0823100000000000000000000000000000000000000000000000000000000918282528a82806149d6898c830191909173ffffffffffffffffffffffffffffffffffffffff6020820193169052565b03818a5afa80156117a35785925f91614db4575b508a8a015216908851908152898180614a22888b830191909173ffffffffffffffffffffffffffffffffffffffff6020820193169052565b0381855afa9081156117a3575f91614d97575b50606088015288885180927fdd62ed3e0000000000000000000000000000000000000000000000000000000082528180614a998a8a8d840190602090939293604083019473ffffffffffffffffffffffffffffffffffffffff809216845216910152565b03915afa9081156117a3575f91614d7a575b506080870152169081614ac15750505050505050565b8551937f22a4a19f00000000000000000000000000000000000000000000000000000000855260808580614b148585830191909173ffffffffffffffffffffffffffffffffffffffff6020820193169052565b0381865afa9687156117a35788955f98614d49575b5085880197614b4f6125f38a5173ffffffffffffffffffffffffffffffffffffffff1690565b614c00575b50517fa9ff2dbf00000000000000000000000000000000000000000000000000000000815273ffffffffffffffffffffffffffffffffffffffff92831691810191825291909316602084015294508491829081906040015b03915afa9182156117a357614bcf935f93614bdb575b5050610120019015159052565b5f80808080808061459e565b6101209293509081614bf892903d10611d8457611d7581836102c3565b91905f614bc2565b9550614c18614c0f8751151590565b151560a0890152565b614c8d89614c3f60c08a01519a5173ffffffffffffffffffffffffffffffffffffffff1690565b8351809381927fbfd269be00000000000000000000000000000000000000000000000000000000835287830191909173ffffffffffffffffffffffffffffffffffffffff6020820193169052565b0381885afa80156117a35760608b98614cf3614d1693614bac9d614d24965f92614d2a575b509062ffffff808260101c1660608401528160281c16604083015273ffffffffffffffffffffffffffffffffffffffff8160401c16602083015260e01c9052565b614d0b614d0286830151151590565b151560e08d0152565b015163ffffffff1690565b63ffffffff16610100890152565b5f614b54565b614d429192508d803d106123b9576123ab81836102c3565b905f614cb2565b614d6c91985060803d608011614d73575b614d6481836102c3565b8101906148b1565b965f614b29565b503d614d5a565b614d919150893d8b116123b9576123ab81836102c3565b5f614aab565b614dae91508a3d8c116123b9576123ab81836102c3565b5f614a35565b614dcb91508c8d3d106123b9576123ab81836102c3565b5f6149ea565b614de891508a3d8c116123b9576123ab81836102c3565b5f61497e565b80515173ffffffffffffffffffffffffffffffffffffffff169073ffffffffffffffffffffffffffffffffffffffff8216906040928351927fc45a015500000000000000000000000000000000000000000000000000000000845260209460049186868481845afa9586156117a3575f966150f2575b50614e8882860196879073ffffffffffffffffffffffffffffffffffffffff169052565b81517f7df1f1b900000000000000000000000000000000000000000000000000000000815287818581855afa80156117a357614ee3915f916150d5575b5073ffffffffffffffffffffffffffffffffffffffff166060870152565b614ef260808601948551615a18565b81517f9e6f980200000000000000000000000000000000000000000000000000000000815287818581855afa9081156117a3575f916150b8575b5060a086015281517f4690484000000000000000000000000000000000000000000000000000000000815287818581855afa80156117a357614f8d915f9161509b575b5073ffffffffffffffffffffffffffffffffffffffff1660c0870152565b8151917f4be687c600000000000000000000000000000000000000000000000000000000835287838581855afa80156117a35788935f9161507e575b5060e087015251928380927f514a4cd60000000000000000000000000000000000000000000000000000000082525afa9081156117a35761503d61505b936125f39361012093610374995f92615061575b5050610100870152515173ffffffffffffffffffffffffffffffffffffffff1690565b930151935173ffffffffffffffffffffffffffffffffffffffff1690565b91613c2c565b6150779250803d106123b9576123ab81836102c3565b5f8061501a565b6150959150843d86116123b9576123ab81836102c3565b5f614fc9565b6150b29150893d8b116140bc576140ad81836102c3565b5f614f6f565b6150cf9150883d8a116123b9576123ab81836102c3565b5f614f2c565b6150ec9150893d8b116140bc576140ad81836102c3565b5f614ec5565b61510a919650873d89116140bc576140ad81836102c3565b945f614e64565b908160609103126101c757615125816130a7565b916040615134602084016130a7565b92015161044f81610664565b6151e1906060615166825173ffffffffffffffffffffffffffffffffffffffff90511690565b6151906125f36125f361012086015173ffffffffffffffffffffffffffffffffffffffff90511690565b60405180809681947ffeb368e20000000000000000000000000000000000000000000000000000000083526004830191909173ffffffffffffffffffffffffffffffffffffffff6020820193169052565b03915afa9182156117a35761037492610140915f915f915f91615229575b5063ffffffff166101a0850181905261ffff91821661018086015291166101608401521515910152565b905063ffffffff9250615254915060603d60601161525e575b61524c81836102c3565b810190615111565b91929091906151ff565b503d615242565b9061526f82610376565b61527c60405191826102c3565b8281527fffffffffffffffffffffffffffffffffffffffffffffffffffffffffffffffe06152aa8294610376565b0190602036910137565b6152da6125f36125f3835173ffffffffffffffffffffffffffffffffffffffff90511690565b604051907f0c3f6acf0000000000000000000000000000000000000000000000000000000082526101c08083600481855afa9283156117a3575f9361576f575b506153306153288451151590565b151585830152565b61534a61534361012085015161ffff1690565b61ffff1690565b6101e085015261536361534361016085015161ffff1690565b61020085015261537c61534361014085015161ffff1690565b6102208501526153b46153a16101808501516dffffffffffffffffffffffffffff1690565b6dffffffffffffffffffffffffffff1690565b61024085015260808301805190926cffffffffffffffffffffffffff916153de9083165b86615f4d565b61026087015261542561382660209561540c61388b888a01516fffffffffffffffffffffffffffffffff1690565b6102808a0152516cffffffffffffffffffffffffff1690565b6102a08701526040517f01e1d1140000000000000000000000000000000000000000000000000000000081528481600481855afa9081156117a3575f91615752575b506102c0870152604051917f0cd1a5b60000000000000000000000000000000000000000000000000000000083528483600481855afa80156117a35761557f935f91615735575b506102e08801526154d561388b60608801516fffffffffffffffffffffffffffffffff1690565b6103008801526154f861382660a08801516cffffffffffffffffffffffffff1690565b61032088015260c08601936155146139ab865163ffffffff1690565b94610340890195865261553761552d60e08a0151151590565b15156103608b0152565b61554c6139ab6101008a015163ffffffff1690565b6103808a01526155676139ab6101a08a015163ffffffff1690565b6103a08a015263ffffffff9485915163ffffffff1690565b1615615598575b505050505050610b796103e091615e8a565b604051907f0c1e3fea0000000000000000000000000000000000000000000000000000000082528082600481875afa80156117a3576155e79260c0925f926139eb575050015163ffffffff1690565b928316948515615586576040517fdbcd50b400000000000000000000000000000000000000000000000000000000815263ffffffff8516600482015292606090849060249082905afa9283156117a3575f9361570c575b506138266156729161565d85516cffffffffffffffffffffffffff1690565b9401516cffffffffffffffffffffffffff1690565b91160361568e5750526103e090610b79905b915f808080615586565b93809592506103c0915001938451926156af6156aa8551613781565b615265565b86525f5b84518110156156eb57806156e56156cf610ae16001948961286e565b6156da838b5161286e565b9063ffffffff169052565b016156b3565b509093615707906156da6103e095610b7995985190519061286e565b615684565b61567291935061572d6138269160603d606011613a4057613a3281836102c3565b93915061563e565b61574c9150863d88116123b9576123ab81836102c3565b5f6154ae565b6157699150853d87116123b9576123ab81836102c3565b5f615467565b816157879294503d8511613a1157613a0281836102c3565b915f61531a565b817fffffffffffffffffffffffffffffffffffffffffffffffffffffffffffffffff0481118202158302156157c257020490565b63ad251c275f526004601cfd5b610140610374926001906157ea8282605f1c16859015159052565b605e81901c821615156020850152605d81901c821615156040850152605c81901c821615156060850152605b81901c821615156080850152605a81901c8216151560a0850152605981901c8216151560c0850152605881901c8216151560e0850152605781901c82161515610100850152605681901c8216151561012085015260551c161515910152565b604051906158828261026d565b600d82527f4f70656e5465726d486f6f6b73000000000000000000000000000000000000006020830152565b604051906158bb8261026d565b600e82527f46697865645465726d486f6f6b730000000000000000000000000000000000006020830152565b90816101409103126101c7576158fb610367565b90615905816130b6565b8252615913602082016130b6565b6020830152615924604082016130b6565b6040830152615935606082016130b6565b6060830152615946608082016135a7565b608083015261595760a0820161360a565b60a083015261596860c082016130b6565b60c083015261597960e082016130b6565b60e083015261010061598c8183016130b6565b9083015261372f6101208092016130b6565b908160c09103126101c757615a1060a0604051926159bb84610251565b6159c4816130b6565b84526159d2602082016130b6565b60208501526159e3604082016130b6565b60408501526159f4606082016135a7565b6060850152615a05608082016130b6565b6080850152016130b6565b60a082015290565b60408051927fcd7033c4000000000000000000000000000000000000000000000000000000008452602090818560048173ffffffffffffffffffffffffffffffffffffffff85165afa9485156117a3575f95615e6b575b50606085901c8085526004905f90615a8a88868901516157cf565b8551928380927f54fd4d500000000000000000000000000000000000000000000000000000000082525afa9081156117a3575f91615e51575b50828151910120615ad2615875565b8051908401208103615c6d575060c0615b6591615af185870160019052565b615b156125f36125f3885173ffffffffffffffffffffffffffffffffffffffff1690565b855180809581947f2ccf46670000000000000000000000000000000000000000000000000000000083526004830191909173ffffffffffffffffffffffffffffffffffffffff6020820193169052565b03915afa80156117a3576103749560e0946135169460a0945f94615c21575b5091615bbb615bb2600193615baa615ba1615bc997890151151590565b151560608d0152565b860151151590565b151560808a0152565b605e1c161515610100870152565b615c01615be960608301516fffffffffffffffffffffffffffffffff1690565b6fffffffffffffffffffffffffffffffff1686840152565b615c1a615c116080830151151590565b151560c0870152565b0151151590565b615bc993919450615bb2600193615baa615ba1615c58615bbb9560c03d60c011615c66575b615c5081836102c3565b81019061599e565b989597505050935050615b84565b503d615c46565b9091929450615c7a6158ae565b83815191012014615c8b5750505050565b600283850152615d0d615cb86125f36125f3865173ffffffffffffffffffffffffffffffffffffffff1690565b85517f2ccf466700000000000000000000000000000000000000000000000000000000815273ffffffffffffffffffffffffffffffffffffffff90931660048401526101409182918491829081906024820190565b03915afa80156117a357615e079560e094613516945f93615e10575b50615d5191615d406132b4615d4893860151151590565b830151151590565b15156080870152565b615c1a615dfd615d646060840151151590565b615d7561010091828a019015159052565b615dae615d9560808601516fffffffffffffffffffffffffffffffff1690565b6fffffffffffffffffffffffffffffffff1660a08a0152565b615d40615dc260a086015163ffffffff1690565b95615dd861012097888c019063ffffffff169052565b615df1615de860c0880151151590565b151560c08c0152565b888601511515908a0152565b1515610160870152565b5f808080612901565b615d4891935091615d406132b4615e3f615d5195883d8a11615e4a575b615e3781836102c3565b8101906158e7565b959350505091615d29565b503d615e2d565b615e6591503d805f833e61356081836102c3565b5f615ac3565b615e83919550823d84116123b9576123ab81836102c3565b935f615a6f565b6cffffffffffffffffffffffffff908160a082015116916080820151169180830392831161377c5761ffff61016083015116807fffffffffffffffffffffffffffffffffffffffffffffffffffffffffffffec770484111581151715614776576060615f35615f0f6153d8615f2f9561271061138861388b9761044f9b02010461378f565b615f2f61388b60408801516fffffffffffffffffffffffffffffffff1690565b9061378f565b9301516fffffffffffffffffffffffffffffffff1690565b906dffffffffffffffffffffffffffff61018061044f930151169061472756fea164736f6c6343000819000a","linkReferences":{}},"methodIdentifiers":{"archController()":"54635570","getAllHooksTemplatesForBorrower(address)":"4b5a900d","getAllMarketsDataForHooksTemplate(address)":"dd92b92b","getHooksDataForBorrower(address)":"65531438","getHooksInstancesForBorrower(address)":"62ef8119","getHooksTemplateForBorrower(address,address)":"9016be4f","getHooksTemplatesForBorrower(address,address[])":"098aaea8","getLenderAccountData(address,address)":"87fed6d2","getLenderAccountData(address,address[])":"ffc7005e","getMarketData(address)":"a30c302d","getMarketDataWithLenderStatus(address,address)":"ddee0865","getMarketsData(address[])":"9f293fb1","getMarketsDataWithLenderStatus(address,address[])":"e85dfdf0","getMarketsForHooksTemplateCount(address)":"d1a0745c","getPaginatedMarketsDataForHooksTemplate(address,uint256,uint256)":"c4482d36","getTokenInfo(address)":"1f69565f","getTokensInfo(address[])":"46a0fe47","getWithdrawalBatchData(address,uint32)":"8febd74f","getWithdrawalBatchDataWithLenderStatus(address,uint32,address)":"733efd1e","getWithdrawalBatchDataWithLendersStatus(address,uint32,address[])":"b31d1015","getWithdrawalBatchesData(address,uint32[])":"274631a3","getWithdrawalBatchesDataWithLenderStatus(address,uint32[],address)":"0c52af99","hooksFactory()":"2385571b","queryLenderAccount((address,address,uint32[]))":"3be9be7a","queryLenderAccounts((address,address,uint32[])[])":"3d8d2dcd"},"id":63}