{"abi":[{"type":"constructor","inputs":[],"stateMutability":"nonpayable"},{"type":"function","name":"addToSanctionsList","inputs":[{"name":"newSanctions","type":"address[]","internalType":"address[]"}],"outputs":[],"stateMutability":"nonpayable"},{"type":"function","name":"cancelOwnershipHandover","inputs":[],"outputs":[],"stateMutability":"payable"},{"type":"function","name":"checkSanctionsList","inputs":[{"name":"addresses","type":"address[]","internalType":"address[]"}],"outputs":[{"name":"isSanctionedArray","type":"bool[]","internalType":"bool[]"}],"stateMutability":"view"},{"type":"function","name":"completeOwnershipHandover","inputs":[{"name":"pendingOwner","type":"address","internalType":"address"}],"outputs":[],"stateMutability":"payable"},{"type":"function","name":"getSanctionedAddresses","inputs":[],"outputs":[{"name":"","type":"address[]","internalType":"address[]"}],"stateMutability":"view"},{"type":"function","name":"getSanctionedAddresses","inputs":[{"name":"start","type":"uint256","internalType":"uint256"},{"name":"end","type":"uint256","internalType":"uint256"}],"outputs":[{"name":"arr","type":"address[]","internalType":"address[]"}],"stateMutability":"view"},{"type":"function","name":"getSanctionedAddressesCount","inputs":[],"outputs":[{"name":"","type":"uint256","internalType":"uint256"}],"stateMutability":"view"},{"type":"function","name":"isSanctioned","inputs":[{"name":"addr","type":"address","internalType":"address"}],"outputs":[{"name":"","type":"bool","internalType":"bool"}],"stateMutability":"view"},{"type":"function","name":"owner","inputs":[],"outputs":[{"name":"result","type":"address","internalType":"address"}],"stateMutability":"view"},{"type":"function","name":"ownershipHandoverExpiresAt","inputs":[{"name":"pendingOwner","type":"address","internalType":"address"}],"outputs":[{"name":"result","type":"uint256","internalType":"uint256"}],"stateMutability":"view"},{"type":"function","name":"removeFromSanctionsList","inputs":[{"name":"removeSanctions","type":"address[]","internalType":"address[]"}],"outputs":[],"stateMutability":"nonpayable"},{"type":"function","name":"renounceOwnership","inputs":[],"outputs":[],"stateMutability":"payable"},{"type":"function","name":"requestOwnershipHandover","inputs":[],"outputs":[],"stateMutability":"payable"},{"type":"function","name":"transferOwnership","inputs":[{"name":"newOwner","type":"address","internalType":"address"}],"outputs":[],"stateMutability":"payable"},{"type":"function","name":"updateSanctionsList","inputs":[{"name":"newSanctions","type":"address[]","internalType":"address[]"},{"name":"removeSanctions","type":"address[]","internalType":"address[]"}],"outputs":[],"stateMutability":"nonpayable"},{"type":"event","name":"OwnershipHandoverCanceled","inputs":[{"name":"pendingOwner","type":"address","indexed":true,"internalType":"address"}],"anonymous":false},{"type":"event","name":"OwnershipHandoverRequested","inputs":[{"name":"pendingOwner","type":"address","indexed":true,"internalType":"address"}],"anonymous":false},{"type":"event","name":"OwnershipTransferred","inputs":[{"name":"oldOwner","type":"address","indexed":true,"internalType":"address"},{"name":"newOwner","type":"address","indexed":true,"internalType":"address"}],"anonymous":false},{"type":"event","name":"SanctionedAddressesAdded","inputs":[{"name":"addresses","type":"address[]","indexed":false,"internalType":"address[]"}],"anonymous":false},{"type":"event","name":"SanctionedAddressesRemoved","inputs":[{"name":"addresses","type":"address[]","indexed":false,"internalType":"address[]"}],"anonymous":false},{"type":"error","name":"NewOwnerIsZeroAddress","inputs":[]},{"type":"error","name":"NoHandoverRequest","inputs":[]},{"type":"error","name":"Unauthorized","inputs":[]}],"bytecode":{"object":"0x6080806040523460435733638b78c6d81955335f7f8be0079c531659141344cd1fd0a4f28419497f9722a3daafe3b4186f6b6457e08180a3610adf90816100488239f35b5f80fdfe604060808152600480361015610013575f80fd5b5f3560e01c908163089351ca1461071957816325692962146106d05781633cf808f2146105b257816354d1f13d1461056e578163715018a61461052a5781638da5cb5b146104fe57816393f8a1dc1461047e578163b972dfcc146103e4578163c6934428146103c7578163cf81e720146102c1578163df592f7d1461027e578163ef782431146101df578163f04e283e14610162578163f2fde38b146100f8575063fee81cf4146100c2575f80fd5b346100f45760203660031901126100f4576020906100de610856565b63389a75e1600c525f5281600c20549051908152f35b5f80fd5b60203660031901126100f45761010c610856565b90610115610948565b8160601b15610157575060018060a01b0316638b78c6d8198181547f8be0079c531659141344cd1fd0a4f28419497f9722a3daafe3b4186f6b6457e05f80a355005b637448fbae5f52601cfd5b60203660031901126100f457610176610856565b9061017f610948565b63389a75e1600c52815f526020600c2090815442116101d457505f905560018060a01b0316638b78c6d8198181547f8be0079c531659141344cd1fd0a4f28419497f9722a3daafe3b4186f6b6457e05f80a355005b636f5e88185f52601cfd5b9050346100f45760203660031901126100f45780359067ffffffffffffffff82116100f4576102109136910161086c565b90610219610948565b5f5b825181101561024a576001906102436001600160a01b0361023c8387610920565b5116610a02565b500161021b565b81517f32aab684eee99db715515d1a9987a8fe33bb6341b0e35e60db7eab48a08f9a3a908061027986826108dc565b0390a1005b82346100f45760203660031901126100f4576020906102b86001600160a01b036102a6610856565b165f52600160205260405f2054151590565b90519015158152f35b9050346100f457816003193601126100f457803591602491602435925f5493848082039110028401918583039283116103b4576102fd8361083e565b9461030a85519687610808565b838652601f196103198561083e565b013660208801375f5b84811061033a5785518061033689826108dc565b0390f35b8088018089116103a25782811015610390575f80527f290decd9548b62a8d60345a988386fc84ba6bc95484008f6362f93160ef3e5630154600191906001600160a01b0316610389828a610920565b5201610322565b84603285634e487b7160e01b5f52525ffd5b84601185634e487b7160e01b5f52525ffd5b601190634e487b7160e01b5f525260245ffd5b82346100f4575f3660031901126100f4576020905f549051908152f35b9050346100f45760203660031901126100f45780359067ffffffffffffffff82116100f4576104159136910161086c565b9061041e610948565b5f5b825181101561044f576001906104486001600160a01b036104418387610920565b5116610997565b5001610420565b81517f2596d7dd6966c5673f9c06ddb0564c4f0e6d8d206ea075b83ad9ddd71a4fb927908061027986826108dc565b82346100f4575f3660031901126100f45780515f8054808352818052602080840194927f290decd9548b62a8d60345a988386fc84ba6bc95484008f6362f93160ef3e56392915b8282106104e75761033686866104dd828b0383610808565b51918291826108dc565b8354875295860195600193840193909101906104c5565b82346100f4575f3660031901126100f457638b78c6d8195490516001600160a01b039091168152602090f35b5f3660031901126100f45761053d610948565b5f638b78c6d8198181547f8be0079c531659141344cd1fd0a4f28419497f9722a3daafe3b4186f6b6457e08280a355005b5f3660031901126100f45763389a75e1600c52335f525f6020600c2055337ffa7b8eab7da67f412cc9575ed43464468f9bfbae89d1675917346ca6d8fe3c925f80a2005b82346100f457806003193601126100f45767ffffffffffffffff82358181116100f4576105e2903690850161086c565b926024359182116100f4576105f99136910161086c565b610601610948565b5f5b835181101561062b576001906106246001600160a01b036104418388610920565b5001610603565b50918051610697575b505f5b825181101561065f576001906106586001600160a01b0361023c8387610920565b5001610637565b50815161066857005b517f32aab684eee99db715515d1a9987a8fe33bb6341b0e35e60db7eab48a08f9a3a91819061027990826108dc565b6106c77f2596d7dd6966c5673f9c06ddb0564c4f0e6d8d206ea075b83ad9ddd71a4fb927918351918291826108dc565b0390a182610634565b5f3660031901126100f45763389a75e1600c52335f526202a30042016020600c2055337fdbf36a107da19e49527a7176a1babf963b4b0ff8cde35ee35d6cd8f1f9ac7e1d5f80a2005b9050346100f457602090816003193601126100f45780359067ffffffffffffffff82116100f45761074c9136910161086c565b9182519061077161075c8361083e565b9261076983519485610808565b80845261083e565b82840190601f19013682375f5b85518110156107c7576001906107b26001600160a01b0361079f838a610920565b51165f52600160205260405f2054151590565b6107bc8287610920565b90151590520161077e565b50815184815283518186018190529092839290830191865f5b8281106107ef57505050500390f35b83511515855286955093810193928101926001016107e0565b90601f8019910116810190811067ffffffffffffffff82111761082a57604052565b634e487b7160e01b5f52604160045260245ffd5b67ffffffffffffffff811161082a5760051b60200190565b600435906001600160a01b03821682036100f457565b9080601f830112156100f45760209082356108868161083e565b936108946040519586610808565b81855260208086019260051b8201019283116100f457602001905b8282106108bd575050505090565b81356001600160a01b03811681036100f45781529083019083016108af565b60209060206040818301928281528551809452019301915f5b828110610903575050505090565b83516001600160a01b0316855293810193928101926001016108f5565b80518210156109345760209160051b010190565b634e487b7160e01b5f52603260045260245ffd5b638b78c6d81954330361095757565b6382b429005f526004601cfd5b5f54811015610934575f80527f290decd9548b62a8d60345a988386fc84ba6bc95484008f6362f93160ef3e56301905f90565b805f52600160205260405f2054155f146109fd575f546801000000000000000081101561082a576109e76109d18260018594015f55610964565b819391549060031b91821b915f19901b19161790565b90555f54905f52600160205260405f2055600190565b505f90565b5f818152600160205260409020548015610acc575f1990808201818111610ab8575f5490838201918211610ab857808203610a84575b5050505f548015610a7057810190610a4f82610964565b909182549160031b1b191690555f555f5260016020525f6040812055600190565b634e487b7160e01b5f52603160045260245ffd5b610aa2610a936109d193610964565b90549060031b1c928392610964565b90555f52600160205260405f20555f8080610a38565b634e487b7160e01b5f52601160045260245ffd5b50505f9056fea164736f6c6343000819000a","linkReferences":{}},"methodIdentifiers":{"addToSanctionsList(address[])":"b972dfcc","cancelOwnershipHandover()":"54d1f13d","checkSanctionsList(address[])":"089351ca","completeOwnershipHandover(address)":"f04e283e","getSanctionedAddresses()":"93f8a1dc","getSanctionedAddresses(uint256,uint256)":"cf81e720","getSanctionedAddressesCount()":"c6934428","isSanctioned(address)":"df592f7d","owner()":"8da5cb5b","ownershipHandoverExpiresAt(address)":"fee81cf4","removeFromSanctionsList(address[])":"ef782431","renounceOwnership()":"715018a6","requestOwnershipHandover()":"25692962","transferOwnership(address)":"f2fde38b","updateSanctionsList(address[],address[])":"3cf808f2"},"id":44}