{"abi":[{"type":"constructor","inputs":[{"name":"archController_","type":"address","internalType":"address"},{"name":"_sanctionsSentinel","type":"address","internalType":"address"},{"name":"_marketInitCodeStorage","type":"address","internalType":"address"},{"name":"_marketInitCodeHash","type":"uint256","internalType":"uint256"}],"stateMutability":"nonpayable"},{"type":"function","name":"addHooksTemplate","inputs":[{"name":"hooksTemplate","type":"address","internalType":"address"},{"name":"name","type":"string","internalType":"string"},{"name":"feeRecipient","type":"address","internalType":"address"},{"name":"originationFeeAsset","type":"address","internalType":"address"},{"name":"originationFeeAmount","type":"uint80","internalType":"uint80"},{"name":"protocolFeeBips","type":"uint16","internalType":"uint16"}],"outputs":[],"stateMutability":"nonpayable"},{"type":"function","name":"archController","inputs":[],"outputs":[{"name":"","type":"address","internalType":"address"}],"stateMutability":"view"},{"type":"function","name":"changeSphereXEngine","inputs":[{"name":"newSphereXEngine","type":"address","internalType":"address"}],"outputs":[],"stateMutability":"nonpayable"},{"type":"function","name":"computeMarketAddress","inputs":[{"name":"salt","type":"bytes32","internalType":"bytes32"}],"outputs":[{"name":"","type":"address","internalType":"address"}],"stateMutability":"view"},{"type":"function","name":"deployHooksInstance","inputs":[{"name":"hooksTemplate","type":"address","internalType":"address"},{"name":"constructorArgs","type":"bytes","internalType":"bytes"}],"outputs":[{"name":"hooksInstance","type":"address","internalType":"address"}],"stateMutability":"nonpayable"},{"type":"function","name":"deployMarket","inputs":[{"name":"parameters","type":"tuple","internalType":"struct DeployMarketInputs","components":[{"name":"asset","type":"address","internalType":"address"},{"name":"namePrefix","type":"string","internalType":"string"},{"name":"symbolPrefix","type":"string","internalType":"string"},{"name":"maxTotalSupply","type":"uint128","internalType":"uint128"},{"name":"annualInterestBips","type":"uint16","internalType":"uint16"},{"name":"delinquencyFeeBips","type":"uint16","internalType":"uint16"},{"name":"withdrawalBatchDuration","type":"uint32","internalType":"uint32"},{"name":"reserveRatioBips","type":"uint16","internalType":"uint16"},{"name":"delinquencyGracePeriod","type":"uint32","internalType":"uint32"},{"name":"hooks","type":"uint256","internalType":"HooksConfig"}]},{"name":"hooksData","type":"bytes","internalType":"bytes"},{"name":"salt","type":"bytes32","internalType":"bytes32"},{"name":"originationFeeAsset","type":"address","internalType":"address"},{"name":"originationFeeAmount","type":"uint256","internalType":"uint256"}],"outputs":[{"name":"market","type":"address","internalType":"address"}],"stateMutability":"nonpayable"},{"type":"function","name":"deployMarketAndHooks","inputs":[{"name":"hooksTemplate","type":"address","internalType":"address"},{"name":"hooksTemplateArgs","type":"bytes","internalType":"bytes"},{"name":"parameters","type":"tuple","internalType":"struct DeployMarketInputs","components":[{"name":"asset","type":"address","internalType":"address"},{"name":"namePrefix","type":"string","internalType":"string"},{"name":"symbolPrefix","type":"string","internalType":"string"},{"name":"maxTotalSupply","type":"uint128","internalType":"uint128"},{"name":"annualInterestBips","type":"uint16","internalType":"uint16"},{"name":"delinquencyFeeBips","type":"uint16","internalType":"uint16"},{"name":"withdrawalBatchDuration","type":"uint32","internalType":"uint32"},{"name":"reserveRatioBips","type":"uint16","internalType":"uint16"},{"name":"delinquencyGracePeriod","type":"uint32","internalType":"uint32"},{"name":"hooks","type":"uint256","internalType":"HooksConfig"}]},{"name":"hooksData","type":"bytes","internalType":"bytes"},{"name":"salt","type":"bytes32","internalType":"bytes32"},{"name":"originationFeeAsset","type":"address","internalType":"address"},{"name":"originationFeeAmount","type":"uint256","internalType":"uint256"}],"outputs":[{"name":"market","type":"address","internalType":"address"},{"name":"hooksInstance","type":"address","internalType":"address"}],"stateMutability":"nonpayable"},{"type":"function","name":"disableHooksTemplate","inputs":[{"name":"hooksTemplate","type":"address","internalType":"address"}],"outputs":[],"stateMutability":"nonpayable"},{"type":"function","name":"getHooksInstancesCountForBorrower","inputs":[{"name":"borrower","type":"address","internalType":"address"}],"outputs":[{"name":"","type":"uint256","internalType":"uint256"}],"stateMutability":"view"},{"type":"function","name":"getHooksInstancesForBorrower","inputs":[{"name":"borrower","type":"address","internalType":"address"}],"outputs":[{"name":"","type":"address[]","internalType":"address[]"}],"stateMutability":"view"},{"type":"function","name":"getHooksTemplateDetails","inputs":[{"name":"hooksTemplate","type":"address","internalType":"address"}],"outputs":[{"name":"","type":"tuple","internalType":"struct HooksTemplate","components":[{"name":"originationFeeAsset","type":"address","internalType":"address"},{"name":"originationFeeAmount","type":"uint80","internalType":"uint80"},{"name":"protocolFeeBips","type":"uint16","internalType":"uint16"},{"name":"exists","type":"bool","internalType":"bool"},{"name":"enabled","type":"bool","internalType":"bool"},{"name":"index","type":"uint24","internalType":"uint24"},{"name":"feeRecipient","type":"address","internalType":"address"},{"name":"name","type":"string","internalType":"string"}]}],"stateMutability":"view"},{"type":"function","name":"getHooksTemplateForInstance","inputs":[{"name":"hooksInstance","type":"address","internalType":"address"}],"outputs":[{"name":"hooksTemplate","type":"address","internalType":"address"}],"stateMutability":"view"},{"type":"function","name":"getHooksTemplates","inputs":[],"outputs":[{"name":"","type":"address[]","internalType":"address[]"}],"stateMutability":"view"},{"type":"function","name":"getHooksTemplates","inputs":[{"name":"start","type":"uint256","internalType":"uint256"},{"name":"end","type":"uint256","internalType":"uint256"}],"outputs":[{"name":"arr","type":"address[]","internalType":"address[]"}],"stateMutability":"view"},{"type":"function","name":"getHooksTemplatesCount","inputs":[],"outputs":[{"name":"","type":"uint256","internalType":"uint256"}],"stateMutability":"view"},{"type":"function","name":"getMarketParameters","inputs":[],"outputs":[{"name":"parameters","type":"tuple","internalType":"struct MarketParameters","components":[{"name":"asset","type":"address","internalType":"address"},{"name":"decimals","type":"uint8","internalType":"uint8"},{"name":"packedNameWord0","type":"bytes32","internalType":"bytes32"},{"name":"packedNameWord1","type":"bytes32","internalType":"bytes32"},{"name":"packedSymbolWord0","type":"bytes32","internalType":"bytes32"},{"name":"packedSymbolWord1","type":"bytes32","internalType":"bytes32"},{"name":"borrower","type":"address","internalType":"address"},{"name":"feeRecipient","type":"address","internalType":"address"},{"name":"sentinel","type":"address","internalType":"address"},{"name":"maxTotalSupply","type":"uint128","internalType":"uint128"},{"name":"protocolFeeBips","type":"uint16","internalType":"uint16"},{"name":"annualInterestBips","type":"uint16","internalType":"uint16"},{"name":"delinquencyFeeBips","type":"uint16","internalType":"uint16"},{"name":"withdrawalBatchDuration","type":"uint32","internalType":"uint32"},{"name":"reserveRatioBips","type":"uint16","internalType":"uint16"},{"name":"delinquencyGracePeriod","type":"uint32","internalType":"uint32"},{"name":"archController","type":"address","internalType":"address"},{"name":"sphereXEngine","type":"address","internalType":"address"},{"name":"hooks","type":"uint256","internalType":"HooksConfig"}]}],"stateMutability":"view"},{"type":"function","name":"getMarketsForHooksInstance","inputs":[{"name":"hooksInstance","type":"address","internalType":"address"}],"outputs":[{"name":"","type":"address[]","internalType":"address[]"}],"stateMutability":"view"},{"type":"function","name":"getMarketsForHooksInstance","inputs":[{"name":"hooksInstance","type":"address","internalType":"address"},{"name":"start","type":"uint256","internalType":"uint256"},{"name":"end","type":"uint256","internalType":"uint256"}],"outputs":[{"name":"arr","type":"address[]","internalType":"address[]"}],"stateMutability":"view"},{"type":"function","name":"getMarketsForHooksInstanceCount","inputs":[{"name":"hooksInstance","type":"address","internalType":"address"}],"outputs":[{"name":"","type":"uint256","internalType":"uint256"}],"stateMutability":"view"},{"type":"function","name":"getMarketsForHooksTemplate","inputs":[{"name":"hooksTemplate","type":"address","internalType":"address"}],"outputs":[{"name":"","type":"address[]","internalType":"address[]"}],"stateMutability":"view"},{"type":"function","name":"getMarketsForHooksTemplate","inputs":[{"name":"hooksTemplate","type":"address","internalType":"address"},{"name":"start","type":"uint256","internalType":"uint256"},{"name":"end","type":"uint256","internalType":"uint256"}],"outputs":[{"name":"arr","type":"address[]","internalType":"address[]"}],"stateMutability":"view"},{"type":"function","name":"getMarketsForHooksTemplateCount","inputs":[{"name":"hooksTemplate","type":"address","internalType":"address"}],"outputs":[{"name":"","type":"uint256","internalType":"uint256"}],"stateMutability":"view"},{"type":"function","name":"isHooksInstance","inputs":[{"name":"hooksInstance","type":"address","internalType":"address"}],"outputs":[{"name":"","type":"bool","internalType":"bool"}],"stateMutability":"view"},{"type":"function","name":"isHooksTemplate","inputs":[{"name":"hooksTemplate","type":"address","internalType":"address"}],"outputs":[{"name":"","type":"bool","internalType":"bool"}],"stateMutability":"view"},{"type":"function","name":"marketInitCodeHash","inputs":[],"outputs":[{"name":"","type":"uint256","internalType":"uint256"}],"stateMutability":"view"},{"type":"function","name":"marketInitCodeStorage","inputs":[],"outputs":[{"name":"","type":"address","internalType":"address"}],"stateMutability":"view"},{"type":"function","name":"name","inputs":[],"outputs":[{"name":"","type":"string","internalType":"string"}],"stateMutability":"pure"},{"type":"function","name":"pushProtocolFeeBipsUpdates","inputs":[{"name":"hooksTemplate","type":"address","internalType":"address"}],"outputs":[],"stateMutability":"nonpayable"},{"type":"function","name":"pushProtocolFeeBipsUpdates","inputs":[{"name":"hooksTemplate","type":"address","internalType":"address"},{"name":"marketStartIndex","type":"uint256","internalType":"uint256"},{"name":"marketEndIndex","type":"uint256","internalType":"uint256"}],"outputs":[],"stateMutability":"nonpayable"},{"type":"function","name":"registerWithArchController","inputs":[],"outputs":[],"stateMutability":"nonpayable"},{"type":"function","name":"sanctionsSentinel","inputs":[],"outputs":[{"name":"","type":"address","internalType":"address"}],"stateMutability":"view"},{"type":"function","name":"sphereXEngine","inputs":[],"outputs":[{"name":"","type":"address","internalType":"address"}],"stateMutability":"view"},{"type":"function","name":"sphereXOperator","inputs":[],"outputs":[{"name":"","type":"address","internalType":"address"}],"stateMutability":"view"},{"type":"function","name":"updateHooksTemplateFees","inputs":[{"name":"hooksTemplate","type":"address","internalType":"address"},{"name":"feeRecipient","type":"address","internalType":"address"},{"name":"originationFeeAsset","type":"address","internalType":"address"},{"name":"originationFeeAmount","type":"uint80","internalType":"uint80"},{"name":"protocolFeeBips","type":"uint16","internalType":"uint16"}],"outputs":[],"stateMutability":"nonpayable"},{"type":"event","name":"ChangedSpherexEngineAddress","inputs":[{"name":"oldEngineAddress","type":"address","indexed":false,"internalType":"address"},{"name":"newEngineAddress","type":"address","indexed":false,"internalType":"address"}],"anonymous":false},{"type":"event","name":"ChangedSpherexOperator","inputs":[{"name":"oldSphereXAdmin","type":"address","indexed":false,"internalType":"address"},{"name":"newSphereXAdmin","type":"address","indexed":false,"internalType":"address"}],"anonymous":false},{"type":"event","name":"HooksInstanceDeployed","inputs":[{"name":"hooksInstance","type":"address","indexed":false,"internalType":"address"},{"name":"hooksTemplate","type":"address","indexed":false,"internalType":"address"}],"anonymous":false},{"type":"event","name":"HooksTemplateAdded","inputs":[{"name":"hooksTemplate","type":"address","indexed":false,"internalType":"address"},{"name":"name","type":"string","indexed":false,"internalType":"string"},{"name":"feeRecipient","type":"address","indexed":false,"internalType":"address"},{"name":"originationFeeAsset","type":"address","indexed":false,"internalType":"address"},{"name":"originationFeeAmount","type":"uint80","indexed":false,"internalType":"uint80"},{"name":"protocolFeeBips","type":"uint16","indexed":false,"internalType":"uint16"}],"anonymous":false},{"type":"event","name":"HooksTemplateDisabled","inputs":[{"name":"hooksTemplate","type":"address","indexed":false,"internalType":"address"}],"anonymous":false},{"type":"event","name":"HooksTemplateFeesUpdated","inputs":[{"name":"hooksTemplate","type":"address","indexed":false,"internalType":"address"},{"name":"feeRecipient","type":"address","indexed":false,"internalType":"address"},{"name":"originationFeeAsset","type":"address","indexed":false,"internalType":"address"},{"name":"originationFeeAmount","type":"uint80","indexed":false,"internalType":"uint80"},{"name":"protocolFeeBips","type":"uint16","indexed":false,"internalType":"uint16"}],"anonymous":false},{"type":"event","name":"MarketDeployed","inputs":[{"name":"hooksTemplate","type":"address","indexed":true,"internalType":"address"},{"name":"market","type":"address","indexed":true,"internalType":"address"},{"name":"name","type":"string","indexed":false,"internalType":"string"},{"name":"symbol","type":"string","indexed":false,"internalType":"string"},{"name":"asset","type":"address","indexed":false,"internalType":"address"},{"name":"maxTotalSupply","type":"uint256","indexed":false,"internalType":"uint256"},{"name":"annualInterestBips","type":"uint256","indexed":false,"internalType":"uint256"},{"name":"delinquencyFeeBips","type":"uint256","indexed":false,"internalType":"uint256"},{"name":"withdrawalBatchDuration","type":"uint256","indexed":false,"internalType":"uint256"},{"name":"reserveRatioBips","type":"uint256","indexed":false,"internalType":"uint256"},{"name":"delinquencyGracePeriod","type":"uint256","indexed":false,"internalType":"uint256"},{"name":"hooks","type":"uint256","indexed":false,"internalType":"HooksConfig"}],"anonymous":false},{"type":"error","name":"AssetBlacklisted","inputs":[]},{"type":"error","name":"CallerNotArchControllerOwner","inputs":[]},{"type":"error","name":"DeploymentFailed","inputs":[]},{"type":"error","name":"FeeMismatch","inputs":[]},{"type":"error","name":"HooksInstanceAlreadyExists","inputs":[]},{"type":"error","name":"HooksInstanceNotFound","inputs":[]},{"type":"error","name":"HooksTemplateAlreadyExists","inputs":[]},{"type":"error","name":"HooksTemplateNotAvailable","inputs":[]},{"type":"error","name":"HooksTemplateNotFound","inputs":[]},{"type":"error","name":"InvalidFeeConfiguration","inputs":[]},{"type":"error","name":"MarketAlreadyExists","inputs":[]},{"type":"error","name":"NameOrSymbolTooLong","inputs":[]},{"type":"error","name":"NoReentrantCalls","inputs":[]},{"type":"error","name":"NotApprovedBorrower","inputs":[]},{"type":"error","name":"SaltDoesNotContainSender","inputs":[]},{"type":"error","name":"SetProtocolFeeBipsFailed","inputs":[]},{"type":"error","name":"SphereXOperatorRequired","inputs":[]}],"bytecode":{"object":"0x61012080604052346101015760809061371c9081380391829161002183610105565b39126101015761004d61003261013e565b61003a610155565b61004261016c565b9061018051926101a2565b60405161344e90816102ce82396080518181816103bf01528181610b8601528181610cef01528181610e3401528181610ed601528181611105015281816111a101528181611626015281816121cd015281816122e90152818161298d01528181612ca50152612cfc015260a0518181816115580152612a17015260c051818181610c230152612c7e015260e05181818161151e015281816115830152612a3f0152610100518181816102f70152610d690152f35b5f80fd5b601f01601f1916610120908101906001600160401b0382119082101761012a57604052565b634e487b7160e01b5f52604160045260245ffd5b61012051906001600160a01b038216820361010157565b61014051906001600160a01b038216820361010157565b61016051906001600160a01b038216820361010157565b9081602091031261010157516001600160a01b03811681036101015790565b9060049360209360ff60a01b301760a05260c05260e052816080526101005260405192838092631e1188b360e11b825260018060a01b03165afa801561023f575f906101f5575b6101f3915061024a565b565b506020903d602011610237575b601f8201601f19168101906001600160401b0382118183101761012a576101f39261023292604052810190610183565b6101e9565b3d9150610202565b6040513d5f823e3d90fd5b60018060a01b03608051165f80526020527f2ac55ae7ba47db34b5334622acafeb34a65daf143b47019273185d64c73a35a560405fa1807f1777adabd324f814e2b0e28f6edf876dce01d7d66358c9acfe87b1b5f38338d5556020527ff33499cccaa0611882086224cc48cd82ef54b66a4d2edf4ed67108dd516896d560405fa156fe60806040526004361015610011575f80fd5b5f3560e01c806304032dbb1461022f57806306fdde031461022a578063155733ef146102255780631caab59d146102205780632812d2de1461021b5780632b07f2801461021657806333ee81f2146102115780633476b76d1461020c578063356dd352146102075780633c231166146102025780633fd83e1e146101fd57806341f259b8146101f85780634272711d146101f35780634bd1acf3146101ee5780634c6c848f146101e9578063546355701461019957806362ef8119146101e45780636e50f960146101df5780637a749060146101da5780639c5cd31a146101d55780639f2f94b3146101d0578063ad78e45a146101cb578063aeefe08c146101c6578063c29a7677146101c1578063cd01e52a146101bc578063cdbb8374146101b7578063d14a5402146101b2578063d19bd571146101ad578063d1a0745c146101a8578063d9d58025146101a3578063e7ca86e31461019e578063e7e5db4f14610199578063eae6ff66146101945763fe604ec71461018f575f80fd5b61193b565b6118be565b610ec1565b61184d565b611831565b6117f6565b6117b7565b61177c565b6116cc565b6115bc565b611541565b611507565b611461565b611166565b61109c565b611001565b610f83565b610f05565b610e15565b610d98565b610d54565b610cdc565b610c99565b610c52565b610c0e565b610afd565b610998565b610938565b61083e565b610728565b6105d5565b610578565b610242565b5f91031261023e57565b5f80fd5b3461023e575f36600319011261023e5761025a611976565b6102626124ef565b60208101516001600160a01b031682526101408082015160408401526101608083015160608501526101808084015160808601526101a08085015160a08701526101c0808601519093929060ff1660ff16602088015285516001600160a01b03166001600160a01b031660c088015260408601516001600160a01b03166001600160a01b031660e08801526001600160a01b037f000000000000000000000000000000000000000000000000000000000000000016610100888101919091529260808701516001600160801b03166001600160801b03166101208981019190915295606088015161ffff1661ffff169089015260a087015161ffff1661ffff169088015260c086015161ffff1661ffff169087015260e085015163ffffffff1663ffffffff169086015283015161ffff1661ffff169084015281015163ffffffff1663ffffffff166101e083810191909152906001600160a01b037f0000000000000000000000000000000000000000000000000000000000000000166102008401527f1777adabd324f814e2b0e28f6edf876dce01d7d66358c9acfe87b1b5f38338d5546001600160a01b0316610220840152015161024082015260405161055081928281516001600160a01b031681526102608101929160208181015160ff169083015260408181015190830152606080820151908301526080808201519083015260a0808201519083015260c0808201516001600160a01b03169083015260e0818101516001600160a01b031690830152610100818101516001600160a01b031690830152610120818101516001600160801b0316908301526101408181015161ffff16908301526101608181015161ffff16908301526101808181015161ffff16908301526101a08181015163ffffffff16908301526101c08181015161ffff16908301526101e08181015163ffffffff1690830152610200818101516001600160a01b031690830152610220818101516001600160a01b03169083015261024080910151910152565b0390f35b805180835260209291819084018484015e5f828201840152601f01601f1916010190565b3461023e575f36600319011261023e57731357696c64636174486f6f6b73466163746f72796053526020805260606020f35b6001600160a01b0381160361023e57565b60a435906105c8826105aa565b565b35906105c8826105aa565b3461023e57602036600319011261023e57600480356105f3816105aa565b6105fb612575565b6001600160a01b0381165f90815260046020526040902061062090611ad3565b611ad3565b906106356106316060840151151590565b1590565b6106d2576001600160a01b03165f9081526002602052604090206106606040825493015161ffff1690565b90604051916040830160405263ae6ea19183526020830152601c8092015f5b8481106106905761068e612593565b005b5f80602484826106b86106a3878a611b71565b905460039190911b1c6001600160a01b031690565b5af1156106c75760010161067f565b8584634484a4a95f52fd5b604051634659113f60e11b8152600490fd5b60209060206040818301928281528551809452019301915f5b82811061070b575050505090565b83516001600160a01b0316855293810193928101926001016106fd565b3461023e5760208060031936011261023e57600435610746816105aa565b60018060a01b038091165f52600260205260405f20916040518092602085549283815201945f5260205f20925f915b838310610798576105508661078c818a0382611266565b604051918291826106e4565b8454811687529581019560019485019490920191610775565b602080825282516001600160a01b0316828201528201516001600160501b031660408083019190915282015161ffff16606082015261083b916101209060e0906060810151151560808501526080810151151560a085015260a081015162ffffff1660c085015260c08101516001600160a01b031684830152015191610100808201520190610554565b90565b3461023e57602036600319011261023e5761055060043561085e816105aa565b6040606060e0825161086f81611216565b5f81525f60208201525f848201525f838201525f60808201525f60a08201525f60c0820152015260018060a01b038092165f5260046020526109296002825f206109238451956108be87611216565b825481811688526001600160501b0360a082901c16602089015260f01c868801525b600183015460ff811615156060890152600881901c60ff1615156080890152601081901c62ffffff1660a089015260281c1660c087019060018060a01b03169052565b01611a33565b60e083015251918291826107b1565b3461023e57602036600319011261023e576020600435610957816105aa565b60018060a01b038091165f526005825260405f205416604051908152f35b606090600319011261023e5760043561098d816105aa565b906024359060443590565b3461023e576109a636610975565b6109ae612575565b6001600160a01b0383165f9081526004602052604090206109ce90611ad3565b926109df6106316060860151151590565b6106d2576040610a1d84610a18610a09610a279560018060a01b03165f52600260205260405f2090565b95865490818082039110020190565b611b43565b94015161ffff1690565b91604051926040840160405263ae6ea19184526020840152601c809301915f5b858110610a565761068e612593565b5f8060248682610a726106a3610a6c888b611b50565b89611b71565b5af115610a8157600101610a47565b600485634484a4a95f52fd5b9181601f8401121561023e578235916001600160401b03831161023e576020838186019501011161023e57565b608435906001600160501b038216820361023e57565b606435906001600160501b038216820361023e57565b61ffff81160361023e57565b35906105c882610ae6565b3461023e5760c036600319011261023e57600435610b1a816105aa565b6024356001600160401b03811161023e57610b39903690600401610a8d565b604435610b45816105aa565b60643590610b52826105aa565b610b5a610aba565b9260a43594610b6886610ae6565b604051638da5cb5b60e01b81526001600160a01b03906020816004817f000000000000000000000000000000000000000000000000000000000000000086165afa908115610c09575f91610bda575b50163303610bc85761068e96611eb9565b60405163226bc1e360e11b8152600490fd5b610bfc915060203d602011610c02575b610bf48183611266565b810190611b91565b5f610bb7565b503d610bea565b611ba6565b3461023e575f36600319011261023e576040517f00000000000000000000000000000000000000000000000000000000000000006001600160a01b03168152602090f35b3461023e575f36600319011261023e577f1777adabd324f814e2b0e28f6edf876dce01d7d66358c9acfe87b1b5f38338d5546040516001600160a01b039091168152602090f35b3461023e57602036600319011261023e57600435610cb6816105aa565b60018060a01b03165f526004602052602060ff600160405f200154166040519015158152f35b3461023e575f8060031936011261023e577f00000000000000000000000000000000000000000000000000000000000000006001600160a01b0316803b1561023e575f8091602460405180948193636c8d746160e11b83523060048401525af18015610c0957610d4a575080f35b61068e9150611237565b3461023e575f36600319011261023e576040517f00000000000000000000000000000000000000000000000000000000000000006001600160a01b03168152602090f35b3461023e5760208060031936011261023e57600435610db6816105aa565b60018060a01b038091165f52600360205260405f20916040518092602085549283815201945f5260205f20925f915b838310610dfc576105508661078c818a0382611266565b8454811687529581019560019485019490920191610de5565b3461023e57602036600319011261023e57600435610e32816105aa565b7f00000000000000000000000000000000000000000000000000000000000000006001600160a01b03163303610eb4577f1777adabd324f814e2b0e28f6edf876dce01d7d66358c9acfe87b1b5f38338d581815491555f526020527ff33499cccaa0611882086224cc48cd82ef54b66a4d2edf4ed67108dd516896d560405fa1005b634ee0b8f85f526004601cfd5b3461023e575f36600319011261023e576040517f00000000000000000000000000000000000000000000000000000000000000006001600160a01b03168152602090f35b3461023e5760208060031936011261023e57600435610f23816105aa565b60018060a01b038091165f52600191600160205260405f20926040518093602086549283815201955f5260205f20935f915b838310610f6c576105508761078c818b0382611266565b855481168852968101969484019491840191610f55565b3461023e575f36600319011261023e576040515f8054808352818052602080840193927f290decd9548b62a8d60345a988386fc84ba6bc95484008f6362f93160ef3e56392915b828210610fe1576105508561078c81890382611266565b83546001600160a01b031686529485019460019384019390910190610fca565b3461023e5761100f36610975565b909160018060a01b03165f52600360205260405f209081549081808203911002018281039081116110975761104381611ff7565b915f5b82811061105b576040518061055086826106e4565b80850190818611611097576110916110786106a360019486611b71565b6110828388612029565b6001600160a01b039091169052565b01611046565b611b2f565b3461023e5760a036600319011261023e576004356110b9816105aa565b6024356110c5816105aa565b6044356110d1816105aa565b6110d9610ad0565b90608435926110e784610ae6565b604051638da5cb5b60e01b81526001600160a01b03906020816004817f000000000000000000000000000000000000000000000000000000000000000086165afa908115610c09575f91611147575b50163303610bc85761068e9461203d565b611160915060203d602011610c0257610bf48183611266565b5f611136565b3461023e57602036600319011261023e57600435611183816105aa565b604051638da5cb5b60e01b81526001600160a01b03906020816004817f000000000000000000000000000000000000000000000000000000000000000086165afa908115610c09575f916111e3575b50163303610bc85761068e90612132565b6111fc915060203d602011610c0257610bf48183611266565b5f6111d2565b634e487b7160e01b5f52604160045260245ffd5b61010081019081106001600160401b0382111761123257604052565b611202565b6001600160401b03811161123257604052565b61022081019081106001600160401b0382111761123257604052565b90601f801991011681019081106001600160401b0382111761123257604052565b6040519061014082018281106001600160401b0382111761123257604052565b6040519061026082018281106001600160401b0382111761123257604052565b604051906105c882611216565b6040519061020082018281106001600160401b0382111761123257604052565b9291926001600160401b038211611232576040519161131d601f8201601f191660200184611266565b82948184528183011161023e578281602093845f960137010152565b9080601f8301121561023e5781602061083b933591016112f4565b6001600160801b0381160361023e57565b35906105c882611354565b63ffffffff81160361023e57565b35906105c882611370565b9190916101408184031261023e5761139f611287565b926113a9826105ca565b84526001600160401b0390602083013582811161023e57816113cc918501611339565b6020860152604083013591821161023e576113e8918301611339565b60408401526113f960608201611365565b606084015261140a60808201610af2565b608084015261141b60a08201610af2565b60a084015261142c60c0820161137e565b60c084015261143d60e08201610af2565b60e084015261010061145081830161137e565b908401526101208091013590830152565b3461023e5760e036600319011261023e5760043561147e816105aa565b6001600160401b039060243582811161023e5761149f903690600401610a8d565b909160443584811161023e576114b9903690600401611389565b60643594851161023e576114d46114eb953690600401610a8d565b916114dd6105bb565b9460c4359660843595612198565b604080516001600160a01b039384168152919092166020820152f35b3461023e575f36600319011261023e5760206040517f00000000000000000000000000000000000000000000000000000000000000008152f35b3461023e57602036600319011261023e57604080517f00000000000000000000000000000000000000000000000000000000000000005f5260043560209081527f000000000000000000000000000000000000000000000000000000000000000083526055600b20928290526001600160a01b039092168152f35b3461023e57604036600319011261023e576004356115d9816105aa565b6024356001600160401b03811161023e576115f8903690600401610a8d565b611603929192612575565b6040516303c3e0ff60e11b81523360048201526020816024816001600160a01b037f0000000000000000000000000000000000000000000000000000000000000000165afa908115610c09575f9161169d575b501561168b576105509261166992612649565b611671612593565b6040516001600160a01b0390911681529081906020820190565b60405163010b8f3560e11b8152600490fd5b6116bf915060203d6020116116c5575b6116b78183611266565b81019061229f565b5f611656565b503d6116ad565b3461023e57604036600319011261023e575f5460043560243582811090839003028201818103919082116110975761170382611ff7565b925f5b83811061171b576040518061055087826106e4565b808301908184116110975782821015611777575f80527f290decd9548b62a8d60345a988386fc84ba6bc95484008f6362f93160ef3e5639091015460019190611771906001600160a01b03166110828389612029565b01611706565b611b5d565b3461023e57602036600319011261023e57600435611799816105aa565b60018060a01b03165f526001602052602060405f2054604051908152f35b3461023e57602036600319011261023e5760206004356117d6816105aa565b60018060a01b038091165f526005825260405f2054161515604051908152f35b3461023e57602036600319011261023e57600435611813816105aa565b60018060a01b03165f526002602052602060405f2054604051908152f35b3461023e575f36600319011261023e5760205f54604051908152f35b3461023e5760031960a03682011261023e57600435906001600160401b039081831161023e5761014090833603011261023e5760243590811161023e576105509161189f611671923690600401610a8d565b9091606435916118ae836105aa565b60843593604435926004016122b7565b3461023e576118cc36610975565b909160018060a01b03165f52600260205260405f209081549081808203911002018281039081116110975761190081611ff7565b915f5b828110611918576040518061055086826106e4565b80850190818611611097576119356110786106a360019486611b71565b01611903565b3461023e57602036600319011261023e57600435611958816105aa565b60018060a01b03165f526003602052602060405f2054604051908152f35b61197e6112a7565b905f82525f60208301525f60408301525f60608301525f60808301525f60a08301525f60c08301525f60e08301525f6101008301525f6101208301525f6101408301525f6101608301525f6101808301525f6101a08301525f6101c08301525f6101e08301525f6102008301525f6102208301525f610240830152565b90600182811c92168015611a29575b6020831014611a1557565b634e487b7160e01b5f52602260045260245ffd5b91607f1691611a0a565b9060405191825f8254611a45816119fb565b908184526020946001916001811690815f14611ab15750600114611a73575b5050506105c892500383611266565b5f90815285812095935091905b818310611a995750506105c893508201015f8080611a64565b85548884018501529485019487945091830191611a80565b925050506105c894925060ff191682840152151560051b8201015f8080611a64565b90604051611ae081611216565b60e0611b2a6002839561092381546108e060018060a01b03918281168952611b206001600160501b038260a01c1660208b01906001600160501b03169052565b60f01c6040890152565b910152565b634e487b7160e01b5f52601160045260245ffd5b9190820391821161109757565b9190820180921161109757565b634e487b7160e01b5f52603260045260245ffd5b8054821015611777575f5260205f2001905f90565b51906105c8826105aa565b9081602091031261023e575161083b816105aa565b6040513d5f823e3d90fd5b601f8211611bbe57505050565b5f5260205f20906020601f840160051c83019310611bf6575b601f0160051c01905b818110611beb575050565b5f8155600101611be0565b9091508190611bd7565b91909182516001600160401b03811161123257611c2781611c2184546119fb565b84611bb1565b602080601f8311600114611c6857508190611c599394955f92611c5d575b50508160011b915f199060031b1c19161790565b9055565b015190505f80611c45565b90601f19831695611c7c855f5260205f2090565b925f905b888210611cb757505083600195969710611c9f575b505050811b019055565b01515f1960f88460031b161c191690555f8080611c95565b80600185968294968601518155019501930190611c80565b8151602083015160408401516001600160a01b0390921660a09190911b69ffffffffffffffffffff60a01b16176001600160f01b031960f09290921b919091161781556060820151600182018054608085015192151560ff1661ffff199091161791151560081b61ff00169190911781556105c89260029160e09190611db690611d7e611d6260a085015162ffffff1690565b825464ffffff0000191660109190911b64ffffff000016178255565b60c08301516001600160a01b0316815465010000000000600160c81b03191660289190911b65010000000000600160c81b0316179055565b01519101611c00565b5f54600160401b8110156112325760018101805f55811015611777575f80527f290decd9548b62a8d60345a988386fc84ba6bc95484008f6362f93160ef3e5630180546001600160a01b0319166001600160a01b03909216919091179055565b8054600160401b81101561123257611e3c91600182018155611b71565b60018060a09493941b038084549260031b9316831b921b1916179055565b60a09581979260e08661ffff989c9b976001600160501b03978160c06001808f1b03988980981681528160208201520152838d01375f82828d010152601f80199101168a01019a16604089015216606087015216608085015216910152565b9395919295949094611ee86001611ee08760018060a01b03165f52600460205260405f2090565b015460ff1690565b611fce5786611fc994611f1e8585857f7735fb05b8e8ddc6039fa70a50d11434f6ba73219f3cc820e8100b10dcaf89ed9c61259c565b611fb4611f2e5f5462ffffff1690565b611f79611f396112c7565b6001600160a01b0387168152916001600160501b038816602084015261ffff89166040840152600160608401526001608084015262ffffff1660a0830152565b6001600160a01b03841660c0820152611f9336848c6112f4565b60e08201526001600160a01b0389165f908152600460205260409020611ccf565b611fbd87611dbf565b60405197889788611e5a565b0390a1565b604051633704fb4160e01b8152600490fd5b6001600160401b0381116112325760051b60200190565b9061200182611fe0565b61200e6040519182611266565b828152809261201f601f1991611fe0565b0190602036910137565b80518210156117775760209160051b010190565b6001600160a01b039081165f81815260046020526040902060010154949591949093929060ff16156106d25785858460a097846120a8877fba32e46aec30b4be89696b127e3fc9923645feaf4184109ba3627ac28e4de3b59c61ffff9a6001600160501b039961259c565b5f89815260046020526040902060018101805465010000000000600160c81b031916602884901b65010000000000600160c81b03161790556001600160a01b03841660a087901b69ffffffffffffffffffff60a01b16176001600160f01b031960f08a901b16179055604051988952166020880152166040860152166060840152166080820152a1565b6001600160a01b03165f8181526004602052604090206001015460ff16156106d2576020817ff53ee7e14e8211031e94d3dbef2a1d525daa5842da39bffef5aa54c2cb76214a925f5260048252600160405f200161ff00198154169055604051908152a1565b919897959392909694986121aa612575565b6040516303c3e0ff60e11b81523360048201526020816024816001600160a01b037f0000000000000000000000000000000000000000000000000000000000000000165afa908115610c09575f91612280575b501561168b576001600160a01b0383165f90815260046020526040902061222390611ad3565b936122346106316060870151151590565b6106d257612249612270926122769a86612649565b61012084018051919c916bffffffffffffffffffffffff1660608e901b17905236916112f4565b90612944565b91906105c8612593565b612299915060203d6020116116c5576116b78183611266565b5f6121fd565b9081602091031261023e5751801515810361023e5790565b90949392916122c4612575565b6040516303c3e0ff60e11b81523360048201526001600160a01b0391906020816024817f000000000000000000000000000000000000000000000000000000000000000087165afa908115610c09575f9161239a575b501561168b5761012083013560601c5f908152600560205260409020546001600160a01b0316918216156123885761227061237f9761237761236f61061b8660018060a01b03165f52600460205260405f2090565b953690611389565b9236916112f4565b906105c8612593565b6040516340b7f7d160e11b8152600490fd5b6123b3915060203d6020116116c5576116b78183611266565b5f61231a565b51906105c882610ae6565b51906105c882611354565b51906105c882611370565b519060ff8216820361023e57565b908161020091031261023e576123fc6112d4565b9061240681611b86565b825261241460208201611b86565b602083015261242560408201611b86565b6040830152612436606082016123b9565b6060830152612447608082016123c4565b608083015261245860a082016123b9565b60a083015261246960c082016123b9565b60c083015261247a60e082016123cf565b60e083015261010061248d8183016123b9565b9083015261012061249f8183016123cf565b908301526101408082015190830152610160808201519083015261018080820151908301526101a080820151908301526101c06124dd8183016123da565b908301526101e0809101519082015290565b5f6101e06124fb6112d4565b8281528260208201528260408201528260608201528260808201528260a08201528260c08201528260e08201528261010082015282610120820152826101408201528261016082015282610180820152826101a0820152826101c0820152015261083b612566612f50565b602080825183010191016123e8565b63929eee14805c612586576001905d565b637fa8a9875f526004601cfd5b5f63929eee145d565b61ffff939093168015159390926001600160501b03161515916001600160a01b039182161585612641575b8515612626575b508415612605575b50505081156125f9575b506125e757565b60405163369276d760e11b8152600490fd5b6103e89150115f6125e0565b92935090918261261b575b5050905f80806125d6565b161590505f80612610565b838092965091612639575b50935f6125ce565b90505f612631565b9450846125c7565b929160016126678560018060a01b03165f52600460205260405f2090565b015460ff8116156106d25760081c60ff161561276f57335f908152600160205260409020605f9054916040519281873b95845f198089016001898d3c8888019033908201526040601f82015283603f82015201373360601b17930101905ff591821561276257335f9081526001602052604090206105c891906126f0908590611e1f565b611e1f565b604080516001600160a01b038681168252831660208201527fa1d2f67e073e80e6ec12790c669d64ea9a5dbe85ed539a27549f7e447c480dfe9190a16001600160a01b0384165f90815260056020526040902080546001600160a01b0319166001600160a01b03909216919091179055565b63301164255f526004601cfd5b604051630e8dc67760e01b8152600490fd5b9081602091031261023e575190565b6001600160a01b039182168152918116602083015260806040830181905283519091169082015261083b929060208301516127f26127dc610140928360a08601526101c0850190610554565b6040860151848203607f190160c0860152610554565b60608501516001600160801b031660e08401529361286e6080820151612821610100918287019061ffff169052565b61284e60a08401519461283d610120968789019061ffff169052565b60c085015163ffffffff1690870152565b60e083015161ffff1661016086015282015163ffffffff16610180850152565b01516101a08201526060818403910152610554565b805191908290602001825e015f815290565b6105c8906128b76128b194936040519586936020850190612883565b90612883565b03601f198101845283611266565b9695936128fd61012099949c9b9a96936128ef6001600160801b0394610140808d528c0190610554565b908a820360208c0152610554565b6001600160a01b03909c16604089015216606087015261ffff908116608087015291821660a086015263ffffffff93841660c08601521660e0840152166101008201520152565b909695929391946129896020612960845160018060a01b031690565b6040516305800c6360e51b81526001600160a01b03909116600482015291829081906024820190565b03817f00000000000000000000000000000000000000000000000000000000000000006001600160a01b03165afa908115610c09575f91612f31575b50612f1f5761012082015160601c93338460601c148015612f08575b15612ef65785516001600160a01b03166001600160a01b038316908114801590612eca575b612eb857612e96575b5050604080517f00000000000000000000000000000000000000000000000000000000000000005f5260208481527f000000000000000000000000000000000000000000000000000000000000000083526055600b2091909252612a9591906001600160a01b031698604051809381926328fd030760e01b8352868d3360048601612790565b03815f6001600160a01b0389165af1908115610c09575f91612e67575b5061012082015280516001600160a01b0316612acd9061307c565b602082015182519193916001600160a01b0316612ae9906131f9565b612af291612895565b604083015183519196916001600160a01b0316612b0e90613290565b612b1791612895565b83519094906001600160a01b031660c08301519094906001600160a01b031660409093015161ffff1660608201516001600160801b0316608083015161ffff1660a084015161ffff169060c0850151612b739063ffffffff1690565b9260e0860151612b849061ffff1690565b94610100870151612b989063ffffffff1690565b96610120015198612ba76112d4565b3381529b6001600160a01b031660208d01526001600160a01b031660408c015261ffff1660608b01526001600160801b031660808a015261ffff1660a089015261ffff1660c088015263ffffffff1660e087015261ffff1661010086015263ffffffff166101208501525f6101408501819052610160850181905261018085018190526101a085015260ff166101c08401526101e0830152612c48856130b0565b610160840152610140830152612c5d836130b0565b6101a0840152610180830152612c72826130db565b873b612e5557612ca2907f0000000000000000000000000000000000000000000000000000000000000000613384565b507f00000000000000000000000000000000000000000000000000000000000000006001600160a01b03163b1561023e5760405163a79b9ec960e01b81526001600160a01b0388166004820152905f8280602481010381837f00000000000000000000000000000000000000000000000000000000000000006001600160a01b03165af1908115610c0957612dad896126eb7f6f8c7c94fc16393d1ebec38de9899ba8c6bd860a025aa60063b7cf4c40a16c09978296612e3796612e3c575b505f5f805160206134228339815191525d6001600160a01b038b165f908152600260205260409020612d94908490611e1f565b6001600160a01b03165f90815260036020526040902090565b60208101516001600160a01b031690612dd060808201516001600160801b031690565b60a082015161ffff1660c083015161ffff1660e084015163ffffffff1691612dfe61010086015161ffff1690565b936101e0612e1461012088015163ffffffff1690565b9601516040516001600160a01b039a8b169e909a169c999a8b9a9198918b6128c5565b0390a3565b80612e49612e4f92611237565b80610234565b5f612d61565b604051630313b28560e01b8152600490fd5b612e89915060203d602011612e8f575b612e818183611266565b810190612781565b5f612ab2565b503d612e77565b60c0860151612eb192906001600160a01b0316903390613030565b5f80612a0f565b6040516336a9d01160e01b8152600490fd5b50612eee612ee260208901516001600160501b031690565b6001600160501b031690565b821415612a06565b60405163861f5c0b60e01b8152600490fd5b506bffffffffffffffffffffffff198416156129e1565b604051634742664560e01b8152600490fd5b612f4a915060203d6020116116c5576116b78183611266565b5f6129c5565b604051905f82525f5f80516020613422833981519152805c9060018260011c9160018416938415613026575b602094858510811461301557848952908115612ff95750600114612fa4575b50505050604052565b5f908152929350837f810543fe2cb308dcc7090dc0718da3cf7b1ea9e6ee6878e7d574d84a057628975b838510612fe557505050508301015f808080612f9b565b805c88860183015293019284908201612fce565b9495505050505060ff191690830152604082015f808080612f9b565b602286634e487b715f52526024601cfd5b92607f1692612f7c565b601c5f60649281946020966040519860605260405260601b602c526323b872dd60601b600c525af13d1560015f511417161561306f575f606052604052565b637939f4245f526004601cfd5b5f6004601c60209363313ce56784525afa6101005f511060203d141616156130a3575f5190565b633394d1705f526004601cfd5b90603f8251116130ce57601f82015191603f601f8251119101510290565b6319a65cb65f526004601cfd5b60405181516001600160a01b031660208201526105c89160208101516001600160a01b0316604083015260408101516001600160a01b03166060830152606081015161ffff16608083015260808101516001600160801b031660a083015260a081015161ffff1660c083015260c081015161ffff1660e083015260e081015161316f610100918285019063ffffffff169052565b810151613185610120918285019061ffff169052565b81015161319d610140918285019063ffffffff169052565b810151610160908184015281015161018090818401528101516101a090818401528101516101c09081840152810151906131df6101e0928385019060ff169052565b0151610200908183015281526131f48161124a565b6132eb565b5f6004601c82936306fdde0384525afa3d6020149015605f3d1182171581176132655750156132315760205f803e61083b5f5161339f565b60405190602063ffffffe05f193d0116808401604052601f193d0182853e013d1861325857565b634cb9c0005f526004601cfd5b61327657634cb9c0005f526004601cfd5b3d61328857632ed09f545f526004601cfd5b3d5f803e3d5ffd5b5f6004601c82936395d89b4184525afa3d6020149015605f3d1182171581176132c85750156132315760205f803e61083b5f5161339f565b6132d957634cb9c0005f526004601cfd5b3d61328857633ddcc60a5f526004601cfd5b805160208082109081156133205750600114613305575050565b60209060011b910151175f805160206134228339815191525d565b92600191505f8051602061342283398151915283831b8301815d5f527f810543fe2cb308dcc7090dc0718da3cf7b1ea9e6ee6878e7d574d84a05762897905f915b84831061337057505050505050565b838691828585010151815d01920191613361565b604051809160015f19823b019384923c5ff590811561276257565b9060018219018216916007836001600160801b0310811b821560081b1784811c6001600160401b031060061b1784811c63ffffffff1060051b177e1f0d1e100c1d070f090b19131c1706010e11080a1a141802121b1503160405601f6040519660408801604052831c63d76453e004161a1760ff030160031c8352602083015256fe78cf023adbf9fec5dbd8e980a6a3526d1d11c66c894ab342ade9ace71f561904a164736f6c6343000819000a","linkReferences":{}},"methodIdentifiers":{"addHooksTemplate(address,string,address,address,uint80,uint16)":"3476b76d","archController()":"54635570","changeSphereXEngine(address)":"4c6c848f","computeMarketAddress(bytes32)":"c29a7677","deployHooksInstance(address,bytes)":"cd01e52a","deployMarket((address,string,string,uint128,uint16,uint16,uint32,uint16,uint32,uint256),bytes,bytes32,address,uint256)":"e7ca86e3","deployMarketAndHooks(address,bytes,(address,string,string,uint128,uint16,uint16,uint32,uint16,uint32,uint256),bytes,bytes32,address,uint256)":"ad78e45a","disableHooksTemplate(address)":"9f2f94b3","getHooksInstancesCountForBorrower(address)":"d14a5402","getHooksInstancesForBorrower(address)":"62ef8119","getHooksTemplateDetails(address)":"2812d2de","getHooksTemplateForInstance(address)":"2b07f280","getHooksTemplates()":"6e50f960","getHooksTemplates(uint256,uint256)":"cdbb8374","getHooksTemplatesCount()":"d9d58025","getMarketParameters()":"04032dbb","getMarketsForHooksInstance(address)":"4bd1acf3","getMarketsForHooksInstance(address,uint256,uint256)":"7a749060","getMarketsForHooksInstanceCount(address)":"fe604ec7","getMarketsForHooksTemplate(address)":"1caab59d","getMarketsForHooksTemplate(address,uint256,uint256)":"eae6ff66","getMarketsForHooksTemplateCount(address)":"d1a0745c","isHooksInstance(address)":"d19bd571","isHooksTemplate(address)":"3fd83e1e","marketInitCodeHash()":"aeefe08c","marketInitCodeStorage()":"356dd352","name()":"06fdde03","pushProtocolFeeBipsUpdates(address)":"155733ef","pushProtocolFeeBipsUpdates(address,uint256,uint256)":"33ee81f2","registerWithArchController()":"41f259b8","sanctionsSentinel()":"4272711d","sphereXEngine()":"3c231166","sphereXOperator()":"e7e5db4f","updateHooksTemplateFees(address,address,address,uint80,uint16)":"9c5cd31a"},"id":44}