{"abi":[{"type":"constructor","inputs":[{"name":"_archController","type":"address","internalType":"address"},{"name":"_hooksFactory","type":"address","internalType":"address"}],"stateMutability":"nonpayable"},{"type":"function","name":"addHooksTemplate","inputs":[{"name":"hooksTemplate","type":"address","internalType":"address"},{"name":"name","type":"string","internalType":"string"},{"name":"feeRecipient","type":"address","internalType":"address"},{"name":"originationFeeAsset","type":"address","internalType":"address"},{"name":"originationFeeAmount","type":"uint80","internalType":"uint80"},{"name":"protocolFeeBips","type":"uint16","internalType":"uint16"}],"outputs":[],"stateMutability":"nonpayable"},{"type":"function","name":"authorizeAccount","inputs":[{"name":"account","type":"address","internalType":"address"}],"outputs":[],"stateMutability":"nonpayable"},{"type":"function","name":"authorizedAccounts","inputs":[{"name":"","type":"address","internalType":"address"}],"outputs":[{"name":"","type":"bool","internalType":"bool"}],"stateMutability":"view"},{"type":"function","name":"disableHooksTemplate","inputs":[{"name":"hooksTemplate","type":"address","internalType":"address"}],"outputs":[],"stateMutability":"nonpayable"},{"type":"function","name":"registerBorrower","inputs":[{"name":"borrower","type":"address","internalType":"address"}],"outputs":[],"stateMutability":"nonpayable"},{"type":"function","name":"registerBorrowers","inputs":[{"name":"borrowers","type":"address[]","internalType":"address[]"}],"outputs":[],"stateMutability":"nonpayable"},{"type":"function","name":"returnOwnership","inputs":[],"outputs":[],"stateMutability":"nonpayable"},{"type":"function","name":"updateHooksTemplateFees","inputs":[{"name":"hooksTemplate","type":"address","internalType":"address"},{"name":"feeRecipient","type":"address","internalType":"address"},{"name":"originationFeeAsset","type":"address","internalType":"address"},{"name":"originationFeeAmount","type":"uint80","internalType":"uint80"},{"name":"protocolFeeBips","type":"uint16","internalType":"uint16"}],"outputs":[],"stateMutability":"nonpayable"}],"bytecode":{"object":"0x60c0346100b957601f61079238819003918201601f19168301916001600160401b038311848410176100bd5780849260409485528339810103126100b957610052602061004b836100d1565b92016100d1565b6001600160a01b039182166080521660a052335f9081526020819052604090819020805460ff19166001179055516106ac90816100e68239608051818181609f015281816103510152610562015260a0518181816101a90152818161027c015261049b0152f35b5f80fd5b634e487b7160e01b5f52604160045260245ffd5b51906001600160a01b03821682036100b95756fe60806040818152600480361015610014575f80fd5b5f925f3560e01c90816324ba5884146105d557508063297d1a34146105385780633476b76d146103fb5780634504f105146102f45780639c5cd31a146101fe578381639f2f94b31461016d57508063a9a8679b146101185763abad74261461007a575f80fd5b8291346101145760203660031901126101145761009561060e565b6001600160a01b037f00000000000000000000000000000000000000000000000000000000000000008116803b1561011057859283602492865197889586946355d6ba1360e11b865216908401525af190811561010757506100f45750f35b6100fd90610677565b6101045780f35b80fd5b513d84823e3d90fd5b8580fd5b5050fd5b5050346101695760203660031901126101695761013361060e565b3383528260205261014960ff838520541661063a565b6001600160a01b0316825260208290528120805460ff1916600117905580f35b5080fd5b929050346101145760203660031901126101145761018961060e565b3384528360205261019f60ff838620541661063a565b6001600160a01b037f00000000000000000000000000000000000000000000000000000000000000008116803b156101105785928360249286519788958694639f2f94b360e01b865216908401525af190811561010757506100f45750f35b50346102f05760a03660031901126102f05761021861060e565b6024356001600160a01b038181169492918590036102ec57610238610624565b946064359269ffffffffffffffffffff84168094036102ec576084359661ffff88168098036102ec5788973389528860205261027960ff888b20541661063a565b847f00000000000000000000000000000000000000000000000000000000000000001690813b156102e857899686889460a4978b519c8d9a8b99634e2e698d60e11b8b5216908901526024880152166044860152606485015260848401525af190811561010757506100f45750f35b8980fd5b5f80fd5b8280fd5b5090346102f05760203660031901126102f05767ffffffffffffffff90838335838111610169573660238201121561016957808501359384116101695760246005953660248760051b850101116103f75794956001600160a01b037f00000000000000000000000000000000000000000000000000000000000000008116969093909190855b898110610385578680f35b8481841b830101358681168091036103f357893b156103f35788516355d6ba1360e11b81528581019190915287818781838e5af180156103e9579088916103d1575b505060010161037a565b6103da90610677565b6103e557865f6103c7565b8680fd5b89513d8a823e3d90fd5b8780fd5b8380fd5b5090346102f05760c03660031901126102f05761041661060e565b906024359167ffffffffffffffff938484116101105736602385011215610110578381013594851161011057366024868601011161011057610456610624565b6001600160a01b036064358181169492908590036102ec576084359269ffffffffffffffffffff84168094036102ec5760a4359861ffff8a16809a036102ec578a99847f00000000000000000000000000000000000000000000000000000000000000001695863b15610534578b98868a96858d519e8f9c8d9b8c9a633476b76d60e01b8c5216908a01526024890160c090528160c48a015260240160e48901378786880160e401521660448601526064850152608484015260a4830152601f1990601f011681010360e401925af190811561010757506100f45750f35b8b80fd5b5090346102ec575f3660031901126102ec57335f525f60205261056060ff825f20541661063a565b7f00000000000000000000000000000000000000000000000000000000000000006001600160a01b031691823b156102ec575f92602484928451958693849263f2fde38b60e01b845233908401525af19081156105cc57506105c0575080f35b6105ca9150610677565b005b513d5f823e3d90fd5b8390346102ec5760203660031901126102ec5760209160ff906001600160a01b036105fe61060e565b165f525f84525f20541615158152f35b600435906001600160a01b03821682036102ec57565b604435906001600160a01b03821682036102ec57565b1561064157565b60405162461bcd60e51b815260206004820152600e60248201526d1b9bdd08185d5d1a1bdc9a5e995960921b6044820152606490fd5b67ffffffffffffffff811161068b57604052565b634e487b7160e01b5f52604160045260245ffdfea164736f6c6343000819000a","linkReferences":{}},"methodIdentifiers":{"addHooksTemplate(address,string,address,address,uint80,uint16)":"3476b76d","authorizeAccount(address)":"a9a8679b","authorizedAccounts(address)":"24ba5884","disableHooksTemplate(address)":"9f2f94b3","registerBorrower(address)":"abad7426","registerBorrowers(address[])":"4504f105","returnOwnership()":"297d1a34","updateHooksTemplateFees(address,address,address,uint80,uint16)":"9c5cd31a"},"id":40}