{"abi":[{"type":"constructor","inputs":[{"name":"_deployer","type":"address","internalType":"address"},{"name":"args","type":"bytes","internalType":"bytes"}],"stateMutability":"nonpayable"},{"type":"function","name":"addRoleProvider","inputs":[{"name":"providerAddress","type":"address","internalType":"address"},{"name":"timeToLive","type":"uint32","internalType":"uint32"}],"outputs":[],"stateMutability":"nonpayable"},{"type":"function","name":"blockFromDeposits","inputs":[{"name":"account","type":"address","internalType":"address"}],"outputs":[],"stateMutability":"nonpayable"},{"type":"function","name":"blockFromDeposits","inputs":[{"name":"accounts","type":"address[]","internalType":"address[]"}],"outputs":[],"stateMutability":"nonpayable"},{"type":"function","name":"borrower","inputs":[],"outputs":[{"name":"","type":"address","internalType":"address"}],"stateMutability":"view"},{"type":"function","name":"config","inputs":[],"outputs":[{"name":"","type":"uint256","internalType":"HooksDeploymentConfig"}],"stateMutability":"view"},{"type":"function","name":"createRoleProvider","inputs":[{"name":"providerFactory","type":"address","internalType":"address"},{"name":"timeToLive","type":"uint32","internalType":"uint32"},{"name":"data","type":"bytes","internalType":"bytes"}],"outputs":[],"stateMutability":"nonpayable"},{"type":"function","name":"factory","inputs":[],"outputs":[{"name":"","type":"address","internalType":"address"}],"stateMutability":"view"},{"type":"function","name":"getHookedMarket","inputs":[{"name":"marketAddress","type":"address","internalType":"address"}],"outputs":[{"name":"","type":"tuple","internalType":"struct HookedMarket","components":[{"name":"isHooked","type":"bool","internalType":"bool"},{"name":"transferRequiresAccess","type":"bool","internalType":"bool"},{"name":"depositRequiresAccess","type":"bool","internalType":"bool"},{"name":"minimumDeposit","type":"uint128","internalType":"uint128"},{"name":"transfersDisabled","type":"bool","internalType":"bool"}]}],"stateMutability":"view"},{"type":"function","name":"getHookedMarkets","inputs":[{"name":"marketAddresses","type":"address[]","internalType":"address[]"}],"outputs":[{"name":"hookedMarkets","type":"tuple[]","internalType":"struct HookedMarket[]","components":[{"name":"isHooked","type":"bool","internalType":"bool"},{"name":"transferRequiresAccess","type":"bool","internalType":"bool"},{"name":"depositRequiresAccess","type":"bool","internalType":"bool"},{"name":"minimumDeposit","type":"uint128","internalType":"uint128"},{"name":"transfersDisabled","type":"bool","internalType":"bool"}]}],"stateMutability":"view"},{"type":"function","name":"getLenderStatus","inputs":[{"name":"accountAddress","type":"address","internalType":"address"}],"outputs":[{"name":"status","type":"tuple","internalType":"struct LenderStatus","components":[{"name":"isBlockedFromDeposits","type":"bool","internalType":"bool"},{"name":"lastProvider","type":"address","internalType":"address"},{"name":"canRefresh","type":"bool","internalType":"bool"},{"name":"lastApprovalTimestamp","type":"uint32","internalType":"uint32"}]}],"stateMutability":"view"},{"type":"function","name":"getParameterConstraints","inputs":[],"outputs":[{"name":"constraints","type":"tuple","internalType":"struct MarketParameterConstraints","components":[{"name":"minimumDelinquencyGracePeriod","type":"uint32","internalType":"uint32"},{"name":"maximumDelinquencyGracePeriod","type":"uint32","internalType":"uint32"},{"name":"minimumReserveRatioBips","type":"uint16","internalType":"uint16"},{"name":"maximumReserveRatioBips","type":"uint16","internalType":"uint16"},{"name":"minimumDelinquencyFeeBips","type":"uint16","internalType":"uint16"},{"name":"maximumDelinquencyFeeBips","type":"uint16","internalType":"uint16"},{"name":"minimumWithdrawalBatchDuration","type":"uint32","internalType":"uint32"},{"name":"maximumWithdrawalBatchDuration","type":"uint32","internalType":"uint32"},{"name":"minimumAnnualInterestBips","type":"uint16","internalType":"uint16"},{"name":"maximumAnnualInterestBips","type":"uint16","internalType":"uint16"}]}],"stateMutability":"pure"},{"type":"function","name":"getPreviousLenderStatus","inputs":[{"name":"accountAddress","type":"address","internalType":"address"}],"outputs":[{"name":"status","type":"tuple","internalType":"struct LenderStatus","components":[{"name":"isBlockedFromDeposits","type":"bool","internalType":"bool"},{"name":"lastProvider","type":"address","internalType":"address"},{"name":"canRefresh","type":"bool","internalType":"bool"},{"name":"lastApprovalTimestamp","type":"uint32","internalType":"uint32"}]}],"stateMutability":"view"},{"type":"function","name":"getPullProviders","inputs":[],"outputs":[{"name":"","type":"uint256[]","internalType":"RoleProvider[]"}],"stateMutability":"view"},{"type":"function","name":"getPushProviders","inputs":[],"outputs":[{"name":"","type":"uint256[]","internalType":"RoleProvider[]"}],"stateMutability":"view"},{"type":"function","name":"getRoleProvider","inputs":[{"name":"providerAddress","type":"address","internalType":"address"}],"outputs":[{"name":"","type":"uint256","internalType":"RoleProvider"}],"stateMutability":"view"},{"type":"function","name":"grantRole","inputs":[{"name":"account","type":"address","internalType":"address"},{"name":"roleGrantedTimestamp","type":"uint32","internalType":"uint32"}],"outputs":[],"stateMutability":"nonpayable"},{"type":"function","name":"grantRoles","inputs":[{"name":"accounts","type":"address[]","internalType":"address[]"},{"name":"roleGrantedTimestamps","type":"uint32[]","internalType":"uint32[]"}],"outputs":[],"stateMutability":"nonpayable"},{"type":"function","name":"isKnownLenderOnMarket","inputs":[{"name":"lender","type":"address","internalType":"address"},{"name":"market","type":"address","internalType":"address"}],"outputs":[{"name":"","type":"bool","internalType":"bool"}],"stateMutability":"view"},{"type":"function","name":"name","inputs":[],"outputs":[{"name":"","type":"string","internalType":"string"}],"stateMutability":"view"},{"type":"function","name":"onBorrow","inputs":[{"name":"","type":"uint256","internalType":"uint256"},{"name":"","type":"tuple","internalType":"struct MarketState","components":[{"name":"isClosed","type":"bool","internalType":"bool"},{"name":"maxTotalSupply","type":"uint128","internalType":"uint128"},{"name":"accruedProtocolFees","type":"uint128","internalType":"uint128"},{"name":"normalizedUnclaimedWithdrawals","type":"uint128","internalType":"uint128"},{"name":"scaledTotalSupply","type":"uint104","internalType":"uint104"},{"name":"scaledPendingWithdrawals","type":"uint104","internalType":"uint104"},{"name":"pendingWithdrawalExpiry","type":"uint32","internalType":"uint32"},{"name":"isDelinquent","type":"bool","internalType":"bool"},{"name":"timeDelinquent","type":"uint32","internalType":"uint32"},{"name":"protocolFeeBips","type":"uint16","internalType":"uint16"},{"name":"annualInterestBips","type":"uint16","internalType":"uint16"},{"name":"reserveRatioBips","type":"uint16","internalType":"uint16"},{"name":"scaleFactor","type":"uint112","internalType":"uint112"},{"name":"lastInterestAccruedTimestamp","type":"uint32","internalType":"uint32"}]},{"name":"","type":"bytes","internalType":"bytes"}],"outputs":[],"stateMutability":"nonpayable"},{"type":"function","name":"onCloseMarket","inputs":[{"name":"","type":"tuple","internalType":"struct MarketState","components":[{"name":"isClosed","type":"bool","internalType":"bool"},{"name":"maxTotalSupply","type":"uint128","internalType":"uint128"},{"name":"accruedProtocolFees","type":"uint128","internalType":"uint128"},{"name":"normalizedUnclaimedWithdrawals","type":"uint128","internalType":"uint128"},{"name":"scaledTotalSupply","type":"uint104","internalType":"uint104"},{"name":"scaledPendingWithdrawals","type":"uint104","internalType":"uint104"},{"name":"pendingWithdrawalExpiry","type":"uint32","internalType":"uint32"},{"name":"isDelinquent","type":"bool","internalType":"bool"},{"name":"timeDelinquent","type":"uint32","internalType":"uint32"},{"name":"protocolFeeBips","type":"uint16","internalType":"uint16"},{"name":"annualInterestBips","type":"uint16","internalType":"uint16"},{"name":"reserveRatioBips","type":"uint16","internalType":"uint16"},{"name":"scaleFactor","type":"uint112","internalType":"uint112"},{"name":"lastInterestAccruedTimestamp","type":"uint32","internalType":"uint32"}]},{"name":"","type":"bytes","internalType":"bytes"}],"outputs":[],"stateMutability":"nonpayable"},{"type":"function","name":"onCreateMarket","inputs":[{"name":"deployer","type":"address","internalType":"address"},{"name":"marketAddress","type":"address","internalType":"address"},{"name":"parameters","type":"tuple","internalType":"struct DeployMarketInputs","components":[{"name":"asset","type":"address","internalType":"address"},{"name":"namePrefix","type":"string","internalType":"string"},{"name":"symbolPrefix","type":"string","internalType":"string"},{"name":"maxTotalSupply","type":"uint128","internalType":"uint128"},{"name":"annualInterestBips","type":"uint16","internalType":"uint16"},{"name":"delinquencyFeeBips","type":"uint16","internalType":"uint16"},{"name":"withdrawalBatchDuration","type":"uint32","internalType":"uint32"},{"name":"reserveRatioBips","type":"uint16","internalType":"uint16"},{"name":"delinquencyGracePeriod","type":"uint32","internalType":"uint32"},{"name":"hooks","type":"uint256","internalType":"HooksConfig"}]},{"name":"extraData","type":"bytes","internalType":"bytes"}],"outputs":[{"name":"","type":"uint256","internalType":"HooksConfig"}],"stateMutability":"nonpayable"},{"type":"function","name":"onDeposit","inputs":[{"name":"lender","type":"address","internalType":"address"},{"name":"scaledAmount","type":"uint256","internalType":"uint256"},{"name":"state","type":"tuple","internalType":"struct MarketState","components":[{"name":"isClosed","type":"bool","internalType":"bool"},{"name":"maxTotalSupply","type":"uint128","internalType":"uint128"},{"name":"accruedProtocolFees","type":"uint128","internalType":"uint128"},{"name":"normalizedUnclaimedWithdrawals","type":"uint128","internalType":"uint128"},{"name":"scaledTotalSupply","type":"uint104","internalType":"uint104"},{"name":"scaledPendingWithdrawals","type":"uint104","internalType":"uint104"},{"name":"pendingWithdrawalExpiry","type":"uint32","internalType":"uint32"},{"name":"isDelinquent","type":"bool","internalType":"bool"},{"name":"timeDelinquent","type":"uint32","internalType":"uint32"},{"name":"protocolFeeBips","type":"uint16","internalType":"uint16"},{"name":"annualInterestBips","type":"uint16","internalType":"uint16"},{"name":"reserveRatioBips","type":"uint16","internalType":"uint16"},{"name":"scaleFactor","type":"uint112","internalType":"uint112"},{"name":"lastInterestAccruedTimestamp","type":"uint32","internalType":"uint32"}]},{"name":"hooksData","type":"bytes","internalType":"bytes"}],"outputs":[],"stateMutability":"nonpayable"},{"type":"function","name":"onExecuteWithdrawal","inputs":[{"name":"lender","type":"address","internalType":"address"},{"name":"","type":"uint128","internalType":"uint128"},{"name":"","type":"tuple","internalType":"struct MarketState","components":[{"name":"isClosed","type":"bool","internalType":"bool"},{"name":"maxTotalSupply","type":"uint128","internalType":"uint128"},{"name":"accruedProtocolFees","type":"uint128","internalType":"uint128"},{"name":"normalizedUnclaimedWithdrawals","type":"uint128","internalType":"uint128"},{"name":"scaledTotalSupply","type":"uint104","internalType":"uint104"},{"name":"scaledPendingWithdrawals","type":"uint104","internalType":"uint104"},{"name":"pendingWithdrawalExpiry","type":"uint32","internalType":"uint32"},{"name":"isDelinquent","type":"bool","internalType":"bool"},{"name":"timeDelinquent","type":"uint32","internalType":"uint32"},{"name":"protocolFeeBips","type":"uint16","internalType":"uint16"},{"name":"annualInterestBips","type":"uint16","internalType":"uint16"},{"name":"reserveRatioBips","type":"uint16","internalType":"uint16"},{"name":"scaleFactor","type":"uint112","internalType":"uint112"},{"name":"lastInterestAccruedTimestamp","type":"uint32","internalType":"uint32"}]},{"name":"hooksData","type":"bytes","internalType":"bytes"}],"outputs":[],"stateMutability":"nonpayable"},{"type":"function","name":"onNukeFromOrbit","inputs":[{"name":"","type":"address","internalType":"address"},{"name":"","type":"tuple","internalType":"struct MarketState","components":[{"name":"isClosed","type":"bool","internalType":"bool"},{"name":"maxTotalSupply","type":"uint128","internalType":"uint128"},{"name":"accruedProtocolFees","type":"uint128","internalType":"uint128"},{"name":"normalizedUnclaimedWithdrawals","type":"uint128","internalType":"uint128"},{"name":"scaledTotalSupply","type":"uint104","internalType":"uint104"},{"name":"scaledPendingWithdrawals","type":"uint104","internalType":"uint104"},{"name":"pendingWithdrawalExpiry","type":"uint32","internalType":"uint32"},{"name":"isDelinquent","type":"bool","internalType":"bool"},{"name":"timeDelinquent","type":"uint32","internalType":"uint32"},{"name":"protocolFeeBips","type":"uint16","internalType":"uint16"},{"name":"annualInterestBips","type":"uint16","internalType":"uint16"},{"name":"reserveRatioBips","type":"uint16","internalType":"uint16"},{"name":"scaleFactor","type":"uint112","internalType":"uint112"},{"name":"lastInterestAccruedTimestamp","type":"uint32","internalType":"uint32"}]},{"name":"","type":"bytes","internalType":"bytes"}],"outputs":[],"stateMutability":"nonpayable"},{"type":"function","name":"onQueueWithdrawal","inputs":[{"name":"lender","type":"address","internalType":"address"},{"name":"","type":"uint32","internalType":"uint32"},{"name":"","type":"uint256","internalType":"uint256"},{"name":"","type":"tuple","internalType":"struct MarketState","components":[{"name":"isClosed","type":"bool","internalType":"bool"},{"name":"maxTotalSupply","type":"uint128","internalType":"uint128"},{"name":"accruedProtocolFees","type":"uint128","internalType":"uint128"},{"name":"normalizedUnclaimedWithdrawals","type":"uint128","internalType":"uint128"},{"name":"scaledTotalSupply","type":"uint104","internalType":"uint104"},{"name":"scaledPendingWithdrawals","type":"uint104","internalType":"uint104"},{"name":"pendingWithdrawalExpiry","type":"uint32","internalType":"uint32"},{"name":"isDelinquent","type":"bool","internalType":"bool"},{"name":"timeDelinquent","type":"uint32","internalType":"uint32"},{"name":"protocolFeeBips","type":"uint16","internalType":"uint16"},{"name":"annualInterestBips","type":"uint16","internalType":"uint16"},{"name":"reserveRatioBips","type":"uint16","internalType":"uint16"},{"name":"scaleFactor","type":"uint112","internalType":"uint112"},{"name":"lastInterestAccruedTimestamp","type":"uint32","internalType":"uint32"}]},{"name":"hooksData","type":"bytes","internalType":"bytes"}],"outputs":[],"stateMutability":"nonpayable"},{"type":"function","name":"onRepay","inputs":[{"name":"normalizedAmount","type":"uint256","internalType":"uint256"},{"name":"state","type":"tuple","internalType":"struct MarketState","components":[{"name":"isClosed","type":"bool","internalType":"bool"},{"name":"maxTotalSupply","type":"uint128","internalType":"uint128"},{"name":"accruedProtocolFees","type":"uint128","internalType":"uint128"},{"name":"normalizedUnclaimedWithdrawals","type":"uint128","internalType":"uint128"},{"name":"scaledTotalSupply","type":"uint104","internalType":"uint104"},{"name":"scaledPendingWithdrawals","type":"uint104","internalType":"uint104"},{"name":"pendingWithdrawalExpiry","type":"uint32","internalType":"uint32"},{"name":"isDelinquent","type":"bool","internalType":"bool"},{"name":"timeDelinquent","type":"uint32","internalType":"uint32"},{"name":"protocolFeeBips","type":"uint16","internalType":"uint16"},{"name":"annualInterestBips","type":"uint16","internalType":"uint16"},{"name":"reserveRatioBips","type":"uint16","internalType":"uint16"},{"name":"scaleFactor","type":"uint112","internalType":"uint112"},{"name":"lastInterestAccruedTimestamp","type":"uint32","internalType":"uint32"}]},{"name":"hooksData","type":"bytes","internalType":"bytes"}],"outputs":[],"stateMutability":"nonpayable"},{"type":"function","name":"onSetAnnualInterestAndReserveRatioBips","inputs":[{"name":"annualInterestBips","type":"uint16","internalType":"uint16"},{"name":"reserveRatioBips","type":"uint16","internalType":"uint16"},{"name":"intermediateState","type":"tuple","internalType":"struct MarketState","components":[{"name":"isClosed","type":"bool","internalType":"bool"},{"name":"maxTotalSupply","type":"uint128","internalType":"uint128"},{"name":"accruedProtocolFees","type":"uint128","internalType":"uint128"},{"name":"normalizedUnclaimedWithdrawals","type":"uint128","internalType":"uint128"},{"name":"scaledTotalSupply","type":"uint104","internalType":"uint104"},{"name":"scaledPendingWithdrawals","type":"uint104","internalType":"uint104"},{"name":"pendingWithdrawalExpiry","type":"uint32","internalType":"uint32"},{"name":"isDelinquent","type":"bool","internalType":"bool"},{"name":"timeDelinquent","type":"uint32","internalType":"uint32"},{"name":"protocolFeeBips","type":"uint16","internalType":"uint16"},{"name":"annualInterestBips","type":"uint16","internalType":"uint16"},{"name":"reserveRatioBips","type":"uint16","internalType":"uint16"},{"name":"scaleFactor","type":"uint112","internalType":"uint112"},{"name":"lastInterestAccruedTimestamp","type":"uint32","internalType":"uint32"}]},{"name":"hooksData","type":"bytes","internalType":"bytes"}],"outputs":[{"name":"updatedAnnualInterestBips","type":"uint16","internalType":"uint16"},{"name":"updatedReserveRatioBips","type":"uint16","internalType":"uint16"}],"stateMutability":"nonpayable"},{"type":"function","name":"onSetMaxTotalSupply","inputs":[{"name":"","type":"uint256","internalType":"uint256"},{"name":"","type":"tuple","internalType":"struct MarketState","components":[{"name":"isClosed","type":"bool","internalType":"bool"},{"name":"maxTotalSupply","type":"uint128","internalType":"uint128"},{"name":"accruedProtocolFees","type":"uint128","internalType":"uint128"},{"name":"normalizedUnclaimedWithdrawals","type":"uint128","internalType":"uint128"},{"name":"scaledTotalSupply","type":"uint104","internalType":"uint104"},{"name":"scaledPendingWithdrawals","type":"uint104","internalType":"uint104"},{"name":"pendingWithdrawalExpiry","type":"uint32","internalType":"uint32"},{"name":"isDelinquent","type":"bool","internalType":"bool"},{"name":"timeDelinquent","type":"uint32","internalType":"uint32"},{"name":"protocolFeeBips","type":"uint16","internalType":"uint16"},{"name":"annualInterestBips","type":"uint16","internalType":"uint16"},{"name":"reserveRatioBips","type":"uint16","internalType":"uint16"},{"name":"scaleFactor","type":"uint112","internalType":"uint112"},{"name":"lastInterestAccruedTimestamp","type":"uint32","internalType":"uint32"}]},{"name":"","type":"bytes","internalType":"bytes"}],"outputs":[],"stateMutability":"nonpayable"},{"type":"function","name":"onSetProtocolFeeBips","inputs":[{"name":"","type":"uint16","internalType":"uint16"},{"name":"","type":"tuple","internalType":"struct MarketState","components":[{"name":"isClosed","type":"bool","internalType":"bool"},{"name":"maxTotalSupply","type":"uint128","internalType":"uint128"},{"name":"accruedProtocolFees","type":"uint128","internalType":"uint128"},{"name":"normalizedUnclaimedWithdrawals","type":"uint128","internalType":"uint128"},{"name":"scaledTotalSupply","type":"uint104","internalType":"uint104"},{"name":"scaledPendingWithdrawals","type":"uint104","internalType":"uint104"},{"name":"pendingWithdrawalExpiry","type":"uint32","internalType":"uint32"},{"name":"isDelinquent","type":"bool","internalType":"bool"},{"name":"timeDelinquent","type":"uint32","internalType":"uint32"},{"name":"protocolFeeBips","type":"uint16","internalType":"uint16"},{"name":"annualInterestBips","type":"uint16","internalType":"uint16"},{"name":"reserveRatioBips","type":"uint16","internalType":"uint16"},{"name":"scaleFactor","type":"uint112","internalType":"uint112"},{"name":"lastInterestAccruedTimestamp","type":"uint32","internalType":"uint32"}]},{"name":"","type":"bytes","internalType":"bytes"}],"outputs":[],"stateMutability":"nonpayable"},{"type":"function","name":"onTransfer","inputs":[{"name":"","type":"address","internalType":"address"},{"name":"","type":"address","internalType":"address"},{"name":"to","type":"address","internalType":"address"},{"name":"","type":"uint256","internalType":"uint256"},{"name":"","type":"tuple","internalType":"struct MarketState","components":[{"name":"isClosed","type":"bool","internalType":"bool"},{"name":"maxTotalSupply","type":"uint128","internalType":"uint128"},{"name":"accruedProtocolFees","type":"uint128","internalType":"uint128"},{"name":"normalizedUnclaimedWithdrawals","type":"uint128","internalType":"uint128"},{"name":"scaledTotalSupply","type":"uint104","internalType":"uint104"},{"name":"scaledPendingWithdrawals","type":"uint104","internalType":"uint104"},{"name":"pendingWithdrawalExpiry","type":"uint32","internalType":"uint32"},{"name":"isDelinquent","type":"bool","internalType":"bool"},{"name":"timeDelinquent","type":"uint32","internalType":"uint32"},{"name":"protocolFeeBips","type":"uint16","internalType":"uint16"},{"name":"annualInterestBips","type":"uint16","internalType":"uint16"},{"name":"reserveRatioBips","type":"uint16","internalType":"uint16"},{"name":"scaleFactor","type":"uint112","internalType":"uint112"},{"name":"lastInterestAccruedTimestamp","type":"uint32","internalType":"uint32"}]},{"name":"extraData","type":"bytes","internalType":"bytes"}],"outputs":[],"stateMutability":"nonpayable"},{"type":"function","name":"removeRoleProvider","inputs":[{"name":"providerAddress","type":"address","internalType":"address"}],"outputs":[],"stateMutability":"nonpayable"},{"type":"function","name":"revokeRole","inputs":[{"name":"account","type":"address","internalType":"address"}],"outputs":[],"stateMutability":"nonpayable"},{"type":"function","name":"revokeRoles","inputs":[{"name":"accounts","type":"address[]","internalType":"address[]"}],"outputs":[],"stateMutability":"nonpayable"},{"type":"function","name":"setMinimumDeposit","inputs":[{"name":"market","type":"address","internalType":"address"},{"name":"newMinimumDeposit","type":"uint128","internalType":"uint128"}],"outputs":[],"stateMutability":"nonpayable"},{"type":"function","name":"setName","inputs":[{"name":"_name","type":"string","internalType":"string"}],"outputs":[],"stateMutability":"nonpayable"},{"type":"function","name":"temporaryExcessReserveRatio","inputs":[{"name":"","type":"address","internalType":"address"}],"outputs":[{"name":"originalAnnualInterestBips","type":"uint16","internalType":"uint16"},{"name":"originalReserveRatioBips","type":"uint16","internalType":"uint16"},{"name":"expiry","type":"uint32","internalType":"uint32"}],"stateMutability":"view"},{"type":"function","name":"unblockFromDeposits","inputs":[{"name":"account","type":"address","internalType":"address"}],"outputs":[],"stateMutability":"nonpayable"},{"type":"function","name":"version","inputs":[],"outputs":[{"name":"","type":"string","internalType":"string"}],"stateMutability":"pure"},{"type":"event","name":"AccountAccessGranted","inputs":[{"name":"providerAddress","type":"address","indexed":true,"internalType":"address"},{"name":"accountAddress","type":"address","indexed":true,"internalType":"address"},{"name":"credentialTimestamp","type":"uint32","indexed":false,"internalType":"uint32"}],"anonymous":false},{"type":"event","name":"AccountAccessRevoked","inputs":[{"name":"accountAddress","type":"address","indexed":true,"internalType":"address"}],"anonymous":false},{"type":"event","name":"AccountBlockedFromDeposits","inputs":[{"name":"accountAddress","type":"address","indexed":true,"internalType":"address"}],"anonymous":false},{"type":"event","name":"AccountMadeFirstDeposit","inputs":[{"name":"market","type":"address","indexed":true,"internalType":"address"},{"name":"accountAddress","type":"address","indexed":true,"internalType":"address"}],"anonymous":false},{"type":"event","name":"AccountUnblockedFromDeposits","inputs":[{"name":"accountAddress","type":"address","indexed":true,"internalType":"address"}],"anonymous":false},{"type":"event","name":"MinimumDepositUpdated","inputs":[{"name":"market","type":"address","indexed":false,"internalType":"address"},{"name":"newMinimumDeposit","type":"uint128","indexed":false,"internalType":"uint128"}],"anonymous":false},{"type":"event","name":"NameUpdated","inputs":[{"name":"name","type":"string","indexed":false,"internalType":"string"}],"anonymous":false},{"type":"event","name":"RoleProviderAdded","inputs":[{"name":"providerAddress","type":"address","indexed":true,"internalType":"address"},{"name":"timeToLive","type":"uint32","indexed":false,"internalType":"uint32"},{"name":"pullProviderIndex","type":"uint24","indexed":false,"internalType":"uint24"},{"name":"pushProviderIndex","type":"uint24","indexed":false,"internalType":"uint24"}],"anonymous":false},{"type":"event","name":"RoleProviderRemoved","inputs":[{"name":"providerAddress","type":"address","indexed":true,"internalType":"address"},{"name":"pullProviderIndex","type":"uint24","indexed":false,"internalType":"uint24"},{"name":"pushProviderIndex","type":"uint24","indexed":false,"internalType":"uint24"}],"anonymous":false},{"type":"event","name":"RoleProviderUpdated","inputs":[{"name":"providerAddress","type":"address","indexed":true,"internalType":"address"},{"name":"timeToLive","type":"uint32","indexed":false,"internalType":"uint32"},{"name":"pullProviderIndex","type":"uint24","indexed":false,"internalType":"uint24"},{"name":"pushProviderIndex","type":"uint24","indexed":false,"internalType":"uint24"}],"anonymous":false},{"type":"event","name":"TemporaryExcessReserveRatioActivated","inputs":[{"name":"market","type":"address","indexed":true,"internalType":"address"},{"name":"originalReserveRatioBips","type":"uint256","indexed":false,"internalType":"uint256"},{"name":"temporaryReserveRatioBips","type":"uint256","indexed":false,"internalType":"uint256"},{"name":"temporaryReserveRatioExpiry","type":"uint256","indexed":false,"internalType":"uint256"}],"anonymous":false},{"type":"event","name":"TemporaryExcessReserveRatioCanceled","inputs":[{"name":"market","type":"address","indexed":true,"internalType":"address"}],"anonymous":false},{"type":"event","name":"TemporaryExcessReserveRatioExpired","inputs":[{"name":"market","type":"address","indexed":true,"internalType":"address"}],"anonymous":false},{"type":"event","name":"TemporaryExcessReserveRatioUpdated","inputs":[{"name":"market","type":"address","indexed":true,"internalType":"address"},{"name":"originalReserveRatioBips","type":"uint256","indexed":false,"internalType":"uint256"},{"name":"temporaryReserveRatioBips","type":"uint256","indexed":false,"internalType":"uint256"},{"name":"temporaryReserveRatioExpiry","type":"uint256","indexed":false,"internalType":"uint256"}],"anonymous":false},{"type":"error","name":"AnnualInterestBipsOutOfBounds","inputs":[]},{"type":"error","name":"CallerNotBorrower","inputs":[]},{"type":"error","name":"CallerNotFactory","inputs":[]},{"type":"error","name":"CreateRoleProviderFailed","inputs":[]},{"type":"error","name":"DelinquencyFeeBipsOutOfBounds","inputs":[]},{"type":"error","name":"DelinquencyGracePeriodOutOfBounds","inputs":[]},{"type":"error","name":"DepositBelowMinimum","inputs":[]},{"type":"error","name":"GrantedCredentialExpired","inputs":[]},{"type":"error","name":"InvalidArrayLength","inputs":[]},{"type":"error","name":"InvalidCredentialReturned","inputs":[]},{"type":"error","name":"NotApprovedLender","inputs":[]},{"type":"error","name":"NotHookedMarket","inputs":[]},{"type":"error","name":"ProviderCanNotReplaceCredential","inputs":[]},{"type":"error","name":"ProviderCanNotRevokeCredential","inputs":[]},{"type":"error","name":"ProviderNotFound","inputs":[]},{"type":"error","name":"ReserveRatioBipsOutOfBounds","inputs":[]},{"type":"error","name":"TransfersDisabled","inputs":[]},{"type":"error","name":"WithdrawalBatchDurationOutOfBounds","inputs":[]}],"bytecode":{"object":"0x60e0604090808252346103b4576141a7803803809161001e82856105cb565b833981019082818303126103b457610035816105ee565b6020828101516001600160401b0394919391908581116103b4576100599201610647565b918160805261008f67ffffff0000000001600160e01b031983871b1760018060a01b038094165f526005835280875f205561068c565b3360a0526240d00060c052825180610118575b8551613842908161092582396080518181816105e9015281816107ae01528181610cae01528181610ff3015281816110a10152818161121a015281816117e701528181611a2301528181611d450152611f85015260a0518181816119ae0152611f51015260c05181818161106901526120520152f35b83018181019382818303126103b45782810151908682116103b45701936080858303126103b457865160808101818110888211176104f8578852838601518781116103b457860182603f820112156103b45782818a8761017b9401519101610602565b81526101888887016105ee565b9184820192835260609660608101518981116103b457810182603f820112156103b457868101516101b881610664565b996101c58d519b8c6105cb565b818b528c898c019260051b840101928584116103b4578c8e8201935b85851061054d575050505050508983019788526080810151908982116103b4570181603f820112156103b457858101519061021b82610664565b956102288c5197886105cb565b8287528b8888019360061b8301019384116103b45791908b01915b83831061050c5750505050606081019283525180519687116104f8575f54926001978885811c951680156104ee575b868610146104da578892601f95601f811161048b575b508690601f8311600114610425575f91908361041a575b50505f19600383901b1c191690831b175f55859291905b5f825b6103cf575b505050511692836102d0575b506100a2565b5f969594855b6102e4575b508596506102ca565b805180518910156103c957886102f9916106ec565b51978463ffffffff8a51169901518851906314f22bb960e11b8252868260049282848301528181518060248301528085604494018484015e5f8382840101528a601f1991011681010301815f8c5af19182156103bf575f92610384575b508482161561037657509061036e88999a8993610700565b0197966102d6565b895163228e729160e01b8152fd5b9091508681813d83116103b8575b61039c81836105cb565b810103126103b4576103ad906105ee565b905f610356565b5f80fd5b503d610392565b8a513d5f823e3d90fd5b506102db565b908092939450518781518310156104115750906104056103f08286946106ec565b5163ffffffff898b8351169201511690610700565b019082918794936102b9565b949392506102be565b015190505f8061029f565b90601f198316915f8052885f20925f5b8a828210610475575050908487959493921061045d575b505050811b015f55908592916102b6565b01515f1960f88460031b161c191690555f808061044c565b8385015186558e98909501949384019301610435565b90919293505f8052865f20601f840160051c8101918885106104d0575b90601f8c96959493920160051c01905b8181106104c55750610288565b5f81558b95016104b8565b90915081906104a8565b634e487b7160e01b5f52602260045260245ffd5b94607f1694610272565b634e487b7160e01b5f52604160045260245ffd5b8b8884830301126103b4578b8881938251610526816105b0565b61052f876105ee565b815261053c83880161067b565b838201528152019301929150610243565b84519182116103b4578f91830191601f19838d0301126103b4578f908f825190610576826105b0565b61058184860161067b565b8252868501519081116103b4578a8f959461059f9287960101610647565b838201528152019301928d906101e1565b604081019081106001600160401b038211176104f857604052565b601f909101601f19168101906001600160401b038211908210176104f857604052565b51906001600160a01b03821682036103b457565b9192916001600160401b0382116104f8576040519161062b601f8201601f1916602001846105cb565b8294818452818301116103b4578281602093845f96015e010152565b9080601f830112156103b457815161066192602001610602565b90565b6001600160401b0381116104f85760051b60200190565b519063ffffffff821682036103b457565b600454680100000000000000008110156104f85760018101806004558110156106d85760045f527f8a35acfbc15ff81a39ae7d344fd709f28e8600b4aa8c65c6b64bfe7fe36bd19b0155565b634e487b7160e01b5f52603260045260245ffd5b80518210156106d85760209160051b010190565b9060018060a01b03821690815f52602060058152604092835f205480155f146108675750835163256909f160e01b8152948286600481855afa95861561085d575f96610825575b5085156108155760035462ffffff908116915b8160101b8360281b1790871b8660e01b1717965f146107f05760035491680100000000000000008310156104f85760018301806003558310156106d8576005956107e45f80516020614167833981519152938a879660035f52895f2001555b89519384938491604091949363ffffffff606085019616845262ffffff809216602085015216910152565b0390a25b5f52525f2055565b82916005956107e45f80516020614167833981519152936108108b61068c565b6107b9565b62ffffff9081600454169061075a565b9095508281813d8311610856575b61083d81836105cb565b810103126103b4575180151581036103b457945f610747565b503d610833565b85513d5f823e3d90fd5b6001600160e01b031660e084901b179450602885901c62ffffff9081169390601087901c81169085146108f3576003548510156106d85760059483926108eb5f805160206141878339815191529360035f528a84895f20015589519384938491604091949363ffffffff606085019616845262ffffff809216602085015216910152565b0390a26107e8565b6004548110156106d85760059483926108eb5f805160206141878339815191529360045f528a81895f2001556107b956fe60806040526004361015610011575f80fd5b5f3560e01c806303473d8d1461027a578063064ed53b1461027557806306fdde03146102705780631c4b36941461026b57806322a4a19f1461026657806328fd0307146102615780632970403d1461025c5780632ccf4667146102575780633521cccc1461025257806336c892141461024d57806354fd4d50146102485780635aeb713f146102435780636b2b369b1461023e5780636d1587a61461023957806379502c55146102345780637df1f1b91461022f57806380e52e3f1461022a57806383d9e1eb146101ee578063849da129146101ee57806387927767146102255780638adfe0f8146102205780638b3ce9b31461021b5780638f8ef419146102165780639d2a76fe146102115780639ecc64e61461020c578063a018f90e14610207578063a11ef06714610202578063a9ff2dbf146101fd578063aa948689146101f8578063b037096d146101f3578063b1cfda0d146101ee578063bfd269be146101e9578063c45a0155146101e4578063c47f0027146101df578063c888fb15146101da578063cc452642146101d5578063e5ef8405146101d0578063ea5b13bd146101cb5763feb368e2146101c6575f80fd5b611d7c565b611d35565b611cfa565b611c87565b611bc7565b6119dd565b611999565b61195e565b6110f5565b61189f565b6117c0565b61175c565b6116cd565b6114ea565b6114af565b611403565b61131d565b6112d3565b6111f3565b61116f565b6110d0565b61108c565b611052565b610fe2565b610f59565b610dcc565b610d6d565b610c4a565b610ade565b610a40565b6109a2565b6108e5565b61087a565b61077f565b6106a2565b6105ca565b6104ac565b61ffff81160361028b57565b5f80fd5b610144359061029d8261027f565b565b610164359061029d8261027f565b610184359061029d8261027f565b634e487b7160e01b5f52604160045260245ffd5b60a081019081106001600160401b038211176102ea57604052565b6102bb565b608081019081106001600160401b038211176102ea57604052565b61014081019081106001600160401b038211176102ea57604052565b90601f801991011681019081106001600160401b038211176102ea57604052565b604051906101c082018281106001600160401b038211176102ea57604052565b6040519061029d826102cf565b8015150361028b57565b6024359061029d82610374565b610104359061029d82610374565b604435906001600160801b038216820361028b57565b606435906001600160801b038216820361028b57565b608435906001600160801b038216820361028b57565b602435906001600160801b038216820361028b57565b60a435906cffffffffffffffffffffffffff8216820361028b57565b60c435906cffffffffffffffffffffffffff8216820361028b57565b63ffffffff81160361028b57565b60e4359061029d82610429565b610124359061029d82610429565b6101c4359061029d82610429565b6001600160701b0381160361028b57565b6101a4359061029d82610460565b9181601f8401121561028b578235916001600160401b03831161028b576020838186019501011161028b57565b3461028b5761020036600319011261028b576104c960043561027f565b6101c036602319011261028b576104de610347565b6104e661037e565b81526104f0610399565b60208201526104fd6103af565b604082015261050a6103c5565b60608201526105176103f1565b608082015261052461040d565b60a0820152610531610437565b60c082015261053e61038b565b60e082015261054b610444565b61010082015261055961028f565b61012082015261056761029f565b6101408201526105756102ad565b610160820152610583610471565b6101808201526101a0610594610452565b9101526101e4356001600160401b03811161028b576105b790369060040161047f565b005b6001600160a01b0381160361028b57565b3461028b57602036600319011261028b576004356105e7816105b9565b7f00000000000000000000000000000000000000000000000000000000000000006001600160a01b03163303610620576105b790612369565b604051633c698d7960e01b8152600490fd5b90600182811c92168015610660575b602083101461064c57565b634e487b7160e01b5f52602260045260245ffd5b91607f1691610641565b805180835260209291819084018484015e5f828201840152601f01601f1916010190565b90602061069f92818152019061066a565b90565b3461028b575f36600319011261028b576040515f80546106c181610632565b8084529060209060019081811690811561075557506001146106fe575b6106fa856106ee81870382610326565b6040519182918261068e565b0390f35b5f80805293507f290decd9548b62a8d60345a988386fc84ba6bc95484008f6362f93160ef3e5635b838510610742575050505081016020016106ee826106fa6106de565b8054868601840152938201938101610726565b8695506106fa969350602092506106ee94915060ff191682840152151560051b82010192936106de565b3461028b57604036600319011261028b5760043561079c816105b9565b6107a46103db565b6001600160a01b037f0000000000000000000000000000000000000000000000000000000000000000811633036106205782165f52600760205260405f209160ff8354161561086857825472ffffffffffffffffffffffffffffffff0000001916601883901b6301000000600160981b0316179092557f4e39f53293455dca8fe1725b2dfcbe6abd2f44d777b7f2a7279526e17d7ebede91604080516001600160a01b0390921682526001600160801b03909216602082015290819081015b0390a1005b60405163b217907b60e01b8152600490fd5b3461028b57602036600319011261028b576106fa6108a260043561089d816105b9565b611e4d565b60405191829182919091606063ffffffff81608084019580511515855260018060a01b036020820151166020860152604081015115156040860152015116910152565b3461028b5760031960803682011261028b5760043590610904826105b9565b60243591610911836105b9565b604435906001600160401b039283831161028b5761014090833603011261028b5760643592831161028b576106fa9361095161095c94369060040161047f565b509260040191611f44565b6040519081529081906020820190565b6101c090604319011261028b57604490565b6101c090606319011261028b57606490565b6101c090608319011261028b57608490565b3461028b5761022036600319011261028b576109bf6004356105b9565b6109c76103db565b506109d13661096c565b50610204356001600160401b03811161028b576105b790369060040161047f565b608080918051151584526020810151151560208501526040810151151560408501526001600160801b03606082015116606085015201511515910152565b60a08101929161029d91906109f2565b3461028b57602036600319011261028b57600435610a5d816105b9565b610a6561213d565b5060018060a01b03165f5260076020526106fa60405f20610ad260ff60405192610a8e846102cf565b5481811615158452600881901c821615156020850152601081901c821615156040850152601881901c6001600160801b0316606085015260981c1615156080830152565b60405191829182610a30565b3461028b5761024036600319011261028b57600435610afc816105b9565b610b07602435610429565b610b103661097e565b50610224356001600160401b03811161028b57610b3190369060040161047f565b6001600160a01b038084165f9081526001602052604090819020905194939163ffffffff91610b5f876102ef565b549060ff8216151587528160081c16602087015260ff8160a81c161515604087015260b01c166060850152610bca610bc6610bbf610bad8660018060a01b03165f52600260205260405f2090565b335f9081526020919091526040902090565b5460ff1690565b1590565b9283610bee575b5050509050610bdc57005b60405163728522e760e11b8152600490fd5b610bc69350610bfc94612656565b805f8080610bd1565b9291926001600160401b0382116102ea5760405191610c2e601f8201601f191660200184610326565b82948184528183011161028b578281602093845f960137010152565b3461028b57606036600319011261028b57600435610c67816105b9565b602435610c7381610429565b6044356001600160401b03811161028b573660238201121561028b57610ca3903690602481600401359101610c05565b6001600160a01b03927f00000000000000000000000000000000000000000000000000000000000000008416330361062057610d0160209185935f6040519788809581946314f22bb960e11b8352886004840152602483019061066a565b0393165af1928315610d68575f93610d37575b50821615610d25576105b791613211565b60405163228e729160e01b8152600490fd5b610d5a91935060203d602011610d61575b610d528183610326565b810190612728565b915f610d14565b503d610d48565b61273d565b3461028b575f36600319011261028b5760405160408101908082106001600160401b038311176102ea576106fa91604052600d81526c4f70656e5465726d486f6f6b7360981b602082015260405191829160208352602083019061066a565b3461028b5761022036600319011261028b5760048035610deb816105b9565b610df43661096c565b90610204356001600160401b03811161028b57610e14903690850161047f565b335f9081526007602052604090209193909291610e3590612167565b612167565b92610e43610bc68551151590565b610f23576001600160a01b0383165f908152600160205260409020610e6c90611e05565b611e05565b91610e778351151590565b610f1257610e9a610e8e610180610ea293016121b9565b6001600160701b031690565b602435612748565b6001600160801b03610ebe60608701516001600160801b031690565b1611610f0157610ed5610edf916040968585612796565b9590940151151590565b831516610ef0576105b794506128c8565b60405163728522e760e11b81528590fd5b60405163c24b1b6160e01b81528690fd5b60405163728522e760e11b81528790fd5b60405163b217907b60e01b81528690fd5b604090600319011261028b57600435610f4c816105b9565b9060243561069f81610429565b3461028b57610f6736610f34565b335f52600560205260405f2054918215610f84576105b7926129e4565b60405163b1cd090360e01b8152600490fd5b90602060031983011261028b576004356001600160401b039283821161028b578060238301121561028b57816004013593841161028b5760248460051b8301011161028b576024019190565b3461028b57610ff036610f96565b907f00000000000000000000000000000000000000000000000000000000000000006001600160a01b03163303610620575f5b82811061102c57005b8061104c61103d60019386866121d7565b35611047816105b9565b612369565b01611023565b3461028b575f36600319011261028b5760206040517f00000000000000000000000000000000000000000000000000000000000000008152f35b3461028b575f36600319011261028b576040517f00000000000000000000000000000000000000000000000000000000000000006001600160a01b03168152602090f35b3461028b57602036600319011261028b576105b76004356110f0816105b9565b612af5565b3461028b5761020036600319011261028b576101c036602319011261028b576101e4356001600160401b03811161028b576105b790369060040161047f565b60209060206040818301928281528551809452019301915f5b82811061115b575050505090565b83518552938101939281019260010161114d565b3461028b575f36600319011261028b57604051806004549182815260208091019260045f527f8a35acfbc15ff81a39ae7d344fd709f28e8600b4aa8c65c6b64bfe7fe36bd19b915f905b8282106111dc576106fa856111d081890382610326565b60405191829182611134565b8354865294850194600193840193909101906111b9565b3461028b57602036600319011261028b57600435611210816105b9565b6001600160a01b037f000000000000000000000000000000000000000000000000000000000000000081163303610620578116805f52600560205260405f2054918215610f84576001600160a01b03165f90815260056020908152604080832092909255815162ffffff602886901c811680835260109690961c8116928201839052919391927fd40af841b3d79ec50752ce038e1ee39d243ed894aacf7c3b8f9a87b09ec8fc9791a282146112c957506105b790612d4c565b6105b79150612c47565b3461028b5761020036600319011261028b576112f06004356105b9565b6101c036602319011261028b576101e4356001600160401b03811161028b576105b790369060040161047f565b3461028b575f36600319011261028b57604051806003549182815260208091019260035f525f805160206137f6833981519152915f905b82821061136b576106fa856111d081890382610326565b835486529485019460019384019390910190611354565b6001600160401b0381116102ea5760051b60200190565b9080601f8301121561028b5760209082356113b381611382565b936113c16040519586610326565b81855260208086019260051b82010192831161028b57602001905b8282106113ea575050505090565b83809183356113f881610429565b8152019101906113dc565b3461028b57604036600319011261028b576001600160401b0360043581811161028b573660238201121561028b57806004013561143f81611382565b9161144d6040519384610326565b8183526020916024602085019160051b8301019136831161028b57602401905b828210611496576024358587821161028b576114906105b7923690600401611399565b9061220a565b83809183356114a4816105b9565b81520191019061146d565b3461028b5736600319016101e0811261028b576101c01361028b576101c4356001600160401b03811161028b576105b790369060040161047f565b3461028b5761026036600319011261028b57600461150881356105b9565b6115136024356105b9565b60443561151f816105b9565b61152836610990565b50610244356001600160401b03811161028b57611548903690840161047f565b335f9081526007602052604090209192909161156390612167565b91611571610bc68451151590565b61161f57608083015161160e576115b7610bc6610bbf336115a28660018060a01b03165f52600260205260405f2090565b9060018060a01b03165f5260205260405f2090565b6115bd57005b6001600160a01b0382165f9081526001602052604090206115dd90611e05565b906115e88251151590565b6115fd57610ed5610edf916020968585612796565b60405163728522e760e11b81528690fd5b604051638574adcf60e01b81528590fd5b60405163b217907b60e01b81528590fd5b815163ffffffff1681526101408101929161029d919060208181015163ffffffff169083015260408181015161ffff169083015260608181015161ffff169083015260808181015161ffff169083015260a08181015161ffff169083015260c08181015163ffffffff169083015260e08181015163ffffffff16908301526101008181015161ffff16908301526101209081015161ffff16910152565b3461028b575f36600319011261028b576040516116e98161030a565b5f60408281018290526080830182905260c0830182905261010083018290529082526276a70060208301526127106060830181905260a083018190526301e1338060e0840152610120830152519081906106fa9082611630565b6001600160a01b03165f90815260056020526040902090565b3461028b57604036600319011261028b57602060ff6117b4600435611780816105b9565b6024359061178d826105b9565b60018060a01b03165f526002845260405f209060018060a01b03165f5260205260405f2090565b54166040519015158152f35b3461028b57602036600319011261028b576004356117dd816105b9565b6001600160a01b037f000000000000000000000000000000000000000000000000000000000000000081163303610620578061187461187992841693845f52600160205263ffffffff60405f209360405194611838866102ef565b54908160081c16602086015260ff8160a81c161515604086015260b01c1660608401525f835260018060a01b03165f52600160205260405f2090565b612287565b7f7201a4017f7e2ac3b7164275daef1150d8fc64543b3f7196293722db50bc7fa05f80a2005b3461028b57602036600319011261028b576106fa6004356118bf816105b9565b6118c7611dd6565b5060018060a01b038091165f52600160205263ffffffff60405f2091604051926118f0846102ef565b549060ff8216151584528160081c16602084015260ff8160a81c161515604084015260b01c16606082015260405191829182919091606063ffffffff81608084019580511515855260018060a01b036020820151166020860152604081015115156040860152015116910152565b3461028b57602036600319011261028b5760043561197b816105b9565b60018060a01b03165f526005602052602060405f2054604051908152f35b3461028b575f36600319011261028b576040517f00000000000000000000000000000000000000000000000000000000000000006001600160a01b03168152602090f35b3461028b5760208060031936011261028b576001600160401b0360043581811161028b573660238201121561028b57611a20903690602481600401359101610c05565b917f00000000000000000000000000000000000000000000000000000000000000006001600160a01b031633036106205782519182116102ea57611a6d82611a685f54610632565b6122fd565b602090601f8311600114611ada575091611ac182610863937f9f7688a97f1ac51fe03bac18af18d6810f9f11f0db08c59b1938a9ac825ef744955f91611acf575b508160011b915f199060031b1c19161790565b5f556040519182918261068e565b90508301515f611aae565b5f805290601f1983167f290decd9548b62a8d60345a988386fc84ba6bc95484008f6362f93160ef3e563925f905b828210611b67575050927f9f7688a97f1ac51fe03bac18af18d6810f9f11f0db08c59b1938a9ac825ef7449492600192826108639610611b4f575b5050811b015f556106ee565b8401515f1960f88460031b161c191690555f80611b43565b80600185968294968a01518155019501930190611b08565b60209060206040818301928281528551809452019301915f5b828110611ba6575050505090565b909192938260a082611bbb60019489516109f2565b01950193929101611b98565b3461028b57611bd536610f96565b90611bdf82611382565b91611bed6040519384610326565b808352601f19611bfc82611382565b015f5b818110611c705750505f5b818110611c1f57604051806106fa8682611b7f565b80611c54610e30611c3b611c3660019587896121d7565b6121ec565b6001600160a01b03165f90815260076020526040902090565b611c5e82876121f6565b52611c6981866121f6565b5001611c0a565b602090611c7b61213d565b82828801015201611bff565b3461028b5761022036600319011261028b57600435611ca58161027f565b611cb060243561027f565b611cb93661096c565b61020435906001600160401b03821161028b57604092611ce0611ce793369060040161047f565b5050612e8f565b825161ffff928316815291166020820152f35b3461028b57611d0836610f96565b905f5b828110611d1457005b80611d2f611d2560019386866121d7565b356110f0816105b9565b01611d0b565b3461028b57611d4336610f34565b7f00000000000000000000000000000000000000000000000000000000000000006001600160a01b03163303610620576105b791613211565b3461028b57602036600319011261028b57600435611d99816105b9565b60018060a01b03165f526006602052606060405f205463ffffffff61ffff916040519280821684528160101c16602084015260201c166040820152f35b60405190611de3826102ef565b5f6060838281528260208201528260408201520152565b9063ffffffff169052565b90604051611e12816102ef565b915460ff80821615158452600882901c6001600160a01b0316602085015260a882901c161515604084015260b01c63ffffffff166060830152565b90611e56611dd6565b506001600160a01b0382165f908152600160205260409020611e7790611e05565b915f1963ffffffff611e90606086015163ffffffff1690565b16611ea6575b611ea09184612560565b61029d57565b6020840151611ebd906001600160a01b0316611743565b5480611ee8575b50611ea091611ee18560205f918260408201528260608201520152565b9150611e96565b606085015163fffffffe1963ffffffff91821660e084901c019081019082110201421115611f3f57604085015115611ec4579050611f2782828661243d565b611f3b5760281c62ffffff16611ea0611ec4565b5050565b505050565b9092906001600160a01b037f00000000000000000000000000000000000000000000000000000000000000008116330361212b57611f818461343d565b50807f000000000000000000000000000000000000000000000000000000000000000016911603610620576120b661209b61012061069f94013592611fc5816134f4565b93612028611fd1610367565b6001815295605c83901c60011615156020880152605f83901c600116151560408801526001600160801b03166060870190815261201b6001602060808a0196013516859015159052565b516001600160801b031690565b916001600160801b0383166120d1575b5190915015155b6120c6575b600181605e1c166120bb575b7f000000000000000000000000000000000000000000000000000000000000000061ffff60501b908060101c908360501c161760501b16906bffffffffffffffffffffffff19161790565b6001600160a01b039094165f90815260076020526040902090565b6125c2565b6009605c1b17612050565b6001605c1b17612044565b604080516001600160a01b038a1681526001600160801b039490941660208501526001605f1b929092179261203f927f4e39f53293455dca8fe1725b2dfcbe6abd2f44d777b7f2a7279526e17d7ebede91a1829150612038565b60405163a84178ab60e01b8152600490fd5b6040519061214a826102cf565b5f6080838281528260208201528260408201528260608201520152565b90604051612174816102cf565b608060ff82945481811615158452818160081c1615156020850152818160101c16151560408501526001600160801b038160181c16606085015260981c161515910152565b3561069f81610460565b634e487b7160e01b5f52603260045260245ffd5b91908110156121e75760051b0190565b6121c3565b3561069f816105b9565b80518210156121e75760209160051b010190565b335f908152600560205260409020549291908315610f84578051825103612275575f5b815181101561226e576001906122686001600160a01b0361224e83866121f6565b511663ffffffff61225f84886121f6565b511690886129e4565b0161222d565b5050509050565b604051634ec4810560e11b8152600490fd5b63ffffffff606061029d936122ab81511515859060ff801983541691151516179055565b6020810151845460408301519390920151610100600160d01b031990921660089190911b610100600160a81b03161791151560a81b60ff60a81b1691909117911660b01b63ffffffff60b01b16179055565b601f8111612309575050565b5f80527f290decd9548b62a8d60345a988386fc84ba6bc95484008f6362f93160ef3e563906020601f840160051c8301931061235f575b601f0160051c01905b818110612354575050565b5f8155600101612349565b9091508190612340565b6123e860018060a01b0361187481841693845f52600160205263ffffffff60405f209360405194612399866102ef565b549060ff8216151586528160081c16602086015260ff8160a81c161515604086015260b01c1680606085015261240e575b600183525b6001600160a01b03165f90815260016020526040902090565b7f25b0d1830e0d487402e2c828de3ccbc9d16bd911aaec75fbba1bffd32657fad45f80a2565b6124268360205f918260408201528260608201520152565b845f805160206138168339815191525f80a26123ca565b63ccdad14b5f908152602093845293929091908490816024601c604086901c6001600160a01b03165afa601f3d11166124fb575b63ffffffff1691821580156124f2575b6124ea5763ffffffff60e083901c840181811063fffffffe1990910102015b4211156124ac57505050565b63ffffffff9092166060830152604081811c6001600160a01b0316602084015260289190911c62ffffff90811614159101529050600190565b600190565b505f93505050565b50428311612481565b505f5163ffffffff16612471565b6004548110156121e75760045f527f8a35acfbc15ff81a39ae7d344fd709f28e8600b4aa8c65c6b64bfe7fe36bd19b01905f90565b6003548110156121e75760035f525f805160206137f683398151915201905f90565b9291905f9360038054935f5b85811061257b57505050505050565b8181146125ba57825f526125a085825f805160206137f683398151915201548661243d565b6125ae576001905b0161256c565b50600196505050505050565b6001906125a8565b906080906125df81511515849060ff801983541691151516179055565b602081015183546040830151606084015172ffffffffffffffffffffffffffffffffffff001990921692151560081b61ff00169290921791151560101b62ff0000169190911760189190911b6301000000600160981b03161783550151815460ff60981b191690151560981b60ff60981b16179055565b939261266491928386612796565b81819592956126b5575b506001600160a01b0383165f90815260026020526040902061268f90610bad565b50612698575050565b61187461029d9260018060a01b03165f52600160205260405f2090565b156127085760018060a01b03806020840151167fa04eb478c9c6a13a6de14b7eb31b1b629511e804c3cfef31bd549accd4b15524602063ffffffff60608701511693604051948552871693a35b5f61266e565b6001600160a01b0383165f805160206138168339815191525f80a2612702565b9081602091031261028b575161069f816105b9565b6040513d5f823e3d90fd5b816b019d971e4fe8401e74000000190481111582151715612784576b033b2e3c9fd0803ce800000091026b019d971e4fe8401e74000000010490565b634e487b715f5260116020526024601cfd5b90929391935f945f94606084019163ffffffff938484511615155f146128c15760208601516127cd906001600160a01b0316611743565b54905b811515928380612897575b61288657906127eb918589613509565b612877575f19918061286a575b61283b575b506128089185612560565b61282f5751166128155750565b6124e591925060205f918260408201528260608201520152565b50600194508493505050565b905061284882828761243d565b61285c5760281c62ffffff166128086127fd565b506001965086955050505050565b50604086015115156127f8565b50600197508796505050505050565b50600199505f985050505050505050565b50606088015163fffffffe1963ffffffff91821660e086901c0190810190821102014211156127db565b5f906127d0565b91600190849294612968575b6128f7610bc6610bbf610bad8860018060a01b03165f52600260205260405f2090565b1616612906575b612698575050565b612934612927336115a28660018060a01b03165f52600260205260405f2090565b805460ff19166001179055565b6001600160a01b038316337f19c0c79c8d3a2c3300023a426c471dbf37ef4602c3c143fe049cc9e9f989165d5f80a36128fe565b80156129c657602084810151606086015160405163ffffffff909116815260a085901b8590038881169392166001600160a01b0316917fa04eb478c9c6a13a6de14b7eb31b1b629511e804c3cfef31bd549accd4b1552491a36128d4565b818060a01b0385165f805160206138168339815191525f80a26128d4565b9190612a03610e678260018060a01b03165f52600160205260405f2090565b9263ffffffff60e082901c8482160181811063fffffffe1990910102810190428210612ae3576060860190815116612a41575b505061029d93613575565b602086018051909190612a5c906001600160a01b0316611743565b549081612a6b575b5050612a36565b612ab591612a8c612a83612aa7935163ffffffff1690565b63ffffffff1690565b9060e01c0163ffffffff908163fffffffe1982019110020190565b91516001600160a01b031690565b6001600160a01b0316331491111715612ad1575f808080612a64565b60405163601fd52b60e11b8152600490fd5b604051635a922a2f60e01b8152600490fd5b60018060a01b039081811691825f52600160205260405f209063ffffffff60405192612b20846102ef565b549160ff8316151584528260081c169182602085015260ff8160a81c161515604085015260b01c1660608301523303612b8557611874612b72926123cf8360205f918260408201528260608201520152565b5f805160206138168339815191525f80a2565b604051633a364f3d60e01b8152600490fd5b634e487b7160e01b5f52601160045260245ffd5b6004548015612bef575f19810190808210156121e7577f8a35acfbc15ff81a39ae7d344fd709f28e8600b4aa8c65c6b64bfe7fe36bd19a5f91600483520155600455565b634e487b7160e01b5f52603160045260245ffd5b6003548015612bef575f19810190808210156121e7577fc2575a0e9e593c00f959f8c92f12db2869c3395a3b0502d05e2516446f71f85a5f91600383520155600355565b6004545f198101818111612d47578062ffffff841614612d3c5760045411156121e75760045f527f8a35acfbc15ff81a39ae7d344fd709f28e8600b4aa8c65c6b64bfe7fe36bd19a015464ffffff00001916601082901b17907f77f7914b3d5f909ba079a3cfd67cdff25863760515f339affe0f2313d356386290612ce783612ccf83612509565b90919082549060031b91821b915f19901b1916179055565b612cef612bab565b604083811c6001600160a01b03165f8181526005602052919091209093908190556040805160e09290921c825262ffffff602083018190529092169181019190915280606081015b0390a2565b50505061029d612bab565b612b97565b6003545f198101818111612d47578062ffffff841614612e285760035411156121e75760035f527fc2575a0e9e593c00f959f8c92f12db2869c3395a3b0502d05e2516446f71f85a015467ffffff00000000001916602882901b17907f77f7914b3d5f909ba079a3cfd67cdff25863760515f339affe0f2313d356386290612dd783612ccf8361253e565b612ddf612c03565b604083811c6001600160a01b03165f8181526005602052919091209093908190556040805160e09290921c825262ffffff92831660208301528101919091528060608101612d37565b50505061029d612c03565b3561069f8161027f565b90604051606081018181106001600160401b038211176102ea57604052604063ffffffff82945461ffff80821685528160101c16602085015260201c16910152565b90621275008201809211612d4757565b91610160820190612e9f82612e33565b918461ffff9485821692612eb284613682565b335f908152600660205260409020612ec990612e3d565b92604084019163ffffffff9182612ee4855163ffffffff1690565b16806130cf575b5050612efe612a83845163ffffffff1690565b6130b957612f18612f126101408601612e33565b91612e33565b915b898216998a8810612f33575b5050505050505050909150565b612fd89697995061302e989a612f4c918516908b6136bf565b98612f59612a8342612e7f565b95612f68865163ffffffff1690565b92831661303c5750506040805161ffff85811682528b16602082015263ffffffff871691810191909152611dfa9392612fcd92509033907f16f9a191ecd86fd97f0ddc3dbed8fdc4d1e0d0644b93db99f8a577f52b0dec4390606090a261ffff168752565b61ffff166020860152565b335f9081526006602052604090208151815460208085015160409095015167ffffffff00000000911b1663ffff000060109590951b9490941661ffff90921667ffffffffffffffff199091161717919091179055565b815f80808080808080612f26565b613057919293506101406130509101612e33565b61ffff1690565b11156130b1575b506040805161ffff9283168152918816602083015263ffffffff84169082015233907ff813e17e21ecee3918b028c4e02f15f1fdd045f9f63183b6ab4f42c23c97b32190606090a29063ffffffff169052565b92505f61305e565b50835161ffff16602085015161ffff1691612f1a565b6130df6130506101408801612e33565b88101590421015166130f6613050885161ffff1690565b881015811715612eeb57959650995050505050602092945061069f93505f1461315757337f145c143a918203cecb36063a1d70980ebb42b5b00490c5510d79c9d7717b77bb5f80a25b335f90815260066020526040812055015161ffff1690565b337f2045c970b5c1a8f9b69dd33e70a1f9d07b9021e408716d5b8daeb83a776ea05f5f80a261313f565b9081602091031261028b575161069f81610374565b600454600160401b8110156102ea5760018101806004558110156121e75760045f527f8a35acfbc15ff81a39ae7d344fd709f28e8600b4aa8c65c6b64bfe7fe36bd19b0155565b600354600160401b8110156102ea5760018101806003558110156121e75760035f525f805160206137f68339815191520155565b6001600160a01b0381165f9081526005602052604090205480613384575060405163256909f160e01b8152906001600160a01b038116602083600481845afa928315610d68575f9361332f575b507f3c4db27692774915639231cf12808d8ee5f42ca0bd208df85fdcd82e5f2ebe056133089394855f146133195760035462ffffff16906132ec62ffffff5b8060101b8460281b178760401b8460e01b1717985f1461330b576132c0896131dd565b6040519384938491604091949363ffffffff606085019616845262ffffff809216602085015216910152565b0390a26001600160a01b03165f90815260056020526040902090565b55565b61331489613196565b6132c0565b60045462ffffff16906132ec62ffffff9261329d565b61330893506133767f3c4db27692774915639231cf12808d8ee5f42ca0bd208df85fdcd82e5f2ebe059160203d60201161337d575b61336e8183610326565b810190613181565b935061325e565b503d613364565b6001600160e01b031660e083901b179161330891907f77f7914b3d5f909ba079a3cfd67cdff25863760515f339affe0f2313d3563862601085901c62ffffff90811690602887901c811690811461342b576133e287612ccf8361253e565b6040805163ffffffff95909516855262ffffff91821660208601529116908301526001600160a01b03831691606090a26001600160a01b03165f90815260056020526040902090565b61343887612ccf84612509565b6133e2565b905f9160808101359061344f8261027f565b60a081013561345d8161027f565b60c08201359161346c83610429565b61010060e08201359161347e8361027f565b01359161348a83610429565b612710908161ffff809716116134e5578516116134d6576301e1338063ffffffff809416116134c75761029d936134c1911661368c565b166136a5565b63772de36160e01b5f5260045ffd5b6367e9111d60e11b5f5260045ffd5b633a73673b60e11b5f5260045ffd5b356001600160801b0381168091036127845790565b5f9493919290916014810361355957503560601c5f52600560205260405f20549081151580613547575b61353c57505050565b61069f93945061243d565b5062ffffff808360281c161415613533565b9290916014841161356a5750505050565b61069f949550613736565b63ffffffff84166060820152604082811c6001600160a01b03166020830152602883901c62ffffff90811614159082015292917fa04eb478c9c6a13a6de14b7eb31b1b629511e804c3cfef31bd549accd4b155249161366a60018060a01b0380931695865f52600160205261364a606060405f209261360381511515859060ff801983541691151516179055565b602081015184546040830151610100600160b01b031990911660089290921b610100600160a81b03169190911790151560a81b60ff60a81b16178455015163ffffffff1690565b815463ffffffff60b01b191660b09190911b63ffffffff60b01b16179055565b6040805163ffffffff9590951685521c1691602090a3565b612710106134e557565b6127101061369657565b63c7f3bbb960e01b5f5260045ffd5b6276a700106136b057565b632136673760e01b5f5260045ffd5b81039190808311612d475761271092805f1904841181021582021561372957830204916109c483116136f5575061ffff91501690565b600183901b929091906001600160ff1b03811603612d475782828161069f9561305095039110020190818103908210020190565b63ad251c275f526004601cfd5b823560601c5f818152600560205260408120909695939190549384156137ea57915f9182601c6050602096839a604051966354560cb288528988015260408088015260146013198301918260608a0152016080880137019301915af16137c2575b821580156124f2576124ea5763ffffffff60e083901c840181811063fffffffe1990910102016124a0565b915060203d106001146137dd5763ffffffff5f511691613797565b63c177c7005f526004601cfd5b505f9650505050505056fec2575a0e9e593c00f959f8c92f12db2869c3395a3b0502d05e2516446f71f85b47695aa96e09db0d106b9bd402979d6aff7e51ada06ec6fe014e5eeadd8c1dc0a164736f6c6343000819000a3c4db27692774915639231cf12808d8ee5f42ca0bd208df85fdcd82e5f2ebe0577f7914b3d5f909ba079a3cfd67cdff25863760515f339affe0f2313d3563862","linkReferences":{}},"methodIdentifiers":{"addRoleProvider(address,uint32)":"ea5b13bd","blockFromDeposits(address)":"064ed53b","blockFromDeposits(address[])":"6d1587a6","borrower()":"7df1f1b9","config()":"79502c55","createRoleProvider(address,uint32,bytes)":"36c89214","factory()":"c45a0155","getHookedMarket(address)":"2ccf4667","getHookedMarkets(address[])":"c888fb15","getLenderStatus(address)":"22a4a19f","getParameterConstraints()":"a11ef067","getPreviousLenderStatus(address)":"b037096d","getPullProviders()":"8f8ef419","getPushProviders()":"87927767","getRoleProvider(address)":"bfd269be","grantRole(address,uint32)":"6b2b369b","grantRoles(address[],uint32[])":"9d2a76fe","isKnownLenderOnMarket(address,address)":"a9ff2dbf","name()":"06fdde03","onBorrow(uint256,(bool,uint128,uint128,uint128,uint104,uint104,uint32,bool,uint32,uint16,uint16,uint16,uint112,uint32),bytes)":"b1cfda0d","onCloseMarket((bool,uint128,uint128,uint128,uint104,uint104,uint32,bool,uint32,uint16,uint16,uint16,uint112,uint32),bytes)":"9ecc64e6","onCreateMarket(address,address,(address,string,string,uint128,uint16,uint16,uint32,uint16,uint32,uint256),bytes)":"28fd0307","onDeposit(address,uint256,(bool,uint128,uint128,uint128,uint104,uint104,uint32,bool,uint32,uint16,uint16,uint16,uint112,uint32),bytes)":"5aeb713f","onExecuteWithdrawal(address,uint128,(bool,uint128,uint128,uint128,uint104,uint104,uint32,bool,uint32,uint16,uint16,uint16,uint112,uint32),bytes)":"2970403d","onNukeFromOrbit(address,(bool,uint128,uint128,uint128,uint104,uint104,uint32,bool,uint32,uint16,uint16,uint16,uint112,uint32),bytes)":"8b3ce9b3","onQueueWithdrawal(address,uint32,uint256,(bool,uint128,uint128,uint128,uint104,uint104,uint32,bool,uint32,uint16,uint16,uint16,uint112,uint32),bytes)":"3521cccc","onRepay(uint256,(bool,uint128,uint128,uint128,uint104,uint104,uint32,bool,uint32,uint16,uint16,uint16,uint112,uint32),bytes)":"83d9e1eb","onSetAnnualInterestAndReserveRatioBips(uint16,uint16,(bool,uint128,uint128,uint128,uint104,uint104,uint32,bool,uint32,uint16,uint16,uint16,uint112,uint32),bytes)":"cc452642","onSetMaxTotalSupply(uint256,(bool,uint128,uint128,uint128,uint104,uint104,uint32,bool,uint32,uint16,uint16,uint16,uint112,uint32),bytes)":"849da129","onSetProtocolFeeBips(uint16,(bool,uint128,uint128,uint128,uint104,uint104,uint32,bool,uint32,uint16,uint16,uint16,uint112,uint32),bytes)":"03473d8d","onTransfer(address,address,address,uint256,(bool,uint128,uint128,uint128,uint104,uint104,uint32,bool,uint32,uint16,uint16,uint16,uint112,uint32),bytes)":"a018f90e","removeRoleProvider(address)":"8adfe0f8","revokeRole(address)":"80e52e3f","revokeRoles(address[])":"e5ef8405","setMinimumDeposit(address,uint128)":"1c4b3694","setName(string)":"c47f0027","temporaryExcessReserveRatio(address)":"feb368e2","unblockFromDeposits(address)":"aa948689","version()":"54fd4d50"},"id":58}