{"abi":[{"type":"constructor","inputs":[{"name":"_archController","type":"address","internalType":"address"},{"name":"_hooksFactory","type":"address","internalType":"address"}],"stateMutability":"nonpayable"},{"type":"function","name":"archController","inputs":[],"outputs":[{"name":"","type":"address","internalType":"contract WildcatArchController"}],"stateMutability":"view"},{"type":"function","name":"getAllHooksTemplatesForBorrower","inputs":[{"name":"borrower","type":"address","internalType":"address"}],"outputs":[{"name":"data","type":"tuple[]","internalType":"struct HooksTemplateData[]","components":[{"name":"hooksTemplate","type":"address","internalType":"address"},{"name":"fees","type":"tuple","internalType":"struct FeeConfiguration","components":[{"name":"feeRecipient","type":"address","internalType":"address"},{"name":"protocolFeeBips","type":"uint16","internalType":"uint16"},{"name":"originationFeeToken","type":"tuple","internalType":"struct TokenMetadata","components":[{"name":"token","type":"address","internalType":"address"},{"name":"name","type":"string","internalType":"string"},{"name":"symbol","type":"string","internalType":"string"},{"name":"decimals","type":"uint256","internalType":"uint256"},{"name":"isMock","type":"bool","internalType":"bool"}]},{"name":"originationFeeAmount","type":"uint256","internalType":"uint256"},{"name":"borrowerOriginationFeeBalance","type":"uint256","internalType":"uint256"},{"name":"borrowerOriginationFeeApproval","type":"uint256","internalType":"uint256"}]},{"name":"exists","type":"bool","internalType":"bool"},{"name":"enabled","type":"bool","internalType":"bool"},{"name":"index","type":"uint24","internalType":"uint24"},{"name":"name","type":"string","internalType":"string"},{"name":"totalMarkets","type":"uint256","internalType":"uint256"}]}],"stateMutability":"view"},{"type":"function","name":"getAllMarketsDataForHooksTemplate","inputs":[{"name":"hooksTemplate","type":"address","internalType":"address"}],"outputs":[{"name":"data","type":"tuple[]","internalType":"struct MarketData[]","components":[{"name":"marketToken","type":"tuple","internalType":"struct TokenMetadata","components":[{"name":"token","type":"address","internalType":"address"},{"name":"name","type":"string","internalType":"string"},{"name":"symbol","type":"string","internalType":"string"},{"name":"decimals","type":"uint256","internalType":"uint256"},{"name":"isMock","type":"bool","internalType":"bool"}]},{"name":"underlyingToken","type":"tuple","internalType":"struct TokenMetadata","components":[{"name":"token","type":"address","internalType":"address"},{"name":"name","type":"string","internalType":"string"},{"name":"symbol","type":"string","internalType":"string"},{"name":"decimals","type":"uint256","internalType":"uint256"},{"name":"isMock","type":"bool","internalType":"bool"}]},{"name":"hooksFactory","type":"address","internalType":"address"},{"name":"borrower","type":"address","internalType":"address"},{"name":"hooksConfig","type":"tuple","internalType":"struct MarketHooksData","components":[{"name":"hooksAddress","type":"address","internalType":"address"},{"name":"flags","type":"tuple","internalType":"struct HooksConfigData","components":[{"name":"useOnDeposit","type":"bool","internalType":"bool"},{"name":"useOnQueueWithdrawal","type":"bool","internalType":"bool"},{"name":"useOnExecuteWithdrawal","type":"bool","internalType":"bool"},{"name":"useOnTransfer","type":"bool","internalType":"bool"},{"name":"useOnBorrow","type":"bool","internalType":"bool"},{"name":"useOnRepay","type":"bool","internalType":"bool"},{"name":"useOnCloseMarket","type":"bool","internalType":"bool"},{"name":"useOnNukeFromOrbit","type":"bool","internalType":"bool"},{"name":"useOnSetMaxTotalSupply","type":"bool","internalType":"bool"},{"name":"useOnSetAnnualInterestAndReserveRatioBips","type":"bool","internalType":"bool"},{"name":"useOnSetProtocolFeeBips","type":"bool","internalType":"bool"}]},{"name":"kind","type":"uint8","internalType":"enum HooksInstanceKind"},{"name":"transferRequiresAccess","type":"bool","internalType":"bool"},{"name":"depositRequiresAccess","type":"bool","internalType":"bool"},{"name":"minimumDeposit","type":"uint128","internalType":"uint128"},{"name":"transfersDisabled","type":"bool","internalType":"bool"},{"name":"allowForceBuyBacks","type":"bool","internalType":"bool"},{"name":"withdrawalRequiresAccess","type":"bool","internalType":"bool"},{"name":"fixedTermEndTime","type":"uint32","internalType":"uint32"},{"name":"allowClosureBeforeTerm","type":"bool","internalType":"bool"},{"name":"allowTermReduction","type":"bool","internalType":"bool"}]},{"name":"withdrawalBatchDuration","type":"uint256","internalType":"uint256"},{"name":"feeRecipient","type":"address","internalType":"address"},{"name":"delinquencyFeeBips","type":"uint256","internalType":"uint256"},{"name":"delinquencyGracePeriod","type":"uint256","internalType":"uint256"},{"name":"hooks","type":"tuple","internalType":"struct HooksInstanceData","components":[{"name":"hooksAddress","type":"address","internalType":"address"},{"name":"borrower","type":"address","internalType":"address"},{"name":"kind","type":"uint8","internalType":"enum HooksInstanceKind"},{"name":"hooksTemplate","type":"address","internalType":"address"},{"name":"hooksTemplateName","type":"string","internalType":"string"},{"name":"constraints","type":"tuple","internalType":"struct MarketParameterConstraints","components":[{"name":"minimumDelinquencyGracePeriod","type":"uint32","internalType":"uint32"},{"name":"maximumDelinquencyGracePeriod","type":"uint32","internalType":"uint32"},{"name":"minimumReserveRatioBips","type":"uint16","internalType":"uint16"},{"name":"maximumReserveRatioBips","type":"uint16","internalType":"uint16"},{"name":"minimumDelinquencyFeeBips","type":"uint16","internalType":"uint16"},{"name":"maximumDelinquencyFeeBips","type":"uint16","internalType":"uint16"},{"name":"minimumWithdrawalBatchDuration","type":"uint32","internalType":"uint32"},{"name":"maximumWithdrawalBatchDuration","type":"uint32","internalType":"uint32"},{"name":"minimumAnnualInterestBips","type":"uint16","internalType":"uint16"},{"name":"maximumAnnualInterestBips","type":"uint16","internalType":"uint16"}]},{"name":"deploymentFlags","type":"tuple","internalType":"struct HooksDeploymentFlags","components":[{"name":"optional","type":"tuple","internalType":"struct HooksConfigData","components":[{"name":"useOnDeposit","type":"bool","internalType":"bool"},{"name":"useOnQueueWithdrawal","type":"bool","internalType":"bool"},{"name":"useOnExecuteWithdrawal","type":"bool","internalType":"bool"},{"name":"useOnTransfer","type":"bool","internalType":"bool"},{"name":"useOnBorrow","type":"bool","internalType":"bool"},{"name":"useOnRepay","type":"bool","internalType":"bool"},{"name":"useOnCloseMarket","type":"bool","internalType":"bool"},{"name":"useOnNukeFromOrbit","type":"bool","internalType":"bool"},{"name":"useOnSetMaxTotalSupply","type":"bool","internalType":"bool"},{"name":"useOnSetAnnualInterestAndReserveRatioBips","type":"bool","internalType":"bool"},{"name":"useOnSetProtocolFeeBips","type":"bool","internalType":"bool"}]},{"name":"required","type":"tuple","internalType":"struct HooksConfigData","components":[{"name":"useOnDeposit","type":"bool","internalType":"bool"},{"name":"useOnQueueWithdrawal","type":"bool","internalType":"bool"},{"name":"useOnExecuteWithdrawal","type":"bool","internalType":"bool"},{"name":"useOnTransfer","type":"bool","internalType":"bool"},{"name":"useOnBorrow","type":"bool","internalType":"bool"},{"name":"useOnRepay","type":"bool","internalType":"bool"},{"name":"useOnCloseMarket","type":"bool","internalType":"bool"},{"name":"useOnNukeFromOrbit","type":"bool","internalType":"bool"},{"name":"useOnSetMaxTotalSupply","type":"bool","internalType":"bool"},{"name":"useOnSetAnnualInterestAndReserveRatioBips","type":"bool","internalType":"bool"},{"name":"useOnSetProtocolFeeBips","type":"bool","internalType":"bool"}]}]},{"name":"pullProviders","type":"tuple[]","internalType":"struct RoleProviderData[]","components":[{"name":"timeToLive","type":"uint32","internalType":"uint32"},{"name":"providerAddress","type":"address","internalType":"address"},{"name":"pullProviderIndex","type":"uint24","internalType":"uint24"},{"name":"pushProviderIndex","type":"uint24","internalType":"uint24"}]},{"name":"pushProviders","type":"tuple[]","internalType":"struct RoleProviderData[]","components":[{"name":"timeToLive","type":"uint32","internalType":"uint32"},{"name":"providerAddress","type":"address","internalType":"address"},{"name":"pullProviderIndex","type":"uint24","internalType":"uint24"},{"name":"pushProviderIndex","type":"uint24","internalType":"uint24"}]},{"name":"totalMarkets","type":"uint256","internalType":"uint256"}]},{"name":"temporaryReserveRatio","type":"bool","internalType":"bool"},{"name":"originalAnnualInterestBips","type":"uint256","internalType":"uint256"},{"name":"originalReserveRatioBips","type":"uint256","internalType":"uint256"},{"name":"temporaryReserveRatioExpiry","type":"uint256","internalType":"uint256"},{"name":"isClosed","type":"bool","internalType":"bool"},{"name":"protocolFeeBips","type":"uint256","internalType":"uint256"},{"name":"reserveRatioBips","type":"uint256","internalType":"uint256"},{"name":"annualInterestBips","type":"uint256","internalType":"uint256"},{"name":"scaleFactor","type":"uint256","internalType":"uint256"},{"name":"totalSupply","type":"uint256","internalType":"uint256"},{"name":"maxTotalSupply","type":"uint256","internalType":"uint256"},{"name":"scaledTotalSupply","type":"uint256","internalType":"uint256"},{"name":"totalAssets","type":"uint256","internalType":"uint256"},{"name":"lastAccruedProtocolFees","type":"uint256","internalType":"uint256"},{"name":"normalizedUnclaimedWithdrawals","type":"uint256","internalType":"uint256"},{"name":"scaledPendingWithdrawals","type":"uint256","internalType":"uint256"},{"name":"pendingWithdrawalExpiry","type":"uint256","internalType":"uint256"},{"name":"isDelinquent","type":"bool","internalType":"bool"},{"name":"timeDelinquent","type":"uint256","internalType":"uint256"},{"name":"lastInterestAccruedTimestamp","type":"uint256","internalType":"uint256"},{"name":"unpaidWithdrawalBatchExpiries","type":"uint32[]","internalType":"uint32[]"},{"name":"coverageLiquidity","type":"uint256","internalType":"uint256"}]}],"stateMutability":"view"},{"type":"function","name":"getHooksDataForBorrower","inputs":[{"name":"borrower","type":"address","internalType":"address"}],"outputs":[{"name":"data","type":"tuple","internalType":"struct HooksDataForBorrower","components":[{"name":"borrower","type":"address","internalType":"address"},{"name":"isRegisteredBorrower","type":"bool","internalType":"bool"},{"name":"hooksTemplates","type":"tuple[]","internalType":"struct HooksTemplateData[]","components":[{"name":"hooksTemplate","type":"address","internalType":"address"},{"name":"fees","type":"tuple","internalType":"struct FeeConfiguration","components":[{"name":"feeRecipient","type":"address","internalType":"address"},{"name":"protocolFeeBips","type":"uint16","internalType":"uint16"},{"name":"originationFeeToken","type":"tuple","internalType":"struct TokenMetadata","components":[{"name":"token","type":"address","internalType":"address"},{"name":"name","type":"string","internalType":"string"},{"name":"symbol","type":"string","internalType":"string"},{"name":"decimals","type":"uint256","internalType":"uint256"},{"name":"isMock","type":"bool","internalType":"bool"}]},{"name":"originationFeeAmount","type":"uint256","internalType":"uint256"},{"name":"borrowerOriginationFeeBalance","type":"uint256","internalType":"uint256"},{"name":"borrowerOriginationFeeApproval","type":"uint256","internalType":"uint256"}]},{"name":"exists","type":"bool","internalType":"bool"},{"name":"enabled","type":"bool","internalType":"bool"},{"name":"index","type":"uint24","internalType":"uint24"},{"name":"name","type":"string","internalType":"string"},{"name":"totalMarkets","type":"uint256","internalType":"uint256"}]},{"name":"hooksInstances","type":"tuple[]","internalType":"struct HooksInstanceData[]","components":[{"name":"hooksAddress","type":"address","internalType":"address"},{"name":"borrower","type":"address","internalType":"address"},{"name":"kind","type":"uint8","internalType":"enum HooksInstanceKind"},{"name":"hooksTemplate","type":"address","internalType":"address"},{"name":"hooksTemplateName","type":"string","internalType":"string"},{"name":"constraints","type":"tuple","internalType":"struct MarketParameterConstraints","components":[{"name":"minimumDelinquencyGracePeriod","type":"uint32","internalType":"uint32"},{"name":"maximumDelinquencyGracePeriod","type":"uint32","internalType":"uint32"},{"name":"minimumReserveRatioBips","type":"uint16","internalType":"uint16"},{"name":"maximumReserveRatioBips","type":"uint16","internalType":"uint16"},{"name":"minimumDelinquencyFeeBips","type":"uint16","internalType":"uint16"},{"name":"maximumDelinquencyFeeBips","type":"uint16","internalType":"uint16"},{"name":"minimumWithdrawalBatchDuration","type":"uint32","internalType":"uint32"},{"name":"maximumWithdrawalBatchDuration","type":"uint32","internalType":"uint32"},{"name":"minimumAnnualInterestBips","type":"uint16","internalType":"uint16"},{"name":"maximumAnnualInterestBips","type":"uint16","internalType":"uint16"}]},{"name":"deploymentFlags","type":"tuple","internalType":"struct HooksDeploymentFlags","components":[{"name":"optional","type":"tuple","internalType":"struct HooksConfigData","components":[{"name":"useOnDeposit","type":"bool","internalType":"bool"},{"name":"useOnQueueWithdrawal","type":"bool","internalType":"bool"},{"name":"useOnExecuteWithdrawal","type":"bool","internalType":"bool"},{"name":"useOnTransfer","type":"bool","internalType":"bool"},{"name":"useOnBorrow","type":"bool","internalType":"bool"},{"name":"useOnRepay","type":"bool","internalType":"bool"},{"name":"useOnCloseMarket","type":"bool","internalType":"bool"},{"name":"useOnNukeFromOrbit","type":"bool","internalType":"bool"},{"name":"useOnSetMaxTotalSupply","type":"bool","internalType":"bool"},{"name":"useOnSetAnnualInterestAndReserveRatioBips","type":"bool","internalType":"bool"},{"name":"useOnSetProtocolFeeBips","type":"bool","internalType":"bool"}]},{"name":"required","type":"tuple","internalType":"struct HooksConfigData","components":[{"name":"useOnDeposit","type":"bool","internalType":"bool"},{"name":"useOnQueueWithdrawal","type":"bool","internalType":"bool"},{"name":"useOnExecuteWithdrawal","type":"bool","internalType":"bool"},{"name":"useOnTransfer","type":"bool","internalType":"bool"},{"name":"useOnBorrow","type":"bool","internalType":"bool"},{"name":"useOnRepay","type":"bool","internalType":"bool"},{"name":"useOnCloseMarket","type":"bool","internalType":"bool"},{"name":"useOnNukeFromOrbit","type":"bool","internalType":"bool"},{"name":"useOnSetMaxTotalSupply","type":"bool","internalType":"bool"},{"name":"useOnSetAnnualInterestAndReserveRatioBips","type":"bool","internalType":"bool"},{"name":"useOnSetProtocolFeeBips","type":"bool","internalType":"bool"}]}]},{"name":"pullProviders","type":"tuple[]","internalType":"struct RoleProviderData[]","components":[{"name":"timeToLive","type":"uint32","internalType":"uint32"},{"name":"providerAddress","type":"address","internalType":"address"},{"name":"pullProviderIndex","type":"uint24","internalType":"uint24"},{"name":"pushProviderIndex","type":"uint24","internalType":"uint24"}]},{"name":"pushProviders","type":"tuple[]","internalType":"struct RoleProviderData[]","components":[{"name":"timeToLive","type":"uint32","internalType":"uint32"},{"name":"providerAddress","type":"address","internalType":"address"},{"name":"pullProviderIndex","type":"uint24","internalType":"uint24"},{"name":"pushProviderIndex","type":"uint24","internalType":"uint24"}]},{"name":"totalMarkets","type":"uint256","internalType":"uint256"}]}]}],"stateMutability":"view"},{"type":"function","name":"getHooksInstancesForBorrower","inputs":[{"name":"borrower","type":"address","internalType":"address"}],"outputs":[{"name":"arr","type":"tuple[]","internalType":"struct HooksInstanceData[]","components":[{"name":"hooksAddress","type":"address","internalType":"address"},{"name":"borrower","type":"address","internalType":"address"},{"name":"kind","type":"uint8","internalType":"enum HooksInstanceKind"},{"name":"hooksTemplate","type":"address","internalType":"address"},{"name":"hooksTemplateName","type":"string","internalType":"string"},{"name":"constraints","type":"tuple","internalType":"struct MarketParameterConstraints","components":[{"name":"minimumDelinquencyGracePeriod","type":"uint32","internalType":"uint32"},{"name":"maximumDelinquencyGracePeriod","type":"uint32","internalType":"uint32"},{"name":"minimumReserveRatioBips","type":"uint16","internalType":"uint16"},{"name":"maximumReserveRatioBips","type":"uint16","internalType":"uint16"},{"name":"minimumDelinquencyFeeBips","type":"uint16","internalType":"uint16"},{"name":"maximumDelinquencyFeeBips","type":"uint16","internalType":"uint16"},{"name":"minimumWithdrawalBatchDuration","type":"uint32","internalType":"uint32"},{"name":"maximumWithdrawalBatchDuration","type":"uint32","internalType":"uint32"},{"name":"minimumAnnualInterestBips","type":"uint16","internalType":"uint16"},{"name":"maximumAnnualInterestBips","type":"uint16","internalType":"uint16"}]},{"name":"deploymentFlags","type":"tuple","internalType":"struct HooksDeploymentFlags","components":[{"name":"optional","type":"tuple","internalType":"struct HooksConfigData","components":[{"name":"useOnDeposit","type":"bool","internalType":"bool"},{"name":"useOnQueueWithdrawal","type":"bool","internalType":"bool"},{"name":"useOnExecuteWithdrawal","type":"bool","internalType":"bool"},{"name":"useOnTransfer","type":"bool","internalType":"bool"},{"name":"useOnBorrow","type":"bool","internalType":"bool"},{"name":"useOnRepay","type":"bool","internalType":"bool"},{"name":"useOnCloseMarket","type":"bool","internalType":"bool"},{"name":"useOnNukeFromOrbit","type":"bool","internalType":"bool"},{"name":"useOnSetMaxTotalSupply","type":"bool","internalType":"bool"},{"name":"useOnSetAnnualInterestAndReserveRatioBips","type":"bool","internalType":"bool"},{"name":"useOnSetProtocolFeeBips","type":"bool","internalType":"bool"}]},{"name":"required","type":"tuple","internalType":"struct HooksConfigData","components":[{"name":"useOnDeposit","type":"bool","internalType":"bool"},{"name":"useOnQueueWithdrawal","type":"bool","internalType":"bool"},{"name":"useOnExecuteWithdrawal","type":"bool","internalType":"bool"},{"name":"useOnTransfer","type":"bool","internalType":"bool"},{"name":"useOnBorrow","type":"bool","internalType":"bool"},{"name":"useOnRepay","type":"bool","internalType":"bool"},{"name":"useOnCloseMarket","type":"bool","internalType":"bool"},{"name":"useOnNukeFromOrbit","type":"bool","internalType":"bool"},{"name":"useOnSetMaxTotalSupply","type":"bool","internalType":"bool"},{"name":"useOnSetAnnualInterestAndReserveRatioBips","type":"bool","internalType":"bool"},{"name":"useOnSetProtocolFeeBips","type":"bool","internalType":"bool"}]}]},{"name":"pullProviders","type":"tuple[]","internalType":"struct RoleProviderData[]","components":[{"name":"timeToLive","type":"uint32","internalType":"uint32"},{"name":"providerAddress","type":"address","internalType":"address"},{"name":"pullProviderIndex","type":"uint24","internalType":"uint24"},{"name":"pushProviderIndex","type":"uint24","internalType":"uint24"}]},{"name":"pushProviders","type":"tuple[]","internalType":"struct RoleProviderData[]","components":[{"name":"timeToLive","type":"uint32","internalType":"uint32"},{"name":"providerAddress","type":"address","internalType":"address"},{"name":"pullProviderIndex","type":"uint24","internalType":"uint24"},{"name":"pushProviderIndex","type":"uint24","internalType":"uint24"}]},{"name":"totalMarkets","type":"uint256","internalType":"uint256"}]}],"stateMutability":"view"},{"type":"function","name":"getHooksTemplateForBorrower","inputs":[{"name":"borrower","type":"address","internalType":"address"},{"name":"hooksTemplate","type":"address","internalType":"address"}],"outputs":[{"name":"data","type":"tuple","internalType":"struct HooksTemplateData","components":[{"name":"hooksTemplate","type":"address","internalType":"address"},{"name":"fees","type":"tuple","internalType":"struct FeeConfiguration","components":[{"name":"feeRecipient","type":"address","internalType":"address"},{"name":"protocolFeeBips","type":"uint16","internalType":"uint16"},{"name":"originationFeeToken","type":"tuple","internalType":"struct TokenMetadata","components":[{"name":"token","type":"address","internalType":"address"},{"name":"name","type":"string","internalType":"string"},{"name":"symbol","type":"string","internalType":"string"},{"name":"decimals","type":"uint256","internalType":"uint256"},{"name":"isMock","type":"bool","internalType":"bool"}]},{"name":"originationFeeAmount","type":"uint256","internalType":"uint256"},{"name":"borrowerOriginationFeeBalance","type":"uint256","internalType":"uint256"},{"name":"borrowerOriginationFeeApproval","type":"uint256","internalType":"uint256"}]},{"name":"exists","type":"bool","internalType":"bool"},{"name":"enabled","type":"bool","internalType":"bool"},{"name":"index","type":"uint24","internalType":"uint24"},{"name":"name","type":"string","internalType":"string"},{"name":"totalMarkets","type":"uint256","internalType":"uint256"}]}],"stateMutability":"view"},{"type":"function","name":"getHooksTemplatesForBorrower","inputs":[{"name":"borrower","type":"address","internalType":"address"},{"name":"hooksTemplates","type":"address[]","internalType":"address[]"}],"outputs":[{"name":"data","type":"tuple[]","internalType":"struct HooksTemplateData[]","components":[{"name":"hooksTemplate","type":"address","internalType":"address"},{"name":"fees","type":"tuple","internalType":"struct FeeConfiguration","components":[{"name":"feeRecipient","type":"address","internalType":"address"},{"name":"protocolFeeBips","type":"uint16","internalType":"uint16"},{"name":"originationFeeToken","type":"tuple","internalType":"struct TokenMetadata","components":[{"name":"token","type":"address","internalType":"address"},{"name":"name","type":"string","internalType":"string"},{"name":"symbol","type":"string","internalType":"string"},{"name":"decimals","type":"uint256","internalType":"uint256"},{"name":"isMock","type":"bool","internalType":"bool"}]},{"name":"originationFeeAmount","type":"uint256","internalType":"uint256"},{"name":"borrowerOriginationFeeBalance","type":"uint256","internalType":"uint256"},{"name":"borrowerOriginationFeeApproval","type":"uint256","internalType":"uint256"}]},{"name":"exists","type":"bool","internalType":"bool"},{"name":"enabled","type":"bool","internalType":"bool"},{"name":"index","type":"uint24","internalType":"uint24"},{"name":"name","type":"string","internalType":"string"},{"name":"totalMarkets","type":"uint256","internalType":"uint256"}]}],"stateMutability":"view"},{"type":"function","name":"getLenderAccountData","inputs":[{"name":"lender","type":"address","internalType":"address"},{"name":"market","type":"address","internalType":"address"}],"outputs":[{"name":"data","type":"tuple","internalType":"struct LenderAccountData","components":[{"name":"lender","type":"address","internalType":"address"},{"name":"scaledBalance","type":"uint256","internalType":"uint256"},{"name":"normalizedBalance","type":"uint256","internalType":"uint256"},{"name":"underlyingBalance","type":"uint256","internalType":"uint256"},{"name":"underlyingApproval","type":"uint256","internalType":"uint256"},{"name":"isBlockedFromDeposits","type":"bool","internalType":"bool"},{"name":"lastProvider","type":"tuple","internalType":"struct RoleProviderData","components":[{"name":"timeToLive","type":"uint32","internalType":"uint32"},{"name":"providerAddress","type":"address","internalType":"address"},{"name":"pullProviderIndex","type":"uint24","internalType":"uint24"},{"name":"pushProviderIndex","type":"uint24","internalType":"uint24"}]},{"name":"canRefresh","type":"bool","internalType":"bool"},{"name":"lastApprovalTimestamp","type":"uint32","internalType":"uint32"},{"name":"isKnownLender","type":"bool","internalType":"bool"}]}],"stateMutability":"view"},{"type":"function","name":"getLenderAccountData","inputs":[{"name":"lender","type":"address","internalType":"address"},{"name":"markets","type":"address[]","internalType":"address[]"}],"outputs":[{"name":"arr","type":"tuple[]","internalType":"struct LenderAccountData[]","components":[{"name":"lender","type":"address","internalType":"address"},{"name":"scaledBalance","type":"uint256","internalType":"uint256"},{"name":"normalizedBalance","type":"uint256","internalType":"uint256"},{"name":"underlyingBalance","type":"uint256","internalType":"uint256"},{"name":"underlyingApproval","type":"uint256","internalType":"uint256"},{"name":"isBlockedFromDeposits","type":"bool","internalType":"bool"},{"name":"lastProvider","type":"tuple","internalType":"struct RoleProviderData","components":[{"name":"timeToLive","type":"uint32","internalType":"uint32"},{"name":"providerAddress","type":"address","internalType":"address"},{"name":"pullProviderIndex","type":"uint24","internalType":"uint24"},{"name":"pushProviderIndex","type":"uint24","internalType":"uint24"}]},{"name":"canRefresh","type":"bool","internalType":"bool"},{"name":"lastApprovalTimestamp","type":"uint32","internalType":"uint32"},{"name":"isKnownLender","type":"bool","internalType":"bool"}]}],"stateMutability":"view"},{"type":"function","name":"getMarketData","inputs":[{"name":"market","type":"address","internalType":"address"}],"outputs":[{"name":"data","type":"tuple","internalType":"struct MarketData","components":[{"name":"marketToken","type":"tuple","internalType":"struct TokenMetadata","components":[{"name":"token","type":"address","internalType":"address"},{"name":"name","type":"string","internalType":"string"},{"name":"symbol","type":"string","internalType":"string"},{"name":"decimals","type":"uint256","internalType":"uint256"},{"name":"isMock","type":"bool","internalType":"bool"}]},{"name":"underlyingToken","type":"tuple","internalType":"struct TokenMetadata","components":[{"name":"token","type":"address","internalType":"address"},{"name":"name","type":"string","internalType":"string"},{"name":"symbol","type":"string","internalType":"string"},{"name":"decimals","type":"uint256","internalType":"uint256"},{"name":"isMock","type":"bool","internalType":"bool"}]},{"name":"hooksFactory","type":"address","internalType":"address"},{"name":"borrower","type":"address","internalType":"address"},{"name":"hooksConfig","type":"tuple","internalType":"struct MarketHooksData","components":[{"name":"hooksAddress","type":"address","internalType":"address"},{"name":"flags","type":"tuple","internalType":"struct HooksConfigData","components":[{"name":"useOnDeposit","type":"bool","internalType":"bool"},{"name":"useOnQueueWithdrawal","type":"bool","internalType":"bool"},{"name":"useOnExecuteWithdrawal","type":"bool","internalType":"bool"},{"name":"useOnTransfer","type":"bool","internalType":"bool"},{"name":"useOnBorrow","type":"bool","internalType":"bool"},{"name":"useOnRepay","type":"bool","internalType":"bool"},{"name":"useOnCloseMarket","type":"bool","internalType":"bool"},{"name":"useOnNukeFromOrbit","type":"bool","internalType":"bool"},{"name":"useOnSetMaxTotalSupply","type":"bool","internalType":"bool"},{"name":"useOnSetAnnualInterestAndReserveRatioBips","type":"bool","internalType":"bool"},{"name":"useOnSetProtocolFeeBips","type":"bool","internalType":"bool"}]},{"name":"kind","type":"uint8","internalType":"enum HooksInstanceKind"},{"name":"transferRequiresAccess","type":"bool","internalType":"bool"},{"name":"depositRequiresAccess","type":"bool","internalType":"bool"},{"name":"minimumDeposit","type":"uint128","internalType":"uint128"},{"name":"transfersDisabled","type":"bool","internalType":"bool"},{"name":"allowForceBuyBacks","type":"bool","internalType":"bool"},{"name":"withdrawalRequiresAccess","type":"bool","internalType":"bool"},{"name":"fixedTermEndTime","type":"uint32","internalType":"uint32"},{"name":"allowClosureBeforeTerm","type":"bool","internalType":"bool"},{"name":"allowTermReduction","type":"bool","internalType":"bool"}]},{"name":"withdrawalBatchDuration","type":"uint256","internalType":"uint256"},{"name":"feeRecipient","type":"address","internalType":"address"},{"name":"delinquencyFeeBips","type":"uint256","internalType":"uint256"},{"name":"delinquencyGracePeriod","type":"uint256","internalType":"uint256"},{"name":"hooks","type":"tuple","internalType":"struct HooksInstanceData","components":[{"name":"hooksAddress","type":"address","internalType":"address"},{"name":"borrower","type":"address","internalType":"address"},{"name":"kind","type":"uint8","internalType":"enum HooksInstanceKind"},{"name":"hooksTemplate","type":"address","internalType":"address"},{"name":"hooksTemplateName","type":"string","internalType":"string"},{"name":"constraints","type":"tuple","internalType":"struct MarketParameterConstraints","components":[{"name":"minimumDelinquencyGracePeriod","type":"uint32","internalType":"uint32"},{"name":"maximumDelinquencyGracePeriod","type":"uint32","internalType":"uint32"},{"name":"minimumReserveRatioBips","type":"uint16","internalType":"uint16"},{"name":"maximumReserveRatioBips","type":"uint16","internalType":"uint16"},{"name":"minimumDelinquencyFeeBips","type":"uint16","internalType":"uint16"},{"name":"maximumDelinquencyFeeBips","type":"uint16","internalType":"uint16"},{"name":"minimumWithdrawalBatchDuration","type":"uint32","internalType":"uint32"},{"name":"maximumWithdrawalBatchDuration","type":"uint32","internalType":"uint32"},{"name":"minimumAnnualInterestBips","type":"uint16","internalType":"uint16"},{"name":"maximumAnnualInterestBips","type":"uint16","internalType":"uint16"}]},{"name":"deploymentFlags","type":"tuple","internalType":"struct HooksDeploymentFlags","components":[{"name":"optional","type":"tuple","internalType":"struct HooksConfigData","components":[{"name":"useOnDeposit","type":"bool","internalType":"bool"},{"name":"useOnQueueWithdrawal","type":"bool","internalType":"bool"},{"name":"useOnExecuteWithdrawal","type":"bool","internalType":"bool"},{"name":"useOnTransfer","type":"bool","internalType":"bool"},{"name":"useOnBorrow","type":"bool","internalType":"bool"},{"name":"useOnRepay","type":"bool","internalType":"bool"},{"name":"useOnCloseMarket","type":"bool","internalType":"bool"},{"name":"useOnNukeFromOrbit","type":"bool","internalType":"bool"},{"name":"useOnSetMaxTotalSupply","type":"bool","internalType":"bool"},{"name":"useOnSetAnnualInterestAndReserveRatioBips","type":"bool","internalType":"bool"},{"name":"useOnSetProtocolFeeBips","type":"bool","internalType":"bool"}]},{"name":"required","type":"tuple","internalType":"struct HooksConfigData","components":[{"name":"useOnDeposit","type":"bool","internalType":"bool"},{"name":"useOnQueueWithdrawal","type":"bool","internalType":"bool"},{"name":"useOnExecuteWithdrawal","type":"bool","internalType":"bool"},{"name":"useOnTransfer","type":"bool","internalType":"bool"},{"name":"useOnBorrow","type":"bool","internalType":"bool"},{"name":"useOnRepay","type":"bool","internalType":"bool"},{"name":"useOnCloseMarket","type":"bool","internalType":"bool"},{"name":"useOnNukeFromOrbit","type":"bool","internalType":"bool"},{"name":"useOnSetMaxTotalSupply","type":"bool","internalType":"bool"},{"name":"useOnSetAnnualInterestAndReserveRatioBips","type":"bool","internalType":"bool"},{"name":"useOnSetProtocolFeeBips","type":"bool","internalType":"bool"}]}]},{"name":"pullProviders","type":"tuple[]","internalType":"struct RoleProviderData[]","components":[{"name":"timeToLive","type":"uint32","internalType":"uint32"},{"name":"providerAddress","type":"address","internalType":"address"},{"name":"pullProviderIndex","type":"uint24","internalType":"uint24"},{"name":"pushProviderIndex","type":"uint24","internalType":"uint24"}]},{"name":"pushProviders","type":"tuple[]","internalType":"struct RoleProviderData[]","components":[{"name":"timeToLive","type":"uint32","internalType":"uint32"},{"name":"providerAddress","type":"address","internalType":"address"},{"name":"pullProviderIndex","type":"uint24","internalType":"uint24"},{"name":"pushProviderIndex","type":"uint24","internalType":"uint24"}]},{"name":"totalMarkets","type":"uint256","internalType":"uint256"}]},{"name":"temporaryReserveRatio","type":"bool","internalType":"bool"},{"name":"originalAnnualInterestBips","type":"uint256","internalType":"uint256"},{"name":"originalReserveRatioBips","type":"uint256","internalType":"uint256"},{"name":"temporaryReserveRatioExpiry","type":"uint256","internalType":"uint256"},{"name":"isClosed","type":"bool","internalType":"bool"},{"name":"protocolFeeBips","type":"uint256","internalType":"uint256"},{"name":"reserveRatioBips","type":"uint256","internalType":"uint256"},{"name":"annualInterestBips","type":"uint256","internalType":"uint256"},{"name":"scaleFactor","type":"uint256","internalType":"uint256"},{"name":"totalSupply","type":"uint256","internalType":"uint256"},{"name":"maxTotalSupply","type":"uint256","internalType":"uint256"},{"name":"scaledTotalSupply","type":"uint256","internalType":"uint256"},{"name":"totalAssets","type":"uint256","internalType":"uint256"},{"name":"lastAccruedProtocolFees","type":"uint256","internalType":"uint256"},{"name":"normalizedUnclaimedWithdrawals","type":"uint256","internalType":"uint256"},{"name":"scaledPendingWithdrawals","type":"uint256","internalType":"uint256"},{"name":"pendingWithdrawalExpiry","type":"uint256","internalType":"uint256"},{"name":"isDelinquent","type":"bool","internalType":"bool"},{"name":"timeDelinquent","type":"uint256","internalType":"uint256"},{"name":"lastInterestAccruedTimestamp","type":"uint256","internalType":"uint256"},{"name":"unpaidWithdrawalBatchExpiries","type":"uint32[]","internalType":"uint32[]"},{"name":"coverageLiquidity","type":"uint256","internalType":"uint256"}]}],"stateMutability":"view"},{"type":"function","name":"getMarketDataWithLenderStatus","inputs":[{"name":"lender","type":"address","internalType":"address"},{"name":"market","type":"address","internalType":"address"}],"outputs":[{"name":"data","type":"tuple","internalType":"struct MarketDataWithLenderStatus","components":[{"name":"market","type":"tuple","internalType":"struct MarketData","components":[{"name":"marketToken","type":"tuple","internalType":"struct TokenMetadata","components":[{"name":"token","type":"address","internalType":"address"},{"name":"name","type":"string","internalType":"string"},{"name":"symbol","type":"string","internalType":"string"},{"name":"decimals","type":"uint256","internalType":"uint256"},{"name":"isMock","type":"bool","internalType":"bool"}]},{"name":"underlyingToken","type":"tuple","internalType":"struct TokenMetadata","components":[{"name":"token","type":"address","internalType":"address"},{"name":"name","type":"string","internalType":"string"},{"name":"symbol","type":"string","internalType":"string"},{"name":"decimals","type":"uint256","internalType":"uint256"},{"name":"isMock","type":"bool","internalType":"bool"}]},{"name":"hooksFactory","type":"address","internalType":"address"},{"name":"borrower","type":"address","internalType":"address"},{"name":"hooksConfig","type":"tuple","internalType":"struct MarketHooksData","components":[{"name":"hooksAddress","type":"address","internalType":"address"},{"name":"flags","type":"tuple","internalType":"struct HooksConfigData","components":[{"name":"useOnDeposit","type":"bool","internalType":"bool"},{"name":"useOnQueueWithdrawal","type":"bool","internalType":"bool"},{"name":"useOnExecuteWithdrawal","type":"bool","internalType":"bool"},{"name":"useOnTransfer","type":"bool","internalType":"bool"},{"name":"useOnBorrow","type":"bool","internalType":"bool"},{"name":"useOnRepay","type":"bool","internalType":"bool"},{"name":"useOnCloseMarket","type":"bool","internalType":"bool"},{"name":"useOnNukeFromOrbit","type":"bool","internalType":"bool"},{"name":"useOnSetMaxTotalSupply","type":"bool","internalType":"bool"},{"name":"useOnSetAnnualInterestAndReserveRatioBips","type":"bool","internalType":"bool"},{"name":"useOnSetProtocolFeeBips","type":"bool","internalType":"bool"}]},{"name":"kind","type":"uint8","internalType":"enum HooksInstanceKind"},{"name":"transferRequiresAccess","type":"bool","internalType":"bool"},{"name":"depositRequiresAccess","type":"bool","internalType":"bool"},{"name":"minimumDeposit","type":"uint128","internalType":"uint128"},{"name":"transfersDisabled","type":"bool","internalType":"bool"},{"name":"allowForceBuyBacks","type":"bool","internalType":"bool"},{"name":"withdrawalRequiresAccess","type":"bool","internalType":"bool"},{"name":"fixedTermEndTime","type":"uint32","internalType":"uint32"},{"name":"allowClosureBeforeTerm","type":"bool","internalType":"bool"},{"name":"allowTermReduction","type":"bool","internalType":"bool"}]},{"name":"withdrawalBatchDuration","type":"uint256","internalType":"uint256"},{"name":"feeRecipient","type":"address","internalType":"address"},{"name":"delinquencyFeeBips","type":"uint256","internalType":"uint256"},{"name":"delinquencyGracePeriod","type":"uint256","internalType":"uint256"},{"name":"hooks","type":"tuple","internalType":"struct HooksInstanceData","components":[{"name":"hooksAddress","type":"address","internalType":"address"},{"name":"borrower","type":"address","internalType":"address"},{"name":"kind","type":"uint8","internalType":"enum HooksInstanceKind"},{"name":"hooksTemplate","type":"address","internalType":"address"},{"name":"hooksTemplateName","type":"string","internalType":"string"},{"name":"constraints","type":"tuple","internalType":"struct MarketParameterConstraints","components":[{"name":"minimumDelinquencyGracePeriod","type":"uint32","internalType":"uint32"},{"name":"maximumDelinquencyGracePeriod","type":"uint32","internalType":"uint32"},{"name":"minimumReserveRatioBips","type":"uint16","internalType":"uint16"},{"name":"maximumReserveRatioBips","type":"uint16","internalType":"uint16"},{"name":"minimumDelinquencyFeeBips","type":"uint16","internalType":"uint16"},{"name":"maximumDelinquencyFeeBips","type":"uint16","internalType":"uint16"},{"name":"minimumWithdrawalBatchDuration","type":"uint32","internalType":"uint32"},{"name":"maximumWithdrawalBatchDuration","type":"uint32","internalType":"uint32"},{"name":"minimumAnnualInterestBips","type":"uint16","internalType":"uint16"},{"name":"maximumAnnualInterestBips","type":"uint16","internalType":"uint16"}]},{"name":"deploymentFlags","type":"tuple","internalType":"struct HooksDeploymentFlags","components":[{"name":"optional","type":"tuple","internalType":"struct HooksConfigData","components":[{"name":"useOnDeposit","type":"bool","internalType":"bool"},{"name":"useOnQueueWithdrawal","type":"bool","internalType":"bool"},{"name":"useOnExecuteWithdrawal","type":"bool","internalType":"bool"},{"name":"useOnTransfer","type":"bool","internalType":"bool"},{"name":"useOnBorrow","type":"bool","internalType":"bool"},{"name":"useOnRepay","type":"bool","internalType":"bool"},{"name":"useOnCloseMarket","type":"bool","internalType":"bool"},{"name":"useOnNukeFromOrbit","type":"bool","internalType":"bool"},{"name":"useOnSetMaxTotalSupply","type":"bool","internalType":"bool"},{"name":"useOnSetAnnualInterestAndReserveRatioBips","type":"bool","internalType":"bool"},{"name":"useOnSetProtocolFeeBips","type":"bool","internalType":"bool"}]},{"name":"required","type":"tuple","internalType":"struct HooksConfigData","components":[{"name":"useOnDeposit","type":"bool","internalType":"bool"},{"name":"useOnQueueWithdrawal","type":"bool","internalType":"bool"},{"name":"useOnExecuteWithdrawal","type":"bool","internalType":"bool"},{"name":"useOnTransfer","type":"bool","internalType":"bool"},{"name":"useOnBorrow","type":"bool","internalType":"bool"},{"name":"useOnRepay","type":"bool","internalType":"bool"},{"name":"useOnCloseMarket","type":"bool","internalType":"bool"},{"name":"useOnNukeFromOrbit","type":"bool","internalType":"bool"},{"name":"useOnSetMaxTotalSupply","type":"bool","internalType":"bool"},{"name":"useOnSetAnnualInterestAndReserveRatioBips","type":"bool","internalType":"bool"},{"name":"useOnSetProtocolFeeBips","type":"bool","internalType":"bool"}]}]},{"name":"pullProviders","type":"tuple[]","internalType":"struct RoleProviderData[]","components":[{"name":"timeToLive","type":"uint32","internalType":"uint32"},{"name":"providerAddress","type":"address","internalType":"address"},{"name":"pullProviderIndex","type":"uint24","internalType":"uint24"},{"name":"pushProviderIndex","type":"uint24","internalType":"uint24"}]},{"name":"pushProviders","type":"tuple[]","internalType":"struct RoleProviderData[]","components":[{"name":"timeToLive","type":"uint32","internalType":"uint32"},{"name":"providerAddress","type":"address","internalType":"address"},{"name":"pullProviderIndex","type":"uint24","internalType":"uint24"},{"name":"pushProviderIndex","type":"uint24","internalType":"uint24"}]},{"name":"totalMarkets","type":"uint256","internalType":"uint256"}]},{"name":"temporaryReserveRatio","type":"bool","internalType":"bool"},{"name":"originalAnnualInterestBips","type":"uint256","internalType":"uint256"},{"name":"originalReserveRatioBips","type":"uint256","internalType":"uint256"},{"name":"temporaryReserveRatioExpiry","type":"uint256","internalType":"uint256"},{"name":"isClosed","type":"bool","internalType":"bool"},{"name":"protocolFeeBips","type":"uint256","internalType":"uint256"},{"name":"reserveRatioBips","type":"uint256","internalType":"uint256"},{"name":"annualInterestBips","type":"uint256","internalType":"uint256"},{"name":"scaleFactor","type":"uint256","internalType":"uint256"},{"name":"totalSupply","type":"uint256","internalType":"uint256"},{"name":"maxTotalSupply","type":"uint256","internalType":"uint256"},{"name":"scaledTotalSupply","type":"uint256","internalType":"uint256"},{"name":"totalAssets","type":"uint256","internalType":"uint256"},{"name":"lastAccruedProtocolFees","type":"uint256","internalType":"uint256"},{"name":"normalizedUnclaimedWithdrawals","type":"uint256","internalType":"uint256"},{"name":"scaledPendingWithdrawals","type":"uint256","internalType":"uint256"},{"name":"pendingWithdrawalExpiry","type":"uint256","internalType":"uint256"},{"name":"isDelinquent","type":"bool","internalType":"bool"},{"name":"timeDelinquent","type":"uint256","internalType":"uint256"},{"name":"lastInterestAccruedTimestamp","type":"uint256","internalType":"uint256"},{"name":"unpaidWithdrawalBatchExpiries","type":"uint32[]","internalType":"uint32[]"},{"name":"coverageLiquidity","type":"uint256","internalType":"uint256"}]},{"name":"lenderStatus","type":"tuple","internalType":"struct LenderAccountData","components":[{"name":"lender","type":"address","internalType":"address"},{"name":"scaledBalance","type":"uint256","internalType":"uint256"},{"name":"normalizedBalance","type":"uint256","internalType":"uint256"},{"name":"underlyingBalance","type":"uint256","internalType":"uint256"},{"name":"underlyingApproval","type":"uint256","internalType":"uint256"},{"name":"isBlockedFromDeposits","type":"bool","internalType":"bool"},{"name":"lastProvider","type":"tuple","internalType":"struct RoleProviderData","components":[{"name":"timeToLive","type":"uint32","internalType":"uint32"},{"name":"providerAddress","type":"address","internalType":"address"},{"name":"pullProviderIndex","type":"uint24","internalType":"uint24"},{"name":"pushProviderIndex","type":"uint24","internalType":"uint24"}]},{"name":"canRefresh","type":"bool","internalType":"bool"},{"name":"lastApprovalTimestamp","type":"uint32","internalType":"uint32"},{"name":"isKnownLender","type":"bool","internalType":"bool"}]}]}],"stateMutability":"view"},{"type":"function","name":"getMarketsData","inputs":[{"name":"markets","type":"address[]","internalType":"address[]"}],"outputs":[{"name":"data","type":"tuple[]","internalType":"struct MarketData[]","components":[{"name":"marketToken","type":"tuple","internalType":"struct TokenMetadata","components":[{"name":"token","type":"address","internalType":"address"},{"name":"name","type":"string","internalType":"string"},{"name":"symbol","type":"string","internalType":"string"},{"name":"decimals","type":"uint256","internalType":"uint256"},{"name":"isMock","type":"bool","internalType":"bool"}]},{"name":"underlyingToken","type":"tuple","internalType":"struct TokenMetadata","components":[{"name":"token","type":"address","internalType":"address"},{"name":"name","type":"string","internalType":"string"},{"name":"symbol","type":"string","internalType":"string"},{"name":"decimals","type":"uint256","internalType":"uint256"},{"name":"isMock","type":"bool","internalType":"bool"}]},{"name":"hooksFactory","type":"address","internalType":"address"},{"name":"borrower","type":"address","internalType":"address"},{"name":"hooksConfig","type":"tuple","internalType":"struct MarketHooksData","components":[{"name":"hooksAddress","type":"address","internalType":"address"},{"name":"flags","type":"tuple","internalType":"struct HooksConfigData","components":[{"name":"useOnDeposit","type":"bool","internalType":"bool"},{"name":"useOnQueueWithdrawal","type":"bool","internalType":"bool"},{"name":"useOnExecuteWithdrawal","type":"bool","internalType":"bool"},{"name":"useOnTransfer","type":"bool","internalType":"bool"},{"name":"useOnBorrow","type":"bool","internalType":"bool"},{"name":"useOnRepay","type":"bool","internalType":"bool"},{"name":"useOnCloseMarket","type":"bool","internalType":"bool"},{"name":"useOnNukeFromOrbit","type":"bool","internalType":"bool"},{"name":"useOnSetMaxTotalSupply","type":"bool","internalType":"bool"},{"name":"useOnSetAnnualInterestAndReserveRatioBips","type":"bool","internalType":"bool"},{"name":"useOnSetProtocolFeeBips","type":"bool","internalType":"bool"}]},{"name":"kind","type":"uint8","internalType":"enum HooksInstanceKind"},{"name":"transferRequiresAccess","type":"bool","internalType":"bool"},{"name":"depositRequiresAccess","type":"bool","internalType":"bool"},{"name":"minimumDeposit","type":"uint128","internalType":"uint128"},{"name":"transfersDisabled","type":"bool","internalType":"bool"},{"name":"allowForceBuyBacks","type":"bool","internalType":"bool"},{"name":"withdrawalRequiresAccess","type":"bool","internalType":"bool"},{"name":"fixedTermEndTime","type":"uint32","internalType":"uint32"},{"name":"allowClosureBeforeTerm","type":"bool","internalType":"bool"},{"name":"allowTermReduction","type":"bool","internalType":"bool"}]},{"name":"withdrawalBatchDuration","type":"uint256","internalType":"uint256"},{"name":"feeRecipient","type":"address","internalType":"address"},{"name":"delinquencyFeeBips","type":"uint256","internalType":"uint256"},{"name":"delinquencyGracePeriod","type":"uint256","internalType":"uint256"},{"name":"hooks","type":"tuple","internalType":"struct HooksInstanceData","components":[{"name":"hooksAddress","type":"address","internalType":"address"},{"name":"borrower","type":"address","internalType":"address"},{"name":"kind","type":"uint8","internalType":"enum HooksInstanceKind"},{"name":"hooksTemplate","type":"address","internalType":"address"},{"name":"hooksTemplateName","type":"string","internalType":"string"},{"name":"constraints","type":"tuple","internalType":"struct MarketParameterConstraints","components":[{"name":"minimumDelinquencyGracePeriod","type":"uint32","internalType":"uint32"},{"name":"maximumDelinquencyGracePeriod","type":"uint32","internalType":"uint32"},{"name":"minimumReserveRatioBips","type":"uint16","internalType":"uint16"},{"name":"maximumReserveRatioBips","type":"uint16","internalType":"uint16"},{"name":"minimumDelinquencyFeeBips","type":"uint16","internalType":"uint16"},{"name":"maximumDelinquencyFeeBips","type":"uint16","internalType":"uint16"},{"name":"minimumWithdrawalBatchDuration","type":"uint32","internalType":"uint32"},{"name":"maximumWithdrawalBatchDuration","type":"uint32","internalType":"uint32"},{"name":"minimumAnnualInterestBips","type":"uint16","internalType":"uint16"},{"name":"maximumAnnualInterestBips","type":"uint16","internalType":"uint16"}]},{"name":"deploymentFlags","type":"tuple","internalType":"struct HooksDeploymentFlags","components":[{"name":"optional","type":"tuple","internalType":"struct HooksConfigData","components":[{"name":"useOnDeposit","type":"bool","internalType":"bool"},{"name":"useOnQueueWithdrawal","type":"bool","internalType":"bool"},{"name":"useOnExecuteWithdrawal","type":"bool","internalType":"bool"},{"name":"useOnTransfer","type":"bool","internalType":"bool"},{"name":"useOnBorrow","type":"bool","internalType":"bool"},{"name":"useOnRepay","type":"bool","internalType":"bool"},{"name":"useOnCloseMarket","type":"bool","internalType":"bool"},{"name":"useOnNukeFromOrbit","type":"bool","internalType":"bool"},{"name":"useOnSetMaxTotalSupply","type":"bool","internalType":"bool"},{"name":"useOnSetAnnualInterestAndReserveRatioBips","type":"bool","internalType":"bool"},{"name":"useOnSetProtocolFeeBips","type":"bool","internalType":"bool"}]},{"name":"required","type":"tuple","internalType":"struct HooksConfigData","components":[{"name":"useOnDeposit","type":"bool","internalType":"bool"},{"name":"useOnQueueWithdrawal","type":"bool","internalType":"bool"},{"name":"useOnExecuteWithdrawal","type":"bool","internalType":"bool"},{"name":"useOnTransfer","type":"bool","internalType":"bool"},{"name":"useOnBorrow","type":"bool","internalType":"bool"},{"name":"useOnRepay","type":"bool","internalType":"bool"},{"name":"useOnCloseMarket","type":"bool","internalType":"bool"},{"name":"useOnNukeFromOrbit","type":"bool","internalType":"bool"},{"name":"useOnSetMaxTotalSupply","type":"bool","internalType":"bool"},{"name":"useOnSetAnnualInterestAndReserveRatioBips","type":"bool","internalType":"bool"},{"name":"useOnSetProtocolFeeBips","type":"bool","internalType":"bool"}]}]},{"name":"pullProviders","type":"tuple[]","internalType":"struct RoleProviderData[]","components":[{"name":"timeToLive","type":"uint32","internalType":"uint32"},{"name":"providerAddress","type":"address","internalType":"address"},{"name":"pullProviderIndex","type":"uint24","internalType":"uint24"},{"name":"pushProviderIndex","type":"uint24","internalType":"uint24"}]},{"name":"pushProviders","type":"tuple[]","internalType":"struct RoleProviderData[]","components":[{"name":"timeToLive","type":"uint32","internalType":"uint32"},{"name":"providerAddress","type":"address","internalType":"address"},{"name":"pullProviderIndex","type":"uint24","internalType":"uint24"},{"name":"pushProviderIndex","type":"uint24","internalType":"uint24"}]},{"name":"totalMarkets","type":"uint256","internalType":"uint256"}]},{"name":"temporaryReserveRatio","type":"bool","internalType":"bool"},{"name":"originalAnnualInterestBips","type":"uint256","internalType":"uint256"},{"name":"originalReserveRatioBips","type":"uint256","internalType":"uint256"},{"name":"temporaryReserveRatioExpiry","type":"uint256","internalType":"uint256"},{"name":"isClosed","type":"bool","internalType":"bool"},{"name":"protocolFeeBips","type":"uint256","internalType":"uint256"},{"name":"reserveRatioBips","type":"uint256","internalType":"uint256"},{"name":"annualInterestBips","type":"uint256","internalType":"uint256"},{"name":"scaleFactor","type":"uint256","internalType":"uint256"},{"name":"totalSupply","type":"uint256","internalType":"uint256"},{"name":"maxTotalSupply","type":"uint256","internalType":"uint256"},{"name":"scaledTotalSupply","type":"uint256","internalType":"uint256"},{"name":"totalAssets","type":"uint256","internalType":"uint256"},{"name":"lastAccruedProtocolFees","type":"uint256","internalType":"uint256"},{"name":"normalizedUnclaimedWithdrawals","type":"uint256","internalType":"uint256"},{"name":"scaledPendingWithdrawals","type":"uint256","internalType":"uint256"},{"name":"pendingWithdrawalExpiry","type":"uint256","internalType":"uint256"},{"name":"isDelinquent","type":"bool","internalType":"bool"},{"name":"timeDelinquent","type":"uint256","internalType":"uint256"},{"name":"lastInterestAccruedTimestamp","type":"uint256","internalType":"uint256"},{"name":"unpaidWithdrawalBatchExpiries","type":"uint32[]","internalType":"uint32[]"},{"name":"coverageLiquidity","type":"uint256","internalType":"uint256"}]}],"stateMutability":"view"},{"type":"function","name":"getMarketsDataWithLenderStatus","inputs":[{"name":"lender","type":"address","internalType":"address"},{"name":"markets","type":"address[]","internalType":"address[]"}],"outputs":[{"name":"data","type":"tuple[]","internalType":"struct MarketDataWithLenderStatus[]","components":[{"name":"market","type":"tuple","internalType":"struct MarketData","components":[{"name":"marketToken","type":"tuple","internalType":"struct TokenMetadata","components":[{"name":"token","type":"address","internalType":"address"},{"name":"name","type":"string","internalType":"string"},{"name":"symbol","type":"string","internalType":"string"},{"name":"decimals","type":"uint256","internalType":"uint256"},{"name":"isMock","type":"bool","internalType":"bool"}]},{"name":"underlyingToken","type":"tuple","internalType":"struct TokenMetadata","components":[{"name":"token","type":"address","internalType":"address"},{"name":"name","type":"string","internalType":"string"},{"name":"symbol","type":"string","internalType":"string"},{"name":"decimals","type":"uint256","internalType":"uint256"},{"name":"isMock","type":"bool","internalType":"bool"}]},{"name":"hooksFactory","type":"address","internalType":"address"},{"name":"borrower","type":"address","internalType":"address"},{"name":"hooksConfig","type":"tuple","internalType":"struct MarketHooksData","components":[{"name":"hooksAddress","type":"address","internalType":"address"},{"name":"flags","type":"tuple","internalType":"struct HooksConfigData","components":[{"name":"useOnDeposit","type":"bool","internalType":"bool"},{"name":"useOnQueueWithdrawal","type":"bool","internalType":"bool"},{"name":"useOnExecuteWithdrawal","type":"bool","internalType":"bool"},{"name":"useOnTransfer","type":"bool","internalType":"bool"},{"name":"useOnBorrow","type":"bool","internalType":"bool"},{"name":"useOnRepay","type":"bool","internalType":"bool"},{"name":"useOnCloseMarket","type":"bool","internalType":"bool"},{"name":"useOnNukeFromOrbit","type":"bool","internalType":"bool"},{"name":"useOnSetMaxTotalSupply","type":"bool","internalType":"bool"},{"name":"useOnSetAnnualInterestAndReserveRatioBips","type":"bool","internalType":"bool"},{"name":"useOnSetProtocolFeeBips","type":"bool","internalType":"bool"}]},{"name":"kind","type":"uint8","internalType":"enum HooksInstanceKind"},{"name":"transferRequiresAccess","type":"bool","internalType":"bool"},{"name":"depositRequiresAccess","type":"bool","internalType":"bool"},{"name":"minimumDeposit","type":"uint128","internalType":"uint128"},{"name":"transfersDisabled","type":"bool","internalType":"bool"},{"name":"allowForceBuyBacks","type":"bool","internalType":"bool"},{"name":"withdrawalRequiresAccess","type":"bool","internalType":"bool"},{"name":"fixedTermEndTime","type":"uint32","internalType":"uint32"},{"name":"allowClosureBeforeTerm","type":"bool","internalType":"bool"},{"name":"allowTermReduction","type":"bool","internalType":"bool"}]},{"name":"withdrawalBatchDuration","type":"uint256","internalType":"uint256"},{"name":"feeRecipient","type":"address","internalType":"address"},{"name":"delinquencyFeeBips","type":"uint256","internalType":"uint256"},{"name":"delinquencyGracePeriod","type":"uint256","internalType":"uint256"},{"name":"hooks","type":"tuple","internalType":"struct HooksInstanceData","components":[{"name":"hooksAddress","type":"address","internalType":"address"},{"name":"borrower","type":"address","internalType":"address"},{"name":"kind","type":"uint8","internalType":"enum HooksInstanceKind"},{"name":"hooksTemplate","type":"address","internalType":"address"},{"name":"hooksTemplateName","type":"string","internalType":"string"},{"name":"constraints","type":"tuple","internalType":"struct MarketParameterConstraints","components":[{"name":"minimumDelinquencyGracePeriod","type":"uint32","internalType":"uint32"},{"name":"maximumDelinquencyGracePeriod","type":"uint32","internalType":"uint32"},{"name":"minimumReserveRatioBips","type":"uint16","internalType":"uint16"},{"name":"maximumReserveRatioBips","type":"uint16","internalType":"uint16"},{"name":"minimumDelinquencyFeeBips","type":"uint16","internalType":"uint16"},{"name":"maximumDelinquencyFeeBips","type":"uint16","internalType":"uint16"},{"name":"minimumWithdrawalBatchDuration","type":"uint32","internalType":"uint32"},{"name":"maximumWithdrawalBatchDuration","type":"uint32","internalType":"uint32"},{"name":"minimumAnnualInterestBips","type":"uint16","internalType":"uint16"},{"name":"maximumAnnualInterestBips","type":"uint16","internalType":"uint16"}]},{"name":"deploymentFlags","type":"tuple","internalType":"struct HooksDeploymentFlags","components":[{"name":"optional","type":"tuple","internalType":"struct HooksConfigData","components":[{"name":"useOnDeposit","type":"bool","internalType":"bool"},{"name":"useOnQueueWithdrawal","type":"bool","internalType":"bool"},{"name":"useOnExecuteWithdrawal","type":"bool","internalType":"bool"},{"name":"useOnTransfer","type":"bool","internalType":"bool"},{"name":"useOnBorrow","type":"bool","internalType":"bool"},{"name":"useOnRepay","type":"bool","internalType":"bool"},{"name":"useOnCloseMarket","type":"bool","internalType":"bool"},{"name":"useOnNukeFromOrbit","type":"bool","internalType":"bool"},{"name":"useOnSetMaxTotalSupply","type":"bool","internalType":"bool"},{"name":"useOnSetAnnualInterestAndReserveRatioBips","type":"bool","internalType":"bool"},{"name":"useOnSetProtocolFeeBips","type":"bool","internalType":"bool"}]},{"name":"required","type":"tuple","internalType":"struct HooksConfigData","components":[{"name":"useOnDeposit","type":"bool","internalType":"bool"},{"name":"useOnQueueWithdrawal","type":"bool","internalType":"bool"},{"name":"useOnExecuteWithdrawal","type":"bool","internalType":"bool"},{"name":"useOnTransfer","type":"bool","internalType":"bool"},{"name":"useOnBorrow","type":"bool","internalType":"bool"},{"name":"useOnRepay","type":"bool","internalType":"bool"},{"name":"useOnCloseMarket","type":"bool","internalType":"bool"},{"name":"useOnNukeFromOrbit","type":"bool","internalType":"bool"},{"name":"useOnSetMaxTotalSupply","type":"bool","internalType":"bool"},{"name":"useOnSetAnnualInterestAndReserveRatioBips","type":"bool","internalType":"bool"},{"name":"useOnSetProtocolFeeBips","type":"bool","internalType":"bool"}]}]},{"name":"pullProviders","type":"tuple[]","internalType":"struct RoleProviderData[]","components":[{"name":"timeToLive","type":"uint32","internalType":"uint32"},{"name":"providerAddress","type":"address","internalType":"address"},{"name":"pullProviderIndex","type":"uint24","internalType":"uint24"},{"name":"pushProviderIndex","type":"uint24","internalType":"uint24"}]},{"name":"pushProviders","type":"tuple[]","internalType":"struct RoleProviderData[]","components":[{"name":"timeToLive","type":"uint32","internalType":"uint32"},{"name":"providerAddress","type":"address","internalType":"address"},{"name":"pullProviderIndex","type":"uint24","internalType":"uint24"},{"name":"pushProviderIndex","type":"uint24","internalType":"uint24"}]},{"name":"totalMarkets","type":"uint256","internalType":"uint256"}]},{"name":"temporaryReserveRatio","type":"bool","internalType":"bool"},{"name":"originalAnnualInterestBips","type":"uint256","internalType":"uint256"},{"name":"originalReserveRatioBips","type":"uint256","internalType":"uint256"},{"name":"temporaryReserveRatioExpiry","type":"uint256","internalType":"uint256"},{"name":"isClosed","type":"bool","internalType":"bool"},{"name":"protocolFeeBips","type":"uint256","internalType":"uint256"},{"name":"reserveRatioBips","type":"uint256","internalType":"uint256"},{"name":"annualInterestBips","type":"uint256","internalType":"uint256"},{"name":"scaleFactor","type":"uint256","internalType":"uint256"},{"name":"totalSupply","type":"uint256","internalType":"uint256"},{"name":"maxTotalSupply","type":"uint256","internalType":"uint256"},{"name":"scaledTotalSupply","type":"uint256","internalType":"uint256"},{"name":"totalAssets","type":"uint256","internalType":"uint256"},{"name":"lastAccruedProtocolFees","type":"uint256","internalType":"uint256"},{"name":"normalizedUnclaimedWithdrawals","type":"uint256","internalType":"uint256"},{"name":"scaledPendingWithdrawals","type":"uint256","internalType":"uint256"},{"name":"pendingWithdrawalExpiry","type":"uint256","internalType":"uint256"},{"name":"isDelinquent","type":"bool","internalType":"bool"},{"name":"timeDelinquent","type":"uint256","internalType":"uint256"},{"name":"lastInterestAccruedTimestamp","type":"uint256","internalType":"uint256"},{"name":"unpaidWithdrawalBatchExpiries","type":"uint32[]","internalType":"uint32[]"},{"name":"coverageLiquidity","type":"uint256","internalType":"uint256"}]},{"name":"lenderStatus","type":"tuple","internalType":"struct LenderAccountData","components":[{"name":"lender","type":"address","internalType":"address"},{"name":"scaledBalance","type":"uint256","internalType":"uint256"},{"name":"normalizedBalance","type":"uint256","internalType":"uint256"},{"name":"underlyingBalance","type":"uint256","internalType":"uint256"},{"name":"underlyingApproval","type":"uint256","internalType":"uint256"},{"name":"isBlockedFromDeposits","type":"bool","internalType":"bool"},{"name":"lastProvider","type":"tuple","internalType":"struct RoleProviderData","components":[{"name":"timeToLive","type":"uint32","internalType":"uint32"},{"name":"providerAddress","type":"address","internalType":"address"},{"name":"pullProviderIndex","type":"uint24","internalType":"uint24"},{"name":"pushProviderIndex","type":"uint24","internalType":"uint24"}]},{"name":"canRefresh","type":"bool","internalType":"bool"},{"name":"lastApprovalTimestamp","type":"uint32","internalType":"uint32"},{"name":"isKnownLender","type":"bool","internalType":"bool"}]}]}],"stateMutability":"view"},{"type":"function","name":"getMarketsForHooksTemplateCount","inputs":[{"name":"hooksTemplate","type":"address","internalType":"address"}],"outputs":[{"name":"","type":"uint256","internalType":"uint256"}],"stateMutability":"view"},{"type":"function","name":"getPaginatedMarketsDataForHooksTemplate","inputs":[{"name":"hooksTemplate","type":"address","internalType":"address"},{"name":"start","type":"uint256","internalType":"uint256"},{"name":"end","type":"uint256","internalType":"uint256"}],"outputs":[{"name":"data","type":"tuple[]","internalType":"struct MarketData[]","components":[{"name":"marketToken","type":"tuple","internalType":"struct TokenMetadata","components":[{"name":"token","type":"address","internalType":"address"},{"name":"name","type":"string","internalType":"string"},{"name":"symbol","type":"string","internalType":"string"},{"name":"decimals","type":"uint256","internalType":"uint256"},{"name":"isMock","type":"bool","internalType":"bool"}]},{"name":"underlyingToken","type":"tuple","internalType":"struct TokenMetadata","components":[{"name":"token","type":"address","internalType":"address"},{"name":"name","type":"string","internalType":"string"},{"name":"symbol","type":"string","internalType":"string"},{"name":"decimals","type":"uint256","internalType":"uint256"},{"name":"isMock","type":"bool","internalType":"bool"}]},{"name":"hooksFactory","type":"address","internalType":"address"},{"name":"borrower","type":"address","internalType":"address"},{"name":"hooksConfig","type":"tuple","internalType":"struct MarketHooksData","components":[{"name":"hooksAddress","type":"address","internalType":"address"},{"name":"flags","type":"tuple","internalType":"struct HooksConfigData","components":[{"name":"useOnDeposit","type":"bool","internalType":"bool"},{"name":"useOnQueueWithdrawal","type":"bool","internalType":"bool"},{"name":"useOnExecuteWithdrawal","type":"bool","internalType":"bool"},{"name":"useOnTransfer","type":"bool","internalType":"bool"},{"name":"useOnBorrow","type":"bool","internalType":"bool"},{"name":"useOnRepay","type":"bool","internalType":"bool"},{"name":"useOnCloseMarket","type":"bool","internalType":"bool"},{"name":"useOnNukeFromOrbit","type":"bool","internalType":"bool"},{"name":"useOnSetMaxTotalSupply","type":"bool","internalType":"bool"},{"name":"useOnSetAnnualInterestAndReserveRatioBips","type":"bool","internalType":"bool"},{"name":"useOnSetProtocolFeeBips","type":"bool","internalType":"bool"}]},{"name":"kind","type":"uint8","internalType":"enum HooksInstanceKind"},{"name":"transferRequiresAccess","type":"bool","internalType":"bool"},{"name":"depositRequiresAccess","type":"bool","internalType":"bool"},{"name":"minimumDeposit","type":"uint128","internalType":"uint128"},{"name":"transfersDisabled","type":"bool","internalType":"bool"},{"name":"allowForceBuyBacks","type":"bool","internalType":"bool"},{"name":"withdrawalRequiresAccess","type":"bool","internalType":"bool"},{"name":"fixedTermEndTime","type":"uint32","internalType":"uint32"},{"name":"allowClosureBeforeTerm","type":"bool","internalType":"bool"},{"name":"allowTermReduction","type":"bool","internalType":"bool"}]},{"name":"withdrawalBatchDuration","type":"uint256","internalType":"uint256"},{"name":"feeRecipient","type":"address","internalType":"address"},{"name":"delinquencyFeeBips","type":"uint256","internalType":"uint256"},{"name":"delinquencyGracePeriod","type":"uint256","internalType":"uint256"},{"name":"hooks","type":"tuple","internalType":"struct HooksInstanceData","components":[{"name":"hooksAddress","type":"address","internalType":"address"},{"name":"borrower","type":"address","internalType":"address"},{"name":"kind","type":"uint8","internalType":"enum HooksInstanceKind"},{"name":"hooksTemplate","type":"address","internalType":"address"},{"name":"hooksTemplateName","type":"string","internalType":"string"},{"name":"constraints","type":"tuple","internalType":"struct MarketParameterConstraints","components":[{"name":"minimumDelinquencyGracePeriod","type":"uint32","internalType":"uint32"},{"name":"maximumDelinquencyGracePeriod","type":"uint32","internalType":"uint32"},{"name":"minimumReserveRatioBips","type":"uint16","internalType":"uint16"},{"name":"maximumReserveRatioBips","type":"uint16","internalType":"uint16"},{"name":"minimumDelinquencyFeeBips","type":"uint16","internalType":"uint16"},{"name":"maximumDelinquencyFeeBips","type":"uint16","internalType":"uint16"},{"name":"minimumWithdrawalBatchDuration","type":"uint32","internalType":"uint32"},{"name":"maximumWithdrawalBatchDuration","type":"uint32","internalType":"uint32"},{"name":"minimumAnnualInterestBips","type":"uint16","internalType":"uint16"},{"name":"maximumAnnualInterestBips","type":"uint16","internalType":"uint16"}]},{"name":"deploymentFlags","type":"tuple","internalType":"struct HooksDeploymentFlags","components":[{"name":"optional","type":"tuple","internalType":"struct HooksConfigData","components":[{"name":"useOnDeposit","type":"bool","internalType":"bool"},{"name":"useOnQueueWithdrawal","type":"bool","internalType":"bool"},{"name":"useOnExecuteWithdrawal","type":"bool","internalType":"bool"},{"name":"useOnTransfer","type":"bool","internalType":"bool"},{"name":"useOnBorrow","type":"bool","internalType":"bool"},{"name":"useOnRepay","type":"bool","internalType":"bool"},{"name":"useOnCloseMarket","type":"bool","internalType":"bool"},{"name":"useOnNukeFromOrbit","type":"bool","internalType":"bool"},{"name":"useOnSetMaxTotalSupply","type":"bool","internalType":"bool"},{"name":"useOnSetAnnualInterestAndReserveRatioBips","type":"bool","internalType":"bool"},{"name":"useOnSetProtocolFeeBips","type":"bool","internalType":"bool"}]},{"name":"required","type":"tuple","internalType":"struct HooksConfigData","components":[{"name":"useOnDeposit","type":"bool","internalType":"bool"},{"name":"useOnQueueWithdrawal","type":"bool","internalType":"bool"},{"name":"useOnExecuteWithdrawal","type":"bool","internalType":"bool"},{"name":"useOnTransfer","type":"bool","internalType":"bool"},{"name":"useOnBorrow","type":"bool","internalType":"bool"},{"name":"useOnRepay","type":"bool","internalType":"bool"},{"name":"useOnCloseMarket","type":"bool","internalType":"bool"},{"name":"useOnNukeFromOrbit","type":"bool","internalType":"bool"},{"name":"useOnSetMaxTotalSupply","type":"bool","internalType":"bool"},{"name":"useOnSetAnnualInterestAndReserveRatioBips","type":"bool","internalType":"bool"},{"name":"useOnSetProtocolFeeBips","type":"bool","internalType":"bool"}]}]},{"name":"pullProviders","type":"tuple[]","internalType":"struct RoleProviderData[]","components":[{"name":"timeToLive","type":"uint32","internalType":"uint32"},{"name":"providerAddress","type":"address","internalType":"address"},{"name":"pullProviderIndex","type":"uint24","internalType":"uint24"},{"name":"pushProviderIndex","type":"uint24","internalType":"uint24"}]},{"name":"pushProviders","type":"tuple[]","internalType":"struct RoleProviderData[]","components":[{"name":"timeToLive","type":"uint32","internalType":"uint32"},{"name":"providerAddress","type":"address","internalType":"address"},{"name":"pullProviderIndex","type":"uint24","internalType":"uint24"},{"name":"pushProviderIndex","type":"uint24","internalType":"uint24"}]},{"name":"totalMarkets","type":"uint256","internalType":"uint256"}]},{"name":"temporaryReserveRatio","type":"bool","internalType":"bool"},{"name":"originalAnnualInterestBips","type":"uint256","internalType":"uint256"},{"name":"originalReserveRatioBips","type":"uint256","internalType":"uint256"},{"name":"temporaryReserveRatioExpiry","type":"uint256","internalType":"uint256"},{"name":"isClosed","type":"bool","internalType":"bool"},{"name":"protocolFeeBips","type":"uint256","internalType":"uint256"},{"name":"reserveRatioBips","type":"uint256","internalType":"uint256"},{"name":"annualInterestBips","type":"uint256","internalType":"uint256"},{"name":"scaleFactor","type":"uint256","internalType":"uint256"},{"name":"totalSupply","type":"uint256","internalType":"uint256"},{"name":"maxTotalSupply","type":"uint256","internalType":"uint256"},{"name":"scaledTotalSupply","type":"uint256","internalType":"uint256"},{"name":"totalAssets","type":"uint256","internalType":"uint256"},{"name":"lastAccruedProtocolFees","type":"uint256","internalType":"uint256"},{"name":"normalizedUnclaimedWithdrawals","type":"uint256","internalType":"uint256"},{"name":"scaledPendingWithdrawals","type":"uint256","internalType":"uint256"},{"name":"pendingWithdrawalExpiry","type":"uint256","internalType":"uint256"},{"name":"isDelinquent","type":"bool","internalType":"bool"},{"name":"timeDelinquent","type":"uint256","internalType":"uint256"},{"name":"lastInterestAccruedTimestamp","type":"uint256","internalType":"uint256"},{"name":"unpaidWithdrawalBatchExpiries","type":"uint32[]","internalType":"uint32[]"},{"name":"coverageLiquidity","type":"uint256","internalType":"uint256"}]}],"stateMutability":"view"},{"type":"function","name":"getTokenInfo","inputs":[{"name":"token","type":"address","internalType":"address"}],"outputs":[{"name":"info","type":"tuple","internalType":"struct TokenMetadata","components":[{"name":"token","type":"address","internalType":"address"},{"name":"name","type":"string","internalType":"string"},{"name":"symbol","type":"string","internalType":"string"},{"name":"decimals","type":"uint256","internalType":"uint256"},{"name":"isMock","type":"bool","internalType":"bool"}]}],"stateMutability":"view"},{"type":"function","name":"getTokensInfo","inputs":[{"name":"tokens","type":"address[]","internalType":"address[]"}],"outputs":[{"name":"info","type":"tuple[]","internalType":"struct TokenMetadata[]","components":[{"name":"token","type":"address","internalType":"address"},{"name":"name","type":"string","internalType":"string"},{"name":"symbol","type":"string","internalType":"string"},{"name":"decimals","type":"uint256","internalType":"uint256"},{"name":"isMock","type":"bool","internalType":"bool"}]}],"stateMutability":"view"},{"type":"function","name":"getWithdrawalBatchData","inputs":[{"name":"market","type":"address","internalType":"address"},{"name":"expiry","type":"uint32","internalType":"uint32"}],"outputs":[{"name":"data","type":"tuple","internalType":"struct WithdrawalBatchData","components":[{"name":"expiry","type":"uint32","internalType":"uint32"},{"name":"status","type":"uint8","internalType":"enum BatchStatus"},{"name":"scaledTotalAmount","type":"uint256","internalType":"uint256"},{"name":"scaledAmountBurned","type":"uint256","internalType":"uint256"},{"name":"normalizedAmountPaid","type":"uint256","internalType":"uint256"},{"name":"normalizedTotalAmount","type":"uint256","internalType":"uint256"}]}],"stateMutability":"view"},{"type":"function","name":"getWithdrawalBatchDataWithLenderStatus","inputs":[{"name":"market","type":"address","internalType":"address"},{"name":"expiry","type":"uint32","internalType":"uint32"},{"name":"lender","type":"address","internalType":"address"}],"outputs":[{"name":"status","type":"tuple","internalType":"struct WithdrawalBatchDataWithLenderStatus","components":[{"name":"batch","type":"tuple","internalType":"struct WithdrawalBatchData","components":[{"name":"expiry","type":"uint32","internalType":"uint32"},{"name":"status","type":"uint8","internalType":"enum BatchStatus"},{"name":"scaledTotalAmount","type":"uint256","internalType":"uint256"},{"name":"scaledAmountBurned","type":"uint256","internalType":"uint256"},{"name":"normalizedAmountPaid","type":"uint256","internalType":"uint256"},{"name":"normalizedTotalAmount","type":"uint256","internalType":"uint256"}]},{"name":"lenderStatus","type":"tuple","internalType":"struct WithdrawalBatchLenderStatus","components":[{"name":"lender","type":"address","internalType":"address"},{"name":"scaledAmount","type":"uint256","internalType":"uint256"},{"name":"normalizedAmountWithdrawn","type":"uint256","internalType":"uint256"},{"name":"normalizedAmountOwed","type":"uint256","internalType":"uint256"},{"name":"availableWithdrawalAmount","type":"uint256","internalType":"uint256"}]}]}],"stateMutability":"view"},{"type":"function","name":"getWithdrawalBatchDataWithLendersStatus","inputs":[{"name":"market","type":"address","internalType":"address"},{"name":"expiry","type":"uint32","internalType":"uint32"},{"name":"lenders","type":"address[]","internalType":"address[]"}],"outputs":[{"name":"batch","type":"tuple","internalType":"struct WithdrawalBatchData","components":[{"name":"expiry","type":"uint32","internalType":"uint32"},{"name":"status","type":"uint8","internalType":"enum BatchStatus"},{"name":"scaledTotalAmount","type":"uint256","internalType":"uint256"},{"name":"scaledAmountBurned","type":"uint256","internalType":"uint256"},{"name":"normalizedAmountPaid","type":"uint256","internalType":"uint256"},{"name":"normalizedTotalAmount","type":"uint256","internalType":"uint256"}]},{"name":"statuses","type":"tuple[]","internalType":"struct WithdrawalBatchLenderStatus[]","components":[{"name":"lender","type":"address","internalType":"address"},{"name":"scaledAmount","type":"uint256","internalType":"uint256"},{"name":"normalizedAmountWithdrawn","type":"uint256","internalType":"uint256"},{"name":"normalizedAmountOwed","type":"uint256","internalType":"uint256"},{"name":"availableWithdrawalAmount","type":"uint256","internalType":"uint256"}]}],"stateMutability":"view"},{"type":"function","name":"getWithdrawalBatchesData","inputs":[{"name":"market","type":"address","internalType":"address"},{"name":"expiries","type":"uint32[]","internalType":"uint32[]"}],"outputs":[{"name":"data","type":"tuple[]","internalType":"struct WithdrawalBatchData[]","components":[{"name":"expiry","type":"uint32","internalType":"uint32"},{"name":"status","type":"uint8","internalType":"enum BatchStatus"},{"name":"scaledTotalAmount","type":"uint256","internalType":"uint256"},{"name":"scaledAmountBurned","type":"uint256","internalType":"uint256"},{"name":"normalizedAmountPaid","type":"uint256","internalType":"uint256"},{"name":"normalizedTotalAmount","type":"uint256","internalType":"uint256"}]}],"stateMutability":"view"},{"type":"function","name":"getWithdrawalBatchesDataWithLenderStatus","inputs":[{"name":"market","type":"address","internalType":"address"},{"name":"expiries","type":"uint32[]","internalType":"uint32[]"},{"name":"lender","type":"address","internalType":"address"}],"outputs":[{"name":"statuses","type":"tuple[]","internalType":"struct WithdrawalBatchDataWithLenderStatus[]","components":[{"name":"batch","type":"tuple","internalType":"struct WithdrawalBatchData","components":[{"name":"expiry","type":"uint32","internalType":"uint32"},{"name":"status","type":"uint8","internalType":"enum BatchStatus"},{"name":"scaledTotalAmount","type":"uint256","internalType":"uint256"},{"name":"scaledAmountBurned","type":"uint256","internalType":"uint256"},{"name":"normalizedAmountPaid","type":"uint256","internalType":"uint256"},{"name":"normalizedTotalAmount","type":"uint256","internalType":"uint256"}]},{"name":"lenderStatus","type":"tuple","internalType":"struct WithdrawalBatchLenderStatus","components":[{"name":"lender","type":"address","internalType":"address"},{"name":"scaledAmount","type":"uint256","internalType":"uint256"},{"name":"normalizedAmountWithdrawn","type":"uint256","internalType":"uint256"},{"name":"normalizedAmountOwed","type":"uint256","internalType":"uint256"},{"name":"availableWithdrawalAmount","type":"uint256","internalType":"uint256"}]}]}],"stateMutability":"view"},{"type":"function","name":"hooksFactory","inputs":[],"outputs":[{"name":"","type":"address","internalType":"contract HooksFactory"}],"stateMutability":"view"},{"type":"function","name":"queryLenderAccount","inputs":[{"name":"query","type":"tuple","internalType":"struct LenderAccountQuery","components":[{"name":"lender","type":"address","internalType":"address"},{"name":"market","type":"address","internalType":"address"},{"name":"withdrawalBatchExpiries","type":"uint32[]","internalType":"uint32[]"}]}],"outputs":[{"name":"result","type":"tuple","internalType":"struct LenderAccountQueryResult","components":[{"name":"market","type":"tuple","internalType":"struct MarketData","components":[{"name":"marketToken","type":"tuple","internalType":"struct TokenMetadata","components":[{"name":"token","type":"address","internalType":"address"},{"name":"name","type":"string","internalType":"string"},{"name":"symbol","type":"string","internalType":"string"},{"name":"decimals","type":"uint256","internalType":"uint256"},{"name":"isMock","type":"bool","internalType":"bool"}]},{"name":"underlyingToken","type":"tuple","internalType":"struct TokenMetadata","components":[{"name":"token","type":"address","internalType":"address"},{"name":"name","type":"string","internalType":"string"},{"name":"symbol","type":"string","internalType":"string"},{"name":"decimals","type":"uint256","internalType":"uint256"},{"name":"isMock","type":"bool","internalType":"bool"}]},{"name":"hooksFactory","type":"address","internalType":"address"},{"name":"borrower","type":"address","internalType":"address"},{"name":"hooksConfig","type":"tuple","internalType":"struct MarketHooksData","components":[{"name":"hooksAddress","type":"address","internalType":"address"},{"name":"flags","type":"tuple","internalType":"struct HooksConfigData","components":[{"name":"useOnDeposit","type":"bool","internalType":"bool"},{"name":"useOnQueueWithdrawal","type":"bool","internalType":"bool"},{"name":"useOnExecuteWithdrawal","type":"bool","internalType":"bool"},{"name":"useOnTransfer","type":"bool","internalType":"bool"},{"name":"useOnBorrow","type":"bool","internalType":"bool"},{"name":"useOnRepay","type":"bool","internalType":"bool"},{"name":"useOnCloseMarket","type":"bool","internalType":"bool"},{"name":"useOnNukeFromOrbit","type":"bool","internalType":"bool"},{"name":"useOnSetMaxTotalSupply","type":"bool","internalType":"bool"},{"name":"useOnSetAnnualInterestAndReserveRatioBips","type":"bool","internalType":"bool"},{"name":"useOnSetProtocolFeeBips","type":"bool","internalType":"bool"}]},{"name":"kind","type":"uint8","internalType":"enum HooksInstanceKind"},{"name":"transferRequiresAccess","type":"bool","internalType":"bool"},{"name":"depositRequiresAccess","type":"bool","internalType":"bool"},{"name":"minimumDeposit","type":"uint128","internalType":"uint128"},{"name":"transfersDisabled","type":"bool","internalType":"bool"},{"name":"allowForceBuyBacks","type":"bool","internalType":"bool"},{"name":"withdrawalRequiresAccess","type":"bool","internalType":"bool"},{"name":"fixedTermEndTime","type":"uint32","internalType":"uint32"},{"name":"allowClosureBeforeTerm","type":"bool","internalType":"bool"},{"name":"allowTermReduction","type":"bool","internalType":"bool"}]},{"name":"withdrawalBatchDuration","type":"uint256","internalType":"uint256"},{"name":"feeRecipient","type":"address","internalType":"address"},{"name":"delinquencyFeeBips","type":"uint256","internalType":"uint256"},{"name":"delinquencyGracePeriod","type":"uint256","internalType":"uint256"},{"name":"hooks","type":"tuple","internalType":"struct HooksInstanceData","components":[{"name":"hooksAddress","type":"address","internalType":"address"},{"name":"borrower","type":"address","internalType":"address"},{"name":"kind","type":"uint8","internalType":"enum HooksInstanceKind"},{"name":"hooksTemplate","type":"address","internalType":"address"},{"name":"hooksTemplateName","type":"string","internalType":"string"},{"name":"constraints","type":"tuple","internalType":"struct MarketParameterConstraints","components":[{"name":"minimumDelinquencyGracePeriod","type":"uint32","internalType":"uint32"},{"name":"maximumDelinquencyGracePeriod","type":"uint32","internalType":"uint32"},{"name":"minimumReserveRatioBips","type":"uint16","internalType":"uint16"},{"name":"maximumReserveRatioBips","type":"uint16","internalType":"uint16"},{"name":"minimumDelinquencyFeeBips","type":"uint16","internalType":"uint16"},{"name":"maximumDelinquencyFeeBips","type":"uint16","internalType":"uint16"},{"name":"minimumWithdrawalBatchDuration","type":"uint32","internalType":"uint32"},{"name":"maximumWithdrawalBatchDuration","type":"uint32","internalType":"uint32"},{"name":"minimumAnnualInterestBips","type":"uint16","internalType":"uint16"},{"name":"maximumAnnualInterestBips","type":"uint16","internalType":"uint16"}]},{"name":"deploymentFlags","type":"tuple","internalType":"struct HooksDeploymentFlags","components":[{"name":"optional","type":"tuple","internalType":"struct HooksConfigData","components":[{"name":"useOnDeposit","type":"bool","internalType":"bool"},{"name":"useOnQueueWithdrawal","type":"bool","internalType":"bool"},{"name":"useOnExecuteWithdrawal","type":"bool","internalType":"bool"},{"name":"useOnTransfer","type":"bool","internalType":"bool"},{"name":"useOnBorrow","type":"bool","internalType":"bool"},{"name":"useOnRepay","type":"bool","internalType":"bool"},{"name":"useOnCloseMarket","type":"bool","internalType":"bool"},{"name":"useOnNukeFromOrbit","type":"bool","internalType":"bool"},{"name":"useOnSetMaxTotalSupply","type":"bool","internalType":"bool"},{"name":"useOnSetAnnualInterestAndReserveRatioBips","type":"bool","internalType":"bool"},{"name":"useOnSetProtocolFeeBips","type":"bool","internalType":"bool"}]},{"name":"required","type":"tuple","internalType":"struct HooksConfigData","components":[{"name":"useOnDeposit","type":"bool","internalType":"bool"},{"name":"useOnQueueWithdrawal","type":"bool","internalType":"bool"},{"name":"useOnExecuteWithdrawal","type":"bool","internalType":"bool"},{"name":"useOnTransfer","type":"bool","internalType":"bool"},{"name":"useOnBorrow","type":"bool","internalType":"bool"},{"name":"useOnRepay","type":"bool","internalType":"bool"},{"name":"useOnCloseMarket","type":"bool","internalType":"bool"},{"name":"useOnNukeFromOrbit","type":"bool","internalType":"bool"},{"name":"useOnSetMaxTotalSupply","type":"bool","internalType":"bool"},{"name":"useOnSetAnnualInterestAndReserveRatioBips","type":"bool","internalType":"bool"},{"name":"useOnSetProtocolFeeBips","type":"bool","internalType":"bool"}]}]},{"name":"pullProviders","type":"tuple[]","internalType":"struct RoleProviderData[]","components":[{"name":"timeToLive","type":"uint32","internalType":"uint32"},{"name":"providerAddress","type":"address","internalType":"address"},{"name":"pullProviderIndex","type":"uint24","internalType":"uint24"},{"name":"pushProviderIndex","type":"uint24","internalType":"uint24"}]},{"name":"pushProviders","type":"tuple[]","internalType":"struct RoleProviderData[]","components":[{"name":"timeToLive","type":"uint32","internalType":"uint32"},{"name":"providerAddress","type":"address","internalType":"address"},{"name":"pullProviderIndex","type":"uint24","internalType":"uint24"},{"name":"pushProviderIndex","type":"uint24","internalType":"uint24"}]},{"name":"totalMarkets","type":"uint256","internalType":"uint256"}]},{"name":"temporaryReserveRatio","type":"bool","internalType":"bool"},{"name":"originalAnnualInterestBips","type":"uint256","internalType":"uint256"},{"name":"originalReserveRatioBips","type":"uint256","internalType":"uint256"},{"name":"temporaryReserveRatioExpiry","type":"uint256","internalType":"uint256"},{"name":"isClosed","type":"bool","internalType":"bool"},{"name":"protocolFeeBips","type":"uint256","internalType":"uint256"},{"name":"reserveRatioBips","type":"uint256","internalType":"uint256"},{"name":"annualInterestBips","type":"uint256","internalType":"uint256"},{"name":"scaleFactor","type":"uint256","internalType":"uint256"},{"name":"totalSupply","type":"uint256","internalType":"uint256"},{"name":"maxTotalSupply","type":"uint256","internalType":"uint256"},{"name":"scaledTotalSupply","type":"uint256","internalType":"uint256"},{"name":"totalAssets","type":"uint256","internalType":"uint256"},{"name":"lastAccruedProtocolFees","type":"uint256","internalType":"uint256"},{"name":"normalizedUnclaimedWithdrawals","type":"uint256","internalType":"uint256"},{"name":"scaledPendingWithdrawals","type":"uint256","internalType":"uint256"},{"name":"pendingWithdrawalExpiry","type":"uint256","internalType":"uint256"},{"name":"isDelinquent","type":"bool","internalType":"bool"},{"name":"timeDelinquent","type":"uint256","internalType":"uint256"},{"name":"lastInterestAccruedTimestamp","type":"uint256","internalType":"uint256"},{"name":"unpaidWithdrawalBatchExpiries","type":"uint32[]","internalType":"uint32[]"},{"name":"coverageLiquidity","type":"uint256","internalType":"uint256"}]},{"name":"lenderStatus","type":"tuple","internalType":"struct LenderAccountData","components":[{"name":"lender","type":"address","internalType":"address"},{"name":"scaledBalance","type":"uint256","internalType":"uint256"},{"name":"normalizedBalance","type":"uint256","internalType":"uint256"},{"name":"underlyingBalance","type":"uint256","internalType":"uint256"},{"name":"underlyingApproval","type":"uint256","internalType":"uint256"},{"name":"isBlockedFromDeposits","type":"bool","internalType":"bool"},{"name":"lastProvider","type":"tuple","internalType":"struct RoleProviderData","components":[{"name":"timeToLive","type":"uint32","internalType":"uint32"},{"name":"providerAddress","type":"address","internalType":"address"},{"name":"pullProviderIndex","type":"uint24","internalType":"uint24"},{"name":"pushProviderIndex","type":"uint24","internalType":"uint24"}]},{"name":"canRefresh","type":"bool","internalType":"bool"},{"name":"lastApprovalTimestamp","type":"uint32","internalType":"uint32"},{"name":"isKnownLender","type":"bool","internalType":"bool"}]},{"name":"withdrawalBatches","type":"tuple[]","internalType":"struct WithdrawalBatchDataWithLenderStatus[]","components":[{"name":"batch","type":"tuple","internalType":"struct WithdrawalBatchData","components":[{"name":"expiry","type":"uint32","internalType":"uint32"},{"name":"status","type":"uint8","internalType":"enum BatchStatus"},{"name":"scaledTotalAmount","type":"uint256","internalType":"uint256"},{"name":"scaledAmountBurned","type":"uint256","internalType":"uint256"},{"name":"normalizedAmountPaid","type":"uint256","internalType":"uint256"},{"name":"normalizedTotalAmount","type":"uint256","internalType":"uint256"}]},{"name":"lenderStatus","type":"tuple","internalType":"struct WithdrawalBatchLenderStatus","components":[{"name":"lender","type":"address","internalType":"address"},{"name":"scaledAmount","type":"uint256","internalType":"uint256"},{"name":"normalizedAmountWithdrawn","type":"uint256","internalType":"uint256"},{"name":"normalizedAmountOwed","type":"uint256","internalType":"uint256"},{"name":"availableWithdrawalAmount","type":"uint256","internalType":"uint256"}]}]}]}],"stateMutability":"view"},{"type":"function","name":"queryLenderAccounts","inputs":[{"name":"queries","type":"tuple[]","internalType":"struct LenderAccountQuery[]","components":[{"name":"lender","type":"address","internalType":"address"},{"name":"market","type":"address","internalType":"address"},{"name":"withdrawalBatchExpiries","type":"uint32[]","internalType":"uint32[]"}]}],"outputs":[{"name":"result","type":"tuple[]","internalType":"struct LenderAccountQueryResult[]","components":[{"name":"market","type":"tuple","internalType":"struct MarketData","components":[{"name":"marketToken","type":"tuple","internalType":"struct TokenMetadata","components":[{"name":"token","type":"address","internalType":"address"},{"name":"name","type":"string","internalType":"string"},{"name":"symbol","type":"string","internalType":"string"},{"name":"decimals","type":"uint256","internalType":"uint256"},{"name":"isMock","type":"bool","internalType":"bool"}]},{"name":"underlyingToken","type":"tuple","internalType":"struct TokenMetadata","components":[{"name":"token","type":"address","internalType":"address"},{"name":"name","type":"string","internalType":"string"},{"name":"symbol","type":"string","internalType":"string"},{"name":"decimals","type":"uint256","internalType":"uint256"},{"name":"isMock","type":"bool","internalType":"bool"}]},{"name":"hooksFactory","type":"address","internalType":"address"},{"name":"borrower","type":"address","internalType":"address"},{"name":"hooksConfig","type":"tuple","internalType":"struct MarketHooksData","components":[{"name":"hooksAddress","type":"address","internalType":"address"},{"name":"flags","type":"tuple","internalType":"struct HooksConfigData","components":[{"name":"useOnDeposit","type":"bool","internalType":"bool"},{"name":"useOnQueueWithdrawal","type":"bool","internalType":"bool"},{"name":"useOnExecuteWithdrawal","type":"bool","internalType":"bool"},{"name":"useOnTransfer","type":"bool","internalType":"bool"},{"name":"useOnBorrow","type":"bool","internalType":"bool"},{"name":"useOnRepay","type":"bool","internalType":"bool"},{"name":"useOnCloseMarket","type":"bool","internalType":"bool"},{"name":"useOnNukeFromOrbit","type":"bool","internalType":"bool"},{"name":"useOnSetMaxTotalSupply","type":"bool","internalType":"bool"},{"name":"useOnSetAnnualInterestAndReserveRatioBips","type":"bool","internalType":"bool"},{"name":"useOnSetProtocolFeeBips","type":"bool","internalType":"bool"}]},{"name":"kind","type":"uint8","internalType":"enum HooksInstanceKind"},{"name":"transferRequiresAccess","type":"bool","internalType":"bool"},{"name":"depositRequiresAccess","type":"bool","internalType":"bool"},{"name":"minimumDeposit","type":"uint128","internalType":"uint128"},{"name":"transfersDisabled","type":"bool","internalType":"bool"},{"name":"allowForceBuyBacks","type":"bool","internalType":"bool"},{"name":"withdrawalRequiresAccess","type":"bool","internalType":"bool"},{"name":"fixedTermEndTime","type":"uint32","internalType":"uint32"},{"name":"allowClosureBeforeTerm","type":"bool","internalType":"bool"},{"name":"allowTermReduction","type":"bool","internalType":"bool"}]},{"name":"withdrawalBatchDuration","type":"uint256","internalType":"uint256"},{"name":"feeRecipient","type":"address","internalType":"address"},{"name":"delinquencyFeeBips","type":"uint256","internalType":"uint256"},{"name":"delinquencyGracePeriod","type":"uint256","internalType":"uint256"},{"name":"hooks","type":"tuple","internalType":"struct HooksInstanceData","components":[{"name":"hooksAddress","type":"address","internalType":"address"},{"name":"borrower","type":"address","internalType":"address"},{"name":"kind","type":"uint8","internalType":"enum HooksInstanceKind"},{"name":"hooksTemplate","type":"address","internalType":"address"},{"name":"hooksTemplateName","type":"string","internalType":"string"},{"name":"constraints","type":"tuple","internalType":"struct MarketParameterConstraints","components":[{"name":"minimumDelinquencyGracePeriod","type":"uint32","internalType":"uint32"},{"name":"maximumDelinquencyGracePeriod","type":"uint32","internalType":"uint32"},{"name":"minimumReserveRatioBips","type":"uint16","internalType":"uint16"},{"name":"maximumReserveRatioBips","type":"uint16","internalType":"uint16"},{"name":"minimumDelinquencyFeeBips","type":"uint16","internalType":"uint16"},{"name":"maximumDelinquencyFeeBips","type":"uint16","internalType":"uint16"},{"name":"minimumWithdrawalBatchDuration","type":"uint32","internalType":"uint32"},{"name":"maximumWithdrawalBatchDuration","type":"uint32","internalType":"uint32"},{"name":"minimumAnnualInterestBips","type":"uint16","internalType":"uint16"},{"name":"maximumAnnualInterestBips","type":"uint16","internalType":"uint16"}]},{"name":"deploymentFlags","type":"tuple","internalType":"struct HooksDeploymentFlags","components":[{"name":"optional","type":"tuple","internalType":"struct HooksConfigData","components":[{"name":"useOnDeposit","type":"bool","internalType":"bool"},{"name":"useOnQueueWithdrawal","type":"bool","internalType":"bool"},{"name":"useOnExecuteWithdrawal","type":"bool","internalType":"bool"},{"name":"useOnTransfer","type":"bool","internalType":"bool"},{"name":"useOnBorrow","type":"bool","internalType":"bool"},{"name":"useOnRepay","type":"bool","internalType":"bool"},{"name":"useOnCloseMarket","type":"bool","internalType":"bool"},{"name":"useOnNukeFromOrbit","type":"bool","internalType":"bool"},{"name":"useOnSetMaxTotalSupply","type":"bool","internalType":"bool"},{"name":"useOnSetAnnualInterestAndReserveRatioBips","type":"bool","internalType":"bool"},{"name":"useOnSetProtocolFeeBips","type":"bool","internalType":"bool"}]},{"name":"required","type":"tuple","internalType":"struct HooksConfigData","components":[{"name":"useOnDeposit","type":"bool","internalType":"bool"},{"name":"useOnQueueWithdrawal","type":"bool","internalType":"bool"},{"name":"useOnExecuteWithdrawal","type":"bool","internalType":"bool"},{"name":"useOnTransfer","type":"bool","internalType":"bool"},{"name":"useOnBorrow","type":"bool","internalType":"bool"},{"name":"useOnRepay","type":"bool","internalType":"bool"},{"name":"useOnCloseMarket","type":"bool","internalType":"bool"},{"name":"useOnNukeFromOrbit","type":"bool","internalType":"bool"},{"name":"useOnSetMaxTotalSupply","type":"bool","internalType":"bool"},{"name":"useOnSetAnnualInterestAndReserveRatioBips","type":"bool","internalType":"bool"},{"name":"useOnSetProtocolFeeBips","type":"bool","internalType":"bool"}]}]},{"name":"pullProviders","type":"tuple[]","internalType":"struct RoleProviderData[]","components":[{"name":"timeToLive","type":"uint32","internalType":"uint32"},{"name":"providerAddress","type":"address","internalType":"address"},{"name":"pullProviderIndex","type":"uint24","internalType":"uint24"},{"name":"pushProviderIndex","type":"uint24","internalType":"uint24"}]},{"name":"pushProviders","type":"tuple[]","internalType":"struct RoleProviderData[]","components":[{"name":"timeToLive","type":"uint32","internalType":"uint32"},{"name":"providerAddress","type":"address","internalType":"address"},{"name":"pullProviderIndex","type":"uint24","internalType":"uint24"},{"name":"pushProviderIndex","type":"uint24","internalType":"uint24"}]},{"name":"totalMarkets","type":"uint256","internalType":"uint256"}]},{"name":"temporaryReserveRatio","type":"bool","internalType":"bool"},{"name":"originalAnnualInterestBips","type":"uint256","internalType":"uint256"},{"name":"originalReserveRatioBips","type":"uint256","internalType":"uint256"},{"name":"temporaryReserveRatioExpiry","type":"uint256","internalType":"uint256"},{"name":"isClosed","type":"bool","internalType":"bool"},{"name":"protocolFeeBips","type":"uint256","internalType":"uint256"},{"name":"reserveRatioBips","type":"uint256","internalType":"uint256"},{"name":"annualInterestBips","type":"uint256","internalType":"uint256"},{"name":"scaleFactor","type":"uint256","internalType":"uint256"},{"name":"totalSupply","type":"uint256","internalType":"uint256"},{"name":"maxTotalSupply","type":"uint256","internalType":"uint256"},{"name":"scaledTotalSupply","type":"uint256","internalType":"uint256"},{"name":"totalAssets","type":"uint256","internalType":"uint256"},{"name":"lastAccruedProtocolFees","type":"uint256","internalType":"uint256"},{"name":"normalizedUnclaimedWithdrawals","type":"uint256","internalType":"uint256"},{"name":"scaledPendingWithdrawals","type":"uint256","internalType":"uint256"},{"name":"pendingWithdrawalExpiry","type":"uint256","internalType":"uint256"},{"name":"isDelinquent","type":"bool","internalType":"bool"},{"name":"timeDelinquent","type":"uint256","internalType":"uint256"},{"name":"lastInterestAccruedTimestamp","type":"uint256","internalType":"uint256"},{"name":"unpaidWithdrawalBatchExpiries","type":"uint32[]","internalType":"uint32[]"},{"name":"coverageLiquidity","type":"uint256","internalType":"uint256"}]},{"name":"lenderStatus","type":"tuple","internalType":"struct LenderAccountData","components":[{"name":"lender","type":"address","internalType":"address"},{"name":"scaledBalance","type":"uint256","internalType":"uint256"},{"name":"normalizedBalance","type":"uint256","internalType":"uint256"},{"name":"underlyingBalance","type":"uint256","internalType":"uint256"},{"name":"underlyingApproval","type":"uint256","internalType":"uint256"},{"name":"isBlockedFromDeposits","type":"bool","internalType":"bool"},{"name":"lastProvider","type":"tuple","internalType":"struct RoleProviderData","components":[{"name":"timeToLive","type":"uint32","internalType":"uint32"},{"name":"providerAddress","type":"address","internalType":"address"},{"name":"pullProviderIndex","type":"uint24","internalType":"uint24"},{"name":"pushProviderIndex","type":"uint24","internalType":"uint24"}]},{"name":"canRefresh","type":"bool","internalType":"bool"},{"name":"lastApprovalTimestamp","type":"uint32","internalType":"uint32"},{"name":"isKnownLender","type":"bool","internalType":"bool"}]},{"name":"withdrawalBatches","type":"tuple[]","internalType":"struct WithdrawalBatchDataWithLenderStatus[]","components":[{"name":"batch","type":"tuple","internalType":"struct WithdrawalBatchData","components":[{"name":"expiry","type":"uint32","internalType":"uint32"},{"name":"status","type":"uint8","internalType":"enum BatchStatus"},{"name":"scaledTotalAmount","type":"uint256","internalType":"uint256"},{"name":"scaledAmountBurned","type":"uint256","internalType":"uint256"},{"name":"normalizedAmountPaid","type":"uint256","internalType":"uint256"},{"name":"normalizedTotalAmount","type":"uint256","internalType":"uint256"}]},{"name":"lenderStatus","type":"tuple","internalType":"struct WithdrawalBatchLenderStatus","components":[{"name":"lender","type":"address","internalType":"address"},{"name":"scaledAmount","type":"uint256","internalType":"uint256"},{"name":"normalizedAmountWithdrawn","type":"uint256","internalType":"uint256"},{"name":"normalizedAmountOwed","type":"uint256","internalType":"uint256"},{"name":"availableWithdrawalAmount","type":"uint256","internalType":"uint256"}]}]}]}],"stateMutability":"view"},{"type":"error","name":"NotV2Market","inputs":[]}],"bytecode":{"object":"0x60c03460bd57601f615faa38819003918201601f19168301916001600160401b0383118484101760c157808492604094855283398101031260bd57604b602060458360d5565b920160d5565b6001600160a01b039182166080521660a052604051615ec190816100e982396080518181816117bf0152611b87015260a0518181816109680152818161170f015281816118ee01528181611b1301528181611f10015281816122390152818161231a0152818161241501526128640152f35b5f80fd5b634e487b7160e01b5f52604160045260245ffd5b51906001600160a01b038216820360bd5756fe60806040526004361015610011575f80fd5b5f3560e01c8063098aaea8146101a45780630c52af991461019f5780631f69565f1461019a5780632385571b14610195578063274631a3146101905780633be9be7a1461018b5780633d8d2dcd1461018657806346a0fe47146101815780634b5a900d1461017c578063546355701461017757806362ef811914610172578063655314381461016d578063733efd1e1461016857806387fed6d2146101635780638febd74f1461015e5780639016be4f146101595780639f293fb114610154578063a30c302d1461014f578063b31d10151461014a578063c4482d3614610145578063d1a0745c14610140578063dd92b92b1461013b578063ddee086514610136578063e85dfdf0146101315763ffc7005e1461012c575f80fd5b612653565b612549565b612479565b61238d565b612291565b6121a0565b612101565b611fef565b611fca565b611eef565b611e71565b611e29565b611d58565b611a99565b61186e565b611775565b611692565b6115c4565b61142a565b611331565b6109d4565b61091e565b6108ba565b6107e6565b61061d565b73ffffffffffffffffffffffffffffffffffffffff8116036101c757565b5f80fd5b7f4e487b71000000000000000000000000000000000000000000000000000000005f52604160045260245ffd5b6060810190811067ffffffffffffffff82111761021457604052565b6101cb565b6080810190811067ffffffffffffffff82111761021457604052565b60a0810190811067ffffffffffffffff82111761021457604052565b60c0810190811067ffffffffffffffff82111761021457604052565b6040810190811067ffffffffffffffff82111761021457604052565b610140810190811067ffffffffffffffff82111761021457604052565b90601f7fffffffffffffffffffffffffffffffffffffffffffffffffffffffffffffffe0910116810190811067ffffffffffffffff82111761021457604052565b60405190610400820182811067ffffffffffffffff82111761021457604052565b60405190610100820182811067ffffffffffffffff82111761021457604052565b604051906101c0820182811067ffffffffffffffff82111761021457604052565b6040519061035782610289565b565b67ffffffffffffffff81116102145760051b60200190565b9080601f830112156101c757602090823561038b81610359565b9361039960405195866102a6565b81855260208086019260051b8201019283116101c757602001905b8282106103c2575050505090565b83809183356103d0816101a9565b8152019101906103b4565b9060407ffffffffffffffffffffffffffffffffffffffffffffffffffffffffffffffffc8301126101c757600435610412816101a9565b916024359067ffffffffffffffff82116101c75761043291600401610371565b90565b907fffffffffffffffffffffffffffffffffffffffffffffffffffffffffffffffe0601f602080948051918291828752018686015e5f8582860101520116010190565b9073ffffffffffffffffffffffffffffffffffffffff82511681526080806104c46104b2602086015160a0602087015260a0860190610435565b60408601518582036040870152610435565b93606081015160608501520151151591015290565b9060c08061059373ffffffffffffffffffffffffffffffffffffffff80865116855260208601519060e0602087015281511660e086015261ffff60208201511661010086015260a061053b6040830151856101208901526101a0880190610478565b6060830151610140880152608083015161016088015291015161018086015260408681015115159086015260608681015115159086015260808681015162ffffff169086015260a086015185820360a0870152610435565b93015191015290565b6020808201906020835283518092526040830192602060408460051b8301019501935f915b8483106105d15750505050505090565b909192939495848061060d837fffffffffffffffffffffffffffffffffffffffffffffffffffffffffffffffc086600196030187528a516104d9565b98019301930191949392906105c1565b346101c757610643610637610631366103db565b90612854565b6040519182918261059c565b0390f35b63ffffffff8116036101c757565b9080601f830112156101c757602090823561066f81610359565b9361067d60405195866102a6565b81855260208086019260051b8201019283116101c757602001905b8282106106a6575050505090565b83809183356106b481610647565b815201910190610698565b7f4e487b71000000000000000000000000000000000000000000000000000000005f52602160045260245ffd5b63ffffffff8151168252602081015160048110156107335760a091829160208501526040810151604085015260608101516060850152608081015160808501520151910152565b6106bf565b9060c060206103579361074c8482516106ec565b01519101906080809173ffffffffffffffffffffffffffffffffffffffff81511684526020810151602085015260408101516040850152606081015160608501520151910152565b9081518082526020808093019301915f5b8281106107b3575050505090565b9091929382610160826107c96001948951610738565b019501939291016107a5565b906020610432928181520190610794565b346101c75760607ffffffffffffffffffffffffffffffffffffffffffffffffffffffffffffffffc3601126101c757600435610821816101a9565b60243567ffffffffffffffff81116101c757610841903690600401610655565b9060443561084e816101a9565b6108588351612950565b9273ffffffffffffffffffffffffffffffffffffffff5f9316925b81518110156108ac57806108a68461088d6001948961283b565b518763ffffffff61089e868961283b565b511691613383565b01610873565b6040518061064387826107d5565b346101c75760207ffffffffffffffffffffffffffffffffffffffffffffffffffffffffffffffffc3601126101c7576106436004356108f8816101a9565b61090a6109036126fb565b91826133e0565b604051918291602083526020830190610478565b346101c7575f7ffffffffffffffffffffffffffffffffffffffffffffffffffffffffffffffffc3601126101c757602060405173ffffffffffffffffffffffffffffffffffffffff7f0000000000000000000000000000000000000000000000000000000000000000168152f35b60209060206040818301928281528551809452019301915f5b8281106109b3575050505090565b909192938260c0826109c860019489516106ec565b019501939291016109a5565b346101c75760407ffffffffffffffffffffffffffffffffffffffffffffffffffffffffffffffffc3601126101c757600435610a0f816101a9565b60243567ffffffffffffffff81116101c757610a2f903690600401610655565b908151917fffffffffffffffffffffffffffffffffffffffffffffffffffffffffffffffe0610a76610a6085610359565b94610a6e60405196876102a6565b808652610359565b015f5b818110610ae857505073ffffffffffffffffffffffffffffffffffffffff5f9216915b8151811015610ada5780610ad4610ab56001938761283b565b5185610ace610ac4858861283b565b5163ffffffff1690565b91613778565b01610a9c565b60405180610643868261098c565b602090610af36128d4565b82828801015201610a79565b91906060838203126101c75760405190610b18826101f8565b81938035610b25816101a9565b83526020810135610b35816101a9565b602084015260408101359167ffffffffffffffff83116101c757604092610b5c9201610655565b910152565b6003111561073357565b9060038210156107335752565b906102a061016061035793610ba384825173ffffffffffffffffffffffffffffffffffffffff169052565b610c326020820151602086019080511515825260208082015115159083015260408082015115159083015260608082015115159083015260808082015115159083015260a08082015115159083015260c08082015115159083015260e0808201511515908301526101008082015115159083015261012080820151151590830152610140908101511515910152565b610c456040820151610180860190610b6b565b606081015115156101a0850152608081015115156101c085015260a08101516fffffffffffffffffffffffffffffffff166101e085015260c0810151151561020085015260e08101511515610220850152610100810151151561024085015261012081015163ffffffff1661026085015261014081015115156102808501525b01511515910152565b805163ffffffff168252610357919060208181015163ffffffff169083015260408181015161ffff169083015260608181015161ffff169083015260808181015161ffff169083015260a08181015161ffff169083015260c08181015163ffffffff169083015260e08181015163ffffffff16908301526101008181015161ffff16908301526101209081015161ffff16910152565b90610160602061035793610df684825180511515825260208082015115159083015260408082015115159083015260608082015115159083015260808082015115159083015260a08082015115159083015260c08082015115159083015260e0808201511515908301526101008082015115159083015261012080820151151590830152610140908101511515910152565b015191019080511515825260208082015115159083015260408082015115159083015260608082015115159083015260808082015115159083015260a08082015115159083015260c08082015115159083015260e0808201511515908301526101008082015115159083015261012080820151151590830152610140908101511515910152565b9081518082526020808093019301915f5b828110610e9c575050505090565b9091929382608082610ef4600194895160609063ffffffff815116835273ffffffffffffffffffffffffffffffffffffffff60208201511660208401528160408201519162ffffff8093166040860152015116910152565b01950193929101610e8e565b805173ffffffffffffffffffffffffffffffffffffffff168252906104e0610120610593610fcb610f9361050060208881015173ffffffffffffffffffffffffffffffffffffffff1690880152610f5f60408901516040890190610b6b565b60608881015173ffffffffffffffffffffffffffffffffffffffff1690880152608088015190806080890152870190610435565b610fa560a088015160a0880190610cce565b610fb860c08801516101e0880190610d64565b60e08701518682036104a0880152610e7d565b6101008601518582036104c0870152610e7d565b9081518082526020808093019301915f5b828110610ffe575050505090565b835163ffffffff1685529381019392810192600101610ff0565b906106806110456110336106a0855190808652850190610478565b60208501518482036020860152610478565b60408481015173ffffffffffffffffffffffffffffffffffffffff169084015260608481015173ffffffffffffffffffffffffffffffffffffffff169084015261109760808501516080850190610b78565b61059360a085015191610340928386015260c0860151906110d3610360928388019073ffffffffffffffffffffffffffffffffffffffff169052565b60e08701516103809081880152610100880151906103a091828901526111f161110c6101208b0151946103c0958b8203878d0152610f00565b946101408b0151976111256103e0998a8d019015159052565b6101608c01516104008c01526101808c01516104208c01526101a08c01516104408c01526101c08c015115156104608c01526101e08c01516104808c01526102008c01516104a08c01526102208c01516104c08c01526102408c01516104e08c01526102608c01516105008c01526102808c01516105208c01526102a08c01516105408c01526102c08c01516105608c01526102e08c01516105808c01526103008c01516105a08c01526103208c01516105c08c01528b01516105e08b01528a015115156106008a0152565b880151610620880152870151610640870152860151858203610660870152610fdf565b906101806101206103579361123f84825173ffffffffffffffffffffffffffffffffffffffff169052565b6020810151602085015260408101516040850152606081015160608501526080810151608085015261127a60a082015160a086019015159052565b6112cf60c082015160c086019060609063ffffffff815116835273ffffffffffffffffffffffffffffffffffffffff60208201511660208401528160408201519162ffffff8093166040860152015116910152565b60e0810151151561014085015261010081015163ffffffff16610160850152610cc5565b61043291604061130d6101e0845190808552840190611018565b9261132060208201516020850190611214565b0151906101c0818403910152610794565b346101c75760207ffffffffffffffffffffffffffffffffffffffffffffffffffffffffffffffffc3601126101c75760043567ffffffffffffffff81116101c757611383610643913690600401610aff565b61139561138e612cbb565b9182613a23565b6040519182916020835260208301906112f3565b6020808201906020835283518092526040830192602060408460051b8301019501935f915b8483106113de5750505050505090565b909192939495848061141a837fffffffffffffffffffffffffffffffffffffffffffffffffffffffffffffffc086600196030187528a516112f3565b98019301930191949392906113ce565b346101c7576020807ffffffffffffffffffffffffffffffffffffffffffffffffffffffffffffffffc3601126101c75767ffffffffffffffff906004358281116101c757366023820112156101c7576024600482013561148981610359565b9461149760405196876102a6565b8186526024602087019260051b850101933685116101c75760248101925b8584106114d4576106436114c889612ce8565b604051918291826113a9565b83358381116101c75787916114ef8392883691870101610aff565b8152019301926114b5565b60207ffffffffffffffffffffffffffffffffffffffffffffffffffffffffffffffffc8201126101c7576004359067ffffffffffffffff82116101c75761043291600401610371565b6020808201906020835283518092526040830192602060408460051b8301019501935f915b8483106115785750505050505090565b90919293949584806115b4837fffffffffffffffffffffffffffffffffffffffffffffffffffffffffffffffc086600196030187528a51610478565b9801930193019194939290611568565b346101c7576115d2366114fa565b8051907fffffffffffffffffffffffffffffffffffffffffffffffffffffffffffffffe061161861160284610359565b9361161060405195866102a6565b808552610359565b015f5b81811061167b5750505f5b815181101561166d578061166761163f6001938661283b565b5173ffffffffffffffffffffffffffffffffffffffff61165f848761283b565b5116906133e0565b01611626565b604051806106438582611543565b6020906116866126fb565b8282870101520161161b565b346101c75760207ffffffffffffffffffffffffffffffffffffffffffffffffffffffffffffffffc3601126101c7576004356116cd816101a9565b6040517f6e50f9600000000000000000000000000000000000000000000000000000000081525f8160048173ffffffffffffffffffffffffffffffffffffffff7f0000000000000000000000000000000000000000000000000000000000000000165afa80156117705761064392610637925f9261174c575b50612854565b6117699192503d805f833e61176181836102a6565b810190612d96565b905f611746565b612e1a565b346101c7575f7ffffffffffffffffffffffffffffffffffffffffffffffffffffffffffffffffc3601126101c757602060405173ffffffffffffffffffffffffffffffffffffffff7f0000000000000000000000000000000000000000000000000000000000000000168152f35b90808251908181526020809101926020808460051b8301019501935f915b8483106118115750505050505090565b909192939495848061184d837fffffffffffffffffffffffffffffffffffffffffffffffffffffffffffffffe086600196030187528a51610f00565b9801930193019194939290611801565b9060206104329281815201906117e3565b346101c75760207ffffffffffffffffffffffffffffffffffffffffffffffffffffffffffffffffc3601126101c7576004356118a9816101a9565b6040517f62ef811900000000000000000000000000000000000000000000000000000000815273ffffffffffffffffffffffffffffffffffffffff91821660048201527f0000000000000000000000000000000000000000000000000000000000000000915f908290602490829086165afa908115611770575f91611994575b50611935606051612e25565b915f5b82518110156119865780611980836119526001948861283b565b5161197a611960858961283b565b5173ffffffffffffffffffffffffffffffffffffffff1690565b90613c08565b01611938565b60405180610643868261185d565b6119a891503d805f833e61176181836102a6565b5f611929565b91909160209081815260a081019173ffffffffffffffffffffffffffffffffffffffff85511681830152808501511515604083015260408501519260806060840152835180915260c08301918060c08360051b8601019501925f905b838210611a4f5750505050506060610432939401519060807fffffffffffffffffffffffffffffffffffffffffffffffffffffffffffffffe0828503019101526117e3565b90919293958380611a8a837fffffffffffffffffffffffffffffffffffffffffffffffffffffffffffffff408a600196030186528a516104d9565b98019201920190939291611a0a565b346101c75760207ffffffffffffffffffffffffffffffffffffffffffffffffffffffffffffffffc3601126101c757600435611ad4816101a9565b6040908151611ae281610219565b5f60208201908152606084830181815281840191825273ffffffffffffffffffffffffffffffffffffffff851684527f0000000000000000000000000000000000000000000000000000000000000000959094919281517f0787c1fe00000000000000000000000000000000000000000000000000000000815273ffffffffffffffffffffffffffffffffffffffff84811660048301529160208280602481010381867f0000000000000000000000000000000000000000000000000000000000000000165afa90811561177057611bc3925f92611d27575b509015159052565b81517f62ef811900000000000000000000000000000000000000000000000000000000815273ffffffffffffffffffffffffffffffffffffffff841660048201529087169590945f866024818a5afa958615611770575f96611d0b575b50611c2b8651612e25565b85525f5b8651811015611c5e5780611c588a611c4a6001948a5161283b565b5161197a611960858d61283b565b01611c2f565b5082517f6e50f9600000000000000000000000000000000000000000000000000000000081529188915f846004818c5afa938415611770575f94611cef575b50611ca884516127a2565b82525f5b8451811015611ce25780611cdc88611cc7600194875161283b565b5187611cd6611960868c61283b565b916131e6565b01611cac565b85518061064384826119ae565b611d049194503d805f833e61176181836102a6565b9286611c9d565b611d209196503d805f833e61176181836102a6565b945f611c20565b611d4a91925060203d602011611d51575b611d4281836102a6565b8101906140ac565b905f611bbb565b503d611d38565b346101c75760607ffffffffffffffffffffffffffffffffffffffffffffffffffffffffffffffffc3601126101c757610160600435611d96816101a9565b611dd7602435611da581610647565b60443590611db2826101a9565b73ffffffffffffffffffffffffffffffffffffffff611dcf61292e565b941684613383565b611de46040518092610738565bf35b7ffffffffffffffffffffffffffffffffffffffffffffffffffffffffffffffffc60409101126101c757600435611e1c816101a9565b90602435610432816101a9565b346101c7576101a0611e64611e3d36611de6565b919073ffffffffffffffffffffffffffffffffffffffff611e5c612c6a565b9316836140c0565b611de46040518092611214565b346101c75760407ffffffffffffffffffffffffffffffffffffffffffffffffffffffffffffffffc3601126101c75760c0600435611eae816101a9565b611ee2602435611ebd81610647565b73ffffffffffffffffffffffffffffffffffffffff611eda6128d4565b931683613778565b611de460405180926106ec565b346101c757610643611f35611f0336611de6565b9190611f0d612727565b927f0000000000000000000000000000000000000000000000000000000000000000846131e6565b6040519182916020835260208301906104d9565b6020808201906020835283518092526040830192602060408460051b8301019501935f915b848310611f7e5750505050505090565b9091929394958480611fba837fffffffffffffffffffffffffffffffffffffffffffffffffffffffffffffffc086600196030187528a51611018565b9801930193019194939290611f6e565b346101c757610643611fe3611fde366114fa565b612e91565b60405191829182611f49565b346101c75760207ffffffffffffffffffffffffffffffffffffffffffffffffffffffffffffffffc3601126101c75761064360043561202d816101a9565b61205573ffffffffffffffffffffffffffffffffffffffff61204d612b49565b9216826141ad565b604051918291602083526020830190611018565b6101009092919261207e8160e08101956106ec565b60e060c0820152825180945201916020809201915f5b8281106120a2575050505090565b909192938260a0826120f560019489516080809173ffffffffffffffffffffffffffffffffffffffff81511684526020810151602085015260408101516040850152606081015160608501520151910152565b01950193929101612094565b346101c75760607ffffffffffffffffffffffffffffffffffffffffffffffffffffffffffffffffc3601126101c75760043561213c816101a9565b60243561214881610647565b6044359167ffffffffffffffff918284116101c757366023850112156101c75783600401359283116101c7573660248460051b860101116101c7576024612190940191612f64565b9061064360405192839283612069565b346101c75760607ffffffffffffffffffffffffffffffffffffffffffffffffffffffffffffffffc3601126101c75760645f6004356121de816101a9565b73ffffffffffffffffffffffffffffffffffffffff92839160405194859384927feae6ff66000000000000000000000000000000000000000000000000000000008452166004830152602435602483015260443560448301527f0000000000000000000000000000000000000000000000000000000000000000165afa9081156117705761064391611fe3915f91612277575b50612e91565b61228b91503d805f833e61176181836102a6565b5f612271565b346101c75760207ffffffffffffffffffffffffffffffffffffffffffffffffffffffffffffffffc3601126101c757602460206004356122d0816101a9565b6040517fd1a0745c00000000000000000000000000000000000000000000000000000000815273ffffffffffffffffffffffffffffffffffffffff918216600482015292839182907f0000000000000000000000000000000000000000000000000000000000000000165afa801561177057610643915f9161235e575b506040519081529081906020820190565b612380915060203d602011612386575b61237881836102a6565b81019061303b565b5f61234d565b503d61236e565b346101c75760207ffffffffffffffffffffffffffffffffffffffffffffffffffffffffffffffffc3601126101c75760245f6004356123cb816101a9565b6040517f1caab59d00000000000000000000000000000000000000000000000000000000815273ffffffffffffffffffffffffffffffffffffffff918216600482015292839182907f0000000000000000000000000000000000000000000000000000000000000000165afa9081156117705761064391611fe3915f916122775750612e91565b906104329060208061246e6101c0865190808652850190611018565b940151910190611214565b346101c7576106436124b461248d36611de6565b919073ffffffffffffffffffffffffffffffffffffffff6124ac61304a565b931683614461565b604051918291602083526020830190612452565b6020808201906020835283518092526040830192602060408460051b8301019501935f915b8483106124fd5750505050505090565b9091929394958480612539837fffffffffffffffffffffffffffffffffffffffffffffffffffffffffffffffc086600196030187528a51612452565b98019301930191949392906124ed565b346101c757612557366103db565b8051917fffffffffffffffffffffffffffffffffffffffffffffffffffffffffffffffe0612587610a6085610359565b015f5b8181106125f35750505f5b82518110156125e557806125df836125af6001948861283b565b516125d96125c0611960868a61283b565b73ffffffffffffffffffffffffffffffffffffffff1690565b90614461565b01612595565b6040518061064386826124c8565b6020906125fe61304a565b8282880101520161258a565b60209060206040818301928281528551809452019301915f5b828110612631575050505090565b90919293826101a0826126476001948951611214565b01950193929101612623565b346101c757612661366103db565b8051917fffffffffffffffffffffffffffffffffffffffffffffffffffffffffffffffe0612691610a6085610359565b015f5b8181106126e45750505f5b82518110156126d657806126d0836126b96001948861283b565b516126ca6125c0611960868a61283b565b906140c0565b0161269f565b60405180610643868261260a565b6020906126ef612c6a565b82828801015201612694565b6040519061270882610235565b5f60808382815260606020820152606060408201528260608201520152565b6040519060e0820182811067ffffffffffffffff821117610214576040525f60c08382815260405161275881610251565b8381528360208201526127696126fb565b60408201528360608201528360808201528360a08201526020820152826040820152826060820152826080820152606060a08201520152565b906127ac82610359565b6127b960405191826102a6565b8281527fffffffffffffffffffffffffffffffffffffffffffffffffffffffffffffffe06127e78294610359565b01905f5b8281106127f757505050565b602090612802612727565b828285010152016127eb565b7f4e487b71000000000000000000000000000000000000000000000000000000005f52603260045260245ffd5b805182101561284f5760209160051b010190565b61280e565b91909161286183516127a2565b927f00000000000000000000000000000000000000000000000000000000000000005f5b82518110156128ce57806128c88561289f6001948a61283b565b518573ffffffffffffffffffffffffffffffffffffffff6128c0868a61283b565b5116916131e6565b01612885565b50505050565b604051906128e182610251565b5f60a0838281528260208201528260408201528260608201528260808201520152565b6040519061291182610235565b5f6080838281528260208201528260408201528260608201520152565b6040519061293b8261026d565b816129446128d4565b81526020610b5c612904565b9061295a82610359565b61296760405191826102a6565b8281527fffffffffffffffffffffffffffffffffffffffffffffffffffffffffffffffe06129958294610359565b01905f5b8281106129a557505050565b6020906129b061292e565b82828501015201612999565b60405190610160820182811067ffffffffffffffff821117610214576040525f610140838281528260208201528260408201528260608201528260808201528260a08201528260c08201528260e082015282610100820152826101208201520152565b60405190610180820182811067ffffffffffffffff821117610214576040525f61016083828152612a4e6129bc565b60208201528260408201528260608201528260808201528260a08201528260c08201528260e08201528261010082015282610120820152826101408201520152565b60405190612a9d8261026d565b81612aa66129bc565b81526020610b5c6129bc565b60405190612abf82610289565b5f828181528160208201528160408201528160608201526060608082015260405190612aea82610289565b8282528260208301528260408301528260608301528260808301528260a08301528260c08301528260e08301526060610100848185015261012093858582015260a0840152612b37612a90565b60c08401528160e08401528201520152565b612b516102e7565b90612b5a6126fb565b8252612b646126fb565b60208301525f60408301525f6060830152612b7d612a1f565b60808301525f60a08301525f60c08301525f60e08301525f610100830152612ba3612ab2565b6101208301525f6101408301525f6101608301525f6101808301525f6101a08301525f6101c08301525f6101e08301525f6102008301525f6102208301525f6102408301525f6102608301525f6102808301525f6102a08301525f6102c08301525f6102e08301525f6103008301525f6103208301525f6103408301525f6103608301525f6103808301525f6103a083015260606103c08301525f6103e0830152565b60405190612c5382610219565b5f6060838281528260208201528260408201520152565b60405190612c7782610289565b5f610120838281528260208201528260408201528260608201528260808201528260a0820152612ca5612c46565b60c08201528260e0820152826101008201520152565b60405190612cc8826101f8565b6060604083612cd5612b49565b8152612cdf612c6a565b60208201520152565b9081517fffffffffffffffffffffffffffffffffffffffffffffffffffffffffffffffe0612d2e612d1883610359565b92612d2660405194856102a6565b808452610359565b015f5b818110612d74575050805f5b8451811015612d6e5780612d68612d566001938661283b565b51612d61838961283b565b5190613a23565b01612d3d565b50925050565b602090612d7f612cbb565b82828601015201612d31565b5190610357826101a9565b60209081818403126101c75780519067ffffffffffffffff82116101c757019180601f840112156101c7578251612dcc81610359565b93612dda60405195866102a6565b818552838086019260051b8201019283116101c7578301905b828210612e01575050505090565b8380918351612e0f816101a9565b815201910190612df3565b6040513d5f823e3d90fd5b90612e2f82610359565b612e3c60405191826102a6565b8281527fffffffffffffffffffffffffffffffffffffffffffffffffffffffffffffffe0612e6a8294610359565b01905f5b828110612e7a57505050565b602090612e85612ab2565b82828501015201612e6e565b9081517fffffffffffffffffffffffffffffffffffffffffffffffffffffffffffffffe0612ec1612d1883610359565b015f5b818110612f33575050805f5b8451811015612d6e5780612f2d612ee96001938661283b565b51612f2773ffffffffffffffffffffffffffffffffffffffff612f0c858b61283b565b511673ffffffffffffffffffffffffffffffffffffffff1690565b906141ad565b01612ed0565b602090612f3e612b49565b82828601015201612ec4565b919081101561284f5760051b0190565b35610432816101a9565b9391612f9073ffffffffffffffffffffffffffffffffffffffff612f866128d4565b9616928387613778565b612f9984610359565b91612fa760405193846102a6565b8483527fffffffffffffffffffffffffffffffffffffffffffffffffffffffffffffffe0612fd486610359565b015f5b81811061302457505082945f5b818110612ff2575050505050565b8061301e6130026001938861283b565b518a8661301861301386898c612f4a565b612f5a565b9261432b565b01612fe4565b60209061302f612904565b82828801015201612fd7565b908160209103126101c7575190565b604051906130578261026d565b81613060612b49565b81526020610b5c612c6a565b519069ffffffffffffffffffff821682036101c757565b519061ffff821682036101c757565b519081151582036101c757565b519062ffffff821682036101c757565b81601f820112156101c75780519067ffffffffffffffff8211610214576040519261310260207fffffffffffffffffffffffffffffffffffffffffffffffffffffffffffffffe0601f86011601856102a6565b828452602083830101116101c757815f9260208093018386015e8301015290565b906020828203126101c757815167ffffffffffffffff928382116101c7570190610100828203126101c757613156610308565b9261316083612d8b565b845261316e6020840161306c565b602085015261317f60408401613083565b604085015261319060608401613092565b60608501526131a160808401613092565b60808501526131b260a0840161309f565b60a08501526131c360c08401612d8b565b60c085015260e08301519081116101c7576131de92016130af565b60e082015290565b6040517f2812d2de00000000000000000000000000000000000000000000000000000000815273ffffffffffffffffffffffffffffffffffffffff8481166004830152919493909183165f83602481845afa928315611770575f93613356575b5073ffffffffffffffffffffffffffffffffffffffff82168652613313916020916132806132776060870151151590565b151560408a0152565b6132996132906080870151151590565b151560608a0152565b6132b86132ac60a087015162ffffff1690565b62ffffff1660808a0152565b60e085015160a089015260405180809581947fd1a0745c0000000000000000000000000000000000000000000000000000000083526004830191909173ffffffffffffffffffffffffffffffffffffffff6020820193169052565b03915afa94851561177057610357956020925f91613339575b5060c0820152015161447d565b6133509150833d85116123865761237881836102a6565b5f61332c565b60209193509161337a613313933d805f833e61337281836102a6565b810190613123565b93915091613246565b906133946103579493828451613778565b602082015191519161432b565b906020828203126101c757815167ffffffffffffffff81116101c75761043292016130af565b908160209103126101c7575160ff811681036101c75790565b73ffffffffffffffffffffffffffffffffffffffff821680156135645773ffffffffffffffffffffffffffffffffffffffff831682526040517f06fdde030000000000000000000000000000000000000000000000000000000081525f81600481855afa908115611770575f9161354a575b5060208301526040517f95d89b410000000000000000000000000000000000000000000000000000000081525f81600481855afa918215611770576004926020925f91613528575b506040850152604051928380927f313ce5670000000000000000000000000000000000000000000000000000000082525afa8015611770576103579360ff6134f2926080945f916134f9575b5016606085015261468d565b1515910152565b61351b915060203d602011613521575b61351381836102a6565b8101906133c7565b5f6134e6565b503d613509565b61354491503d805f833e61353c81836102a6565b8101906133a1565b5f61349a565b61355e91503d805f833e61353c81836102a6565b5f613452565b505050565b51906cffffffffffffffffffffffffff821682036101c757565b51906fffffffffffffffffffffffffffffffff821682036101c757565b908160609103126101c7576135de60408051926135bc846101f8565b6135c581613569565b84526135d360208201613569565b602085015201613583565b604082015290565b519061035782610647565b51906dffffffffffffffffffffffffffff821682036101c757565b90816101c09103126101c757613620610329565b9061362a81613092565b825261363860208201613583565b602083015261364960408201613583565b604083015261365a60608201613583565b606083015261366b60808201613569565b608083015261367c60a08201613569565b60a083015261368d60c082016135e6565b60c083015261369e60e08201613092565b60e08301526101006136b18183016135e6565b908301526101206136c3818301613083565b908301526101406136d5818301613083565b908301526101606136e7818301613083565b908301526101806136f98183016135f1565b9083015261370b6101a08092016135e6565b9082015290565b60048210156107335752565b7f4e487b71000000000000000000000000000000000000000000000000000000005f52601160045260245ffd5b9190820391821161375857565b61371e565b906001820180921161375857565b9190820180921161375857565b6040517fdbcd50b400000000000000000000000000000000000000000000000000000000815263ffffffff84166004820152909273ffffffffffffffffffffffffffffffffffffffff929092169190606081602481865afa908115611770575f916139f4575b5063ffffffff8216845261381461380282516cffffffffffffffffffffffffff1690565b6cffffffffffffffffffffffffff1690565b906040850191825260209163ffffffff61387c6138676040613848613802888801516cffffffffffffffffffffffffff1690565b9560608b0196875201516fffffffffffffffffffffffffffffffff1690565b6fffffffffffffffffffffffffffffffff1690565b60808801908152941642811061392e57505f838701525b815181511461392157916138af8192600495945190519061374b565b94604051948580927f683dd1910000000000000000000000000000000000000000000000000000000082525afa80156117705760a094610b5c946138fb935f93613902575b50506146a7565b905161376b565b613919929350803d106123865761237881836102a6565b905f806138f4565b50505060a0915051910152565b6040517f0c1e3fea0000000000000000000000000000000000000000000000000000000081526101c09081816004818b5afa9182156117705761399092613987926101a0925f926139c7575b5050015163ffffffff1690565b63ffffffff1690565b10156139a657600186840152613893565b613893565b81518151036139bd576139a160035b848801613712565b6139a160026139b5565b6139e69250803d106139ed575b6139de81836102a6565b81019061360c565b5f8061397a565b503d6139d4565b613a16915060603d606011613a1c575b613a0e81836102a6565b8101906135a0565b5f6137de565b503d613a04565b919073ffffffffffffffffffffffffffffffffffffffff8060208301511690613a4d8286516141ad565b613a61602086015186518386511691614708565b60408301946040613a73875151612950565b91019081525f5b865151811015613ab95780613ab3613a95600193855161283b565b5163ffffffff613aa6848c5161283b565b511687878a511692613383565b01613a7a565b50505050509050565b908160209103126101c75751610432816101a9565b60209081818403126101c75780519067ffffffffffffffff82116101c757019180601f840112156101c7578251613b0d81610359565b93613b1b60405195866102a6565b818552838086019260051b8201019283116101c7578301905b828210613b42575050505090565b81518152908301908301613b34565b90816101409103126101c757613b6561034a565b90613b6f816135e6565b8252613b7d602082016135e6565b6020830152613b8e60408201613083565b6040830152613b9f60608201613083565b6060830152613bb060808201613083565b6080830152613bc160a08201613083565b60a0830152613bd260c082016135e6565b60c0830152613be360e082016135e6565b60e0830152610100613bf6818301613083565b9083015261370b610120809201613083565b73ffffffffffffffffffffffffffffffffffffffff828116808352604080517f2b07f280000000000000000000000000000000000000000000000000000000008152600480820193909352602096949592948416918782602481865afa801561177057613c9c5f91613cea94839161408f575b5073ffffffffffffffffffffffffffffffffffffffff1660608a0181905290565b8251809481927f2812d2de0000000000000000000000000000000000000000000000000000000083528a830191909173ffffffffffffffffffffffffffffffffffffffff6020820193169052565b0381865afa91821561177057869260e0915f91614075575b50015194856080890152808516958981519101207fe88e57acc9274eb23d6b440f97946a8667dd9c51f6fa0896ee155045af71ca7b81145f1461404457506001888301525b81880151613d5481610b61565b613d5d81610b61565b613e60575b508760c0880151958251978880927f79502c550000000000000000000000000000000000000000000000000000000082525afa95861561177057613e01968996613db3925f92613e41575b506147fd565b518095819482937ffe604ec7000000000000000000000000000000000000000000000000000000008452830191909173ffffffffffffffffffffffffffffffffffffffff6020820193169052565b03915afa928315611770575f93613e1c575b50506101200152565b6101209293509081613e3992903d106123865761237881836102a6565b91905f613e13565b613e59919250883d8a116123865761237881836102a6565b905f613dad565b87890180519293509173ffffffffffffffffffffffffffffffffffffffff161615613fb4575b5080517f8f8ef4190000000000000000000000000000000000000000000000000000000081525f818781885afa801561177057613eca915f91613f92575b5061473d565b60e087015280517f879277670000000000000000000000000000000000000000000000000000000081525f818781885afa801561177057613f11915f91613f92575061473d565b6101008701528051907fa11ef0670000000000000000000000000000000000000000000000000000000082526101409182818881895afa9081156117705787935f92613f65575b505060a08801525f613d62565b613f849250803d10613f8b575b613f7c81836102a6565b810190613b51565b5f80613f58565b503d613f72565b613fae91503d805f833e613fa681836102a6565b810190613ad7565b5f613ec4565b8151907f7df1f1b900000000000000000000000000000000000000000000000000000000825288828881895afa9081156117705761400f925f92614015575b509073ffffffffffffffffffffffffffffffffffffffff169052565b5f613e86565b6140369192508a3d8c1161403d575b61402e81836102a6565b810190613ac2565b905f613ff3565b503d614024565b7fb6d5b28f5ed4cbf362aba0058b9c7c2183fbb2f9619e8c5f77f35ae2e23de54703613d4757600288830152613d47565b61408991503d805f833e61337281836102a6565b5f613d02565b6140a691508b3d8d1161403d5761402e81836102a6565b5f613c7b565b908160209103126101c75761043290613092565b6040517f38d52e0f0000000000000000000000000000000000000000000000000000000081526020939273ffffffffffffffffffffffffffffffffffffffff80821693928681600481885afa9485156117705787915f96614189575b5090600491604051928380927fcd7033c40000000000000000000000000000000000000000000000000000000082525afa90811561177057610357975f9261416c575b505060601c93169161488d565b6141829250803d106123865761237881836102a6565b5f8061415f565b829196506141a5906004933d841161403d5761402e81836102a6565b95909161411c565b906141d173ffffffffffffffffffffffffffffffffffffffff8351921680926133e0565b6020820151604051917f38d52e0f000000000000000000000000000000000000000000000000000000008352602083600481845afa928315611770576004935f936142239285926142d4575b506133e0565b604051928380927f54fd4d500000000000000000000000000000000000000000000000000000000082525afa9081156117705760ff6001614271936032935f916142ba575b50015116141590565b614290578061428261035792614d6e565b61428b816150c0565b615234565b60046040517faaf40101000000000000000000000000000000000000000000000000000000008152fd5b6142ce91503d805f833e61353c81836102a6565b5f614268565b6142ee91925060203d60201161403d5761402e81836102a6565b905f61421d565b908160409103126101c7576143236020604051926143128461026d565b61431b81613569565b845201613583565b602082015290565b73ffffffffffffffffffffffffffffffffffffffff9384168082528351604080517f02372c4f000000000000000000000000000000000000000000000000000000008152600481019390935263ffffffff909116602483015291949092829184916044918391165afa928315611770576080938561442892610b5c955f93614430575b50869061441761440f6143f76138676020806143da6138028b516cffffffffffffffffffffffffff1690565b980198888a5201516fffffffffffffffffffffffffffffffff1690565b97808c0198895260a08401519084019586519161570e565b87519061374b565b60608a01520151915190519161570e565b90519061374b565b8791935061445390863d881161445a575b61444b81836102a6565b8101906142f5565b92906143ae565b503d614441565b614470610357939282516141ad565b6020810151905190614708565b91906144bd6144a360c083015173ffffffffffffffffffffffffffffffffffffffff1690565b73ffffffffffffffffffffffffffffffffffffffff168452565b604081015161ffff16602084810191909152936144f86144e98684015169ffffffffffffffffffff1690565b69ffffffffffffffffffff1690565b6060850152815173ffffffffffffffffffffffffffffffffffffffff9290831680614527575b50505050505050565b6145359060408701516133e0565b828216614543575b8061451e565b6125c06125c0614567925173ffffffffffffffffffffffffffffffffffffffff1690565b6040517f70a0823100000000000000000000000000000000000000000000000000000000815273ffffffffffffffffffffffffffffffffffffffff83166004820152928684602481855afa948515611770576146299588955f91614670575b5060808801526040517fdd62ed3e00000000000000000000000000000000000000000000000000000000815273ffffffffffffffffffffffffffffffffffffffff9485166004820152911690921660248301529092839190829081906044820190565b03915afa928315611770575f9361464c575b505060a001525f808080808061453d565b60a0929350908161466892903d106123865761237881836102a6565b91905f61463b565b6146879150863d88116123865761237881836102a6565b5f6145c6565b5f6004601c6020936328ccaa2984525afa60015f51141690565b817ffffffffffffffffffffffffffffffffffffffffffe6268e1b017bfe18bffffff04811115821517156146f6576b033b2e3c9fd0803ce800000091026b019d971e4fe8401e74000000010490565b634e487b715f5260116020526024601cfd5b610357929173ffffffffffffffffffffffffffffffffffffffff8082515116906080816020850151511693015151169261488d565b9081517fffffffffffffffffffffffffffffffffffffffffffffffffffffffffffffffe061476d612d1883610359565b015f5b8181106147e6575050805f5b8451811015612d6e57806147e06147956001938661283b565b516147a0838961283b565b5162ffffff808260101c1660608401528160281c16604083015273ffffffffffffffffffffffffffffffffffffffff8160401c16602083015260e01c9052565b0161477c565b6020906147f1612c46565b82828601015201614770565b906103579160208151916148246bffff0000000000000000000093848660501b169061574f565b01519160401b169061574f565b908160809103126101c75760606040519161484b83610219565b61485481613092565b83526020810151614864816101a9565b602084015261487560408201613092565b6040840152015161488581610647565b606082015290565b73ffffffffffffffffffffffffffffffffffffffff858116808352604080517f1da24f3e000000000000000000000000000000000000000000000000000000008152600480820193909352602098919794969295841694919392908981602481895afa908115611770575f91614d51575b508988015287517f70a0823100000000000000000000000000000000000000000000000000000000918282528a8280614956898c830191909173ffffffffffffffffffffffffffffffffffffffff6020820193169052565b03818a5afa80156117705785925f91614d34575b508a8a0152169088519081528981806149a2888b830191909173ffffffffffffffffffffffffffffffffffffffff6020820193169052565b0381855afa908115611770575f91614d17575b50606088015288885180927fdd62ed3e0000000000000000000000000000000000000000000000000000000082528180614a198a8a8d840190602090939293604083019473ffffffffffffffffffffffffffffffffffffffff809216845216910152565b03915afa908115611770575f91614cfa575b506080870152169081614a415750505050505050565b8551937f22a4a19f00000000000000000000000000000000000000000000000000000000855260808580614a948585830191909173ffffffffffffffffffffffffffffffffffffffff6020820193169052565b0381865afa9687156117705788955f98614cc9575b5085880197614acf6125c08a5173ffffffffffffffffffffffffffffffffffffffff1690565b614b80575b50517fa9ff2dbf00000000000000000000000000000000000000000000000000000000815273ffffffffffffffffffffffffffffffffffffffff92831691810191825291909316602084015294508491829081906040015b03915afa91821561177057614b4f935f93614b5b575b5050610120019015159052565b5f80808080808061451e565b6101209293509081614b7892903d10611d5157611d4281836102a6565b91905f614b42565b9550614b98614b8f8751151590565b151560a0890152565b614c0d89614bbf60c08a01519a5173ffffffffffffffffffffffffffffffffffffffff1690565b8351809381927fbfd269be00000000000000000000000000000000000000000000000000000000835287830191909173ffffffffffffffffffffffffffffffffffffffff6020820193169052565b0381885afa80156117705760608b98614c73614c9693614b2c9d614ca4965f92614caa575b509062ffffff808260101c1660608401528160281c16604083015273ffffffffffffffffffffffffffffffffffffffff8160401c16602083015260e01c9052565b614c8b614c8286830151151590565b151560e08d0152565b015163ffffffff1690565b63ffffffff16610100890152565b5f614ad4565b614cc29192508d803d106123865761237881836102a6565b905f614c32565b614cec91985060803d608011614cf3575b614ce481836102a6565b810190614831565b965f614aa9565b503d614cda565b614d119150893d8b116123865761237881836102a6565b5f614a2b565b614d2e91508a3d8c116123865761237881836102a6565b5f6149b5565b614d4b91508c8d3d106123865761237881836102a6565b5f61496a565b614d6891508a3d8c116123865761237881836102a6565b5f6148fe565b80515173ffffffffffffffffffffffffffffffffffffffff169073ffffffffffffffffffffffffffffffffffffffff8216906040928351927fc45a015500000000000000000000000000000000000000000000000000000000845260209460049186868481845afa958615611770575f96615072575b50614e0882860196879073ffffffffffffffffffffffffffffffffffffffff169052565b81517f7df1f1b900000000000000000000000000000000000000000000000000000000815287818581855afa801561177057614e63915f91615055575b5073ffffffffffffffffffffffffffffffffffffffff166060870152565b614e7260808601948551615998565b81517f9e6f980200000000000000000000000000000000000000000000000000000000815287818581855afa908115611770575f91615038575b5060a086015281517f4690484000000000000000000000000000000000000000000000000000000000815287818581855afa801561177057614f0d915f9161501b575b5073ffffffffffffffffffffffffffffffffffffffff1660c0870152565b8151917f4be687c600000000000000000000000000000000000000000000000000000000835287838581855afa80156117705788935f91614ffe575b5060e087015251928380927f514a4cd60000000000000000000000000000000000000000000000000000000082525afa90811561177057614fbd614fdb936125c09361012093610357995f92614fe1575b5050610100870152515173ffffffffffffffffffffffffffffffffffffffff1690565b930151935173ffffffffffffffffffffffffffffffffffffffff1690565b91613c08565b614ff79250803d106123865761237881836102a6565b5f80614f9a565b6150159150843d86116123865761237881836102a6565b5f614f49565b6150329150893d8b1161403d5761402e81836102a6565b5f614eef565b61504f9150883d8a116123865761237881836102a6565b5f614eac565b61506c9150893d8b1161403d5761402e81836102a6565b5f614e45565b61508a919650873d891161403d5761402e81836102a6565b945f614de4565b908160609103126101c7576150a581613083565b9160406150b460208401613083565b92015161043281610647565b6151619060606150e6825173ffffffffffffffffffffffffffffffffffffffff90511690565b6151106125c06125c061012086015173ffffffffffffffffffffffffffffffffffffffff90511690565b60405180809681947ffeb368e20000000000000000000000000000000000000000000000000000000083526004830191909173ffffffffffffffffffffffffffffffffffffffff6020820193169052565b03915afa9182156117705761035792610140915f915f915f916151a9575b5063ffffffff166101a0850181905261ffff91821661018086015291166101608401521515910152565b905063ffffffff92506151d4915060603d6060116151de575b6151cc81836102a6565b810190615091565b919290919061517f565b503d6151c2565b906151ef82610359565b6151fc60405191826102a6565b8281527fffffffffffffffffffffffffffffffffffffffffffffffffffffffffffffffe061522a8294610359565b0190602036910137565b61525a6125c06125c0835173ffffffffffffffffffffffffffffffffffffffff90511690565b604051907f0c3f6acf0000000000000000000000000000000000000000000000000000000082526101c08083600481855afa928315611770575f936156ef575b506152b06152a88451151590565b151585830152565b6152ca6152c361012085015161ffff1690565b61ffff1690565b6101e08501526152e36152c361016085015161ffff1690565b6102008501526152fc6152c361014085015161ffff1690565b6102208501526153346153216101808501516dffffffffffffffffffffffffffff1690565b6dffffffffffffffffffffffffffff1690565b61024085015260808301805190926cffffffffffffffffffffffffff9161535e9083165b86615e94565b6102608701526153a561380260209561538c613867888a01516fffffffffffffffffffffffffffffffff1690565b6102808a0152516cffffffffffffffffffffffffff1690565b6102a08701526040517f01e1d1140000000000000000000000000000000000000000000000000000000081528481600481855afa908115611770575f916156d2575b506102c0870152604051917f0cd1a5b60000000000000000000000000000000000000000000000000000000083528483600481855afa8015611770576154ff935f916156b5575b506102e088015261545561386760608801516fffffffffffffffffffffffffffffffff1690565b61030088015261547861380260a08801516cffffffffffffffffffffffffff1690565b61032088015260c0860193615494613987865163ffffffff1690565b9461034089019586526154b76154ad60e08a0151151590565b15156103608b0152565b6154cc6139876101008a015163ffffffff1690565b6103808a01526154e76139876101a08a015163ffffffff1690565b6103a08a015263ffffffff9485915163ffffffff1690565b1615615518575b505050505050610b5c6103e091615dd1565b604051907f0c1e3fea0000000000000000000000000000000000000000000000000000000082528082600481875afa8015611770576155679260c0925f926139c7575050015163ffffffff1690565b928316948515615506576040517fdbcd50b400000000000000000000000000000000000000000000000000000000815263ffffffff8516600482015292606090849060249082905afa928315611770575f9361568c575b506138026155f2916155dd85516cffffffffffffffffffffffffff1690565b9401516cffffffffffffffffffffffffff1690565b91160361560e5750526103e090610b5c905b915f808080615506565b93809592506103c09150019384519261562f61562a855161375d565b6151e5565b86525f5b845181101561566b578061566561564f610ac46001948961283b565b61565a838b5161283b565b9063ffffffff169052565b01615633565b5090936156879061565a6103e095610b5c95985190519061283b565b615604565b6155f29193506156ad6138029160603d606011613a1c57613a0e81836102a6565b9391506155be565b6156cc9150863d88116123865761237881836102a6565b5f61542e565b6156e99150853d87116123865761237881836102a6565b5f6153e7565b816157079294503d85116139ed576139de81836102a6565b915f61529a565b817fffffffffffffffffffffffffffffffffffffffffffffffffffffffffffffffff04811182021583021561574257020490565b63ad251c275f526004601cfd5b6101406103579260019061576a8282605f1c16859015159052565b605e81901c821615156020850152605d81901c821615156040850152605c81901c821615156060850152605b81901c821615156080850152605a81901c8216151560a0850152605981901c8216151560c0850152605881901c8216151560e0850152605781901c82161515610100850152605681901c8216151561012085015260551c161515910152565b604051906158028261026d565b600d82527f4f70656e5465726d486f6f6b73000000000000000000000000000000000000006020830152565b6040519061583b8261026d565b600e82527f46697865645465726d486f6f6b730000000000000000000000000000000000006020830152565b90816101409103126101c75761587b61034a565b9061588581613092565b825261589360208201613092565b60208301526158a460408201613092565b60408301526158b560608201613092565b60608301526158c660808201613583565b60808301526158d760a082016135e6565b60a08301526158e860c08201613092565b60c08301526158f960e08201613092565b60e083015261010061590c818301613092565b9083015261370b610120809201613092565b908160c09103126101c75761599060a06040519261593b84610251565b61594481613092565b845261595260208201613092565b602085015261596360408201613092565b604085015261597460608201613583565b606085015261598560808201613092565b608085015201613092565b60a082015290565b6040918251907fcd7033c4000000000000000000000000000000000000000000000000000000008252602091828160048173ffffffffffffffffffffffffffffffffffffffff86165afa908115611770576004915f918291615db4575b50606081901c80875290615a0c908688015161574f565b8651928380927f54fd4d500000000000000000000000000000000000000000000000000000000082525afa908115611770575f91615d9a575b50828151910120615a546157f5565b8051908401208103615bcc57509060c08492615a75615ae996860160019052565b615a996125c06125c0875173ffffffffffffffffffffffffffffffffffffffff1690565b845180809881947f2ccf46670000000000000000000000000000000000000000000000000000000083526004830191909173ffffffffffffffffffffffffffffffffffffffff6020820193169052565b03915afa938415611770576103579460e0936134f29360a0935f93615b89575b50615b3191615b20613290615b2893860151151590565b830151151590565b15156080870152565b615b69615b5160608301516fffffffffffffffffffffffffffffffff1690565b6fffffffffffffffffffffffffffffffff1686840152565b615b82615b796080830151151590565b151560c0870152565b0151151590565b615b2891935091615b20613290615bba615b319560c03d60c011615bc5575b615bb281836102a6565b81019061591e565b959350505091615b09565b503d615ba8565b615bd461582e565b83815191012014615be55750505050565b600283850152615c67615c126125c06125c0865173ffffffffffffffffffffffffffffffffffffffff1690565b85517f2ccf466700000000000000000000000000000000000000000000000000000000815273ffffffffffffffffffffffffffffffffffffffff90931660048401526101409182918491829081906024820190565b03915afa801561177057615d509560e0946134f2945f93615d59575b50615c9a91615b20613290615b2893860151151590565b615b82615d46615cad6060840151151590565b615cbe61010091828a019015159052565b615cf7615cde60808601516fffffffffffffffffffffffffffffffff1690565b6fffffffffffffffffffffffffffffffff1660a08a0152565b615b20615d0b60a086015163ffffffff1690565b95615d2161012097888c019063ffffffff169052565b615d3a615d3160c0880151151590565b151560c08c0152565b888601511515908a0152565b1515610160870152565b5f8080806128ce565b615b2891935091615b20613290615d88615c9a95883d8a11615d93575b615d8081836102a6565b810190615867565b959350505091615c83565b503d615d76565b615dae91503d805f833e61353c81836102a6565b5f615a45565b615dcb9150853d87116123865761237881836102a6565b5f6159f5565b6cffffffffffffffffffffffffff908160a08201511691608082015116918083039283116137585761ffff61016083015116807fffffffffffffffffffffffffffffffffffffffffffffffffffffffffffffec7704841115811517156146f6576060615e7c615e56615358615e7695612710611388613867976104329b02010461376b565b615e7661386760408801516fffffffffffffffffffffffffffffffff1690565b9061376b565b9301516fffffffffffffffffffffffffffffffff1690565b906dffffffffffffffffffffffffffff61018061043293015116906146a756fea164736f6c6343000819000a","linkReferences":{}},"methodIdentifiers":{"archController()":"54635570","getAllHooksTemplatesForBorrower(address)":"4b5a900d","getAllMarketsDataForHooksTemplate(address)":"dd92b92b","getHooksDataForBorrower(address)":"65531438","getHooksInstancesForBorrower(address)":"62ef8119","getHooksTemplateForBorrower(address,address)":"9016be4f","getHooksTemplatesForBorrower(address,address[])":"098aaea8","getLenderAccountData(address,address)":"87fed6d2","getLenderAccountData(address,address[])":"ffc7005e","getMarketData(address)":"a30c302d","getMarketDataWithLenderStatus(address,address)":"ddee0865","getMarketsData(address[])":"9f293fb1","getMarketsDataWithLenderStatus(address,address[])":"e85dfdf0","getMarketsForHooksTemplateCount(address)":"d1a0745c","getPaginatedMarketsDataForHooksTemplate(address,uint256,uint256)":"c4482d36","getTokenInfo(address)":"1f69565f","getTokensInfo(address[])":"46a0fe47","getWithdrawalBatchData(address,uint32)":"8febd74f","getWithdrawalBatchDataWithLenderStatus(address,uint32,address)":"733efd1e","getWithdrawalBatchDataWithLendersStatus(address,uint32,address[])":"b31d1015","getWithdrawalBatchesData(address,uint32[])":"274631a3","getWithdrawalBatchesDataWithLenderStatus(address,uint32[],address)":"0c52af99","hooksFactory()":"2385571b","queryLenderAccount((address,address,uint32[]))":"3be9be7a","queryLenderAccounts((address,address,uint32[])[])":"3d8d2dcd"},"id":60}