{"abi":[{"type":"function","name":"isSanctioned","inputs":[{"name":"","type":"address","internalType":"address"}],"outputs":[{"name":"","type":"bool","internalType":"bool"}],"stateMutability":"view"},{"type":"function","name":"sanction","inputs":[{"name":"account","type":"address","internalType":"address"}],"outputs":[],"stateMutability":"nonpayable"},{"type":"function","name":"unsanction","inputs":[{"name":"account","type":"address","internalType":"address"}],"outputs":[],"stateMutability":"nonpayable"}],"bytecode":{"object":"0x6080806040523460145760f990816100198239f35b5f80fdfe608060405260043610156010575f80fd5b5f3560e01c8063298eb83f1460b3578063df592f7d1460765763ed986c6c146036575f80fd5b3460725760203660031901126072576004356001600160a01b038116908190036072575f525f60205260405f20600160ff198254161790555f80f35b5f80fd5b3460725760203660031901126072576004356001600160a01b038116908190036072575f525f602052602060ff60405f2054166040519015158152f35b3460725760203660031901126072576004356001600160a01b038116908190036072575f525f60205260405f2060ff1981541690555f80f3fea164736f6c6343000819000a","linkReferences":{}},"methodIdentifiers":{"isSanctioned(address)":"df592f7d","sanction(address)":"ed986c6c","unsanction(address)":"298eb83f"},"id":46}