{
    "abi": [
        {
            "type": "constructor",
            "inputs": [],
            "stateMutability": "nonpayable"
        },
        {
            "type": "function",
            "name": "cancelOwnershipHandover",
            "inputs": [],
            "outputs": [],
            "stateMutability": "payable"
        },
        {
            "type": "function",
            "name": "completeOwnershipHandover",
            "inputs": [
                {
                    "name": "pendingOwner",
                    "type": "address",
                    "internalType": "address"
                }
            ],
            "outputs": [],
            "stateMutability": "payable"
        },
        {
            "type": "function",
            "name": "isSanctioned",
            "inputs": [
                {
                    "name": "account",
                    "type": "address",
                    "internalType": "address"
                }
            ],
            "outputs": [
                {
                    "name": "",
                    "type": "bool",
                    "internalType": "bool"
                }
            ],
            "stateMutability": "view"
        },
        {
            "type": "function",
            "name": "owner",
            "inputs": [],
            "outputs": [
                {
                    "name": "result",
                    "type": "address",
                    "internalType": "address"
                }
            ],
            "stateMutability": "view"
        },
        {
            "type": "function",
            "name": "ownershipHandoverExpiresAt",
            "inputs": [
                {
                    "name": "pendingOwner",
                    "type": "address",
                    "internalType": "address"
                }
            ],
            "outputs": [
                {
                    "name": "result",
                    "type": "uint256",
                    "internalType": "uint256"
                }
            ],
            "stateMutability": "view"
        },
        {
            "type": "function",
            "name": "renounceOwnership",
            "inputs": [],
            "outputs": [],
            "stateMutability": "payable"
        },
        {
            "type": "function",
            "name": "requestOwnershipHandover",
            "inputs": [],
            "outputs": [],
            "stateMutability": "payable"
        },
        {
            "type": "function",
            "name": "sanctionsRegistry",
            "inputs": [],
            "outputs": [
                {
                    "name": "",
                    "type": "address",
                    "internalType": "address"
                }
            ],
            "stateMutability": "view"
        },
        {
            "type": "function",
            "name": "setSanctionsRegistry",
            "inputs": [
                {
                    "name": "_sanctionsRegistry",
                    "type": "address",
                    "internalType": "address"
                }
            ],
            "outputs": [],
            "stateMutability": "nonpayable"
        },
        {
            "type": "function",
            "name": "transferOwnership",
            "inputs": [
                {
                    "name": "newOwner",
                    "type": "address",
                    "internalType": "address"
                }
            ],
            "outputs": [],
            "stateMutability": "payable"
        },
        {
            "type": "event",
            "name": "OwnershipHandoverCanceled",
            "inputs": [
                {
                    "name": "pendingOwner",
                    "type": "address",
                    "indexed": true,
                    "internalType": "address"
                }
            ],
            "anonymous": false
        },
        {
            "type": "event",
            "name": "OwnershipHandoverRequested",
            "inputs": [
                {
                    "name": "pendingOwner",
                    "type": "address",
                    "indexed": true,
                    "internalType": "address"
                }
            ],
            "anonymous": false
        },
        {
            "type": "event",
            "name": "OwnershipTransferred",
            "inputs": [
                {
                    "name": "oldOwner",
                    "type": "address",
                    "indexed": true,
                    "internalType": "address"
                },
                {
                    "name": "newOwner",
                    "type": "address",
                    "indexed": true,
                    "internalType": "address"
                }
            ],
            "anonymous": false
        },
        {
            "type": "error",
            "name": "NewOwnerIsZeroAddress",
            "inputs": []
        },
        {
            "type": "error",
            "name": "NoHandoverRequest",
            "inputs": []
        },
        {
            "type": "error",
            "name": "Unauthorized",
            "inputs": []
        }
    ],
    "bytecode": {
        "object": "0x6080806040523460435733638b78c6d81955335f7f8be0079c531659141344cd1fd0a4f28419497f9722a3daafe3b4186f6b6457e08180a361043b90816100488239f35b5f80fdfe6080604052600480361015610012575f80fd5b5f3560e01c806325692962146103105780634999c8e1146102e957806354d1f13d146102a557806355095aea1461025e578063715018a61461021a5780638da5cb5b146101ee578063df592f7d146101b6578063f04e283e14610135578063f2fde38b146100c75763fee81cf414610088575f80fd5b346100c35760203660031901126100c357356001600160a01b03811681036100c35763389a75e1600c525f52602080600c2054604051908152f35b5f80fd5b5060203660031901126100c35780356001600160a01b03811691908281036100c3576100f1610412565b60601b1561012a5750638b78c6d8198181547f8be0079c531659141344cd1fd0a4f28419497f9722a3daafe3b4186f6b6457e05f80a355005b637448fbae5f52601cfd5b5060203660031901126100c35780356001600160a01b03811691908281036100c35761015f610412565b63389a75e1600c525f526020600c2090815442116101ab57505f9055638b78c6d8198181547f8be0079c531659141344cd1fd0a4f28419497f9722a3daafe3b4186f6b6457e05f80a355005b636f5e88185f52601cfd5b50346100c35760203660031901126100c357356001600160a01b03811681036100c3576101e4602091610359565b6040519015158152f35b346100c3575f3660031901126100c357638b78c6d819546040516001600160a01b039091168152602090f35b5f3660031901126100c35761022d610412565b5f638b78c6d8198181547f8be0079c531659141344cd1fd0a4f28419497f9722a3daafe3b4186f6b6457e08280a355005b50346100c35760203660031901126100c357356001600160a01b038116908190036100c35761028b610412565b6bffffffffffffffffffffffff60a01b5f5416175f555f80f35b5f3660031901126100c35763389a75e1600c52335f525f6020600c2055337ffa7b8eab7da67f412cc9575ed43464468f9bfbae89d1675917346ca6d8fe3c925f80a2005b346100c3575f3660031901126100c3575f546040516001600160a01b039091168152602090f35b5f3660031901126100c35763389a75e1600c52335f526202a30042016020600c2055337fdbf36a107da19e49527a7176a1babf963b4b0ff8cde35ee35d6cd8f1f9ac7e1d5f80a2005b5f546001600160a01b039081169190821561040b576024602092604051948593849263df592f7d60e01b84521660048301525afa908115610400575f9161039e575090565b905060203d6020116103f9575b601f8101601f1916820167ffffffffffffffff8111838210176103e5576020918391604052810103126100c3575180151581036100c35790565b634e487b7160e01b5f52604160045260245ffd5b503d6103ab565b6040513d5f823e3d90fd5b5050505f90565b638b78c6d81954330361042157565b6382b429005f526004601cfdfea164736f6c6343000819000a",
        "linkReferences": {}
    },
    "methodIdentifiers": {
        "cancelOwnershipHandover()": "54d1f13d",
        "completeOwnershipHandover(address)": "f04e283e",
        "isSanctioned(address)": "df592f7d",
        "owner()": "8da5cb5b",
        "ownershipHandoverExpiresAt(address)": "fee81cf4",
        "renounceOwnership()": "715018a6",
        "requestOwnershipHandover()": "25692962",
        "sanctionsRegistry()": "4999c8e1",
        "setSanctionsRegistry(address)": "55095aea",
        "transferOwnership(address)": "f2fde38b"
    },
    "id": 44
}