{"abi":[{"type":"constructor","inputs":[],"stateMutability":"nonpayable"},{"type":"function","name":"acceptSphereXAdminRole","inputs":[],"outputs":[],"stateMutability":"nonpayable"},{"type":"function","name":"addBlacklist","inputs":[{"name":"asset","type":"address","internalType":"address"}],"outputs":[],"stateMutability":"nonpayable"},{"type":"function","name":"cancelOwnershipHandover","inputs":[],"outputs":[],"stateMutability":"payable"},{"type":"function","name":"changeSphereXEngine","inputs":[{"name":"newSphereXEngine","type":"address","internalType":"address"}],"outputs":[],"stateMutability":"nonpayable"},{"type":"function","name":"changeSphereXOperator","inputs":[{"name":"newSphereXOperator","type":"address","internalType":"address"}],"outputs":[],"stateMutability":"nonpayable"},{"type":"function","name":"completeOwnershipHandover","inputs":[{"name":"pendingOwner","type":"address","internalType":"address"}],"outputs":[],"stateMutability":"payable"},{"type":"function","name":"getBlacklistedAssets","inputs":[],"outputs":[{"name":"","type":"address[]","internalType":"address[]"}],"stateMutability":"view"},{"type":"function","name":"getBlacklistedAssets","inputs":[{"name":"start","type":"uint256","internalType":"uint256"},{"name":"end","type":"uint256","internalType":"uint256"}],"outputs":[{"name":"arr","type":"address[]","internalType":"address[]"}],"stateMutability":"view"},{"type":"function","name":"getBlacklistedAssetsCount","inputs":[],"outputs":[{"name":"","type":"uint256","internalType":"uint256"}],"stateMutability":"view"},{"type":"function","name":"getRegisteredBorrowers","inputs":[],"outputs":[{"name":"","type":"address[]","internalType":"address[]"}],"stateMutability":"view"},{"type":"function","name":"getRegisteredBorrowers","inputs":[{"name":"start","type":"uint256","internalType":"uint256"},{"name":"end","type":"uint256","internalType":"uint256"}],"outputs":[{"name":"arr","type":"address[]","internalType":"address[]"}],"stateMutability":"view"},{"type":"function","name":"getRegisteredBorrowersCount","inputs":[],"outputs":[{"name":"","type":"uint256","internalType":"uint256"}],"stateMutability":"view"},{"type":"function","name":"getRegisteredControllerFactories","inputs":[{"name":"start","type":"uint256","internalType":"uint256"},{"name":"end","type":"uint256","internalType":"uint256"}],"outputs":[{"name":"arr","type":"address[]","internalType":"address[]"}],"stateMutability":"view"},{"type":"function","name":"getRegisteredControllerFactories","inputs":[],"outputs":[{"name":"","type":"address[]","internalType":"address[]"}],"stateMutability":"view"},{"type":"function","name":"getRegisteredControllerFactoriesCount","inputs":[],"outputs":[{"name":"","type":"uint256","internalType":"uint256"}],"stateMutability":"view"},{"type":"function","name":"getRegisteredControllers","inputs":[{"name":"start","type":"uint256","internalType":"uint256"},{"name":"end","type":"uint256","internalType":"uint256"}],"outputs":[{"name":"arr","type":"address[]","internalType":"address[]"}],"stateMutability":"view"},{"type":"function","name":"getRegisteredControllers","inputs":[],"outputs":[{"name":"","type":"address[]","internalType":"address[]"}],"stateMutability":"view"},{"type":"function","name":"getRegisteredControllersCount","inputs":[],"outputs":[{"name":"","type":"uint256","internalType":"uint256"}],"stateMutability":"view"},{"type":"function","name":"getRegisteredMarkets","inputs":[],"outputs":[{"name":"","type":"address[]","internalType":"address[]"}],"stateMutability":"view"},{"type":"function","name":"getRegisteredMarkets","inputs":[{"name":"start","type":"uint256","internalType":"uint256"},{"name":"end","type":"uint256","internalType":"uint256"}],"outputs":[{"name":"arr","type":"address[]","internalType":"address[]"}],"stateMutability":"view"},{"type":"function","name":"getRegisteredMarketsCount","inputs":[],"outputs":[{"name":"","type":"uint256","internalType":"uint256"}],"stateMutability":"view"},{"type":"function","name":"isBlacklistedAsset","inputs":[{"name":"asset","type":"address","internalType":"address"}],"outputs":[{"name":"","type":"bool","internalType":"bool"}],"stateMutability":"view"},{"type":"function","name":"isRegisteredBorrower","inputs":[{"name":"borrower","type":"address","internalType":"address"}],"outputs":[{"name":"","type":"bool","internalType":"bool"}],"stateMutability":"view"},{"type":"function","name":"isRegisteredController","inputs":[{"name":"controller","type":"address","internalType":"address"}],"outputs":[{"name":"","type":"bool","internalType":"bool"}],"stateMutability":"view"},{"type":"function","name":"isRegisteredControllerFactory","inputs":[{"name":"factory","type":"address","internalType":"address"}],"outputs":[{"name":"","type":"bool","internalType":"bool"}],"stateMutability":"view"},{"type":"function","name":"isRegisteredMarket","inputs":[{"name":"market","type":"address","internalType":"address"}],"outputs":[{"name":"","type":"bool","internalType":"bool"}],"stateMutability":"view"},{"type":"function","name":"owner","inputs":[],"outputs":[{"name":"result","type":"address","internalType":"address"}],"stateMutability":"view"},{"type":"function","name":"ownershipHandoverExpiresAt","inputs":[{"name":"pendingOwner","type":"address","internalType":"address"}],"outputs":[{"name":"result","type":"uint256","internalType":"uint256"}],"stateMutability":"view"},{"type":"function","name":"pendingSphereXAdmin","inputs":[],"outputs":[{"name":"","type":"address","internalType":"address"}],"stateMutability":"view"},{"type":"function","name":"registerBorrower","inputs":[{"name":"borrower","type":"address","internalType":"address"}],"outputs":[],"stateMutability":"nonpayable"},{"type":"function","name":"registerController","inputs":[{"name":"controller","type":"address","internalType":"address"}],"outputs":[],"stateMutability":"nonpayable"},{"type":"function","name":"registerControllerFactory","inputs":[{"name":"factory","type":"address","internalType":"address"}],"outputs":[],"stateMutability":"nonpayable"},{"type":"function","name":"registerMarket","inputs":[{"name":"market","type":"address","internalType":"address"}],"outputs":[],"stateMutability":"nonpayable"},{"type":"function","name":"removeBlacklist","inputs":[{"name":"asset","type":"address","internalType":"address"}],"outputs":[],"stateMutability":"nonpayable"},{"type":"function","name":"removeBorrower","inputs":[{"name":"borrower","type":"address","internalType":"address"}],"outputs":[],"stateMutability":"nonpayable"},{"type":"function","name":"removeController","inputs":[{"name":"controller","type":"address","internalType":"address"}],"outputs":[],"stateMutability":"nonpayable"},{"type":"function","name":"removeControllerFactory","inputs":[{"name":"factory","type":"address","internalType":"address"}],"outputs":[],"stateMutability":"nonpayable"},{"type":"function","name":"removeMarket","inputs":[{"name":"market","type":"address","internalType":"address"}],"outputs":[],"stateMutability":"nonpayable"},{"type":"function","name":"renounceOwnership","inputs":[],"outputs":[],"stateMutability":"payable"},{"type":"function","name":"requestOwnershipHandover","inputs":[],"outputs":[],"stateMutability":"payable"},{"type":"function","name":"sphereXAdmin","inputs":[],"outputs":[{"name":"","type":"address","internalType":"address"}],"stateMutability":"view"},{"type":"function","name":"sphereXEngine","inputs":[],"outputs":[{"name":"","type":"address","internalType":"address"}],"stateMutability":"view"},{"type":"function","name":"sphereXOperator","inputs":[],"outputs":[{"name":"","type":"address","internalType":"address"}],"stateMutability":"view"},{"type":"function","name":"transferOwnership","inputs":[{"name":"newOwner","type":"address","internalType":"address"}],"outputs":[],"stateMutability":"payable"},{"type":"function","name":"transferSphereXAdminRole","inputs":[{"name":"newAdmin","type":"address","internalType":"address"}],"outputs":[],"stateMutability":"nonpayable"},{"type":"function","name":"updateSphereXEngineOnRegisteredContracts","inputs":[{"name":"controllerFactories","type":"address[]","internalType":"address[]"},{"name":"controllers","type":"address[]","internalType":"address[]"},{"name":"markets","type":"address[]","internalType":"address[]"}],"outputs":[],"stateMutability":"nonpayable"},{"type":"event","name":"AssetBlacklisted","inputs":[{"name":"asset","type":"address","indexed":false,"internalType":"address"}],"anonymous":false},{"type":"event","name":"AssetPermitted","inputs":[{"name":"asset","type":"address","indexed":false,"internalType":"address"}],"anonymous":false},{"type":"event","name":"BorrowerAdded","inputs":[{"name":"borrower","type":"address","indexed":false,"internalType":"address"}],"anonymous":false},{"type":"event","name":"BorrowerRemoved","inputs":[{"name":"borrower","type":"address","indexed":false,"internalType":"address"}],"anonymous":false},{"type":"event","name":"ChangedSpherexEngineAddress","inputs":[{"name":"oldEngineAddress","type":"address","indexed":false,"internalType":"address"},{"name":"newEngineAddress","type":"address","indexed":false,"internalType":"address"}],"anonymous":false},{"type":"event","name":"ChangedSpherexOperator","inputs":[{"name":"oldSphereXAdmin","type":"address","indexed":false,"internalType":"address"},{"name":"newSphereXAdmin","type":"address","indexed":false,"internalType":"address"}],"anonymous":false},{"type":"event","name":"ControllerAdded","inputs":[{"name":"controllerFactory","type":"address","indexed":true,"internalType":"address"},{"name":"controller","type":"address","indexed":false,"internalType":"address"}],"anonymous":false},{"type":"event","name":"ControllerFactoryAdded","inputs":[{"name":"controllerFactory","type":"address","indexed":false,"internalType":"address"}],"anonymous":false},{"type":"event","name":"ControllerFactoryRemoved","inputs":[{"name":"controllerFactory","type":"address","indexed":false,"internalType":"address"}],"anonymous":false},{"type":"event","name":"ControllerRemoved","inputs":[{"name":"controller","type":"address","indexed":false,"internalType":"address"}],"anonymous":false},{"type":"event","name":"MarketAdded","inputs":[{"name":"controller","type":"address","indexed":true,"internalType":"address"},{"name":"market","type":"address","indexed":false,"internalType":"address"}],"anonymous":false},{"type":"event","name":"MarketRemoved","inputs":[{"name":"market","type":"address","indexed":false,"internalType":"address"}],"anonymous":false},{"type":"event","name":"NewAllowedSenderOnchain","inputs":[{"name":"sender","type":"address","indexed":false,"internalType":"address"}],"anonymous":false},{"type":"event","name":"OwnershipHandoverCanceled","inputs":[{"name":"pendingOwner","type":"address","indexed":true,"internalType":"address"}],"anonymous":false},{"type":"event","name":"OwnershipHandoverRequested","inputs":[{"name":"pendingOwner","type":"address","indexed":true,"internalType":"address"}],"anonymous":false},{"type":"event","name":"OwnershipTransferred","inputs":[{"name":"oldOwner","type":"address","indexed":true,"internalType":"address"},{"name":"newOwner","type":"address","indexed":true,"internalType":"address"}],"anonymous":false},{"type":"event","name":"SpherexAdminTransferCompleted","inputs":[{"name":"oldAdmin","type":"address","indexed":false,"internalType":"address"},{"name":"newAdmin","type":"address","indexed":false,"internalType":"address"}],"anonymous":false},{"type":"event","name":"SpherexAdminTransferStarted","inputs":[{"name":"currentAdmin","type":"address","indexed":false,"internalType":"address"},{"name":"pendingAdmin","type":"address","indexed":false,"internalType":"address"}],"anonymous":false},{"type":"error","name":"AssetAlreadyBlacklisted","inputs":[]},{"type":"error","name":"AssetNotBlacklisted","inputs":[]},{"type":"error","name":"BorrowerAlreadyExists","inputs":[]},{"type":"error","name":"BorrowerDoesNotExist","inputs":[]},{"type":"error","name":"ControllerAlreadyExists","inputs":[]},{"type":"error","name":"ControllerDoesNotExist","inputs":[]},{"type":"error","name":"ControllerFactoryAlreadyExists","inputs":[]},{"type":"error","name":"ControllerFactoryDoesNotExist","inputs":[]},{"type":"error","name":"MarketAlreadyExists","inputs":[]},{"type":"error","name":"MarketDoesNotExist","inputs":[]},{"type":"error","name":"NewOwnerIsZeroAddress","inputs":[]},{"type":"error","name":"NoHandoverRequest","inputs":[]},{"type":"error","name":"NotController","inputs":[]},{"type":"error","name":"NotControllerFactory","inputs":[]},{"type":"error","name":"SphereXAdminRequired","inputs":[]},{"type":"error","name":"SphereXNotEngine","inputs":[]},{"type":"error","name":"SphereXNotPendingAdmin","inputs":[]},{"type":"error","name":"SphereXOperatorOrAdminRequired","inputs":[]},{"type":"error","name":"SphereXOperatorRequired","inputs":[]},{"type":"error","name":"Unauthorized","inputs":[]}],"bytecode":{"object":"0x3461012357337fca334bf49ef20e9cbff039feda3bc1c2a853aff17b1b5187e4aa1380ec55829c555f8052336020527f67ebaebcd2ca5a91a404e898110f221747e8d15567f2388a34794aab151cf3e660405fa15f7fadf90d75f0f2d657d5a22fa0f6e4dabb83c4598b77158eb4119cb38f1d864462555f6020527f2ac55ae7ba47db34b5334622acafeb34a65daf143b47019273185d64c73a35a560405fa15f7f1777adabd324f814e2b0e28f6edf876dce01d7d66358c9acfe87b1b5f38338d5557ff33499cccaa0611882086224cc48cd82ef54b66a4d2edf4ed67108dd516896d560405fa133638b78c6d81955335f7f8be0079c531659141344cd1fd0a4f28419497f9722a3daafe3b4186f6b6457e08180a3612214806101286080396080f35b5f80fdfe60806040526004361015610011575f80fd5b5f3560e01c80630787c1fe146102f45780630e572082146102ef5780631b4f512c146102ea5780631ce28ab7146102e557806325692962146102e05780633c231166146102db5780633d05a1d3146102d657806346762101146102d15780634a58e49e146102cc5780634c6c848f146102c75780634ee8f858146102c257806354d1f13d146102bd5780636e0fb58d146102b8578063715018a6146102b357806376c7fc55146102ae57806378e9c224146102a957806379adfa6c146102a45780637ade7f201461029f5780638426b9681461029a57806384b870ab146102955780638b13e382146102905780638b984bb31461028b5780638cdcb3e6146102865780638da5cb5b1461028157806399882f701461027c57806399e80f3b146102775780639aa9019e146102725780639cfe42da1461026d578063a1c4bff814610268578063a79b9ec914610263578063abad74261461025e578063b0018c6014610259578063b9bccae814610254578063b9d5dfe81461024f578063be736ff81461024a578063d91ae8c214610245578063daba7ef714610240578063db316dbc1461023b578063db91323614610236578063e7e5db4f14610231578063eb91e6511461022c578063f04e283e14610227578063f2fde38b14610222578063f631241e1461021d578063f6a74ed7146102185763fee81cf414610213575f80fd5b6115df565b611568565b6113c5565b611359565b61130c565b611295565b611261565b6111ea565b611172565b6110eb565b611044565b610fc1565b610fa4565b610f2c565b610ef2565b610e7b565b610dd4565b610d51565b610cda565b610c93565b610c5f565b610c27565b610bfb565b610bb9565b610b36565b610abf565b610aa3565b610a10565b61098e565b610916565b6108f9565b610882565b61083e565b6107c6565b610782565b6106ff565b610611565b6105d7565b610556565b610539565b610505565b6104bc565b61049f565b61041d565b610391565b610313565b600435906001600160a01b038216820361030f57565b5f80fd5b3461030f57602036600319011261030f576001600160a01b036103346102f9565b165f526005602052602060405f20541515604051908152f35b60209060206040818301928281528551809452019301915f5b828110610374575050505090565b83516001600160a01b031685529381019392810192600101610366565b3461030f57604036600319011261030f57600435602435600254908180820391100201818103908111610418576103c781611678565b905f5b8181106103e357604051806103df858261034d565b0390f35b80840190818511610418576103f9600192611a0b565b838060a01b0391549060031b1c1661041182866116be565b52016103ca565b611611565b3461030f57602036600319011261030f576104366102f9565b61043e611735565b6001600160a01b0381169061045282611b12565b1561048d577f8968daf7b2953d00c089355179545009ad3fc90082d096e28b028bbdad5cc5ab9161048460209261175c565b604051908152a1005b6040516304aa819d60e41b8152600490fd5b3461030f575f36600319011261030f576020600454604051908152f35b5f36600319011261030f5763389a75e1600c52335f526202a30042016020600c2055337fdbf36a107da19e49527a7176a1babf963b4b0ff8cde35ee35d6cd8f1f9ac7e1d5f80a2005b3461030f575f36600319011261030f575f805160206121a8833981519152546040516001600160a01b039091168152602090f35b3461030f575f36600319011261030f576020600654604051908152f35b3461030f575f36600319011261030f576040515f8054808352818052602080840193927f290decd9548b62a8d60345a988386fc84ba6bc95484008f6362f93160ef3e56392915b8282106105c0576103df856105b481890382611639565b6040519182918261034d565b83548652948501946001938401939091019061059d565b3461030f57602036600319011261030f576001600160a01b036105f86102f9565b165f526001602052602060405f20541515604051908152f35b3461030f57602036600319011261030f5761062a6102f9565b5f80516020612188833981519152546001600160a01b039190821633036106f2575f805160206121a88339815191529182549082168015159081610680575b5061067b578161067993556117fb565b005b611d30565b6040516301ffc9a760e01b81526329f20dd560e11b60048201529150602090829060249082905afa9081156106ed575f916106be575b50155f610669565b6106e0915060203d6020116106e6575b6106d88183611639565b8101906117e3565b5f6106b6565b503d6106ce565b611751565b634ee0b8f85f526004601cfd5b3461030f57602036600319011261030f576107186102f9565b5f805160206121c8833981519152546001600160a01b03163303610775575f8051602061218883398151915281815491555f526020527f2ac55ae7ba47db34b5334622acafeb34a65daf143b47019273185d64c73a35a560405fa1005b636222a5505f526004601cfd5b5f36600319011261030f5763389a75e1600c52335f525f6020600c2055337ffa7b8eab7da67f412cc9575ed43464468f9bfbae89d1675917346ca6d8fe3c925f80a2005b3461030f575f36600319011261030f57604051806002549182815260208091019260025f527f405787fa12a823e0f2b7631cc41b3ba8828b3321ca811111fa75cd3aa3bb5ace915f905b828210610827576103df856105b481890382611639565b835486529485019460019384019390910190610810565b5f36600319011261030f57610851611735565b5f638b78c6d8198181547f8be0079c531659141344cd1fd0a4f28419497f9722a3daafe3b4186f6b6457e08280a355005b3461030f57602036600319011261030f5761089b6102f9565b6108a3611735565b6001600160a01b03166108b581611ea2565b156108e75760207feb31998799e9a09df1e8e5fd968bfeb5519b82b1b88d59dec8c860eac026586491604051908152a1005b6040516332ffc55b60e11b8152600490fd5b3461030f575f36600319011261030f576020600254604051908152f35b3461030f575f36600319011261030f57604051806008549182815260208091019260085f527ff3f7a9fe364faab93b216da50a3214154f22a0a2b415b23a84c8169e8b636ee3915f905b828210610977576103df856105b481890382611639565b835486529485019460019384019390910190610960565b3461030f57604036600319011261030f576004356024355f54908180820391100201818103908111610418576109c381611678565b905f5b8181106109db57604051806103df858261034d565b80840190818511610418576109f1600192611a40565b838060a01b0391549060031b1c16610a0982866116be565b52016109c6565b3461030f575f36600319011261030f577f3a517dd736309b905c692160a21b5439bdc56db1dc77d6982b66d44814e3fa9680546001600160a01b03163303610a96575f5f805160206121c883398151915291825492339055555f52336020527f67ebaebcd2ca5a91a404e898110f221747e8d15567f2388a34794aab151cf3e660405fa1005b634d28a58e5f526004601cfd5b3461030f575f36600319011261030f5760205f54604051908152f35b3461030f57602036600319011261030f57610ad86102f9565b610ae0611735565b6001600160a01b0316610af281611f4d565b15610b245760207f92b171cd00b60c6242c08403ef5f6b7258d81b3cba5956c115799d7a118874f991604051908152a1005b6040516342ab212760e01b8152600490fd5b3461030f57604036600319011261030f5760043560243560085490818082039110020181810390811161041857610b6c81611678565b905f5b818110610b8457604051806103df858261034d565b8084019081851161041857610b9a600192611a73565b838060a01b0391549060031b1c16610bb282866116be565b5201610b6f565b3461030f57602036600319011261030f576020610bf16001600160a01b03610bdf6102f9565b165f52600760205260405f2054151590565b6040519015158152f35b3461030f575f36600319011261030f57638b78c6d819546040516001600160a01b039091168152602090f35b3461030f57602036600319011261030f576020610bf16001600160a01b03610c4d6102f9565b165f52600360205260405f2054151590565b3461030f575f36600319011261030f575f805160206121c8833981519152546040516001600160a01b039091168152602090f35b3461030f575f36600319011261030f577f3a517dd736309b905c692160a21b5439bdc56db1dc77d6982b66d44814e3fa96546040516001600160a01b039091168152602090f35b3461030f57602036600319011261030f57610cf36102f9565b610cfb611735565b6001600160a01b0316610d0d81611b83565b15610d3f5760207f10c0fc3aa3fe3ed617ce4c1f51f37e0203828eeab656b100bfb44b569779d63891604051908152a1005b60405163a99bf01360e01b8152600490fd5b3461030f57604036600319011261030f5760043560243560065490818082039110020181810390811161041857610d8781611678565b905f5b818110610d9f57604051806103df858261034d565b8084019081851161041857610db5600192611aa8565b838060a01b0391549060031b1c16610dcd82866116be565b5201610d8a565b3461030f57602036600319011261030f57610ded6102f9565b610e02335f52600760205260405f2054151590565b15610e69576001600160a01b03811690610e1b82611bef565b15610e5757610e299061175c565b6040519081527f7772c85e68debdf74fad87834e2cc05fa763e74faf14de7096da30529065114260203392a2005b604051630313b28560e01b8152600490fd5b6040516323019e6760e01b8152600490fd5b3461030f57602036600319011261030f57610e946102f9565b610e9c611735565b6001600160a01b0316610eae81611c58565b15610ee05760207ff936762bbd5951fd80f529c57a3ca1141f0b79ab926abd60a3879f75eb6b72a691604051908152a1005b6040516312635b0b60e21b8152600490fd5b3461030f57602036600319011261030f576001600160a01b03610f136102f9565b165f526009602052602060405f20541515604051908152f35b3461030f575f36600319011261030f57604051806004549182815260208091019260045f527f8a35acfbc15ff81a39ae7d344fd709f28e8600b4aa8c65c6b64bfe7fe36bd19b915f905b828210610f8d576103df856105b481890382611639565b835486529485019460019384019390910190610f76565b3461030f575f36600319011261030f576020600854604051908152f35b3461030f57604036600319011261030f5760043560243560045490818082039110020181810390811161041857610ff781611678565b905f5b81811061100f57604051806103df858261034d565b8084019081851161041857611025600192611add565b838060a01b0391549060031b1c1661103d82866116be565b5201610ffa565b3461030f57602036600319011261030f5761105d6102f9565b611072335f52600360205260405f2054151590565b156110d9576001600160a01b0381169061108b82611cc4565b156110c7576110999061175c565b6040519081527f09703263c91de41f96b822b3995609acf9858ba081d151c4e7ec3398085ae32660203392a2005b60405163983b8f4b60e01b8152600490fd5b60405163d11dcc5360e01b8152600490fd5b3461030f57602036600319011261030f576111046102f9565b5f805160206121c8833981519152546001600160a01b038116330361077557817f3a517dd736309b905c692160a21b5439bdc56db1dc77d6982b66d44814e3fa96555f526020527f5778f1547abbbb86090a43c32aec38334b31df4beeb6f8f3fa063f593b53a52660405fa1005b3461030f575f36600319011261030f57604051806006549182815260208091019260065f527ff652222313e28459528d920b65115c16c04f3efc82aaedc97be59f3f377c0d3f915f905b8282106111d3576103df856105b481890382611639565b8354865294850194600193840193909101906111bc565b3461030f57602036600319011261030f576112036102f9565b61120b611735565b6001600160a01b031661121d81611fca565b1561124f5760207f59d7b1e52008dc342c9421dadfc773114b914a65682a4e4b53cf60a970df0d7791604051908152a1005b60405163b0cfa44760e01b8152600490fd5b3461030f575f36600319011261030f575f80516020612188833981519152546040516001600160a01b039091168152602090f35b3461030f57602036600319011261030f576112ae6102f9565b6112b6611735565b6001600160a01b03166112c881612070565b156112fa5760207fbfd78d1acd7fdf715658096e9116ace58b0b335d6d8d4fc53e0aec7edbd7d44191604051908152a1005b604051630195408d60e01b8152600490fd5b602036600319011261030f576113206102f9565b611328611735565b63389a75e1600c52805f526020600c20908154421161134c575f6106799255611827565b636f5e88185f526004601cfd5b602036600319011261030f5761136d6102f9565b611375611735565b8060601b156113875761067990611827565b637448fbae5f526004601cfd5b9181601f8401121561030f5782359167ffffffffffffffff831161030f576020808501948460051b01011161030f57565b3461030f57606036600319011261030f5767ffffffffffffffff60043581811161030f576113f7903690600401611394565b60249291923582811161030f57611412903690600401611394565b93909260443590811161030f5761142d903690600401611394565b5f80516020612188833981519152546001600160a01b03959086163314158061154e575b611541575f805160206121a883398151915254604051634c6c848f60e01b60208201526001600160a01b038216602480830191909152815261067998909691959091601f196114a160448a611639565b60609988166114e5575b506114d96114df9695946114d2946114d28c8c6114cc8298829836916116d7565b8d61185f565b36916116d7565b876118f3565b9061197f565b6114cc99506114df9695946114d2946114d28b94856114d995611530604051916308f6f17360e11b60208401528261152460248201905f602083019252565b03908101835282611639565b9e50509450509450949596506114ab565b63b2dbeb595f526004601cfd5b50855f805160206121c88339815191525416331415611451565b3461030f57602036600319011261030f576115816102f9565b611589611735565b6001600160a01b031661159b816120ed565b156115cd5760207f33d83959be2573f5453b12eb9d43b3499bc57d96bd2f067ba44803c859e8111391604051908152a1005b6040516385e1605f60e01b8152600490fd5b3461030f57602036600319011261030f576115f86102f9565b63389a75e1600c525f52602080600c2054604051908152f35b634e487b7160e01b5f52601160045260245ffd5b634e487b7160e01b5f52604160045260245ffd5b90601f8019910116810190811067ffffffffffffffff82111761165b57604052565b611625565b67ffffffffffffffff811161165b5760051b60200190565b9061168282611660565b61168f6040519182611639565b82815280926116a0601f1991611660565b0190602036910137565b634e487b7160e01b5f52603260045260245ffd5b80518210156116d25760209160051b010190565b6116aa565b92916116e282611660565b916116f06040519384611639565b829481845260208094019160051b810192831161030f57905b8282106117165750505050565b81356001600160a01b038116810361030f578152908301908301611709565b638b78c6d81954330361174457565b6382b429005f526004601cfd5b6040513d5f823e3d90fd5b5f805160206121a8833981519152546001600160a01b03908116908161178157505050565b813b1561030f575f916024839260405194859384926308f6f17360e11b8452881660048401525af180156106ed576117cb575b505f525f805160206121e883398151915260205fa1565b67ffffffffffffffff811161165b576040525f6117b4565b9081602091031261030f5751801515810361030f5790565b5f526020527ff33499cccaa0611882086224cc48cd82ef54b66a4d2edf4ed67108dd516896d560405fa1565b60018060a01b0316638b78c6d8198181547f8be0079c531659141344cd1fd0a4f28419497f9722a3daafe3b4186f6b6457e05f80a355565b90939291935f5b81518110156118eb576001600160a01b03908161188382856116be565b5116805f5260206003815260405f2054156118de576001936118a58a8461216a565b86166118b4575b505001611866565b815f805160206121e88339815191529260248901526118d3888861216a565b5f525fa15f806118ac565b6342ab21275f526004601cfd5b505050509050565b90939291935f5b81518110156118eb576001600160a01b03908161191782856116be565b5116805f5260206007815260405f205415611972576001936119398a8461216a565b8616611948575b5050016118fa565b815f805160206121e8833981519152926024890152611967888861216a565b5f525fa15f80611940565b6385e1605f5f526004601cfd5b90939291935f5b81518110156118eb576001600160a01b0390816119a382856116be565b5116805f5260206001815260405f2054156119fe576001936119c58a8461216a565b86166119d4575b505001611986565b815f805160206121e88339815191529260248901526119f3888861216a565b5f525fa15f806119cc565b63b0cfa4475f526004601cfd5b6002548110156116d25760025f527f405787fa12a823e0f2b7631cc41b3ba8828b3321ca811111fa75cd3aa3bb5ace01905f90565b5f548110156116d2575f80527f290decd9548b62a8d60345a988386fc84ba6bc95484008f6362f93160ef3e56301905f90565b6008548110156116d25760085f527ff3f7a9fe364faab93b216da50a3214154f22a0a2b415b23a84c8169e8b636ee301905f90565b6006548110156116d25760065f527ff652222313e28459528d920b65115c16c04f3efc82aaedc97be59f3f377c0d3f01905f90565b6004548110156116d25760045f527f8a35acfbc15ff81a39ae7d344fd709f28e8600b4aa8c65c6b64bfe7fe36bd19b01905f90565b805f52600360205260405f2054155f14611b7e57600254600160401b81101561165b5760018101806002558110156116d25781907f405787fa12a823e0f2b7631cc41b3ba8828b3321ca811111fa75cd3aa3bb5ace0155600254905f52600360205260405f2055600190565b505f90565b805f52600960205260405f2054155f14611b7e57600854600160401b81101561165b5760018101806008558110156116d25781907ff3f7a9fe364faab93b216da50a3214154f22a0a2b415b23a84c8169e8b636ee30155600854905f52600960205260405f2055600190565b805f52600160205260405f2054155f14611b7e575f54600160401b81101561165b5760018101805f558110156116d25781907f290decd9548b62a8d60345a988386fc84ba6bc95484008f6362f93160ef3e56301555f54905f52600160205260405f2055600190565b805f52600560205260405f2054155f14611b7e57600454600160401b81101561165b5760018101806004558110156116d25781907f8a35acfbc15ff81a39ae7d344fd709f28e8600b4aa8c65c6b64bfe7fe36bd19b0155600454905f52600560205260405f2055600190565b805f52600760205260405f2054155f14611b7e57600654600160401b81101561165b5760018101806006558110156116d25781907ff652222313e28459528d920b65115c16c04f3efc82aaedc97be59f3f377c0d3f0155600654905f52600760205260405f2055600190565b637dcb7ada5f526004601cfd5b6004548015611d81575f19810190808210156116d2577f8a35acfbc15ff81a39ae7d344fd709f28e8600b4aa8c65c6b64bfe7fe36bd19a5f91600483520155600455565b634e487b7160e01b5f52603160045260245ffd5b6002548015611d81575f19810190808210156116d2577f405787fa12a823e0f2b7631cc41b3ba8828b3321ca811111fa75cd3aa3bb5acd5f91600283520155600255565b5f548015611d81575f19810190808210156116d2577f290decd9548b62a8d60345a988386fc84ba6bc95484008f6362f93160ef3e5625f9182805201555f55565b6008548015611d81575f19810190808210156116d2577ff3f7a9fe364faab93b216da50a3214154f22a0a2b415b23a84c8169e8b636ee25f91600883520155600855565b6006548015611d81575f19810190808210156116d2577ff652222313e28459528d920b65115c16c04f3efc82aaedc97be59f3f377c0d3e5f91600683520155600655565b5f818152600560205260409020548015611f47575f19918183019180831161041857600454938401938411610418578383611ef8945f9603611efe575b505050611eea611d3d565b5f52600560205260405f2090565b55600190565b611eea611f2691611f1e611f14611f3e95611add565b90549060031b1c90565b928391611add565b90919082549060031b91821b915f19901b1916179055565b555f8080611edf565b50505f90565b5f818152600360205260409020548015611f47575f19918183019180831161041857600254938401938411610418578383611ef8945f9603611fa3575b505050611f95611d95565b5f52600360205260405f2090565b611f95611f2691611fb9611f14611fc195611a0b565b928391611a0b565b555f8080611f8a565b5f818152600160205260409020548015611f47575f199080820190808211610418575f549283018381116104185782810361201f575b50505050611ef85f91612011611dd9565b5f52600160205260405f2090565b928094929310156116d257612067611f26612011611ef8957f290decd9548b62a8d60345a988386fc84ba6bc95484008f6362f93160ef3e5625f988980520154928391611a40565b55915f80612000565b5f818152600960205260409020548015611f47575f19918183019180831161041857600854938401938411610418578383611ef8945f96036120c6575b5050506120b8611e1a565b5f52600960205260405f2090565b6120b8611f26916120dc611f146120e495611a73565b928391611a73565b555f80806120ad565b5f818152600760205260409020548015611f47575f19918183019180831161041857600654938401938411610418578383611ef8945f9603612143575b505050612135611e5e565b5f52600760205260405f2090565b612135611f2691612159611f1461216195611aa8565b928391611aa8565b555f808061212a565b5f91829182602083519301915af11561217f57565b3d5f803e3d5ffdfeadf90d75f0f2d657d5a22fa0f6e4dabb83c4598b77158eb4119cb38f1d8644621777adabd324f814e2b0e28f6edf876dce01d7d66358c9acfe87b1b5f38338d5ca334bf49ef20e9cbff039feda3bc1c2a853aff17b1b5187e4aa1380ec55829c6de0a1fd3a59e5479e6480ba65ef28d4f3ab8143c2c631bbfd9969ab39074797a164736f6c6343000819000a","linkReferences":{}},"methodIdentifiers":{"acceptSphereXAdminRole()":"8426b968","addBlacklist(address)":"9cfe42da","cancelOwnershipHandover()":"54d1f13d","changeSphereXEngine(address)":"4c6c848f","changeSphereXOperator(address)":"4ee8f858","completeOwnershipHandover(address)":"f04e283e","getBlacklistedAssets()":"79adfa6c","getBlacklistedAssets(uint256,uint256)":"8b984bb3","getBlacklistedAssetsCount()":"b9d5dfe8","getRegisteredBorrowers()":"b9bccae8","getRegisteredBorrowers(uint256,uint256)":"be736ff8","getRegisteredBorrowersCount()":"1ce28ab7","getRegisteredControllerFactories()":"6e0fb58d","getRegisteredControllerFactories(uint256,uint256)":"0e572082","getRegisteredControllerFactoriesCount()":"78e9c224","getRegisteredControllers()":"db316dbc","getRegisteredControllers(uint256,uint256)":"a1c4bff8","getRegisteredControllersCount()":"3d05a1d3","getRegisteredMarkets()":"46762101","getRegisteredMarkets(uint256,uint256)":"7ade7f20","getRegisteredMarketsCount()":"84b870ab","isBlacklistedAsset(address)":"b0018c60","isRegisteredBorrower(address)":"0787c1fe","isRegisteredController(address)":"8cdcb3e6","isRegisteredControllerFactory(address)":"99882f70","isRegisteredMarket(address)":"4a58e49e","owner()":"8da5cb5b","ownershipHandoverExpiresAt(address)":"fee81cf4","pendingSphereXAdmin()":"9aa9019e","registerBorrower(address)":"abad7426","registerController(address)":"d91ae8c2","registerControllerFactory(address)":"1b4f512c","registerMarket(address)":"a79b9ec9","removeBlacklist(address)":"eb91e651","removeBorrower(address)":"76c7fc55","removeController(address)":"f6a74ed7","removeControllerFactory(address)":"8b13e382","removeMarket(address)":"db913236","renounceOwnership()":"715018a6","requestOwnershipHandover()":"25692962","sphereXAdmin()":"99e80f3b","sphereXEngine()":"3c231166","sphereXOperator()":"e7e5db4f","transferOwnership(address)":"f2fde38b","transferSphereXAdminRole(address)":"daba7ef7","updateSphereXEngineOnRegisteredContracts(address[],address[],address[])":"f631241e"},"id":50}