{"abi":[{"type":"function","name":"getCredential","inputs":[{"name":"","type":"address","internalType":"address"}],"outputs":[{"name":"timestamp","type":"uint32","internalType":"uint32"}],"stateMutability":"view"},{"type":"function","name":"isPullProvider","inputs":[],"outputs":[{"name":"","type":"bool","internalType":"bool"}],"stateMutability":"view"},{"type":"function","name":"validateCredential","inputs":[{"name":"","type":"address","internalType":"address"},{"name":"","type":"bytes","internalType":"bytes"}],"outputs":[{"name":"timestamp","type":"uint32","internalType":"uint32"}],"stateMutability":"view"}],"bytecode":{"object":"0x6080806040523460145760f390816100198239f35b5f80fdfe60808060405260043610156011575f80fd5b5f3560e01c908163256909f11460ba5750806354560cb21460635763ccdad14b146039575f80fd5b34605f576020366003190112605f57604e60d1565b50602060405163ffffffff42168152f35b5f80fd5b34605f576040366003190112605f57607860d1565b5060243567ffffffffffffffff808211605f5736602383011215605f578160040135908111605f5736910160240111605f57602060405163ffffffff42168152f35b34605f575f366003190112605f5780600160209252f35b600435906001600160a01b0382168203605f5756fea164736f6c6343000819000a","linkReferences":{}},"methodIdentifiers":{"getCredential(address)":"ccdad14b","isPullProvider()":"256909f1","validateCredential(address,bytes)":"54560cb2"},"id":43}