{"abi":[{"type":"constructor","inputs":[{"name":"_archController","type":"address","internalType":"address"},{"name":"_hooksFactory","type":"address","internalType":"address"}],"stateMutability":"nonpayable"},{"type":"function","name":"archController","inputs":[],"outputs":[{"name":"","type":"address","internalType":"contract WildcatArchController"}],"stateMutability":"view"},{"type":"function","name":"getAllHooksTemplatesForBorrower","inputs":[{"name":"borrower","type":"address","internalType":"address"}],"outputs":[{"name":"data","type":"tuple[]","internalType":"struct HooksTemplateData[]","components":[{"name":"hooksTemplate","type":"address","internalType":"address"},{"name":"fees","type":"tuple","internalType":"struct FeeConfiguration","components":[{"name":"feeRecipient","type":"address","internalType":"address"},{"name":"protocolFeeBips","type":"uint16","internalType":"uint16"},{"name":"originationFeeToken","type":"tuple","internalType":"struct TokenMetadata","components":[{"name":"token","type":"address","internalType":"address"},{"name":"name","type":"string","internalType":"string"},{"name":"symbol","type":"string","internalType":"string"},{"name":"decimals","type":"uint256","internalType":"uint256"},{"name":"isMock","type":"bool","internalType":"bool"}]},{"name":"originationFeeAmount","type":"uint256","internalType":"uint256"},{"name":"borrowerOriginationFeeBalance","type":"uint256","internalType":"uint256"},{"name":"borrowerOriginationFeeApproval","type":"uint256","internalType":"uint256"}]},{"name":"exists","type":"bool","internalType":"bool"},{"name":"enabled","type":"bool","internalType":"bool"},{"name":"index","type":"uint24","internalType":"uint24"},{"name":"name","type":"string","internalType":"string"},{"name":"totalMarkets","type":"uint256","internalType":"uint256"}]}],"stateMutability":"view"},{"type":"function","name":"getAllMarketsDataForHooksTemplate","inputs":[{"name":"hooksTemplate","type":"address","internalType":"address"}],"outputs":[{"name":"data","type":"tuple[]","internalType":"struct MarketData[]","components":[{"name":"marketToken","type":"tuple","internalType":"struct TokenMetadata","components":[{"name":"token","type":"address","internalType":"address"},{"name":"name","type":"string","internalType":"string"},{"name":"symbol","type":"string","internalType":"string"},{"name":"decimals","type":"uint256","internalType":"uint256"},{"name":"isMock","type":"bool","internalType":"bool"}]},{"name":"underlyingToken","type":"tuple","internalType":"struct TokenMetadata","components":[{"name":"token","type":"address","internalType":"address"},{"name":"name","type":"string","internalType":"string"},{"name":"symbol","type":"string","internalType":"string"},{"name":"decimals","type":"uint256","internalType":"uint256"},{"name":"isMock","type":"bool","internalType":"bool"}]},{"name":"hooksFactory","type":"address","internalType":"address"},{"name":"borrower","type":"address","internalType":"address"},{"name":"hooksConfig","type":"tuple","internalType":"struct MarketHooksData","components":[{"name":"hooksAddress","type":"address","internalType":"address"},{"name":"flags","type":"tuple","internalType":"struct HooksConfigData","components":[{"name":"useOnDeposit","type":"bool","internalType":"bool"},{"name":"useOnQueueWithdrawal","type":"bool","internalType":"bool"},{"name":"useOnExecuteWithdrawal","type":"bool","internalType":"bool"},{"name":"useOnTransfer","type":"bool","internalType":"bool"},{"name":"useOnBorrow","type":"bool","internalType":"bool"},{"name":"useOnRepay","type":"bool","internalType":"bool"},{"name":"useOnCloseMarket","type":"bool","internalType":"bool"},{"name":"useOnNukeFromOrbit","type":"bool","internalType":"bool"},{"name":"useOnSetMaxTotalSupply","type":"bool","internalType":"bool"},{"name":"useOnSetAnnualInterestAndReserveRatioBips","type":"bool","internalType":"bool"},{"name":"useOnSetProtocolFeeBips","type":"bool","internalType":"bool"}]},{"name":"kind","type":"uint8","internalType":"enum HooksInstanceKind"},{"name":"transferRequiresAccess","type":"bool","internalType":"bool"},{"name":"depositRequiresAccess","type":"bool","internalType":"bool"},{"name":"minimumDeposit","type":"uint128","internalType":"uint128"},{"name":"transfersDisabled","type":"bool","internalType":"bool"},{"name":"unused_allowForceBuyBacks","type":"bool","internalType":"bool"},{"name":"withdrawalRequiresAccess","type":"bool","internalType":"bool"},{"name":"fixedTermEndTime","type":"uint32","internalType":"uint32"},{"name":"allowClosureBeforeTerm","type":"bool","internalType":"bool"},{"name":"allowTermReduction","type":"bool","internalType":"bool"}]},{"name":"withdrawalBatchDuration","type":"uint256","internalType":"uint256"},{"name":"feeRecipient","type":"address","internalType":"address"},{"name":"delinquencyFeeBips","type":"uint256","internalType":"uint256"},{"name":"delinquencyGracePeriod","type":"uint256","internalType":"uint256"},{"name":"hooks","type":"tuple","internalType":"struct HooksInstanceData","components":[{"name":"hooksAddress","type":"address","internalType":"address"},{"name":"borrower","type":"address","internalType":"address"},{"name":"name","type":"string","internalType":"string"},{"name":"kind","type":"uint8","internalType":"enum HooksInstanceKind"},{"name":"hooksTemplate","type":"tuple","internalType":"struct HooksTemplateData","components":[{"name":"hooksTemplate","type":"address","internalType":"address"},{"name":"fees","type":"tuple","internalType":"struct FeeConfiguration","components":[{"name":"feeRecipient","type":"address","internalType":"address"},{"name":"protocolFeeBips","type":"uint16","internalType":"uint16"},{"name":"originationFeeToken","type":"tuple","internalType":"struct TokenMetadata","components":[{"name":"token","type":"address","internalType":"address"},{"name":"name","type":"string","internalType":"string"},{"name":"symbol","type":"string","internalType":"string"},{"name":"decimals","type":"uint256","internalType":"uint256"},{"name":"isMock","type":"bool","internalType":"bool"}]},{"name":"originationFeeAmount","type":"uint256","internalType":"uint256"},{"name":"borrowerOriginationFeeBalance","type":"uint256","internalType":"uint256"},{"name":"borrowerOriginationFeeApproval","type":"uint256","internalType":"uint256"}]},{"name":"exists","type":"bool","internalType":"bool"},{"name":"enabled","type":"bool","internalType":"bool"},{"name":"index","type":"uint24","internalType":"uint24"},{"name":"name","type":"string","internalType":"string"},{"name":"totalMarkets","type":"uint256","internalType":"uint256"}]},{"name":"constraints","type":"tuple","internalType":"struct MarketParameterConstraints","components":[{"name":"minimumDelinquencyGracePeriod","type":"uint32","internalType":"uint32"},{"name":"maximumDelinquencyGracePeriod","type":"uint32","internalType":"uint32"},{"name":"minimumReserveRatioBips","type":"uint16","internalType":"uint16"},{"name":"maximumReserveRatioBips","type":"uint16","internalType":"uint16"},{"name":"minimumDelinquencyFeeBips","type":"uint16","internalType":"uint16"},{"name":"maximumDelinquencyFeeBips","type":"uint16","internalType":"uint16"},{"name":"minimumWithdrawalBatchDuration","type":"uint32","internalType":"uint32"},{"name":"maximumWithdrawalBatchDuration","type":"uint32","internalType":"uint32"},{"name":"minimumAnnualInterestBips","type":"uint16","internalType":"uint16"},{"name":"maximumAnnualInterestBips","type":"uint16","internalType":"uint16"}]},{"name":"deploymentFlags","type":"tuple","internalType":"struct HooksDeploymentFlags","components":[{"name":"optional","type":"tuple","internalType":"struct HooksConfigData","components":[{"name":"useOnDeposit","type":"bool","internalType":"bool"},{"name":"useOnQueueWithdrawal","type":"bool","internalType":"bool"},{"name":"useOnExecuteWithdrawal","type":"bool","internalType":"bool"},{"name":"useOnTransfer","type":"bool","internalType":"bool"},{"name":"useOnBorrow","type":"bool","internalType":"bool"},{"name":"useOnRepay","type":"bool","internalType":"bool"},{"name":"useOnCloseMarket","type":"bool","internalType":"bool"},{"name":"useOnNukeFromOrbit","type":"bool","internalType":"bool"},{"name":"useOnSetMaxTotalSupply","type":"bool","internalType":"bool"},{"name":"useOnSetAnnualInterestAndReserveRatioBips","type":"bool","internalType":"bool"},{"name":"useOnSetProtocolFeeBips","type":"bool","internalType":"bool"}]},{"name":"required","type":"tuple","internalType":"struct HooksConfigData","components":[{"name":"useOnDeposit","type":"bool","internalType":"bool"},{"name":"useOnQueueWithdrawal","type":"bool","internalType":"bool"},{"name":"useOnExecuteWithdrawal","type":"bool","internalType":"bool"},{"name":"useOnTransfer","type":"bool","internalType":"bool"},{"name":"useOnBorrow","type":"bool","internalType":"bool"},{"name":"useOnRepay","type":"bool","internalType":"bool"},{"name":"useOnCloseMarket","type":"bool","internalType":"bool"},{"name":"useOnNukeFromOrbit","type":"bool","internalType":"bool"},{"name":"useOnSetMaxTotalSupply","type":"bool","internalType":"bool"},{"name":"useOnSetAnnualInterestAndReserveRatioBips","type":"bool","internalType":"bool"},{"name":"useOnSetProtocolFeeBips","type":"bool","internalType":"bool"}]}]},{"name":"pullProviders","type":"tuple[]","internalType":"struct RoleProviderData[]","components":[{"name":"timeToLive","type":"uint32","internalType":"uint32"},{"name":"providerAddress","type":"address","internalType":"address"},{"name":"pullProviderIndex","type":"uint24","internalType":"uint24"},{"name":"pushProviderIndex","type":"uint24","internalType":"uint24"}]},{"name":"pushProviders","type":"tuple[]","internalType":"struct RoleProviderData[]","components":[{"name":"timeToLive","type":"uint32","internalType":"uint32"},{"name":"providerAddress","type":"address","internalType":"address"},{"name":"pullProviderIndex","type":"uint24","internalType":"uint24"},{"name":"pushProviderIndex","type":"uint24","internalType":"uint24"}]},{"name":"totalMarkets","type":"uint256","internalType":"uint256"}]},{"name":"temporaryReserveRatio","type":"bool","internalType":"bool"},{"name":"originalAnnualInterestBips","type":"uint256","internalType":"uint256"},{"name":"originalReserveRatioBips","type":"uint256","internalType":"uint256"},{"name":"temporaryReserveRatioExpiry","type":"uint256","internalType":"uint256"},{"name":"isClosed","type":"bool","internalType":"bool"},{"name":"protocolFeeBips","type":"uint256","internalType":"uint256"},{"name":"reserveRatioBips","type":"uint256","internalType":"uint256"},{"name":"annualInterestBips","type":"uint256","internalType":"uint256"},{"name":"scaleFactor","type":"uint256","internalType":"uint256"},{"name":"totalSupply","type":"uint256","internalType":"uint256"},{"name":"maxTotalSupply","type":"uint256","internalType":"uint256"},{"name":"scaledTotalSupply","type":"uint256","internalType":"uint256"},{"name":"totalAssets","type":"uint256","internalType":"uint256"},{"name":"lastAccruedProtocolFees","type":"uint256","internalType":"uint256"},{"name":"normalizedUnclaimedWithdrawals","type":"uint256","internalType":"uint256"},{"name":"scaledPendingWithdrawals","type":"uint256","internalType":"uint256"},{"name":"pendingWithdrawalExpiry","type":"uint256","internalType":"uint256"},{"name":"isDelinquent","type":"bool","internalType":"bool"},{"name":"timeDelinquent","type":"uint256","internalType":"uint256"},{"name":"lastInterestAccruedTimestamp","type":"uint256","internalType":"uint256"},{"name":"unpaidWithdrawalBatchExpiries","type":"uint32[]","internalType":"uint32[]"},{"name":"coverageLiquidity","type":"uint256","internalType":"uint256"}]}],"stateMutability":"view"},{"type":"function","name":"getHooksDataForBorrower","inputs":[{"name":"borrower","type":"address","internalType":"address"}],"outputs":[{"name":"data","type":"tuple","internalType":"struct HooksDataForBorrower","components":[{"name":"borrower","type":"address","internalType":"address"},{"name":"isRegisteredBorrower","type":"bool","internalType":"bool"},{"name":"hooksTemplates","type":"tuple[]","internalType":"struct HooksTemplateData[]","components":[{"name":"hooksTemplate","type":"address","internalType":"address"},{"name":"fees","type":"tuple","internalType":"struct FeeConfiguration","components":[{"name":"feeRecipient","type":"address","internalType":"address"},{"name":"protocolFeeBips","type":"uint16","internalType":"uint16"},{"name":"originationFeeToken","type":"tuple","internalType":"struct TokenMetadata","components":[{"name":"token","type":"address","internalType":"address"},{"name":"name","type":"string","internalType":"string"},{"name":"symbol","type":"string","internalType":"string"},{"name":"decimals","type":"uint256","internalType":"uint256"},{"name":"isMock","type":"bool","internalType":"bool"}]},{"name":"originationFeeAmount","type":"uint256","internalType":"uint256"},{"name":"borrowerOriginationFeeBalance","type":"uint256","internalType":"uint256"},{"name":"borrowerOriginationFeeApproval","type":"uint256","internalType":"uint256"}]},{"name":"exists","type":"bool","internalType":"bool"},{"name":"enabled","type":"bool","internalType":"bool"},{"name":"index","type":"uint24","internalType":"uint24"},{"name":"name","type":"string","internalType":"string"},{"name":"totalMarkets","type":"uint256","internalType":"uint256"}]},{"name":"hooksInstances","type":"tuple[]","internalType":"struct HooksInstanceData[]","components":[{"name":"hooksAddress","type":"address","internalType":"address"},{"name":"borrower","type":"address","internalType":"address"},{"name":"name","type":"string","internalType":"string"},{"name":"kind","type":"uint8","internalType":"enum HooksInstanceKind"},{"name":"hooksTemplate","type":"tuple","internalType":"struct HooksTemplateData","components":[{"name":"hooksTemplate","type":"address","internalType":"address"},{"name":"fees","type":"tuple","internalType":"struct FeeConfiguration","components":[{"name":"feeRecipient","type":"address","internalType":"address"},{"name":"protocolFeeBips","type":"uint16","internalType":"uint16"},{"name":"originationFeeToken","type":"tuple","internalType":"struct TokenMetadata","components":[{"name":"token","type":"address","internalType":"address"},{"name":"name","type":"string","internalType":"string"},{"name":"symbol","type":"string","internalType":"string"},{"name":"decimals","type":"uint256","internalType":"uint256"},{"name":"isMock","type":"bool","internalType":"bool"}]},{"name":"originationFeeAmount","type":"uint256","internalType":"uint256"},{"name":"borrowerOriginationFeeBalance","type":"uint256","internalType":"uint256"},{"name":"borrowerOriginationFeeApproval","type":"uint256","internalType":"uint256"}]},{"name":"exists","type":"bool","internalType":"bool"},{"name":"enabled","type":"bool","internalType":"bool"},{"name":"index","type":"uint24","internalType":"uint24"},{"name":"name","type":"string","internalType":"string"},{"name":"totalMarkets","type":"uint256","internalType":"uint256"}]},{"name":"constraints","type":"tuple","internalType":"struct MarketParameterConstraints","components":[{"name":"minimumDelinquencyGracePeriod","type":"uint32","internalType":"uint32"},{"name":"maximumDelinquencyGracePeriod","type":"uint32","internalType":"uint32"},{"name":"minimumReserveRatioBips","type":"uint16","internalType":"uint16"},{"name":"maximumReserveRatioBips","type":"uint16","internalType":"uint16"},{"name":"minimumDelinquencyFeeBips","type":"uint16","internalType":"uint16"},{"name":"maximumDelinquencyFeeBips","type":"uint16","internalType":"uint16"},{"name":"minimumWithdrawalBatchDuration","type":"uint32","internalType":"uint32"},{"name":"maximumWithdrawalBatchDuration","type":"uint32","internalType":"uint32"},{"name":"minimumAnnualInterestBips","type":"uint16","internalType":"uint16"},{"name":"maximumAnnualInterestBips","type":"uint16","internalType":"uint16"}]},{"name":"deploymentFlags","type":"tuple","internalType":"struct HooksDeploymentFlags","components":[{"name":"optional","type":"tuple","internalType":"struct HooksConfigData","components":[{"name":"useOnDeposit","type":"bool","internalType":"bool"},{"name":"useOnQueueWithdrawal","type":"bool","internalType":"bool"},{"name":"useOnExecuteWithdrawal","type":"bool","internalType":"bool"},{"name":"useOnTransfer","type":"bool","internalType":"bool"},{"name":"useOnBorrow","type":"bool","internalType":"bool"},{"name":"useOnRepay","type":"bool","internalType":"bool"},{"name":"useOnCloseMarket","type":"bool","internalType":"bool"},{"name":"useOnNukeFromOrbit","type":"bool","internalType":"bool"},{"name":"useOnSetMaxTotalSupply","type":"bool","internalType":"bool"},{"name":"useOnSetAnnualInterestAndReserveRatioBips","type":"bool","internalType":"bool"},{"name":"useOnSetProtocolFeeBips","type":"bool","internalType":"bool"}]},{"name":"required","type":"tuple","internalType":"struct HooksConfigData","components":[{"name":"useOnDeposit","type":"bool","internalType":"bool"},{"name":"useOnQueueWithdrawal","type":"bool","internalType":"bool"},{"name":"useOnExecuteWithdrawal","type":"bool","internalType":"bool"},{"name":"useOnTransfer","type":"bool","internalType":"bool"},{"name":"useOnBorrow","type":"bool","internalType":"bool"},{"name":"useOnRepay","type":"bool","internalType":"bool"},{"name":"useOnCloseMarket","type":"bool","internalType":"bool"},{"name":"useOnNukeFromOrbit","type":"bool","internalType":"bool"},{"name":"useOnSetMaxTotalSupply","type":"bool","internalType":"bool"},{"name":"useOnSetAnnualInterestAndReserveRatioBips","type":"bool","internalType":"bool"},{"name":"useOnSetProtocolFeeBips","type":"bool","internalType":"bool"}]}]},{"name":"pullProviders","type":"tuple[]","internalType":"struct RoleProviderData[]","components":[{"name":"timeToLive","type":"uint32","internalType":"uint32"},{"name":"providerAddress","type":"address","internalType":"address"},{"name":"pullProviderIndex","type":"uint24","internalType":"uint24"},{"name":"pushProviderIndex","type":"uint24","internalType":"uint24"}]},{"name":"pushProviders","type":"tuple[]","internalType":"struct RoleProviderData[]","components":[{"name":"timeToLive","type":"uint32","internalType":"uint32"},{"name":"providerAddress","type":"address","internalType":"address"},{"name":"pullProviderIndex","type":"uint24","internalType":"uint24"},{"name":"pushProviderIndex","type":"uint24","internalType":"uint24"}]},{"name":"totalMarkets","type":"uint256","internalType":"uint256"}]}]}],"stateMutability":"view"},{"type":"function","name":"getHooksInstancesForBorrower","inputs":[{"name":"borrower","type":"address","internalType":"address"}],"outputs":[{"name":"arr","type":"tuple[]","internalType":"struct HooksInstanceData[]","components":[{"name":"hooksAddress","type":"address","internalType":"address"},{"name":"borrower","type":"address","internalType":"address"},{"name":"name","type":"string","internalType":"string"},{"name":"kind","type":"uint8","internalType":"enum HooksInstanceKind"},{"name":"hooksTemplate","type":"tuple","internalType":"struct HooksTemplateData","components":[{"name":"hooksTemplate","type":"address","internalType":"address"},{"name":"fees","type":"tuple","internalType":"struct FeeConfiguration","components":[{"name":"feeRecipient","type":"address","internalType":"address"},{"name":"protocolFeeBips","type":"uint16","internalType":"uint16"},{"name":"originationFeeToken","type":"tuple","internalType":"struct TokenMetadata","components":[{"name":"token","type":"address","internalType":"address"},{"name":"name","type":"string","internalType":"string"},{"name":"symbol","type":"string","internalType":"string"},{"name":"decimals","type":"uint256","internalType":"uint256"},{"name":"isMock","type":"bool","internalType":"bool"}]},{"name":"originationFeeAmount","type":"uint256","internalType":"uint256"},{"name":"borrowerOriginationFeeBalance","type":"uint256","internalType":"uint256"},{"name":"borrowerOriginationFeeApproval","type":"uint256","internalType":"uint256"}]},{"name":"exists","type":"bool","internalType":"bool"},{"name":"enabled","type":"bool","internalType":"bool"},{"name":"index","type":"uint24","internalType":"uint24"},{"name":"name","type":"string","internalType":"string"},{"name":"totalMarkets","type":"uint256","internalType":"uint256"}]},{"name":"constraints","type":"tuple","internalType":"struct MarketParameterConstraints","components":[{"name":"minimumDelinquencyGracePeriod","type":"uint32","internalType":"uint32"},{"name":"maximumDelinquencyGracePeriod","type":"uint32","internalType":"uint32"},{"name":"minimumReserveRatioBips","type":"uint16","internalType":"uint16"},{"name":"maximumReserveRatioBips","type":"uint16","internalType":"uint16"},{"name":"minimumDelinquencyFeeBips","type":"uint16","internalType":"uint16"},{"name":"maximumDelinquencyFeeBips","type":"uint16","internalType":"uint16"},{"name":"minimumWithdrawalBatchDuration","type":"uint32","internalType":"uint32"},{"name":"maximumWithdrawalBatchDuration","type":"uint32","internalType":"uint32"},{"name":"minimumAnnualInterestBips","type":"uint16","internalType":"uint16"},{"name":"maximumAnnualInterestBips","type":"uint16","internalType":"uint16"}]},{"name":"deploymentFlags","type":"tuple","internalType":"struct HooksDeploymentFlags","components":[{"name":"optional","type":"tuple","internalType":"struct HooksConfigData","components":[{"name":"useOnDeposit","type":"bool","internalType":"bool"},{"name":"useOnQueueWithdrawal","type":"bool","internalType":"bool"},{"name":"useOnExecuteWithdrawal","type":"bool","internalType":"bool"},{"name":"useOnTransfer","type":"bool","internalType":"bool"},{"name":"useOnBorrow","type":"bool","internalType":"bool"},{"name":"useOnRepay","type":"bool","internalType":"bool"},{"name":"useOnCloseMarket","type":"bool","internalType":"bool"},{"name":"useOnNukeFromOrbit","type":"bool","internalType":"bool"},{"name":"useOnSetMaxTotalSupply","type":"bool","internalType":"bool"},{"name":"useOnSetAnnualInterestAndReserveRatioBips","type":"bool","internalType":"bool"},{"name":"useOnSetProtocolFeeBips","type":"bool","internalType":"bool"}]},{"name":"required","type":"tuple","internalType":"struct HooksConfigData","components":[{"name":"useOnDeposit","type":"bool","internalType":"bool"},{"name":"useOnQueueWithdrawal","type":"bool","internalType":"bool"},{"name":"useOnExecuteWithdrawal","type":"bool","internalType":"bool"},{"name":"useOnTransfer","type":"bool","internalType":"bool"},{"name":"useOnBorrow","type":"bool","internalType":"bool"},{"name":"useOnRepay","type":"bool","internalType":"bool"},{"name":"useOnCloseMarket","type":"bool","internalType":"bool"},{"name":"useOnNukeFromOrbit","type":"bool","internalType":"bool"},{"name":"useOnSetMaxTotalSupply","type":"bool","internalType":"bool"},{"name":"useOnSetAnnualInterestAndReserveRatioBips","type":"bool","internalType":"bool"},{"name":"useOnSetProtocolFeeBips","type":"bool","internalType":"bool"}]}]},{"name":"pullProviders","type":"tuple[]","internalType":"struct RoleProviderData[]","components":[{"name":"timeToLive","type":"uint32","internalType":"uint32"},{"name":"providerAddress","type":"address","internalType":"address"},{"name":"pullProviderIndex","type":"uint24","internalType":"uint24"},{"name":"pushProviderIndex","type":"uint24","internalType":"uint24"}]},{"name":"pushProviders","type":"tuple[]","internalType":"struct RoleProviderData[]","components":[{"name":"timeToLive","type":"uint32","internalType":"uint32"},{"name":"providerAddress","type":"address","internalType":"address"},{"name":"pullProviderIndex","type":"uint24","internalType":"uint24"},{"name":"pushProviderIndex","type":"uint24","internalType":"uint24"}]},{"name":"totalMarkets","type":"uint256","internalType":"uint256"}]}],"stateMutability":"view"},{"type":"function","name":"getHooksTemplateForBorrower","inputs":[{"name":"borrower","type":"address","internalType":"address"},{"name":"hooksTemplate","type":"address","internalType":"address"}],"outputs":[{"name":"data","type":"tuple","internalType":"struct HooksTemplateData","components":[{"name":"hooksTemplate","type":"address","internalType":"address"},{"name":"fees","type":"tuple","internalType":"struct FeeConfiguration","components":[{"name":"feeRecipient","type":"address","internalType":"address"},{"name":"protocolFeeBips","type":"uint16","internalType":"uint16"},{"name":"originationFeeToken","type":"tuple","internalType":"struct TokenMetadata","components":[{"name":"token","type":"address","internalType":"address"},{"name":"name","type":"string","internalType":"string"},{"name":"symbol","type":"string","internalType":"string"},{"name":"decimals","type":"uint256","internalType":"uint256"},{"name":"isMock","type":"bool","internalType":"bool"}]},{"name":"originationFeeAmount","type":"uint256","internalType":"uint256"},{"name":"borrowerOriginationFeeBalance","type":"uint256","internalType":"uint256"},{"name":"borrowerOriginationFeeApproval","type":"uint256","internalType":"uint256"}]},{"name":"exists","type":"bool","internalType":"bool"},{"name":"enabled","type":"bool","internalType":"bool"},{"name":"index","type":"uint24","internalType":"uint24"},{"name":"name","type":"string","internalType":"string"},{"name":"totalMarkets","type":"uint256","internalType":"uint256"}]}],"stateMutability":"view"},{"type":"function","name":"getHooksTemplatesForBorrower","inputs":[{"name":"borrower","type":"address","internalType":"address"},{"name":"hooksTemplates","type":"address[]","internalType":"address[]"}],"outputs":[{"name":"data","type":"tuple[]","internalType":"struct HooksTemplateData[]","components":[{"name":"hooksTemplate","type":"address","internalType":"address"},{"name":"fees","type":"tuple","internalType":"struct FeeConfiguration","components":[{"name":"feeRecipient","type":"address","internalType":"address"},{"name":"protocolFeeBips","type":"uint16","internalType":"uint16"},{"name":"originationFeeToken","type":"tuple","internalType":"struct TokenMetadata","components":[{"name":"token","type":"address","internalType":"address"},{"name":"name","type":"string","internalType":"string"},{"name":"symbol","type":"string","internalType":"string"},{"name":"decimals","type":"uint256","internalType":"uint256"},{"name":"isMock","type":"bool","internalType":"bool"}]},{"name":"originationFeeAmount","type":"uint256","internalType":"uint256"},{"name":"borrowerOriginationFeeBalance","type":"uint256","internalType":"uint256"},{"name":"borrowerOriginationFeeApproval","type":"uint256","internalType":"uint256"}]},{"name":"exists","type":"bool","internalType":"bool"},{"name":"enabled","type":"bool","internalType":"bool"},{"name":"index","type":"uint24","internalType":"uint24"},{"name":"name","type":"string","internalType":"string"},{"name":"totalMarkets","type":"uint256","internalType":"uint256"}]}],"stateMutability":"view"},{"type":"function","name":"getLenderAccountData","inputs":[{"name":"lender","type":"address","internalType":"address"},{"name":"market","type":"address","internalType":"address"}],"outputs":[{"name":"data","type":"tuple","internalType":"struct LenderAccountData","components":[{"name":"lender","type":"address","internalType":"address"},{"name":"scaledBalance","type":"uint256","internalType":"uint256"},{"name":"normalizedBalance","type":"uint256","internalType":"uint256"},{"name":"underlyingBalance","type":"uint256","internalType":"uint256"},{"name":"underlyingApproval","type":"uint256","internalType":"uint256"},{"name":"isBlockedFromDeposits","type":"bool","internalType":"bool"},{"name":"lastProvider","type":"tuple","internalType":"struct RoleProviderData","components":[{"name":"timeToLive","type":"uint32","internalType":"uint32"},{"name":"providerAddress","type":"address","internalType":"address"},{"name":"pullProviderIndex","type":"uint24","internalType":"uint24"},{"name":"pushProviderIndex","type":"uint24","internalType":"uint24"}]},{"name":"canRefresh","type":"bool","internalType":"bool"},{"name":"lastApprovalTimestamp","type":"uint32","internalType":"uint32"},{"name":"isKnownLender","type":"bool","internalType":"bool"}]}],"stateMutability":"view"},{"type":"function","name":"getLenderAccountData","inputs":[{"name":"lender","type":"address","internalType":"address"},{"name":"markets","type":"address[]","internalType":"address[]"}],"outputs":[{"name":"arr","type":"tuple[]","internalType":"struct LenderAccountData[]","components":[{"name":"lender","type":"address","internalType":"address"},{"name":"scaledBalance","type":"uint256","internalType":"uint256"},{"name":"normalizedBalance","type":"uint256","internalType":"uint256"},{"name":"underlyingBalance","type":"uint256","internalType":"uint256"},{"name":"underlyingApproval","type":"uint256","internalType":"uint256"},{"name":"isBlockedFromDeposits","type":"bool","internalType":"bool"},{"name":"lastProvider","type":"tuple","internalType":"struct RoleProviderData","components":[{"name":"timeToLive","type":"uint32","internalType":"uint32"},{"name":"providerAddress","type":"address","internalType":"address"},{"name":"pullProviderIndex","type":"uint24","internalType":"uint24"},{"name":"pushProviderIndex","type":"uint24","internalType":"uint24"}]},{"name":"canRefresh","type":"bool","internalType":"bool"},{"name":"lastApprovalTimestamp","type":"uint32","internalType":"uint32"},{"name":"isKnownLender","type":"bool","internalType":"bool"}]}],"stateMutability":"view"},{"type":"function","name":"getLenderAccountsData","inputs":[{"name":"marketAddress","type":"address","internalType":"address"},{"name":"lenders","type":"address[]","internalType":"address[]"}],"outputs":[{"name":"data","type":"tuple[]","internalType":"struct LenderAccountData[]","components":[{"name":"lender","type":"address","internalType":"address"},{"name":"scaledBalance","type":"uint256","internalType":"uint256"},{"name":"normalizedBalance","type":"uint256","internalType":"uint256"},{"name":"underlyingBalance","type":"uint256","internalType":"uint256"},{"name":"underlyingApproval","type":"uint256","internalType":"uint256"},{"name":"isBlockedFromDeposits","type":"bool","internalType":"bool"},{"name":"lastProvider","type":"tuple","internalType":"struct RoleProviderData","components":[{"name":"timeToLive","type":"uint32","internalType":"uint32"},{"name":"providerAddress","type":"address","internalType":"address"},{"name":"pullProviderIndex","type":"uint24","internalType":"uint24"},{"name":"pushProviderIndex","type":"uint24","internalType":"uint24"}]},{"name":"canRefresh","type":"bool","internalType":"bool"},{"name":"lastApprovalTimestamp","type":"uint32","internalType":"uint32"},{"name":"isKnownLender","type":"bool","internalType":"bool"}]}],"stateMutability":"view"},{"type":"function","name":"getMarketData","inputs":[{"name":"market","type":"address","internalType":"address"}],"outputs":[{"name":"data","type":"tuple","internalType":"struct MarketData","components":[{"name":"marketToken","type":"tuple","internalType":"struct TokenMetadata","components":[{"name":"token","type":"address","internalType":"address"},{"name":"name","type":"string","internalType":"string"},{"name":"symbol","type":"string","internalType":"string"},{"name":"decimals","type":"uint256","internalType":"uint256"},{"name":"isMock","type":"bool","internalType":"bool"}]},{"name":"underlyingToken","type":"tuple","internalType":"struct TokenMetadata","components":[{"name":"token","type":"address","internalType":"address"},{"name":"name","type":"string","internalType":"string"},{"name":"symbol","type":"string","internalType":"string"},{"name":"decimals","type":"uint256","internalType":"uint256"},{"name":"isMock","type":"bool","internalType":"bool"}]},{"name":"hooksFactory","type":"address","internalType":"address"},{"name":"borrower","type":"address","internalType":"address"},{"name":"hooksConfig","type":"tuple","internalType":"struct MarketHooksData","components":[{"name":"hooksAddress","type":"address","internalType":"address"},{"name":"flags","type":"tuple","internalType":"struct HooksConfigData","components":[{"name":"useOnDeposit","type":"bool","internalType":"bool"},{"name":"useOnQueueWithdrawal","type":"bool","internalType":"bool"},{"name":"useOnExecuteWithdrawal","type":"bool","internalType":"bool"},{"name":"useOnTransfer","type":"bool","internalType":"bool"},{"name":"useOnBorrow","type":"bool","internalType":"bool"},{"name":"useOnRepay","type":"bool","internalType":"bool"},{"name":"useOnCloseMarket","type":"bool","internalType":"bool"},{"name":"useOnNukeFromOrbit","type":"bool","internalType":"bool"},{"name":"useOnSetMaxTotalSupply","type":"bool","internalType":"bool"},{"name":"useOnSetAnnualInterestAndReserveRatioBips","type":"bool","internalType":"bool"},{"name":"useOnSetProtocolFeeBips","type":"bool","internalType":"bool"}]},{"name":"kind","type":"uint8","internalType":"enum HooksInstanceKind"},{"name":"transferRequiresAccess","type":"bool","internalType":"bool"},{"name":"depositRequiresAccess","type":"bool","internalType":"bool"},{"name":"minimumDeposit","type":"uint128","internalType":"uint128"},{"name":"transfersDisabled","type":"bool","internalType":"bool"},{"name":"unused_allowForceBuyBacks","type":"bool","internalType":"bool"},{"name":"withdrawalRequiresAccess","type":"bool","internalType":"bool"},{"name":"fixedTermEndTime","type":"uint32","internalType":"uint32"},{"name":"allowClosureBeforeTerm","type":"bool","internalType":"bool"},{"name":"allowTermReduction","type":"bool","internalType":"bool"}]},{"name":"withdrawalBatchDuration","type":"uint256","internalType":"uint256"},{"name":"feeRecipient","type":"address","internalType":"address"},{"name":"delinquencyFeeBips","type":"uint256","internalType":"uint256"},{"name":"delinquencyGracePeriod","type":"uint256","internalType":"uint256"},{"name":"hooks","type":"tuple","internalType":"struct HooksInstanceData","components":[{"name":"hooksAddress","type":"address","internalType":"address"},{"name":"borrower","type":"address","internalType":"address"},{"name":"name","type":"string","internalType":"string"},{"name":"kind","type":"uint8","internalType":"enum HooksInstanceKind"},{"name":"hooksTemplate","type":"tuple","internalType":"struct HooksTemplateData","components":[{"name":"hooksTemplate","type":"address","internalType":"address"},{"name":"fees","type":"tuple","internalType":"struct FeeConfiguration","components":[{"name":"feeRecipient","type":"address","internalType":"address"},{"name":"protocolFeeBips","type":"uint16","internalType":"uint16"},{"name":"originationFeeToken","type":"tuple","internalType":"struct TokenMetadata","components":[{"name":"token","type":"address","internalType":"address"},{"name":"name","type":"string","internalType":"string"},{"name":"symbol","type":"string","internalType":"string"},{"name":"decimals","type":"uint256","internalType":"uint256"},{"name":"isMock","type":"bool","internalType":"bool"}]},{"name":"originationFeeAmount","type":"uint256","internalType":"uint256"},{"name":"borrowerOriginationFeeBalance","type":"uint256","internalType":"uint256"},{"name":"borrowerOriginationFeeApproval","type":"uint256","internalType":"uint256"}]},{"name":"exists","type":"bool","internalType":"bool"},{"name":"enabled","type":"bool","internalType":"bool"},{"name":"index","type":"uint24","internalType":"uint24"},{"name":"name","type":"string","internalType":"string"},{"name":"totalMarkets","type":"uint256","internalType":"uint256"}]},{"name":"constraints","type":"tuple","internalType":"struct MarketParameterConstraints","components":[{"name":"minimumDelinquencyGracePeriod","type":"uint32","internalType":"uint32"},{"name":"maximumDelinquencyGracePeriod","type":"uint32","internalType":"uint32"},{"name":"minimumReserveRatioBips","type":"uint16","internalType":"uint16"},{"name":"maximumReserveRatioBips","type":"uint16","internalType":"uint16"},{"name":"minimumDelinquencyFeeBips","type":"uint16","internalType":"uint16"},{"name":"maximumDelinquencyFeeBips","type":"uint16","internalType":"uint16"},{"name":"minimumWithdrawalBatchDuration","type":"uint32","internalType":"uint32"},{"name":"maximumWithdrawalBatchDuration","type":"uint32","internalType":"uint32"},{"name":"minimumAnnualInterestBips","type":"uint16","internalType":"uint16"},{"name":"maximumAnnualInterestBips","type":"uint16","internalType":"uint16"}]},{"name":"deploymentFlags","type":"tuple","internalType":"struct HooksDeploymentFlags","components":[{"name":"optional","type":"tuple","internalType":"struct HooksConfigData","components":[{"name":"useOnDeposit","type":"bool","internalType":"bool"},{"name":"useOnQueueWithdrawal","type":"bool","internalType":"bool"},{"name":"useOnExecuteWithdrawal","type":"bool","internalType":"bool"},{"name":"useOnTransfer","type":"bool","internalType":"bool"},{"name":"useOnBorrow","type":"bool","internalType":"bool"},{"name":"useOnRepay","type":"bool","internalType":"bool"},{"name":"useOnCloseMarket","type":"bool","internalType":"bool"},{"name":"useOnNukeFromOrbit","type":"bool","internalType":"bool"},{"name":"useOnSetMaxTotalSupply","type":"bool","internalType":"bool"},{"name":"useOnSetAnnualInterestAndReserveRatioBips","type":"bool","internalType":"bool"},{"name":"useOnSetProtocolFeeBips","type":"bool","internalType":"bool"}]},{"name":"required","type":"tuple","internalType":"struct HooksConfigData","components":[{"name":"useOnDeposit","type":"bool","internalType":"bool"},{"name":"useOnQueueWithdrawal","type":"bool","internalType":"bool"},{"name":"useOnExecuteWithdrawal","type":"bool","internalType":"bool"},{"name":"useOnTransfer","type":"bool","internalType":"bool"},{"name":"useOnBorrow","type":"bool","internalType":"bool"},{"name":"useOnRepay","type":"bool","internalType":"bool"},{"name":"useOnCloseMarket","type":"bool","internalType":"bool"},{"name":"useOnNukeFromOrbit","type":"bool","internalType":"bool"},{"name":"useOnSetMaxTotalSupply","type":"bool","internalType":"bool"},{"name":"useOnSetAnnualInterestAndReserveRatioBips","type":"bool","internalType":"bool"},{"name":"useOnSetProtocolFeeBips","type":"bool","internalType":"bool"}]}]},{"name":"pullProviders","type":"tuple[]","internalType":"struct RoleProviderData[]","components":[{"name":"timeToLive","type":"uint32","internalType":"uint32"},{"name":"providerAddress","type":"address","internalType":"address"},{"name":"pullProviderIndex","type":"uint24","internalType":"uint24"},{"name":"pushProviderIndex","type":"uint24","internalType":"uint24"}]},{"name":"pushProviders","type":"tuple[]","internalType":"struct RoleProviderData[]","components":[{"name":"timeToLive","type":"uint32","internalType":"uint32"},{"name":"providerAddress","type":"address","internalType":"address"},{"name":"pullProviderIndex","type":"uint24","internalType":"uint24"},{"name":"pushProviderIndex","type":"uint24","internalType":"uint24"}]},{"name":"totalMarkets","type":"uint256","internalType":"uint256"}]},{"name":"temporaryReserveRatio","type":"bool","internalType":"bool"},{"name":"originalAnnualInterestBips","type":"uint256","internalType":"uint256"},{"name":"originalReserveRatioBips","type":"uint256","internalType":"uint256"},{"name":"temporaryReserveRatioExpiry","type":"uint256","internalType":"uint256"},{"name":"isClosed","type":"bool","internalType":"bool"},{"name":"protocolFeeBips","type":"uint256","internalType":"uint256"},{"name":"reserveRatioBips","type":"uint256","internalType":"uint256"},{"name":"annualInterestBips","type":"uint256","internalType":"uint256"},{"name":"scaleFactor","type":"uint256","internalType":"uint256"},{"name":"totalSupply","type":"uint256","internalType":"uint256"},{"name":"maxTotalSupply","type":"uint256","internalType":"uint256"},{"name":"scaledTotalSupply","type":"uint256","internalType":"uint256"},{"name":"totalAssets","type":"uint256","internalType":"uint256"},{"name":"lastAccruedProtocolFees","type":"uint256","internalType":"uint256"},{"name":"normalizedUnclaimedWithdrawals","type":"uint256","internalType":"uint256"},{"name":"scaledPendingWithdrawals","type":"uint256","internalType":"uint256"},{"name":"pendingWithdrawalExpiry","type":"uint256","internalType":"uint256"},{"name":"isDelinquent","type":"bool","internalType":"bool"},{"name":"timeDelinquent","type":"uint256","internalType":"uint256"},{"name":"lastInterestAccruedTimestamp","type":"uint256","internalType":"uint256"},{"name":"unpaidWithdrawalBatchExpiries","type":"uint32[]","internalType":"uint32[]"},{"name":"coverageLiquidity","type":"uint256","internalType":"uint256"}]}],"stateMutability":"view"},{"type":"function","name":"getMarketDataWithLenderStatus","inputs":[{"name":"lender","type":"address","internalType":"address"},{"name":"market","type":"address","internalType":"address"}],"outputs":[{"name":"data","type":"tuple","internalType":"struct MarketDataWithLenderStatus","components":[{"name":"market","type":"tuple","internalType":"struct MarketData","components":[{"name":"marketToken","type":"tuple","internalType":"struct TokenMetadata","components":[{"name":"token","type":"address","internalType":"address"},{"name":"name","type":"string","internalType":"string"},{"name":"symbol","type":"string","internalType":"string"},{"name":"decimals","type":"uint256","internalType":"uint256"},{"name":"isMock","type":"bool","internalType":"bool"}]},{"name":"underlyingToken","type":"tuple","internalType":"struct TokenMetadata","components":[{"name":"token","type":"address","internalType":"address"},{"name":"name","type":"string","internalType":"string"},{"name":"symbol","type":"string","internalType":"string"},{"name":"decimals","type":"uint256","internalType":"uint256"},{"name":"isMock","type":"bool","internalType":"bool"}]},{"name":"hooksFactory","type":"address","internalType":"address"},{"name":"borrower","type":"address","internalType":"address"},{"name":"hooksConfig","type":"tuple","internalType":"struct MarketHooksData","components":[{"name":"hooksAddress","type":"address","internalType":"address"},{"name":"flags","type":"tuple","internalType":"struct HooksConfigData","components":[{"name":"useOnDeposit","type":"bool","internalType":"bool"},{"name":"useOnQueueWithdrawal","type":"bool","internalType":"bool"},{"name":"useOnExecuteWithdrawal","type":"bool","internalType":"bool"},{"name":"useOnTransfer","type":"bool","internalType":"bool"},{"name":"useOnBorrow","type":"bool","internalType":"bool"},{"name":"useOnRepay","type":"bool","internalType":"bool"},{"name":"useOnCloseMarket","type":"bool","internalType":"bool"},{"name":"useOnNukeFromOrbit","type":"bool","internalType":"bool"},{"name":"useOnSetMaxTotalSupply","type":"bool","internalType":"bool"},{"name":"useOnSetAnnualInterestAndReserveRatioBips","type":"bool","internalType":"bool"},{"name":"useOnSetProtocolFeeBips","type":"bool","internalType":"bool"}]},{"name":"kind","type":"uint8","internalType":"enum HooksInstanceKind"},{"name":"transferRequiresAccess","type":"bool","internalType":"bool"},{"name":"depositRequiresAccess","type":"bool","internalType":"bool"},{"name":"minimumDeposit","type":"uint128","internalType":"uint128"},{"name":"transfersDisabled","type":"bool","internalType":"bool"},{"name":"unused_allowForceBuyBacks","type":"bool","internalType":"bool"},{"name":"withdrawalRequiresAccess","type":"bool","internalType":"bool"},{"name":"fixedTermEndTime","type":"uint32","internalType":"uint32"},{"name":"allowClosureBeforeTerm","type":"bool","internalType":"bool"},{"name":"allowTermReduction","type":"bool","internalType":"bool"}]},{"name":"withdrawalBatchDuration","type":"uint256","internalType":"uint256"},{"name":"feeRecipient","type":"address","internalType":"address"},{"name":"delinquencyFeeBips","type":"uint256","internalType":"uint256"},{"name":"delinquencyGracePeriod","type":"uint256","internalType":"uint256"},{"name":"hooks","type":"tuple","internalType":"struct HooksInstanceData","components":[{"name":"hooksAddress","type":"address","internalType":"address"},{"name":"borrower","type":"address","internalType":"address"},{"name":"name","type":"string","internalType":"string"},{"name":"kind","type":"uint8","internalType":"enum HooksInstanceKind"},{"name":"hooksTemplate","type":"tuple","internalType":"struct HooksTemplateData","components":[{"name":"hooksTemplate","type":"address","internalType":"address"},{"name":"fees","type":"tuple","internalType":"struct FeeConfiguration","components":[{"name":"feeRecipient","type":"address","internalType":"address"},{"name":"protocolFeeBips","type":"uint16","internalType":"uint16"},{"name":"originationFeeToken","type":"tuple","internalType":"struct TokenMetadata","components":[{"name":"token","type":"address","internalType":"address"},{"name":"name","type":"string","internalType":"string"},{"name":"symbol","type":"string","internalType":"string"},{"name":"decimals","type":"uint256","internalType":"uint256"},{"name":"isMock","type":"bool","internalType":"bool"}]},{"name":"originationFeeAmount","type":"uint256","internalType":"uint256"},{"name":"borrowerOriginationFeeBalance","type":"uint256","internalType":"uint256"},{"name":"borrowerOriginationFeeApproval","type":"uint256","internalType":"uint256"}]},{"name":"exists","type":"bool","internalType":"bool"},{"name":"enabled","type":"bool","internalType":"bool"},{"name":"index","type":"uint24","internalType":"uint24"},{"name":"name","type":"string","internalType":"string"},{"name":"totalMarkets","type":"uint256","internalType":"uint256"}]},{"name":"constraints","type":"tuple","internalType":"struct MarketParameterConstraints","components":[{"name":"minimumDelinquencyGracePeriod","type":"uint32","internalType":"uint32"},{"name":"maximumDelinquencyGracePeriod","type":"uint32","internalType":"uint32"},{"name":"minimumReserveRatioBips","type":"uint16","internalType":"uint16"},{"name":"maximumReserveRatioBips","type":"uint16","internalType":"uint16"},{"name":"minimumDelinquencyFeeBips","type":"uint16","internalType":"uint16"},{"name":"maximumDelinquencyFeeBips","type":"uint16","internalType":"uint16"},{"name":"minimumWithdrawalBatchDuration","type":"uint32","internalType":"uint32"},{"name":"maximumWithdrawalBatchDuration","type":"uint32","internalType":"uint32"},{"name":"minimumAnnualInterestBips","type":"uint16","internalType":"uint16"},{"name":"maximumAnnualInterestBips","type":"uint16","internalType":"uint16"}]},{"name":"deploymentFlags","type":"tuple","internalType":"struct HooksDeploymentFlags","components":[{"name":"optional","type":"tuple","internalType":"struct HooksConfigData","components":[{"name":"useOnDeposit","type":"bool","internalType":"bool"},{"name":"useOnQueueWithdrawal","type":"bool","internalType":"bool"},{"name":"useOnExecuteWithdrawal","type":"bool","internalType":"bool"},{"name":"useOnTransfer","type":"bool","internalType":"bool"},{"name":"useOnBorrow","type":"bool","internalType":"bool"},{"name":"useOnRepay","type":"bool","internalType":"bool"},{"name":"useOnCloseMarket","type":"bool","internalType":"bool"},{"name":"useOnNukeFromOrbit","type":"bool","internalType":"bool"},{"name":"useOnSetMaxTotalSupply","type":"bool","internalType":"bool"},{"name":"useOnSetAnnualInterestAndReserveRatioBips","type":"bool","internalType":"bool"},{"name":"useOnSetProtocolFeeBips","type":"bool","internalType":"bool"}]},{"name":"required","type":"tuple","internalType":"struct HooksConfigData","components":[{"name":"useOnDeposit","type":"bool","internalType":"bool"},{"name":"useOnQueueWithdrawal","type":"bool","internalType":"bool"},{"name":"useOnExecuteWithdrawal","type":"bool","internalType":"bool"},{"name":"useOnTransfer","type":"bool","internalType":"bool"},{"name":"useOnBorrow","type":"bool","internalType":"bool"},{"name":"useOnRepay","type":"bool","internalType":"bool"},{"name":"useOnCloseMarket","type":"bool","internalType":"bool"},{"name":"useOnNukeFromOrbit","type":"bool","internalType":"bool"},{"name":"useOnSetMaxTotalSupply","type":"bool","internalType":"bool"},{"name":"useOnSetAnnualInterestAndReserveRatioBips","type":"bool","internalType":"bool"},{"name":"useOnSetProtocolFeeBips","type":"bool","internalType":"bool"}]}]},{"name":"pullProviders","type":"tuple[]","internalType":"struct RoleProviderData[]","components":[{"name":"timeToLive","type":"uint32","internalType":"uint32"},{"name":"providerAddress","type":"address","internalType":"address"},{"name":"pullProviderIndex","type":"uint24","internalType":"uint24"},{"name":"pushProviderIndex","type":"uint24","internalType":"uint24"}]},{"name":"pushProviders","type":"tuple[]","internalType":"struct RoleProviderData[]","components":[{"name":"timeToLive","type":"uint32","internalType":"uint32"},{"name":"providerAddress","type":"address","internalType":"address"},{"name":"pullProviderIndex","type":"uint24","internalType":"uint24"},{"name":"pushProviderIndex","type":"uint24","internalType":"uint24"}]},{"name":"totalMarkets","type":"uint256","internalType":"uint256"}]},{"name":"temporaryReserveRatio","type":"bool","internalType":"bool"},{"name":"originalAnnualInterestBips","type":"uint256","internalType":"uint256"},{"name":"originalReserveRatioBips","type":"uint256","internalType":"uint256"},{"name":"temporaryReserveRatioExpiry","type":"uint256","internalType":"uint256"},{"name":"isClosed","type":"bool","internalType":"bool"},{"name":"protocolFeeBips","type":"uint256","internalType":"uint256"},{"name":"reserveRatioBips","type":"uint256","internalType":"uint256"},{"name":"annualInterestBips","type":"uint256","internalType":"uint256"},{"name":"scaleFactor","type":"uint256","internalType":"uint256"},{"name":"totalSupply","type":"uint256","internalType":"uint256"},{"name":"maxTotalSupply","type":"uint256","internalType":"uint256"},{"name":"scaledTotalSupply","type":"uint256","internalType":"uint256"},{"name":"totalAssets","type":"uint256","internalType":"uint256"},{"name":"lastAccruedProtocolFees","type":"uint256","internalType":"uint256"},{"name":"normalizedUnclaimedWithdrawals","type":"uint256","internalType":"uint256"},{"name":"scaledPendingWithdrawals","type":"uint256","internalType":"uint256"},{"name":"pendingWithdrawalExpiry","type":"uint256","internalType":"uint256"},{"name":"isDelinquent","type":"bool","internalType":"bool"},{"name":"timeDelinquent","type":"uint256","internalType":"uint256"},{"name":"lastInterestAccruedTimestamp","type":"uint256","internalType":"uint256"},{"name":"unpaidWithdrawalBatchExpiries","type":"uint32[]","internalType":"uint32[]"},{"name":"coverageLiquidity","type":"uint256","internalType":"uint256"}]},{"name":"lenderStatus","type":"tuple","internalType":"struct LenderAccountData","components":[{"name":"lender","type":"address","internalType":"address"},{"name":"scaledBalance","type":"uint256","internalType":"uint256"},{"name":"normalizedBalance","type":"uint256","internalType":"uint256"},{"name":"underlyingBalance","type":"uint256","internalType":"uint256"},{"name":"underlyingApproval","type":"uint256","internalType":"uint256"},{"name":"isBlockedFromDeposits","type":"bool","internalType":"bool"},{"name":"lastProvider","type":"tuple","internalType":"struct RoleProviderData","components":[{"name":"timeToLive","type":"uint32","internalType":"uint32"},{"name":"providerAddress","type":"address","internalType":"address"},{"name":"pullProviderIndex","type":"uint24","internalType":"uint24"},{"name":"pushProviderIndex","type":"uint24","internalType":"uint24"}]},{"name":"canRefresh","type":"bool","internalType":"bool"},{"name":"lastApprovalTimestamp","type":"uint32","internalType":"uint32"},{"name":"isKnownLender","type":"bool","internalType":"bool"}]}]}],"stateMutability":"view"},{"type":"function","name":"getMarketsData","inputs":[{"name":"markets","type":"address[]","internalType":"address[]"}],"outputs":[{"name":"data","type":"tuple[]","internalType":"struct MarketData[]","components":[{"name":"marketToken","type":"tuple","internalType":"struct TokenMetadata","components":[{"name":"token","type":"address","internalType":"address"},{"name":"name","type":"string","internalType":"string"},{"name":"symbol","type":"string","internalType":"string"},{"name":"decimals","type":"uint256","internalType":"uint256"},{"name":"isMock","type":"bool","internalType":"bool"}]},{"name":"underlyingToken","type":"tuple","internalType":"struct TokenMetadata","components":[{"name":"token","type":"address","internalType":"address"},{"name":"name","type":"string","internalType":"string"},{"name":"symbol","type":"string","internalType":"string"},{"name":"decimals","type":"uint256","internalType":"uint256"},{"name":"isMock","type":"bool","internalType":"bool"}]},{"name":"hooksFactory","type":"address","internalType":"address"},{"name":"borrower","type":"address","internalType":"address"},{"name":"hooksConfig","type":"tuple","internalType":"struct MarketHooksData","components":[{"name":"hooksAddress","type":"address","internalType":"address"},{"name":"flags","type":"tuple","internalType":"struct HooksConfigData","components":[{"name":"useOnDeposit","type":"bool","internalType":"bool"},{"name":"useOnQueueWithdrawal","type":"bool","internalType":"bool"},{"name":"useOnExecuteWithdrawal","type":"bool","internalType":"bool"},{"name":"useOnTransfer","type":"bool","internalType":"bool"},{"name":"useOnBorrow","type":"bool","internalType":"bool"},{"name":"useOnRepay","type":"bool","internalType":"bool"},{"name":"useOnCloseMarket","type":"bool","internalType":"bool"},{"name":"useOnNukeFromOrbit","type":"bool","internalType":"bool"},{"name":"useOnSetMaxTotalSupply","type":"bool","internalType":"bool"},{"name":"useOnSetAnnualInterestAndReserveRatioBips","type":"bool","internalType":"bool"},{"name":"useOnSetProtocolFeeBips","type":"bool","internalType":"bool"}]},{"name":"kind","type":"uint8","internalType":"enum HooksInstanceKind"},{"name":"transferRequiresAccess","type":"bool","internalType":"bool"},{"name":"depositRequiresAccess","type":"bool","internalType":"bool"},{"name":"minimumDeposit","type":"uint128","internalType":"uint128"},{"name":"transfersDisabled","type":"bool","internalType":"bool"},{"name":"unused_allowForceBuyBacks","type":"bool","internalType":"bool"},{"name":"withdrawalRequiresAccess","type":"bool","internalType":"bool"},{"name":"fixedTermEndTime","type":"uint32","internalType":"uint32"},{"name":"allowClosureBeforeTerm","type":"bool","internalType":"bool"},{"name":"allowTermReduction","type":"bool","internalType":"bool"}]},{"name":"withdrawalBatchDuration","type":"uint256","internalType":"uint256"},{"name":"feeRecipient","type":"address","internalType":"address"},{"name":"delinquencyFeeBips","type":"uint256","internalType":"uint256"},{"name":"delinquencyGracePeriod","type":"uint256","internalType":"uint256"},{"name":"hooks","type":"tuple","internalType":"struct HooksInstanceData","components":[{"name":"hooksAddress","type":"address","internalType":"address"},{"name":"borrower","type":"address","internalType":"address"},{"name":"name","type":"string","internalType":"string"},{"name":"kind","type":"uint8","internalType":"enum HooksInstanceKind"},{"name":"hooksTemplate","type":"tuple","internalType":"struct HooksTemplateData","components":[{"name":"hooksTemplate","type":"address","internalType":"address"},{"name":"fees","type":"tuple","internalType":"struct FeeConfiguration","components":[{"name":"feeRecipient","type":"address","internalType":"address"},{"name":"protocolFeeBips","type":"uint16","internalType":"uint16"},{"name":"originationFeeToken","type":"tuple","internalType":"struct TokenMetadata","components":[{"name":"token","type":"address","internalType":"address"},{"name":"name","type":"string","internalType":"string"},{"name":"symbol","type":"string","internalType":"string"},{"name":"decimals","type":"uint256","internalType":"uint256"},{"name":"isMock","type":"bool","internalType":"bool"}]},{"name":"originationFeeAmount","type":"uint256","internalType":"uint256"},{"name":"borrowerOriginationFeeBalance","type":"uint256","internalType":"uint256"},{"name":"borrowerOriginationFeeApproval","type":"uint256","internalType":"uint256"}]},{"name":"exists","type":"bool","internalType":"bool"},{"name":"enabled","type":"bool","internalType":"bool"},{"name":"index","type":"uint24","internalType":"uint24"},{"name":"name","type":"string","internalType":"string"},{"name":"totalMarkets","type":"uint256","internalType":"uint256"}]},{"name":"constraints","type":"tuple","internalType":"struct MarketParameterConstraints","components":[{"name":"minimumDelinquencyGracePeriod","type":"uint32","internalType":"uint32"},{"name":"maximumDelinquencyGracePeriod","type":"uint32","internalType":"uint32"},{"name":"minimumReserveRatioBips","type":"uint16","internalType":"uint16"},{"name":"maximumReserveRatioBips","type":"uint16","internalType":"uint16"},{"name":"minimumDelinquencyFeeBips","type":"uint16","internalType":"uint16"},{"name":"maximumDelinquencyFeeBips","type":"uint16","internalType":"uint16"},{"name":"minimumWithdrawalBatchDuration","type":"uint32","internalType":"uint32"},{"name":"maximumWithdrawalBatchDuration","type":"uint32","internalType":"uint32"},{"name":"minimumAnnualInterestBips","type":"uint16","internalType":"uint16"},{"name":"maximumAnnualInterestBips","type":"uint16","internalType":"uint16"}]},{"name":"deploymentFlags","type":"tuple","internalType":"struct HooksDeploymentFlags","components":[{"name":"optional","type":"tuple","internalType":"struct HooksConfigData","components":[{"name":"useOnDeposit","type":"bool","internalType":"bool"},{"name":"useOnQueueWithdrawal","type":"bool","internalType":"bool"},{"name":"useOnExecuteWithdrawal","type":"bool","internalType":"bool"},{"name":"useOnTransfer","type":"bool","internalType":"bool"},{"name":"useOnBorrow","type":"bool","internalType":"bool"},{"name":"useOnRepay","type":"bool","internalType":"bool"},{"name":"useOnCloseMarket","type":"bool","internalType":"bool"},{"name":"useOnNukeFromOrbit","type":"bool","internalType":"bool"},{"name":"useOnSetMaxTotalSupply","type":"bool","internalType":"bool"},{"name":"useOnSetAnnualInterestAndReserveRatioBips","type":"bool","internalType":"bool"},{"name":"useOnSetProtocolFeeBips","type":"bool","internalType":"bool"}]},{"name":"required","type":"tuple","internalType":"struct HooksConfigData","components":[{"name":"useOnDeposit","type":"bool","internalType":"bool"},{"name":"useOnQueueWithdrawal","type":"bool","internalType":"bool"},{"name":"useOnExecuteWithdrawal","type":"bool","internalType":"bool"},{"name":"useOnTransfer","type":"bool","internalType":"bool"},{"name":"useOnBorrow","type":"bool","internalType":"bool"},{"name":"useOnRepay","type":"bool","internalType":"bool"},{"name":"useOnCloseMarket","type":"bool","internalType":"bool"},{"name":"useOnNukeFromOrbit","type":"bool","internalType":"bool"},{"name":"useOnSetMaxTotalSupply","type":"bool","internalType":"bool"},{"name":"useOnSetAnnualInterestAndReserveRatioBips","type":"bool","internalType":"bool"},{"name":"useOnSetProtocolFeeBips","type":"bool","internalType":"bool"}]}]},{"name":"pullProviders","type":"tuple[]","internalType":"struct RoleProviderData[]","components":[{"name":"timeToLive","type":"uint32","internalType":"uint32"},{"name":"providerAddress","type":"address","internalType":"address"},{"name":"pullProviderIndex","type":"uint24","internalType":"uint24"},{"name":"pushProviderIndex","type":"uint24","internalType":"uint24"}]},{"name":"pushProviders","type":"tuple[]","internalType":"struct RoleProviderData[]","components":[{"name":"timeToLive","type":"uint32","internalType":"uint32"},{"name":"providerAddress","type":"address","internalType":"address"},{"name":"pullProviderIndex","type":"uint24","internalType":"uint24"},{"name":"pushProviderIndex","type":"uint24","internalType":"uint24"}]},{"name":"totalMarkets","type":"uint256","internalType":"uint256"}]},{"name":"temporaryReserveRatio","type":"bool","internalType":"bool"},{"name":"originalAnnualInterestBips","type":"uint256","internalType":"uint256"},{"name":"originalReserveRatioBips","type":"uint256","internalType":"uint256"},{"name":"temporaryReserveRatioExpiry","type":"uint256","internalType":"uint256"},{"name":"isClosed","type":"bool","internalType":"bool"},{"name":"protocolFeeBips","type":"uint256","internalType":"uint256"},{"name":"reserveRatioBips","type":"uint256","internalType":"uint256"},{"name":"annualInterestBips","type":"uint256","internalType":"uint256"},{"name":"scaleFactor","type":"uint256","internalType":"uint256"},{"name":"totalSupply","type":"uint256","internalType":"uint256"},{"name":"maxTotalSupply","type":"uint256","internalType":"uint256"},{"name":"scaledTotalSupply","type":"uint256","internalType":"uint256"},{"name":"totalAssets","type":"uint256","internalType":"uint256"},{"name":"lastAccruedProtocolFees","type":"uint256","internalType":"uint256"},{"name":"normalizedUnclaimedWithdrawals","type":"uint256","internalType":"uint256"},{"name":"scaledPendingWithdrawals","type":"uint256","internalType":"uint256"},{"name":"pendingWithdrawalExpiry","type":"uint256","internalType":"uint256"},{"name":"isDelinquent","type":"bool","internalType":"bool"},{"name":"timeDelinquent","type":"uint256","internalType":"uint256"},{"name":"lastInterestAccruedTimestamp","type":"uint256","internalType":"uint256"},{"name":"unpaidWithdrawalBatchExpiries","type":"uint32[]","internalType":"uint32[]"},{"name":"coverageLiquidity","type":"uint256","internalType":"uint256"}]}],"stateMutability":"view"},{"type":"function","name":"getMarketsDataWithLenderStatus","inputs":[{"name":"lender","type":"address","internalType":"address"},{"name":"markets","type":"address[]","internalType":"address[]"}],"outputs":[{"name":"data","type":"tuple[]","internalType":"struct MarketDataWithLenderStatus[]","components":[{"name":"market","type":"tuple","internalType":"struct MarketData","components":[{"name":"marketToken","type":"tuple","internalType":"struct TokenMetadata","components":[{"name":"token","type":"address","internalType":"address"},{"name":"name","type":"string","internalType":"string"},{"name":"symbol","type":"string","internalType":"string"},{"name":"decimals","type":"uint256","internalType":"uint256"},{"name":"isMock","type":"bool","internalType":"bool"}]},{"name":"underlyingToken","type":"tuple","internalType":"struct TokenMetadata","components":[{"name":"token","type":"address","internalType":"address"},{"name":"name","type":"string","internalType":"string"},{"name":"symbol","type":"string","internalType":"string"},{"name":"decimals","type":"uint256","internalType":"uint256"},{"name":"isMock","type":"bool","internalType":"bool"}]},{"name":"hooksFactory","type":"address","internalType":"address"},{"name":"borrower","type":"address","internalType":"address"},{"name":"hooksConfig","type":"tuple","internalType":"struct MarketHooksData","components":[{"name":"hooksAddress","type":"address","internalType":"address"},{"name":"flags","type":"tuple","internalType":"struct HooksConfigData","components":[{"name":"useOnDeposit","type":"bool","internalType":"bool"},{"name":"useOnQueueWithdrawal","type":"bool","internalType":"bool"},{"name":"useOnExecuteWithdrawal","type":"bool","internalType":"bool"},{"name":"useOnTransfer","type":"bool","internalType":"bool"},{"name":"useOnBorrow","type":"bool","internalType":"bool"},{"name":"useOnRepay","type":"bool","internalType":"bool"},{"name":"useOnCloseMarket","type":"bool","internalType":"bool"},{"name":"useOnNukeFromOrbit","type":"bool","internalType":"bool"},{"name":"useOnSetMaxTotalSupply","type":"bool","internalType":"bool"},{"name":"useOnSetAnnualInterestAndReserveRatioBips","type":"bool","internalType":"bool"},{"name":"useOnSetProtocolFeeBips","type":"bool","internalType":"bool"}]},{"name":"kind","type":"uint8","internalType":"enum HooksInstanceKind"},{"name":"transferRequiresAccess","type":"bool","internalType":"bool"},{"name":"depositRequiresAccess","type":"bool","internalType":"bool"},{"name":"minimumDeposit","type":"uint128","internalType":"uint128"},{"name":"transfersDisabled","type":"bool","internalType":"bool"},{"name":"unused_allowForceBuyBacks","type":"bool","internalType":"bool"},{"name":"withdrawalRequiresAccess","type":"bool","internalType":"bool"},{"name":"fixedTermEndTime","type":"uint32","internalType":"uint32"},{"name":"allowClosureBeforeTerm","type":"bool","internalType":"bool"},{"name":"allowTermReduction","type":"bool","internalType":"bool"}]},{"name":"withdrawalBatchDuration","type":"uint256","internalType":"uint256"},{"name":"feeRecipient","type":"address","internalType":"address"},{"name":"delinquencyFeeBips","type":"uint256","internalType":"uint256"},{"name":"delinquencyGracePeriod","type":"uint256","internalType":"uint256"},{"name":"hooks","type":"tuple","internalType":"struct HooksInstanceData","components":[{"name":"hooksAddress","type":"address","internalType":"address"},{"name":"borrower","type":"address","internalType":"address"},{"name":"name","type":"string","internalType":"string"},{"name":"kind","type":"uint8","internalType":"enum HooksInstanceKind"},{"name":"hooksTemplate","type":"tuple","internalType":"struct HooksTemplateData","components":[{"name":"hooksTemplate","type":"address","internalType":"address"},{"name":"fees","type":"tuple","internalType":"struct FeeConfiguration","components":[{"name":"feeRecipient","type":"address","internalType":"address"},{"name":"protocolFeeBips","type":"uint16","internalType":"uint16"},{"name":"originationFeeToken","type":"tuple","internalType":"struct TokenMetadata","components":[{"name":"token","type":"address","internalType":"address"},{"name":"name","type":"string","internalType":"string"},{"name":"symbol","type":"string","internalType":"string"},{"name":"decimals","type":"uint256","internalType":"uint256"},{"name":"isMock","type":"bool","internalType":"bool"}]},{"name":"originationFeeAmount","type":"uint256","internalType":"uint256"},{"name":"borrowerOriginationFeeBalance","type":"uint256","internalType":"uint256"},{"name":"borrowerOriginationFeeApproval","type":"uint256","internalType":"uint256"}]},{"name":"exists","type":"bool","internalType":"bool"},{"name":"enabled","type":"bool","internalType":"bool"},{"name":"index","type":"uint24","internalType":"uint24"},{"name":"name","type":"string","internalType":"string"},{"name":"totalMarkets","type":"uint256","internalType":"uint256"}]},{"name":"constraints","type":"tuple","internalType":"struct MarketParameterConstraints","components":[{"name":"minimumDelinquencyGracePeriod","type":"uint32","internalType":"uint32"},{"name":"maximumDelinquencyGracePeriod","type":"uint32","internalType":"uint32"},{"name":"minimumReserveRatioBips","type":"uint16","internalType":"uint16"},{"name":"maximumReserveRatioBips","type":"uint16","internalType":"uint16"},{"name":"minimumDelinquencyFeeBips","type":"uint16","internalType":"uint16"},{"name":"maximumDelinquencyFeeBips","type":"uint16","internalType":"uint16"},{"name":"minimumWithdrawalBatchDuration","type":"uint32","internalType":"uint32"},{"name":"maximumWithdrawalBatchDuration","type":"uint32","internalType":"uint32"},{"name":"minimumAnnualInterestBips","type":"uint16","internalType":"uint16"},{"name":"maximumAnnualInterestBips","type":"uint16","internalType":"uint16"}]},{"name":"deploymentFlags","type":"tuple","internalType":"struct HooksDeploymentFlags","components":[{"name":"optional","type":"tuple","internalType":"struct HooksConfigData","components":[{"name":"useOnDeposit","type":"bool","internalType":"bool"},{"name":"useOnQueueWithdrawal","type":"bool","internalType":"bool"},{"name":"useOnExecuteWithdrawal","type":"bool","internalType":"bool"},{"name":"useOnTransfer","type":"bool","internalType":"bool"},{"name":"useOnBorrow","type":"bool","internalType":"bool"},{"name":"useOnRepay","type":"bool","internalType":"bool"},{"name":"useOnCloseMarket","type":"bool","internalType":"bool"},{"name":"useOnNukeFromOrbit","type":"bool","internalType":"bool"},{"name":"useOnSetMaxTotalSupply","type":"bool","internalType":"bool"},{"name":"useOnSetAnnualInterestAndReserveRatioBips","type":"bool","internalType":"bool"},{"name":"useOnSetProtocolFeeBips","type":"bool","internalType":"bool"}]},{"name":"required","type":"tuple","internalType":"struct HooksConfigData","components":[{"name":"useOnDeposit","type":"bool","internalType":"bool"},{"name":"useOnQueueWithdrawal","type":"bool","internalType":"bool"},{"name":"useOnExecuteWithdrawal","type":"bool","internalType":"bool"},{"name":"useOnTransfer","type":"bool","internalType":"bool"},{"name":"useOnBorrow","type":"bool","internalType":"bool"},{"name":"useOnRepay","type":"bool","internalType":"bool"},{"name":"useOnCloseMarket","type":"bool","internalType":"bool"},{"name":"useOnNukeFromOrbit","type":"bool","internalType":"bool"},{"name":"useOnSetMaxTotalSupply","type":"bool","internalType":"bool"},{"name":"useOnSetAnnualInterestAndReserveRatioBips","type":"bool","internalType":"bool"},{"name":"useOnSetProtocolFeeBips","type":"bool","internalType":"bool"}]}]},{"name":"pullProviders","type":"tuple[]","internalType":"struct RoleProviderData[]","components":[{"name":"timeToLive","type":"uint32","internalType":"uint32"},{"name":"providerAddress","type":"address","internalType":"address"},{"name":"pullProviderIndex","type":"uint24","internalType":"uint24"},{"name":"pushProviderIndex","type":"uint24","internalType":"uint24"}]},{"name":"pushProviders","type":"tuple[]","internalType":"struct RoleProviderData[]","components":[{"name":"timeToLive","type":"uint32","internalType":"uint32"},{"name":"providerAddress","type":"address","internalType":"address"},{"name":"pullProviderIndex","type":"uint24","internalType":"uint24"},{"name":"pushProviderIndex","type":"uint24","internalType":"uint24"}]},{"name":"totalMarkets","type":"uint256","internalType":"uint256"}]},{"name":"temporaryReserveRatio","type":"bool","internalType":"bool"},{"name":"originalAnnualInterestBips","type":"uint256","internalType":"uint256"},{"name":"originalReserveRatioBips","type":"uint256","internalType":"uint256"},{"name":"temporaryReserveRatioExpiry","type":"uint256","internalType":"uint256"},{"name":"isClosed","type":"bool","internalType":"bool"},{"name":"protocolFeeBips","type":"uint256","internalType":"uint256"},{"name":"reserveRatioBips","type":"uint256","internalType":"uint256"},{"name":"annualInterestBips","type":"uint256","internalType":"uint256"},{"name":"scaleFactor","type":"uint256","internalType":"uint256"},{"name":"totalSupply","type":"uint256","internalType":"uint256"},{"name":"maxTotalSupply","type":"uint256","internalType":"uint256"},{"name":"scaledTotalSupply","type":"uint256","internalType":"uint256"},{"name":"totalAssets","type":"uint256","internalType":"uint256"},{"name":"lastAccruedProtocolFees","type":"uint256","internalType":"uint256"},{"name":"normalizedUnclaimedWithdrawals","type":"uint256","internalType":"uint256"},{"name":"scaledPendingWithdrawals","type":"uint256","internalType":"uint256"},{"name":"pendingWithdrawalExpiry","type":"uint256","internalType":"uint256"},{"name":"isDelinquent","type":"bool","internalType":"bool"},{"name":"timeDelinquent","type":"uint256","internalType":"uint256"},{"name":"lastInterestAccruedTimestamp","type":"uint256","internalType":"uint256"},{"name":"unpaidWithdrawalBatchExpiries","type":"uint32[]","internalType":"uint32[]"},{"name":"coverageLiquidity","type":"uint256","internalType":"uint256"}]},{"name":"lenderStatus","type":"tuple","internalType":"struct LenderAccountData","components":[{"name":"lender","type":"address","internalType":"address"},{"name":"scaledBalance","type":"uint256","internalType":"uint256"},{"name":"normalizedBalance","type":"uint256","internalType":"uint256"},{"name":"underlyingBalance","type":"uint256","internalType":"uint256"},{"name":"underlyingApproval","type":"uint256","internalType":"uint256"},{"name":"isBlockedFromDeposits","type":"bool","internalType":"bool"},{"name":"lastProvider","type":"tuple","internalType":"struct RoleProviderData","components":[{"name":"timeToLive","type":"uint32","internalType":"uint32"},{"name":"providerAddress","type":"address","internalType":"address"},{"name":"pullProviderIndex","type":"uint24","internalType":"uint24"},{"name":"pushProviderIndex","type":"uint24","internalType":"uint24"}]},{"name":"canRefresh","type":"bool","internalType":"bool"},{"name":"lastApprovalTimestamp","type":"uint32","internalType":"uint32"},{"name":"isKnownLender","type":"bool","internalType":"bool"}]}]}],"stateMutability":"view"},{"type":"function","name":"getMarketsForHooksTemplateCount","inputs":[{"name":"hooksTemplate","type":"address","internalType":"address"}],"outputs":[{"name":"","type":"uint256","internalType":"uint256"}],"stateMutability":"view"},{"type":"function","name":"getPaginatedMarketsDataForHooksTemplate","inputs":[{"name":"hooksTemplate","type":"address","internalType":"address"},{"name":"start","type":"uint256","internalType":"uint256"},{"name":"end","type":"uint256","internalType":"uint256"}],"outputs":[{"name":"data","type":"tuple[]","internalType":"struct MarketData[]","components":[{"name":"marketToken","type":"tuple","internalType":"struct TokenMetadata","components":[{"name":"token","type":"address","internalType":"address"},{"name":"name","type":"string","internalType":"string"},{"name":"symbol","type":"string","internalType":"string"},{"name":"decimals","type":"uint256","internalType":"uint256"},{"name":"isMock","type":"bool","internalType":"bool"}]},{"name":"underlyingToken","type":"tuple","internalType":"struct TokenMetadata","components":[{"name":"token","type":"address","internalType":"address"},{"name":"name","type":"string","internalType":"string"},{"name":"symbol","type":"string","internalType":"string"},{"name":"decimals","type":"uint256","internalType":"uint256"},{"name":"isMock","type":"bool","internalType":"bool"}]},{"name":"hooksFactory","type":"address","internalType":"address"},{"name":"borrower","type":"address","internalType":"address"},{"name":"hooksConfig","type":"tuple","internalType":"struct MarketHooksData","components":[{"name":"hooksAddress","type":"address","internalType":"address"},{"name":"flags","type":"tuple","internalType":"struct HooksConfigData","components":[{"name":"useOnDeposit","type":"bool","internalType":"bool"},{"name":"useOnQueueWithdrawal","type":"bool","internalType":"bool"},{"name":"useOnExecuteWithdrawal","type":"bool","internalType":"bool"},{"name":"useOnTransfer","type":"bool","internalType":"bool"},{"name":"useOnBorrow","type":"bool","internalType":"bool"},{"name":"useOnRepay","type":"bool","internalType":"bool"},{"name":"useOnCloseMarket","type":"bool","internalType":"bool"},{"name":"useOnNukeFromOrbit","type":"bool","internalType":"bool"},{"name":"useOnSetMaxTotalSupply","type":"bool","internalType":"bool"},{"name":"useOnSetAnnualInterestAndReserveRatioBips","type":"bool","internalType":"bool"},{"name":"useOnSetProtocolFeeBips","type":"bool","internalType":"bool"}]},{"name":"kind","type":"uint8","internalType":"enum HooksInstanceKind"},{"name":"transferRequiresAccess","type":"bool","internalType":"bool"},{"name":"depositRequiresAccess","type":"bool","internalType":"bool"},{"name":"minimumDeposit","type":"uint128","internalType":"uint128"},{"name":"transfersDisabled","type":"bool","internalType":"bool"},{"name":"unused_allowForceBuyBacks","type":"bool","internalType":"bool"},{"name":"withdrawalRequiresAccess","type":"bool","internalType":"bool"},{"name":"fixedTermEndTime","type":"uint32","internalType":"uint32"},{"name":"allowClosureBeforeTerm","type":"bool","internalType":"bool"},{"name":"allowTermReduction","type":"bool","internalType":"bool"}]},{"name":"withdrawalBatchDuration","type":"uint256","internalType":"uint256"},{"name":"feeRecipient","type":"address","internalType":"address"},{"name":"delinquencyFeeBips","type":"uint256","internalType":"uint256"},{"name":"delinquencyGracePeriod","type":"uint256","internalType":"uint256"},{"name":"hooks","type":"tuple","internalType":"struct HooksInstanceData","components":[{"name":"hooksAddress","type":"address","internalType":"address"},{"name":"borrower","type":"address","internalType":"address"},{"name":"name","type":"string","internalType":"string"},{"name":"kind","type":"uint8","internalType":"enum HooksInstanceKind"},{"name":"hooksTemplate","type":"tuple","internalType":"struct HooksTemplateData","components":[{"name":"hooksTemplate","type":"address","internalType":"address"},{"name":"fees","type":"tuple","internalType":"struct FeeConfiguration","components":[{"name":"feeRecipient","type":"address","internalType":"address"},{"name":"protocolFeeBips","type":"uint16","internalType":"uint16"},{"name":"originationFeeToken","type":"tuple","internalType":"struct TokenMetadata","components":[{"name":"token","type":"address","internalType":"address"},{"name":"name","type":"string","internalType":"string"},{"name":"symbol","type":"string","internalType":"string"},{"name":"decimals","type":"uint256","internalType":"uint256"},{"name":"isMock","type":"bool","internalType":"bool"}]},{"name":"originationFeeAmount","type":"uint256","internalType":"uint256"},{"name":"borrowerOriginationFeeBalance","type":"uint256","internalType":"uint256"},{"name":"borrowerOriginationFeeApproval","type":"uint256","internalType":"uint256"}]},{"name":"exists","type":"bool","internalType":"bool"},{"name":"enabled","type":"bool","internalType":"bool"},{"name":"index","type":"uint24","internalType":"uint24"},{"name":"name","type":"string","internalType":"string"},{"name":"totalMarkets","type":"uint256","internalType":"uint256"}]},{"name":"constraints","type":"tuple","internalType":"struct MarketParameterConstraints","components":[{"name":"minimumDelinquencyGracePeriod","type":"uint32","internalType":"uint32"},{"name":"maximumDelinquencyGracePeriod","type":"uint32","internalType":"uint32"},{"name":"minimumReserveRatioBips","type":"uint16","internalType":"uint16"},{"name":"maximumReserveRatioBips","type":"uint16","internalType":"uint16"},{"name":"minimumDelinquencyFeeBips","type":"uint16","internalType":"uint16"},{"name":"maximumDelinquencyFeeBips","type":"uint16","internalType":"uint16"},{"name":"minimumWithdrawalBatchDuration","type":"uint32","internalType":"uint32"},{"name":"maximumWithdrawalBatchDuration","type":"uint32","internalType":"uint32"},{"name":"minimumAnnualInterestBips","type":"uint16","internalType":"uint16"},{"name":"maximumAnnualInterestBips","type":"uint16","internalType":"uint16"}]},{"name":"deploymentFlags","type":"tuple","internalType":"struct HooksDeploymentFlags","components":[{"name":"optional","type":"tuple","internalType":"struct HooksConfigData","components":[{"name":"useOnDeposit","type":"bool","internalType":"bool"},{"name":"useOnQueueWithdrawal","type":"bool","internalType":"bool"},{"name":"useOnExecuteWithdrawal","type":"bool","internalType":"bool"},{"name":"useOnTransfer","type":"bool","internalType":"bool"},{"name":"useOnBorrow","type":"bool","internalType":"bool"},{"name":"useOnRepay","type":"bool","internalType":"bool"},{"name":"useOnCloseMarket","type":"bool","internalType":"bool"},{"name":"useOnNukeFromOrbit","type":"bool","internalType":"bool"},{"name":"useOnSetMaxTotalSupply","type":"bool","internalType":"bool"},{"name":"useOnSetAnnualInterestAndReserveRatioBips","type":"bool","internalType":"bool"},{"name":"useOnSetProtocolFeeBips","type":"bool","internalType":"bool"}]},{"name":"required","type":"tuple","internalType":"struct HooksConfigData","components":[{"name":"useOnDeposit","type":"bool","internalType":"bool"},{"name":"useOnQueueWithdrawal","type":"bool","internalType":"bool"},{"name":"useOnExecuteWithdrawal","type":"bool","internalType":"bool"},{"name":"useOnTransfer","type":"bool","internalType":"bool"},{"name":"useOnBorrow","type":"bool","internalType":"bool"},{"name":"useOnRepay","type":"bool","internalType":"bool"},{"name":"useOnCloseMarket","type":"bool","internalType":"bool"},{"name":"useOnNukeFromOrbit","type":"bool","internalType":"bool"},{"name":"useOnSetMaxTotalSupply","type":"bool","internalType":"bool"},{"name":"useOnSetAnnualInterestAndReserveRatioBips","type":"bool","internalType":"bool"},{"name":"useOnSetProtocolFeeBips","type":"bool","internalType":"bool"}]}]},{"name":"pullProviders","type":"tuple[]","internalType":"struct RoleProviderData[]","components":[{"name":"timeToLive","type":"uint32","internalType":"uint32"},{"name":"providerAddress","type":"address","internalType":"address"},{"name":"pullProviderIndex","type":"uint24","internalType":"uint24"},{"name":"pushProviderIndex","type":"uint24","internalType":"uint24"}]},{"name":"pushProviders","type":"tuple[]","internalType":"struct RoleProviderData[]","components":[{"name":"timeToLive","type":"uint32","internalType":"uint32"},{"name":"providerAddress","type":"address","internalType":"address"},{"name":"pullProviderIndex","type":"uint24","internalType":"uint24"},{"name":"pushProviderIndex","type":"uint24","internalType":"uint24"}]},{"name":"totalMarkets","type":"uint256","internalType":"uint256"}]},{"name":"temporaryReserveRatio","type":"bool","internalType":"bool"},{"name":"originalAnnualInterestBips","type":"uint256","internalType":"uint256"},{"name":"originalReserveRatioBips","type":"uint256","internalType":"uint256"},{"name":"temporaryReserveRatioExpiry","type":"uint256","internalType":"uint256"},{"name":"isClosed","type":"bool","internalType":"bool"},{"name":"protocolFeeBips","type":"uint256","internalType":"uint256"},{"name":"reserveRatioBips","type":"uint256","internalType":"uint256"},{"name":"annualInterestBips","type":"uint256","internalType":"uint256"},{"name":"scaleFactor","type":"uint256","internalType":"uint256"},{"name":"totalSupply","type":"uint256","internalType":"uint256"},{"name":"maxTotalSupply","type":"uint256","internalType":"uint256"},{"name":"scaledTotalSupply","type":"uint256","internalType":"uint256"},{"name":"totalAssets","type":"uint256","internalType":"uint256"},{"name":"lastAccruedProtocolFees","type":"uint256","internalType":"uint256"},{"name":"normalizedUnclaimedWithdrawals","type":"uint256","internalType":"uint256"},{"name":"scaledPendingWithdrawals","type":"uint256","internalType":"uint256"},{"name":"pendingWithdrawalExpiry","type":"uint256","internalType":"uint256"},{"name":"isDelinquent","type":"bool","internalType":"bool"},{"name":"timeDelinquent","type":"uint256","internalType":"uint256"},{"name":"lastInterestAccruedTimestamp","type":"uint256","internalType":"uint256"},{"name":"unpaidWithdrawalBatchExpiries","type":"uint32[]","internalType":"uint32[]"},{"name":"coverageLiquidity","type":"uint256","internalType":"uint256"}]}],"stateMutability":"view"},{"type":"function","name":"getTokenInfo","inputs":[{"name":"token","type":"address","internalType":"address"}],"outputs":[{"name":"info","type":"tuple","internalType":"struct TokenMetadata","components":[{"name":"token","type":"address","internalType":"address"},{"name":"name","type":"string","internalType":"string"},{"name":"symbol","type":"string","internalType":"string"},{"name":"decimals","type":"uint256","internalType":"uint256"},{"name":"isMock","type":"bool","internalType":"bool"}]}],"stateMutability":"view"},{"type":"function","name":"getTokensInfo","inputs":[{"name":"tokens","type":"address[]","internalType":"address[]"}],"outputs":[{"name":"info","type":"tuple[]","internalType":"struct TokenMetadata[]","components":[{"name":"token","type":"address","internalType":"address"},{"name":"name","type":"string","internalType":"string"},{"name":"symbol","type":"string","internalType":"string"},{"name":"decimals","type":"uint256","internalType":"uint256"},{"name":"isMock","type":"bool","internalType":"bool"}]}],"stateMutability":"view"},{"type":"function","name":"getWithdrawalBatchData","inputs":[{"name":"market","type":"address","internalType":"address"},{"name":"expiry","type":"uint32","internalType":"uint32"}],"outputs":[{"name":"data","type":"tuple","internalType":"struct WithdrawalBatchData","components":[{"name":"expiry","type":"uint32","internalType":"uint32"},{"name":"status","type":"uint8","internalType":"enum BatchStatus"},{"name":"scaledTotalAmount","type":"uint256","internalType":"uint256"},{"name":"scaledAmountBurned","type":"uint256","internalType":"uint256"},{"name":"normalizedAmountPaid","type":"uint256","internalType":"uint256"},{"name":"normalizedTotalAmount","type":"uint256","internalType":"uint256"}]}],"stateMutability":"view"},{"type":"function","name":"getWithdrawalBatchDataWithLenderStatus","inputs":[{"name":"market","type":"address","internalType":"address"},{"name":"expiry","type":"uint32","internalType":"uint32"},{"name":"lender","type":"address","internalType":"address"}],"outputs":[{"name":"status","type":"tuple","internalType":"struct WithdrawalBatchDataWithLenderStatus","components":[{"name":"batch","type":"tuple","internalType":"struct WithdrawalBatchData","components":[{"name":"expiry","type":"uint32","internalType":"uint32"},{"name":"status","type":"uint8","internalType":"enum BatchStatus"},{"name":"scaledTotalAmount","type":"uint256","internalType":"uint256"},{"name":"scaledAmountBurned","type":"uint256","internalType":"uint256"},{"name":"normalizedAmountPaid","type":"uint256","internalType":"uint256"},{"name":"normalizedTotalAmount","type":"uint256","internalType":"uint256"}]},{"name":"lenderStatus","type":"tuple","internalType":"struct WithdrawalBatchLenderStatus","components":[{"name":"lender","type":"address","internalType":"address"},{"name":"scaledAmount","type":"uint256","internalType":"uint256"},{"name":"normalizedAmountWithdrawn","type":"uint256","internalType":"uint256"},{"name":"normalizedAmountOwed","type":"uint256","internalType":"uint256"},{"name":"availableWithdrawalAmount","type":"uint256","internalType":"uint256"}]}]}],"stateMutability":"view"},{"type":"function","name":"getWithdrawalBatchDataWithLendersStatus","inputs":[{"name":"market","type":"address","internalType":"address"},{"name":"expiry","type":"uint32","internalType":"uint32"},{"name":"lenders","type":"address[]","internalType":"address[]"}],"outputs":[{"name":"batch","type":"tuple","internalType":"struct WithdrawalBatchData","components":[{"name":"expiry","type":"uint32","internalType":"uint32"},{"name":"status","type":"uint8","internalType":"enum BatchStatus"},{"name":"scaledTotalAmount","type":"uint256","internalType":"uint256"},{"name":"scaledAmountBurned","type":"uint256","internalType":"uint256"},{"name":"normalizedAmountPaid","type":"uint256","internalType":"uint256"},{"name":"normalizedTotalAmount","type":"uint256","internalType":"uint256"}]},{"name":"statuses","type":"tuple[]","internalType":"struct WithdrawalBatchLenderStatus[]","components":[{"name":"lender","type":"address","internalType":"address"},{"name":"scaledAmount","type":"uint256","internalType":"uint256"},{"name":"normalizedAmountWithdrawn","type":"uint256","internalType":"uint256"},{"name":"normalizedAmountOwed","type":"uint256","internalType":"uint256"},{"name":"availableWithdrawalAmount","type":"uint256","internalType":"uint256"}]}],"stateMutability":"view"},{"type":"function","name":"getWithdrawalBatchesData","inputs":[{"name":"market","type":"address","internalType":"address"},{"name":"expiries","type":"uint32[]","internalType":"uint32[]"}],"outputs":[{"name":"data","type":"tuple[]","internalType":"struct WithdrawalBatchData[]","components":[{"name":"expiry","type":"uint32","internalType":"uint32"},{"name":"status","type":"uint8","internalType":"enum BatchStatus"},{"name":"scaledTotalAmount","type":"uint256","internalType":"uint256"},{"name":"scaledAmountBurned","type":"uint256","internalType":"uint256"},{"name":"normalizedAmountPaid","type":"uint256","internalType":"uint256"},{"name":"normalizedTotalAmount","type":"uint256","internalType":"uint256"}]}],"stateMutability":"view"},{"type":"function","name":"getWithdrawalBatchesDataWithLenderStatus","inputs":[{"name":"market","type":"address","internalType":"address"},{"name":"expiries","type":"uint32[]","internalType":"uint32[]"},{"name":"lender","type":"address","internalType":"address"}],"outputs":[{"name":"statuses","type":"tuple[]","internalType":"struct WithdrawalBatchDataWithLenderStatus[]","components":[{"name":"batch","type":"tuple","internalType":"struct WithdrawalBatchData","components":[{"name":"expiry","type":"uint32","internalType":"uint32"},{"name":"status","type":"uint8","internalType":"enum BatchStatus"},{"name":"scaledTotalAmount","type":"uint256","internalType":"uint256"},{"name":"scaledAmountBurned","type":"uint256","internalType":"uint256"},{"name":"normalizedAmountPaid","type":"uint256","internalType":"uint256"},{"name":"normalizedTotalAmount","type":"uint256","internalType":"uint256"}]},{"name":"lenderStatus","type":"tuple","internalType":"struct WithdrawalBatchLenderStatus","components":[{"name":"lender","type":"address","internalType":"address"},{"name":"scaledAmount","type":"uint256","internalType":"uint256"},{"name":"normalizedAmountWithdrawn","type":"uint256","internalType":"uint256"},{"name":"normalizedAmountOwed","type":"uint256","internalType":"uint256"},{"name":"availableWithdrawalAmount","type":"uint256","internalType":"uint256"}]}]}],"stateMutability":"view"},{"type":"function","name":"hooksFactory","inputs":[],"outputs":[{"name":"","type":"address","internalType":"contract HooksFactory"}],"stateMutability":"view"},{"type":"function","name":"queryLenderAccount","inputs":[{"name":"query","type":"tuple","internalType":"struct LenderAccountQuery","components":[{"name":"lender","type":"address","internalType":"address"},{"name":"market","type":"address","internalType":"address"},{"name":"withdrawalBatchExpiries","type":"uint32[]","internalType":"uint32[]"}]}],"outputs":[{"name":"result","type":"tuple","internalType":"struct LenderAccountQueryResult","components":[{"name":"market","type":"tuple","internalType":"struct MarketData","components":[{"name":"marketToken","type":"tuple","internalType":"struct TokenMetadata","components":[{"name":"token","type":"address","internalType":"address"},{"name":"name","type":"string","internalType":"string"},{"name":"symbol","type":"string","internalType":"string"},{"name":"decimals","type":"uint256","internalType":"uint256"},{"name":"isMock","type":"bool","internalType":"bool"}]},{"name":"underlyingToken","type":"tuple","internalType":"struct TokenMetadata","components":[{"name":"token","type":"address","internalType":"address"},{"name":"name","type":"string","internalType":"string"},{"name":"symbol","type":"string","internalType":"string"},{"name":"decimals","type":"uint256","internalType":"uint256"},{"name":"isMock","type":"bool","internalType":"bool"}]},{"name":"hooksFactory","type":"address","internalType":"address"},{"name":"borrower","type":"address","internalType":"address"},{"name":"hooksConfig","type":"tuple","internalType":"struct MarketHooksData","components":[{"name":"hooksAddress","type":"address","internalType":"address"},{"name":"flags","type":"tuple","internalType":"struct HooksConfigData","components":[{"name":"useOnDeposit","type":"bool","internalType":"bool"},{"name":"useOnQueueWithdrawal","type":"bool","internalType":"bool"},{"name":"useOnExecuteWithdrawal","type":"bool","internalType":"bool"},{"name":"useOnTransfer","type":"bool","internalType":"bool"},{"name":"useOnBorrow","type":"bool","internalType":"bool"},{"name":"useOnRepay","type":"bool","internalType":"bool"},{"name":"useOnCloseMarket","type":"bool","internalType":"bool"},{"name":"useOnNukeFromOrbit","type":"bool","internalType":"bool"},{"name":"useOnSetMaxTotalSupply","type":"bool","internalType":"bool"},{"name":"useOnSetAnnualInterestAndReserveRatioBips","type":"bool","internalType":"bool"},{"name":"useOnSetProtocolFeeBips","type":"bool","internalType":"bool"}]},{"name":"kind","type":"uint8","internalType":"enum HooksInstanceKind"},{"name":"transferRequiresAccess","type":"bool","internalType":"bool"},{"name":"depositRequiresAccess","type":"bool","internalType":"bool"},{"name":"minimumDeposit","type":"uint128","internalType":"uint128"},{"name":"transfersDisabled","type":"bool","internalType":"bool"},{"name":"unused_allowForceBuyBacks","type":"bool","internalType":"bool"},{"name":"withdrawalRequiresAccess","type":"bool","internalType":"bool"},{"name":"fixedTermEndTime","type":"uint32","internalType":"uint32"},{"name":"allowClosureBeforeTerm","type":"bool","internalType":"bool"},{"name":"allowTermReduction","type":"bool","internalType":"bool"}]},{"name":"withdrawalBatchDuration","type":"uint256","internalType":"uint256"},{"name":"feeRecipient","type":"address","internalType":"address"},{"name":"delinquencyFeeBips","type":"uint256","internalType":"uint256"},{"name":"delinquencyGracePeriod","type":"uint256","internalType":"uint256"},{"name":"hooks","type":"tuple","internalType":"struct HooksInstanceData","components":[{"name":"hooksAddress","type":"address","internalType":"address"},{"name":"borrower","type":"address","internalType":"address"},{"name":"name","type":"string","internalType":"string"},{"name":"kind","type":"uint8","internalType":"enum HooksInstanceKind"},{"name":"hooksTemplate","type":"tuple","internalType":"struct HooksTemplateData","components":[{"name":"hooksTemplate","type":"address","internalType":"address"},{"name":"fees","type":"tuple","internalType":"struct FeeConfiguration","components":[{"name":"feeRecipient","type":"address","internalType":"address"},{"name":"protocolFeeBips","type":"uint16","internalType":"uint16"},{"name":"originationFeeToken","type":"tuple","internalType":"struct TokenMetadata","components":[{"name":"token","type":"address","internalType":"address"},{"name":"name","type":"string","internalType":"string"},{"name":"symbol","type":"string","internalType":"string"},{"name":"decimals","type":"uint256","internalType":"uint256"},{"name":"isMock","type":"bool","internalType":"bool"}]},{"name":"originationFeeAmount","type":"uint256","internalType":"uint256"},{"name":"borrowerOriginationFeeBalance","type":"uint256","internalType":"uint256"},{"name":"borrowerOriginationFeeApproval","type":"uint256","internalType":"uint256"}]},{"name":"exists","type":"bool","internalType":"bool"},{"name":"enabled","type":"bool","internalType":"bool"},{"name":"index","type":"uint24","internalType":"uint24"},{"name":"name","type":"string","internalType":"string"},{"name":"totalMarkets","type":"uint256","internalType":"uint256"}]},{"name":"constraints","type":"tuple","internalType":"struct MarketParameterConstraints","components":[{"name":"minimumDelinquencyGracePeriod","type":"uint32","internalType":"uint32"},{"name":"maximumDelinquencyGracePeriod","type":"uint32","internalType":"uint32"},{"name":"minimumReserveRatioBips","type":"uint16","internalType":"uint16"},{"name":"maximumReserveRatioBips","type":"uint16","internalType":"uint16"},{"name":"minimumDelinquencyFeeBips","type":"uint16","internalType":"uint16"},{"name":"maximumDelinquencyFeeBips","type":"uint16","internalType":"uint16"},{"name":"minimumWithdrawalBatchDuration","type":"uint32","internalType":"uint32"},{"name":"maximumWithdrawalBatchDuration","type":"uint32","internalType":"uint32"},{"name":"minimumAnnualInterestBips","type":"uint16","internalType":"uint16"},{"name":"maximumAnnualInterestBips","type":"uint16","internalType":"uint16"}]},{"name":"deploymentFlags","type":"tuple","internalType":"struct HooksDeploymentFlags","components":[{"name":"optional","type":"tuple","internalType":"struct HooksConfigData","components":[{"name":"useOnDeposit","type":"bool","internalType":"bool"},{"name":"useOnQueueWithdrawal","type":"bool","internalType":"bool"},{"name":"useOnExecuteWithdrawal","type":"bool","internalType":"bool"},{"name":"useOnTransfer","type":"bool","internalType":"bool"},{"name":"useOnBorrow","type":"bool","internalType":"bool"},{"name":"useOnRepay","type":"bool","internalType":"bool"},{"name":"useOnCloseMarket","type":"bool","internalType":"bool"},{"name":"useOnNukeFromOrbit","type":"bool","internalType":"bool"},{"name":"useOnSetMaxTotalSupply","type":"bool","internalType":"bool"},{"name":"useOnSetAnnualInterestAndReserveRatioBips","type":"bool","internalType":"bool"},{"name":"useOnSetProtocolFeeBips","type":"bool","internalType":"bool"}]},{"name":"required","type":"tuple","internalType":"struct HooksConfigData","components":[{"name":"useOnDeposit","type":"bool","internalType":"bool"},{"name":"useOnQueueWithdrawal","type":"bool","internalType":"bool"},{"name":"useOnExecuteWithdrawal","type":"bool","internalType":"bool"},{"name":"useOnTransfer","type":"bool","internalType":"bool"},{"name":"useOnBorrow","type":"bool","internalType":"bool"},{"name":"useOnRepay","type":"bool","internalType":"bool"},{"name":"useOnCloseMarket","type":"bool","internalType":"bool"},{"name":"useOnNukeFromOrbit","type":"bool","internalType":"bool"},{"name":"useOnSetMaxTotalSupply","type":"bool","internalType":"bool"},{"name":"useOnSetAnnualInterestAndReserveRatioBips","type":"bool","internalType":"bool"},{"name":"useOnSetProtocolFeeBips","type":"bool","internalType":"bool"}]}]},{"name":"pullProviders","type":"tuple[]","internalType":"struct RoleProviderData[]","components":[{"name":"timeToLive","type":"uint32","internalType":"uint32"},{"name":"providerAddress","type":"address","internalType":"address"},{"name":"pullProviderIndex","type":"uint24","internalType":"uint24"},{"name":"pushProviderIndex","type":"uint24","internalType":"uint24"}]},{"name":"pushProviders","type":"tuple[]","internalType":"struct RoleProviderData[]","components":[{"name":"timeToLive","type":"uint32","internalType":"uint32"},{"name":"providerAddress","type":"address","internalType":"address"},{"name":"pullProviderIndex","type":"uint24","internalType":"uint24"},{"name":"pushProviderIndex","type":"uint24","internalType":"uint24"}]},{"name":"totalMarkets","type":"uint256","internalType":"uint256"}]},{"name":"temporaryReserveRatio","type":"bool","internalType":"bool"},{"name":"originalAnnualInterestBips","type":"uint256","internalType":"uint256"},{"name":"originalReserveRatioBips","type":"uint256","internalType":"uint256"},{"name":"temporaryReserveRatioExpiry","type":"uint256","internalType":"uint256"},{"name":"isClosed","type":"bool","internalType":"bool"},{"name":"protocolFeeBips","type":"uint256","internalType":"uint256"},{"name":"reserveRatioBips","type":"uint256","internalType":"uint256"},{"name":"annualInterestBips","type":"uint256","internalType":"uint256"},{"name":"scaleFactor","type":"uint256","internalType":"uint256"},{"name":"totalSupply","type":"uint256","internalType":"uint256"},{"name":"maxTotalSupply","type":"uint256","internalType":"uint256"},{"name":"scaledTotalSupply","type":"uint256","internalType":"uint256"},{"name":"totalAssets","type":"uint256","internalType":"uint256"},{"name":"lastAccruedProtocolFees","type":"uint256","internalType":"uint256"},{"name":"normalizedUnclaimedWithdrawals","type":"uint256","internalType":"uint256"},{"name":"scaledPendingWithdrawals","type":"uint256","internalType":"uint256"},{"name":"pendingWithdrawalExpiry","type":"uint256","internalType":"uint256"},{"name":"isDelinquent","type":"bool","internalType":"bool"},{"name":"timeDelinquent","type":"uint256","internalType":"uint256"},{"name":"lastInterestAccruedTimestamp","type":"uint256","internalType":"uint256"},{"name":"unpaidWithdrawalBatchExpiries","type":"uint32[]","internalType":"uint32[]"},{"name":"coverageLiquidity","type":"uint256","internalType":"uint256"}]},{"name":"lenderStatus","type":"tuple","internalType":"struct LenderAccountData","components":[{"name":"lender","type":"address","internalType":"address"},{"name":"scaledBalance","type":"uint256","internalType":"uint256"},{"name":"normalizedBalance","type":"uint256","internalType":"uint256"},{"name":"underlyingBalance","type":"uint256","internalType":"uint256"},{"name":"underlyingApproval","type":"uint256","internalType":"uint256"},{"name":"isBlockedFromDeposits","type":"bool","internalType":"bool"},{"name":"lastProvider","type":"tuple","internalType":"struct RoleProviderData","components":[{"name":"timeToLive","type":"uint32","internalType":"uint32"},{"name":"providerAddress","type":"address","internalType":"address"},{"name":"pullProviderIndex","type":"uint24","internalType":"uint24"},{"name":"pushProviderIndex","type":"uint24","internalType":"uint24"}]},{"name":"canRefresh","type":"bool","internalType":"bool"},{"name":"lastApprovalTimestamp","type":"uint32","internalType":"uint32"},{"name":"isKnownLender","type":"bool","internalType":"bool"}]},{"name":"withdrawalBatches","type":"tuple[]","internalType":"struct WithdrawalBatchDataWithLenderStatus[]","components":[{"name":"batch","type":"tuple","internalType":"struct WithdrawalBatchData","components":[{"name":"expiry","type":"uint32","internalType":"uint32"},{"name":"status","type":"uint8","internalType":"enum BatchStatus"},{"name":"scaledTotalAmount","type":"uint256","internalType":"uint256"},{"name":"scaledAmountBurned","type":"uint256","internalType":"uint256"},{"name":"normalizedAmountPaid","type":"uint256","internalType":"uint256"},{"name":"normalizedTotalAmount","type":"uint256","internalType":"uint256"}]},{"name":"lenderStatus","type":"tuple","internalType":"struct WithdrawalBatchLenderStatus","components":[{"name":"lender","type":"address","internalType":"address"},{"name":"scaledAmount","type":"uint256","internalType":"uint256"},{"name":"normalizedAmountWithdrawn","type":"uint256","internalType":"uint256"},{"name":"normalizedAmountOwed","type":"uint256","internalType":"uint256"},{"name":"availableWithdrawalAmount","type":"uint256","internalType":"uint256"}]}]}]}],"stateMutability":"view"},{"type":"function","name":"queryLenderAccounts","inputs":[{"name":"queries","type":"tuple[]","internalType":"struct LenderAccountQuery[]","components":[{"name":"lender","type":"address","internalType":"address"},{"name":"market","type":"address","internalType":"address"},{"name":"withdrawalBatchExpiries","type":"uint32[]","internalType":"uint32[]"}]}],"outputs":[{"name":"result","type":"tuple[]","internalType":"struct LenderAccountQueryResult[]","components":[{"name":"market","type":"tuple","internalType":"struct MarketData","components":[{"name":"marketToken","type":"tuple","internalType":"struct TokenMetadata","components":[{"name":"token","type":"address","internalType":"address"},{"name":"name","type":"string","internalType":"string"},{"name":"symbol","type":"string","internalType":"string"},{"name":"decimals","type":"uint256","internalType":"uint256"},{"name":"isMock","type":"bool","internalType":"bool"}]},{"name":"underlyingToken","type":"tuple","internalType":"struct TokenMetadata","components":[{"name":"token","type":"address","internalType":"address"},{"name":"name","type":"string","internalType":"string"},{"name":"symbol","type":"string","internalType":"string"},{"name":"decimals","type":"uint256","internalType":"uint256"},{"name":"isMock","type":"bool","internalType":"bool"}]},{"name":"hooksFactory","type":"address","internalType":"address"},{"name":"borrower","type":"address","internalType":"address"},{"name":"hooksConfig","type":"tuple","internalType":"struct MarketHooksData","components":[{"name":"hooksAddress","type":"address","internalType":"address"},{"name":"flags","type":"tuple","internalType":"struct HooksConfigData","components":[{"name":"useOnDeposit","type":"bool","internalType":"bool"},{"name":"useOnQueueWithdrawal","type":"bool","internalType":"bool"},{"name":"useOnExecuteWithdrawal","type":"bool","internalType":"bool"},{"name":"useOnTransfer","type":"bool","internalType":"bool"},{"name":"useOnBorrow","type":"bool","internalType":"bool"},{"name":"useOnRepay","type":"bool","internalType":"bool"},{"name":"useOnCloseMarket","type":"bool","internalType":"bool"},{"name":"useOnNukeFromOrbit","type":"bool","internalType":"bool"},{"name":"useOnSetMaxTotalSupply","type":"bool","internalType":"bool"},{"name":"useOnSetAnnualInterestAndReserveRatioBips","type":"bool","internalType":"bool"},{"name":"useOnSetProtocolFeeBips","type":"bool","internalType":"bool"}]},{"name":"kind","type":"uint8","internalType":"enum HooksInstanceKind"},{"name":"transferRequiresAccess","type":"bool","internalType":"bool"},{"name":"depositRequiresAccess","type":"bool","internalType":"bool"},{"name":"minimumDeposit","type":"uint128","internalType":"uint128"},{"name":"transfersDisabled","type":"bool","internalType":"bool"},{"name":"unused_allowForceBuyBacks","type":"bool","internalType":"bool"},{"name":"withdrawalRequiresAccess","type":"bool","internalType":"bool"},{"name":"fixedTermEndTime","type":"uint32","internalType":"uint32"},{"name":"allowClosureBeforeTerm","type":"bool","internalType":"bool"},{"name":"allowTermReduction","type":"bool","internalType":"bool"}]},{"name":"withdrawalBatchDuration","type":"uint256","internalType":"uint256"},{"name":"feeRecipient","type":"address","internalType":"address"},{"name":"delinquencyFeeBips","type":"uint256","internalType":"uint256"},{"name":"delinquencyGracePeriod","type":"uint256","internalType":"uint256"},{"name":"hooks","type":"tuple","internalType":"struct HooksInstanceData","components":[{"name":"hooksAddress","type":"address","internalType":"address"},{"name":"borrower","type":"address","internalType":"address"},{"name":"name","type":"string","internalType":"string"},{"name":"kind","type":"uint8","internalType":"enum HooksInstanceKind"},{"name":"hooksTemplate","type":"tuple","internalType":"struct HooksTemplateData","components":[{"name":"hooksTemplate","type":"address","internalType":"address"},{"name":"fees","type":"tuple","internalType":"struct FeeConfiguration","components":[{"name":"feeRecipient","type":"address","internalType":"address"},{"name":"protocolFeeBips","type":"uint16","internalType":"uint16"},{"name":"originationFeeToken","type":"tuple","internalType":"struct TokenMetadata","components":[{"name":"token","type":"address","internalType":"address"},{"name":"name","type":"string","internalType":"string"},{"name":"symbol","type":"string","internalType":"string"},{"name":"decimals","type":"uint256","internalType":"uint256"},{"name":"isMock","type":"bool","internalType":"bool"}]},{"name":"originationFeeAmount","type":"uint256","internalType":"uint256"},{"name":"borrowerOriginationFeeBalance","type":"uint256","internalType":"uint256"},{"name":"borrowerOriginationFeeApproval","type":"uint256","internalType":"uint256"}]},{"name":"exists","type":"bool","internalType":"bool"},{"name":"enabled","type":"bool","internalType":"bool"},{"name":"index","type":"uint24","internalType":"uint24"},{"name":"name","type":"string","internalType":"string"},{"name":"totalMarkets","type":"uint256","internalType":"uint256"}]},{"name":"constraints","type":"tuple","internalType":"struct MarketParameterConstraints","components":[{"name":"minimumDelinquencyGracePeriod","type":"uint32","internalType":"uint32"},{"name":"maximumDelinquencyGracePeriod","type":"uint32","internalType":"uint32"},{"name":"minimumReserveRatioBips","type":"uint16","internalType":"uint16"},{"name":"maximumReserveRatioBips","type":"uint16","internalType":"uint16"},{"name":"minimumDelinquencyFeeBips","type":"uint16","internalType":"uint16"},{"name":"maximumDelinquencyFeeBips","type":"uint16","internalType":"uint16"},{"name":"minimumWithdrawalBatchDuration","type":"uint32","internalType":"uint32"},{"name":"maximumWithdrawalBatchDuration","type":"uint32","internalType":"uint32"},{"name":"minimumAnnualInterestBips","type":"uint16","internalType":"uint16"},{"name":"maximumAnnualInterestBips","type":"uint16","internalType":"uint16"}]},{"name":"deploymentFlags","type":"tuple","internalType":"struct HooksDeploymentFlags","components":[{"name":"optional","type":"tuple","internalType":"struct HooksConfigData","components":[{"name":"useOnDeposit","type":"bool","internalType":"bool"},{"name":"useOnQueueWithdrawal","type":"bool","internalType":"bool"},{"name":"useOnExecuteWithdrawal","type":"bool","internalType":"bool"},{"name":"useOnTransfer","type":"bool","internalType":"bool"},{"name":"useOnBorrow","type":"bool","internalType":"bool"},{"name":"useOnRepay","type":"bool","internalType":"bool"},{"name":"useOnCloseMarket","type":"bool","internalType":"bool"},{"name":"useOnNukeFromOrbit","type":"bool","internalType":"bool"},{"name":"useOnSetMaxTotalSupply","type":"bool","internalType":"bool"},{"name":"useOnSetAnnualInterestAndReserveRatioBips","type":"bool","internalType":"bool"},{"name":"useOnSetProtocolFeeBips","type":"bool","internalType":"bool"}]},{"name":"required","type":"tuple","internalType":"struct HooksConfigData","components":[{"name":"useOnDeposit","type":"bool","internalType":"bool"},{"name":"useOnQueueWithdrawal","type":"bool","internalType":"bool"},{"name":"useOnExecuteWithdrawal","type":"bool","internalType":"bool"},{"name":"useOnTransfer","type":"bool","internalType":"bool"},{"name":"useOnBorrow","type":"bool","internalType":"bool"},{"name":"useOnRepay","type":"bool","internalType":"bool"},{"name":"useOnCloseMarket","type":"bool","internalType":"bool"},{"name":"useOnNukeFromOrbit","type":"bool","internalType":"bool"},{"name":"useOnSetMaxTotalSupply","type":"bool","internalType":"bool"},{"name":"useOnSetAnnualInterestAndReserveRatioBips","type":"bool","internalType":"bool"},{"name":"useOnSetProtocolFeeBips","type":"bool","internalType":"bool"}]}]},{"name":"pullProviders","type":"tuple[]","internalType":"struct RoleProviderData[]","components":[{"name":"timeToLive","type":"uint32","internalType":"uint32"},{"name":"providerAddress","type":"address","internalType":"address"},{"name":"pullProviderIndex","type":"uint24","internalType":"uint24"},{"name":"pushProviderIndex","type":"uint24","internalType":"uint24"}]},{"name":"pushProviders","type":"tuple[]","internalType":"struct RoleProviderData[]","components":[{"name":"timeToLive","type":"uint32","internalType":"uint32"},{"name":"providerAddress","type":"address","internalType":"address"},{"name":"pullProviderIndex","type":"uint24","internalType":"uint24"},{"name":"pushProviderIndex","type":"uint24","internalType":"uint24"}]},{"name":"totalMarkets","type":"uint256","internalType":"uint256"}]},{"name":"temporaryReserveRatio","type":"bool","internalType":"bool"},{"name":"originalAnnualInterestBips","type":"uint256","internalType":"uint256"},{"name":"originalReserveRatioBips","type":"uint256","internalType":"uint256"},{"name":"temporaryReserveRatioExpiry","type":"uint256","internalType":"uint256"},{"name":"isClosed","type":"bool","internalType":"bool"},{"name":"protocolFeeBips","type":"uint256","internalType":"uint256"},{"name":"reserveRatioBips","type":"uint256","internalType":"uint256"},{"name":"annualInterestBips","type":"uint256","internalType":"uint256"},{"name":"scaleFactor","type":"uint256","internalType":"uint256"},{"name":"totalSupply","type":"uint256","internalType":"uint256"},{"name":"maxTotalSupply","type":"uint256","internalType":"uint256"},{"name":"scaledTotalSupply","type":"uint256","internalType":"uint256"},{"name":"totalAssets","type":"uint256","internalType":"uint256"},{"name":"lastAccruedProtocolFees","type":"uint256","internalType":"uint256"},{"name":"normalizedUnclaimedWithdrawals","type":"uint256","internalType":"uint256"},{"name":"scaledPendingWithdrawals","type":"uint256","internalType":"uint256"},{"name":"pendingWithdrawalExpiry","type":"uint256","internalType":"uint256"},{"name":"isDelinquent","type":"bool","internalType":"bool"},{"name":"timeDelinquent","type":"uint256","internalType":"uint256"},{"name":"lastInterestAccruedTimestamp","type":"uint256","internalType":"uint256"},{"name":"unpaidWithdrawalBatchExpiries","type":"uint32[]","internalType":"uint32[]"},{"name":"coverageLiquidity","type":"uint256","internalType":"uint256"}]},{"name":"lenderStatus","type":"tuple","internalType":"struct LenderAccountData","components":[{"name":"lender","type":"address","internalType":"address"},{"name":"scaledBalance","type":"uint256","internalType":"uint256"},{"name":"normalizedBalance","type":"uint256","internalType":"uint256"},{"name":"underlyingBalance","type":"uint256","internalType":"uint256"},{"name":"underlyingApproval","type":"uint256","internalType":"uint256"},{"name":"isBlockedFromDeposits","type":"bool","internalType":"bool"},{"name":"lastProvider","type":"tuple","internalType":"struct RoleProviderData","components":[{"name":"timeToLive","type":"uint32","internalType":"uint32"},{"name":"providerAddress","type":"address","internalType":"address"},{"name":"pullProviderIndex","type":"uint24","internalType":"uint24"},{"name":"pushProviderIndex","type":"uint24","internalType":"uint24"}]},{"name":"canRefresh","type":"bool","internalType":"bool"},{"name":"lastApprovalTimestamp","type":"uint32","internalType":"uint32"},{"name":"isKnownLender","type":"bool","internalType":"bool"}]},{"name":"withdrawalBatches","type":"tuple[]","internalType":"struct WithdrawalBatchDataWithLenderStatus[]","components":[{"name":"batch","type":"tuple","internalType":"struct WithdrawalBatchData","components":[{"name":"expiry","type":"uint32","internalType":"uint32"},{"name":"status","type":"uint8","internalType":"enum BatchStatus"},{"name":"scaledTotalAmount","type":"uint256","internalType":"uint256"},{"name":"scaledAmountBurned","type":"uint256","internalType":"uint256"},{"name":"normalizedAmountPaid","type":"uint256","internalType":"uint256"},{"name":"normalizedTotalAmount","type":"uint256","internalType":"uint256"}]},{"name":"lenderStatus","type":"tuple","internalType":"struct WithdrawalBatchLenderStatus","components":[{"name":"lender","type":"address","internalType":"address"},{"name":"scaledAmount","type":"uint256","internalType":"uint256"},{"name":"normalizedAmountWithdrawn","type":"uint256","internalType":"uint256"},{"name":"normalizedAmountOwed","type":"uint256","internalType":"uint256"},{"name":"availableWithdrawalAmount","type":"uint256","internalType":"uint256"}]}]}]}],"stateMutability":"view"},{"type":"error","name":"NotV2Market","inputs":[]}],"bytecode":{"object":"0x60c03460bd57601f614f7138819003918201601f19168301916001600160401b0383118484101760c157808492604094855283398101031260bd57604b602060458360d5565b920160d5565b6001600160a01b039182166080521660a052604051614e8890816100e9823960805181818161137d0152611646015260a05181818161082b015281816112fa01528181611455015281816115f80152818161190f01528181611c2f01528181611ccc01528181611d8301526120cd0152f35b5f80fd5b634e487b7160e01b5f52604160045260245ffd5b51906001600160a01b038216820360bd5756fe60806040526004361015610011575f80fd5b5f3560e01c8063098aaea8146101b45780630c52af99146101af5780631f69565f146101aa5780632385571b146101a5578063274631a3146101a05780633be9be7a1461019b5780633d8d2dcd1461019657806346a0fe47146101915780634b5a900d1461018c578063546355701461018757806362ef811914610182578063655314381461017d578063733efd1e1461017857806387fed6d2146101735780638febd74f1461016e5780639016be4f146101695780639f293fb114610164578063a30c302d1461015f578063b31d10151461015a578063bc6ba6f614610155578063c4482d3614610150578063d1a0745c1461014b578063dd92b92b14610146578063ddee086514610141578063e85dfdf01461013c5763ffc7005e14610137575f80fd5b611f39565b611e8c565b611de7565b611d3f565b611c87565b611bdb565b611b72565b611aa9565b6119d0565b6119ab565b6118ee565b61189b565b611860565b6117d8565b6115a9565b611419565b611368565b6112c9565b611227565b6110e9565b61102d565b6108a2565b610816565b6107d0565b610727565b610585565b6001600160a01b038116036101ca57565b5f80fd5b634e487b7160e01b5f52604160045260245ffd5b606081019081106001600160401b038211176101fd57604052565b6101ce565b608081019081106001600160401b038211176101fd57604052565b60a081019081106001600160401b038211176101fd57604052565b60c081019081106001600160401b038211176101fd57604052565b604081019081106001600160401b038211176101fd57604052565b61014081019081106001600160401b038211176101fd57604052565b90601f801991011681019081106001600160401b038211176101fd57604052565b6040519061040082018281106001600160401b038211176101fd57604052565b6040519061010082018281106001600160401b038211176101fd57604052565b604051906101c082018281106001600160401b038211176101fd57604052565b604051906103188261026e565b565b6040519061012082018281106001600160401b038211176101fd57604052565b6001600160401b0381116101fd5760051b60200190565b9080601f830112156101ca57602090823561036b8161033a565b93610379604051958661028a565b81855260208086019260051b8201019283116101ca57602001905b8282106103a2575050505090565b83809183356103b0816101b9565b815201910190610394565b9060406003198301126101ca576004356103d4816101b9565b91602435906001600160401b0382116101ca576103f391600401610351565b90565b805180835260209291819084018484015e5f828201840152601f01601f1916010190565b9060018060a01b038251168152608080610458610446602086015160a0602087015260a08601906103f6565b604086015185820360408701526103f6565b93606081015160608501520151151591015290565b9060c08061051960018060a01b0380865116855260208601519060e0602087015281511660e086015261ffff60208201511661010086015260a06104c16040830151856101208901526101a088019061041a565b6060830151610140880152608083015161016088015291015161018086015260408681015115159086015260608681015115159086015260808681015162ffffff169086015260a086015185820360a08701526103f6565b93015191015290565b6020808201906020835283518092526040830192602060408460051b8301019501935f915b8483106105575750505050505090565b9091929394958480610575600193603f198682030187528a5161046d565b9801930193019194939290610547565b346101ca576105ab61059f610599366103bb565b906120bd565b60405191829182610522565b0390f35b63ffffffff8116036101ca57565b9080601f830112156101ca5760209082356105d78161033a565b936105e5604051958661028a565b81855260208086019260051b8201019283116101ca57602001905b82821061060e575050505090565b838091833561061c816105af565b815201910190610600565b634e487b7160e01b5f52602160045260245ffd5b63ffffffff8151168252602081015160048110156106825760a091829160208501526040810151604085015260608101516060850152608081015160808501520151910152565b610627565b9060c060206103189361069b84825161063b565b01519101906080809160018060a01b0381511684526020810151602085015260408101516040850152606081015160608501520151910152565b9081518082526020808093019301915f5b8281106106f4575050505090565b90919293826101608261070a6001948951610687565b019501939291016106e6565b9060206103f39281815201906106d5565b346101ca5760603660031901126101ca57600435610744816101b9565b6024356001600160401b0381116101ca576107639036906004016105bd565b90604435610770816101b9565b61077a83516121aa565b926001600160a01b03909216915f5b81518110156107c257806107bc846107a3600194896120a4565b518763ffffffff6107b486896120a4565b511691612b14565b01610789565b604051806105ab8782610716565b346101ca5760203660031901126101ca576105ab6004356107f0816101b9565b6108026107fb611f9b565b9182612b70565b60405191829160208352602083019061041a565b346101ca575f3660031901126101ca576040517f00000000000000000000000000000000000000000000000000000000000000006001600160a01b03168152602090f35b60209060206040818301928281528551809452019301915f5b828110610881575050505090565b909192938260c082610896600194895161063b565b01950193929101610873565b346101ca5760403660031901126101ca576004356108bf816101b9565b6024356001600160401b0381116101ca576108de9036906004016105bd565b908151916108eb8361033a565b926108f9604051948561028a565b808452610908601f199161033a565b015f5b81811061096e5750506001600160a01b03909116905f5b8151811015610960578061095a61093b600193876120a4565b518561095461094a85886120a4565b5163ffffffff1690565b91612e74565b01610922565b604051806105ab868261085a565b60209061097961212e565b8282880101520161090b565b91906060838203126101ca576040519061099e826101e2565b819380356109ab816101b9565b835260208101356109bb816101b9565b60208401526040810135916001600160401b0383116101ca576040926109e192016105bd565b910152565b80511515825260208082015115159083015260408082015115159083015260608082015115159083015260808082015115159083015260a08082015115159083015260c08082015115159083015260e0808201511515908301526101008082015115159083015261012080820151151590830152610140908101511515910152565b6003111561068257565b9060038210156106825752565b80516001600160a01b0316825261031891906102a09061016090610aab602082015160208601906109e6565b610abe6040820151610180860190610a72565b606081015115156101a0850152608081015115156101c085015260a08101516001600160801b03166101e085015260c0810151151561020085015260e08101511515610220850152610100810151151561024085015261012081015163ffffffff1661026085015261014081015115156102808501525b01511515910152565b805163ffffffff168252610318919060208181015163ffffffff169083015260408181015161ffff169083015260608181015161ffff169083015260808181015161ffff169083015260a08181015161ffff169083015260c08181015163ffffffff169083015260e08181015163ffffffff16908301526101008181015161ffff16908301526101209081015161ffff16910152565b90610160602061031893610be98482516109e6565b01519101906109e6565b9081518082526020808093019301915f5b828110610c12575050505090565b9091929382608082610c5c600194895160609063ffffffff815116835260018060a01b0360208201511660208401528160408201519162ffffff8093166040860152015116910152565b01950193929101610c04565b80516001600160a01b03168252906104e0610120610519610d0e610cd6610cb26105006020898101516001600160a01b0316908901526040890151908060408a01528801906103f6565b610cc460608901516060890190610a72565b6080880151878203608089015261046d565b610ce860a088015160a0880190610b3e565b610cfb60c08801516101e0880190610bd4565b60e08701518682036104a0880152610bf3565b6101008601518582036104c0870152610bf3565b9081518082526020808093019301915f5b828110610d41575050505090565b835163ffffffff1685529381019392810192600101610d33565b90610680610d88610d766106a085519080865285019061041a565b6020850151848203602086015261041a565b6040848101516001600160a01b0316908401526060848101516001600160a01b031690840152610dc060808501516080850190610a7f565b61051960a085015191610340928386015260c086015190610dee610360928388019060018060a01b03169052565b60e08701516103809081880152610100880151906103a09182890152610f0c610e276101208b0151946103c0958b8203878d0152610c68565b946101408b015197610e406103e0998a8d019015159052565b6101608c01516104008c01526101808c01516104208c01526101a08c01516104408c01526101c08c015115156104608c01526101e08c01516104808c01526102008c01516104a08c01526102208c01516104c08c01526102408c01516104e08c01526102608c01516105008c01526102808c01516105208c01526102a08c01516105408c01526102c08c01516105608c01526102e08c01516105808c01526103008c01516105a08c01526103208c01516105c08c01528b01516105e08b01528a015115156106008a0152565b880151610620880152870151610640870152860151858203610660870152610d22565b80516001600160a01b031682526103189190610180906101209060208101516020850152604081015160408501526060810151606085015260808101516080850152610f8460a082015160a086019015159052565b60c081810151805163ffffffff169186019190915260208101516001600160a01b031660e0860152604081015162ffffff9081166101008701526060909101511661012085015260e0810151151561014085015261010081015163ffffffff16610160850152610b35565b6103f39160406110096101e0845190808552840190610d5b565b9261101c60208201516020850190610f2f565b0151906101c08184039101526106d5565b346101ca5760203660031901126101ca576004356001600160401b0381116101ca576110606105ab913690600401610985565b61107261106b6124fd565b91826130a3565b604051918291602083526020830190610fef565b6020808201906020835283518092526040830192602060408460051b8301019501935f915b8483106110bb5750505050505090565b90919293949584806110d9600193603f198682030187528a51610fef565b98019301930191949392906110ab565b346101ca576020806003193601126101ca576001600160401b03906004358281116101ca57366023820112156101ca57602460048201356111298161033a565b94611137604051968761028a565b8186526024602087019260051b850101933685116101ca5760248101925b858410611174576105ab6111688961252a565b60405191829182611086565b83358381116101ca57879161118f8392883691870101610985565b815201930192611155565b60206003198201126101ca57600435906001600160401b0382116101ca576103f391600401610351565b6020808201906020835283518092526040830192602060408460051b8301019501935f915b8483106111f95750505050505090565b9091929394958480611217600193603f198682030187528a5161041a565b98019301930191949392906111e9565b346101ca576112353661119a565b8051906112418261033a565b9161124f604051938461028a565b80835261125e601f199161033a565b015f5b8181106112b25750505f5b81518110156112a4578061129e611285600193866120a4565b51838060a01b0361129684876120a4565b511690612b70565b0161126c565b604051806105ab85826111c4565b6020906112bd611f9b565b82828701015201611261565b346101ca5760203660031901126101ca576004356112e6816101b9565b60405163037287cb60e51b81525f816004817f00000000000000000000000000000000000000000000000000000000000000006001600160a01b03165afa8015611363576105ab9261059f925f9261133f575b506120bd565b61135c9192503d805f833e611354818361028a565b8101906125bb565b905f611339565b61263e565b346101ca575f3660031901126101ca576040517f00000000000000000000000000000000000000000000000000000000000000006001600160a01b03168152602090f35b90808251908181526020809101926020808460051b8301019501935f915b8483106113da5750505050505090565b90919293949584806113f8600193601f198682030187528a51610c68565b98019301930191949392906113ca565b9060206103f39281815201906113ac565b346101ca5760203660031901126101ca57600435611436816101b9565b6040516362ef811960e01b81526001600160a01b0391821660048201527f0000000000000000000000000000000000000000000000000000000000000000915f908290602490829086165afa908115611363575f916114ee575b5061149c606051612649565b915f5b82518110156114e057806114da836114b9600194886120a4565b516114d46114c785896120a4565b516001600160a01b031690565b90613279565b0161149f565b604051806105ab8682611408565b61150291503d805f833e611354818361028a565b5f611490565b91909160209081815260a081019160018060a01b0385511681830152808501511515604083015260408501519260806060840152835180915260c08301918060c08360051b8601019501925f905b83821061157d57505050505060606103f393940151906080601f19828503019101526113ac565b9091929395838061159a60019360bf198a82030186528a5161046d565b98019201920190939291611556565b346101ca5760203660031901126101ca576004356115c6816101b9565b60409081516115d481610202565b5f6020820190815260608483018181528184019182526001600160a01b03851684527f0000000000000000000000000000000000000000000000000000000000000000959094919281516303c3e0ff60e11b81526001600160a01b0384811660048301529160208280602481010381867f0000000000000000000000000000000000000000000000000000000000000000165afa90811561136357611682925f926117a7575b509015159052565b81516362ef811960e01b81526001600160a01b03841660048201529087169590945f866024818a5afa958615611363575f9661178b575b506116c48651612649565b85525f5b86518110156116f757806116f18a6116e36001948a516120a4565b516114d46114c7858d6120a4565b016116c8565b50825163037287cb60e51b81529188915f846004818c5afa938415611363575f9461176f575b506117288451612041565b82525f5b8451811015611762578061175c8861174760019487516120a4565b51876117566114c7868c6120a4565b916129ce565b0161172c565b8551806105ab8482611508565b6117849194503d805f833e611354818361028a565b928661171d565b6117a09196503d805f833e611354818361028a565b945f6116b9565b6117ca91925060203d6020116117d1575b6117c2818361028a565b8101906135f9565b905f61167a565b503d6117b8565b346101ca5760603660031901126101ca576101606004356117f8816101b9565b61182c602435611807816105af565b60443590611814826101b9565b61181c612188565b936001600160a01b031684612b14565b6118396040518092610687565bf35b60409060031901126101ca57600435611853816101b9565b906024356103f3816101b9565b346101ca576101a061188e6118743661183b565b919061187e6124ac565b926001600160a01b03168361360d565b6118396040518092610f2f565b346101ca5760403660031901126101ca5760c06004356118ba816101b9565b6118e16024356118c9816105af565b6118d161212e565b926001600160a01b031683612e74565b611839604051809261063b565b346101ca576105ab6119346119023661183b565b919061190c611fc7565b927f0000000000000000000000000000000000000000000000000000000000000000846129ce565b60405191829160208352602083019061046d565b6020808201906020835283518092526040830192602060408460051b8301019501935f915b84831061197d5750505050505090565b909192939495848061199b600193603f198682030187528a51610d5b565b980193019301919493929061196d565b346101ca576105ab6119c46119bf3661119a565b612698565b60405191829182611948565b346101ca5760203660031901126101ca576105ab6004356119f0816101b9565b611a0b6119fb61238b565b916001600160a01b03168261373f565b604051918291602083526020830190610d5b565b61010090929192611a348160e081019561063b565b60e060c0820152825180945201916020809201915f5b828110611a58575050505090565b909192938260a082611a9d60019489516080809160018060a01b0381511684526020810151602085015260408101516040850152606081015160608501520151910152565b01950193929101611a4a565b346101ca5760603660031901126101ca57600435611ac6816101b9565b602435611ad2816105af565b604435916001600160401b03918284116101ca57366023850112156101ca5783600401359283116101ca573660248460051b860101116101ca576024611b19940191612748565b906105ab60405192839283611a1f565b60209060206040818301928281528551809452019301915f5b828110611b50575050505090565b90919293826101a082611b666001948951610f2f565b01950193929101611b42565b346101ca57611b80366103bb565b90611b8b82516127f4565b916001600160a01b039182165f5b8251811015611bcd5780611bc7611bb2600193886120a4565b518487611bbf85896120a4565b51169161360d565b01611b99565b604051806105ab8782611b29565b346101ca5760603660031901126101ca5760645f600435611bfb816101b9565b6040516375737fb360e11b81526001600160a01b0391821660048201526024803590820152604480359082015292839182907f0000000000000000000000000000000000000000000000000000000000000000165afa908115611363576105ab916119c4915f91611c6d575b50612698565b611c8191503d805f833e611354818361028a565b5f611c67565b346101ca5760203660031901126101ca5760246020600435611ca8816101b9565b6040516334681d1760e21b81526001600160a01b03918216600482015292839182907f0000000000000000000000000000000000000000000000000000000000000000165afa8015611363576105ab915f91611d10575b506040519081529081906020820190565b611d32915060203d602011611d38575b611d2a818361028a565b810190612843565b5f611cff565b503d611d20565b346101ca5760203660031901126101ca5760245f600435611d5f816101b9565b604051631caab59d60e01b81526001600160a01b03918216600482015292839182907f0000000000000000000000000000000000000000000000000000000000000000165afa908115611363576105ab916119c4915f91611c6d5750612698565b906103f390602080611ddc6101c0865190808652850190610d5b565b940151910190610f2f565b346101ca576105ab611e15611dfb3661183b565b9190611e05612852565b926001600160a01b0316836139b3565b604051918291602083526020830190611dc0565b6020808201906020835283518092526040830192602060408460051b8301019501935f915b848310611e5e5750505050505090565b9091929394958480611e7c600193603f198682030187528a51611dc0565b9801930193019194939290611e4e565b346101ca57611e9a366103bb565b805191611ea68361033a565b92611eb4604051948561028a565b808452611ec3601f199161033a565b015f5b818110611f225750505f5b8251811015611f145780611f0e83611eeb600194886120a4565b51611f08611efc6114c7868a6120a4565b6001600160a01b031690565b906139b3565b01611ed1565b604051806105ab8682611e29565b602090611f2d612852565b82828801015201611ec6565b346101ca57611f47366103bb565b611f5181516127f4565b915f5b8251811015611f8d5780611f8783611f6e600194886120a4565b51848060a01b03611f7f85896120a4565b51169061360d565b01611f54565b604051806105ab8682611b29565b60405190611fa88261021d565b5f60808382815260606020820152606060408201528260608201520152565b6040519060e082018281106001600160401b038211176101fd576040525f60c083828152604051611ff781610238565b838152836020820152612008611f9b565b60408201528360608201528360808201528360a08201526020820152826040820152826060820152826080820152606060a08201520152565b9061204b8261033a565b612058604051918261028a565b8281528092612069601f199161033a565b01905f5b82811061207957505050565b602090612084611fc7565b8282850101520161206d565b634e487b7160e01b5f52603260045260245ffd5b80518210156120b85760209160051b010190565b612090565b9190916120ca8351612041565b927f00000000000000000000000000000000000000000000000000000000000000005f5b82518110156121285780612122856121086001948a6120a4565b5185858060a01b0361211a868a6120a4565b5116916129ce565b016120ee565b50505050565b6040519061213b82610238565b5f60a0838281528260208201528260408201528260608201528260808201520152565b6040519061216b8261021d565b5f6080838281528260208201528260408201528260608201520152565b6040519061219582610253565b8161219e61212e565b815260206109e161215e565b906121b48261033a565b6121c1604051918261028a565b82815280926121d2601f199161033a565b01905f5b8281106121e257505050565b6020906121ed612188565b828285010152016121d6565b6040519061016082018281106001600160401b038211176101fd576040525f610140838281528260208201528260408201528260608201528260808201528260a08201528260c08201528260e082015282610100820152826101208201520152565b6040519061018082018281106001600160401b038211176101fd576040525f610160838281526122896121f9565b60208201528260408201528260608201528260808201528260a08201528260c08201528260e08201528261010082015282610120820152826101408201520152565b604051906122d882610253565b816122e16121f9565b815260206109e16121f9565b604051906122fa8261026e565b5f828181528160208201526060604082015281606082015261231a611fc7565b60808201526040519061232c8261026e565b8282528260208301528260408301528260608301528260808301528260a08301528260c08301528260e08301526060610100848185015261012093858582015260a08401526123796122cb565b60c08401528160e08401528201520152565b6123936102ab565b9061239c611f9b565b82526123a6611f9b565b60208301525f60408301525f60608301526123bf61225b565b60808301525f60a08301525f60c08301525f60e08301525f6101008301526123e56122ed565b6101208301525f6101408301525f6101608301525f6101808301525f6101a08301525f6101c08301525f6101e08301525f6102008301525f6102208301525f6102408301525f6102608301525f6102808301525f6102a08301525f6102c08301525f6102e08301525f6103008301525f6103208301525f6103408301525f6103608301525f6103808301525f6103a083015260606103c08301525f6103e0830152565b6040519061249582610202565b5f6060838281528260208201528260408201520152565b604051906124b98261026e565b5f610120838281528260208201528260408201528260608201528260808201528260a08201526124e7612488565b60c08201528260e0820152826101008201520152565b6040519061250a826101e2565b606060408361251761238b565b81526125216124ac565b60208201520152565b9081516125368161033a565b90612544604051928361028a565b808252612553601f199161033a565b015f5b818110612599575050805f5b8451811015612593578061258d61257b600193866120a4565b5161258683896120a4565b51906130a3565b01612562565b50925050565b6020906125a46124fd565b82828601015201612556565b5190610318826101b9565b60209081818403126101ca578051906001600160401b0382116101ca57019180601f840112156101ca5782516125f08161033a565b936125fe604051958661028a565b818552838086019260051b8201019283116101ca578301905b828210612625575050505090565b8380918351612633816101b9565b815201910190612617565b6040513d5f823e3d90fd5b906126538261033a565b612660604051918261028a565b8281528092612671601f199161033a565b01905f5b82811061268157505050565b60209061268c6122ed565b82828501015201612675565b9081516126a48161033a565b906126b2604051928361028a565b8082526126c1601f199161033a565b015f5b818110612717575050805f5b845181101561259357806127116126e9600193866120a4565b5161270b848060a01b036126fd858b6120a4565b51166001600160a01b031690565b9061373f565b016126d0565b60209061272261238b565b828286010152016126c4565b91908110156120b85760051b0190565b356103f3816101b9565b939161276761275561212e565b956001600160a01b0316928387612e74565b6127708461033a565b9161277e604051938461028a565b848352601f1961278d8661033a565b015f5b8181106127dd57505082945f5b8181106127ab575050505050565b806127d76127bb600193886120a4565b518a866127d16127cc86898c61272e565b61273e565b926138b2565b0161279d565b6020906127e861215e565b82828801015201612790565b906127fe8261033a565b61280b604051918261028a565b828152809261281c601f199161033a565b01905f5b82811061282c57505050565b6020906128376124ac565b82828501015201612820565b908160209103126101ca575190565b6040519061285f82610253565b8161286861238b565b815260206109e16124ac565b519069ffffffffffffffffffff821682036101ca57565b519061ffff821682036101ca57565b519081151582036101ca57565b519062ffffff821682036101ca57565b81601f820112156101ca578051906001600160401b0382116101fd57604051926128eb601f8401601f19166020018561028a565b828452602083830101116101ca57815f9260208093018386015e8301015290565b906020828203126101ca5781516001600160401b03928382116101ca570190610100828203126101ca5761293e6102cb565b92612948836125b0565b845261295660208401612874565b60208501526129676040840161288b565b60408501526129786060840161289a565b60608501526129896080840161289a565b608085015261299a60a084016128a7565b60a08501526129ab60c084016125b0565b60c085015260e08301519081116101ca576129c692016128b7565b60e082015290565b604051631409696f60e11b81526001600160a01b038481166004830152919493909183165f83602481845afa928315611363575f93612ae7575b506001600160a01b0382168652612aa491602091612a35612a2c6060870151151590565b151560408a0152565b612a4e612a456080870151151590565b151560608a0152565b612a6d612a6160a087015162ffffff1690565b62ffffff1660808a0152565b60e085015160a08901526040516334681d1760e21b81526001600160a01b0390921660048301529092839190829081906024820190565b03915afa94851561136357610318956020925f91612aca575b5060c082015201516139cf565b612ae19150833d8511611d3857611d2a818361028a565b5f612abd565b602091935091612b0b612aa4933d805f833e612b03818361028a565b81019061290c565b93915091612a08565b90612b256103189493828451612e74565b60208201519151916138b2565b906020828203126101ca5781516001600160401b0381116101ca576103f392016128b7565b908160209103126101ca575160ff811681036101ca5790565b6001600160a01b0382168015612c8f576001600160a01b03831682526040516306fdde0360e01b81525f81600481855afa908115611363575f91612c75575b5060208301526040516395d89b4160e01b81525f81600481855afa918215611363576004926020925f91612c53575b5060408501526040519283809263313ce56760e01b82525afa8015611363576103189360ff612c1d926080945f91612c24575b50166060850152613b49565b1515910152565b612c46915060203d602011612c4c575b612c3e818361028a565b810190612b57565b5f612c11565b503d612c34565b612c6f91503d805f833e612c67818361028a565b810190612b32565b5f612bde565b612c8991503d805f833e612c67818361028a565b5f612baf565b505050565b51906001600160681b03821682036101ca57565b51906001600160801b03821682036101ca57565b908160609103126101ca57612cfa6040805192612cd8846101e2565b612ce181612c94565b8452612cef60208201612c94565b602085015201612ca8565b604082015290565b5190610318826105af565b51906001600160701b03821682036101ca57565b90816101c09103126101ca57612d356102eb565b90612d3f8161289a565b8252612d4d60208201612ca8565b6020830152612d5e60408201612ca8565b6040830152612d6f60608201612ca8565b6060830152612d8060808201612c94565b6080830152612d9160a08201612c94565b60a0830152612da260c08201612d02565b60c0830152612db360e0820161289a565b60e0830152610100612dc6818301612d02565b90830152610120612dd881830161288b565b90830152610140612dea81830161288b565b90830152610160612dfc81830161288b565b90830152610180612e0e818301612d0d565b90830152612e206101a0809201612d02565b9082015290565b60048210156106825752565b634e487b7160e01b5f52601160045260245ffd5b91908203918211612e5457565b612e33565b9060018201809211612e5457565b91908201809211612e5457565b6040516336f3542d60e21b815263ffffffff8416600482015290926001600160a01b03929092169190606081602481865afa908115611363575f91613074575b5063ffffffff82168452612ede612ed282516001600160681b031690565b6001600160681b031690565b906040850191825260209163ffffffff612f2e612f226040612f0c612ed2888801516001600160681b031690565b9560608b0196875201516001600160801b031690565b6001600160801b031690565b608088019081529416428110612fc757505f838701525b8151815114612fba5791612f6181926004959451905190612e47565b946040519485809263683dd19160e01b82525afa80156113635760a0946109e194612f94935f93612f9b575b5050613b63565b9051612e67565b612fb2929350803d10611d3857611d2a818361028a565b905f80612f8d565b50505060a0915051910152565b60405163060f1ff560e11b81526101c09081816004818b5afa9182156113635761301092613007926101a0925f92613047575b5050015163ffffffff1690565b63ffffffff1690565b101561302657600186840152612f45565b612f45565b815181510361303d5761302160035b848801612e27565b6130216002613035565b6130669250803d1061306d575b61305e818361028a565b810190612d21565b5f80612ffa565b503d613054565b613096915060603d60601161309c575b61308e818361028a565b810190612cbc565b5f612eb4565b503d613084565b919060018060a01b0380602083015116906130bf82865161373f565b6130d3602086015186518386511691613bb1565b604083019460406130e58751516121aa565b91019081525f5b86515181101561312b578061312561310760019385516120a4565b5163ffffffff613118848c516120a4565b511687878a511692612b14565b016130ec565b50505050509050565b908160209103126101ca57516103f3816101b9565b60209081818403126101ca578051906001600160401b0382116101ca57019180601f840112156101ca57825161317e8161033a565b9361318c604051958661028a565b818552838086019260051b8201019283116101ca578301905b8282106131b3575050505090565b815181529083019083016131a5565b90816101409103126101ca576131d661030b565b906131e081612d02565b82526131ee60208201612d02565b60208301526131ff6040820161288b565b60408301526132106060820161288b565b60608301526132216080820161288b565b608083015261323260a0820161288b565b60a083015261324360c08201612d02565b60c083015261325460e08201612d02565b60e083015261010061326781830161288b565b90830152612e2061012080920161288b565b6001600160a01b038281168083526040805162560fe560e71b81526004808201939093526020969495929480851692908883602481875afa9586156113635787935f976135da575b506080890180518b8b018051929990946132e4936001600160a01b0316926129ce565b60a0818716975101518a81519101207fe88e57acc9274eb23d6b440f97946a8667dd9c51f6fa0896ee155045af71ca7b81145f146135a85750600160608a01525b606089015161333381610a68565b61333c81610a68565b613403575b50508760c0880151958251978880926379502c5560e01b82525afa958615611363576133a496899661337a925f926133e4575b50613c83565b5163fe604ec760e01b81526001600160a01b03909316908301908152919384928391829160200190565b03915afa928315611363575f936133bf575b50506101200152565b61012092935090816133dc92903d10611d3857611d2a818361028a565b91905f6133b6565b6133fc919250883d8a11611d3857611d2a818361028a565b905f613374565b815192935090916001600160a01b0316161561353d575b508051638f8ef41960e01b81525f818781885afa801561136357613445915f9161351b575b50613bd8565b60e08701528051638792776760e01b81525f818781885afa801561136357613473915f9161351b5750613bd8565b610100870152805163a11ef06760e01b81526101409081818881895afa918215611363575f926134ee575b505060a087015280516306fdde0360e01b8152905f828781885afa80156113635786925f916134d4575b50818801525f80613341565b6134e891503d805f833e612c67818361028a565b5f6134c8565b61350d9250803d10613514575b613505818361028a565b8101906131c2565b5f8061349e565b503d6134fb565b61353791503d805f833e61352f818361028a565b810190613149565b5f61343f565b8151637df1f1b960e01b81529088828881895afa90811561136357613573925f92613579575b506001600160a01b039091169052565b5f61341a565b61359a9192508a3d8c116135a1575b613592818361028a565b810190613134565b905f613563565b503d613588565b7fb6d5b28f5ed4cbf362aba0058b9c7c2183fbb2f9619e8c5f77f35ae2e23de5470361332557600260608a0152613325565b6135f29197508a3d8c116135a157613592818361028a565b955f6132c1565b908160209103126101ca576103f39061289a565b6040516338d52e0f60e01b8152602093926001600160a01b0380821693928681600481885afa9485156113635787915f96613698575b5060405163335c0cf160e21b81529190829060049082905afa90811561136357610318975f9261367b575b505060601c931691613d0c565b6136919250803d10611d3857611d2a818361028a565b5f8061366e565b829196506136b4906004933d84116135a157613592818361028a565b959091613643565b60209081818403126101ca578051906001600160401b0382116101ca57019180601f840112156101ca5782516136f18161033a565b936136ff604051958661028a565b818552838086019260051b8201019283116101ca578301905b828210613726575050505090565b8380918351613734816105af565b815201910190613718565b80516001600160a01b0390921691613758908390612b70565b6020818101516040516338d52e0f60e01b81529182600481875afa9081156113635761378b925f9261385b575b50612b70565b60405163054fd4d560e41b81525f81600481865afa9081156113635760ff60016137c2936032935f91613841575b50015116141590565b61382f575f6004926137d3836140b0565b6137dc8361430e565b60405163878eb92160e01b815293849182905afa801561136357610318925f9161380d575b506103c0820152614420565b61382991503d805f833e613821818361028a565b8101906136bc565b5f613801565b60405163aaf4010160e01b8152600490fd5b61385591503d805f833e612c67818361028a565b5f6137b9565b61387591925060203d6020116135a157613592818361028a565b905f613785565b908160409103126101ca576138aa60206040519261389984610253565b6138a281612c94565b845201612ca8565b602082015290565b6001600160a01b039384168082528351604080516302372c4f60e01b8152600481019390935263ffffffff909116602483015291949092829184916044918391165afa928315611363576080938561397a926109e1955f93613982575b508690613969613961613949612f22602080613935612ed28b516001600160681b031690565b980198888a5201516001600160801b031690565b97808c0198895260a08401519084019586519161482f565b875190612e47565b60608a01520151915190519161482f565b905190612e47565b879193506139a590863d88116139ac575b61399d818361028a565b81019061387c565b929061390f565b503d613993565b6139c26103189392825161373f565b6020810151905190613bb1565b60c08201516001600160a01b031681529190604081015161ffff1660208481019190915293613a1c613a0d8684015169ffffffffffffffffffff1690565b69ffffffffffffffffffff1690565b606085015281516001600160a01b039290831680613a3e575b50505050505050565b613a4c906040870151612b70565b828216613a5a575b80613a35565b51613a6f90611efc906001600160a01b031681565b6040516370a0823160e01b81526001600160a01b0383166004820152928684602481855afa94851561136357613ae59588955f91613b2c575b506080880152604051636eb1769f60e11b81526001600160a01b039485166004820152911690921660248301529092839190829081906044820190565b03915afa928315611363575f93613b08575b505060a001525f8080808080613a54565b60a09293509081613b2492903d10611d3857611d2a818361028a565b91905f613af7565b613b439150863d8811611d3857611d2a818361028a565b5f613aa8565b5f6004601c6020936328ccaa2984525afa60015f51141690565b816b019d971e4fe8401e74000000190481111582151715613b9f576b033b2e3c9fd0803ce800000091026b019d971e4fe8401e74000000010490565b634e487b715f5260116020526024601cfd5b610318929160018060a01b0380825151169060808160208501515116930151511692613d0c565b908151613be48161033a565b90613bf2604051928361028a565b808252613c01601f199161033a565b015f5b818110613c6c575050805f5b84518110156125935780613c66613c29600193866120a4565b51613c3483896120a4565b5162ffffff808260101c1660608401528160281c16604083015260018060a01b038160401c16602083015260e01c9052565b01613c10565b602090613c77612488565b82828601015201613c04565b90610318916020815191613ca361ffff60501b93848660501b1690614851565b01519160401b1690614851565b908160809103126101ca57606060405191613cca83610202565b613cd38161289a565b83526020810151613ce3816101b9565b6020840152613cf46040820161289a565b60408401520151613d04816105af565b606082015290565b6001600160a01b0385811680835260408051630ed1279f60e11b8152600480820193909352602098919794969295841694919392908981602481895afa908115611363575f91614093575b50878a015287516370a0823160e01b8082526001600160a01b0386168883019081529092908b908390819060200103818a5afa80156113635785925f91614076575b50898b015289519283526001600160a01b038616888401908152911691908a90829081906020010381855afa908115611363575f91614059575b5060608801528751636eb1769f60e11b81526001600160a01b03808616888301908152908716602082015290918a918391908290819060400103915afa908115611363575f9161403c575b506080870152169081613e345750505050505050565b85516322a4a19f60e01b81526001600160a01b038216858201908152909490608090869081906020010381865afa9687156113635788955f9861400b575b508786018051909890613e8d906001600160a01b0316611efc565b613f18575b505163a9ff2dbf60e01b81526001600160a01b0392831691810191825291909316602084015294508491829081906040015b03915afa91821561136357613ee7935f93613ef3575b5050610120019015159052565b5f808080808080613a35565b6101209293509081613f1092903d106117d1576117c2818361028a565b91905f613eda565b9550613f30613f278751151590565b151560a0890152565b60c087015197518151635fe934df60e11b81526001600160a01b039091168382019081528a90829081906020010381885afa80156113635760608b98613fb5613fd893613ec49d613fe6965f92613fec575b509062ffffff808260101c1660608401528160281c16604083015260018060a01b038160401c16602083015260e01c9052565b613fcd613fc486830151151590565b151560e08d0152565b015163ffffffff1690565b63ffffffff16610100890152565b5f613e92565b6140049192508d803d10611d3857611d2a818361028a565b905f613f82565b61402e91985060803d608011614035575b614026818361028a565b810190613cb0565b965f613e72565b503d61401c565b6140539150893d8b11611d3857611d2a818361028a565b5f613e1e565b61407091508a3d8c11611d3857611d2a818361028a565b5f613dd3565b61408d91508c8d3d10611d3857611d2a818361028a565b5f613d99565b6140aa91508a3d8c11611d3857611d2a818361028a565b5f613d57565b8051516001600160a01b03166040805163c45a015560e01b8152602093909290916004906001600160a01b03831686868481845afa958615611363575f966142c0575b506001600160a01b03909516848201908152948151637df1f1b960e01b815287818581855afa80156113635761413b915f916142a3575b506001600160a01b03166060870152565b61414a60808601948551614a58565b8151634f37cc0160e11b815287818581855afa908115611363575f91614286575b5060a0860152815163011a412160e61b815287818581855afa8015611363576141a6915f91614269575b506001600160a01b031660c0870152565b81516325f343e360e11b81529187838581855afa80156113635788935f9161424c575b5060e0870152516328a5266b60e11b815292839182905afa9081156113635761421861422993611efc9361012093610318995f9261422f575b505061010087015251516001600160a01b031690565b93015193516001600160a01b031690565b91613279565b6142459250803d10611d3857611d2a818361028a565b5f80614202565b6142639150843d8611611d3857611d2a818361028a565b5f6141c9565b6142809150893d8b116135a157613592818361028a565b5f614195565b61429d9150883d8a11611d3857611d2a818361028a565b5f61416b565b6142ba9150893d8b116135a157613592818361028a565b5f61412a565b6142d8919650873d89116135a157613592818361028a565b945f6140f3565b908160609103126101ca576142f38161288b565b9160406143026020840161288b565b9201516103f3816105af565b80515161436a91906060906001600160a01b03166101208301515161433d90611efc906001600160a01b031681565b604051637f59b47160e11b81526001600160a01b0390921660048301529093849190829081906024820190565b03915afa9182156113635761031892610140915f915f915f916143b2575b5063ffffffff166101a0850181905261ffff91821661018086015291166101608401521515910152565b905063ffffffff92506143dd915060603d6060116143e7575b6143d5818361028a565b8101906142df565b9192909190614388565b503d6143cb565b906143f88261033a565b614405604051918261028a565b8281528092614416601f199161033a565b0190602036910137565b80515161443790611efc906001600160a01b031681565b604051630c3f6acf60e01b8152906101c08083600481855afa928315611363575f93614810575b5061447461446c8451151590565b151585830152565b61448e61448761012085015161ffff1690565b61ffff1690565b6101e08501526144a761448761016085015161ffff1690565b6102008501526144c061448761014085015161ffff1690565b6102208501526144ea6144de6101808501516001600160701b031690565b6001600160701b031690565b61024085015260808301805190926001600160681b039161450e9083165b86614e62565b610260870152614546612ed2602095614533612f22888a01516001600160801b031690565b6102808a0152516001600160681b031690565b6102a08701526040516278744560e21b81528481600481855afa908115611363575f916147f3575b506102c0870152604051630668d2db60e11b8152918483600481855afa80156113635761465e935f916147d6575b506102e08801526145ba612f2260608801516001600160801b031690565b6103008801526145d7612ed260a08801516001600160681b031690565b61032088015260c08601936145f3613007865163ffffffff1690565b94610340890195865261461661460c60e08a0151151590565b15156103608b0152565b61462b6130076101008a015163ffffffff1690565b6103808a01526146466130076101a08a015163ffffffff1690565b6103a08a015263ffffffff9485915163ffffffff1690565b1615614677575b5050505050506109e16103e091614dd4565b60405163060f1ff560e11b8152908082600481875afa8015611363576146ad9260c0925f92613047575050015163ffffffff1690565b928316948515614665576040516336f3542d60e21b815263ffffffff8516600482015292606090849060249082905afa928315611363575f936147ad575b50612ed26147139161470485516001600160681b031690565b9401516001600160681b031690565b91160361472f5750526103e0906109e1905b915f808080614665565b93809592506103c09150019384519261475061474b8551612e59565b6143ee565b86525f5b845181101561478c578061478661477061094a600194896120a4565b61477b838b516120a4565b9063ffffffff169052565b01614754565b5090936147a89061477b6103e0956109e19598519051906120a4565b614725565b6147139193506147ce612ed29160603d60601161309c5761308e818361028a565b9391506146eb565b6147ed9150863d8811611d3857611d2a818361028a565b5f61459c565b61480a9150853d8711611d3857611d2a818361028a565b5f61456e565b816148289294503d851161306d5761305e818361028a565b915f61445e565b815f1904811182021583021561484457020490565b63ad251c275f526004601cfd5b6101406103189260019061486c8282605f1c16859015159052565b605e81901c821615156020850152605d81901c821615156040850152605c81901c821615156060850152605b81901c821615156080850152605a81901c8216151560a0850152605981901c8216151560c0850152605881901c8216151560e0850152605781901c82161515610100850152605681901c8216151561012085015260551c161515910152565b6040519061490482610253565b600d82526c4f70656e5465726d486f6f6b7360981b6020830152565b6040519061492d82610253565b600e82526d46697865645465726d486f6f6b7360901b6020830152565b90816101209103126101ca5761495e61031a565b906149688161289a565b82526149766020820161289a565b60208301526149876040820161289a565b60408301526149986060820161289a565b60608301526149a960808201612ca8565b60808301526149ba60a08201612d02565b60a08301526149cb60c0820161289a565b60c08301526149dc60e0820161289a565b60e0830152612e2061010080920161289a565b908160a09103126101ca57614a50608060405192614a0c8461021d565b614a158161289a565b8452614a236020820161289a565b6020850152614a346040820161289a565b6040850152614a4560608201612ca8565b60608501520161289a565b608082015290565b6040805163335c0cf160e21b81529260209081856004816001600160a01b0385165afa948515611363575f95614db5575b50606085901c8085526004905f90614aa48886890151614851565b855163054fd4d560e41b815292839182905afa908115611363575f91614d9b575b50828151910120614ad46148f7565b8051908401208103614c12575060a0614b3591614af385870160019052565b8551614b0990611efc906001600160a01b031681565b8551632ccf466760e01b81526001600160a01b0390921660048301529092839190829081906024820190565b03915afa8015611363576103189560c094612c1d946080945f94614bc6575b5091614b8a614b82600193614b7a614b71614b9897890151151590565b151560608d0152565b860151151590565b151589870152565b605e1c161515610100870152565b614bbf614baf60608301516001600160801b031690565b6001600160801b031660a0870152565b0151151590565b614b9893919450614b82600193614b7a614b71614bfd614b8a9560a03d60a011614c0b575b614bf5818361028a565b8101906149ef565b989597505050935050614b54565b503d614beb565b9091929450614c1f614920565b83815191012014614c305750505050565b6002838501528251614c7f90614c5090611efc906001600160a01b031681565b8551632ccf466760e01b81526001600160a01b0390931660048401526101209182918491829081906024820190565b03915afa801561136357614d519561016094612c1d945f93614d5a575b50614cc491614cb3612a45614cbb93860151151590565b830151151590565b15156080870152565b614d1e614cd46060830151151590565b92614ce6610100948589019015159052565b614d0d614cfd60808501516001600160801b031690565b6001600160801b031660a0890152565b60a083015163ffffffff1690870152565b614d37614d2e60c0830151151590565b151560c0870152565b614bbf614d4760e0830151151590565b1515610140870152565b5f808080612128565b614cbb91935091614cb3612a45614d89614cc495883d8a11614d94575b614d81818361028a565b81019061494a565b959350505091614c9c565b503d614d77565b614daf91503d805f833e612c67818361028a565b5f614ac5565b614dcd919550823d8411611d3857611d2a818361028a565b935f614a89565b6001600160681b03908160a0820151169160808201511691808303928311612e545761ffff6101608301511680611388190484111581151715613b9f576060614e53614e36614508614e4d95612710611388612f22976103f39b020104612e67565b614e4d612f2260408801516001600160801b031690565b90612e67565b9301516001600160801b031690565b906001600160701b036101806103f39301511690613b6356fea164736f6c6343000819000a","linkReferences":{}},"methodIdentifiers":{"archController()":"54635570","getAllHooksTemplatesForBorrower(address)":"4b5a900d","getAllMarketsDataForHooksTemplate(address)":"dd92b92b","getHooksDataForBorrower(address)":"65531438","getHooksInstancesForBorrower(address)":"62ef8119","getHooksTemplateForBorrower(address,address)":"9016be4f","getHooksTemplatesForBorrower(address,address[])":"098aaea8","getLenderAccountData(address,address)":"87fed6d2","getLenderAccountData(address,address[])":"ffc7005e","getLenderAccountsData(address,address[])":"bc6ba6f6","getMarketData(address)":"a30c302d","getMarketDataWithLenderStatus(address,address)":"ddee0865","getMarketsData(address[])":"9f293fb1","getMarketsDataWithLenderStatus(address,address[])":"e85dfdf0","getMarketsForHooksTemplateCount(address)":"d1a0745c","getPaginatedMarketsDataForHooksTemplate(address,uint256,uint256)":"c4482d36","getTokenInfo(address)":"1f69565f","getTokensInfo(address[])":"46a0fe47","getWithdrawalBatchData(address,uint32)":"8febd74f","getWithdrawalBatchDataWithLenderStatus(address,uint32,address)":"733efd1e","getWithdrawalBatchDataWithLendersStatus(address,uint32,address[])":"b31d1015","getWithdrawalBatchesData(address,uint32[])":"274631a3","getWithdrawalBatchesDataWithLenderStatus(address,uint32[],address)":"0c52af99","hooksFactory()":"2385571b","queryLenderAccount((address,address,uint32[]))":"3be9be7a","queryLenderAccounts((address,address,uint32[])[])":"3d8d2dcd"},"id":75}